{
	"ETHBangkok/Operator/RunJob.sol": {
		"RunJob": {
			"abi": [
				{
					"inputs": [
						{
							"internalType": "address",
							"name": "_oracleAddress",
							"type": "address"
						}
					],
					"stateMutability": "nonpayable",
					"type": "constructor"
				},
				{
					"anonymous": false,
					"inputs": [
						{
							"indexed": true,
							"internalType": "bytes32",
							"name": "id",
							"type": "bytes32"
						}
					],
					"name": "ChainlinkCancelled",
					"type": "event"
				},
				{
					"anonymous": false,
					"inputs": [
						{
							"indexed": true,
							"internalType": "bytes32",
							"name": "id",
							"type": "bytes32"
						}
					],
					"name": "ChainlinkFulfilled",
					"type": "event"
				},
				{
					"anonymous": false,
					"inputs": [
						{
							"indexed": true,
							"internalType": "bytes32",
							"name": "id",
							"type": "bytes32"
						}
					],
					"name": "ChainlinkRequested",
					"type": "event"
				},
				{
					"anonymous": false,
					"inputs": [
						{
							"indexed": false,
							"internalType": "uint256",
							"name": "jobIndex",
							"type": "uint256"
						},
						{
							"indexed": false,
							"internalType": "string",
							"name": "jobId",
							"type": "string"
						}
					],
					"name": "JobAdded",
					"type": "event"
				},
				{
					"anonymous": false,
					"inputs": [
						{
							"indexed": false,
							"internalType": "uint256",
							"name": "jobIndex",
							"type": "uint256"
						}
					],
					"name": "JobRemoved",
					"type": "event"
				},
				{
					"anonymous": false,
					"inputs": [
						{
							"indexed": false,
							"internalType": "uint256",
							"name": "jobIndex",
							"type": "uint256"
						},
						{
							"indexed": false,
							"internalType": "string",
							"name": "newJobId",
							"type": "string"
						}
					],
					"name": "JobUpdated",
					"type": "event"
				},
				{
					"anonymous": false,
					"inputs": [
						{
							"indexed": false,
							"internalType": "address",
							"name": "newOracle",
							"type": "address"
						}
					],
					"name": "OracleAddressUpdated",
					"type": "event"
				},
				{
					"anonymous": false,
					"inputs": [
						{
							"indexed": true,
							"internalType": "address",
							"name": "from",
							"type": "address"
						},
						{
							"indexed": true,
							"internalType": "address",
							"name": "to",
							"type": "address"
						}
					],
					"name": "OwnershipTransferRequested",
					"type": "event"
				},
				{
					"anonymous": false,
					"inputs": [
						{
							"indexed": true,
							"internalType": "address",
							"name": "from",
							"type": "address"
						},
						{
							"indexed": true,
							"internalType": "address",
							"name": "to",
							"type": "address"
						}
					],
					"name": "OwnershipTransferred",
					"type": "event"
				},
				{
					"anonymous": false,
					"inputs": [
						{
							"indexed": true,
							"internalType": "bytes32",
							"name": "requestId",
							"type": "bytes32"
						},
						{
							"indexed": false,
							"internalType": "string",
							"name": "memo",
							"type": "string"
						}
					],
					"name": "RequestEventListenerFulfilled",
					"type": "event"
				},
				{
					"inputs": [],
					"name": "acceptOwnership",
					"outputs": [],
					"stateMutability": "nonpayable",
					"type": "function"
				},
				{
					"inputs": [
						{
							"internalType": "string",
							"name": "_jobId",
							"type": "string"
						}
					],
					"name": "addJob",
					"outputs": [],
					"stateMutability": "nonpayable",
					"type": "function"
				},
				{
					"inputs": [
						{
							"internalType": "bytes32",
							"name": "_requestId",
							"type": "bytes32"
						},
						{
							"internalType": "uint256",
							"name": "_payment",
							"type": "uint256"
						},
						{
							"internalType": "bytes4",
							"name": "_callbackFunctionId",
							"type": "bytes4"
						},
						{
							"internalType": "uint256",
							"name": "_expiration",
							"type": "uint256"
						}
					],
					"name": "cancelRequest",
					"outputs": [],
					"stateMutability": "nonpayable",
					"type": "function"
				},
				{
					"inputs": [
						{
							"internalType": "bytes32",
							"name": "_requestId",
							"type": "bytes32"
						},
						{
							"internalType": "string",
							"name": "_memo",
							"type": "string"
						}
					],
					"name": "fulfillEventListener",
					"outputs": [],
					"stateMutability": "nonpayable",
					"type": "function"
				},
				{
					"inputs": [],
					"name": "getChainlinkToken",
					"outputs": [
						{
							"internalType": "address",
							"name": "",
							"type": "address"
						}
					],
					"stateMutability": "view",
					"type": "function"
				},
				{
					"inputs": [
						{
							"internalType": "uint256",
							"name": "",
							"type": "uint256"
						}
					],
					"name": "jobs",
					"outputs": [
						{
							"internalType": "string",
							"name": "jobId",
							"type": "string"
						}
					],
					"stateMutability": "view",
					"type": "function"
				},
				{
					"inputs": [],
					"name": "lastMemo",
					"outputs": [
						{
							"internalType": "string",
							"name": "",
							"type": "string"
						}
					],
					"stateMutability": "view",
					"type": "function"
				},
				{
					"inputs": [],
					"name": "oracleAddress",
					"outputs": [
						{
							"internalType": "address",
							"name": "",
							"type": "address"
						}
					],
					"stateMutability": "view",
					"type": "function"
				},
				{
					"inputs": [],
					"name": "owner",
					"outputs": [
						{
							"internalType": "address",
							"name": "",
							"type": "address"
						}
					],
					"stateMutability": "view",
					"type": "function"
				},
				{
					"inputs": [
						{
							"internalType": "uint256",
							"name": "_index",
							"type": "uint256"
						}
					],
					"name": "removeJob",
					"outputs": [],
					"stateMutability": "nonpayable",
					"type": "function"
				},
				{
					"inputs": [],
					"name": "requestEventListener",
					"outputs": [],
					"stateMutability": "nonpayable",
					"type": "function"
				},
				{
					"inputs": [
						{
							"internalType": "address",
							"name": "to",
							"type": "address"
						}
					],
					"name": "transferOwnership",
					"outputs": [],
					"stateMutability": "nonpayable",
					"type": "function"
				},
				{
					"inputs": [
						{
							"internalType": "uint256",
							"name": "_index",
							"type": "uint256"
						},
						{
							"internalType": "string",
							"name": "_newJobId",
							"type": "string"
						}
					],
					"name": "updateJob",
					"outputs": [],
					"stateMutability": "nonpayable",
					"type": "function"
				},
				{
					"inputs": [
						{
							"internalType": "address",
							"name": "newOracle",
							"type": "address"
						}
					],
					"name": "updateOracleAddress",
					"outputs": [],
					"stateMutability": "nonpayable",
					"type": "function"
				},
				{
					"inputs": [],
					"name": "withdrawLink",
					"outputs": [],
					"stateMutability": "nonpayable",
					"type": "function"
				}
			],
			"devdoc": {
				"kind": "dev",
				"methods": {},
				"version": 1
			},
			"evm": {
				"assembly": "    /* \"ETHBangkok/Operator/RunJob.sol\":379:3632  contract RunJob is ChainlinkClient, ConfirmedOwner {... */\n  mstore(0x40, 0x80)\n    /* \"@chainlink/contracts@1.2.0/src/v0.8/ChainlinkClient.sol\":1482:1483  1 */\n  0x01\n    /* \"@chainlink/contracts@1.2.0/src/v0.8/ChainlinkClient.sol\":1449:1483  uint256 private s_requestCount = 1 */\n  0x04\n  sstore\n    /* \"ETHBangkok/Operator/RunJob.sol\":992:1178  constructor(address _oracleAddress) ConfirmedOwner(msg.sender) {... */\n  callvalue\n  dup1\n  iszero\n  tag_1\n  jumpi\n  0x00\n  dup1\n  revert\ntag_1:\n  pop\n  mload(0x40)\n  sub(codesize, bytecodeSize)\n  dup1\n  bytecodeSize\n  dup4\n  codecopy\n  dup2\n  dup2\n  add\n  0x40\n  mstore\n  dup2\n  add\n  swap1\n  tag_2\n  swap2\n  swap1\n  tag_3\n  jump\t// in\ntag_2:\n    /* \"ETHBangkok/Operator/RunJob.sol\":1043:1053  msg.sender */\n  caller\n    /* \"@chainlink/contracts@1.2.0/src/v0.8/shared/access/ConfirmedOwner.sol\":355:363  newOwner */\n  dup1\n    /* \"@chainlink/contracts@1.2.0/src/v0.8/shared/access/ConfirmedOwner.sol\":373:374  0 */\n  0x00\n    /* \"@chainlink/contracts@1.2.0/src/v0.8/shared/access/ConfirmedOwnerWithProposal.sol\":618:619  0 */\n  dup1\n    /* \"@chainlink/contracts@1.2.0/src/v0.8/shared/access/ConfirmedOwnerWithProposal.sol\":598:620  newOwner != address(0) */\n  0xffffffffffffffffffffffffffffffffffffffff\n  and\n    /* \"@chainlink/contracts@1.2.0/src/v0.8/shared/access/ConfirmedOwnerWithProposal.sol\":598:606  newOwner */\n  dup3\n    /* \"@chainlink/contracts@1.2.0/src/v0.8/shared/access/ConfirmedOwnerWithProposal.sol\":598:620  newOwner != address(0) */\n  0xffffffffffffffffffffffffffffffffffffffff\n  and\n  sub\n    /* \"@chainlink/contracts@1.2.0/src/v0.8/shared/access/ConfirmedOwnerWithProposal.sol\":590:649  require(newOwner != address(0), \"Cannot set owner to zero\") */\n  tag_8\n  jumpi\n  mload(0x40)\n  0x08c379a000000000000000000000000000000000000000000000000000000000\n  dup2\n  mstore\n  0x04\n  add\n  tag_9\n  swap1\n  tag_10\n  jump\t// in\ntag_9:\n  mload(0x40)\n  dup1\n  swap2\n  sub\n  swap1\n  revert\ntag_8:\n    /* \"@chainlink/contracts@1.2.0/src/v0.8/shared/access/ConfirmedOwnerWithProposal.sol\":666:674  newOwner */\n  dup2\n    /* \"@chainlink/contracts@1.2.0/src/v0.8/shared/access/ConfirmedOwnerWithProposal.sol\":656:663  s_owner */\n  0x06\n  0x00\n    /* \"@chainlink/contracts@1.2.0/src/v0.8/shared/access/ConfirmedOwnerWithProposal.sol\":656:674  s_owner = newOwner */\n  0x0100\n  exp\n  dup2\n  sload\n  dup2\n  0xffffffffffffffffffffffffffffffffffffffff\n  mul\n  not\n  and\n  swap1\n  dup4\n  0xffffffffffffffffffffffffffffffffffffffff\n  and\n  mul\n  or\n  swap1\n  sstore\n  pop\n    /* \"@chainlink/contracts@1.2.0/src/v0.8/shared/access/ConfirmedOwnerWithProposal.sol\":708:709  0 */\n  0x00\n    /* \"@chainlink/contracts@1.2.0/src/v0.8/shared/access/ConfirmedOwnerWithProposal.sol\":684:710  pendingOwner != address(0) */\n  0xffffffffffffffffffffffffffffffffffffffff\n  and\n    /* \"@chainlink/contracts@1.2.0/src/v0.8/shared/access/ConfirmedOwnerWithProposal.sol\":684:696  pendingOwner */\n  dup2\n    /* \"@chainlink/contracts@1.2.0/src/v0.8/shared/access/ConfirmedOwnerWithProposal.sol\":684:710  pendingOwner != address(0) */\n  0xffffffffffffffffffffffffffffffffffffffff\n  and\n  eq\n    /* \"@chainlink/contracts@1.2.0/src/v0.8/shared/access/ConfirmedOwnerWithProposal.sol\":680:759  if (pendingOwner != address(0)) {... */\n  tag_11\n  jumpi\n    /* \"@chainlink/contracts@1.2.0/src/v0.8/shared/access/ConfirmedOwnerWithProposal.sol\":720:752  _transferOwnership(pendingOwner) */\n  tag_12\n    /* \"@chainlink/contracts@1.2.0/src/v0.8/shared/access/ConfirmedOwnerWithProposal.sol\":739:751  pendingOwner */\n  dup2\n    /* \"@chainlink/contracts@1.2.0/src/v0.8/shared/access/ConfirmedOwnerWithProposal.sol\":720:738  _transferOwnership */\n  shl(0x20, tag_13)\n    /* \"@chainlink/contracts@1.2.0/src/v0.8/shared/access/ConfirmedOwnerWithProposal.sol\":720:752  _transferOwnership(pendingOwner) */\n  0x20\n  shr\n  jump\t// in\ntag_12:\n    /* \"@chainlink/contracts@1.2.0/src/v0.8/shared/access/ConfirmedOwnerWithProposal.sol\":680:759  if (pendingOwner != address(0)) {... */\ntag_11:\n    /* \"@chainlink/contracts@1.2.0/src/v0.8/shared/access/ConfirmedOwnerWithProposal.sol\":481:763  constructor(address newOwner, address pendingOwner) {... */\n  pop\n  pop\n    /* \"@chainlink/contracts@1.2.0/src/v0.8/shared/access/ConfirmedOwner.sol\":298:379  constructor(address newOwner) ConfirmedOwnerWithProposal(newOwner, address(0)) {} */\n  pop\n    /* \"ETHBangkok/Operator/RunJob.sol\":1066:1128  _setChainlinkToken(0x779877A7B0D9E8603169DdbD7836e478b4624789) */\n  tag_16\n    /* \"ETHBangkok/Operator/RunJob.sol\":1085:1127  0x779877A7B0D9E8603169DdbD7836e478b4624789 */\n  0x779877a7b0d9e8603169ddbd7836e478b4624789\n    /* \"ETHBangkok/Operator/RunJob.sol\":1066:1084  _setChainlinkToken */\n  shl(0x20, tag_17)\n    /* \"ETHBangkok/Operator/RunJob.sol\":1066:1128  _setChainlinkToken(0x779877A7B0D9E8603169DdbD7836e478b4624789) */\n  0x20\n  shr\n  jump\t// in\ntag_16:\n    /* \"ETHBangkok/Operator/RunJob.sol\":1156:1170  _oracleAddress */\n  dup1\n    /* \"ETHBangkok/Operator/RunJob.sol\":1140:1153  oracleAddress */\n  0x09\n  0x00\n    /* \"ETHBangkok/Operator/RunJob.sol\":1140:1170  oracleAddress = _oracleAddress */\n  0x0100\n  exp\n  dup2\n  sload\n  dup2\n  0xffffffffffffffffffffffffffffffffffffffff\n  mul\n  not\n  and\n  swap1\n  dup4\n  0xffffffffffffffffffffffffffffffffffffffff\n  and\n  mul\n  or\n  swap1\n  sstore\n  pop\n    /* \"ETHBangkok/Operator/RunJob.sol\":992:1178  constructor(address _oracleAddress) ConfirmedOwner(msg.sender) {... */\n  pop\n    /* \"ETHBangkok/Operator/RunJob.sol\":379:3632  contract RunJob is ChainlinkClient, ConfirmedOwner {... */\n  jump(tag_18)\n    /* \"@chainlink/contracts@1.2.0/src/v0.8/shared/access/ConfirmedOwnerWithProposal.sol\":1536:1775  function _transferOwnership(address to) private {... */\ntag_13:\n    /* \"@chainlink/contracts@1.2.0/src/v0.8/shared/access/ConfirmedOwnerWithProposal.sol\":1655:1665  msg.sender */\n  caller\n    /* \"@chainlink/contracts@1.2.0/src/v0.8/shared/access/ConfirmedOwnerWithProposal.sol\":1649:1665  to != msg.sender */\n  0xffffffffffffffffffffffffffffffffffffffff\n  and\n    /* \"@chainlink/contracts@1.2.0/src/v0.8/shared/access/ConfirmedOwnerWithProposal.sol\":1649:1651  to */\n  dup2\n    /* \"@chainlink/contracts@1.2.0/src/v0.8/shared/access/ConfirmedOwnerWithProposal.sol\":1649:1665  to != msg.sender */\n  0xffffffffffffffffffffffffffffffffffffffff\n  and\n  sub\n    /* \"@chainlink/contracts@1.2.0/src/v0.8/shared/access/ConfirmedOwnerWithProposal.sol\":1641:1693  require(to != msg.sender, \"Cannot transfer to self\") */\n  tag_20\n  jumpi\n  mload(0x40)\n  0x08c379a000000000000000000000000000000000000000000000000000000000\n  dup2\n  mstore\n  0x04\n  add\n  tag_21\n  swap1\n  tag_22\n  jump\t// in\ntag_21:\n  mload(0x40)\n  dup1\n  swap2\n  sub\n  swap1\n  revert\ntag_20:\n    /* \"@chainlink/contracts@1.2.0/src/v0.8/shared/access/ConfirmedOwnerWithProposal.sol\":1717:1719  to */\n  dup1\n    /* \"@chainlink/contracts@1.2.0/src/v0.8/shared/access/ConfirmedOwnerWithProposal.sol\":1700:1714  s_pendingOwner */\n  0x07\n  0x00\n    /* \"@chainlink/contracts@1.2.0/src/v0.8/shared/access/ConfirmedOwnerWithProposal.sol\":1700:1719  s_pendingOwner = to */\n  0x0100\n  exp\n  dup2\n  sload\n  dup2\n  0xffffffffffffffffffffffffffffffffffffffff\n  mul\n  not\n  and\n  swap1\n  dup4\n  0xffffffffffffffffffffffffffffffffffffffff\n  and\n  mul\n  or\n  swap1\n  sstore\n  pop\n    /* \"@chainlink/contracts@1.2.0/src/v0.8/shared/access/ConfirmedOwnerWithProposal.sol\":1767:1769  to */\n  dup1\n    /* \"@chainlink/contracts@1.2.0/src/v0.8/shared/access/ConfirmedOwnerWithProposal.sol\":1731:1770  OwnershipTransferRequested(s_owner, to) */\n  0xffffffffffffffffffffffffffffffffffffffff\n  and\n    /* \"@chainlink/contracts@1.2.0/src/v0.8/shared/access/ConfirmedOwnerWithProposal.sol\":1758:1765  s_owner */\n  0x06\n  0x00\n  swap1\n  sload\n  swap1\n  0x0100\n  exp\n  swap1\n  div\n  0xffffffffffffffffffffffffffffffffffffffff\n  and\n    /* \"@chainlink/contracts@1.2.0/src/v0.8/shared/access/ConfirmedOwnerWithProposal.sol\":1731:1770  OwnershipTransferRequested(s_owner, to) */\n  0xffffffffffffffffffffffffffffffffffffffff\n  and\n  0xed8889f560326eb138920d842192f0eb3dd22b4f139c87a2c57538e05bae1278\n  mload(0x40)\n  mload(0x40)\n  dup1\n  swap2\n  sub\n  swap1\n  log3\n    /* \"@chainlink/contracts@1.2.0/src/v0.8/shared/access/ConfirmedOwnerWithProposal.sol\":1536:1775  function _transferOwnership(address to) private {... */\n  pop\n  jump\t// out\n    /* \"@chainlink/contracts@1.2.0/src/v0.8/ChainlinkClient.sol\":8849:8958  function _setChainlinkToken(address linkAddress) internal {... */\ntag_17:\n    /* \"@chainlink/contracts@1.2.0/src/v0.8/ChainlinkClient.sol\":8941:8952  linkAddress */\n  dup1\n    /* \"@chainlink/contracts@1.2.0/src/v0.8/ChainlinkClient.sol\":8913:8919  s_link */\n  0x02\n  0x00\n    /* \"@chainlink/contracts@1.2.0/src/v0.8/ChainlinkClient.sol\":8913:8953  s_link = LinkTokenInterface(linkAddress) */\n  0x0100\n  exp\n  dup2\n  sload\n  dup2\n  0xffffffffffffffffffffffffffffffffffffffff\n  mul\n  not\n  and\n  swap1\n  dup4\n  0xffffffffffffffffffffffffffffffffffffffff\n  and\n  mul\n  or\n  swap1\n  sstore\n  pop\n    /* \"@chainlink/contracts@1.2.0/src/v0.8/ChainlinkClient.sol\":8849:8958  function _setChainlinkToken(address linkAddress) internal {... */\n  pop\n  jump\t// out\n    /* \"#utility.yul\":88:205   */\ntag_25:\n    /* \"#utility.yul\":197:198   */\n  0x00\n    /* \"#utility.yul\":194:195   */\n  dup1\n    /* \"#utility.yul\":187:199   */\n  revert\n    /* \"#utility.yul\":334:460   */\ntag_27:\n    /* \"#utility.yul\":371:378   */\n  0x00\n    /* \"#utility.yul\":411:453   */\n  0xffffffffffffffffffffffffffffffffffffffff\n    /* \"#utility.yul\":404:409   */\n  dup3\n    /* \"#utility.yul\":400:454   */\n  and\n    /* \"#utility.yul\":389:454   */\n  swap1\n  pop\n    /* \"#utility.yul\":334:460   */\n  swap2\n  swap1\n  pop\n  jump\t// out\n    /* \"#utility.yul\":466:562   */\ntag_28:\n    /* \"#utility.yul\":503:510   */\n  0x00\n    /* \"#utility.yul\":532:556   */\n  tag_42\n    /* \"#utility.yul\":550:555   */\n  dup3\n    /* \"#utility.yul\":532:556   */\n  tag_27\n  jump\t// in\ntag_42:\n    /* \"#utility.yul\":521:556   */\n  swap1\n  pop\n    /* \"#utility.yul\":466:562   */\n  swap2\n  swap1\n  pop\n  jump\t// out\n    /* \"#utility.yul\":568:690   */\ntag_29:\n    /* \"#utility.yul\":641:665   */\n  tag_44\n    /* \"#utility.yul\":659:664   */\n  dup2\n    /* \"#utility.yul\":641:665   */\n  tag_28\n  jump\t// in\ntag_44:\n    /* \"#utility.yul\":634:639   */\n  dup2\n    /* \"#utility.yul\":631:666   */\n  eq\n    /* \"#utility.yul\":621:684   */\n  tag_45\n  jumpi\n    /* \"#utility.yul\":680:681   */\n  0x00\n    /* \"#utility.yul\":677:678   */\n  dup1\n    /* \"#utility.yul\":670:682   */\n  revert\n    /* \"#utility.yul\":621:684   */\ntag_45:\n    /* \"#utility.yul\":568:690   */\n  pop\n  jump\t// out\n    /* \"#utility.yul\":696:839   */\ntag_30:\n    /* \"#utility.yul\":753:758   */\n  0x00\n    /* \"#utility.yul\":784:790   */\n  dup2\n    /* \"#utility.yul\":778:791   */\n  mload\n    /* \"#utility.yul\":769:791   */\n  swap1\n  pop\n    /* \"#utility.yul\":800:833   */\n  tag_47\n    /* \"#utility.yul\":827:832   */\n  dup2\n    /* \"#utility.yul\":800:833   */\n  tag_29\n  jump\t// in\ntag_47:\n    /* \"#utility.yul\":696:839   */\n  swap3\n  swap2\n  pop\n  pop\n  jump\t// out\n    /* \"#utility.yul\":845:1196   */\ntag_3:\n    /* \"#utility.yul\":915:921   */\n  0x00\n    /* \"#utility.yul\":964:966   */\n  0x20\n    /* \"#utility.yul\":952:961   */\n  dup3\n    /* \"#utility.yul\":943:950   */\n  dup5\n    /* \"#utility.yul\":939:962   */\n  sub\n    /* \"#utility.yul\":935:967   */\n  slt\n    /* \"#utility.yul\":932:1051   */\n  iszero\n  tag_49\n  jumpi\n    /* \"#utility.yul\":970:1049   */\n  tag_50\n  tag_25\n  jump\t// in\ntag_50:\n    /* \"#utility.yul\":932:1051   */\ntag_49:\n    /* \"#utility.yul\":1090:1091   */\n  0x00\n    /* \"#utility.yul\":1115:1179   */\n  tag_51\n    /* \"#utility.yul\":1171:1178   */\n  dup5\n    /* \"#utility.yul\":1162:1168   */\n  dup3\n    /* \"#utility.yul\":1151:1160   */\n  dup6\n    /* \"#utility.yul\":1147:1169   */\n  add\n    /* \"#utility.yul\":1115:1179   */\n  tag_30\n  jump\t// in\ntag_51:\n    /* \"#utility.yul\":1105:1179   */\n  swap2\n  pop\n    /* \"#utility.yul\":1061:1189   */\n  pop\n    /* \"#utility.yul\":845:1196   */\n  swap3\n  swap2\n  pop\n  pop\n  jump\t// out\n    /* \"#utility.yul\":1202:1371   */\ntag_31:\n    /* \"#utility.yul\":1286:1297   */\n  0x00\n    /* \"#utility.yul\":1320:1326   */\n  dup3\n    /* \"#utility.yul\":1315:1318   */\n  dup3\n    /* \"#utility.yul\":1308:1327   */\n  mstore\n    /* \"#utility.yul\":1360:1364   */\n  0x20\n    /* \"#utility.yul\":1355:1358   */\n  dup3\n    /* \"#utility.yul\":1351:1365   */\n  add\n    /* \"#utility.yul\":1336:1365   */\n  swap1\n  pop\n    /* \"#utility.yul\":1202:1371   */\n  swap3\n  swap2\n  pop\n  pop\n  jump\t// out\n    /* \"#utility.yul\":1377:1551   */\ntag_32:\n    /* \"#utility.yul\":1517:1543   */\n  0x43616e6e6f7420736574206f776e657220746f207a65726f0000000000000000\n    /* \"#utility.yul\":1513:1514   */\n  0x00\n    /* \"#utility.yul\":1505:1511   */\n  dup3\n    /* \"#utility.yul\":1501:1515   */\n  add\n    /* \"#utility.yul\":1494:1544   */\n  mstore\n    /* \"#utility.yul\":1377:1551   */\n  pop\n  jump\t// out\n    /* \"#utility.yul\":1557:1923   */\ntag_33:\n    /* \"#utility.yul\":1699:1702   */\n  0x00\n    /* \"#utility.yul\":1720:1787   */\n  tag_55\n    /* \"#utility.yul\":1784:1786   */\n  0x18\n    /* \"#utility.yul\":1779:1782   */\n  dup4\n    /* \"#utility.yul\":1720:1787   */\n  tag_31\n  jump\t// in\ntag_55:\n    /* \"#utility.yul\":1713:1787   */\n  swap2\n  pop\n    /* \"#utility.yul\":1796:1889   */\n  tag_56\n    /* \"#utility.yul\":1885:1888   */\n  dup3\n    /* \"#utility.yul\":1796:1889   */\n  tag_32\n  jump\t// in\ntag_56:\n    /* \"#utility.yul\":1914:1916   */\n  0x20\n    /* \"#utility.yul\":1909:1912   */\n  dup3\n    /* \"#utility.yul\":1905:1917   */\n  add\n    /* \"#utility.yul\":1898:1917   */\n  swap1\n  pop\n    /* \"#utility.yul\":1557:1923   */\n  swap2\n  swap1\n  pop\n  jump\t// out\n    /* \"#utility.yul\":1929:2348   */\ntag_10:\n    /* \"#utility.yul\":2095:2099   */\n  0x00\n    /* \"#utility.yul\":2133:2135   */\n  0x20\n    /* \"#utility.yul\":2122:2131   */\n  dup3\n    /* \"#utility.yul\":2118:2136   */\n  add\n    /* \"#utility.yul\":2110:2136   */\n  swap1\n  pop\n    /* \"#utility.yul\":2182:2191   */\n  dup2\n    /* \"#utility.yul\":2176:2180   */\n  dup2\n    /* \"#utility.yul\":2172:2192   */\n  sub\n    /* \"#utility.yul\":2168:2169   */\n  0x00\n    /* \"#utility.yul\":2157:2166   */\n  dup4\n    /* \"#utility.yul\":2153:2170   */\n  add\n    /* \"#utility.yul\":2146:2193   */\n  mstore\n    /* \"#utility.yul\":2210:2341   */\n  tag_58\n    /* \"#utility.yul\":2336:2340   */\n  dup2\n    /* \"#utility.yul\":2210:2341   */\n  tag_33\n  jump\t// in\ntag_58:\n    /* \"#utility.yul\":2202:2341   */\n  swap1\n  pop\n    /* \"#utility.yul\":1929:2348   */\n  swap2\n  swap1\n  pop\n  jump\t// out\n    /* \"#utility.yul\":2354:2527   */\ntag_34:\n    /* \"#utility.yul\":2494:2519   */\n  0x43616e6e6f74207472616e7366657220746f2073656c66000000000000000000\n    /* \"#utility.yul\":2490:2491   */\n  0x00\n    /* \"#utility.yul\":2482:2488   */\n  dup3\n    /* \"#utility.yul\":2478:2492   */\n  add\n    /* \"#utility.yul\":2471:2520   */\n  mstore\n    /* \"#utility.yul\":2354:2527   */\n  pop\n  jump\t// out\n    /* \"#utility.yul\":2533:2899   */\ntag_35:\n    /* \"#utility.yul\":2675:2678   */\n  0x00\n    /* \"#utility.yul\":2696:2763   */\n  tag_61\n    /* \"#utility.yul\":2760:2762   */\n  0x17\n    /* \"#utility.yul\":2755:2758   */\n  dup4\n    /* \"#utility.yul\":2696:2763   */\n  tag_31\n  jump\t// in\ntag_61:\n    /* \"#utility.yul\":2689:2763   */\n  swap2\n  pop\n    /* \"#utility.yul\":2772:2865   */\n  tag_62\n    /* \"#utility.yul\":2861:2864   */\n  dup3\n    /* \"#utility.yul\":2772:2865   */\n  tag_34\n  jump\t// in\ntag_62:\n    /* \"#utility.yul\":2890:2892   */\n  0x20\n    /* \"#utility.yul\":2885:2888   */\n  dup3\n    /* \"#utility.yul\":2881:2893   */\n  add\n    /* \"#utility.yul\":2874:2893   */\n  swap1\n  pop\n    /* \"#utility.yul\":2533:2899   */\n  swap2\n  swap1\n  pop\n  jump\t// out\n    /* \"#utility.yul\":2905:3324   */\ntag_22:\n    /* \"#utility.yul\":3071:3075   */\n  0x00\n    /* \"#utility.yul\":3109:3111   */\n  0x20\n    /* \"#utility.yul\":3098:3107   */\n  dup3\n    /* \"#utility.yul\":3094:3112   */\n  add\n    /* \"#utility.yul\":3086:3112   */\n  swap1\n  pop\n    /* \"#utility.yul\":3158:3167   */\n  dup2\n    /* \"#utility.yul\":3152:3156   */\n  dup2\n    /* \"#utility.yul\":3148:3168   */\n  sub\n    /* \"#utility.yul\":3144:3145   */\n  0x00\n    /* \"#utility.yul\":3133:3142   */\n  dup4\n    /* \"#utility.yul\":3129:3146   */\n  add\n    /* \"#utility.yul\":3122:3169   */\n  mstore\n    /* \"#utility.yul\":3186:3317   */\n  tag_64\n    /* \"#utility.yul\":3312:3316   */\n  dup2\n    /* \"#utility.yul\":3186:3317   */\n  tag_35\n  jump\t// in\ntag_64:\n    /* \"#utility.yul\":3178:3317   */\n  swap1\n  pop\n    /* \"#utility.yul\":2905:3324   */\n  swap2\n  swap1\n  pop\n  jump\t// out\n    /* \"ETHBangkok/Operator/RunJob.sol\":379:3632  contract RunJob is ChainlinkClient, ConfirmedOwner {... */\ntag_18:\n  dataSize(sub_0)\n  dup1\n  dataOffset(sub_0)\n  0x00\n  codecopy\n  0x00\n  return\nstop\n\nsub_0: assembly {\n        /* \"ETHBangkok/Operator/RunJob.sol\":379:3632  contract RunJob is ChainlinkClient, ConfirmedOwner {... */\n      mstore(0x40, 0x80)\n      callvalue\n      dup1\n      iszero\n      tag_1\n      jumpi\n      0x00\n      dup1\n      revert\n    tag_1:\n      pop\n      jumpi(tag_2, lt(calldatasize, 0x04))\n      shr(0xe0, calldataload(0x00))\n      dup1\n      0x8dc654a2\n      gt\n      tag_18\n      jumpi\n      dup1\n      0xd458fa96\n      gt\n      tag_19\n      jumpi\n      dup1\n      0xd458fa96\n      eq\n      tag_14\n      jumpi\n      dup1\n      0xec65d0f8\n      eq\n      tag_15\n      jumpi\n      dup1\n      0xf2fde38b\n      eq\n      tag_16\n      jumpi\n      dup1\n      0xf7023bb6\n      eq\n      tag_17\n      jumpi\n      jump(tag_2)\n    tag_19:\n      dup1\n      0x8dc654a2\n      eq\n      tag_10\n      jumpi\n      dup1\n      0x9cb29cbd\n      eq\n      tag_11\n      jumpi\n      dup1\n      0xa3416b67\n      eq\n      tag_12\n      jumpi\n      dup1\n      0xa89ae4ba\n      eq\n      tag_13\n      jumpi\n      jump(tag_2)\n    tag_18:\n      dup1\n      0x630c4ebc\n      gt\n      tag_20\n      jumpi\n      dup1\n      0x630c4ebc\n      eq\n      tag_6\n      jumpi\n      dup1\n      0x75cb0ac8\n      eq\n      tag_7\n      jumpi\n      dup1\n      0x79ba5097\n      eq\n      tag_8\n      jumpi\n      dup1\n      0x8da5cb5b\n      eq\n      tag_9\n      jumpi\n      jump(tag_2)\n    tag_20:\n      dup1\n      0x165d35e1\n      eq\n      tag_3\n      jumpi\n      dup1\n      0x180aedf3\n      eq\n      tag_4\n      jumpi\n      dup1\n      0x2cf2d1d3\n      eq\n      tag_5\n      jumpi\n    tag_2:\n      0x00\n      dup1\n      revert\n        /* \"ETHBangkok/Operator/RunJob.sol\":2728:2837  function getChainlinkToken() public view returns (address) {... */\n    tag_3:\n      tag_21\n      tag_22\n      jump\t// in\n    tag_21:\n      mload(0x40)\n      tag_23\n      swap2\n      swap1\n      tag_24\n      jump\t// in\n    tag_23:\n      mload(0x40)\n      dup1\n      swap2\n      sub\n      swap1\n      return\n        /* \"ETHBangkok/Operator/RunJob.sol\":678:695  Job[] public jobs */\n    tag_4:\n      tag_25\n      0x04\n      dup1\n      calldatasize\n      sub\n      dup2\n      add\n      swap1\n      tag_26\n      swap2\n      swap1\n      tag_27\n      jump\t// in\n    tag_26:\n      tag_28\n      jump\t// in\n    tag_25:\n      mload(0x40)\n      tag_29\n      swap2\n      swap1\n      tag_30\n      jump\t// in\n    tag_29:\n      mload(0x40)\n      dup1\n      swap2\n      sub\n      swap1\n      return\n        /* \"ETHBangkok/Operator/RunJob.sol\":1830:1992  function requestEventListener() public {... */\n    tag_5:\n      tag_31\n      tag_32\n      jump\t// in\n    tag_31:\n      stop\n        /* \"ETHBangkok/Operator/RunJob.sol\":560:582  string public lastMemo */\n    tag_6:\n      tag_33\n      tag_34\n      jump\t// in\n    tag_33:\n      mload(0x40)\n      tag_35\n      swap2\n      swap1\n      tag_30\n      jump\t// in\n    tag_35:\n      mload(0x40)\n      dup1\n      swap2\n      sub\n      swap1\n      return\n        /* \"ETHBangkok/Operator/RunJob.sol\":1186:1334  function addJob(string memory _jobId) external onlyOwner {... */\n    tag_7:\n      tag_36\n      0x04\n      dup1\n      calldatasize\n      sub\n      dup2\n      add\n      swap1\n      tag_37\n      swap2\n      swap1\n      tag_38\n      jump\t// in\n    tag_37:\n      tag_39\n      jump\t// in\n    tag_36:\n      stop\n        /* \"@chainlink/contracts@1.2.0/src/v0.8/shared/access/ConfirmedOwnerWithProposal.sol\":1026:1342  function acceptOwnership() external override {... */\n    tag_8:\n      tag_40\n      tag_41\n      jump\t// in\n    tag_40:\n      stop\n        /* \"@chainlink/contracts@1.2.0/src/v0.8/shared/access/ConfirmedOwnerWithProposal.sol\":1382:1463  function owner() public view override returns (address) {... */\n    tag_9:\n      tag_42\n      tag_43\n      jump\t// in\n    tag_42:\n      mload(0x40)\n      tag_44\n      swap2\n      swap1\n      tag_24\n      jump\t// in\n    tag_44:\n      mload(0x40)\n      dup1\n      swap2\n      sub\n      swap1\n      return\n        /* \"ETHBangkok/Operator/RunJob.sol\":2845:3073  function withdrawLink() public onlyOwner {... */\n    tag_10:\n      tag_45\n      tag_46\n      jump\t// in\n    tag_45:\n      stop\n        /* \"ETHBangkok/Operator/RunJob.sol\":1590:1822  function removeJob(uint256 _index) external onlyOwner {... */\n    tag_11:\n      tag_47\n      0x04\n      dup1\n      calldatasize\n      sub\n      dup2\n      add\n      swap1\n      tag_48\n      swap2\n      swap1\n      tag_27\n      jump\t// in\n    tag_48:\n      tag_49\n      jump\t// in\n    tag_47:\n      stop\n        /* \"ETHBangkok/Operator/RunJob.sol\":1342:1582  function updateJob(uint256 _index, string memory _newJobId) external onlyOwner {... */\n    tag_12:\n      tag_50\n      0x04\n      dup1\n      calldatasize\n      sub\n      dup2\n      add\n      swap1\n      tag_51\n      swap2\n      swap1\n      tag_52\n      jump\t// in\n    tag_51:\n      tag_53\n      jump\t// in\n    tag_50:\n      stop\n        /* \"ETHBangkok/Operator/RunJob.sol\":591:619  address public oracleAddress */\n    tag_13:\n      tag_54\n      tag_55\n      jump\t// in\n    tag_54:\n      mload(0x40)\n      tag_56\n      swap2\n      swap1\n      tag_24\n      jump\t// in\n    tag_56:\n      mload(0x40)\n      dup1\n      swap2\n      sub\n      swap1\n      return\n        /* \"ETHBangkok/Operator/RunJob.sol\":2338:2554  function fulfillEventListener(bytes32 _requestId, string memory _memo) public recordChainlinkFulfillment(_requestId) {... */\n    tag_14:\n      tag_57\n      0x04\n      dup1\n      calldatasize\n      sub\n      dup2\n      add\n      swap1\n      tag_58\n      swap2\n      swap1\n      tag_59\n      jump\t// in\n    tag_58:\n      tag_60\n      jump\t// in\n    tag_57:\n      stop\n        /* \"ETHBangkok/Operator/RunJob.sol\":3081:3306  function cancelRequest(bytes32 _requestId, uint256 _payment, bytes4 _callbackFunctionId, uint256 _expiration) public onlyOwner {... */\n    tag_15:\n      tag_61\n      0x04\n      dup1\n      calldatasize\n      sub\n      dup2\n      add\n      swap1\n      tag_62\n      swap2\n      swap1\n      tag_63\n      jump\t// in\n    tag_62:\n      tag_64\n      jump\t// in\n    tag_61:\n      stop\n        /* \"@chainlink/contracts@1.2.0/src/v0.8/shared/access/ConfirmedOwnerWithProposal.sol\":847:945  function transferOwnership(address to) public override onlyOwner {... */\n    tag_16:\n      tag_65\n      0x04\n      dup1\n      calldatasize\n      sub\n      dup2\n      add\n      swap1\n      tag_66\n      swap2\n      swap1\n      tag_67\n      jump\t// in\n    tag_66:\n      tag_68\n      jump\t// in\n    tag_65:\n      stop\n        /* \"ETHBangkok/Operator/RunJob.sol\":2562:2720  function updateOracleAddress(address newOracle) external onlyOwner {... */\n    tag_17:\n      tag_69\n      0x04\n      dup1\n      calldatasize\n      sub\n      dup2\n      add\n      swap1\n      tag_70\n      swap2\n      swap1\n      tag_67\n      jump\t// in\n    tag_70:\n      tag_71\n      jump\t// in\n    tag_69:\n      stop\n        /* \"ETHBangkok/Operator/RunJob.sol\":2728:2837  function getChainlinkToken() public view returns (address) {... */\n    tag_22:\n        /* \"ETHBangkok/Operator/RunJob.sol\":2778:2785  address */\n      0x00\n        /* \"ETHBangkok/Operator/RunJob.sol\":2805:2829  _chainlinkTokenAddress() */\n      tag_73\n        /* \"ETHBangkok/Operator/RunJob.sol\":2805:2827  _chainlinkTokenAddress */\n      tag_74\n        /* \"ETHBangkok/Operator/RunJob.sol\":2805:2829  _chainlinkTokenAddress() */\n      jump\t// in\n    tag_73:\n        /* \"ETHBangkok/Operator/RunJob.sol\":2798:2829  return _chainlinkTokenAddress() */\n      swap1\n      pop\n        /* \"ETHBangkok/Operator/RunJob.sol\":2728:2837  function getChainlinkToken() public view returns (address) {... */\n      swap1\n      jump\t// out\n        /* \"ETHBangkok/Operator/RunJob.sol\":678:695  Job[] public jobs */\n    tag_28:\n      0x0a\n      dup2\n      dup2\n      sload\n      dup2\n      lt\n      tag_75\n      jumpi\n      0x00\n      dup1\n      revert\n    tag_75:\n      swap1\n      0x00\n      mstore\n      keccak256(0x00, 0x20)\n      add\n      0x00\n      swap2\n      pop\n      swap1\n      pop\n      dup1\n      0x00\n      add\n      dup1\n      sload\n      tag_77\n      swap1\n      tag_78\n      jump\t// in\n    tag_77:\n      dup1\n      0x1f\n      add\n      0x20\n      dup1\n      swap2\n      div\n      mul\n      0x20\n      add\n      mload(0x40)\n      swap1\n      dup2\n      add\n      0x40\n      mstore\n      dup1\n      swap3\n      swap2\n      swap1\n      dup2\n      dup2\n      mstore\n      0x20\n      add\n      dup3\n      dup1\n      sload\n      tag_79\n      swap1\n      tag_78\n      jump\t// in\n    tag_79:\n      dup1\n      iszero\n      tag_80\n      jumpi\n      dup1\n      0x1f\n      lt\n      tag_81\n      jumpi\n      0x0100\n      dup1\n      dup4\n      sload\n      div\n      mul\n      dup4\n      mstore\n      swap2\n      0x20\n      add\n      swap2\n      jump(tag_80)\n    tag_81:\n      dup3\n      add\n      swap2\n      swap1\n      0x00\n      mstore\n      keccak256(0x00, 0x20)\n      swap1\n    tag_82:\n      dup2\n      sload\n      dup2\n      mstore\n      swap1\n      0x01\n      add\n      swap1\n      0x20\n      add\n      dup1\n      dup4\n      gt\n      tag_82\n      jumpi\n      dup3\n      swap1\n      sub\n      0x1f\n      and\n      dup3\n      add\n      swap2\n    tag_80:\n      pop\n      pop\n      pop\n      pop\n      pop\n      swap1\n      pop\n      dup2\n      jump\t// out\n        /* \"ETHBangkok/Operator/RunJob.sol\":1830:1992  function requestEventListener() public {... */\n    tag_32:\n        /* \"ETHBangkok/Operator/RunJob.sol\":1885:1894  uint256 i */\n      0x00\n        /* \"ETHBangkok/Operator/RunJob.sol\":1880:1985  for (uint256 i = 0; i < jobs.length; i++) {... */\n    tag_84:\n        /* \"ETHBangkok/Operator/RunJob.sol\":1904:1908  jobs */\n      0x0a\n        /* \"ETHBangkok/Operator/RunJob.sol\":1904:1915  jobs.length */\n      dup1\n      sload\n      swap1\n      pop\n        /* \"ETHBangkok/Operator/RunJob.sol\":1900:1901  i */\n      dup2\n        /* \"ETHBangkok/Operator/RunJob.sol\":1900:1915  i < jobs.length */\n      lt\n        /* \"ETHBangkok/Operator/RunJob.sol\":1880:1985  for (uint256 i = 0; i < jobs.length; i++) {... */\n      iszero\n      tag_85\n      jumpi\n        /* \"ETHBangkok/Operator/RunJob.sol\":1937:1973  _sendChainlinkRequest(jobs[i].jobId) */\n      tag_87\n        /* \"ETHBangkok/Operator/RunJob.sol\":1959:1963  jobs */\n      0x0a\n        /* \"ETHBangkok/Operator/RunJob.sol\":1964:1965  i */\n      dup3\n        /* \"ETHBangkok/Operator/RunJob.sol\":1959:1966  jobs[i] */\n      dup2\n      sload\n      dup2\n      lt\n      tag_88\n      jumpi\n      tag_89\n      tag_90\n      jump\t// in\n    tag_89:\n    tag_88:\n      swap1\n      0x00\n      mstore\n      keccak256(0x00, 0x20)\n      add\n        /* \"ETHBangkok/Operator/RunJob.sol\":1959:1972  jobs[i].jobId */\n      0x00\n      add\n        /* \"ETHBangkok/Operator/RunJob.sol\":1937:1973  _sendChainlinkRequest(jobs[i].jobId) */\n      dup1\n      sload\n      tag_92\n      swap1\n      tag_78\n      jump\t// in\n    tag_92:\n      dup1\n      0x1f\n      add\n      0x20\n      dup1\n      swap2\n      div\n      mul\n      0x20\n      add\n      mload(0x40)\n      swap1\n      dup2\n      add\n      0x40\n      mstore\n      dup1\n      swap3\n      swap2\n      swap1\n      dup2\n      dup2\n      mstore\n      0x20\n      add\n      dup3\n      dup1\n      sload\n      tag_93\n      swap1\n      tag_78\n      jump\t// in\n    tag_93:\n      dup1\n      iszero\n      tag_94\n      jumpi\n      dup1\n      0x1f\n      lt\n      tag_95\n      jumpi\n      0x0100\n      dup1\n      dup4\n      sload\n      div\n      mul\n      dup4\n      mstore\n      swap2\n      0x20\n      add\n      swap2\n      jump(tag_94)\n    tag_95:\n      dup3\n      add\n      swap2\n      swap1\n      0x00\n      mstore\n      keccak256(0x00, 0x20)\n      swap1\n    tag_96:\n      dup2\n      sload\n      dup2\n      mstore\n      swap1\n      0x01\n      add\n      swap1\n      0x20\n      add\n      dup1\n      dup4\n      gt\n      tag_96\n      jumpi\n      dup3\n      swap1\n      sub\n      0x1f\n      and\n      dup3\n      add\n      swap2\n    tag_94:\n      pop\n      pop\n      pop\n      pop\n      pop\n        /* \"ETHBangkok/Operator/RunJob.sol\":1937:1958  _sendChainlinkRequest */\n      tag_97\n        /* \"ETHBangkok/Operator/RunJob.sol\":1937:1973  _sendChainlinkRequest(jobs[i].jobId) */\n      jump\t// in\n    tag_87:\n        /* \"ETHBangkok/Operator/RunJob.sol\":1917:1920  i++ */\n      dup1\n      dup1\n      tag_98\n      swap1\n      tag_99\n      jump\t// in\n    tag_98:\n      swap2\n      pop\n      pop\n        /* \"ETHBangkok/Operator/RunJob.sol\":1880:1985  for (uint256 i = 0; i < jobs.length; i++) {... */\n      jump(tag_84)\n    tag_85:\n      pop\n        /* \"ETHBangkok/Operator/RunJob.sol\":1830:1992  function requestEventListener() public {... */\n      jump\t// out\n        /* \"ETHBangkok/Operator/RunJob.sol\":560:582  string public lastMemo */\n    tag_34:\n      0x08\n      dup1\n      sload\n      tag_100\n      swap1\n      tag_78\n      jump\t// in\n    tag_100:\n      dup1\n      0x1f\n      add\n      0x20\n      dup1\n      swap2\n      div\n      mul\n      0x20\n      add\n      mload(0x40)\n      swap1\n      dup2\n      add\n      0x40\n      mstore\n      dup1\n      swap3\n      swap2\n      swap1\n      dup2\n      dup2\n      mstore\n      0x20\n      add\n      dup3\n      dup1\n      sload\n      tag_101\n      swap1\n      tag_78\n      jump\t// in\n    tag_101:\n      dup1\n      iszero\n      tag_102\n      jumpi\n      dup1\n      0x1f\n      lt\n      tag_103\n      jumpi\n      0x0100\n      dup1\n      dup4\n      sload\n      div\n      mul\n      dup4\n      mstore\n      swap2\n      0x20\n      add\n      swap2\n      jump(tag_102)\n    tag_103:\n      dup3\n      add\n      swap2\n      swap1\n      0x00\n      mstore\n      keccak256(0x00, 0x20)\n      swap1\n    tag_104:\n      dup2\n      sload\n      dup2\n      mstore\n      swap1\n      0x01\n      add\n      swap1\n      0x20\n      add\n      dup1\n      dup4\n      gt\n      tag_104\n      jumpi\n      dup3\n      swap1\n      sub\n      0x1f\n      and\n      dup3\n      add\n      swap2\n    tag_102:\n      pop\n      pop\n      pop\n      pop\n      pop\n      dup2\n      jump\t// out\n        /* \"ETHBangkok/Operator/RunJob.sol\":1186:1334  function addJob(string memory _jobId) external onlyOwner {... */\n    tag_39:\n        /* \"@chainlink/contracts@1.2.0/src/v0.8/shared/access/ConfirmedOwnerWithProposal.sol\":2075:2095  _validateOwnership() */\n      tag_106\n        /* \"@chainlink/contracts@1.2.0/src/v0.8/shared/access/ConfirmedOwnerWithProposal.sol\":2075:2093  _validateOwnership */\n      tag_107\n        /* \"@chainlink/contracts@1.2.0/src/v0.8/shared/access/ConfirmedOwnerWithProposal.sol\":2075:2095  _validateOwnership() */\n      jump\t// in\n    tag_106:\n        /* \"ETHBangkok/Operator/RunJob.sol\":1254:1258  jobs */\n      0x0a\n        /* \"ETHBangkok/Operator/RunJob.sol\":1264:1275  Job(_jobId) */\n      mload(0x40)\n      dup1\n      0x20\n      add\n      0x40\n      mstore\n      dup1\n        /* \"ETHBangkok/Operator/RunJob.sol\":1268:1274  _jobId */\n      dup4\n        /* \"ETHBangkok/Operator/RunJob.sol\":1264:1275  Job(_jobId) */\n      dup2\n      mstore\n      pop\n        /* \"ETHBangkok/Operator/RunJob.sol\":1254:1276  jobs.push(Job(_jobId)) */\n      swap1\n      dup1\n      0x01\n      dup2\n      sload\n      add\n      dup1\n      dup3\n      sstore\n      dup1\n      swap2\n      pop\n      pop\n      0x01\n      swap1\n      sub\n      swap1\n      0x00\n      mstore\n      keccak256(0x00, 0x20)\n      add\n      0x00\n      swap1\n      swap2\n      swap1\n      swap2\n      swap1\n      swap2\n      pop\n      0x00\n      dup3\n      add\n      mload\n      dup2\n      0x00\n      add\n      swap1\n      dup2\n      tag_110\n      swap2\n      swap1\n      tag_111\n      jump\t// in\n    tag_110:\n      pop\n      pop\n      pop\n        /* \"ETHBangkok/Operator/RunJob.sol\":1292:1325  JobAdded(jobs.length - 1, _jobId) */\n      0xd20cd5a820b437a8b626451f79bea6c725fee49b38cec46c1b7eb12b44d40953\n        /* \"ETHBangkok/Operator/RunJob.sol\":1315:1316  1 */\n      0x01\n        /* \"ETHBangkok/Operator/RunJob.sol\":1301:1305  jobs */\n      0x0a\n        /* \"ETHBangkok/Operator/RunJob.sol\":1301:1312  jobs.length */\n      dup1\n      sload\n      swap1\n      pop\n        /* \"ETHBangkok/Operator/RunJob.sol\":1301:1316  jobs.length - 1 */\n      tag_112\n      swap2\n      swap1\n      tag_113\n      jump\t// in\n    tag_112:\n        /* \"ETHBangkok/Operator/RunJob.sol\":1318:1324  _jobId */\n      dup3\n        /* \"ETHBangkok/Operator/RunJob.sol\":1292:1325  JobAdded(jobs.length - 1, _jobId) */\n      mload(0x40)\n      tag_114\n      swap3\n      swap2\n      swap1\n      tag_115\n      jump\t// in\n    tag_114:\n      mload(0x40)\n      dup1\n      swap2\n      sub\n      swap1\n      log1\n        /* \"ETHBangkok/Operator/RunJob.sol\":1186:1334  function addJob(string memory _jobId) external onlyOwner {... */\n      pop\n      jump\t// out\n        /* \"@chainlink/contracts@1.2.0/src/v0.8/shared/access/ConfirmedOwnerWithProposal.sol\":1026:1342  function acceptOwnership() external override {... */\n    tag_41:\n        /* \"@chainlink/contracts@1.2.0/src/v0.8/shared/access/ConfirmedOwnerWithProposal.sol\":1150:1164  s_pendingOwner */\n      0x07\n      0x00\n      swap1\n      sload\n      swap1\n      0x0100\n      exp\n      swap1\n      div\n      0xffffffffffffffffffffffffffffffffffffffff\n      and\n        /* \"@chainlink/contracts@1.2.0/src/v0.8/shared/access/ConfirmedOwnerWithProposal.sol\":1136:1164  msg.sender == s_pendingOwner */\n      0xffffffffffffffffffffffffffffffffffffffff\n      and\n        /* \"@chainlink/contracts@1.2.0/src/v0.8/shared/access/ConfirmedOwnerWithProposal.sol\":1136:1146  msg.sender */\n      caller\n        /* \"@chainlink/contracts@1.2.0/src/v0.8/shared/access/ConfirmedOwnerWithProposal.sol\":1136:1164  msg.sender == s_pendingOwner */\n      0xffffffffffffffffffffffffffffffffffffffff\n      and\n      eq\n        /* \"@chainlink/contracts@1.2.0/src/v0.8/shared/access/ConfirmedOwnerWithProposal.sol\":1128:1191  require(msg.sender == s_pendingOwner, \"Must be proposed owner\") */\n      tag_117\n      jumpi\n      mload(0x40)\n      0x08c379a000000000000000000000000000000000000000000000000000000000\n      dup2\n      mstore\n      0x04\n      add\n      tag_118\n      swap1\n      tag_119\n      jump\t// in\n    tag_118:\n      mload(0x40)\n      dup1\n      swap2\n      sub\n      swap1\n      revert\n    tag_117:\n        /* \"@chainlink/contracts@1.2.0/src/v0.8/shared/access/ConfirmedOwnerWithProposal.sol\":1198:1214  address oldOwner */\n      0x00\n        /* \"@chainlink/contracts@1.2.0/src/v0.8/shared/access/ConfirmedOwnerWithProposal.sol\":1217:1224  s_owner */\n      0x06\n      0x00\n      swap1\n      sload\n      swap1\n      0x0100\n      exp\n      swap1\n      div\n      0xffffffffffffffffffffffffffffffffffffffff\n      and\n        /* \"@chainlink/contracts@1.2.0/src/v0.8/shared/access/ConfirmedOwnerWithProposal.sol\":1198:1224  address oldOwner = s_owner */\n      swap1\n      pop\n        /* \"@chainlink/contracts@1.2.0/src/v0.8/shared/access/ConfirmedOwnerWithProposal.sol\":1240:1250  msg.sender */\n      caller\n        /* \"@chainlink/contracts@1.2.0/src/v0.8/shared/access/ConfirmedOwnerWithProposal.sol\":1230:1237  s_owner */\n      0x06\n      0x00\n        /* \"@chainlink/contracts@1.2.0/src/v0.8/shared/access/ConfirmedOwnerWithProposal.sol\":1230:1250  s_owner = msg.sender */\n      0x0100\n      exp\n      dup2\n      sload\n      dup2\n      0xffffffffffffffffffffffffffffffffffffffff\n      mul\n      not\n      and\n      swap1\n      dup4\n      0xffffffffffffffffffffffffffffffffffffffff\n      and\n      mul\n      or\n      swap1\n      sstore\n      pop\n        /* \"@chainlink/contracts@1.2.0/src/v0.8/shared/access/ConfirmedOwnerWithProposal.sol\":1281:1282  0 */\n      0x00\n        /* \"@chainlink/contracts@1.2.0/src/v0.8/shared/access/ConfirmedOwnerWithProposal.sol\":1256:1270  s_pendingOwner */\n      0x07\n      0x00\n        /* \"@chainlink/contracts@1.2.0/src/v0.8/shared/access/ConfirmedOwnerWithProposal.sol\":1256:1283  s_pendingOwner = address(0) */\n      0x0100\n      exp\n      dup2\n      sload\n      dup2\n      0xffffffffffffffffffffffffffffffffffffffff\n      mul\n      not\n      and\n      swap1\n      dup4\n      0xffffffffffffffffffffffffffffffffffffffff\n      and\n      mul\n      or\n      swap1\n      sstore\n      pop\n        /* \"@chainlink/contracts@1.2.0/src/v0.8/shared/access/ConfirmedOwnerWithProposal.sol\":1326:1336  msg.sender */\n      caller\n        /* \"@chainlink/contracts@1.2.0/src/v0.8/shared/access/ConfirmedOwnerWithProposal.sol\":1295:1337  OwnershipTransferred(oldOwner, msg.sender) */\n      0xffffffffffffffffffffffffffffffffffffffff\n      and\n        /* \"@chainlink/contracts@1.2.0/src/v0.8/shared/access/ConfirmedOwnerWithProposal.sol\":1316:1324  oldOwner */\n      dup2\n        /* \"@chainlink/contracts@1.2.0/src/v0.8/shared/access/ConfirmedOwnerWithProposal.sol\":1295:1337  OwnershipTransferred(oldOwner, msg.sender) */\n      0xffffffffffffffffffffffffffffffffffffffff\n      and\n      0x8be0079c531659141344cd1fd0a4f28419497f9722a3daafe3b4186f6b6457e0\n      mload(0x40)\n      mload(0x40)\n      dup1\n      swap2\n      sub\n      swap1\n      log3\n        /* \"@chainlink/contracts@1.2.0/src/v0.8/shared/access/ConfirmedOwnerWithProposal.sol\":1071:1342  {... */\n      pop\n        /* \"@chainlink/contracts@1.2.0/src/v0.8/shared/access/ConfirmedOwnerWithProposal.sol\":1026:1342  function acceptOwnership() external override {... */\n      jump\t// out\n        /* \"@chainlink/contracts@1.2.0/src/v0.8/shared/access/ConfirmedOwnerWithProposal.sol\":1382:1463  function owner() public view override returns (address) {... */\n    tag_43:\n        /* \"@chainlink/contracts@1.2.0/src/v0.8/shared/access/ConfirmedOwnerWithProposal.sol\":1429:1436  address */\n      0x00\n        /* \"@chainlink/contracts@1.2.0/src/v0.8/shared/access/ConfirmedOwnerWithProposal.sol\":1451:1458  s_owner */\n      0x06\n      0x00\n      swap1\n      sload\n      swap1\n      0x0100\n      exp\n      swap1\n      div\n      0xffffffffffffffffffffffffffffffffffffffff\n      and\n        /* \"@chainlink/contracts@1.2.0/src/v0.8/shared/access/ConfirmedOwnerWithProposal.sol\":1444:1458  return s_owner */\n      swap1\n      pop\n        /* \"@chainlink/contracts@1.2.0/src/v0.8/shared/access/ConfirmedOwnerWithProposal.sol\":1382:1463  function owner() public view override returns (address) {... */\n      swap1\n      jump\t// out\n        /* \"ETHBangkok/Operator/RunJob.sol\":2845:3073  function withdrawLink() public onlyOwner {... */\n    tag_46:\n        /* \"@chainlink/contracts@1.2.0/src/v0.8/shared/access/ConfirmedOwnerWithProposal.sol\":2075:2095  _validateOwnership() */\n      tag_122\n        /* \"@chainlink/contracts@1.2.0/src/v0.8/shared/access/ConfirmedOwnerWithProposal.sol\":2075:2093  _validateOwnership */\n      tag_107\n        /* \"@chainlink/contracts@1.2.0/src/v0.8/shared/access/ConfirmedOwnerWithProposal.sol\":2075:2095  _validateOwnership() */\n      jump\t// in\n    tag_122:\n        /* \"ETHBangkok/Operator/RunJob.sol\":2897:2920  LinkTokenInterface link */\n      0x00\n        /* \"ETHBangkok/Operator/RunJob.sol\":2942:2966  _chainlinkTokenAddress() */\n      tag_124\n        /* \"ETHBangkok/Operator/RunJob.sol\":2942:2964  _chainlinkTokenAddress */\n      tag_74\n        /* \"ETHBangkok/Operator/RunJob.sol\":2942:2966  _chainlinkTokenAddress() */\n      jump\t// in\n    tag_124:\n        /* \"ETHBangkok/Operator/RunJob.sol\":2897:2967  LinkTokenInterface link = LinkTokenInterface(_chainlinkTokenAddress()) */\n      swap1\n      pop\n        /* \"ETHBangkok/Operator/RunJob.sol\":2986:2990  link */\n      dup1\n        /* \"ETHBangkok/Operator/RunJob.sol\":2986:2999  link.transfer */\n      0xffffffffffffffffffffffffffffffffffffffff\n      and\n      0xa9059cbb\n        /* \"ETHBangkok/Operator/RunJob.sol\":3000:3010  msg.sender */\n      caller\n        /* \"ETHBangkok/Operator/RunJob.sol\":3012:3016  link */\n      dup4\n        /* \"ETHBangkok/Operator/RunJob.sol\":3012:3026  link.balanceOf */\n      0xffffffffffffffffffffffffffffffffffffffff\n      and\n      0x70a08231\n        /* \"ETHBangkok/Operator/RunJob.sol\":3035:3039  this */\n      address\n        /* \"ETHBangkok/Operator/RunJob.sol\":3012:3041  link.balanceOf(address(this)) */\n      mload(0x40)\n      dup3\n      0xffffffff\n      and\n      0xe0\n      shl\n      dup2\n      mstore\n      0x04\n      add\n      tag_125\n      swap2\n      swap1\n      tag_24\n      jump\t// in\n    tag_125:\n      0x20\n      mload(0x40)\n      dup1\n      dup4\n      sub\n      dup2\n      dup7\n      gas\n      staticcall\n      iszero\n      dup1\n      iszero\n      tag_127\n      jumpi\n      returndatasize\n      0x00\n      dup1\n      returndatacopy\n      revert(0x00, returndatasize)\n    tag_127:\n      pop\n      pop\n      pop\n      pop\n      mload(0x40)\n      returndatasize\n      not(0x1f)\n      0x1f\n      dup3\n      add\n      and\n      dup3\n      add\n      dup1\n      0x40\n      mstore\n      pop\n      dup2\n      add\n      swap1\n      tag_128\n      swap2\n      swap1\n      tag_129\n      jump\t// in\n    tag_128:\n        /* \"ETHBangkok/Operator/RunJob.sol\":2986:3042  link.transfer(msg.sender, link.balanceOf(address(this))) */\n      mload(0x40)\n      dup4\n      0xffffffff\n      and\n      0xe0\n      shl\n      dup2\n      mstore\n      0x04\n      add\n      tag_130\n      swap3\n      swap2\n      swap1\n      tag_131\n      jump\t// in\n    tag_130:\n      0x20\n      mload(0x40)\n      dup1\n      dup4\n      sub\n      dup2\n      0x00\n      dup8\n      gas\n      call\n      iszero\n      dup1\n      iszero\n      tag_133\n      jumpi\n      returndatasize\n      0x00\n      dup1\n      returndatacopy\n      revert(0x00, returndatasize)\n    tag_133:\n      pop\n      pop\n      pop\n      pop\n      mload(0x40)\n      returndatasize\n      not(0x1f)\n      0x1f\n      dup3\n      add\n      and\n      dup3\n      add\n      dup1\n      0x40\n      mstore\n      pop\n      dup2\n      add\n      swap1\n      tag_134\n      swap2\n      swap1\n      tag_135\n      jump\t// in\n    tag_134:\n        /* \"ETHBangkok/Operator/RunJob.sol\":2978:3065  require(link.transfer(msg.sender, link.balanceOf(address(this))), \"Unable to transfer\") */\n      tag_136\n      jumpi\n      mload(0x40)\n      0x08c379a000000000000000000000000000000000000000000000000000000000\n      dup2\n      mstore\n      0x04\n      add\n      tag_137\n      swap1\n      tag_138\n      jump\t// in\n    tag_137:\n      mload(0x40)\n      dup1\n      swap2\n      sub\n      swap1\n      revert\n    tag_136:\n        /* \"ETHBangkok/Operator/RunJob.sol\":2886:3073  {... */\n      pop\n        /* \"ETHBangkok/Operator/RunJob.sol\":2845:3073  function withdrawLink() public onlyOwner {... */\n      jump\t// out\n        /* \"ETHBangkok/Operator/RunJob.sol\":1590:1822  function removeJob(uint256 _index) external onlyOwner {... */\n    tag_49:\n        /* \"@chainlink/contracts@1.2.0/src/v0.8/shared/access/ConfirmedOwnerWithProposal.sol\":2075:2095  _validateOwnership() */\n      tag_140\n        /* \"@chainlink/contracts@1.2.0/src/v0.8/shared/access/ConfirmedOwnerWithProposal.sol\":2075:2093  _validateOwnership */\n      tag_107\n        /* \"@chainlink/contracts@1.2.0/src/v0.8/shared/access/ConfirmedOwnerWithProposal.sol\":2075:2095  _validateOwnership() */\n      jump\t// in\n    tag_140:\n        /* \"ETHBangkok/Operator/RunJob.sol\":1672:1676  jobs */\n      0x0a\n        /* \"ETHBangkok/Operator/RunJob.sol\":1672:1683  jobs.length */\n      dup1\n      sload\n      swap1\n      pop\n        /* \"ETHBangkok/Operator/RunJob.sol\":1663:1669  _index */\n      dup2\n        /* \"ETHBangkok/Operator/RunJob.sol\":1663:1683  _index < jobs.length */\n      lt\n        /* \"ETHBangkok/Operator/RunJob.sol\":1655:1711  require(_index < jobs.length, \"Job index out of bounds\") */\n      tag_142\n      jumpi\n      mload(0x40)\n      0x08c379a000000000000000000000000000000000000000000000000000000000\n      dup2\n      mstore\n      0x04\n      add\n      tag_143\n      swap1\n      tag_144\n      jump\t// in\n    tag_143:\n      mload(0x40)\n      dup1\n      swap2\n      sub\n      swap1\n      revert\n    tag_142:\n        /* \"ETHBangkok/Operator/RunJob.sol\":1737:1741  jobs */\n      0x0a\n        /* \"ETHBangkok/Operator/RunJob.sol\":1756:1757  1 */\n      0x01\n        /* \"ETHBangkok/Operator/RunJob.sol\":1742:1746  jobs */\n      0x0a\n        /* \"ETHBangkok/Operator/RunJob.sol\":1742:1753  jobs.length */\n      dup1\n      sload\n      swap1\n      pop\n        /* \"ETHBangkok/Operator/RunJob.sol\":1742:1757  jobs.length - 1 */\n      tag_145\n      swap2\n      swap1\n      tag_113\n      jump\t// in\n    tag_145:\n        /* \"ETHBangkok/Operator/RunJob.sol\":1737:1758  jobs[jobs.length - 1] */\n      dup2\n      sload\n      dup2\n      lt\n      tag_146\n      jumpi\n      tag_147\n      tag_90\n      jump\t// in\n    tag_147:\n    tag_146:\n      swap1\n      0x00\n      mstore\n      keccak256(0x00, 0x20)\n      add\n        /* \"ETHBangkok/Operator/RunJob.sol\":1722:1726  jobs */\n      0x0a\n        /* \"ETHBangkok/Operator/RunJob.sol\":1727:1733  _index */\n      dup3\n        /* \"ETHBangkok/Operator/RunJob.sol\":1722:1734  jobs[_index] */\n      dup2\n      sload\n      dup2\n      lt\n      tag_149\n      jumpi\n      tag_150\n      tag_90\n      jump\t// in\n    tag_150:\n    tag_149:\n      swap1\n      0x00\n      mstore\n      keccak256(0x00, 0x20)\n      add\n        /* \"ETHBangkok/Operator/RunJob.sol\":1722:1758  jobs[_index] = jobs[jobs.length - 1] */\n      0x00\n      dup3\n      add\n      dup2\n      0x00\n      add\n      swap1\n      dup2\n      tag_152\n      swap2\n      swap1\n      tag_153\n      jump\t// in\n    tag_152:\n      pop\n      swap1\n      pop\n      pop\n        /* \"ETHBangkok/Operator/RunJob.sol\":1770:1774  jobs */\n      0x0a\n        /* \"ETHBangkok/Operator/RunJob.sol\":1770:1780  jobs.pop() */\n      dup1\n      sload\n      dup1\n      tag_154\n      jumpi\n      tag_155\n      tag_156\n      jump\t// in\n    tag_155:\n    tag_154:\n      0x01\n      swap1\n      sub\n      dup2\n      dup2\n      swap1\n      0x00\n      mstore\n      keccak256(0x00, 0x20)\n      add\n      0x00\n      dup1\n      dup3\n      add\n      0x00\n      tag_158\n      swap2\n      swap1\n      tag_159\n      jump\t// in\n    tag_158:\n      pop\n      pop\n      swap1\n      sstore\n        /* \"ETHBangkok/Operator/RunJob.sol\":1796:1814  JobRemoved(_index) */\n      0x6daba074dba7f6e2f5fd289e20080bf7047e96329b083fc1dab326fbefd762bb\n        /* \"ETHBangkok/Operator/RunJob.sol\":1807:1813  _index */\n      dup2\n        /* \"ETHBangkok/Operator/RunJob.sol\":1796:1814  JobRemoved(_index) */\n      mload(0x40)\n      tag_160\n      swap2\n      swap1\n      tag_161\n      jump\t// in\n    tag_160:\n      mload(0x40)\n      dup1\n      swap2\n      sub\n      swap1\n      log1\n        /* \"ETHBangkok/Operator/RunJob.sol\":1590:1822  function removeJob(uint256 _index) external onlyOwner {... */\n      pop\n      jump\t// out\n        /* \"ETHBangkok/Operator/RunJob.sol\":1342:1582  function updateJob(uint256 _index, string memory _newJobId) external onlyOwner {... */\n    tag_53:\n        /* \"@chainlink/contracts@1.2.0/src/v0.8/shared/access/ConfirmedOwnerWithProposal.sol\":2075:2095  _validateOwnership() */\n      tag_163\n        /* \"@chainlink/contracts@1.2.0/src/v0.8/shared/access/ConfirmedOwnerWithProposal.sol\":2075:2093  _validateOwnership */\n      tag_107\n        /* \"@chainlink/contracts@1.2.0/src/v0.8/shared/access/ConfirmedOwnerWithProposal.sol\":2075:2095  _validateOwnership() */\n      jump\t// in\n    tag_163:\n        /* \"ETHBangkok/Operator/RunJob.sol\":1449:1453  jobs */\n      0x0a\n        /* \"ETHBangkok/Operator/RunJob.sol\":1449:1460  jobs.length */\n      dup1\n      sload\n      swap1\n      pop\n        /* \"ETHBangkok/Operator/RunJob.sol\":1440:1446  _index */\n      dup3\n        /* \"ETHBangkok/Operator/RunJob.sol\":1440:1460  _index < jobs.length */\n      lt\n        /* \"ETHBangkok/Operator/RunJob.sol\":1432:1488  require(_index < jobs.length, \"Job index out of bounds\") */\n      tag_165\n      jumpi\n      mload(0x40)\n      0x08c379a000000000000000000000000000000000000000000000000000000000\n      dup2\n      mstore\n      0x04\n      add\n      tag_166\n      swap1\n      tag_144\n      jump\t// in\n    tag_166:\n      mload(0x40)\n      dup1\n      swap2\n      sub\n      swap1\n      revert\n    tag_165:\n        /* \"ETHBangkok/Operator/RunJob.sol\":1520:1529  _newJobId */\n      dup1\n        /* \"ETHBangkok/Operator/RunJob.sol\":1499:1503  jobs */\n      0x0a\n        /* \"ETHBangkok/Operator/RunJob.sol\":1504:1510  _index */\n      dup4\n        /* \"ETHBangkok/Operator/RunJob.sol\":1499:1511  jobs[_index] */\n      dup2\n      sload\n      dup2\n      lt\n      tag_167\n      jumpi\n      tag_168\n      tag_90\n      jump\t// in\n    tag_168:\n    tag_167:\n      swap1\n      0x00\n      mstore\n      keccak256(0x00, 0x20)\n      add\n        /* \"ETHBangkok/Operator/RunJob.sol\":1499:1517  jobs[_index].jobId */\n      0x00\n      add\n        /* \"ETHBangkok/Operator/RunJob.sol\":1499:1529  jobs[_index].jobId = _newJobId */\n      swap1\n      dup2\n      tag_170\n      swap2\n      swap1\n      tag_111\n      jump\t// in\n    tag_170:\n      pop\n        /* \"ETHBangkok/Operator/RunJob.sol\":1545:1574  JobUpdated(_index, _newJobId) */\n      0x4b8f0934c14da92e4e0907a10b2b403a99fae79d2f3961b5c7f78744ed443404\n        /* \"ETHBangkok/Operator/RunJob.sol\":1556:1562  _index */\n      dup3\n        /* \"ETHBangkok/Operator/RunJob.sol\":1564:1573  _newJobId */\n      dup3\n        /* \"ETHBangkok/Operator/RunJob.sol\":1545:1574  JobUpdated(_index, _newJobId) */\n      mload(0x40)\n      tag_171\n      swap3\n      swap2\n      swap1\n      tag_115\n      jump\t// in\n    tag_171:\n      mload(0x40)\n      dup1\n      swap2\n      sub\n      swap1\n      log1\n        /* \"ETHBangkok/Operator/RunJob.sol\":1342:1582  function updateJob(uint256 _index, string memory _newJobId) external onlyOwner {... */\n      pop\n      pop\n      jump\t// out\n        /* \"ETHBangkok/Operator/RunJob.sol\":591:619  address public oracleAddress */\n    tag_55:\n      0x09\n      0x00\n      swap1\n      sload\n      swap1\n      0x0100\n      exp\n      swap1\n      div\n      0xffffffffffffffffffffffffffffffffffffffff\n      and\n      dup2\n      jump\t// out\n        /* \"ETHBangkok/Operator/RunJob.sol\":2338:2554  function fulfillEventListener(bytes32 _requestId, string memory _memo) public recordChainlinkFulfillment(_requestId) {... */\n    tag_60:\n        /* \"ETHBangkok/Operator/RunJob.sol\":2443:2453  _requestId */\n      dup2\n        /* \"@chainlink/contracts@1.2.0/src/v0.8/ChainlinkClient.sol\":11913:11930  s_pendingRequests */\n      0x05\n        /* \"@chainlink/contracts@1.2.0/src/v0.8/ChainlinkClient.sol\":11913:11941  s_pendingRequests[requestId] */\n      0x00\n        /* \"@chainlink/contracts@1.2.0/src/v0.8/ChainlinkClient.sol\":11931:11940  requestId */\n      dup3\n        /* \"@chainlink/contracts@1.2.0/src/v0.8/ChainlinkClient.sol\":11913:11941  s_pendingRequests[requestId] */\n      dup2\n      mstore\n      0x20\n      add\n      swap1\n      dup2\n      mstore\n      0x20\n      add\n      0x00\n      keccak256\n      0x00\n      swap1\n      sload\n      swap1\n      0x0100\n      exp\n      swap1\n      div\n      0xffffffffffffffffffffffffffffffffffffffff\n      and\n        /* \"@chainlink/contracts@1.2.0/src/v0.8/ChainlinkClient.sol\":11899:11941  msg.sender == s_pendingRequests[requestId] */\n      0xffffffffffffffffffffffffffffffffffffffff\n      and\n        /* \"@chainlink/contracts@1.2.0/src/v0.8/ChainlinkClient.sol\":11899:11909  msg.sender */\n      caller\n        /* \"@chainlink/contracts@1.2.0/src/v0.8/ChainlinkClient.sol\":11899:11941  msg.sender == s_pendingRequests[requestId] */\n      0xffffffffffffffffffffffffffffffffffffffff\n      and\n      eq\n        /* \"@chainlink/contracts@1.2.0/src/v0.8/ChainlinkClient.sol\":11891:11986  require(msg.sender == s_pendingRequests[requestId], \"Source must be the oracle of the request\") */\n      tag_173\n      jumpi\n      mload(0x40)\n      0x08c379a000000000000000000000000000000000000000000000000000000000\n      dup2\n      mstore\n      0x04\n      add\n      tag_174\n      swap1\n      tag_175\n      jump\t// in\n    tag_174:\n      mload(0x40)\n      dup1\n      swap2\n      sub\n      swap1\n      revert\n    tag_173:\n        /* \"@chainlink/contracts@1.2.0/src/v0.8/ChainlinkClient.sol\":11999:12016  s_pendingRequests */\n      0x05\n        /* \"@chainlink/contracts@1.2.0/src/v0.8/ChainlinkClient.sol\":11999:12027  s_pendingRequests[requestId] */\n      0x00\n        /* \"@chainlink/contracts@1.2.0/src/v0.8/ChainlinkClient.sol\":12017:12026  requestId */\n      dup3\n        /* \"@chainlink/contracts@1.2.0/src/v0.8/ChainlinkClient.sol\":11999:12027  s_pendingRequests[requestId] */\n      dup2\n      mstore\n      0x20\n      add\n      swap1\n      dup2\n      mstore\n      0x20\n      add\n      0x00\n      keccak256\n      0x00\n        /* \"@chainlink/contracts@1.2.0/src/v0.8/ChainlinkClient.sol\":11992:12027  delete s_pendingRequests[requestId] */\n      0x0100\n      exp\n      dup2\n      sload\n      swap1\n      0xffffffffffffffffffffffffffffffffffffffff\n      mul\n      not\n      and\n      swap1\n      sstore\n        /* \"@chainlink/contracts@1.2.0/src/v0.8/ChainlinkClient.sol\":12057:12066  requestId */\n      dup1\n        /* \"@chainlink/contracts@1.2.0/src/v0.8/ChainlinkClient.sol\":12038:12067  ChainlinkFulfilled(requestId) */\n      0x7cc135e0cebb02c3480ae5d74d377283180a2601f8f644edf7987b009316c63a\n      mload(0x40)\n      mload(0x40)\n      dup1\n      swap2\n      sub\n      swap1\n      log2\n        /* \"ETHBangkok/Operator/RunJob.sol\":2501:2511  _requestId */\n      dup3\n        /* \"ETHBangkok/Operator/RunJob.sol\":2471:2519  RequestEventListenerFulfilled(_requestId, _memo) */\n      0xa4d501c645c4b43d9e4493c2b500e710ebb5fc182bbcdfa237ef5ff889f8fc89\n        /* \"ETHBangkok/Operator/RunJob.sol\":2513:2518  _memo */\n      dup4\n        /* \"ETHBangkok/Operator/RunJob.sol\":2471:2519  RequestEventListenerFulfilled(_requestId, _memo) */\n      mload(0x40)\n      tag_177\n      swap2\n      swap1\n      tag_30\n      jump\t// in\n    tag_177:\n      mload(0x40)\n      dup1\n      swap2\n      sub\n      swap1\n      log2\n        /* \"ETHBangkok/Operator/RunJob.sol\":2541:2546  _memo */\n      dup2\n        /* \"ETHBangkok/Operator/RunJob.sol\":2530:2538  lastMemo */\n      0x08\n        /* \"ETHBangkok/Operator/RunJob.sol\":2530:2546  lastMemo = _memo */\n      swap1\n      dup2\n      tag_178\n      swap2\n      swap1\n      tag_111\n      jump\t// in\n    tag_178:\n      pop\n        /* \"ETHBangkok/Operator/RunJob.sol\":2338:2554  function fulfillEventListener(bytes32 _requestId, string memory _memo) public recordChainlinkFulfillment(_requestId) {... */\n      pop\n      pop\n      pop\n      jump\t// out\n        /* \"ETHBangkok/Operator/RunJob.sol\":3081:3306  function cancelRequest(bytes32 _requestId, uint256 _payment, bytes4 _callbackFunctionId, uint256 _expiration) public onlyOwner {... */\n    tag_64:\n        /* \"@chainlink/contracts@1.2.0/src/v0.8/shared/access/ConfirmedOwnerWithProposal.sol\":2075:2095  _validateOwnership() */\n      tag_180\n        /* \"@chainlink/contracts@1.2.0/src/v0.8/shared/access/ConfirmedOwnerWithProposal.sol\":2075:2093  _validateOwnership */\n      tag_107\n        /* \"@chainlink/contracts@1.2.0/src/v0.8/shared/access/ConfirmedOwnerWithProposal.sol\":2075:2095  _validateOwnership() */\n      jump\t// in\n    tag_180:\n        /* \"ETHBangkok/Operator/RunJob.sol\":3219:3298  _cancelChainlinkRequest(_requestId, _payment, _callbackFunctionId, _expiration) */\n      tag_182\n        /* \"ETHBangkok/Operator/RunJob.sol\":3243:3253  _requestId */\n      dup5\n        /* \"ETHBangkok/Operator/RunJob.sol\":3255:3263  _payment */\n      dup5\n        /* \"ETHBangkok/Operator/RunJob.sol\":3265:3284  _callbackFunctionId */\n      dup5\n        /* \"ETHBangkok/Operator/RunJob.sol\":3286:3297  _expiration */\n      dup5\n        /* \"ETHBangkok/Operator/RunJob.sol\":3219:3242  _cancelChainlinkRequest */\n      tag_183\n        /* \"ETHBangkok/Operator/RunJob.sol\":3219:3298  _cancelChainlinkRequest(_requestId, _payment, _callbackFunctionId, _expiration) */\n      jump\t// in\n    tag_182:\n        /* \"ETHBangkok/Operator/RunJob.sol\":3081:3306  function cancelRequest(bytes32 _requestId, uint256 _payment, bytes4 _callbackFunctionId, uint256 _expiration) public onlyOwner {... */\n      pop\n      pop\n      pop\n      pop\n      jump\t// out\n        /* \"@chainlink/contracts@1.2.0/src/v0.8/shared/access/ConfirmedOwnerWithProposal.sol\":847:945  function transferOwnership(address to) public override onlyOwner {... */\n    tag_68:\n        /* \"@chainlink/contracts@1.2.0/src/v0.8/shared/access/ConfirmedOwnerWithProposal.sol\":2075:2095  _validateOwnership() */\n      tag_185\n        /* \"@chainlink/contracts@1.2.0/src/v0.8/shared/access/ConfirmedOwnerWithProposal.sol\":2075:2093  _validateOwnership */\n      tag_107\n        /* \"@chainlink/contracts@1.2.0/src/v0.8/shared/access/ConfirmedOwnerWithProposal.sol\":2075:2095  _validateOwnership() */\n      jump\t// in\n    tag_185:\n        /* \"@chainlink/contracts@1.2.0/src/v0.8/shared/access/ConfirmedOwnerWithProposal.sol\":918:940  _transferOwnership(to) */\n      tag_187\n        /* \"@chainlink/contracts@1.2.0/src/v0.8/shared/access/ConfirmedOwnerWithProposal.sol\":937:939  to */\n      dup2\n        /* \"@chainlink/contracts@1.2.0/src/v0.8/shared/access/ConfirmedOwnerWithProposal.sol\":918:936  _transferOwnership */\n      tag_188\n        /* \"@chainlink/contracts@1.2.0/src/v0.8/shared/access/ConfirmedOwnerWithProposal.sol\":918:940  _transferOwnership(to) */\n      jump\t// in\n    tag_187:\n        /* \"@chainlink/contracts@1.2.0/src/v0.8/shared/access/ConfirmedOwnerWithProposal.sol\":847:945  function transferOwnership(address to) public override onlyOwner {... */\n      pop\n      jump\t// out\n        /* \"ETHBangkok/Operator/RunJob.sol\":2562:2720  function updateOracleAddress(address newOracle) external onlyOwner {... */\n    tag_71:\n        /* \"@chainlink/contracts@1.2.0/src/v0.8/shared/access/ConfirmedOwnerWithProposal.sol\":2075:2095  _validateOwnership() */\n      tag_190\n        /* \"@chainlink/contracts@1.2.0/src/v0.8/shared/access/ConfirmedOwnerWithProposal.sol\":2075:2093  _validateOwnership */\n      tag_107\n        /* \"@chainlink/contracts@1.2.0/src/v0.8/shared/access/ConfirmedOwnerWithProposal.sol\":2075:2095  _validateOwnership() */\n      jump\t// in\n    tag_190:\n        /* \"ETHBangkok/Operator/RunJob.sol\":2656:2665  newOracle */\n      dup1\n        /* \"ETHBangkok/Operator/RunJob.sol\":2640:2653  oracleAddress */\n      0x09\n      0x00\n        /* \"ETHBangkok/Operator/RunJob.sol\":2640:2665  oracleAddress = newOracle */\n      0x0100\n      exp\n      dup2\n      sload\n      dup2\n      0xffffffffffffffffffffffffffffffffffffffff\n      mul\n      not\n      and\n      swap1\n      dup4\n      0xffffffffffffffffffffffffffffffffffffffff\n      and\n      mul\n      or\n      swap1\n      sstore\n      pop\n        /* \"ETHBangkok/Operator/RunJob.sol\":2681:2712  OracleAddressUpdated(newOracle) */\n      0x107a9fafffb7ac890f780879e423760c9ffea8dcee8045681f40f542aede2cb8\n        /* \"ETHBangkok/Operator/RunJob.sol\":2702:2711  newOracle */\n      dup2\n        /* \"ETHBangkok/Operator/RunJob.sol\":2681:2712  OracleAddressUpdated(newOracle) */\n      mload(0x40)\n      tag_192\n      swap2\n      swap1\n      tag_24\n      jump\t// in\n    tag_192:\n      mload(0x40)\n      dup1\n      swap2\n      sub\n      swap1\n      log1\n        /* \"ETHBangkok/Operator/RunJob.sol\":2562:2720  function updateOracleAddress(address newOracle) external onlyOwner {... */\n      pop\n      jump\t// out\n        /* \"@chainlink/contracts@1.2.0/src/v0.8/ChainlinkClient.sol\":9325:9424  function _chainlinkTokenAddress() internal view returns (address) {... */\n    tag_74:\n        /* \"@chainlink/contracts@1.2.0/src/v0.8/ChainlinkClient.sol\":9382:9389  address */\n      0x00\n        /* \"@chainlink/contracts@1.2.0/src/v0.8/ChainlinkClient.sol\":9412:9418  s_link */\n      0x02\n      0x00\n      swap1\n      sload\n      swap1\n      0x0100\n      exp\n      swap1\n      div\n      0xffffffffffffffffffffffffffffffffffffffff\n      and\n        /* \"@chainlink/contracts@1.2.0/src/v0.8/ChainlinkClient.sol\":9397:9419  return address(s_link) */\n      swap1\n      pop\n        /* \"@chainlink/contracts@1.2.0/src/v0.8/ChainlinkClient.sol\":9325:9424  function _chainlinkTokenAddress() internal view returns (address) {... */\n      swap1\n      jump\t// out\n        /* \"ETHBangkok/Operator/RunJob.sol\":2000:2330  function _sendChainlinkRequest(string memory _jobId) internal {... */\n    tag_97:\n        /* \"ETHBangkok/Operator/RunJob.sol\":2073:2101  Chainlink.Request memory req */\n      0x00\n        /* \"ETHBangkok/Operator/RunJob.sol\":2104:2252  _buildChainlinkRequest(... */\n      tag_195\n        /* \"ETHBangkok/Operator/RunJob.sol\":2141:2164  stringToBytes32(_jobId) */\n      tag_196\n        /* \"ETHBangkok/Operator/RunJob.sol\":2157:2163  _jobId */\n      dup4\n        /* \"ETHBangkok/Operator/RunJob.sol\":2141:2156  stringToBytes32 */\n      tag_197\n        /* \"ETHBangkok/Operator/RunJob.sol\":2141:2164  stringToBytes32(_jobId) */\n      jump\t// in\n    tag_196:\n        /* \"ETHBangkok/Operator/RunJob.sol\":2187:2191  this */\n      address\n        /* \"ETHBangkok/Operator/RunJob.sol\":2207:2241  this.fulfillEventListener.selector */\n      shl(0xe0, 0xd458fa96)\n        /* \"ETHBangkok/Operator/RunJob.sol\":2104:2126  _buildChainlinkRequest */\n      tag_198\n        /* \"ETHBangkok/Operator/RunJob.sol\":2104:2252  _buildChainlinkRequest(... */\n      jump\t// in\n    tag_195:\n        /* \"ETHBangkok/Operator/RunJob.sol\":2073:2252  Chainlink.Request memory req = _buildChainlinkRequest(... */\n      swap1\n      pop\n        /* \"ETHBangkok/Operator/RunJob.sol\":2263:2322  _sendChainlinkRequestTo(oracleAddress, req, ORACLE_PAYMENT) */\n      tag_199\n        /* \"ETHBangkok/Operator/RunJob.sol\":2287:2300  oracleAddress */\n      0x09\n      0x00\n      swap1\n      sload\n      swap1\n      0x0100\n      exp\n      swap1\n      div\n      0xffffffffffffffffffffffffffffffffffffffff\n      and\n        /* \"ETHBangkok/Operator/RunJob.sol\":2302:2305  req */\n      dup3\n        /* \"ETHBangkok/Operator/RunJob.sol\":551:553  10 */\n      0x0a\n        /* \"@chainlink/contracts@1.2.0/src/v0.8/ChainlinkClient.sol\":864:872  10 ** 18 */\n      0x0de0b6b3a7640000\n        /* \"ETHBangkok/Operator/RunJob.sol\":526:527  1 */\n      0x01\n        /* \"ETHBangkok/Operator/RunJob.sol\":526:547  1 * LINK_DIVISIBILITY */\n      tag_200\n      swap2\n      swap1\n      tag_201\n      jump\t// in\n    tag_200:\n        /* \"ETHBangkok/Operator/RunJob.sol\":525:553  (1 * LINK_DIVISIBILITY) / 10 */\n      tag_202\n      swap2\n      swap1\n      tag_203\n      jump\t// in\n    tag_202:\n        /* \"ETHBangkok/Operator/RunJob.sol\":2263:2286  _sendChainlinkRequestTo */\n      tag_204\n        /* \"ETHBangkok/Operator/RunJob.sol\":2263:2322  _sendChainlinkRequestTo(oracleAddress, req, ORACLE_PAYMENT) */\n      jump\t// in\n    tag_199:\n      pop\n        /* \"ETHBangkok/Operator/RunJob.sol\":2062:2330  {... */\n      pop\n        /* \"ETHBangkok/Operator/RunJob.sol\":2000:2330  function _sendChainlinkRequest(string memory _jobId) internal {... */\n      pop\n      jump\t// out\n        /* \"@chainlink/contracts@1.2.0/src/v0.8/shared/access/ConfirmedOwnerWithProposal.sol\":1809:1971  function _validateOwnership() internal view {... */\n    tag_107:\n        /* \"@chainlink/contracts@1.2.0/src/v0.8/shared/access/ConfirmedOwnerWithProposal.sol\":1932:1939  s_owner */\n      0x06\n      0x00\n      swap1\n      sload\n      swap1\n      0x0100\n      exp\n      swap1\n      div\n      0xffffffffffffffffffffffffffffffffffffffff\n      and\n        /* \"@chainlink/contracts@1.2.0/src/v0.8/shared/access/ConfirmedOwnerWithProposal.sol\":1918:1939  msg.sender == s_owner */\n      0xffffffffffffffffffffffffffffffffffffffff\n      and\n        /* \"@chainlink/contracts@1.2.0/src/v0.8/shared/access/ConfirmedOwnerWithProposal.sol\":1918:1928  msg.sender */\n      caller\n        /* \"@chainlink/contracts@1.2.0/src/v0.8/shared/access/ConfirmedOwnerWithProposal.sol\":1918:1939  msg.sender == s_owner */\n      0xffffffffffffffffffffffffffffffffffffffff\n      and\n      eq\n        /* \"@chainlink/contracts@1.2.0/src/v0.8/shared/access/ConfirmedOwnerWithProposal.sol\":1910:1966  require(msg.sender == s_owner, \"Only callable by owner\") */\n      tag_206\n      jumpi\n      mload(0x40)\n      0x08c379a000000000000000000000000000000000000000000000000000000000\n      dup2\n      mstore\n      0x04\n      add\n      tag_207\n      swap1\n      tag_208\n      jump\t// in\n    tag_207:\n      mload(0x40)\n      dup1\n      swap2\n      sub\n      swap1\n      revert\n    tag_206:\n        /* \"@chainlink/contracts@1.2.0/src/v0.8/shared/access/ConfirmedOwnerWithProposal.sol\":1809:1971  function _validateOwnership() internal view {... */\n      jump\t// out\n        /* \"@chainlink/contracts@1.2.0/src/v0.8/ChainlinkClient.sol\":7796:8185  function _cancelChainlinkRequest(... */\n    tag_183:\n        /* \"@chainlink/contracts@1.2.0/src/v0.8/ChainlinkClient.sol\":7941:7968  OperatorInterface requested */\n      0x00\n        /* \"@chainlink/contracts@1.2.0/src/v0.8/ChainlinkClient.sol\":7989:8006  s_pendingRequests */\n      0x05\n        /* \"@chainlink/contracts@1.2.0/src/v0.8/ChainlinkClient.sol\":7989:8017  s_pendingRequests[requestId] */\n      0x00\n        /* \"@chainlink/contracts@1.2.0/src/v0.8/ChainlinkClient.sol\":8007:8016  requestId */\n      dup7\n        /* \"@chainlink/contracts@1.2.0/src/v0.8/ChainlinkClient.sol\":7989:8017  s_pendingRequests[requestId] */\n      dup2\n      mstore\n      0x20\n      add\n      swap1\n      dup2\n      mstore\n      0x20\n      add\n      0x00\n      keccak256\n      0x00\n      swap1\n      sload\n      swap1\n      0x0100\n      exp\n      swap1\n      div\n      0xffffffffffffffffffffffffffffffffffffffff\n      and\n        /* \"@chainlink/contracts@1.2.0/src/v0.8/ChainlinkClient.sol\":7941:8018  OperatorInterface requested = OperatorInterface(s_pendingRequests[requestId]) */\n      swap1\n      pop\n        /* \"@chainlink/contracts@1.2.0/src/v0.8/ChainlinkClient.sol\":8031:8048  s_pendingRequests */\n      0x05\n        /* \"@chainlink/contracts@1.2.0/src/v0.8/ChainlinkClient.sol\":8031:8059  s_pendingRequests[requestId] */\n      0x00\n        /* \"@chainlink/contracts@1.2.0/src/v0.8/ChainlinkClient.sol\":8049:8058  requestId */\n      dup7\n        /* \"@chainlink/contracts@1.2.0/src/v0.8/ChainlinkClient.sol\":8031:8059  s_pendingRequests[requestId] */\n      dup2\n      mstore\n      0x20\n      add\n      swap1\n      dup2\n      mstore\n      0x20\n      add\n      0x00\n      keccak256\n      0x00\n        /* \"@chainlink/contracts@1.2.0/src/v0.8/ChainlinkClient.sol\":8024:8059  delete s_pendingRequests[requestId] */\n      0x0100\n      exp\n      dup2\n      sload\n      swap1\n      0xffffffffffffffffffffffffffffffffffffffff\n      mul\n      not\n      and\n      swap1\n      sstore\n        /* \"@chainlink/contracts@1.2.0/src/v0.8/ChainlinkClient.sol\":8089:8098  requestId */\n      dup5\n        /* \"@chainlink/contracts@1.2.0/src/v0.8/ChainlinkClient.sol\":8070:8099  ChainlinkCancelled(requestId) */\n      0xe1fe3afa0f7f761ff0a8b89086790efd5140d2907ebd5b7ff6bfcb5e075fd4c5\n      mload(0x40)\n      mload(0x40)\n      dup1\n      swap2\n      sub\n      swap1\n      log2\n        /* \"@chainlink/contracts@1.2.0/src/v0.8/ChainlinkClient.sol\":8105:8114  requested */\n      dup1\n        /* \"@chainlink/contracts@1.2.0/src/v0.8/ChainlinkClient.sol\":8105:8134  requested.cancelOracleRequest */\n      0xffffffffffffffffffffffffffffffffffffffff\n      and\n      0x6ee4d553\n        /* \"@chainlink/contracts@1.2.0/src/v0.8/ChainlinkClient.sol\":8135:8144  requestId */\n      dup7\n        /* \"@chainlink/contracts@1.2.0/src/v0.8/ChainlinkClient.sol\":8146:8153  payment */\n      dup7\n        /* \"@chainlink/contracts@1.2.0/src/v0.8/ChainlinkClient.sol\":8155:8167  callbackFunc */\n      dup7\n        /* \"@chainlink/contracts@1.2.0/src/v0.8/ChainlinkClient.sol\":8169:8179  expiration */\n      dup7\n        /* \"@chainlink/contracts@1.2.0/src/v0.8/ChainlinkClient.sol\":8105:8180  requested.cancelOracleRequest(requestId, payment, callbackFunc, expiration) */\n      mload(0x40)\n      dup6\n      0xffffffff\n      and\n      0xe0\n      shl\n      dup2\n      mstore\n      0x04\n      add\n      tag_210\n      swap5\n      swap4\n      swap3\n      swap2\n      swap1\n      tag_211\n      jump\t// in\n    tag_210:\n      0x00\n      mload(0x40)\n      dup1\n      dup4\n      sub\n      dup2\n      0x00\n      dup8\n      dup1\n      extcodesize\n      iszero\n      dup1\n      iszero\n      tag_212\n      jumpi\n      0x00\n      dup1\n      revert\n    tag_212:\n      pop\n      gas\n      call\n      iszero\n      dup1\n      iszero\n      tag_214\n      jumpi\n      returndatasize\n      0x00\n      dup1\n      returndatacopy\n      revert(0x00, returndatasize)\n    tag_214:\n      pop\n      pop\n      pop\n      pop\n        /* \"@chainlink/contracts@1.2.0/src/v0.8/ChainlinkClient.sol\":7935:8185  {... */\n      pop\n        /* \"@chainlink/contracts@1.2.0/src/v0.8/ChainlinkClient.sol\":7796:8185  function _cancelChainlinkRequest(... */\n      pop\n      pop\n      pop\n      pop\n      jump\t// out\n        /* \"@chainlink/contracts@1.2.0/src/v0.8/shared/access/ConfirmedOwnerWithProposal.sol\":1536:1775  function _transferOwnership(address to) private {... */\n    tag_188:\n        /* \"@chainlink/contracts@1.2.0/src/v0.8/shared/access/ConfirmedOwnerWithProposal.sol\":1655:1665  msg.sender */\n      caller\n        /* \"@chainlink/contracts@1.2.0/src/v0.8/shared/access/ConfirmedOwnerWithProposal.sol\":1649:1665  to != msg.sender */\n      0xffffffffffffffffffffffffffffffffffffffff\n      and\n        /* \"@chainlink/contracts@1.2.0/src/v0.8/shared/access/ConfirmedOwnerWithProposal.sol\":1649:1651  to */\n      dup2\n        /* \"@chainlink/contracts@1.2.0/src/v0.8/shared/access/ConfirmedOwnerWithProposal.sol\":1649:1665  to != msg.sender */\n      0xffffffffffffffffffffffffffffffffffffffff\n      and\n      sub\n        /* \"@chainlink/contracts@1.2.0/src/v0.8/shared/access/ConfirmedOwnerWithProposal.sol\":1641:1693  require(to != msg.sender, \"Cannot transfer to self\") */\n      tag_216\n      jumpi\n      mload(0x40)\n      0x08c379a000000000000000000000000000000000000000000000000000000000\n      dup2\n      mstore\n      0x04\n      add\n      tag_217\n      swap1\n      tag_218\n      jump\t// in\n    tag_217:\n      mload(0x40)\n      dup1\n      swap2\n      sub\n      swap1\n      revert\n    tag_216:\n        /* \"@chainlink/contracts@1.2.0/src/v0.8/shared/access/ConfirmedOwnerWithProposal.sol\":1717:1719  to */\n      dup1\n        /* \"@chainlink/contracts@1.2.0/src/v0.8/shared/access/ConfirmedOwnerWithProposal.sol\":1700:1714  s_pendingOwner */\n      0x07\n      0x00\n        /* \"@chainlink/contracts@1.2.0/src/v0.8/shared/access/ConfirmedOwnerWithProposal.sol\":1700:1719  s_pendingOwner = to */\n      0x0100\n      exp\n      dup2\n      sload\n      dup2\n      0xffffffffffffffffffffffffffffffffffffffff\n      mul\n      not\n      and\n      swap1\n      dup4\n      0xffffffffffffffffffffffffffffffffffffffff\n      and\n      mul\n      or\n      swap1\n      sstore\n      pop\n        /* \"@chainlink/contracts@1.2.0/src/v0.8/shared/access/ConfirmedOwnerWithProposal.sol\":1767:1769  to */\n      dup1\n        /* \"@chainlink/contracts@1.2.0/src/v0.8/shared/access/ConfirmedOwnerWithProposal.sol\":1731:1770  OwnershipTransferRequested(s_owner, to) */\n      0xffffffffffffffffffffffffffffffffffffffff\n      and\n        /* \"@chainlink/contracts@1.2.0/src/v0.8/shared/access/ConfirmedOwnerWithProposal.sol\":1758:1765  s_owner */\n      0x06\n      0x00\n      swap1\n      sload\n      swap1\n      0x0100\n      exp\n      swap1\n      div\n      0xffffffffffffffffffffffffffffffffffffffff\n      and\n        /* \"@chainlink/contracts@1.2.0/src/v0.8/shared/access/ConfirmedOwnerWithProposal.sol\":1731:1770  OwnershipTransferRequested(s_owner, to) */\n      0xffffffffffffffffffffffffffffffffffffffff\n      and\n      0xed8889f560326eb138920d842192f0eb3dd22b4f139c87a2c57538e05bae1278\n      mload(0x40)\n      mload(0x40)\n      dup1\n      swap2\n      sub\n      swap1\n      log3\n        /* \"@chainlink/contracts@1.2.0/src/v0.8/shared/access/ConfirmedOwnerWithProposal.sol\":1536:1775  function _transferOwnership(address to) private {... */\n      pop\n      jump\t// out\n        /* \"ETHBangkok/Operator/RunJob.sol\":3314:3629  function stringToBytes32(string memory source) private pure returns (bytes32 result) {... */\n    tag_197:\n        /* \"ETHBangkok/Operator/RunJob.sol\":3383:3397  bytes32 result */\n      0x00\n        /* \"ETHBangkok/Operator/RunJob.sol\":3410:3442  bytes memory tempEmptyStringTest */\n      dup1\n        /* \"ETHBangkok/Operator/RunJob.sol\":3451:3457  source */\n      dup3\n        /* \"ETHBangkok/Operator/RunJob.sol\":3410:3458  bytes memory tempEmptyStringTest = bytes(source) */\n      swap1\n      pop\n        /* \"ETHBangkok/Operator/RunJob.sol\":3503:3504  0 */\n      0x00\n        /* \"ETHBangkok/Operator/RunJob.sol\":3473:3492  tempEmptyStringTest */\n      dup2\n        /* \"ETHBangkok/Operator/RunJob.sol\":3473:3499  tempEmptyStringTest.length */\n      mload\n        /* \"ETHBangkok/Operator/RunJob.sol\":3473:3504  tempEmptyStringTest.length == 0 */\n      sub\n        /* \"ETHBangkok/Operator/RunJob.sol\":3469:3543  if (tempEmptyStringTest.length == 0) {... */\n      tag_220\n      jumpi\n        /* \"ETHBangkok/Operator/RunJob.sol\":3528:3531  0x0 */\n      0x00\n        /* \"ETHBangkok/Operator/RunJob.sol\":3521:3531  return 0x0 */\n      dup1\n      shl\n      swap2\n      pop\n      pop\n      jump(tag_219)\n        /* \"ETHBangkok/Operator/RunJob.sol\":3469:3543  if (tempEmptyStringTest.length == 0) {... */\n    tag_220:\n        /* \"ETHBangkok/Operator/RunJob.sol\":3607:3609  32 */\n      0x20\n        /* \"ETHBangkok/Operator/RunJob.sol\":3599:3605  source */\n      dup4\n        /* \"ETHBangkok/Operator/RunJob.sol\":3595:3610  add(source, 32) */\n      add\n        /* \"ETHBangkok/Operator/RunJob.sol\":3589:3611  mload(add(source, 32)) */\n      mload\n        /* \"ETHBangkok/Operator/RunJob.sol\":3579:3611  result := mload(add(source, 32)) */\n      swap2\n      pop\n        /* \"ETHBangkok/Operator/RunJob.sol\":3564:3622  {... */\n      pop\n        /* \"ETHBangkok/Operator/RunJob.sol\":3314:3629  function stringToBytes32(string memory source) private pure returns (bytes32 result) {... */\n    tag_219:\n      swap2\n      swap1\n      pop\n      jump\t// out\n        /* \"@chainlink/contracts@1.2.0/src/v0.8/ChainlinkClient.sol\":2041:2326  function _buildChainlinkRequest(... */\n    tag_198:\n        /* \"@chainlink/contracts@1.2.0/src/v0.8/ChainlinkClient.sol\":2184:2208  Chainlink.Request memory */\n      tag_221\n      tag_222\n      jump\t// in\n    tag_221:\n        /* \"@chainlink/contracts@1.2.0/src/v0.8/ChainlinkClient.sol\":2216:2244  Chainlink.Request memory req */\n      tag_224\n      tag_222\n      jump\t// in\n    tag_224:\n        /* \"@chainlink/contracts@1.2.0/src/v0.8/ChainlinkClient.sol\":2257:2321  req._initialize(specId, callbackAddr, callbackFunctionSignature) */\n      tag_225\n        /* \"@chainlink/contracts@1.2.0/src/v0.8/ChainlinkClient.sol\":2273:2279  specId */\n      dup6\n        /* \"@chainlink/contracts@1.2.0/src/v0.8/ChainlinkClient.sol\":2281:2293  callbackAddr */\n      dup6\n        /* \"@chainlink/contracts@1.2.0/src/v0.8/ChainlinkClient.sol\":2295:2320  callbackFunctionSignature */\n      dup6\n        /* \"@chainlink/contracts@1.2.0/src/v0.8/ChainlinkClient.sol\":2257:2260  req */\n      dup5\n        /* \"@chainlink/contracts@1.2.0/src/v0.8/ChainlinkClient.sol\":2257:2272  req._initialize */\n      tag_226\n      swap1\n        /* \"@chainlink/contracts@1.2.0/src/v0.8/ChainlinkClient.sol\":2257:2321  req._initialize(specId, callbackAddr, callbackFunctionSignature) */\n      swap4\n      swap3\n      swap2\n      swap1\n      0xffffffff\n      and\n      jump\t// in\n    tag_225:\n        /* \"@chainlink/contracts@1.2.0/src/v0.8/ChainlinkClient.sol\":2250:2321  return req._initialize(specId, callbackAddr, callbackFunctionSignature) */\n      swap2\n      pop\n      pop\n        /* \"@chainlink/contracts@1.2.0/src/v0.8/ChainlinkClient.sol\":2041:2326  function _buildChainlinkRequest(... */\n      swap4\n      swap3\n      pop\n      pop\n      pop\n      jump\t// out\n        /* \"@chainlink/contracts@1.2.0/src/v0.8/ChainlinkClient.sol\":3882:4639  function _sendChainlinkRequestTo(... */\n    tag_204:\n        /* \"@chainlink/contracts@1.2.0/src/v0.8/ChainlinkClient.sol\":4019:4036  bytes32 requestId */\n      0x00\n        /* \"@chainlink/contracts@1.2.0/src/v0.8/ChainlinkClient.sol\":4044:4057  uint256 nonce */\n      dup1\n        /* \"@chainlink/contracts@1.2.0/src/v0.8/ChainlinkClient.sol\":4060:4074  s_requestCount */\n      sload(0x04)\n        /* \"@chainlink/contracts@1.2.0/src/v0.8/ChainlinkClient.sol\":4044:4074  uint256 nonce = s_requestCount */\n      swap1\n      pop\n        /* \"@chainlink/contracts@1.2.0/src/v0.8/ChainlinkClient.sol\":4105:4106  1 */\n      0x01\n        /* \"@chainlink/contracts@1.2.0/src/v0.8/ChainlinkClient.sol\":4097:4102  nonce */\n      dup2\n        /* \"@chainlink/contracts@1.2.0/src/v0.8/ChainlinkClient.sol\":4097:4106  nonce + 1 */\n      tag_228\n      swap2\n      swap1\n      tag_229\n      jump\t// in\n    tag_228:\n        /* \"@chainlink/contracts@1.2.0/src/v0.8/ChainlinkClient.sol\":4080:4094  s_requestCount */\n      0x04\n        /* \"@chainlink/contracts@1.2.0/src/v0.8/ChainlinkClient.sol\":4080:4106  s_requestCount = nonce + 1 */\n      dup2\n      swap1\n      sstore\n      pop\n        /* \"@chainlink/contracts@1.2.0/src/v0.8/ChainlinkClient.sol\":4112:4139  bytes memory encodedRequest */\n      0x00\n        /* \"@chainlink/contracts@1.2.0/src/v0.8/ChainlinkClient.sol\":4172:4220  ChainlinkRequestInterface.oracleRequest.selector */\n      shl(0xe0, 0x40429946)\n        /* \"@chainlink/contracts@1.2.0/src/v0.8/ChainlinkClient.sol\":975:976  0 */\n      0x00\n        /* \"@chainlink/contracts@1.2.0/src/v0.8/ChainlinkClient.sol\":919:920  0 */\n      dup1\n        /* \"@chainlink/contracts@1.2.0/src/v0.8/ChainlinkClient.sol\":4441:4444  req */\n      dup8\n        /* \"@chainlink/contracts@1.2.0/src/v0.8/ChainlinkClient.sol\":4441:4447  req.id */\n      0x00\n      add\n      mload\n        /* \"@chainlink/contracts@1.2.0/src/v0.8/ChainlinkClient.sol\":4463:4467  this */\n      address\n        /* \"@chainlink/contracts@1.2.0/src/v0.8/ChainlinkClient.sol\":4476:4479  req */\n      dup10\n        /* \"@chainlink/contracts@1.2.0/src/v0.8/ChainlinkClient.sol\":4476:4498  req.callbackFunctionId */\n      0x40\n      add\n      mload\n        /* \"@chainlink/contracts@1.2.0/src/v0.8/ChainlinkClient.sol\":4506:4511  nonce */\n      dup8\n        /* \"@chainlink/contracts@1.2.0/src/v0.8/ChainlinkClient.sol\":1028:1029  1 */\n      0x01\n        /* \"@chainlink/contracts@1.2.0/src/v0.8/ChainlinkClient.sol\":4546:4549  req */\n      dup13\n        /* \"@chainlink/contracts@1.2.0/src/v0.8/ChainlinkClient.sol\":4546:4553  req.buf */\n      0x80\n      add\n      mload\n        /* \"@chainlink/contracts@1.2.0/src/v0.8/ChainlinkClient.sol\":4546:4557  req.buf.buf */\n      0x00\n      add\n      mload\n        /* \"@chainlink/contracts@1.2.0/src/v0.8/ChainlinkClient.sol\":4142:4563  abi.encodeWithSelector(... */\n      add(0x24, mload(0x40))\n      tag_230\n      swap9\n      swap8\n      swap7\n      swap6\n      swap5\n      swap4\n      swap3\n      swap2\n      swap1\n      tag_231\n      jump\t// in\n    tag_230:\n      mload(0x40)\n      0x20\n      dup2\n      dup4\n      sub\n      sub\n      dup2\n      mstore\n      swap1\n      0x40\n      mstore\n      swap1\n      not(0xffffffffffffffffffffffffffffffffffffffffffffffffffffffff)\n      and\n      0x20\n      dup3\n      add\n      dup1\n      mload\n      0xffffffffffffffffffffffffffffffffffffffffffffffffffffffff\n      dup4\n      dup2\n      dup4\n      and\n      or\n      dup4\n      mstore\n      pop\n      pop\n      pop\n      pop\n        /* \"@chainlink/contracts@1.2.0/src/v0.8/ChainlinkClient.sol\":4112:4563  bytes memory encodedRequest = abi.encodeWithSelector(... */\n      swap1\n      pop\n        /* \"@chainlink/contracts@1.2.0/src/v0.8/ChainlinkClient.sol\":4576:4634  _rawRequest(oracleAddress, nonce, payment, encodedRequest) */\n      tag_232\n        /* \"@chainlink/contracts@1.2.0/src/v0.8/ChainlinkClient.sol\":4588:4601  oracleAddress */\n      dup7\n        /* \"@chainlink/contracts@1.2.0/src/v0.8/ChainlinkClient.sol\":4603:4608  nonce */\n      dup4\n        /* \"@chainlink/contracts@1.2.0/src/v0.8/ChainlinkClient.sol\":4610:4617  payment */\n      dup7\n        /* \"@chainlink/contracts@1.2.0/src/v0.8/ChainlinkClient.sol\":4619:4633  encodedRequest */\n      dup5\n        /* \"@chainlink/contracts@1.2.0/src/v0.8/ChainlinkClient.sol\":4576:4587  _rawRequest */\n      tag_233\n        /* \"@chainlink/contracts@1.2.0/src/v0.8/ChainlinkClient.sol\":4576:4634  _rawRequest(oracleAddress, nonce, payment, encodedRequest) */\n      jump\t// in\n    tag_232:\n        /* \"@chainlink/contracts@1.2.0/src/v0.8/ChainlinkClient.sol\":4569:4634  return _rawRequest(oracleAddress, nonce, payment, encodedRequest) */\n      swap3\n      pop\n      pop\n      pop\n        /* \"@chainlink/contracts@1.2.0/src/v0.8/ChainlinkClient.sol\":3882:4639  function _sendChainlinkRequestTo(... */\n      swap4\n      swap3\n      pop\n      pop\n      pop\n      jump\t// out\n        /* \"@chainlink/contracts@1.2.0/src/v0.8/Chainlink.sol\":1028:1380  function _initialize(... */\n    tag_226:\n        /* \"@chainlink/contracts@1.2.0/src/v0.8/Chainlink.sol\":1171:1195  Chainlink.Request memory */\n      tag_234\n      tag_222\n      jump\t// in\n    tag_234:\n        /* \"@chainlink/contracts@1.2.0/src/v0.8/Chainlink.sol\":1203:1252  BufferChainlink.init(self.buf, defaultBufferSize) */\n      tag_236\n        /* \"@chainlink/contracts@1.2.0/src/v0.8/Chainlink.sol\":1224:1228  self */\n      dup6\n        /* \"@chainlink/contracts@1.2.0/src/v0.8/Chainlink.sol\":1224:1232  self.buf */\n      0x80\n      add\n      mload\n        /* \"@chainlink/contracts@1.2.0/src/v0.8/Chainlink.sol\":447:450  256 */\n      0x0100\n        /* \"@chainlink/contracts@1.2.0/src/v0.8/Chainlink.sol\":1203:1223  BufferChainlink.init */\n      tag_237\n        /* \"@chainlink/contracts@1.2.0/src/v0.8/Chainlink.sol\":1203:1252  BufferChainlink.init(self.buf, defaultBufferSize) */\n      jump\t// in\n    tag_236:\n      pop\n        /* \"@chainlink/contracts@1.2.0/src/v0.8/Chainlink.sol\":1268:1273  jobId */\n      dup4\n        /* \"@chainlink/contracts@1.2.0/src/v0.8/Chainlink.sol\":1258:1262  self */\n      dup6\n        /* \"@chainlink/contracts@1.2.0/src/v0.8/Chainlink.sol\":1258:1265  self.id */\n      0x00\n      add\n        /* \"@chainlink/contracts@1.2.0/src/v0.8/Chainlink.sol\":1258:1273  self.id = jobId */\n      dup2\n      dup2\n      mstore\n      pop\n      pop\n        /* \"@chainlink/contracts@1.2.0/src/v0.8/Chainlink.sol\":1302:1314  callbackAddr */\n      dup3\n        /* \"@chainlink/contracts@1.2.0/src/v0.8/Chainlink.sol\":1279:1283  self */\n      dup6\n        /* \"@chainlink/contracts@1.2.0/src/v0.8/Chainlink.sol\":1279:1299  self.callbackAddress */\n      0x20\n      add\n        /* \"@chainlink/contracts@1.2.0/src/v0.8/Chainlink.sol\":1279:1314  self.callbackAddress = callbackAddr */\n      swap1\n      0xffffffffffffffffffffffffffffffffffffffff\n      and\n      swap1\n      dup2\n      0xffffffffffffffffffffffffffffffffffffffff\n      and\n      dup2\n      mstore\n      pop\n      pop\n        /* \"@chainlink/contracts@1.2.0/src/v0.8/Chainlink.sol\":1346:1358  callbackFunc */\n      dup2\n        /* \"@chainlink/contracts@1.2.0/src/v0.8/Chainlink.sol\":1320:1324  self */\n      dup6\n        /* \"@chainlink/contracts@1.2.0/src/v0.8/Chainlink.sol\":1320:1343  self.callbackFunctionId */\n      0x40\n      add\n        /* \"@chainlink/contracts@1.2.0/src/v0.8/Chainlink.sol\":1320:1358  self.callbackFunctionId = callbackFunc */\n      swap1\n      not(0xffffffffffffffffffffffffffffffffffffffffffffffffffffffff)\n      and\n      swap1\n      dup2\n      not(0xffffffffffffffffffffffffffffffffffffffffffffffffffffffff)\n      and\n      dup2\n      mstore\n      pop\n      pop\n        /* \"@chainlink/contracts@1.2.0/src/v0.8/Chainlink.sol\":1371:1375  self */\n      dup5\n        /* \"@chainlink/contracts@1.2.0/src/v0.8/Chainlink.sol\":1364:1375  return self */\n      swap1\n      pop\n        /* \"@chainlink/contracts@1.2.0/src/v0.8/Chainlink.sol\":1028:1380  function _initialize(... */\n      swap5\n      swap4\n      pop\n      pop\n      pop\n      pop\n      jump\t// out\n        /* \"@chainlink/contracts@1.2.0/src/v0.8/ChainlinkClient.sol\":6828:7280  function _rawRequest(... */\n    tag_233:\n        /* \"@chainlink/contracts@1.2.0/src/v0.8/ChainlinkClient.sol\":6970:6987  bytes32 requestId */\n      0x00\n        /* \"@chainlink/contracts@1.2.0/src/v0.8/ChainlinkClient.sol\":7034:7038  this */\n      address\n        /* \"@chainlink/contracts@1.2.0/src/v0.8/ChainlinkClient.sol\":7040:7045  nonce */\n      dup5\n        /* \"@chainlink/contracts@1.2.0/src/v0.8/ChainlinkClient.sol\":7017:7046  abi.encodePacked(this, nonce) */\n      add(0x20, mload(0x40))\n      tag_239\n      swap3\n      swap2\n      swap1\n      tag_240\n      jump\t// in\n    tag_239:\n      mload(0x40)\n      0x20\n      dup2\n      dup4\n      sub\n      sub\n      dup2\n      mstore\n      swap1\n      0x40\n      mstore\n        /* \"@chainlink/contracts@1.2.0/src/v0.8/ChainlinkClient.sol\":7007:7047  keccak256(abi.encodePacked(this, nonce)) */\n      dup1\n      mload\n      swap1\n      0x20\n      add\n      keccak256\n        /* \"@chainlink/contracts@1.2.0/src/v0.8/ChainlinkClient.sol\":6995:7047  requestId = keccak256(abi.encodePacked(this, nonce)) */\n      swap1\n      pop\n        /* \"@chainlink/contracts@1.2.0/src/v0.8/ChainlinkClient.sol\":7084:7097  oracleAddress */\n      dup5\n        /* \"@chainlink/contracts@1.2.0/src/v0.8/ChainlinkClient.sol\":7053:7070  s_pendingRequests */\n      0x05\n        /* \"@chainlink/contracts@1.2.0/src/v0.8/ChainlinkClient.sol\":7053:7081  s_pendingRequests[requestId] */\n      0x00\n        /* \"@chainlink/contracts@1.2.0/src/v0.8/ChainlinkClient.sol\":7071:7080  requestId */\n      dup4\n        /* \"@chainlink/contracts@1.2.0/src/v0.8/ChainlinkClient.sol\":7053:7081  s_pendingRequests[requestId] */\n      dup2\n      mstore\n      0x20\n      add\n      swap1\n      dup2\n      mstore\n      0x20\n      add\n      0x00\n      keccak256\n      0x00\n        /* \"@chainlink/contracts@1.2.0/src/v0.8/ChainlinkClient.sol\":7053:7097  s_pendingRequests[requestId] = oracleAddress */\n      0x0100\n      exp\n      dup2\n      sload\n      dup2\n      0xffffffffffffffffffffffffffffffffffffffff\n      mul\n      not\n      and\n      swap1\n      dup4\n      0xffffffffffffffffffffffffffffffffffffffff\n      and\n      mul\n      or\n      swap1\n      sstore\n      pop\n        /* \"@chainlink/contracts@1.2.0/src/v0.8/ChainlinkClient.sol\":7127:7136  requestId */\n      dup1\n        /* \"@chainlink/contracts@1.2.0/src/v0.8/ChainlinkClient.sol\":7108:7137  ChainlinkRequested(requestId) */\n      0xb5e6e01e79f91267dc17b4e6314d5d4d03593d2ceee0fbb452b750bd70ea5af9\n      mload(0x40)\n      mload(0x40)\n      dup1\n      swap2\n      sub\n      swap1\n      log2\n        /* \"@chainlink/contracts@1.2.0/src/v0.8/ChainlinkClient.sol\":7151:7157  s_link */\n      0x02\n      0x00\n      swap1\n      sload\n      swap1\n      0x0100\n      exp\n      swap1\n      div\n      0xffffffffffffffffffffffffffffffffffffffff\n      and\n        /* \"@chainlink/contracts@1.2.0/src/v0.8/ChainlinkClient.sol\":7151:7173  s_link.transferAndCall */\n      0xffffffffffffffffffffffffffffffffffffffff\n      and\n      0x4000aea0\n        /* \"@chainlink/contracts@1.2.0/src/v0.8/ChainlinkClient.sol\":7174:7187  oracleAddress */\n      dup7\n        /* \"@chainlink/contracts@1.2.0/src/v0.8/ChainlinkClient.sol\":7189:7196  payment */\n      dup6\n        /* \"@chainlink/contracts@1.2.0/src/v0.8/ChainlinkClient.sol\":7198:7212  encodedRequest */\n      dup6\n        /* \"@chainlink/contracts@1.2.0/src/v0.8/ChainlinkClient.sol\":7151:7213  s_link.transferAndCall(oracleAddress, payment, encodedRequest) */\n      mload(0x40)\n      dup5\n      0xffffffff\n      and\n      0xe0\n      shl\n      dup2\n      mstore\n      0x04\n      add\n      tag_241\n      swap4\n      swap3\n      swap2\n      swap1\n      tag_242\n      jump\t// in\n    tag_241:\n      0x20\n      mload(0x40)\n      dup1\n      dup4\n      sub\n      dup2\n      0x00\n      dup8\n      gas\n      call\n      iszero\n      dup1\n      iszero\n      tag_244\n      jumpi\n      returndatasize\n      0x00\n      dup1\n      returndatacopy\n      revert(0x00, returndatasize)\n    tag_244:\n      pop\n      pop\n      pop\n      pop\n      mload(0x40)\n      returndatasize\n      not(0x1f)\n      0x1f\n      dup3\n      add\n      and\n      dup3\n      add\n      dup1\n      0x40\n      mstore\n      pop\n      dup2\n      add\n      swap1\n      tag_245\n      swap2\n      swap1\n      tag_135\n      jump\t// in\n    tag_245:\n        /* \"@chainlink/contracts@1.2.0/src/v0.8/ChainlinkClient.sol\":7143:7253  require(s_link.transferAndCall(oracleAddress, payment, encodedRequest), \"unable to transferAndCall to oracle\") */\n      tag_246\n      jumpi\n      mload(0x40)\n      0x08c379a000000000000000000000000000000000000000000000000000000000\n      dup2\n      mstore\n      0x04\n      add\n      tag_247\n      swap1\n      tag_248\n      jump\t// in\n    tag_247:\n      mload(0x40)\n      dup1\n      swap2\n      sub\n      swap1\n      revert\n    tag_246:\n        /* \"@chainlink/contracts@1.2.0/src/v0.8/ChainlinkClient.sol\":6828:7280  function _rawRequest(... */\n      swap5\n      swap4\n      pop\n      pop\n      pop\n      pop\n      jump\t// out\n        /* \"@chainlink/contracts@1.2.0/src/v0.8/vendor/BufferChainlink.sol\":1001:1400  function init(buffer memory buf, uint256 capacity) internal pure returns (buffer memory) {... */\n    tag_237:\n        /* \"@chainlink/contracts@1.2.0/src/v0.8/vendor/BufferChainlink.sol\":1075:1088  buffer memory */\n      tag_249\n      tag_250\n      jump\t// in\n    tag_249:\n        /* \"@chainlink/contracts@1.2.0/src/v0.8/vendor/BufferChainlink.sol\":1117:1118  0 */\n      0x00\n        /* \"@chainlink/contracts@1.2.0/src/v0.8/vendor/BufferChainlink.sol\":1111:1113  32 */\n      0x20\n        /* \"@chainlink/contracts@1.2.0/src/v0.8/vendor/BufferChainlink.sol\":1100:1108  capacity */\n      dup4\n        /* \"@chainlink/contracts@1.2.0/src/v0.8/vendor/BufferChainlink.sol\":1100:1113  capacity % 32 */\n      tag_252\n      swap2\n      swap1\n      tag_253\n      jump\t// in\n    tag_252:\n        /* \"@chainlink/contracts@1.2.0/src/v0.8/vendor/BufferChainlink.sol\":1100:1118  capacity % 32 != 0 */\n      eq\n        /* \"@chainlink/contracts@1.2.0/src/v0.8/vendor/BufferChainlink.sol\":1096:1167  if (capacity % 32 != 0) {... */\n      tag_254\n      jumpi\n        /* \"@chainlink/contracts@1.2.0/src/v0.8/vendor/BufferChainlink.sol\":1157:1159  32 */\n      0x20\n        /* \"@chainlink/contracts@1.2.0/src/v0.8/vendor/BufferChainlink.sol\":1146:1154  capacity */\n      dup3\n        /* \"@chainlink/contracts@1.2.0/src/v0.8/vendor/BufferChainlink.sol\":1146:1159  capacity % 32 */\n      tag_255\n      swap2\n      swap1\n      tag_253\n      jump\t// in\n    tag_255:\n        /* \"@chainlink/contracts@1.2.0/src/v0.8/vendor/BufferChainlink.sol\":1140:1142  32 */\n      0x20\n        /* \"@chainlink/contracts@1.2.0/src/v0.8/vendor/BufferChainlink.sol\":1140:1160  32 - (capacity % 32) */\n      tag_256\n      swap2\n      swap1\n      tag_113\n      jump\t// in\n    tag_256:\n        /* \"@chainlink/contracts@1.2.0/src/v0.8/vendor/BufferChainlink.sol\":1128:1160  capacity += 32 - (capacity % 32) */\n      dup3\n      tag_257\n      swap2\n      swap1\n      tag_229\n      jump\t// in\n    tag_257:\n      swap2\n      pop\n        /* \"@chainlink/contracts@1.2.0/src/v0.8/vendor/BufferChainlink.sol\":1096:1167  if (capacity % 32 != 0) {... */\n    tag_254:\n        /* \"@chainlink/contracts@1.2.0/src/v0.8/vendor/BufferChainlink.sol\":1229:1237  capacity */\n      dup2\n        /* \"@chainlink/contracts@1.2.0/src/v0.8/vendor/BufferChainlink.sol\":1214:1217  buf */\n      dup4\n        /* \"@chainlink/contracts@1.2.0/src/v0.8/vendor/BufferChainlink.sol\":1214:1226  buf.capacity */\n      0x20\n      add\n        /* \"@chainlink/contracts@1.2.0/src/v0.8/vendor/BufferChainlink.sol\":1214:1237  buf.capacity = capacity */\n      dup2\n      dup2\n      mstore\n      pop\n      pop\n        /* \"@chainlink/contracts@1.2.0/src/v0.8/vendor/BufferChainlink.sol\":1277:1281  0x40 */\n      0x40\n        /* \"@chainlink/contracts@1.2.0/src/v0.8/vendor/BufferChainlink.sol\":1271:1282  mload(0x40) */\n      mload\n        /* \"@chainlink/contracts@1.2.0/src/v0.8/vendor/BufferChainlink.sol\":1301:1304  ptr */\n      dup1\n        /* \"@chainlink/contracts@1.2.0/src/v0.8/vendor/BufferChainlink.sol\":1296:1299  buf */\n      dup5\n        /* \"@chainlink/contracts@1.2.0/src/v0.8/vendor/BufferChainlink.sol\":1289:1305  mstore(buf, ptr) */\n      mstore\n        /* \"@chainlink/contracts@1.2.0/src/v0.8/vendor/BufferChainlink.sol\":1324:1325  0 */\n      0x00\n        /* \"@chainlink/contracts@1.2.0/src/v0.8/vendor/BufferChainlink.sol\":1319:1322  ptr */\n      dup2\n        /* \"@chainlink/contracts@1.2.0/src/v0.8/vendor/BufferChainlink.sol\":1312:1326  mstore(ptr, 0) */\n      mstore\n        /* \"@chainlink/contracts@1.2.0/src/v0.8/vendor/BufferChainlink.sol\":1363:1371  capacity */\n      dup3\n        /* \"@chainlink/contracts@1.2.0/src/v0.8/vendor/BufferChainlink.sol\":1358:1361  ptr */\n      dup2\n        /* \"@chainlink/contracts@1.2.0/src/v0.8/vendor/BufferChainlink.sol\":1354:1372  add(ptr, capacity) */\n      add\n        /* \"@chainlink/contracts@1.2.0/src/v0.8/vendor/BufferChainlink.sol\":1350:1352  32 */\n      0x20\n        /* \"@chainlink/contracts@1.2.0/src/v0.8/vendor/BufferChainlink.sol\":1346:1373  add(32, add(ptr, capacity)) */\n      add\n        /* \"@chainlink/contracts@1.2.0/src/v0.8/vendor/BufferChainlink.sol\":1340:1344  0x40 */\n      0x40\n        /* \"@chainlink/contracts@1.2.0/src/v0.8/vendor/BufferChainlink.sol\":1333:1374  mstore(0x40, add(32, add(ptr, capacity))) */\n      mstore\n        /* \"@chainlink/contracts@1.2.0/src/v0.8/vendor/BufferChainlink.sol\":1252:1380  {... */\n      pop\n        /* \"@chainlink/contracts@1.2.0/src/v0.8/vendor/BufferChainlink.sol\":1392:1395  buf */\n      dup3\n        /* \"@chainlink/contracts@1.2.0/src/v0.8/vendor/BufferChainlink.sol\":1385:1395  return buf */\n      swap1\n      pop\n        /* \"@chainlink/contracts@1.2.0/src/v0.8/vendor/BufferChainlink.sol\":1001:1400  function init(buffer memory buf, uint256 capacity) internal pure returns (buffer memory) {... */\n      swap3\n      swap2\n      pop\n      pop\n      jump\t// out\n    tag_159:\n      pop\n      dup1\n      sload\n      tag_258\n      swap1\n      tag_78\n      jump\t// in\n    tag_258:\n      0x00\n      dup3\n      sstore\n      dup1\n      0x1f\n      lt\n      tag_260\n      jumpi\n      pop\n      jump(tag_259)\n    tag_260:\n      0x1f\n      add\n      0x20\n      swap1\n      div\n      swap1\n      0x00\n      mstore\n      keccak256(0x00, 0x20)\n      swap1\n      dup2\n      add\n      swap1\n      tag_261\n      swap2\n      swap1\n      tag_262\n      jump\t// in\n    tag_261:\n    tag_259:\n      pop\n      jump\t// out\n    tag_222:\n      mload(0x40)\n      dup1\n      0xa0\n      add\n      0x40\n      mstore\n      dup1\n      0x00\n      dup1\n      not\n      and\n      dup2\n      mstore\n      0x20\n      add\n      and(0xffffffffffffffffffffffffffffffffffffffff, 0x00)\n      dup2\n      mstore\n      0x20\n      add\n      and(not(0xffffffffffffffffffffffffffffffffffffffffffffffffffffffff), 0x00)\n      dup2\n      mstore\n      0x20\n      add\n      0x00\n      dup2\n      mstore\n      0x20\n      add\n      tag_263\n      tag_250\n      jump\t// in\n    tag_263:\n      dup2\n      mstore\n      pop\n      swap1\n      jump\t// out\n    tag_250:\n      mload(0x40)\n      dup1\n      0x40\n      add\n      0x40\n      mstore\n      dup1\n      0x60\n      dup2\n      mstore\n      0x20\n      add\n      0x00\n      dup2\n      mstore\n      pop\n      swap1\n      jump\t// out\n    tag_262:\n    tag_264:\n      dup1\n      dup3\n      gt\n      iszero\n      tag_265\n      jumpi\n      0x00\n      dup2\n      0x00\n      swap1\n      sstore\n      pop\n      0x01\n      add\n      jump(tag_264)\n    tag_265:\n      pop\n      swap1\n      jump\t// out\n        /* \"#utility.yul\":7:133   */\n    tag_266:\n        /* \"#utility.yul\":44:51   */\n      0x00\n        /* \"#utility.yul\":84:126   */\n      0xffffffffffffffffffffffffffffffffffffffff\n        /* \"#utility.yul\":77:82   */\n      dup3\n        /* \"#utility.yul\":73:127   */\n      and\n        /* \"#utility.yul\":62:127   */\n      swap1\n      pop\n        /* \"#utility.yul\":7:133   */\n      swap2\n      swap1\n      pop\n      jump\t// out\n        /* \"#utility.yul\":139:235   */\n    tag_267:\n        /* \"#utility.yul\":176:183   */\n      0x00\n        /* \"#utility.yul\":205:229   */\n      tag_352\n        /* \"#utility.yul\":223:228   */\n      dup3\n        /* \"#utility.yul\":205:229   */\n      tag_266\n      jump\t// in\n    tag_352:\n        /* \"#utility.yul\":194:229   */\n      swap1\n      pop\n        /* \"#utility.yul\":139:235   */\n      swap2\n      swap1\n      pop\n      jump\t// out\n        /* \"#utility.yul\":241:359   */\n    tag_268:\n        /* \"#utility.yul\":328:352   */\n      tag_354\n        /* \"#utility.yul\":346:351   */\n      dup2\n        /* \"#utility.yul\":328:352   */\n      tag_267\n      jump\t// in\n    tag_354:\n        /* \"#utility.yul\":323:326   */\n      dup3\n        /* \"#utility.yul\":316:353   */\n      mstore\n        /* \"#utility.yul\":241:359   */\n      pop\n      pop\n      jump\t// out\n        /* \"#utility.yul\":365:587   */\n    tag_24:\n        /* \"#utility.yul\":458:462   */\n      0x00\n        /* \"#utility.yul\":496:498   */\n      0x20\n        /* \"#utility.yul\":485:494   */\n      dup3\n        /* \"#utility.yul\":481:499   */\n      add\n        /* \"#utility.yul\":473:499   */\n      swap1\n      pop\n        /* \"#utility.yul\":509:580   */\n      tag_356\n        /* \"#utility.yul\":577:578   */\n      0x00\n        /* \"#utility.yul\":566:575   */\n      dup4\n        /* \"#utility.yul\":562:579   */\n      add\n        /* \"#utility.yul\":553:559   */\n      dup5\n        /* \"#utility.yul\":509:580   */\n      tag_268\n      jump\t// in\n    tag_356:\n        /* \"#utility.yul\":365:587   */\n      swap3\n      swap2\n      pop\n      pop\n      jump\t// out\n        /* \"#utility.yul\":593:668   */\n    tag_269:\n        /* \"#utility.yul\":626:632   */\n      0x00\n        /* \"#utility.yul\":659:661   */\n      0x40\n        /* \"#utility.yul\":653:662   */\n      mload\n        /* \"#utility.yul\":643:662   */\n      swap1\n      pop\n        /* \"#utility.yul\":593:668   */\n      swap1\n      jump\t// out\n        /* \"#utility.yul\":674:791   */\n    tag_270:\n        /* \"#utility.yul\":783:784   */\n      0x00\n        /* \"#utility.yul\":780:781   */\n      dup1\n        /* \"#utility.yul\":773:785   */\n      revert\n        /* \"#utility.yul\":797:914   */\n    tag_271:\n        /* \"#utility.yul\":906:907   */\n      0x00\n        /* \"#utility.yul\":903:904   */\n      dup1\n        /* \"#utility.yul\":896:908   */\n      revert\n        /* \"#utility.yul\":920:997   */\n    tag_272:\n        /* \"#utility.yul\":957:964   */\n      0x00\n        /* \"#utility.yul\":986:991   */\n      dup2\n        /* \"#utility.yul\":975:991   */\n      swap1\n      pop\n        /* \"#utility.yul\":920:997   */\n      swap2\n      swap1\n      pop\n      jump\t// out\n        /* \"#utility.yul\":1003:1125   */\n    tag_273:\n        /* \"#utility.yul\":1076:1100   */\n      tag_362\n        /* \"#utility.yul\":1094:1099   */\n      dup2\n        /* \"#utility.yul\":1076:1100   */\n      tag_272\n      jump\t// in\n    tag_362:\n        /* \"#utility.yul\":1069:1074   */\n      dup2\n        /* \"#utility.yul\":1066:1101   */\n      eq\n        /* \"#utility.yul\":1056:1119   */\n      tag_363\n      jumpi\n        /* \"#utility.yul\":1115:1116   */\n      0x00\n        /* \"#utility.yul\":1112:1113   */\n      dup1\n        /* \"#utility.yul\":1105:1117   */\n      revert\n        /* \"#utility.yul\":1056:1119   */\n    tag_363:\n        /* \"#utility.yul\":1003:1125   */\n      pop\n      jump\t// out\n        /* \"#utility.yul\":1131:1270   */\n    tag_274:\n        /* \"#utility.yul\":1177:1182   */\n      0x00\n        /* \"#utility.yul\":1215:1221   */\n      dup2\n        /* \"#utility.yul\":1202:1222   */\n      calldataload\n        /* \"#utility.yul\":1193:1222   */\n      swap1\n      pop\n        /* \"#utility.yul\":1231:1264   */\n      tag_365\n        /* \"#utility.yul\":1258:1263   */\n      dup2\n        /* \"#utility.yul\":1231:1264   */\n      tag_273\n      jump\t// in\n    tag_365:\n        /* \"#utility.yul\":1131:1270   */\n      swap3\n      swap2\n      pop\n      pop\n      jump\t// out\n        /* \"#utility.yul\":1276:1605   */\n    tag_27:\n        /* \"#utility.yul\":1335:1341   */\n      0x00\n        /* \"#utility.yul\":1384:1386   */\n      0x20\n        /* \"#utility.yul\":1372:1381   */\n      dup3\n        /* \"#utility.yul\":1363:1370   */\n      dup5\n        /* \"#utility.yul\":1359:1382   */\n      sub\n        /* \"#utility.yul\":1355:1387   */\n      slt\n        /* \"#utility.yul\":1352:1471   */\n      iszero\n      tag_367\n      jumpi\n        /* \"#utility.yul\":1390:1469   */\n      tag_368\n      tag_270\n      jump\t// in\n    tag_368:\n        /* \"#utility.yul\":1352:1471   */\n    tag_367:\n        /* \"#utility.yul\":1510:1511   */\n      0x00\n        /* \"#utility.yul\":1535:1588   */\n      tag_369\n        /* \"#utility.yul\":1580:1587   */\n      dup5\n        /* \"#utility.yul\":1571:1577   */\n      dup3\n        /* \"#utility.yul\":1560:1569   */\n      dup6\n        /* \"#utility.yul\":1556:1578   */\n      add\n        /* \"#utility.yul\":1535:1588   */\n      tag_274\n      jump\t// in\n    tag_369:\n        /* \"#utility.yul\":1525:1588   */\n      swap2\n      pop\n        /* \"#utility.yul\":1481:1598   */\n      pop\n        /* \"#utility.yul\":1276:1605   */\n      swap3\n      swap2\n      pop\n      pop\n      jump\t// out\n        /* \"#utility.yul\":1611:1710   */\n    tag_275:\n        /* \"#utility.yul\":1663:1669   */\n      0x00\n        /* \"#utility.yul\":1697:1702   */\n      dup2\n        /* \"#utility.yul\":1691:1703   */\n      mload\n        /* \"#utility.yul\":1681:1703   */\n      swap1\n      pop\n        /* \"#utility.yul\":1611:1710   */\n      swap2\n      swap1\n      pop\n      jump\t// out\n        /* \"#utility.yul\":1716:1885   */\n    tag_276:\n        /* \"#utility.yul\":1800:1811   */\n      0x00\n        /* \"#utility.yul\":1834:1840   */\n      dup3\n        /* \"#utility.yul\":1829:1832   */\n      dup3\n        /* \"#utility.yul\":1822:1841   */\n      mstore\n        /* \"#utility.yul\":1874:1878   */\n      0x20\n        /* \"#utility.yul\":1869:1872   */\n      dup3\n        /* \"#utility.yul\":1865:1879   */\n      add\n        /* \"#utility.yul\":1850:1879   */\n      swap1\n      pop\n        /* \"#utility.yul\":1716:1885   */\n      swap3\n      swap2\n      pop\n      pop\n      jump\t// out\n        /* \"#utility.yul\":1891:2137   */\n    tag_277:\n        /* \"#utility.yul\":1972:1973   */\n      0x00\n        /* \"#utility.yul\":1982:2095   */\n    tag_373:\n        /* \"#utility.yul\":1996:2002   */\n      dup4\n        /* \"#utility.yul\":1993:1994   */\n      dup2\n        /* \"#utility.yul\":1990:2003   */\n      lt\n        /* \"#utility.yul\":1982:2095   */\n      iszero\n      tag_375\n      jumpi\n        /* \"#utility.yul\":2081:2082   */\n      dup1\n        /* \"#utility.yul\":2076:2079   */\n      dup3\n        /* \"#utility.yul\":2072:2083   */\n      add\n        /* \"#utility.yul\":2066:2084   */\n      mload\n        /* \"#utility.yul\":2062:2063   */\n      dup2\n        /* \"#utility.yul\":2057:2060   */\n      dup5\n        /* \"#utility.yul\":2053:2064   */\n      add\n        /* \"#utility.yul\":2046:2085   */\n      mstore\n        /* \"#utility.yul\":2018:2020   */\n      0x20\n        /* \"#utility.yul\":2015:2016   */\n      dup2\n        /* \"#utility.yul\":2011:2021   */\n      add\n        /* \"#utility.yul\":2006:2021   */\n      swap1\n      pop\n        /* \"#utility.yul\":1982:2095   */\n      jump(tag_373)\n    tag_375:\n        /* \"#utility.yul\":2129:2130   */\n      0x00\n        /* \"#utility.yul\":2120:2126   */\n      dup5\n        /* \"#utility.yul\":2115:2118   */\n      dup5\n        /* \"#utility.yul\":2111:2127   */\n      add\n        /* \"#utility.yul\":2104:2131   */\n      mstore\n        /* \"#utility.yul\":1953:2137   */\n      pop\n        /* \"#utility.yul\":1891:2137   */\n      pop\n      pop\n      pop\n      jump\t// out\n        /* \"#utility.yul\":2143:2245   */\n    tag_278:\n        /* \"#utility.yul\":2184:2190   */\n      0x00\n        /* \"#utility.yul\":2235:2237   */\n      0x1f\n        /* \"#utility.yul\":2231:2238   */\n      not\n        /* \"#utility.yul\":2226:2228   */\n      0x1f\n        /* \"#utility.yul\":2219:2224   */\n      dup4\n        /* \"#utility.yul\":2215:2229   */\n      add\n        /* \"#utility.yul\":2211:2239   */\n      and\n        /* \"#utility.yul\":2201:2239   */\n      swap1\n      pop\n        /* \"#utility.yul\":2143:2245   */\n      swap2\n      swap1\n      pop\n      jump\t// out\n        /* \"#utility.yul\":2251:2628   */\n    tag_279:\n        /* \"#utility.yul\":2339:2342   */\n      0x00\n        /* \"#utility.yul\":2367:2406   */\n      tag_378\n        /* \"#utility.yul\":2400:2405   */\n      dup3\n        /* \"#utility.yul\":2367:2406   */\n      tag_275\n      jump\t// in\n    tag_378:\n        /* \"#utility.yul\":2422:2493   */\n      tag_379\n        /* \"#utility.yul\":2486:2492   */\n      dup2\n        /* \"#utility.yul\":2481:2484   */\n      dup6\n        /* \"#utility.yul\":2422:2493   */\n      tag_276\n      jump\t// in\n    tag_379:\n        /* \"#utility.yul\":2415:2493   */\n      swap4\n      pop\n        /* \"#utility.yul\":2502:2567   */\n      tag_380\n        /* \"#utility.yul\":2560:2566   */\n      dup2\n        /* \"#utility.yul\":2555:2558   */\n      dup6\n        /* \"#utility.yul\":2548:2552   */\n      0x20\n        /* \"#utility.yul\":2541:2546   */\n      dup7\n        /* \"#utility.yul\":2537:2553   */\n      add\n        /* \"#utility.yul\":2502:2567   */\n      tag_277\n      jump\t// in\n    tag_380:\n        /* \"#utility.yul\":2592:2621   */\n      tag_381\n        /* \"#utility.yul\":2614:2620   */\n      dup2\n        /* \"#utility.yul\":2592:2621   */\n      tag_278\n      jump\t// in\n    tag_381:\n        /* \"#utility.yul\":2587:2590   */\n      dup5\n        /* \"#utility.yul\":2583:2622   */\n      add\n        /* \"#utility.yul\":2576:2622   */\n      swap2\n      pop\n        /* \"#utility.yul\":2343:2628   */\n      pop\n        /* \"#utility.yul\":2251:2628   */\n      swap3\n      swap2\n      pop\n      pop\n      jump\t// out\n        /* \"#utility.yul\":2634:2947   */\n    tag_30:\n        /* \"#utility.yul\":2747:2751   */\n      0x00\n        /* \"#utility.yul\":2785:2787   */\n      0x20\n        /* \"#utility.yul\":2774:2783   */\n      dup3\n        /* \"#utility.yul\":2770:2788   */\n      add\n        /* \"#utility.yul\":2762:2788   */\n      swap1\n      pop\n        /* \"#utility.yul\":2834:2843   */\n      dup2\n        /* \"#utility.yul\":2828:2832   */\n      dup2\n        /* \"#utility.yul\":2824:2844   */\n      sub\n        /* \"#utility.yul\":2820:2821   */\n      0x00\n        /* \"#utility.yul\":2809:2818   */\n      dup4\n        /* \"#utility.yul\":2805:2822   */\n      add\n        /* \"#utility.yul\":2798:2845   */\n      mstore\n        /* \"#utility.yul\":2862:2940   */\n      tag_383\n        /* \"#utility.yul\":2935:2939   */\n      dup2\n        /* \"#utility.yul\":2926:2932   */\n      dup5\n        /* \"#utility.yul\":2862:2940   */\n      tag_279\n      jump\t// in\n    tag_383:\n        /* \"#utility.yul\":2854:2940   */\n      swap1\n      pop\n        /* \"#utility.yul\":2634:2947   */\n      swap3\n      swap2\n      pop\n      pop\n      jump\t// out\n        /* \"#utility.yul\":2953:3070   */\n    tag_280:\n        /* \"#utility.yul\":3062:3063   */\n      0x00\n        /* \"#utility.yul\":3059:3060   */\n      dup1\n        /* \"#utility.yul\":3052:3064   */\n      revert\n        /* \"#utility.yul\":3076:3193   */\n    tag_281:\n        /* \"#utility.yul\":3185:3186   */\n      0x00\n        /* \"#utility.yul\":3182:3183   */\n      dup1\n        /* \"#utility.yul\":3175:3187   */\n      revert\n        /* \"#utility.yul\":3199:3379   */\n    tag_282:\n        /* \"#utility.yul\":3247:3324   */\n      0x4e487b7100000000000000000000000000000000000000000000000000000000\n        /* \"#utility.yul\":3244:3245   */\n      0x00\n        /* \"#utility.yul\":3237:3325   */\n      mstore\n        /* \"#utility.yul\":3344:3348   */\n      0x41\n        /* \"#utility.yul\":3341:3342   */\n      0x04\n        /* \"#utility.yul\":3334:3349   */\n      mstore\n        /* \"#utility.yul\":3368:3372   */\n      0x24\n        /* \"#utility.yul\":3365:3366   */\n      0x00\n        /* \"#utility.yul\":3358:3373   */\n      revert\n        /* \"#utility.yul\":3385:3666   */\n    tag_283:\n        /* \"#utility.yul\":3468:3495   */\n      tag_388\n        /* \"#utility.yul\":3490:3494   */\n      dup3\n        /* \"#utility.yul\":3468:3495   */\n      tag_278\n      jump\t// in\n    tag_388:\n        /* \"#utility.yul\":3460:3466   */\n      dup2\n        /* \"#utility.yul\":3456:3496   */\n      add\n        /* \"#utility.yul\":3598:3604   */\n      dup2\n        /* \"#utility.yul\":3586:3596   */\n      dup2\n        /* \"#utility.yul\":3583:3605   */\n      lt\n        /* \"#utility.yul\":3562:3580   */\n      0xffffffffffffffff\n        /* \"#utility.yul\":3550:3560   */\n      dup3\n        /* \"#utility.yul\":3547:3581   */\n      gt\n        /* \"#utility.yul\":3544:3606   */\n      or\n        /* \"#utility.yul\":3541:3629   */\n      iszero\n      tag_389\n      jumpi\n        /* \"#utility.yul\":3609:3627   */\n      tag_390\n      tag_282\n      jump\t// in\n    tag_390:\n        /* \"#utility.yul\":3541:3629   */\n    tag_389:\n        /* \"#utility.yul\":3649:3659   */\n      dup1\n        /* \"#utility.yul\":3645:3647   */\n      0x40\n        /* \"#utility.yul\":3638:3660   */\n      mstore\n        /* \"#utility.yul\":3428:3666   */\n      pop\n        /* \"#utility.yul\":3385:3666   */\n      pop\n      pop\n      jump\t// out\n        /* \"#utility.yul\":3672:3801   */\n    tag_284:\n        /* \"#utility.yul\":3706:3712   */\n      0x00\n        /* \"#utility.yul\":3733:3753   */\n      tag_392\n      tag_269\n      jump\t// in\n    tag_392:\n        /* \"#utility.yul\":3723:3753   */\n      swap1\n      pop\n        /* \"#utility.yul\":3762:3795   */\n      tag_393\n        /* \"#utility.yul\":3790:3794   */\n      dup3\n        /* \"#utility.yul\":3782:3788   */\n      dup3\n        /* \"#utility.yul\":3762:3795   */\n      tag_283\n      jump\t// in\n    tag_393:\n        /* \"#utility.yul\":3672:3801   */\n      swap2\n      swap1\n      pop\n      jump\t// out\n        /* \"#utility.yul\":3807:4115   */\n    tag_285:\n        /* \"#utility.yul\":3869:3873   */\n      0x00\n        /* \"#utility.yul\":3959:3977   */\n      0xffffffffffffffff\n        /* \"#utility.yul\":3951:3957   */\n      dup3\n        /* \"#utility.yul\":3948:3978   */\n      gt\n        /* \"#utility.yul\":3945:4001   */\n      iszero\n      tag_395\n      jumpi\n        /* \"#utility.yul\":3981:3999   */\n      tag_396\n      tag_282\n      jump\t// in\n    tag_396:\n        /* \"#utility.yul\":3945:4001   */\n    tag_395:\n        /* \"#utility.yul\":4019:4048   */\n      tag_397\n        /* \"#utility.yul\":4041:4047   */\n      dup3\n        /* \"#utility.yul\":4019:4048   */\n      tag_278\n      jump\t// in\n    tag_397:\n        /* \"#utility.yul\":4011:4048   */\n      swap1\n      pop\n        /* \"#utility.yul\":4103:4107   */\n      0x20\n        /* \"#utility.yul\":4097:4101   */\n      dup2\n        /* \"#utility.yul\":4093:4108   */\n      add\n        /* \"#utility.yul\":4085:4108   */\n      swap1\n      pop\n        /* \"#utility.yul\":3807:4115   */\n      swap2\n      swap1\n      pop\n      jump\t// out\n        /* \"#utility.yul\":4121:4267   */\n    tag_286:\n        /* \"#utility.yul\":4218:4224   */\n      dup3\n        /* \"#utility.yul\":4213:4216   */\n      dup2\n        /* \"#utility.yul\":4208:4211   */\n      dup4\n        /* \"#utility.yul\":4195:4225   */\n      calldatacopy\n        /* \"#utility.yul\":4259:4260   */\n      0x00\n        /* \"#utility.yul\":4250:4256   */\n      dup4\n        /* \"#utility.yul\":4245:4248   */\n      dup4\n        /* \"#utility.yul\":4241:4257   */\n      add\n        /* \"#utility.yul\":4234:4261   */\n      mstore\n        /* \"#utility.yul\":4121:4267   */\n      pop\n      pop\n      pop\n      jump\t// out\n        /* \"#utility.yul\":4273:4698   */\n    tag_287:\n        /* \"#utility.yul\":4351:4356   */\n      0x00\n        /* \"#utility.yul\":4376:4442   */\n      tag_400\n        /* \"#utility.yul\":4392:4441   */\n      tag_401\n        /* \"#utility.yul\":4434:4440   */\n      dup5\n        /* \"#utility.yul\":4392:4441   */\n      tag_285\n      jump\t// in\n    tag_401:\n        /* \"#utility.yul\":4376:4442   */\n      tag_284\n      jump\t// in\n    tag_400:\n        /* \"#utility.yul\":4367:4442   */\n      swap1\n      pop\n        /* \"#utility.yul\":4465:4471   */\n      dup3\n        /* \"#utility.yul\":4458:4463   */\n      dup2\n        /* \"#utility.yul\":4451:4472   */\n      mstore\n        /* \"#utility.yul\":4503:4507   */\n      0x20\n        /* \"#utility.yul\":4496:4501   */\n      dup2\n        /* \"#utility.yul\":4492:4508   */\n      add\n        /* \"#utility.yul\":4541:4544   */\n      dup5\n        /* \"#utility.yul\":4532:4538   */\n      dup5\n        /* \"#utility.yul\":4527:4530   */\n      dup5\n        /* \"#utility.yul\":4523:4539   */\n      add\n        /* \"#utility.yul\":4520:4545   */\n      gt\n        /* \"#utility.yul\":4517:4629   */\n      iszero\n      tag_402\n      jumpi\n        /* \"#utility.yul\":4548:4627   */\n      tag_403\n      tag_281\n      jump\t// in\n    tag_403:\n        /* \"#utility.yul\":4517:4629   */\n    tag_402:\n        /* \"#utility.yul\":4638:4692   */\n      tag_404\n        /* \"#utility.yul\":4685:4691   */\n      dup5\n        /* \"#utility.yul\":4680:4683   */\n      dup3\n        /* \"#utility.yul\":4675:4678   */\n      dup6\n        /* \"#utility.yul\":4638:4692   */\n      tag_286\n      jump\t// in\n    tag_404:\n        /* \"#utility.yul\":4357:4698   */\n      pop\n        /* \"#utility.yul\":4273:4698   */\n      swap4\n      swap3\n      pop\n      pop\n      pop\n      jump\t// out\n        /* \"#utility.yul\":4718:5058   */\n    tag_288:\n        /* \"#utility.yul\":4774:4779   */\n      0x00\n        /* \"#utility.yul\":4823:4826   */\n      dup3\n        /* \"#utility.yul\":4816:4820   */\n      0x1f\n        /* \"#utility.yul\":4808:4814   */\n      dup4\n        /* \"#utility.yul\":4804:4821   */\n      add\n        /* \"#utility.yul\":4800:4827   */\n      slt\n        /* \"#utility.yul\":4790:4912   */\n      tag_406\n      jumpi\n        /* \"#utility.yul\":4831:4910   */\n      tag_407\n      tag_280\n      jump\t// in\n    tag_407:\n        /* \"#utility.yul\":4790:4912   */\n    tag_406:\n        /* \"#utility.yul\":4948:4954   */\n      dup2\n        /* \"#utility.yul\":4935:4955   */\n      calldataload\n        /* \"#utility.yul\":4973:5052   */\n      tag_408\n        /* \"#utility.yul\":5048:5051   */\n      dup5\n        /* \"#utility.yul\":5040:5046   */\n      dup3\n        /* \"#utility.yul\":5033:5037   */\n      0x20\n        /* \"#utility.yul\":5025:5031   */\n      dup7\n        /* \"#utility.yul\":5021:5038   */\n      add\n        /* \"#utility.yul\":4973:5052   */\n      tag_287\n      jump\t// in\n    tag_408:\n        /* \"#utility.yul\":4964:5052   */\n      swap2\n      pop\n        /* \"#utility.yul\":4780:5058   */\n      pop\n        /* \"#utility.yul\":4718:5058   */\n      swap3\n      swap2\n      pop\n      pop\n      jump\t// out\n        /* \"#utility.yul\":5064:5573   */\n    tag_38:\n        /* \"#utility.yul\":5133:5139   */\n      0x00\n        /* \"#utility.yul\":5182:5184   */\n      0x20\n        /* \"#utility.yul\":5170:5179   */\n      dup3\n        /* \"#utility.yul\":5161:5168   */\n      dup5\n        /* \"#utility.yul\":5157:5180   */\n      sub\n        /* \"#utility.yul\":5153:5185   */\n      slt\n        /* \"#utility.yul\":5150:5269   */\n      iszero\n      tag_410\n      jumpi\n        /* \"#utility.yul\":5188:5267   */\n      tag_411\n      tag_270\n      jump\t// in\n    tag_411:\n        /* \"#utility.yul\":5150:5269   */\n    tag_410:\n        /* \"#utility.yul\":5336:5337   */\n      0x00\n        /* \"#utility.yul\":5325:5334   */\n      dup3\n        /* \"#utility.yul\":5321:5338   */\n      add\n        /* \"#utility.yul\":5308:5339   */\n      calldataload\n        /* \"#utility.yul\":5366:5384   */\n      0xffffffffffffffff\n        /* \"#utility.yul\":5358:5364   */\n      dup2\n        /* \"#utility.yul\":5355:5385   */\n      gt\n        /* \"#utility.yul\":5352:5469   */\n      iszero\n      tag_412\n      jumpi\n        /* \"#utility.yul\":5388:5467   */\n      tag_413\n      tag_271\n      jump\t// in\n    tag_413:\n        /* \"#utility.yul\":5352:5469   */\n    tag_412:\n        /* \"#utility.yul\":5493:5556   */\n      tag_414\n        /* \"#utility.yul\":5548:5555   */\n      dup5\n        /* \"#utility.yul\":5539:5545   */\n      dup3\n        /* \"#utility.yul\":5528:5537   */\n      dup6\n        /* \"#utility.yul\":5524:5546   */\n      add\n        /* \"#utility.yul\":5493:5556   */\n      tag_288\n      jump\t// in\n    tag_414:\n        /* \"#utility.yul\":5483:5556   */\n      swap2\n      pop\n        /* \"#utility.yul\":5279:5566   */\n      pop\n        /* \"#utility.yul\":5064:5573   */\n      swap3\n      swap2\n      pop\n      pop\n      jump\t// out\n        /* \"#utility.yul\":5579:6233   */\n    tag_52:\n        /* \"#utility.yul\":5657:5663   */\n      0x00\n        /* \"#utility.yul\":5665:5671   */\n      dup1\n        /* \"#utility.yul\":5714:5716   */\n      0x40\n        /* \"#utility.yul\":5702:5711   */\n      dup4\n        /* \"#utility.yul\":5693:5700   */\n      dup6\n        /* \"#utility.yul\":5689:5712   */\n      sub\n        /* \"#utility.yul\":5685:5717   */\n      slt\n        /* \"#utility.yul\":5682:5801   */\n      iszero\n      tag_416\n      jumpi\n        /* \"#utility.yul\":5720:5799   */\n      tag_417\n      tag_270\n      jump\t// in\n    tag_417:\n        /* \"#utility.yul\":5682:5801   */\n    tag_416:\n        /* \"#utility.yul\":5840:5841   */\n      0x00\n        /* \"#utility.yul\":5865:5918   */\n      tag_418\n        /* \"#utility.yul\":5910:5917   */\n      dup6\n        /* \"#utility.yul\":5901:5907   */\n      dup3\n        /* \"#utility.yul\":5890:5899   */\n      dup7\n        /* \"#utility.yul\":5886:5908   */\n      add\n        /* \"#utility.yul\":5865:5918   */\n      tag_274\n      jump\t// in\n    tag_418:\n        /* \"#utility.yul\":5855:5918   */\n      swap3\n      pop\n        /* \"#utility.yul\":5811:5928   */\n      pop\n        /* \"#utility.yul\":5995:5997   */\n      0x20\n        /* \"#utility.yul\":5984:5993   */\n      dup4\n        /* \"#utility.yul\":5980:5998   */\n      add\n        /* \"#utility.yul\":5967:5999   */\n      calldataload\n        /* \"#utility.yul\":6026:6044   */\n      0xffffffffffffffff\n        /* \"#utility.yul\":6018:6024   */\n      dup2\n        /* \"#utility.yul\":6015:6045   */\n      gt\n        /* \"#utility.yul\":6012:6129   */\n      iszero\n      tag_419\n      jumpi\n        /* \"#utility.yul\":6048:6127   */\n      tag_420\n      tag_271\n      jump\t// in\n    tag_420:\n        /* \"#utility.yul\":6012:6129   */\n    tag_419:\n        /* \"#utility.yul\":6153:6216   */\n      tag_421\n        /* \"#utility.yul\":6208:6215   */\n      dup6\n        /* \"#utility.yul\":6199:6205   */\n      dup3\n        /* \"#utility.yul\":6188:6197   */\n      dup7\n        /* \"#utility.yul\":6184:6206   */\n      add\n        /* \"#utility.yul\":6153:6216   */\n      tag_288\n      jump\t// in\n    tag_421:\n        /* \"#utility.yul\":6143:6216   */\n      swap2\n      pop\n        /* \"#utility.yul\":5938:6226   */\n      pop\n        /* \"#utility.yul\":5579:6233   */\n      swap3\n      pop\n      swap3\n      swap1\n      pop\n      jump\t// out\n        /* \"#utility.yul\":6239:6316   */\n    tag_289:\n        /* \"#utility.yul\":6276:6283   */\n      0x00\n        /* \"#utility.yul\":6305:6310   */\n      dup2\n        /* \"#utility.yul\":6294:6310   */\n      swap1\n      pop\n        /* \"#utility.yul\":6239:6316   */\n      swap2\n      swap1\n      pop\n      jump\t// out\n        /* \"#utility.yul\":6322:6444   */\n    tag_290:\n        /* \"#utility.yul\":6395:6419   */\n      tag_424\n        /* \"#utility.yul\":6413:6418   */\n      dup2\n        /* \"#utility.yul\":6395:6419   */\n      tag_289\n      jump\t// in\n    tag_424:\n        /* \"#utility.yul\":6388:6393   */\n      dup2\n        /* \"#utility.yul\":6385:6420   */\n      eq\n        /* \"#utility.yul\":6375:6438   */\n      tag_425\n      jumpi\n        /* \"#utility.yul\":6434:6435   */\n      0x00\n        /* \"#utility.yul\":6431:6432   */\n      dup1\n        /* \"#utility.yul\":6424:6436   */\n      revert\n        /* \"#utility.yul\":6375:6438   */\n    tag_425:\n        /* \"#utility.yul\":6322:6444   */\n      pop\n      jump\t// out\n        /* \"#utility.yul\":6450:6589   */\n    tag_291:\n        /* \"#utility.yul\":6496:6501   */\n      0x00\n        /* \"#utility.yul\":6534:6540   */\n      dup2\n        /* \"#utility.yul\":6521:6541   */\n      calldataload\n        /* \"#utility.yul\":6512:6541   */\n      swap1\n      pop\n        /* \"#utility.yul\":6550:6583   */\n      tag_427\n        /* \"#utility.yul\":6577:6582   */\n      dup2\n        /* \"#utility.yul\":6550:6583   */\n      tag_290\n      jump\t// in\n    tag_427:\n        /* \"#utility.yul\":6450:6589   */\n      swap3\n      swap2\n      pop\n      pop\n      jump\t// out\n        /* \"#utility.yul\":6595:7249   */\n    tag_59:\n        /* \"#utility.yul\":6673:6679   */\n      0x00\n        /* \"#utility.yul\":6681:6687   */\n      dup1\n        /* \"#utility.yul\":6730:6732   */\n      0x40\n        /* \"#utility.yul\":6718:6727   */\n      dup4\n        /* \"#utility.yul\":6709:6716   */\n      dup6\n        /* \"#utility.yul\":6705:6728   */\n      sub\n        /* \"#utility.yul\":6701:6733   */\n      slt\n        /* \"#utility.yul\":6698:6817   */\n      iszero\n      tag_429\n      jumpi\n        /* \"#utility.yul\":6736:6815   */\n      tag_430\n      tag_270\n      jump\t// in\n    tag_430:\n        /* \"#utility.yul\":6698:6817   */\n    tag_429:\n        /* \"#utility.yul\":6856:6857   */\n      0x00\n        /* \"#utility.yul\":6881:6934   */\n      tag_431\n        /* \"#utility.yul\":6926:6933   */\n      dup6\n        /* \"#utility.yul\":6917:6923   */\n      dup3\n        /* \"#utility.yul\":6906:6915   */\n      dup7\n        /* \"#utility.yul\":6902:6924   */\n      add\n        /* \"#utility.yul\":6881:6934   */\n      tag_291\n      jump\t// in\n    tag_431:\n        /* \"#utility.yul\":6871:6934   */\n      swap3\n      pop\n        /* \"#utility.yul\":6827:6944   */\n      pop\n        /* \"#utility.yul\":7011:7013   */\n      0x20\n        /* \"#utility.yul\":7000:7009   */\n      dup4\n        /* \"#utility.yul\":6996:7014   */\n      add\n        /* \"#utility.yul\":6983:7015   */\n      calldataload\n        /* \"#utility.yul\":7042:7060   */\n      0xffffffffffffffff\n        /* \"#utility.yul\":7034:7040   */\n      dup2\n        /* \"#utility.yul\":7031:7061   */\n      gt\n        /* \"#utility.yul\":7028:7145   */\n      iszero\n      tag_432\n      jumpi\n        /* \"#utility.yul\":7064:7143   */\n      tag_433\n      tag_271\n      jump\t// in\n    tag_433:\n        /* \"#utility.yul\":7028:7145   */\n    tag_432:\n        /* \"#utility.yul\":7169:7232   */\n      tag_434\n        /* \"#utility.yul\":7224:7231   */\n      dup6\n        /* \"#utility.yul\":7215:7221   */\n      dup3\n        /* \"#utility.yul\":7204:7213   */\n      dup7\n        /* \"#utility.yul\":7200:7222   */\n      add\n        /* \"#utility.yul\":7169:7232   */\n      tag_288\n      jump\t// in\n    tag_434:\n        /* \"#utility.yul\":7159:7232   */\n      swap2\n      pop\n        /* \"#utility.yul\":6954:7242   */\n      pop\n        /* \"#utility.yul\":6595:7249   */\n      swap3\n      pop\n      swap3\n      swap1\n      pop\n      jump\t// out\n        /* \"#utility.yul\":7255:7404   */\n    tag_292:\n        /* \"#utility.yul\":7291:7298   */\n      0x00\n        /* \"#utility.yul\":7331:7397   */\n      0xffffffff00000000000000000000000000000000000000000000000000000000\n        /* \"#utility.yul\":7324:7329   */\n      dup3\n        /* \"#utility.yul\":7320:7398   */\n      and\n        /* \"#utility.yul\":7309:7398   */\n      swap1\n      pop\n        /* \"#utility.yul\":7255:7404   */\n      swap2\n      swap1\n      pop\n      jump\t// out\n        /* \"#utility.yul\":7410:7530   */\n    tag_293:\n        /* \"#utility.yul\":7482:7505   */\n      tag_437\n        /* \"#utility.yul\":7499:7504   */\n      dup2\n        /* \"#utility.yul\":7482:7505   */\n      tag_292\n      jump\t// in\n    tag_437:\n        /* \"#utility.yul\":7475:7480   */\n      dup2\n        /* \"#utility.yul\":7472:7506   */\n      eq\n        /* \"#utility.yul\":7462:7524   */\n      tag_438\n      jumpi\n        /* \"#utility.yul\":7520:7521   */\n      0x00\n        /* \"#utility.yul\":7517:7518   */\n      dup1\n        /* \"#utility.yul\":7510:7522   */\n      revert\n        /* \"#utility.yul\":7462:7524   */\n    tag_438:\n        /* \"#utility.yul\":7410:7530   */\n      pop\n      jump\t// out\n        /* \"#utility.yul\":7536:7673   */\n    tag_294:\n        /* \"#utility.yul\":7581:7586   */\n      0x00\n        /* \"#utility.yul\":7619:7625   */\n      dup2\n        /* \"#utility.yul\":7606:7626   */\n      calldataload\n        /* \"#utility.yul\":7597:7626   */\n      swap1\n      pop\n        /* \"#utility.yul\":7635:7667   */\n      tag_440\n        /* \"#utility.yul\":7661:7666   */\n      dup2\n        /* \"#utility.yul\":7635:7667   */\n      tag_293\n      jump\t// in\n    tag_440:\n        /* \"#utility.yul\":7536:7673   */\n      swap3\n      swap2\n      pop\n      pop\n      jump\t// out\n        /* \"#utility.yul\":7679:8442   */\n    tag_63:\n        /* \"#utility.yul\":7764:7770   */\n      0x00\n        /* \"#utility.yul\":7772:7778   */\n      dup1\n        /* \"#utility.yul\":7780:7786   */\n      0x00\n        /* \"#utility.yul\":7788:7794   */\n      dup1\n        /* \"#utility.yul\":7837:7840   */\n      0x80\n        /* \"#utility.yul\":7825:7834   */\n      dup6\n        /* \"#utility.yul\":7816:7823   */\n      dup8\n        /* \"#utility.yul\":7812:7835   */\n      sub\n        /* \"#utility.yul\":7808:7841   */\n      slt\n        /* \"#utility.yul\":7805:7925   */\n      iszero\n      tag_442\n      jumpi\n        /* \"#utility.yul\":7844:7923   */\n      tag_443\n      tag_270\n      jump\t// in\n    tag_443:\n        /* \"#utility.yul\":7805:7925   */\n    tag_442:\n        /* \"#utility.yul\":7964:7965   */\n      0x00\n        /* \"#utility.yul\":7989:8042   */\n      tag_444\n        /* \"#utility.yul\":8034:8041   */\n      dup8\n        /* \"#utility.yul\":8025:8031   */\n      dup3\n        /* \"#utility.yul\":8014:8023   */\n      dup9\n        /* \"#utility.yul\":8010:8032   */\n      add\n        /* \"#utility.yul\":7989:8042   */\n      tag_291\n      jump\t// in\n    tag_444:\n        /* \"#utility.yul\":7979:8042   */\n      swap5\n      pop\n        /* \"#utility.yul\":7935:8052   */\n      pop\n        /* \"#utility.yul\":8091:8093   */\n      0x20\n        /* \"#utility.yul\":8117:8170   */\n      tag_445\n        /* \"#utility.yul\":8162:8169   */\n      dup8\n        /* \"#utility.yul\":8153:8159   */\n      dup3\n        /* \"#utility.yul\":8142:8151   */\n      dup9\n        /* \"#utility.yul\":8138:8160   */\n      add\n        /* \"#utility.yul\":8117:8170   */\n      tag_274\n      jump\t// in\n    tag_445:\n        /* \"#utility.yul\":8107:8170   */\n      swap4\n      pop\n        /* \"#utility.yul\":8062:8180   */\n      pop\n        /* \"#utility.yul\":8219:8221   */\n      0x40\n        /* \"#utility.yul\":8245:8297   */\n      tag_446\n        /* \"#utility.yul\":8289:8296   */\n      dup8\n        /* \"#utility.yul\":8280:8286   */\n      dup3\n        /* \"#utility.yul\":8269:8278   */\n      dup9\n        /* \"#utility.yul\":8265:8287   */\n      add\n        /* \"#utility.yul\":8245:8297   */\n      tag_294\n      jump\t// in\n    tag_446:\n        /* \"#utility.yul\":8235:8297   */\n      swap3\n      pop\n        /* \"#utility.yul\":8190:8307   */\n      pop\n        /* \"#utility.yul\":8346:8348   */\n      0x60\n        /* \"#utility.yul\":8372:8425   */\n      tag_447\n        /* \"#utility.yul\":8417:8424   */\n      dup8\n        /* \"#utility.yul\":8408:8414   */\n      dup3\n        /* \"#utility.yul\":8397:8406   */\n      dup9\n        /* \"#utility.yul\":8393:8415   */\n      add\n        /* \"#utility.yul\":8372:8425   */\n      tag_274\n      jump\t// in\n    tag_447:\n        /* \"#utility.yul\":8362:8425   */\n      swap2\n      pop\n        /* \"#utility.yul\":8317:8435   */\n      pop\n        /* \"#utility.yul\":7679:8442   */\n      swap3\n      swap6\n      swap2\n      swap5\n      pop\n      swap3\n      pop\n      jump\t// out\n        /* \"#utility.yul\":8448:8570   */\n    tag_295:\n        /* \"#utility.yul\":8521:8545   */\n      tag_449\n        /* \"#utility.yul\":8539:8544   */\n      dup2\n        /* \"#utility.yul\":8521:8545   */\n      tag_267\n      jump\t// in\n    tag_449:\n        /* \"#utility.yul\":8514:8519   */\n      dup2\n        /* \"#utility.yul\":8511:8546   */\n      eq\n        /* \"#utility.yul\":8501:8564   */\n      tag_450\n      jumpi\n        /* \"#utility.yul\":8560:8561   */\n      0x00\n        /* \"#utility.yul\":8557:8558   */\n      dup1\n        /* \"#utility.yul\":8550:8562   */\n      revert\n        /* \"#utility.yul\":8501:8564   */\n    tag_450:\n        /* \"#utility.yul\":8448:8570   */\n      pop\n      jump\t// out\n        /* \"#utility.yul\":8576:8715   */\n    tag_296:\n        /* \"#utility.yul\":8622:8627   */\n      0x00\n        /* \"#utility.yul\":8660:8666   */\n      dup2\n        /* \"#utility.yul\":8647:8667   */\n      calldataload\n        /* \"#utility.yul\":8638:8667   */\n      swap1\n      pop\n        /* \"#utility.yul\":8676:8709   */\n      tag_452\n        /* \"#utility.yul\":8703:8708   */\n      dup2\n        /* \"#utility.yul\":8676:8709   */\n      tag_295\n      jump\t// in\n    tag_452:\n        /* \"#utility.yul\":8576:8715   */\n      swap3\n      swap2\n      pop\n      pop\n      jump\t// out\n        /* \"#utility.yul\":8721:9050   */\n    tag_67:\n        /* \"#utility.yul\":8780:8786   */\n      0x00\n        /* \"#utility.yul\":8829:8831   */\n      0x20\n        /* \"#utility.yul\":8817:8826   */\n      dup3\n        /* \"#utility.yul\":8808:8815   */\n      dup5\n        /* \"#utility.yul\":8804:8827   */\n      sub\n        /* \"#utility.yul\":8800:8832   */\n      slt\n        /* \"#utility.yul\":8797:8916   */\n      iszero\n      tag_454\n      jumpi\n        /* \"#utility.yul\":8835:8914   */\n      tag_455\n      tag_270\n      jump\t// in\n    tag_455:\n        /* \"#utility.yul\":8797:8916   */\n    tag_454:\n        /* \"#utility.yul\":8955:8956   */\n      0x00\n        /* \"#utility.yul\":8980:9033   */\n      tag_456\n        /* \"#utility.yul\":9025:9032   */\n      dup5\n        /* \"#utility.yul\":9016:9022   */\n      dup3\n        /* \"#utility.yul\":9005:9014   */\n      dup6\n        /* \"#utility.yul\":9001:9023   */\n      add\n        /* \"#utility.yul\":8980:9033   */\n      tag_296\n      jump\t// in\n    tag_456:\n        /* \"#utility.yul\":8970:9033   */\n      swap2\n      pop\n        /* \"#utility.yul\":8926:9043   */\n      pop\n        /* \"#utility.yul\":8721:9050   */\n      swap3\n      swap2\n      pop\n      pop\n      jump\t// out\n        /* \"#utility.yul\":9056:9236   */\n    tag_297:\n        /* \"#utility.yul\":9104:9181   */\n      0x4e487b7100000000000000000000000000000000000000000000000000000000\n        /* \"#utility.yul\":9101:9102   */\n      0x00\n        /* \"#utility.yul\":9094:9182   */\n      mstore\n        /* \"#utility.yul\":9201:9205   */\n      0x22\n        /* \"#utility.yul\":9198:9199   */\n      0x04\n        /* \"#utility.yul\":9191:9206   */\n      mstore\n        /* \"#utility.yul\":9225:9229   */\n      0x24\n        /* \"#utility.yul\":9222:9223   */\n      0x00\n        /* \"#utility.yul\":9215:9230   */\n      revert\n        /* \"#utility.yul\":9242:9562   */\n    tag_78:\n        /* \"#utility.yul\":9286:9292   */\n      0x00\n        /* \"#utility.yul\":9323:9324   */\n      0x02\n        /* \"#utility.yul\":9317:9321   */\n      dup3\n        /* \"#utility.yul\":9313:9325   */\n      div\n        /* \"#utility.yul\":9303:9325   */\n      swap1\n      pop\n        /* \"#utility.yul\":9370:9371   */\n      0x01\n        /* \"#utility.yul\":9364:9368   */\n      dup3\n        /* \"#utility.yul\":9360:9372   */\n      and\n        /* \"#utility.yul\":9391:9409   */\n      dup1\n        /* \"#utility.yul\":9381:9462   */\n      tag_459\n      jumpi\n        /* \"#utility.yul\":9447:9451   */\n      0x7f\n        /* \"#utility.yul\":9439:9445   */\n      dup3\n        /* \"#utility.yul\":9435:9452   */\n      and\n        /* \"#utility.yul\":9425:9452   */\n      swap2\n      pop\n        /* \"#utility.yul\":9381:9462   */\n    tag_459:\n        /* \"#utility.yul\":9509:9511   */\n      0x20\n        /* \"#utility.yul\":9501:9507   */\n      dup3\n        /* \"#utility.yul\":9498:9512   */\n      lt\n        /* \"#utility.yul\":9478:9496   */\n      dup2\n        /* \"#utility.yul\":9475:9513   */\n      sub\n        /* \"#utility.yul\":9472:9556   */\n      tag_460\n      jumpi\n        /* \"#utility.yul\":9528:9546   */\n      tag_461\n      tag_297\n      jump\t// in\n    tag_461:\n        /* \"#utility.yul\":9472:9556   */\n    tag_460:\n        /* \"#utility.yul\":9293:9562   */\n      pop\n        /* \"#utility.yul\":9242:9562   */\n      swap2\n      swap1\n      pop\n      jump\t// out\n        /* \"#utility.yul\":9568:9748   */\n    tag_90:\n        /* \"#utility.yul\":9616:9693   */\n      0x4e487b7100000000000000000000000000000000000000000000000000000000\n        /* \"#utility.yul\":9613:9614   */\n      0x00\n        /* \"#utility.yul\":9606:9694   */\n      mstore\n        /* \"#utility.yul\":9713:9717   */\n      0x32\n        /* \"#utility.yul\":9710:9711   */\n      0x04\n        /* \"#utility.yul\":9703:9718   */\n      mstore\n        /* \"#utility.yul\":9737:9741   */\n      0x24\n        /* \"#utility.yul\":9734:9735   */\n      0x00\n        /* \"#utility.yul\":9727:9742   */\n      revert\n        /* \"#utility.yul\":9754:9934   */\n    tag_298:\n        /* \"#utility.yul\":9802:9879   */\n      0x4e487b7100000000000000000000000000000000000000000000000000000000\n        /* \"#utility.yul\":9799:9800   */\n      0x00\n        /* \"#utility.yul\":9792:9880   */\n      mstore\n        /* \"#utility.yul\":9899:9903   */\n      0x11\n        /* \"#utility.yul\":9896:9897   */\n      0x04\n        /* \"#utility.yul\":9889:9904   */\n      mstore\n        /* \"#utility.yul\":9923:9927   */\n      0x24\n        /* \"#utility.yul\":9920:9921   */\n      0x00\n        /* \"#utility.yul\":9913:9928   */\n      revert\n        /* \"#utility.yul\":9940:10173   */\n    tag_99:\n        /* \"#utility.yul\":9979:9982   */\n      0x00\n        /* \"#utility.yul\":10002:10026   */\n      tag_465\n        /* \"#utility.yul\":10020:10025   */\n      dup3\n        /* \"#utility.yul\":10002:10026   */\n      tag_272\n      jump\t// in\n    tag_465:\n        /* \"#utility.yul\":9993:10026   */\n      swap2\n      pop\n        /* \"#utility.yul\":10048:10114   */\n      0xffffffffffffffffffffffffffffffffffffffffffffffffffffffffffffffff\n        /* \"#utility.yul\":10041:10046   */\n      dup3\n        /* \"#utility.yul\":10038:10115   */\n      sub\n        /* \"#utility.yul\":10035:10138   */\n      tag_466\n      jumpi\n        /* \"#utility.yul\":10118:10136   */\n      tag_467\n      tag_298\n      jump\t// in\n    tag_467:\n        /* \"#utility.yul\":10035:10138   */\n    tag_466:\n        /* \"#utility.yul\":10165:10166   */\n      0x01\n        /* \"#utility.yul\":10158:10163   */\n      dup3\n        /* \"#utility.yul\":10154:10167   */\n      add\n        /* \"#utility.yul\":10147:10167   */\n      swap1\n      pop\n        /* \"#utility.yul\":9940:10173   */\n      swap2\n      swap1\n      pop\n      jump\t// out\n        /* \"#utility.yul\":10179:10320   */\n    tag_299:\n        /* \"#utility.yul\":10228:10232   */\n      0x00\n        /* \"#utility.yul\":10251:10254   */\n      dup2\n        /* \"#utility.yul\":10243:10254   */\n      swap1\n      pop\n        /* \"#utility.yul\":10274:10277   */\n      dup2\n        /* \"#utility.yul\":10271:10272   */\n      0x00\n        /* \"#utility.yul\":10264:10278   */\n      mstore\n        /* \"#utility.yul\":10308:10312   */\n      0x20\n        /* \"#utility.yul\":10305:10306   */\n      0x00\n        /* \"#utility.yul\":10295:10313   */\n      keccak256\n        /* \"#utility.yul\":10287:10313   */\n      swap1\n      pop\n        /* \"#utility.yul\":10179:10320   */\n      swap2\n      swap1\n      pop\n      jump\t// out\n        /* \"#utility.yul\":10326:10419   */\n    tag_300:\n        /* \"#utility.yul\":10363:10369   */\n      0x00\n        /* \"#utility.yul\":10410:10412   */\n      0x20\n        /* \"#utility.yul\":10405:10407   */\n      0x1f\n        /* \"#utility.yul\":10398:10403   */\n      dup4\n        /* \"#utility.yul\":10394:10408   */\n      add\n        /* \"#utility.yul\":10390:10413   */\n      div\n        /* \"#utility.yul\":10380:10413   */\n      swap1\n      pop\n        /* \"#utility.yul\":10326:10419   */\n      swap2\n      swap1\n      pop\n      jump\t// out\n        /* \"#utility.yul\":10425:10532   */\n    tag_301:\n        /* \"#utility.yul\":10469:10477   */\n      0x00\n        /* \"#utility.yul\":10519:10524   */\n      dup3\n        /* \"#utility.yul\":10513:10517   */\n      dup3\n        /* \"#utility.yul\":10509:10525   */\n      shl\n        /* \"#utility.yul\":10488:10525   */\n      swap1\n      pop\n        /* \"#utility.yul\":10425:10532   */\n      swap3\n      swap2\n      pop\n      pop\n      jump\t// out\n        /* \"#utility.yul\":10538:10931   */\n    tag_302:\n        /* \"#utility.yul\":10607:10613   */\n      0x00\n        /* \"#utility.yul\":10657:10658   */\n      0x08\n        /* \"#utility.yul\":10645:10655   */\n      dup4\n        /* \"#utility.yul\":10641:10659   */\n      mul\n        /* \"#utility.yul\":10680:10777   */\n      tag_472\n        /* \"#utility.yul\":10710:10776   */\n      0xffffffffffffffffffffffffffffffffffffffffffffffffffffffffffffffff\n        /* \"#utility.yul\":10699:10708   */\n      dup3\n        /* \"#utility.yul\":10680:10777   */\n      tag_301\n      jump\t// in\n    tag_472:\n        /* \"#utility.yul\":10798:10837   */\n      tag_473\n        /* \"#utility.yul\":10828:10836   */\n      dup7\n        /* \"#utility.yul\":10817:10826   */\n      dup4\n        /* \"#utility.yul\":10798:10837   */\n      tag_301\n      jump\t// in\n    tag_473:\n        /* \"#utility.yul\":10786:10837   */\n      swap6\n      pop\n        /* \"#utility.yul\":10870:10874   */\n      dup1\n        /* \"#utility.yul\":10866:10875   */\n      not\n        /* \"#utility.yul\":10859:10864   */\n      dup5\n        /* \"#utility.yul\":10855:10876   */\n      and\n        /* \"#utility.yul\":10846:10876   */\n      swap4\n      pop\n        /* \"#utility.yul\":10919:10923   */\n      dup1\n        /* \"#utility.yul\":10909:10917   */\n      dup7\n        /* \"#utility.yul\":10905:10924   */\n      and\n        /* \"#utility.yul\":10898:10903   */\n      dup5\n        /* \"#utility.yul\":10895:10925   */\n      or\n        /* \"#utility.yul\":10885:10925   */\n      swap3\n      pop\n        /* \"#utility.yul\":10614:10931   */\n      pop\n      pop\n        /* \"#utility.yul\":10538:10931   */\n      swap4\n      swap3\n      pop\n      pop\n      pop\n      jump\t// out\n        /* \"#utility.yul\":10937:10997   */\n    tag_303:\n        /* \"#utility.yul\":10965:10968   */\n      0x00\n        /* \"#utility.yul\":10986:10991   */\n      dup2\n        /* \"#utility.yul\":10979:10991   */\n      swap1\n      pop\n        /* \"#utility.yul\":10937:10997   */\n      swap2\n      swap1\n      pop\n      jump\t// out\n        /* \"#utility.yul\":11003:11145   */\n    tag_304:\n        /* \"#utility.yul\":11053:11062   */\n      0x00\n        /* \"#utility.yul\":11086:11139   */\n      tag_476\n        /* \"#utility.yul\":11104:11138   */\n      tag_477\n        /* \"#utility.yul\":11113:11137   */\n      tag_478\n        /* \"#utility.yul\":11131:11136   */\n      dup5\n        /* \"#utility.yul\":11113:11137   */\n      tag_272\n      jump\t// in\n    tag_478:\n        /* \"#utility.yul\":11104:11138   */\n      tag_303\n      jump\t// in\n    tag_477:\n        /* \"#utility.yul\":11086:11139   */\n      tag_272\n      jump\t// in\n    tag_476:\n        /* \"#utility.yul\":11073:11139   */\n      swap1\n      pop\n        /* \"#utility.yul\":11003:11145   */\n      swap2\n      swap1\n      pop\n      jump\t// out\n        /* \"#utility.yul\":11151:11226   */\n    tag_305:\n        /* \"#utility.yul\":11194:11197   */\n      0x00\n        /* \"#utility.yul\":11215:11220   */\n      dup2\n        /* \"#utility.yul\":11208:11220   */\n      swap1\n      pop\n        /* \"#utility.yul\":11151:11226   */\n      swap2\n      swap1\n      pop\n      jump\t// out\n        /* \"#utility.yul\":11232:11501   */\n    tag_306:\n        /* \"#utility.yul\":11342:11381   */\n      tag_481\n        /* \"#utility.yul\":11373:11380   */\n      dup4\n        /* \"#utility.yul\":11342:11381   */\n      tag_304\n      jump\t// in\n    tag_481:\n        /* \"#utility.yul\":11403:11494   */\n      tag_482\n        /* \"#utility.yul\":11452:11493   */\n      tag_483\n        /* \"#utility.yul\":11476:11492   */\n      dup3\n        /* \"#utility.yul\":11452:11493   */\n      tag_305\n      jump\t// in\n    tag_483:\n        /* \"#utility.yul\":11444:11450   */\n      dup5\n        /* \"#utility.yul\":11437:11441   */\n      dup5\n        /* \"#utility.yul\":11431:11442   */\n      sload\n        /* \"#utility.yul\":11403:11494   */\n      tag_302\n      jump\t// in\n    tag_482:\n        /* \"#utility.yul\":11397:11401   */\n      dup3\n        /* \"#utility.yul\":11390:11495   */\n      sstore\n        /* \"#utility.yul\":11308:11501   */\n      pop\n        /* \"#utility.yul\":11232:11501   */\n      pop\n      pop\n      pop\n      jump\t// out\n        /* \"#utility.yul\":11507:11580   */\n    tag_307:\n        /* \"#utility.yul\":11552:11555   */\n      0x00\n        /* \"#utility.yul\":11507:11580   */\n      swap1\n      jump\t// out\n        /* \"#utility.yul\":11586:11775   */\n    tag_308:\n        /* \"#utility.yul\":11663:11695   */\n      tag_486\n      tag_307\n      jump\t// in\n    tag_486:\n        /* \"#utility.yul\":11704:11769   */\n      tag_487\n        /* \"#utility.yul\":11762:11768   */\n      dup2\n        /* \"#utility.yul\":11754:11760   */\n      dup5\n        /* \"#utility.yul\":11748:11752   */\n      dup5\n        /* \"#utility.yul\":11704:11769   */\n      tag_306\n      jump\t// in\n    tag_487:\n        /* \"#utility.yul\":11639:11775   */\n      pop\n        /* \"#utility.yul\":11586:11775   */\n      pop\n      pop\n      jump\t// out\n        /* \"#utility.yul\":11781:11967   */\n    tag_309:\n        /* \"#utility.yul\":11841:11961   */\n    tag_489:\n        /* \"#utility.yul\":11858:11861   */\n      dup2\n        /* \"#utility.yul\":11851:11856   */\n      dup2\n        /* \"#utility.yul\":11848:11862   */\n      lt\n        /* \"#utility.yul\":11841:11961   */\n      iszero\n      tag_491\n      jumpi\n        /* \"#utility.yul\":11912:11951   */\n      tag_492\n        /* \"#utility.yul\":11949:11950   */\n      0x00\n        /* \"#utility.yul\":11942:11947   */\n      dup3\n        /* \"#utility.yul\":11912:11951   */\n      tag_308\n      jump\t// in\n    tag_492:\n        /* \"#utility.yul\":11885:11886   */\n      0x01\n        /* \"#utility.yul\":11878:11883   */\n      dup2\n        /* \"#utility.yul\":11874:11887   */\n      add\n        /* \"#utility.yul\":11865:11887   */\n      swap1\n      pop\n        /* \"#utility.yul\":11841:11961   */\n      jump(tag_489)\n    tag_491:\n        /* \"#utility.yul\":11781:11967   */\n      pop\n      pop\n      jump\t// out\n        /* \"#utility.yul\":11973:12516   */\n    tag_310:\n        /* \"#utility.yul\":12074:12076   */\n      0x1f\n        /* \"#utility.yul\":12069:12072   */\n      dup3\n        /* \"#utility.yul\":12066:12077   */\n      gt\n        /* \"#utility.yul\":12063:12509   */\n      iszero\n      tag_494\n      jumpi\n        /* \"#utility.yul\":12108:12146   */\n      tag_495\n        /* \"#utility.yul\":12140:12145   */\n      dup2\n        /* \"#utility.yul\":12108:12146   */\n      tag_299\n      jump\t// in\n    tag_495:\n        /* \"#utility.yul\":12192:12221   */\n      tag_496\n        /* \"#utility.yul\":12210:12220   */\n      dup5\n        /* \"#utility.yul\":12192:12221   */\n      tag_300\n      jump\t// in\n    tag_496:\n        /* \"#utility.yul\":12182:12190   */\n      dup2\n        /* \"#utility.yul\":12178:12222   */\n      add\n        /* \"#utility.yul\":12375:12377   */\n      0x20\n        /* \"#utility.yul\":12363:12373   */\n      dup6\n        /* \"#utility.yul\":12360:12378   */\n      lt\n        /* \"#utility.yul\":12357:12406   */\n      iszero\n      tag_497\n      jumpi\n        /* \"#utility.yul\":12396:12404   */\n      dup2\n        /* \"#utility.yul\":12381:12404   */\n      swap1\n      pop\n        /* \"#utility.yul\":12357:12406   */\n    tag_497:\n        /* \"#utility.yul\":12419:12499   */\n      tag_498\n        /* \"#utility.yul\":12475:12497   */\n      tag_499\n        /* \"#utility.yul\":12493:12496   */\n      dup6\n        /* \"#utility.yul\":12475:12497   */\n      tag_300\n      jump\t// in\n    tag_499:\n        /* \"#utility.yul\":12465:12473   */\n      dup4\n        /* \"#utility.yul\":12461:12498   */\n      add\n        /* \"#utility.yul\":12448:12459   */\n      dup3\n        /* \"#utility.yul\":12419:12499   */\n      tag_309\n      jump\t// in\n    tag_498:\n        /* \"#utility.yul\":12078:12509   */\n      pop\n      pop\n        /* \"#utility.yul\":12063:12509   */\n    tag_494:\n        /* \"#utility.yul\":11973:12516   */\n      pop\n      pop\n      pop\n      jump\t// out\n        /* \"#utility.yul\":12522:12639   */\n    tag_311:\n        /* \"#utility.yul\":12576:12584   */\n      0x00\n        /* \"#utility.yul\":12626:12631   */\n      dup3\n        /* \"#utility.yul\":12620:12624   */\n      dup3\n        /* \"#utility.yul\":12616:12632   */\n      shr\n        /* \"#utility.yul\":12595:12632   */\n      swap1\n      pop\n        /* \"#utility.yul\":12522:12639   */\n      swap3\n      swap2\n      pop\n      pop\n      jump\t// out\n        /* \"#utility.yul\":12645:12814   */\n    tag_312:\n        /* \"#utility.yul\":12689:12695   */\n      0x00\n        /* \"#utility.yul\":12722:12773   */\n      tag_502\n        /* \"#utility.yul\":12770:12771   */\n      0x00\n        /* \"#utility.yul\":12766:12772   */\n      not\n        /* \"#utility.yul\":12758:12763   */\n      dup5\n        /* \"#utility.yul\":12755:12756   */\n      0x08\n        /* \"#utility.yul\":12751:12764   */\n      mul\n        /* \"#utility.yul\":12722:12773   */\n      tag_311\n      jump\t// in\n    tag_502:\n        /* \"#utility.yul\":12718:12774   */\n      not\n        /* \"#utility.yul\":12803:12807   */\n      dup1\n        /* \"#utility.yul\":12797:12801   */\n      dup4\n        /* \"#utility.yul\":12793:12808   */\n      and\n        /* \"#utility.yul\":12783:12808   */\n      swap2\n      pop\n        /* \"#utility.yul\":12696:12814   */\n      pop\n        /* \"#utility.yul\":12645:12814   */\n      swap3\n      swap2\n      pop\n      pop\n      jump\t// out\n        /* \"#utility.yul\":12819:13114   */\n    tag_313:\n        /* \"#utility.yul\":12895:12899   */\n      0x00\n        /* \"#utility.yul\":13041:13070   */\n      tag_504\n        /* \"#utility.yul\":13066:13069   */\n      dup4\n        /* \"#utility.yul\":13060:13064   */\n      dup4\n        /* \"#utility.yul\":13041:13070   */\n      tag_312\n      jump\t// in\n    tag_504:\n        /* \"#utility.yul\":13033:13070   */\n      swap2\n      pop\n        /* \"#utility.yul\":13103:13106   */\n      dup3\n        /* \"#utility.yul\":13100:13101   */\n      0x02\n        /* \"#utility.yul\":13096:13107   */\n      mul\n        /* \"#utility.yul\":13090:13094   */\n      dup3\n        /* \"#utility.yul\":13087:13108   */\n      or\n        /* \"#utility.yul\":13079:13108   */\n      swap1\n      pop\n        /* \"#utility.yul\":12819:13114   */\n      swap3\n      swap2\n      pop\n      pop\n      jump\t// out\n        /* \"#utility.yul\":13119:14514   */\n    tag_111:\n        /* \"#utility.yul\":13236:13273   */\n      tag_506\n        /* \"#utility.yul\":13269:13272   */\n      dup3\n        /* \"#utility.yul\":13236:13273   */\n      tag_275\n      jump\t// in\n    tag_506:\n        /* \"#utility.yul\":13338:13356   */\n      0xffffffffffffffff\n        /* \"#utility.yul\":13330:13336   */\n      dup2\n        /* \"#utility.yul\":13327:13357   */\n      gt\n        /* \"#utility.yul\":13324:13380   */\n      iszero\n      tag_507\n      jumpi\n        /* \"#utility.yul\":13360:13378   */\n      tag_508\n      tag_282\n      jump\t// in\n    tag_508:\n        /* \"#utility.yul\":13324:13380   */\n    tag_507:\n        /* \"#utility.yul\":13404:13442   */\n      tag_509\n        /* \"#utility.yul\":13436:13440   */\n      dup3\n        /* \"#utility.yul\":13430:13441   */\n      sload\n        /* \"#utility.yul\":13404:13442   */\n      tag_78\n      jump\t// in\n    tag_509:\n        /* \"#utility.yul\":13489:13556   */\n      tag_510\n        /* \"#utility.yul\":13549:13555   */\n      dup3\n        /* \"#utility.yul\":13541:13547   */\n      dup3\n        /* \"#utility.yul\":13535:13539   */\n      dup6\n        /* \"#utility.yul\":13489:13556   */\n      tag_310\n      jump\t// in\n    tag_510:\n        /* \"#utility.yul\":13583:13584   */\n      0x00\n        /* \"#utility.yul\":13607:13611   */\n      0x20\n        /* \"#utility.yul\":13594:13611   */\n      swap1\n      pop\n        /* \"#utility.yul\":13639:13641   */\n      0x1f\n        /* \"#utility.yul\":13631:13637   */\n      dup4\n        /* \"#utility.yul\":13628:13642   */\n      gt\n        /* \"#utility.yul\":13656:13657   */\n      0x01\n        /* \"#utility.yul\":13651:14269   */\n      dup2\n      eq\n      tag_512\n      jumpi\n        /* \"#utility.yul\":14313:14314   */\n      0x00\n        /* \"#utility.yul\":14330:14336   */\n      dup5\n        /* \"#utility.yul\":14327:14404   */\n      iszero\n      tag_513\n      jumpi\n        /* \"#utility.yul\":14379:14388   */\n      dup3\n        /* \"#utility.yul\":14374:14377   */\n      dup8\n        /* \"#utility.yul\":14370:14389   */\n      add\n        /* \"#utility.yul\":14364:14390   */\n      mload\n        /* \"#utility.yul\":14355:14390   */\n      swap1\n      pop\n        /* \"#utility.yul\":14327:14404   */\n    tag_513:\n        /* \"#utility.yul\":14430:14497   */\n      tag_514\n        /* \"#utility.yul\":14490:14496   */\n      dup6\n        /* \"#utility.yul\":14483:14488   */\n      dup3\n        /* \"#utility.yul\":14430:14497   */\n      tag_313\n      jump\t// in\n    tag_514:\n        /* \"#utility.yul\":14424:14428   */\n      dup7\n        /* \"#utility.yul\":14417:14498   */\n      sstore\n        /* \"#utility.yul\":14286:14508   */\n      pop\n        /* \"#utility.yul\":13621:14508   */\n      jump(tag_511)\n        /* \"#utility.yul\":13651:14269   */\n    tag_512:\n        /* \"#utility.yul\":13703:13707   */\n      0x1f\n        /* \"#utility.yul\":13699:13708   */\n      not\n        /* \"#utility.yul\":13691:13697   */\n      dup5\n        /* \"#utility.yul\":13687:13709   */\n      and\n        /* \"#utility.yul\":13737:13774   */\n      tag_515\n        /* \"#utility.yul\":13769:13773   */\n      dup7\n        /* \"#utility.yul\":13737:13774   */\n      tag_299\n      jump\t// in\n    tag_515:\n        /* \"#utility.yul\":13796:13797   */\n      0x00\n        /* \"#utility.yul\":13810:14018   */\n    tag_516:\n        /* \"#utility.yul\":13824:13831   */\n      dup3\n        /* \"#utility.yul\":13821:13822   */\n      dup2\n        /* \"#utility.yul\":13818:13832   */\n      lt\n        /* \"#utility.yul\":13810:14018   */\n      iszero\n      tag_518\n      jumpi\n        /* \"#utility.yul\":13903:13912   */\n      dup5\n        /* \"#utility.yul\":13898:13901   */\n      dup10\n        /* \"#utility.yul\":13894:13913   */\n      add\n        /* \"#utility.yul\":13888:13914   */\n      mload\n        /* \"#utility.yul\":13880:13886   */\n      dup3\n        /* \"#utility.yul\":13873:13915   */\n      sstore\n        /* \"#utility.yul\":13954:13955   */\n      0x01\n        /* \"#utility.yul\":13946:13952   */\n      dup3\n        /* \"#utility.yul\":13942:13956   */\n      add\n        /* \"#utility.yul\":13932:13956   */\n      swap2\n      pop\n        /* \"#utility.yul\":14001:14003   */\n      0x20\n        /* \"#utility.yul\":13990:13999   */\n      dup6\n        /* \"#utility.yul\":13986:14004   */\n      add\n        /* \"#utility.yul\":13973:14004   */\n      swap5\n      pop\n        /* \"#utility.yul\":13847:13851   */\n      0x20\n        /* \"#utility.yul\":13844:13845   */\n      dup2\n        /* \"#utility.yul\":13840:13852   */\n      add\n        /* \"#utility.yul\":13835:13852   */\n      swap1\n      pop\n        /* \"#utility.yul\":13810:14018   */\n      jump(tag_516)\n    tag_518:\n        /* \"#utility.yul\":14046:14052   */\n      dup7\n        /* \"#utility.yul\":14037:14044   */\n      dup4\n        /* \"#utility.yul\":14034:14053   */\n      lt\n        /* \"#utility.yul\":14031:14210   */\n      iszero\n      tag_519\n      jumpi\n        /* \"#utility.yul\":14104:14113   */\n      dup5\n        /* \"#utility.yul\":14099:14102   */\n      dup10\n        /* \"#utility.yul\":14095:14114   */\n      add\n        /* \"#utility.yul\":14089:14115   */\n      mload\n        /* \"#utility.yul\":14147:14195   */\n      tag_520\n        /* \"#utility.yul\":14189:14193   */\n      0x1f\n        /* \"#utility.yul\":14181:14187   */\n      dup10\n        /* \"#utility.yul\":14177:14194   */\n      and\n        /* \"#utility.yul\":14166:14175   */\n      dup3\n        /* \"#utility.yul\":14147:14195   */\n      tag_312\n      jump\t// in\n    tag_520:\n        /* \"#utility.yul\":14139:14145   */\n      dup4\n        /* \"#utility.yul\":14132:14196   */\n      sstore\n        /* \"#utility.yul\":14054:14210   */\n      pop\n        /* \"#utility.yul\":14031:14210   */\n    tag_519:\n        /* \"#utility.yul\":14256:14257   */\n      0x01\n        /* \"#utility.yul\":14252:14253   */\n      0x02\n        /* \"#utility.yul\":14244:14250   */\n      dup9\n        /* \"#utility.yul\":14240:14254   */\n      mul\n        /* \"#utility.yul\":14236:14258   */\n      add\n        /* \"#utility.yul\":14230:14234   */\n      dup9\n        /* \"#utility.yul\":14223:14259   */\n      sstore\n        /* \"#utility.yul\":13658:14269   */\n      pop\n      pop\n      pop\n        /* \"#utility.yul\":13621:14508   */\n    tag_511:\n      pop\n        /* \"#utility.yul\":13211:14514   */\n      pop\n      pop\n      pop\n        /* \"#utility.yul\":13119:14514   */\n      pop\n      pop\n      jump\t// out\n        /* \"#utility.yul\":14520:14714   */\n    tag_113:\n        /* \"#utility.yul\":14560:14564   */\n      0x00\n        /* \"#utility.yul\":14580:14600   */\n      tag_522\n        /* \"#utility.yul\":14598:14599   */\n      dup3\n        /* \"#utility.yul\":14580:14600   */\n      tag_272\n      jump\t// in\n    tag_522:\n        /* \"#utility.yul\":14575:14600   */\n      swap2\n      pop\n        /* \"#utility.yul\":14614:14634   */\n      tag_523\n        /* \"#utility.yul\":14632:14633   */\n      dup4\n        /* \"#utility.yul\":14614:14634   */\n      tag_272\n      jump\t// in\n    tag_523:\n        /* \"#utility.yul\":14609:14634   */\n      swap3\n      pop\n        /* \"#utility.yul\":14658:14659   */\n      dup3\n        /* \"#utility.yul\":14655:14656   */\n      dup3\n        /* \"#utility.yul\":14651:14660   */\n      sub\n        /* \"#utility.yul\":14643:14660   */\n      swap1\n      pop\n        /* \"#utility.yul\":14682:14683   */\n      dup2\n        /* \"#utility.yul\":14676:14680   */\n      dup2\n        /* \"#utility.yul\":14673:14684   */\n      gt\n        /* \"#utility.yul\":14670:14707   */\n      iszero\n      tag_524\n      jumpi\n        /* \"#utility.yul\":14687:14705   */\n      tag_525\n      tag_298\n      jump\t// in\n    tag_525:\n        /* \"#utility.yul\":14670:14707   */\n    tag_524:\n        /* \"#utility.yul\":14520:14714   */\n      swap3\n      swap2\n      pop\n      pop\n      jump\t// out\n        /* \"#utility.yul\":14720:14838   */\n    tag_314:\n        /* \"#utility.yul\":14807:14831   */\n      tag_527\n        /* \"#utility.yul\":14825:14830   */\n      dup2\n        /* \"#utility.yul\":14807:14831   */\n      tag_272\n      jump\t// in\n    tag_527:\n        /* \"#utility.yul\":14802:14805   */\n      dup3\n        /* \"#utility.yul\":14795:14832   */\n      mstore\n        /* \"#utility.yul\":14720:14838   */\n      pop\n      pop\n      jump\t// out\n        /* \"#utility.yul\":14844:15267   */\n    tag_115:\n        /* \"#utility.yul\":14985:14989   */\n      0x00\n        /* \"#utility.yul\":15023:15025   */\n      0x40\n        /* \"#utility.yul\":15012:15021   */\n      dup3\n        /* \"#utility.yul\":15008:15026   */\n      add\n        /* \"#utility.yul\":15000:15026   */\n      swap1\n      pop\n        /* \"#utility.yul\":15036:15107   */\n      tag_529\n        /* \"#utility.yul\":15104:15105   */\n      0x00\n        /* \"#utility.yul\":15093:15102   */\n      dup4\n        /* \"#utility.yul\":15089:15106   */\n      add\n        /* \"#utility.yul\":15080:15086   */\n      dup6\n        /* \"#utility.yul\":15036:15107   */\n      tag_314\n      jump\t// in\n    tag_529:\n        /* \"#utility.yul\":15154:15163   */\n      dup2\n        /* \"#utility.yul\":15148:15152   */\n      dup2\n        /* \"#utility.yul\":15144:15164   */\n      sub\n        /* \"#utility.yul\":15139:15141   */\n      0x20\n        /* \"#utility.yul\":15128:15137   */\n      dup4\n        /* \"#utility.yul\":15124:15142   */\n      add\n        /* \"#utility.yul\":15117:15165   */\n      mstore\n        /* \"#utility.yul\":15182:15260   */\n      tag_530\n        /* \"#utility.yul\":15255:15259   */\n      dup2\n        /* \"#utility.yul\":15246:15252   */\n      dup5\n        /* \"#utility.yul\":15182:15260   */\n      tag_279\n      jump\t// in\n    tag_530:\n        /* \"#utility.yul\":15174:15260   */\n      swap1\n      pop\n        /* \"#utility.yul\":14844:15267   */\n      swap4\n      swap3\n      pop\n      pop\n      pop\n      jump\t// out\n        /* \"#utility.yul\":15273:15445   */\n    tag_315:\n        /* \"#utility.yul\":15413:15437   */\n      0x4d7573742062652070726f706f736564206f776e657200000000000000000000\n        /* \"#utility.yul\":15409:15410   */\n      0x00\n        /* \"#utility.yul\":15401:15407   */\n      dup3\n        /* \"#utility.yul\":15397:15411   */\n      add\n        /* \"#utility.yul\":15390:15438   */\n      mstore\n        /* \"#utility.yul\":15273:15445   */\n      pop\n      jump\t// out\n        /* \"#utility.yul\":15451:15817   */\n    tag_316:\n        /* \"#utility.yul\":15593:15596   */\n      0x00\n        /* \"#utility.yul\":15614:15681   */\n      tag_533\n        /* \"#utility.yul\":15678:15680   */\n      0x16\n        /* \"#utility.yul\":15673:15676   */\n      dup4\n        /* \"#utility.yul\":15614:15681   */\n      tag_276\n      jump\t// in\n    tag_533:\n        /* \"#utility.yul\":15607:15681   */\n      swap2\n      pop\n        /* \"#utility.yul\":15690:15783   */\n      tag_534\n        /* \"#utility.yul\":15779:15782   */\n      dup3\n        /* \"#utility.yul\":15690:15783   */\n      tag_315\n      jump\t// in\n    tag_534:\n        /* \"#utility.yul\":15808:15810   */\n      0x20\n        /* \"#utility.yul\":15803:15806   */\n      dup3\n        /* \"#utility.yul\":15799:15811   */\n      add\n        /* \"#utility.yul\":15792:15811   */\n      swap1\n      pop\n        /* \"#utility.yul\":15451:15817   */\n      swap2\n      swap1\n      pop\n      jump\t// out\n        /* \"#utility.yul\":15823:16242   */\n    tag_119:\n        /* \"#utility.yul\":15989:15993   */\n      0x00\n        /* \"#utility.yul\":16027:16029   */\n      0x20\n        /* \"#utility.yul\":16016:16025   */\n      dup3\n        /* \"#utility.yul\":16012:16030   */\n      add\n        /* \"#utility.yul\":16004:16030   */\n      swap1\n      pop\n        /* \"#utility.yul\":16076:16085   */\n      dup2\n        /* \"#utility.yul\":16070:16074   */\n      dup2\n        /* \"#utility.yul\":16066:16086   */\n      sub\n        /* \"#utility.yul\":16062:16063   */\n      0x00\n        /* \"#utility.yul\":16051:16060   */\n      dup4\n        /* \"#utility.yul\":16047:16064   */\n      add\n        /* \"#utility.yul\":16040:16087   */\n      mstore\n        /* \"#utility.yul\":16104:16235   */\n      tag_536\n        /* \"#utility.yul\":16230:16234   */\n      dup2\n        /* \"#utility.yul\":16104:16235   */\n      tag_316\n      jump\t// in\n    tag_536:\n        /* \"#utility.yul\":16096:16235   */\n      swap1\n      pop\n        /* \"#utility.yul\":15823:16242   */\n      swap2\n      swap1\n      pop\n      jump\t// out\n        /* \"#utility.yul\":16248:16391   */\n    tag_317:\n        /* \"#utility.yul\":16305:16310   */\n      0x00\n        /* \"#utility.yul\":16336:16342   */\n      dup2\n        /* \"#utility.yul\":16330:16343   */\n      mload\n        /* \"#utility.yul\":16321:16343   */\n      swap1\n      pop\n        /* \"#utility.yul\":16352:16385   */\n      tag_538\n        /* \"#utility.yul\":16379:16384   */\n      dup2\n        /* \"#utility.yul\":16352:16385   */\n      tag_273\n      jump\t// in\n    tag_538:\n        /* \"#utility.yul\":16248:16391   */\n      swap3\n      swap2\n      pop\n      pop\n      jump\t// out\n        /* \"#utility.yul\":16397:16748   */\n    tag_129:\n        /* \"#utility.yul\":16467:16473   */\n      0x00\n        /* \"#utility.yul\":16516:16518   */\n      0x20\n        /* \"#utility.yul\":16504:16513   */\n      dup3\n        /* \"#utility.yul\":16495:16502   */\n      dup5\n        /* \"#utility.yul\":16491:16514   */\n      sub\n        /* \"#utility.yul\":16487:16519   */\n      slt\n        /* \"#utility.yul\":16484:16603   */\n      iszero\n      tag_540\n      jumpi\n        /* \"#utility.yul\":16522:16601   */\n      tag_541\n      tag_270\n      jump\t// in\n    tag_541:\n        /* \"#utility.yul\":16484:16603   */\n    tag_540:\n        /* \"#utility.yul\":16642:16643   */\n      0x00\n        /* \"#utility.yul\":16667:16731   */\n      tag_542\n        /* \"#utility.yul\":16723:16730   */\n      dup5\n        /* \"#utility.yul\":16714:16720   */\n      dup3\n        /* \"#utility.yul\":16703:16712   */\n      dup6\n        /* \"#utility.yul\":16699:16721   */\n      add\n        /* \"#utility.yul\":16667:16731   */\n      tag_317\n      jump\t// in\n    tag_542:\n        /* \"#utility.yul\":16657:16731   */\n      swap2\n      pop\n        /* \"#utility.yul\":16613:16741   */\n      pop\n        /* \"#utility.yul\":16397:16748   */\n      swap3\n      swap2\n      pop\n      pop\n      jump\t// out\n        /* \"#utility.yul\":16754:17086   */\n    tag_131:\n        /* \"#utility.yul\":16875:16879   */\n      0x00\n        /* \"#utility.yul\":16913:16915   */\n      0x40\n        /* \"#utility.yul\":16902:16911   */\n      dup3\n        /* \"#utility.yul\":16898:16916   */\n      add\n        /* \"#utility.yul\":16890:16916   */\n      swap1\n      pop\n        /* \"#utility.yul\":16926:16997   */\n      tag_544\n        /* \"#utility.yul\":16994:16995   */\n      0x00\n        /* \"#utility.yul\":16983:16992   */\n      dup4\n        /* \"#utility.yul\":16979:16996   */\n      add\n        /* \"#utility.yul\":16970:16976   */\n      dup6\n        /* \"#utility.yul\":16926:16997   */\n      tag_268\n      jump\t// in\n    tag_544:\n        /* \"#utility.yul\":17007:17079   */\n      tag_545\n        /* \"#utility.yul\":17075:17077   */\n      0x20\n        /* \"#utility.yul\":17064:17073   */\n      dup4\n        /* \"#utility.yul\":17060:17078   */\n      add\n        /* \"#utility.yul\":17051:17057   */\n      dup5\n        /* \"#utility.yul\":17007:17079   */\n      tag_314\n      jump\t// in\n    tag_545:\n        /* \"#utility.yul\":16754:17086   */\n      swap4\n      swap3\n      pop\n      pop\n      pop\n      jump\t// out\n        /* \"#utility.yul\":17092:17182   */\n    tag_318:\n        /* \"#utility.yul\":17126:17133   */\n      0x00\n        /* \"#utility.yul\":17169:17174   */\n      dup2\n        /* \"#utility.yul\":17162:17175   */\n      iszero\n        /* \"#utility.yul\":17155:17176   */\n      iszero\n        /* \"#utility.yul\":17144:17176   */\n      swap1\n      pop\n        /* \"#utility.yul\":17092:17182   */\n      swap2\n      swap1\n      pop\n      jump\t// out\n        /* \"#utility.yul\":17188:17304   */\n    tag_319:\n        /* \"#utility.yul\":17258:17279   */\n      tag_548\n        /* \"#utility.yul\":17273:17278   */\n      dup2\n        /* \"#utility.yul\":17258:17279   */\n      tag_318\n      jump\t// in\n    tag_548:\n        /* \"#utility.yul\":17251:17256   */\n      dup2\n        /* \"#utility.yul\":17248:17280   */\n      eq\n        /* \"#utility.yul\":17238:17298   */\n      tag_549\n      jumpi\n        /* \"#utility.yul\":17294:17295   */\n      0x00\n        /* \"#utility.yul\":17291:17292   */\n      dup1\n        /* \"#utility.yul\":17284:17296   */\n      revert\n        /* \"#utility.yul\":17238:17298   */\n    tag_549:\n        /* \"#utility.yul\":17188:17304   */\n      pop\n      jump\t// out\n        /* \"#utility.yul\":17310:17447   */\n    tag_320:\n        /* \"#utility.yul\":17364:17369   */\n      0x00\n        /* \"#utility.yul\":17395:17401   */\n      dup2\n        /* \"#utility.yul\":17389:17402   */\n      mload\n        /* \"#utility.yul\":17380:17402   */\n      swap1\n      pop\n        /* \"#utility.yul\":17411:17441   */\n      tag_551\n        /* \"#utility.yul\":17435:17440   */\n      dup2\n        /* \"#utility.yul\":17411:17441   */\n      tag_319\n      jump\t// in\n    tag_551:\n        /* \"#utility.yul\":17310:17447   */\n      swap3\n      swap2\n      pop\n      pop\n      jump\t// out\n        /* \"#utility.yul\":17453:17798   */\n    tag_135:\n        /* \"#utility.yul\":17520:17526   */\n      0x00\n        /* \"#utility.yul\":17569:17571   */\n      0x20\n        /* \"#utility.yul\":17557:17566   */\n      dup3\n        /* \"#utility.yul\":17548:17555   */\n      dup5\n        /* \"#utility.yul\":17544:17567   */\n      sub\n        /* \"#utility.yul\":17540:17572   */\n      slt\n        /* \"#utility.yul\":17537:17656   */\n      iszero\n      tag_553\n      jumpi\n        /* \"#utility.yul\":17575:17654   */\n      tag_554\n      tag_270\n      jump\t// in\n    tag_554:\n        /* \"#utility.yul\":17537:17656   */\n    tag_553:\n        /* \"#utility.yul\":17695:17696   */\n      0x00\n        /* \"#utility.yul\":17720:17781   */\n      tag_555\n        /* \"#utility.yul\":17773:17780   */\n      dup5\n        /* \"#utility.yul\":17764:17770   */\n      dup3\n        /* \"#utility.yul\":17753:17762   */\n      dup6\n        /* \"#utility.yul\":17749:17771   */\n      add\n        /* \"#utility.yul\":17720:17781   */\n      tag_320\n      jump\t// in\n    tag_555:\n        /* \"#utility.yul\":17710:17781   */\n      swap2\n      pop\n        /* \"#utility.yul\":17666:17791   */\n      pop\n        /* \"#utility.yul\":17453:17798   */\n      swap3\n      swap2\n      pop\n      pop\n      jump\t// out\n        /* \"#utility.yul\":17804:17972   */\n    tag_321:\n        /* \"#utility.yul\":17944:17964   */\n      0x556e61626c6520746f207472616e736665720000000000000000000000000000\n        /* \"#utility.yul\":17940:17941   */\n      0x00\n        /* \"#utility.yul\":17932:17938   */\n      dup3\n        /* \"#utility.yul\":17928:17942   */\n      add\n        /* \"#utility.yul\":17921:17965   */\n      mstore\n        /* \"#utility.yul\":17804:17972   */\n      pop\n      jump\t// out\n        /* \"#utility.yul\":17978:18344   */\n    tag_322:\n        /* \"#utility.yul\":18120:18123   */\n      0x00\n        /* \"#utility.yul\":18141:18208   */\n      tag_558\n        /* \"#utility.yul\":18205:18207   */\n      0x12\n        /* \"#utility.yul\":18200:18203   */\n      dup4\n        /* \"#utility.yul\":18141:18208   */\n      tag_276\n      jump\t// in\n    tag_558:\n        /* \"#utility.yul\":18134:18208   */\n      swap2\n      pop\n        /* \"#utility.yul\":18217:18310   */\n      tag_559\n        /* \"#utility.yul\":18306:18309   */\n      dup3\n        /* \"#utility.yul\":18217:18310   */\n      tag_321\n      jump\t// in\n    tag_559:\n        /* \"#utility.yul\":18335:18337   */\n      0x20\n        /* \"#utility.yul\":18330:18333   */\n      dup3\n        /* \"#utility.yul\":18326:18338   */\n      add\n        /* \"#utility.yul\":18319:18338   */\n      swap1\n      pop\n        /* \"#utility.yul\":17978:18344   */\n      swap2\n      swap1\n      pop\n      jump\t// out\n        /* \"#utility.yul\":18350:18769   */\n    tag_138:\n        /* \"#utility.yul\":18516:18520   */\n      0x00\n        /* \"#utility.yul\":18554:18556   */\n      0x20\n        /* \"#utility.yul\":18543:18552   */\n      dup3\n        /* \"#utility.yul\":18539:18557   */\n      add\n        /* \"#utility.yul\":18531:18557   */\n      swap1\n      pop\n        /* \"#utility.yul\":18603:18612   */\n      dup2\n        /* \"#utility.yul\":18597:18601   */\n      dup2\n        /* \"#utility.yul\":18593:18613   */\n      sub\n        /* \"#utility.yul\":18589:18590   */\n      0x00\n        /* \"#utility.yul\":18578:18587   */\n      dup4\n        /* \"#utility.yul\":18574:18591   */\n      add\n        /* \"#utility.yul\":18567:18614   */\n      mstore\n        /* \"#utility.yul\":18631:18762   */\n      tag_561\n        /* \"#utility.yul\":18757:18761   */\n      dup2\n        /* \"#utility.yul\":18631:18762   */\n      tag_322\n      jump\t// in\n    tag_561:\n        /* \"#utility.yul\":18623:18762   */\n      swap1\n      pop\n        /* \"#utility.yul\":18350:18769   */\n      swap2\n      swap1\n      pop\n      jump\t// out\n        /* \"#utility.yul\":18775:18948   */\n    tag_323:\n        /* \"#utility.yul\":18915:18940   */\n      0x4a6f6220696e646578206f7574206f6620626f756e6473000000000000000000\n        /* \"#utility.yul\":18911:18912   */\n      0x00\n        /* \"#utility.yul\":18903:18909   */\n      dup3\n        /* \"#utility.yul\":18899:18913   */\n      add\n        /* \"#utility.yul\":18892:18941   */\n      mstore\n        /* \"#utility.yul\":18775:18948   */\n      pop\n      jump\t// out\n        /* \"#utility.yul\":18954:19320   */\n    tag_324:\n        /* \"#utility.yul\":19096:19099   */\n      0x00\n        /* \"#utility.yul\":19117:19184   */\n      tag_564\n        /* \"#utility.yul\":19181:19183   */\n      0x17\n        /* \"#utility.yul\":19176:19179   */\n      dup4\n        /* \"#utility.yul\":19117:19184   */\n      tag_276\n      jump\t// in\n    tag_564:\n        /* \"#utility.yul\":19110:19184   */\n      swap2\n      pop\n        /* \"#utility.yul\":19193:19286   */\n      tag_565\n        /* \"#utility.yul\":19282:19285   */\n      dup3\n        /* \"#utility.yul\":19193:19286   */\n      tag_323\n      jump\t// in\n    tag_565:\n        /* \"#utility.yul\":19311:19313   */\n      0x20\n        /* \"#utility.yul\":19306:19309   */\n      dup3\n        /* \"#utility.yul\":19302:19314   */\n      add\n        /* \"#utility.yul\":19295:19314   */\n      swap1\n      pop\n        /* \"#utility.yul\":18954:19320   */\n      swap2\n      swap1\n      pop\n      jump\t// out\n        /* \"#utility.yul\":19326:19745   */\n    tag_144:\n        /* \"#utility.yul\":19492:19496   */\n      0x00\n        /* \"#utility.yul\":19530:19532   */\n      0x20\n        /* \"#utility.yul\":19519:19528   */\n      dup3\n        /* \"#utility.yul\":19515:19533   */\n      add\n        /* \"#utility.yul\":19507:19533   */\n      swap1\n      pop\n        /* \"#utility.yul\":19579:19588   */\n      dup2\n        /* \"#utility.yul\":19573:19577   */\n      dup2\n        /* \"#utility.yul\":19569:19589   */\n      sub\n        /* \"#utility.yul\":19565:19566   */\n      0x00\n        /* \"#utility.yul\":19554:19563   */\n      dup4\n        /* \"#utility.yul\":19550:19567   */\n      add\n        /* \"#utility.yul\":19543:19590   */\n      mstore\n        /* \"#utility.yul\":19607:19738   */\n      tag_567\n        /* \"#utility.yul\":19733:19737   */\n      dup2\n        /* \"#utility.yul\":19607:19738   */\n      tag_324\n      jump\t// in\n    tag_567:\n        /* \"#utility.yul\":19599:19738   */\n      swap1\n      pop\n        /* \"#utility.yul\":19326:19745   */\n      swap2\n      swap1\n      pop\n      jump\t// out\n        /* \"#utility.yul\":19751:19900   */\n    tag_325:\n        /* \"#utility.yul\":19800:19806   */\n      0x00\n        /* \"#utility.yul\":19834:19839   */\n      dup2\n        /* \"#utility.yul\":19828:19840   */\n      sload\n        /* \"#utility.yul\":19818:19840   */\n      swap1\n      pop\n        /* \"#utility.yul\":19860:19893   */\n      tag_569\n        /* \"#utility.yul\":19886:19892   */\n      dup2\n        /* \"#utility.yul\":19860:19893   */\n      tag_78\n      jump\t// in\n    tag_569:\n        /* \"#utility.yul\":19850:19893   */\n      swap1\n      pop\n        /* \"#utility.yul\":19751:19900   */\n      swap2\n      swap1\n      pop\n      jump\t// out\n        /* \"#utility.yul\":19906:21357   */\n    tag_153:\n        /* \"#utility.yul\":20017:20020   */\n      dup2\n        /* \"#utility.yul\":20011:20015   */\n      dup2\n        /* \"#utility.yul\":20008:20021   */\n      sub\n        /* \"#utility.yul\":20005:20031   */\n      tag_571\n      jumpi\n        /* \"#utility.yul\":20024:20029   */\n      pop\n      pop\n      jump(tag_570)\n        /* \"#utility.yul\":20005:20031   */\n    tag_571:\n        /* \"#utility.yul\":20055:20089   */\n      tag_572\n        /* \"#utility.yul\":20085:20088   */\n      dup3\n        /* \"#utility.yul\":20055:20089   */\n      tag_325\n      jump\t// in\n    tag_572:\n        /* \"#utility.yul\":20154:20172   */\n      0xffffffffffffffff\n        /* \"#utility.yul\":20146:20152   */\n      dup2\n        /* \"#utility.yul\":20143:20173   */\n      gt\n        /* \"#utility.yul\":20140:20196   */\n      iszero\n      tag_573\n      jumpi\n        /* \"#utility.yul\":20176:20194   */\n      tag_574\n      tag_282\n      jump\t// in\n    tag_574:\n        /* \"#utility.yul\":20140:20196   */\n    tag_573:\n        /* \"#utility.yul\":20220:20258   */\n      tag_575\n        /* \"#utility.yul\":20252:20256   */\n      dup3\n        /* \"#utility.yul\":20246:20257   */\n      sload\n        /* \"#utility.yul\":20220:20258   */\n      tag_78\n      jump\t// in\n    tag_575:\n        /* \"#utility.yul\":20305:20372   */\n      tag_576\n        /* \"#utility.yul\":20365:20371   */\n      dup3\n        /* \"#utility.yul\":20357:20363   */\n      dup3\n        /* \"#utility.yul\":20351:20355   */\n      dup6\n        /* \"#utility.yul\":20305:20372   */\n      tag_310\n      jump\t// in\n    tag_576:\n        /* \"#utility.yul\":20399:20400   */\n      0x00\n        /* \"#utility.yul\":20428:20430   */\n      0x1f\n        /* \"#utility.yul\":20420:20426   */\n      dup4\n        /* \"#utility.yul\":20417:20431   */\n      gt\n        /* \"#utility.yul\":20445:20446   */\n      0x01\n        /* \"#utility.yul\":20440:21112   */\n      dup2\n      eq\n      tag_578\n      jumpi\n        /* \"#utility.yul\":21156:21157   */\n      0x00\n        /* \"#utility.yul\":21173:21179   */\n      dup5\n        /* \"#utility.yul\":21170:21247   */\n      iszero\n      tag_579\n      jumpi\n        /* \"#utility.yul\":21222:21231   */\n      dup3\n        /* \"#utility.yul\":21217:21220   */\n      dup8\n        /* \"#utility.yul\":21213:21232   */\n      add\n        /* \"#utility.yul\":21207:21233   */\n      sload\n        /* \"#utility.yul\":21198:21233   */\n      swap1\n      pop\n        /* \"#utility.yul\":21170:21247   */\n    tag_579:\n        /* \"#utility.yul\":21273:21340   */\n      tag_580\n        /* \"#utility.yul\":21333:21339   */\n      dup6\n        /* \"#utility.yul\":21326:21331   */\n      dup3\n        /* \"#utility.yul\":21273:21340   */\n      tag_313\n      jump\t// in\n    tag_580:\n        /* \"#utility.yul\":21267:21271   */\n      dup7\n        /* \"#utility.yul\":21260:21341   */\n      sstore\n        /* \"#utility.yul\":21129:21351   */\n      pop\n        /* \"#utility.yul\":20410:21351   */\n      jump(tag_577)\n        /* \"#utility.yul\":20440:21112   */\n    tag_578:\n        /* \"#utility.yul\":20492:20496   */\n      0x1f\n        /* \"#utility.yul\":20488:20497   */\n      not\n        /* \"#utility.yul\":20480:20486   */\n      dup5\n        /* \"#utility.yul\":20476:20498   */\n      and\n        /* \"#utility.yul\":20518:20554   */\n      tag_581\n        /* \"#utility.yul\":20550:20553   */\n      dup8\n        /* \"#utility.yul\":20518:20554   */\n      tag_299\n      jump\t// in\n    tag_581:\n        /* \"#utility.yul\":20511:20554   */\n      swap7\n      pop\n        /* \"#utility.yul\":20581:20618   */\n      tag_582\n        /* \"#utility.yul\":20613:20617   */\n      dup7\n        /* \"#utility.yul\":20581:20618   */\n      tag_299\n      jump\t// in\n    tag_582:\n        /* \"#utility.yul\":20640:20641   */\n      0x00\n        /* \"#utility.yul\":20654:20861   */\n    tag_583:\n        /* \"#utility.yul\":20668:20675   */\n      dup3\n        /* \"#utility.yul\":20665:20666   */\n      dup2\n        /* \"#utility.yul\":20662:20676   */\n      lt\n        /* \"#utility.yul\":20654:20861   */\n      iszero\n      tag_585\n      jumpi\n        /* \"#utility.yul\":20747:20756   */\n      dup5\n        /* \"#utility.yul\":20742:20745   */\n      dup10\n        /* \"#utility.yul\":20738:20757   */\n      add\n        /* \"#utility.yul\":20732:20758   */\n      sload\n        /* \"#utility.yul\":20724:20730   */\n      dup3\n        /* \"#utility.yul\":20717:20759   */\n      sstore\n        /* \"#utility.yul\":20798:20799   */\n      0x01\n        /* \"#utility.yul\":20790:20796   */\n      dup3\n        /* \"#utility.yul\":20786:20800   */\n      add\n        /* \"#utility.yul\":20776:20800   */\n      swap2\n      pop\n        /* \"#utility.yul\":20845:20846   */\n      0x01\n        /* \"#utility.yul\":20834:20843   */\n      dup6\n        /* \"#utility.yul\":20830:20847   */\n      add\n        /* \"#utility.yul\":20817:20847   */\n      swap5\n      pop\n        /* \"#utility.yul\":20691:20695   */\n      0x20\n        /* \"#utility.yul\":20688:20689   */\n      dup2\n        /* \"#utility.yul\":20684:20696   */\n      add\n        /* \"#utility.yul\":20679:20696   */\n      swap1\n      pop\n        /* \"#utility.yul\":20654:20861   */\n      jump(tag_583)\n    tag_585:\n        /* \"#utility.yul\":20889:20895   */\n      dup7\n        /* \"#utility.yul\":20880:20887   */\n      dup4\n        /* \"#utility.yul\":20877:20896   */\n      lt\n        /* \"#utility.yul\":20874:21053   */\n      iszero\n      tag_586\n      jumpi\n        /* \"#utility.yul\":20947:20956   */\n      dup5\n        /* \"#utility.yul\":20942:20945   */\n      dup10\n        /* \"#utility.yul\":20938:20957   */\n      add\n        /* \"#utility.yul\":20932:20958   */\n      sload\n        /* \"#utility.yul\":20990:21038   */\n      tag_587\n        /* \"#utility.yul\":21032:21036   */\n      0x1f\n        /* \"#utility.yul\":21024:21030   */\n      dup10\n        /* \"#utility.yul\":21020:21037   */\n      and\n        /* \"#utility.yul\":21009:21018   */\n      dup3\n        /* \"#utility.yul\":20990:21038   */\n      tag_312\n      jump\t// in\n    tag_587:\n        /* \"#utility.yul\":20982:20988   */\n      dup4\n        /* \"#utility.yul\":20975:21039   */\n      sstore\n        /* \"#utility.yul\":20897:21053   */\n      pop\n        /* \"#utility.yul\":20874:21053   */\n    tag_586:\n        /* \"#utility.yul\":21099:21100   */\n      0x01\n        /* \"#utility.yul\":21095:21096   */\n      0x02\n        /* \"#utility.yul\":21087:21093   */\n      dup9\n        /* \"#utility.yul\":21083:21097   */\n      mul\n        /* \"#utility.yul\":21079:21101   */\n      add\n        /* \"#utility.yul\":21073:21077   */\n      dup9\n        /* \"#utility.yul\":21066:21102   */\n      sstore\n        /* \"#utility.yul\":20447:21112   */\n      pop\n      pop\n      pop\n        /* \"#utility.yul\":20410:21351   */\n    tag_577:\n      pop\n        /* \"#utility.yul\":19995:21357   */\n      pop\n      pop\n      pop\n        /* \"#utility.yul\":19906:21357   */\n      pop\n      pop\n    tag_570:\n      jump\t// out\n        /* \"#utility.yul\":21363:21543   */\n    tag_156:\n        /* \"#utility.yul\":21411:21488   */\n      0x4e487b7100000000000000000000000000000000000000000000000000000000\n        /* \"#utility.yul\":21408:21409   */\n      0x00\n        /* \"#utility.yul\":21401:21489   */\n      mstore\n        /* \"#utility.yul\":21508:21512   */\n      0x31\n        /* \"#utility.yul\":21505:21506   */\n      0x04\n        /* \"#utility.yul\":21498:21513   */\n      mstore\n        /* \"#utility.yul\":21532:21536   */\n      0x24\n        /* \"#utility.yul\":21529:21530   */\n      0x00\n        /* \"#utility.yul\":21522:21537   */\n      revert\n        /* \"#utility.yul\":21549:21771   */\n    tag_161:\n        /* \"#utility.yul\":21642:21646   */\n      0x00\n        /* \"#utility.yul\":21680:21682   */\n      0x20\n        /* \"#utility.yul\":21669:21678   */\n      dup3\n        /* \"#utility.yul\":21665:21683   */\n      add\n        /* \"#utility.yul\":21657:21683   */\n      swap1\n      pop\n        /* \"#utility.yul\":21693:21764   */\n      tag_590\n        /* \"#utility.yul\":21761:21762   */\n      0x00\n        /* \"#utility.yul\":21750:21759   */\n      dup4\n        /* \"#utility.yul\":21746:21763   */\n      add\n        /* \"#utility.yul\":21737:21743   */\n      dup5\n        /* \"#utility.yul\":21693:21764   */\n      tag_314\n      jump\t// in\n    tag_590:\n        /* \"#utility.yul\":21549:21771   */\n      swap3\n      swap2\n      pop\n      pop\n      jump\t// out\n        /* \"#utility.yul\":21777:22004   */\n    tag_326:\n        /* \"#utility.yul\":21917:21951   */\n      0x536f75726365206d75737420626520746865206f7261636c65206f6620746865\n        /* \"#utility.yul\":21913:21914   */\n      0x00\n        /* \"#utility.yul\":21905:21911   */\n      dup3\n        /* \"#utility.yul\":21901:21915   */\n      add\n        /* \"#utility.yul\":21894:21952   */\n      mstore\n        /* \"#utility.yul\":21986:21996   */\n      0x2072657175657374000000000000000000000000000000000000000000000000\n        /* \"#utility.yul\":21981:21983   */\n      0x20\n        /* \"#utility.yul\":21973:21979   */\n      dup3\n        /* \"#utility.yul\":21969:21984   */\n      add\n        /* \"#utility.yul\":21962:21997   */\n      mstore\n        /* \"#utility.yul\":21777:22004   */\n      pop\n      jump\t// out\n        /* \"#utility.yul\":22010:22376   */\n    tag_327:\n        /* \"#utility.yul\":22152:22155   */\n      0x00\n        /* \"#utility.yul\":22173:22240   */\n      tag_593\n        /* \"#utility.yul\":22237:22239   */\n      0x28\n        /* \"#utility.yul\":22232:22235   */\n      dup4\n        /* \"#utility.yul\":22173:22240   */\n      tag_276\n      jump\t// in\n    tag_593:\n        /* \"#utility.yul\":22166:22240   */\n      swap2\n      pop\n        /* \"#utility.yul\":22249:22342   */\n      tag_594\n        /* \"#utility.yul\":22338:22341   */\n      dup3\n        /* \"#utility.yul\":22249:22342   */\n      tag_326\n      jump\t// in\n    tag_594:\n        /* \"#utility.yul\":22367:22369   */\n      0x40\n        /* \"#utility.yul\":22362:22365   */\n      dup3\n        /* \"#utility.yul\":22358:22370   */\n      add\n        /* \"#utility.yul\":22351:22370   */\n      swap1\n      pop\n        /* \"#utility.yul\":22010:22376   */\n      swap2\n      swap1\n      pop\n      jump\t// out\n        /* \"#utility.yul\":22382:22801   */\n    tag_175:\n        /* \"#utility.yul\":22548:22552   */\n      0x00\n        /* \"#utility.yul\":22586:22588   */\n      0x20\n        /* \"#utility.yul\":22575:22584   */\n      dup3\n        /* \"#utility.yul\":22571:22589   */\n      add\n        /* \"#utility.yul\":22563:22589   */\n      swap1\n      pop\n        /* \"#utility.yul\":22635:22644   */\n      dup2\n        /* \"#utility.yul\":22629:22633   */\n      dup2\n        /* \"#utility.yul\":22625:22645   */\n      sub\n        /* \"#utility.yul\":22621:22622   */\n      0x00\n        /* \"#utility.yul\":22610:22619   */\n      dup4\n        /* \"#utility.yul\":22606:22623   */\n      add\n        /* \"#utility.yul\":22599:22646   */\n      mstore\n        /* \"#utility.yul\":22663:22794   */\n      tag_596\n        /* \"#utility.yul\":22789:22793   */\n      dup2\n        /* \"#utility.yul\":22663:22794   */\n      tag_327\n      jump\t// in\n    tag_596:\n        /* \"#utility.yul\":22655:22794   */\n      swap1\n      pop\n        /* \"#utility.yul\":22382:22801   */\n      swap2\n      swap1\n      pop\n      jump\t// out\n        /* \"#utility.yul\":22807:23217   */\n    tag_201:\n        /* \"#utility.yul\":22847:22854   */\n      0x00\n        /* \"#utility.yul\":22870:22890   */\n      tag_598\n        /* \"#utility.yul\":22888:22889   */\n      dup3\n        /* \"#utility.yul\":22870:22890   */\n      tag_272\n      jump\t// in\n    tag_598:\n        /* \"#utility.yul\":22865:22890   */\n      swap2\n      pop\n        /* \"#utility.yul\":22904:22924   */\n      tag_599\n        /* \"#utility.yul\":22922:22923   */\n      dup4\n        /* \"#utility.yul\":22904:22924   */\n      tag_272\n      jump\t// in\n    tag_599:\n        /* \"#utility.yul\":22899:22924   */\n      swap3\n      pop\n        /* \"#utility.yul\":22959:22960   */\n      dup3\n        /* \"#utility.yul\":22956:22957   */\n      dup3\n        /* \"#utility.yul\":22952:22961   */\n      mul\n        /* \"#utility.yul\":22981:23011   */\n      tag_600\n        /* \"#utility.yul\":22999:23010   */\n      dup2\n        /* \"#utility.yul\":22981:23011   */\n      tag_272\n      jump\t// in\n    tag_600:\n        /* \"#utility.yul\":22970:23011   */\n      swap2\n      pop\n        /* \"#utility.yul\":23160:23161   */\n      dup3\n        /* \"#utility.yul\":23151:23158   */\n      dup3\n        /* \"#utility.yul\":23147:23162   */\n      div\n        /* \"#utility.yul\":23144:23145   */\n      dup5\n        /* \"#utility.yul\":23141:23163   */\n      eq\n        /* \"#utility.yul\":23121:23122   */\n      dup4\n        /* \"#utility.yul\":23114:23123   */\n      iszero\n        /* \"#utility.yul\":23094:23177   */\n      or\n        /* \"#utility.yul\":23071:23210   */\n      tag_601\n      jumpi\n        /* \"#utility.yul\":23190:23208   */\n      tag_602\n      tag_298\n      jump\t// in\n    tag_602:\n        /* \"#utility.yul\":23071:23210   */\n    tag_601:\n        /* \"#utility.yul\":22855:23217   */\n      pop\n        /* \"#utility.yul\":22807:23217   */\n      swap3\n      swap2\n      pop\n      pop\n      jump\t// out\n        /* \"#utility.yul\":23223:23403   */\n    tag_328:\n        /* \"#utility.yul\":23271:23348   */\n      0x4e487b7100000000000000000000000000000000000000000000000000000000\n        /* \"#utility.yul\":23268:23269   */\n      0x00\n        /* \"#utility.yul\":23261:23349   */\n      mstore\n        /* \"#utility.yul\":23368:23372   */\n      0x12\n        /* \"#utility.yul\":23365:23366   */\n      0x04\n        /* \"#utility.yul\":23358:23373   */\n      mstore\n        /* \"#utility.yul\":23392:23396   */\n      0x24\n        /* \"#utility.yul\":23389:23390   */\n      0x00\n        /* \"#utility.yul\":23382:23397   */\n      revert\n        /* \"#utility.yul\":23409:23594   */\n    tag_203:\n        /* \"#utility.yul\":23449:23450   */\n      0x00\n        /* \"#utility.yul\":23466:23486   */\n      tag_605\n        /* \"#utility.yul\":23484:23485   */\n      dup3\n        /* \"#utility.yul\":23466:23486   */\n      tag_272\n      jump\t// in\n    tag_605:\n        /* \"#utility.yul\":23461:23486   */\n      swap2\n      pop\n        /* \"#utility.yul\":23500:23520   */\n      tag_606\n        /* \"#utility.yul\":23518:23519   */\n      dup4\n        /* \"#utility.yul\":23500:23520   */\n      tag_272\n      jump\t// in\n    tag_606:\n        /* \"#utility.yul\":23495:23520   */\n      swap3\n      pop\n        /* \"#utility.yul\":23539:23540   */\n      dup3\n        /* \"#utility.yul\":23529:23564   */\n      tag_607\n      jumpi\n        /* \"#utility.yul\":23544:23562   */\n      tag_608\n      tag_328\n      jump\t// in\n    tag_608:\n        /* \"#utility.yul\":23529:23564   */\n    tag_607:\n        /* \"#utility.yul\":23586:23587   */\n      dup3\n        /* \"#utility.yul\":23583:23584   */\n      dup3\n        /* \"#utility.yul\":23579:23588   */\n      div\n        /* \"#utility.yul\":23574:23588   */\n      swap1\n      pop\n        /* \"#utility.yul\":23409:23594   */\n      swap3\n      swap2\n      pop\n      pop\n      jump\t// out\n        /* \"#utility.yul\":23600:23772   */\n    tag_329:\n        /* \"#utility.yul\":23740:23764   */\n      0x4f6e6c792063616c6c61626c65206279206f776e657200000000000000000000\n        /* \"#utility.yul\":23736:23737   */\n      0x00\n        /* \"#utility.yul\":23728:23734   */\n      dup3\n        /* \"#utility.yul\":23724:23738   */\n      add\n        /* \"#utility.yul\":23717:23765   */\n      mstore\n        /* \"#utility.yul\":23600:23772   */\n      pop\n      jump\t// out\n        /* \"#utility.yul\":23778:24144   */\n    tag_330:\n        /* \"#utility.yul\":23920:23923   */\n      0x00\n        /* \"#utility.yul\":23941:24008   */\n      tag_611\n        /* \"#utility.yul\":24005:24007   */\n      0x16\n        /* \"#utility.yul\":24000:24003   */\n      dup4\n        /* \"#utility.yul\":23941:24008   */\n      tag_276\n      jump\t// in\n    tag_611:\n        /* \"#utility.yul\":23934:24008   */\n      swap2\n      pop\n        /* \"#utility.yul\":24017:24110   */\n      tag_612\n        /* \"#utility.yul\":24106:24109   */\n      dup3\n        /* \"#utility.yul\":24017:24110   */\n      tag_329\n      jump\t// in\n    tag_612:\n        /* \"#utility.yul\":24135:24137   */\n      0x20\n        /* \"#utility.yul\":24130:24133   */\n      dup3\n        /* \"#utility.yul\":24126:24138   */\n      add\n        /* \"#utility.yul\":24119:24138   */\n      swap1\n      pop\n        /* \"#utility.yul\":23778:24144   */\n      swap2\n      swap1\n      pop\n      jump\t// out\n        /* \"#utility.yul\":24150:24569   */\n    tag_208:\n        /* \"#utility.yul\":24316:24320   */\n      0x00\n        /* \"#utility.yul\":24354:24356   */\n      0x20\n        /* \"#utility.yul\":24343:24352   */\n      dup3\n        /* \"#utility.yul\":24339:24357   */\n      add\n        /* \"#utility.yul\":24331:24357   */\n      swap1\n      pop\n        /* \"#utility.yul\":24403:24412   */\n      dup2\n        /* \"#utility.yul\":24397:24401   */\n      dup2\n        /* \"#utility.yul\":24393:24413   */\n      sub\n        /* \"#utility.yul\":24389:24390   */\n      0x00\n        /* \"#utility.yul\":24378:24387   */\n      dup4\n        /* \"#utility.yul\":24374:24391   */\n      add\n        /* \"#utility.yul\":24367:24414   */\n      mstore\n        /* \"#utility.yul\":24431:24562   */\n      tag_614\n        /* \"#utility.yul\":24557:24561   */\n      dup2\n        /* \"#utility.yul\":24431:24562   */\n      tag_330\n      jump\t// in\n    tag_614:\n        /* \"#utility.yul\":24423:24562   */\n      swap1\n      pop\n        /* \"#utility.yul\":24150:24569   */\n      swap2\n      swap1\n      pop\n      jump\t// out\n        /* \"#utility.yul\":24575:24693   */\n    tag_331:\n        /* \"#utility.yul\":24662:24686   */\n      tag_616\n        /* \"#utility.yul\":24680:24685   */\n      dup2\n        /* \"#utility.yul\":24662:24686   */\n      tag_289\n      jump\t// in\n    tag_616:\n        /* \"#utility.yul\":24657:24660   */\n      dup3\n        /* \"#utility.yul\":24650:24687   */\n      mstore\n        /* \"#utility.yul\":24575:24693   */\n      pop\n      pop\n      jump\t// out\n        /* \"#utility.yul\":24699:24814   */\n    tag_332:\n        /* \"#utility.yul\":24784:24807   */\n      tag_618\n        /* \"#utility.yul\":24801:24806   */\n      dup2\n        /* \"#utility.yul\":24784:24807   */\n      tag_292\n      jump\t// in\n    tag_618:\n        /* \"#utility.yul\":24779:24782   */\n      dup3\n        /* \"#utility.yul\":24772:24808   */\n      mstore\n        /* \"#utility.yul\":24699:24814   */\n      pop\n      pop\n      jump\t// out\n        /* \"#utility.yul\":24820:25369   */\n    tag_211:\n        /* \"#utility.yul\":24995:24999   */\n      0x00\n        /* \"#utility.yul\":25033:25036   */\n      0x80\n        /* \"#utility.yul\":25022:25031   */\n      dup3\n        /* \"#utility.yul\":25018:25037   */\n      add\n        /* \"#utility.yul\":25010:25037   */\n      swap1\n      pop\n        /* \"#utility.yul\":25047:25118   */\n      tag_620\n        /* \"#utility.yul\":25115:25116   */\n      0x00\n        /* \"#utility.yul\":25104:25113   */\n      dup4\n        /* \"#utility.yul\":25100:25117   */\n      add\n        /* \"#utility.yul\":25091:25097   */\n      dup8\n        /* \"#utility.yul\":25047:25118   */\n      tag_331\n      jump\t// in\n    tag_620:\n        /* \"#utility.yul\":25128:25200   */\n      tag_621\n        /* \"#utility.yul\":25196:25198   */\n      0x20\n        /* \"#utility.yul\":25185:25194   */\n      dup4\n        /* \"#utility.yul\":25181:25199   */\n      add\n        /* \"#utility.yul\":25172:25178   */\n      dup7\n        /* \"#utility.yul\":25128:25200   */\n      tag_314\n      jump\t// in\n    tag_621:\n        /* \"#utility.yul\":25210:25280   */\n      tag_622\n        /* \"#utility.yul\":25276:25278   */\n      0x40\n        /* \"#utility.yul\":25265:25274   */\n      dup4\n        /* \"#utility.yul\":25261:25279   */\n      add\n        /* \"#utility.yul\":25252:25258   */\n      dup6\n        /* \"#utility.yul\":25210:25280   */\n      tag_332\n      jump\t// in\n    tag_622:\n        /* \"#utility.yul\":25290:25362   */\n      tag_623\n        /* \"#utility.yul\":25358:25360   */\n      0x60\n        /* \"#utility.yul\":25347:25356   */\n      dup4\n        /* \"#utility.yul\":25343:25361   */\n      add\n        /* \"#utility.yul\":25334:25340   */\n      dup5\n        /* \"#utility.yul\":25290:25362   */\n      tag_314\n      jump\t// in\n    tag_623:\n        /* \"#utility.yul\":24820:25369   */\n      swap6\n      swap5\n      pop\n      pop\n      pop\n      pop\n      pop\n      jump\t// out\n        /* \"#utility.yul\":25375:25548   */\n    tag_333:\n        /* \"#utility.yul\":25515:25540   */\n      0x43616e6e6f74207472616e7366657220746f2073656c66000000000000000000\n        /* \"#utility.yul\":25511:25512   */\n      0x00\n        /* \"#utility.yul\":25503:25509   */\n      dup3\n        /* \"#utility.yul\":25499:25513   */\n      add\n        /* \"#utility.yul\":25492:25541   */\n      mstore\n        /* \"#utility.yul\":25375:25548   */\n      pop\n      jump\t// out\n        /* \"#utility.yul\":25554:25920   */\n    tag_334:\n        /* \"#utility.yul\":25696:25699   */\n      0x00\n        /* \"#utility.yul\":25717:25784   */\n      tag_626\n        /* \"#utility.yul\":25781:25783   */\n      0x17\n        /* \"#utility.yul\":25776:25779   */\n      dup4\n        /* \"#utility.yul\":25717:25784   */\n      tag_276\n      jump\t// in\n    tag_626:\n        /* \"#utility.yul\":25710:25784   */\n      swap2\n      pop\n        /* \"#utility.yul\":25793:25886   */\n      tag_627\n        /* \"#utility.yul\":25882:25885   */\n      dup3\n        /* \"#utility.yul\":25793:25886   */\n      tag_333\n      jump\t// in\n    tag_627:\n        /* \"#utility.yul\":25911:25913   */\n      0x20\n        /* \"#utility.yul\":25906:25909   */\n      dup3\n        /* \"#utility.yul\":25902:25914   */\n      add\n        /* \"#utility.yul\":25895:25914   */\n      swap1\n      pop\n        /* \"#utility.yul\":25554:25920   */\n      swap2\n      swap1\n      pop\n      jump\t// out\n        /* \"#utility.yul\":25926:26345   */\n    tag_218:\n        /* \"#utility.yul\":26092:26096   */\n      0x00\n        /* \"#utility.yul\":26130:26132   */\n      0x20\n        /* \"#utility.yul\":26119:26128   */\n      dup3\n        /* \"#utility.yul\":26115:26133   */\n      add\n        /* \"#utility.yul\":26107:26133   */\n      swap1\n      pop\n        /* \"#utility.yul\":26179:26188   */\n      dup2\n        /* \"#utility.yul\":26173:26177   */\n      dup2\n        /* \"#utility.yul\":26169:26189   */\n      sub\n        /* \"#utility.yul\":26165:26166   */\n      0x00\n        /* \"#utility.yul\":26154:26163   */\n      dup4\n        /* \"#utility.yul\":26150:26167   */\n      add\n        /* \"#utility.yul\":26143:26190   */\n      mstore\n        /* \"#utility.yul\":26207:26338   */\n      tag_629\n        /* \"#utility.yul\":26333:26337   */\n      dup2\n        /* \"#utility.yul\":26207:26338   */\n      tag_334\n      jump\t// in\n    tag_629:\n        /* \"#utility.yul\":26199:26338   */\n      swap1\n      pop\n        /* \"#utility.yul\":25926:26345   */\n      swap2\n      swap1\n      pop\n      jump\t// out\n        /* \"#utility.yul\":26351:26542   */\n    tag_229:\n        /* \"#utility.yul\":26391:26394   */\n      0x00\n        /* \"#utility.yul\":26410:26430   */\n      tag_631\n        /* \"#utility.yul\":26428:26429   */\n      dup3\n        /* \"#utility.yul\":26410:26430   */\n      tag_272\n      jump\t// in\n    tag_631:\n        /* \"#utility.yul\":26405:26430   */\n      swap2\n      pop\n        /* \"#utility.yul\":26444:26464   */\n      tag_632\n        /* \"#utility.yul\":26462:26463   */\n      dup4\n        /* \"#utility.yul\":26444:26464   */\n      tag_272\n      jump\t// in\n    tag_632:\n        /* \"#utility.yul\":26439:26464   */\n      swap3\n      pop\n        /* \"#utility.yul\":26487:26488   */\n      dup3\n        /* \"#utility.yul\":26484:26485   */\n      dup3\n        /* \"#utility.yul\":26480:26489   */\n      add\n        /* \"#utility.yul\":26473:26489   */\n      swap1\n      pop\n        /* \"#utility.yul\":26508:26511   */\n      dup1\n        /* \"#utility.yul\":26505:26506   */\n      dup3\n        /* \"#utility.yul\":26502:26512   */\n      gt\n        /* \"#utility.yul\":26499:26535   */\n      iszero\n      tag_633\n      jumpi\n        /* \"#utility.yul\":26515:26533   */\n      tag_634\n      tag_298\n      jump\t// in\n    tag_634:\n        /* \"#utility.yul\":26499:26535   */\n    tag_633:\n        /* \"#utility.yul\":26351:26542   */\n      swap3\n      swap2\n      pop\n      pop\n      jump\t// out\n        /* \"#utility.yul\":26548:26646   */\n    tag_335:\n        /* \"#utility.yul\":26599:26605   */\n      0x00\n        /* \"#utility.yul\":26633:26638   */\n      dup2\n        /* \"#utility.yul\":26627:26639   */\n      mload\n        /* \"#utility.yul\":26617:26639   */\n      swap1\n      pop\n        /* \"#utility.yul\":26548:26646   */\n      swap2\n      swap1\n      pop\n      jump\t// out\n        /* \"#utility.yul\":26652:26820   */\n    tag_336:\n        /* \"#utility.yul\":26735:26746   */\n      0x00\n        /* \"#utility.yul\":26769:26775   */\n      dup3\n        /* \"#utility.yul\":26764:26767   */\n      dup3\n        /* \"#utility.yul\":26757:26776   */\n      mstore\n        /* \"#utility.yul\":26809:26813   */\n      0x20\n        /* \"#utility.yul\":26804:26807   */\n      dup3\n        /* \"#utility.yul\":26800:26814   */\n      add\n        /* \"#utility.yul\":26785:26814   */\n      swap1\n      pop\n        /* \"#utility.yul\":26652:26820   */\n      swap3\n      swap2\n      pop\n      pop\n      jump\t// out\n        /* \"#utility.yul\":26826:27199   */\n    tag_337:\n        /* \"#utility.yul\":26912:26915   */\n      0x00\n        /* \"#utility.yul\":26940:26978   */\n      tag_638\n        /* \"#utility.yul\":26972:26977   */\n      dup3\n        /* \"#utility.yul\":26940:26978   */\n      tag_335\n      jump\t// in\n    tag_638:\n        /* \"#utility.yul\":26994:27064   */\n      tag_639\n        /* \"#utility.yul\":27057:27063   */\n      dup2\n        /* \"#utility.yul\":27052:27055   */\n      dup6\n        /* \"#utility.yul\":26994:27064   */\n      tag_336\n      jump\t// in\n    tag_639:\n        /* \"#utility.yul\":26987:27064   */\n      swap4\n      pop\n        /* \"#utility.yul\":27073:27138   */\n      tag_640\n        /* \"#utility.yul\":27131:27137   */\n      dup2\n        /* \"#utility.yul\":27126:27129   */\n      dup6\n        /* \"#utility.yul\":27119:27123   */\n      0x20\n        /* \"#utility.yul\":27112:27117   */\n      dup7\n        /* \"#utility.yul\":27108:27124   */\n      add\n        /* \"#utility.yul\":27073:27138   */\n      tag_277\n      jump\t// in\n    tag_640:\n        /* \"#utility.yul\":27163:27192   */\n      tag_641\n        /* \"#utility.yul\":27185:27191   */\n      dup2\n        /* \"#utility.yul\":27163:27192   */\n      tag_278\n      jump\t// in\n    tag_641:\n        /* \"#utility.yul\":27158:27161   */\n      dup5\n        /* \"#utility.yul\":27154:27193   */\n      add\n        /* \"#utility.yul\":27147:27193   */\n      swap2\n      pop\n        /* \"#utility.yul\":26916:27199   */\n      pop\n        /* \"#utility.yul\":26826:27199   */\n      swap3\n      swap2\n      pop\n      pop\n      jump\t// out\n        /* \"#utility.yul\":27205:28285   */\n    tag_231:\n        /* \"#utility.yul\":27510:27514   */\n      0x00\n        /* \"#utility.yul\":27548:27551   */\n      0x0100\n        /* \"#utility.yul\":27537:27546   */\n      dup3\n        /* \"#utility.yul\":27533:27552   */\n      add\n        /* \"#utility.yul\":27525:27552   */\n      swap1\n      pop\n        /* \"#utility.yul\":27562:27633   */\n      tag_643\n        /* \"#utility.yul\":27630:27631   */\n      0x00\n        /* \"#utility.yul\":27619:27628   */\n      dup4\n        /* \"#utility.yul\":27615:27632   */\n      add\n        /* \"#utility.yul\":27606:27612   */\n      dup12\n        /* \"#utility.yul\":27562:27633   */\n      tag_268\n      jump\t// in\n    tag_643:\n        /* \"#utility.yul\":27643:27715   */\n      tag_644\n        /* \"#utility.yul\":27711:27713   */\n      0x20\n        /* \"#utility.yul\":27700:27709   */\n      dup4\n        /* \"#utility.yul\":27696:27714   */\n      add\n        /* \"#utility.yul\":27687:27693   */\n      dup11\n        /* \"#utility.yul\":27643:27715   */\n      tag_314\n      jump\t// in\n    tag_644:\n        /* \"#utility.yul\":27725:27797   */\n      tag_645\n        /* \"#utility.yul\":27793:27795   */\n      0x40\n        /* \"#utility.yul\":27782:27791   */\n      dup4\n        /* \"#utility.yul\":27778:27796   */\n      add\n        /* \"#utility.yul\":27769:27775   */\n      dup10\n        /* \"#utility.yul\":27725:27797   */\n      tag_331\n      jump\t// in\n    tag_645:\n        /* \"#utility.yul\":27807:27879   */\n      tag_646\n        /* \"#utility.yul\":27875:27877   */\n      0x60\n        /* \"#utility.yul\":27864:27873   */\n      dup4\n        /* \"#utility.yul\":27860:27878   */\n      add\n        /* \"#utility.yul\":27851:27857   */\n      dup9\n        /* \"#utility.yul\":27807:27879   */\n      tag_268\n      jump\t// in\n    tag_646:\n        /* \"#utility.yul\":27889:27960   */\n      tag_647\n        /* \"#utility.yul\":27955:27958   */\n      0x80\n        /* \"#utility.yul\":27944:27953   */\n      dup4\n        /* \"#utility.yul\":27940:27959   */\n      add\n        /* \"#utility.yul\":27931:27937   */\n      dup8\n        /* \"#utility.yul\":27889:27960   */\n      tag_332\n      jump\t// in\n    tag_647:\n        /* \"#utility.yul\":27970:28043   */\n      tag_648\n        /* \"#utility.yul\":28038:28041   */\n      0xa0\n        /* \"#utility.yul\":28027:28036   */\n      dup4\n        /* \"#utility.yul\":28023:28042   */\n      add\n        /* \"#utility.yul\":28014:28020   */\n      dup7\n        /* \"#utility.yul\":27970:28043   */\n      tag_314\n      jump\t// in\n    tag_648:\n        /* \"#utility.yul\":28053:28126   */\n      tag_649\n        /* \"#utility.yul\":28121:28124   */\n      0xc0\n        /* \"#utility.yul\":28110:28119   */\n      dup4\n        /* \"#utility.yul\":28106:28125   */\n      add\n        /* \"#utility.yul\":28097:28103   */\n      dup6\n        /* \"#utility.yul\":28053:28126   */\n      tag_314\n      jump\t// in\n    tag_649:\n        /* \"#utility.yul\":28174:28183   */\n      dup2\n        /* \"#utility.yul\":28168:28172   */\n      dup2\n        /* \"#utility.yul\":28164:28184   */\n      sub\n        /* \"#utility.yul\":28158:28161   */\n      0xe0\n        /* \"#utility.yul\":28147:28156   */\n      dup4\n        /* \"#utility.yul\":28143:28162   */\n      add\n        /* \"#utility.yul\":28136:28185   */\n      mstore\n        /* \"#utility.yul\":28202:28278   */\n      tag_650\n        /* \"#utility.yul\":28273:28277   */\n      dup2\n        /* \"#utility.yul\":28264:28270   */\n      dup5\n        /* \"#utility.yul\":28202:28278   */\n      tag_337\n      jump\t// in\n    tag_650:\n        /* \"#utility.yul\":28194:28278   */\n      swap1\n      pop\n        /* \"#utility.yul\":27205:28285   */\n      swap10\n      swap9\n      pop\n      pop\n      pop\n      pop\n      pop\n      pop\n      pop\n      pop\n      pop\n      jump\t// out\n        /* \"#utility.yul\":28291:28433   */\n    tag_338:\n        /* \"#utility.yul\":28341:28350   */\n      0x00\n        /* \"#utility.yul\":28374:28427   */\n      tag_652\n        /* \"#utility.yul\":28392:28426   */\n      tag_653\n        /* \"#utility.yul\":28401:28425   */\n      tag_654\n        /* \"#utility.yul\":28419:28424   */\n      dup5\n        /* \"#utility.yul\":28401:28425   */\n      tag_266\n      jump\t// in\n    tag_654:\n        /* \"#utility.yul\":28392:28426   */\n      tag_303\n      jump\t// in\n    tag_653:\n        /* \"#utility.yul\":28374:28427   */\n      tag_266\n      jump\t// in\n    tag_652:\n        /* \"#utility.yul\":28361:28427   */\n      swap1\n      pop\n        /* \"#utility.yul\":28291:28433   */\n      swap2\n      swap1\n      pop\n      jump\t// out\n        /* \"#utility.yul\":28439:28565   */\n    tag_339:\n        /* \"#utility.yul\":28489:28498   */\n      0x00\n        /* \"#utility.yul\":28522:28559   */\n      tag_656\n        /* \"#utility.yul\":28553:28558   */\n      dup3\n        /* \"#utility.yul\":28522:28559   */\n      tag_338\n      jump\t// in\n    tag_656:\n        /* \"#utility.yul\":28509:28559   */\n      swap1\n      pop\n        /* \"#utility.yul\":28439:28565   */\n      swap2\n      swap1\n      pop\n      jump\t// out\n        /* \"#utility.yul\":28571:28720   */\n    tag_340:\n        /* \"#utility.yul\":28644:28653   */\n      0x00\n        /* \"#utility.yul\":28677:28714   */\n      tag_658\n        /* \"#utility.yul\":28708:28713   */\n      dup3\n        /* \"#utility.yul\":28677:28714   */\n      tag_339\n      jump\t// in\n    tag_658:\n        /* \"#utility.yul\":28664:28714   */\n      swap1\n      pop\n        /* \"#utility.yul\":28571:28720   */\n      swap2\n      swap1\n      pop\n      jump\t// out\n        /* \"#utility.yul\":28726:28820   */\n    tag_341:\n        /* \"#utility.yul\":28759:28767   */\n      0x00\n        /* \"#utility.yul\":28807:28812   */\n      dup2\n        /* \"#utility.yul\":28803:28805   */\n      0x60\n        /* \"#utility.yul\":28799:28813   */\n      shl\n        /* \"#utility.yul\":28778:28813   */\n      swap1\n      pop\n        /* \"#utility.yul\":28726:28820   */\n      swap2\n      swap1\n      pop\n      jump\t// out\n        /* \"#utility.yul\":28826:28920   */\n    tag_342:\n        /* \"#utility.yul\":28865:28872   */\n      0x00\n        /* \"#utility.yul\":28894:28914   */\n      tag_661\n        /* \"#utility.yul\":28908:28913   */\n      dup3\n        /* \"#utility.yul\":28894:28914   */\n      tag_341\n      jump\t// in\n    tag_661:\n        /* \"#utility.yul\":28883:28914   */\n      swap1\n      pop\n        /* \"#utility.yul\":28826:28920   */\n      swap2\n      swap1\n      pop\n      jump\t// out\n        /* \"#utility.yul\":28926:29026   */\n    tag_343:\n        /* \"#utility.yul\":28965:28972   */\n      0x00\n        /* \"#utility.yul\":28994:29020   */\n      tag_663\n        /* \"#utility.yul\":29014:29019   */\n      dup3\n        /* \"#utility.yul\":28994:29020   */\n      tag_342\n      jump\t// in\n    tag_663:\n        /* \"#utility.yul\":28983:29020   */\n      swap1\n      pop\n        /* \"#utility.yul\":28926:29026   */\n      swap2\n      swap1\n      pop\n      jump\t// out\n        /* \"#utility.yul\":29032:29248   */\n    tag_344:\n        /* \"#utility.yul\":29160:29241   */\n      tag_665\n        /* \"#utility.yul\":29180:29240   */\n      tag_666\n        /* \"#utility.yul\":29234:29239   */\n      dup3\n        /* \"#utility.yul\":29180:29240   */\n      tag_340\n      jump\t// in\n    tag_666:\n        /* \"#utility.yul\":29160:29241   */\n      tag_343\n      jump\t// in\n    tag_665:\n        /* \"#utility.yul\":29155:29158   */\n      dup3\n        /* \"#utility.yul\":29148:29242   */\n      mstore\n        /* \"#utility.yul\":29032:29248   */\n      pop\n      pop\n      jump\t// out\n        /* \"#utility.yul\":29254:29333   */\n    tag_345:\n        /* \"#utility.yul\":29293:29300   */\n      0x00\n        /* \"#utility.yul\":29322:29327   */\n      dup2\n        /* \"#utility.yul\":29311:29327   */\n      swap1\n      pop\n        /* \"#utility.yul\":29254:29333   */\n      swap2\n      swap1\n      pop\n      jump\t// out\n        /* \"#utility.yul\":29339:29496   */\n    tag_346:\n        /* \"#utility.yul\":29444:29489   */\n      tag_669\n        /* \"#utility.yul\":29464:29488   */\n      tag_670\n        /* \"#utility.yul\":29482:29487   */\n      dup3\n        /* \"#utility.yul\":29464:29488   */\n      tag_272\n      jump\t// in\n    tag_670:\n        /* \"#utility.yul\":29444:29489   */\n      tag_345\n      jump\t// in\n    tag_669:\n        /* \"#utility.yul\":29439:29442   */\n      dup3\n        /* \"#utility.yul\":29432:29490   */\n      mstore\n        /* \"#utility.yul\":29339:29496   */\n      pop\n      pop\n      jump\t// out\n        /* \"#utility.yul\":29502:29945   */\n    tag_240:\n        /* \"#utility.yul\":29665:29668   */\n      0x00\n        /* \"#utility.yul\":29680:29778   */\n      tag_672\n        /* \"#utility.yul\":29774:29777   */\n      dup3\n        /* \"#utility.yul\":29765:29771   */\n      dup6\n        /* \"#utility.yul\":29680:29778   */\n      tag_344\n      jump\t// in\n    tag_672:\n        /* \"#utility.yul\":29803:29805   */\n      0x14\n        /* \"#utility.yul\":29798:29801   */\n      dup3\n        /* \"#utility.yul\":29794:29806   */\n      add\n        /* \"#utility.yul\":29787:29806   */\n      swap2\n      pop\n        /* \"#utility.yul\":29816:29891   */\n      tag_673\n        /* \"#utility.yul\":29887:29890   */\n      dup3\n        /* \"#utility.yul\":29878:29884   */\n      dup5\n        /* \"#utility.yul\":29816:29891   */\n      tag_346\n      jump\t// in\n    tag_673:\n        /* \"#utility.yul\":29916:29918   */\n      0x20\n        /* \"#utility.yul\":29911:29914   */\n      dup3\n        /* \"#utility.yul\":29907:29919   */\n      add\n        /* \"#utility.yul\":29900:29919   */\n      swap2\n      pop\n        /* \"#utility.yul\":29936:29939   */\n      dup2\n        /* \"#utility.yul\":29929:29939   */\n      swap1\n      pop\n        /* \"#utility.yul\":29502:29945   */\n      swap4\n      swap3\n      pop\n      pop\n      pop\n      jump\t// out\n        /* \"#utility.yul\":29951:30480   */\n    tag_242:\n        /* \"#utility.yul\":30118:30122   */\n      0x00\n        /* \"#utility.yul\":30156:30158   */\n      0x60\n        /* \"#utility.yul\":30145:30154   */\n      dup3\n        /* \"#utility.yul\":30141:30159   */\n      add\n        /* \"#utility.yul\":30133:30159   */\n      swap1\n      pop\n        /* \"#utility.yul\":30169:30240   */\n      tag_675\n        /* \"#utility.yul\":30237:30238   */\n      0x00\n        /* \"#utility.yul\":30226:30235   */\n      dup4\n        /* \"#utility.yul\":30222:30239   */\n      add\n        /* \"#utility.yul\":30213:30219   */\n      dup7\n        /* \"#utility.yul\":30169:30240   */\n      tag_268\n      jump\t// in\n    tag_675:\n        /* \"#utility.yul\":30250:30322   */\n      tag_676\n        /* \"#utility.yul\":30318:30320   */\n      0x20\n        /* \"#utility.yul\":30307:30316   */\n      dup4\n        /* \"#utility.yul\":30303:30321   */\n      add\n        /* \"#utility.yul\":30294:30300   */\n      dup6\n        /* \"#utility.yul\":30250:30322   */\n      tag_314\n      jump\t// in\n    tag_676:\n        /* \"#utility.yul\":30369:30378   */\n      dup2\n        /* \"#utility.yul\":30363:30367   */\n      dup2\n        /* \"#utility.yul\":30359:30379   */\n      sub\n        /* \"#utility.yul\":30354:30356   */\n      0x40\n        /* \"#utility.yul\":30343:30352   */\n      dup4\n        /* \"#utility.yul\":30339:30357   */\n      add\n        /* \"#utility.yul\":30332:30380   */\n      mstore\n        /* \"#utility.yul\":30397:30473   */\n      tag_677\n        /* \"#utility.yul\":30468:30472   */\n      dup2\n        /* \"#utility.yul\":30459:30465   */\n      dup5\n        /* \"#utility.yul\":30397:30473   */\n      tag_337\n      jump\t// in\n    tag_677:\n        /* \"#utility.yul\":30389:30473   */\n      swap1\n      pop\n        /* \"#utility.yul\":29951:30480   */\n      swap5\n      swap4\n      pop\n      pop\n      pop\n      pop\n      jump\t// out\n        /* \"#utility.yul\":30486:30708   */\n    tag_347:\n        /* \"#utility.yul\":30626:30660   */\n      0x756e61626c6520746f207472616e73666572416e6443616c6c20746f206f7261\n        /* \"#utility.yul\":30622:30623   */\n      0x00\n        /* \"#utility.yul\":30614:30620   */\n      dup3\n        /* \"#utility.yul\":30610:30624   */\n      add\n        /* \"#utility.yul\":30603:30661   */\n      mstore\n        /* \"#utility.yul\":30695:30700   */\n      0x636c650000000000000000000000000000000000000000000000000000000000\n        /* \"#utility.yul\":30690:30692   */\n      0x20\n        /* \"#utility.yul\":30682:30688   */\n      dup3\n        /* \"#utility.yul\":30678:30693   */\n      add\n        /* \"#utility.yul\":30671:30701   */\n      mstore\n        /* \"#utility.yul\":30486:30708   */\n      pop\n      jump\t// out\n        /* \"#utility.yul\":30714:31080   */\n    tag_348:\n        /* \"#utility.yul\":30856:30859   */\n      0x00\n        /* \"#utility.yul\":30877:30944   */\n      tag_680\n        /* \"#utility.yul\":30941:30943   */\n      0x23\n        /* \"#utility.yul\":30936:30939   */\n      dup4\n        /* \"#utility.yul\":30877:30944   */\n      tag_276\n      jump\t// in\n    tag_680:\n        /* \"#utility.yul\":30870:30944   */\n      swap2\n      pop\n        /* \"#utility.yul\":30953:31046   */\n      tag_681\n        /* \"#utility.yul\":31042:31045   */\n      dup3\n        /* \"#utility.yul\":30953:31046   */\n      tag_347\n      jump\t// in\n    tag_681:\n        /* \"#utility.yul\":31071:31073   */\n      0x40\n        /* \"#utility.yul\":31066:31069   */\n      dup3\n        /* \"#utility.yul\":31062:31074   */\n      add\n        /* \"#utility.yul\":31055:31074   */\n      swap1\n      pop\n        /* \"#utility.yul\":30714:31080   */\n      swap2\n      swap1\n      pop\n      jump\t// out\n        /* \"#utility.yul\":31086:31505   */\n    tag_248:\n        /* \"#utility.yul\":31252:31256   */\n      0x00\n        /* \"#utility.yul\":31290:31292   */\n      0x20\n        /* \"#utility.yul\":31279:31288   */\n      dup3\n        /* \"#utility.yul\":31275:31293   */\n      add\n        /* \"#utility.yul\":31267:31293   */\n      swap1\n      pop\n        /* \"#utility.yul\":31339:31348   */\n      dup2\n        /* \"#utility.yul\":31333:31337   */\n      dup2\n        /* \"#utility.yul\":31329:31349   */\n      sub\n        /* \"#utility.yul\":31325:31326   */\n      0x00\n        /* \"#utility.yul\":31314:31323   */\n      dup4\n        /* \"#utility.yul\":31310:31327   */\n      add\n        /* \"#utility.yul\":31303:31350   */\n      mstore\n        /* \"#utility.yul\":31367:31498   */\n      tag_683\n        /* \"#utility.yul\":31493:31497   */\n      dup2\n        /* \"#utility.yul\":31367:31498   */\n      tag_348\n      jump\t// in\n    tag_683:\n        /* \"#utility.yul\":31359:31498   */\n      swap1\n      pop\n        /* \"#utility.yul\":31086:31505   */\n      swap2\n      swap1\n      pop\n      jump\t// out\n        /* \"#utility.yul\":31511:31687   */\n    tag_253:\n        /* \"#utility.yul\":31543:31544   */\n      0x00\n        /* \"#utility.yul\":31560:31580   */\n      tag_685\n        /* \"#utility.yul\":31578:31579   */\n      dup3\n        /* \"#utility.yul\":31560:31580   */\n      tag_272\n      jump\t// in\n    tag_685:\n        /* \"#utility.yul\":31555:31580   */\n      swap2\n      pop\n        /* \"#utility.yul\":31594:31614   */\n      tag_686\n        /* \"#utility.yul\":31612:31613   */\n      dup4\n        /* \"#utility.yul\":31594:31614   */\n      tag_272\n      jump\t// in\n    tag_686:\n        /* \"#utility.yul\":31589:31614   */\n      swap3\n      pop\n        /* \"#utility.yul\":31633:31634   */\n      dup3\n        /* \"#utility.yul\":31623:31658   */\n      tag_687\n      jumpi\n        /* \"#utility.yul\":31638:31656   */\n      tag_688\n      tag_328\n      jump\t// in\n    tag_688:\n        /* \"#utility.yul\":31623:31658   */\n    tag_687:\n        /* \"#utility.yul\":31679:31680   */\n      dup3\n        /* \"#utility.yul\":31676:31677   */\n      dup3\n        /* \"#utility.yul\":31672:31681   */\n      mod\n        /* \"#utility.yul\":31667:31681   */\n      swap1\n      pop\n        /* \"#utility.yul\":31511:31687   */\n      swap3\n      swap2\n      pop\n      pop\n      jump\t// out\n\n    auxdata: 0xa2646970667358221220d32c4e56698cdf07f8fb4a55367c452fd3619e15f084c46cc3cb8d10d5597bdf64736f6c63430008130033\n}\n",
				"bytecode": {
					"linkReferences": {},
					"object": "608060405260016004553480156200001657600080fd5b5060405162002b3538038062002b3583398181016040528101906200003c919062000388565b338060008073ffffffffffffffffffffffffffffffffffffffff168273ffffffffffffffffffffffffffffffffffffffff1603620000b1576040517f08c379a0000000000000000000000000000000000000000000000000000000008152600401620000a8906200041b565b60405180910390fd5b81600660006101000a81548173ffffffffffffffffffffffffffffffffffffffff021916908373ffffffffffffffffffffffffffffffffffffffff160217905550600073ffffffffffffffffffffffffffffffffffffffff168173ffffffffffffffffffffffffffffffffffffffff161462000139576200013881620001a960201b60201c565b5b5050506200016173779877a7b0d9e8603169ddbd7836e478b4624789620002da60201b60201c565b80600960006101000a81548173ffffffffffffffffffffffffffffffffffffffff021916908373ffffffffffffffffffffffffffffffffffffffff16021790555050620004af565b3373ffffffffffffffffffffffffffffffffffffffff168173ffffffffffffffffffffffffffffffffffffffff16036200021a576040517f08c379a000000000000000000000000000000000000000000000000000000000815260040162000211906200048d565b60405180910390fd5b80600760006101000a81548173ffffffffffffffffffffffffffffffffffffffff021916908373ffffffffffffffffffffffffffffffffffffffff1602179055508073ffffffffffffffffffffffffffffffffffffffff16600660009054906101000a900473ffffffffffffffffffffffffffffffffffffffff1673ffffffffffffffffffffffffffffffffffffffff167fed8889f560326eb138920d842192f0eb3dd22b4f139c87a2c57538e05bae127860405160405180910390a350565b80600260006101000a81548173ffffffffffffffffffffffffffffffffffffffff021916908373ffffffffffffffffffffffffffffffffffffffff16021790555050565b600080fd5b600073ffffffffffffffffffffffffffffffffffffffff82169050919050565b6000620003508262000323565b9050919050565b620003628162000343565b81146200036e57600080fd5b50565b600081519050620003828162000357565b92915050565b600060208284031215620003a157620003a06200031e565b5b6000620003b18482850162000371565b91505092915050565b600082825260208201905092915050565b7f43616e6e6f7420736574206f776e657220746f207a65726f0000000000000000600082015250565b600062000403601883620003ba565b91506200041082620003cb565b602082019050919050565b600060208201905081810360008301526200043681620003f4565b9050919050565b7f43616e6e6f74207472616e7366657220746f2073656c66000000000000000000600082015250565b600062000475601783620003ba565b915062000482826200043d565b602082019050919050565b60006020820190508181036000830152620004a88162000466565b9050919050565b61267680620004bf6000396000f3fe608060405234801561001057600080fd5b50600436106100f55760003560e01c80638dc654a211610097578063d458fa9611610066578063d458fa9614610214578063ec65d0f814610230578063f2fde38b1461024c578063f7023bb614610268576100f5565b80638dc654a2146101b45780639cb29cbd146101be578063a3416b67146101da578063a89ae4ba146101f6576100f5565b8063630c4ebc116100d3578063630c4ebc1461015257806375cb0ac81461017057806379ba50971461018c5780638da5cb5b14610196576100f5565b8063165d35e1146100fa578063180aedf3146101185780632cf2d1d314610148575b600080fd5b610102610284565b60405161010f91906114cc565b60405180910390f35b610132600480360381019061012d9190611531565b610293565b60405161013f91906115ee565b60405180910390f35b610150610345565b005b61015a61041d565b60405161016791906115ee565b60405180910390f35b61018a60048036038101906101859190611745565b6104ab565b005b61019461054e565b005b61019e6106e5565b6040516101ab91906114cc565b60405180910390f35b6101bc61070f565b005b6101d860048036038101906101d39190611531565b61085c565b005b6101f460048036038101906101ef919061178e565b610981565b005b6101fe610a3c565b60405161020b91906114cc565b60405180910390f35b61022e60048036038101906102299190611820565b610a62565b005b61024a600480360381019061024591906118d4565b610bb4565b005b61026660048036038101906102619190611967565b610bce565b005b610282600480360381019061027d9190611967565b610be2565b005b600061028e610c65565b905090565b600a81815481106102a357600080fd5b906000526020600020016000915090508060000180546102c2906119c3565b80601f01602080910402602001604051908101604052809291908181526020018280546102ee906119c3565b801561033b5780601f106103105761010080835404028352916020019161033b565b820191906000526020600020905b81548152906001019060200180831161031e57829003601f168201915b5050505050905081565b60005b600a8054905081101561041a57610407600a828154811061036c5761036b6119f4565b5b906000526020600020016000018054610384906119c3565b80601f01602080910402602001604051908101604052809291908181526020018280546103b0906119c3565b80156103fd5780601f106103d2576101008083540402835291602001916103fd565b820191906000526020600020905b8154815290600101906020018083116103e057829003601f168201915b5050505050610c8f565b808061041290611a52565b915050610348565b50565b6008805461042a906119c3565b80601f0160208091040260200160405190810160405280929190818152602001828054610456906119c3565b80156104a35780601f10610478576101008083540402835291602001916104a3565b820191906000526020600020905b81548152906001019060200180831161048657829003601f168201915b505050505081565b6104b3610cff565b600a6040518060200160405280838152509080600181540180825580915050600190039060005260206000200160009091909190915060008201518160000190816104fe9190611c46565b5050507fd20cd5a820b437a8b626451f79bea6c725fee49b38cec46c1b7eb12b44d409536001600a805490506105349190611d18565b82604051610543929190611d5b565b60405180910390a150565b600760009054906101000a900473ffffffffffffffffffffffffffffffffffffffff1673ffffffffffffffffffffffffffffffffffffffff163373ffffffffffffffffffffffffffffffffffffffff16146105de576040517f08c379a00000000000000000000000000000000000000000000000000000000081526004016105d590611dd7565b60405180910390fd5b6000600660009054906101000a900473ffffffffffffffffffffffffffffffffffffffff16905033600660006101000a81548173ffffffffffffffffffffffffffffffffffffffff021916908373ffffffffffffffffffffffffffffffffffffffff1602179055506000600760006101000a81548173ffffffffffffffffffffffffffffffffffffffff021916908373ffffffffffffffffffffffffffffffffffffffff1602179055503373ffffffffffffffffffffffffffffffffffffffff168173ffffffffffffffffffffffffffffffffffffffff167f8be0079c531659141344cd1fd0a4f28419497f9722a3daafe3b4186f6b6457e060405160405180910390a350565b6000600660009054906101000a900473ffffffffffffffffffffffffffffffffffffffff16905090565b610717610cff565b6000610721610c65565b90508073ffffffffffffffffffffffffffffffffffffffff1663a9059cbb338373ffffffffffffffffffffffffffffffffffffffff166370a08231306040518263ffffffff1660e01b815260040161077991906114cc565b602060405180830381865afa158015610796573d6000803e3d6000fd5b505050506040513d601f19601f820116820180604052508101906107ba9190611e0c565b6040518363ffffffff1660e01b81526004016107d7929190611e39565b6020604051808303816000875af11580156107f6573d6000803e3d6000fd5b505050506040513d601f19601f8201168201806040525081019061081a9190611e9a565b610859576040517f08c379a000000000000000000000000000000000000000000000000000000000815260040161085090611f13565b60405180910390fd5b50565b610864610cff565b600a8054905081106108ab576040517f08c379a00000000000000000000000000000000000000000000000000000000081526004016108a290611f7f565b60405180910390fd5b600a6001600a805490506108bf9190611d18565b815481106108d0576108cf6119f4565b5b90600052602060002001600a82815481106108ee576108ed6119f4565b5b906000526020600020016000820181600001908161090c9190611fb5565b50905050600a8054806109225761092161209d565b5b600190038181906000526020600020016000808201600061094391906113a7565b505090557f6daba074dba7f6e2f5fd289e20080bf7047e96329b083fc1dab326fbefd762bb8160405161097691906120cc565b60405180910390a150565b610989610cff565b600a8054905082106109d0576040517f08c379a00000000000000000000000000000000000000000000000000000000081526004016109c790611f7f565b60405180910390fd5b80600a83815481106109e5576109e46119f4565b5b9060005260206000200160000190816109fe9190611c46565b507f4b8f0934c14da92e4e0907a10b2b403a99fae79d2f3961b5c7f78744ed4434048282604051610a30929190611d5b565b60405180910390a15050565b600960009054906101000a900473ffffffffffffffffffffffffffffffffffffffff1681565b816005600082815260200190815260200160002060009054906101000a900473ffffffffffffffffffffffffffffffffffffffff1673ffffffffffffffffffffffffffffffffffffffff163373ffffffffffffffffffffffffffffffffffffffff1614610b04576040517f08c379a0000000000000000000000000000000000000000000000000000000008152600401610afb90612159565b60405180910390fd5b6005600082815260200190815260200160002060006101000a81549073ffffffffffffffffffffffffffffffffffffffff0219169055807f7cc135e0cebb02c3480ae5d74d377283180a2601f8f644edf7987b009316c63a60405160405180910390a2827fa4d501c645c4b43d9e4493c2b500e710ebb5fc182bbcdfa237ef5ff889f8fc8983604051610b9791906115ee565b60405180910390a28160089081610bae9190611c46565b50505050565b610bbc610cff565b610bc884848484610d91565b50505050565b610bd6610cff565b610bdf81610ea4565b50565b610bea610cff565b80600960006101000a81548173ffffffffffffffffffffffffffffffffffffffff021916908373ffffffffffffffffffffffffffffffffffffffff1602179055507f107a9fafffb7ac890f780879e423760c9ffea8dcee8045681f40f542aede2cb881604051610c5a91906114cc565b60405180910390a150565b6000600260009054906101000a900473ffffffffffffffffffffffffffffffffffffffff16905090565b6000610cab610c9d83610fd2565b3063d458fa9660e01b610ffb565b9050610cfa600960009054906101000a900473ffffffffffffffffffffffffffffffffffffffff1682600a670de0b6b3a76400006001610ceb9190612179565b610cf591906121ea565b61102c565b505050565b600660009054906101000a900473ffffffffffffffffffffffffffffffffffffffff1673ffffffffffffffffffffffffffffffffffffffff163373ffffffffffffffffffffffffffffffffffffffff1614610d8f576040517f08c379a0000000000000000000000000000000000000000000000000000000008152600401610d8690612267565b60405180910390fd5b565b60006005600086815260200190815260200160002060009054906101000a900473ffffffffffffffffffffffffffffffffffffffff1690506005600086815260200190815260200160002060006101000a81549073ffffffffffffffffffffffffffffffffffffffff0219169055847fe1fe3afa0f7f761ff0a8b89086790efd5140d2907ebd5b7ff6bfcb5e075fd4c560405160405180910390a28073ffffffffffffffffffffffffffffffffffffffff16636ee4d553868686866040518563ffffffff1660e01b8152600401610e6b94939291906122a5565b600060405180830381600087803b158015610e8557600080fd5b505af1158015610e99573d6000803e3d6000fd5b505050505050505050565b3373ffffffffffffffffffffffffffffffffffffffff168173ffffffffffffffffffffffffffffffffffffffff1603610f12576040517f08c379a0000000000000000000000000000000000000000000000000000000008152600401610f0990612336565b60405180910390fd5b80600760006101000a81548173ffffffffffffffffffffffffffffffffffffffff021916908373ffffffffffffffffffffffffffffffffffffffff1602179055508073ffffffffffffffffffffffffffffffffffffffff16600660009054906101000a900473ffffffffffffffffffffffffffffffffffffffff1673ffffffffffffffffffffffffffffffffffffffff167fed8889f560326eb138920d842192f0eb3dd22b4f139c87a2c57538e05bae127860405160405180910390a350565b6000808290506000815103610fed576000801b915050610ff6565b60208301519150505b919050565b6110036113e7565b61100b6113e7565b611022858585846110f8909392919063ffffffff16565b9150509392505050565b60008060045490506001816110419190612356565b6004819055506000634042994660e01b60008087600001513089604001518760018c60800151600001516040516024016110829897969594939291906123df565b604051602081830303815290604052907bffffffffffffffffffffffffffffffffffffffffffffffffffffffff19166020820180517bffffffffffffffffffffffffffffffffffffffffffffffffffffffff838183161783525050505090506110ed868386846111a8565b925050509392505050565b6111006113e7565b611110856080015161010061133d565b508385600001818152505082856020019073ffffffffffffffffffffffffffffffffffffffff16908173ffffffffffffffffffffffffffffffffffffffff16815250508185604001907bffffffffffffffffffffffffffffffffffffffffffffffffffffffff191690817bffffffffffffffffffffffffffffffffffffffffffffffffffffffff191681525050849050949350505050565b600030846040516020016111bd929190612513565b604051602081830303815290604052805190602001209050846005600083815260200190815260200160002060006101000a81548173ffffffffffffffffffffffffffffffffffffffff021916908373ffffffffffffffffffffffffffffffffffffffff160217905550807fb5e6e01e79f91267dc17b4e6314d5d4d03593d2ceee0fbb452b750bd70ea5af960405160405180910390a2600260009054906101000a900473ffffffffffffffffffffffffffffffffffffffff1673ffffffffffffffffffffffffffffffffffffffff16634000aea08685856040518463ffffffff1660e01b81526004016112b39392919061253f565b6020604051808303816000875af11580156112d2573d6000803e3d6000fd5b505050506040513d601f19601f820116820180604052508101906112f69190611e9a565b611335576040517f08c379a000000000000000000000000000000000000000000000000000000000815260040161132c906125ef565b60405180910390fd5b949350505050565b611345611454565b6000602083611354919061260f565b1461138057602082611366919061260f565b60206113729190611d18565b8261137d9190612356565b91505b81836020018181525050604051808452600081528281016020016040525082905092915050565b5080546113b3906119c3565b6000825580601f106113c557506113e4565b601f0160209004906000526020600020908101906113e3919061146e565b5b50565b6040518060a0016040528060008019168152602001600073ffffffffffffffffffffffffffffffffffffffff16815260200160007bffffffffffffffffffffffffffffffffffffffffffffffffffffffff191681526020016000815260200161144e611454565b81525090565b604051806040016040528060608152602001600081525090565b5b8082111561148757600081600090555060010161146f565b5090565b600073ffffffffffffffffffffffffffffffffffffffff82169050919050565b60006114b68261148b565b9050919050565b6114c6816114ab565b82525050565b60006020820190506114e160008301846114bd565b92915050565b6000604051905090565b600080fd5b600080fd5b6000819050919050565b61150e816114fb565b811461151957600080fd5b50565b60008135905061152b81611505565b92915050565b600060208284031215611547576115466114f1565b5b60006115558482850161151c565b91505092915050565b600081519050919050565b600082825260208201905092915050565b60005b8381101561159857808201518184015260208101905061157d565b60008484015250505050565b6000601f19601f8301169050919050565b60006115c08261155e565b6115ca8185611569565b93506115da81856020860161157a565b6115e3816115a4565b840191505092915050565b6000602082019050818103600083015261160881846115b5565b905092915050565b600080fd5b600080fd5b7f4e487b7100000000000000000000000000000000000000000000000000000000600052604160045260246000fd5b611652826115a4565b810181811067ffffffffffffffff821117156116715761167061161a565b5b80604052505050565b60006116846114e7565b90506116908282611649565b919050565b600067ffffffffffffffff8211156116b0576116af61161a565b5b6116b9826115a4565b9050602081019050919050565b82818337600083830152505050565b60006116e86116e384611695565b61167a565b90508281526020810184848401111561170457611703611615565b5b61170f8482856116c6565b509392505050565b600082601f83011261172c5761172b611610565b5b813561173c8482602086016116d5565b91505092915050565b60006020828403121561175b5761175a6114f1565b5b600082013567ffffffffffffffff811115611779576117786114f6565b5b61178584828501611717565b91505092915050565b600080604083850312156117a5576117a46114f1565b5b60006117b38582860161151c565b925050602083013567ffffffffffffffff8111156117d4576117d36114f6565b5b6117e085828601611717565b9150509250929050565b6000819050919050565b6117fd816117ea565b811461180857600080fd5b50565b60008135905061181a816117f4565b92915050565b60008060408385031215611837576118366114f1565b5b60006118458582860161180b565b925050602083013567ffffffffffffffff811115611866576118656114f6565b5b61187285828601611717565b9150509250929050565b60007fffffffff0000000000000000000000000000000000000000000000000000000082169050919050565b6118b18161187c565b81146118bc57600080fd5b50565b6000813590506118ce816118a8565b92915050565b600080600080608085870312156118ee576118ed6114f1565b5b60006118fc8782880161180b565b945050602061190d8782880161151c565b935050604061191e878288016118bf565b925050606061192f8782880161151c565b91505092959194509250565b611944816114ab565b811461194f57600080fd5b50565b6000813590506119618161193b565b92915050565b60006020828403121561197d5761197c6114f1565b5b600061198b84828501611952565b91505092915050565b7f4e487b7100000000000000000000000000000000000000000000000000000000600052602260045260246000fd5b600060028204905060018216806119db57607f821691505b6020821081036119ee576119ed611994565b5b50919050565b7f4e487b7100000000000000000000000000000000000000000000000000000000600052603260045260246000fd5b7f4e487b7100000000000000000000000000000000000000000000000000000000600052601160045260246000fd5b6000611a5d826114fb565b91507fffffffffffffffffffffffffffffffffffffffffffffffffffffffffffffffff8203611a8f57611a8e611a23565b5b600182019050919050565b60008190508160005260206000209050919050565b60006020601f8301049050919050565b600082821b905092915050565b600060088302611afc7fffffffffffffffffffffffffffffffffffffffffffffffffffffffffffffffff82611abf565b611b068683611abf565b95508019841693508086168417925050509392505050565b6000819050919050565b6000611b43611b3e611b39846114fb565b611b1e565b6114fb565b9050919050565b6000819050919050565b611b5d83611b28565b611b71611b6982611b4a565b848454611acc565b825550505050565b600090565b611b86611b79565b611b91818484611b54565b505050565b5b81811015611bb557611baa600082611b7e565b600181019050611b97565b5050565b601f821115611bfa57611bcb81611a9a565b611bd484611aaf565b81016020851015611be3578190505b611bf7611bef85611aaf565b830182611b96565b50505b505050565b600082821c905092915050565b6000611c1d60001984600802611bff565b1980831691505092915050565b6000611c368383611c0c565b9150826002028217905092915050565b611c4f8261155e565b67ffffffffffffffff811115611c6857611c6761161a565b5b611c7282546119c3565b611c7d828285611bb9565b600060209050601f831160018114611cb05760008415611c9e578287015190505b611ca88582611c2a565b865550611d10565b601f198416611cbe86611a9a565b60005b82811015611ce657848901518255600182019150602085019450602081019050611cc1565b86831015611d035784890151611cff601f891682611c0c565b8355505b6001600288020188555050505b505050505050565b6000611d23826114fb565b9150611d2e836114fb565b9250828203905081811115611d4657611d45611a23565b5b92915050565b611d55816114fb565b82525050565b6000604082019050611d706000830185611d4c565b8181036020830152611d8281846115b5565b90509392505050565b7f4d7573742062652070726f706f736564206f776e657200000000000000000000600082015250565b6000611dc1601683611569565b9150611dcc82611d8b565b602082019050919050565b60006020820190508181036000830152611df081611db4565b9050919050565b600081519050611e0681611505565b92915050565b600060208284031215611e2257611e216114f1565b5b6000611e3084828501611df7565b91505092915050565b6000604082019050611e4e60008301856114bd565b611e5b6020830184611d4c565b9392505050565b60008115159050919050565b611e7781611e62565b8114611e8257600080fd5b50565b600081519050611e9481611e6e565b92915050565b600060208284031215611eb057611eaf6114f1565b5b6000611ebe84828501611e85565b91505092915050565b7f556e61626c6520746f207472616e736665720000000000000000000000000000600082015250565b6000611efd601283611569565b9150611f0882611ec7565b602082019050919050565b60006020820190508181036000830152611f2c81611ef0565b9050919050565b7f4a6f6220696e646578206f7574206f6620626f756e6473000000000000000000600082015250565b6000611f69601783611569565b9150611f7482611f33565b602082019050919050565b60006020820190508181036000830152611f9881611f5c565b9050919050565b600081549050611fae816119c3565b9050919050565b818103611fc357505061209b565b611fcc82611f9f565b67ffffffffffffffff811115611fe557611fe461161a565b5b611fef82546119c3565b611ffa828285611bb9565b6000601f8311600181146120295760008415612017578287015490505b6120218582611c2a565b865550612094565b601f19841661203787611a9a565b965061204286611a9a565b60005b8281101561206a57848901548255600182019150600185019450602081019050612045565b868310156120875784890154612083601f891682611c0c565b8355505b6001600288020188555050505b5050505050505b565b7f4e487b7100000000000000000000000000000000000000000000000000000000600052603160045260246000fd5b60006020820190506120e16000830184611d4c565b92915050565b7f536f75726365206d75737420626520746865206f7261636c65206f662074686560008201527f2072657175657374000000000000000000000000000000000000000000000000602082015250565b6000612143602883611569565b915061214e826120e7565b604082019050919050565b6000602082019050818103600083015261217281612136565b9050919050565b6000612184826114fb565b915061218f836114fb565b925082820261219d816114fb565b915082820484148315176121b4576121b3611a23565b5b5092915050565b7f4e487b7100000000000000000000000000000000000000000000000000000000600052601260045260246000fd5b60006121f5826114fb565b9150612200836114fb565b9250826122105761220f6121bb565b5b828204905092915050565b7f4f6e6c792063616c6c61626c65206279206f776e657200000000000000000000600082015250565b6000612251601683611569565b915061225c8261221b565b602082019050919050565b6000602082019050818103600083015261228081612244565b9050919050565b612290816117ea565b82525050565b61229f8161187c565b82525050565b60006080820190506122ba6000830187612287565b6122c76020830186611d4c565b6122d46040830185612296565b6122e16060830184611d4c565b95945050505050565b7f43616e6e6f74207472616e7366657220746f2073656c66000000000000000000600082015250565b6000612320601783611569565b915061232b826122ea565b602082019050919050565b6000602082019050818103600083015261234f81612313565b9050919050565b6000612361826114fb565b915061236c836114fb565b925082820190508082111561238457612383611a23565b5b92915050565b600081519050919050565b600082825260208201905092915050565b60006123b18261238a565b6123bb8185612395565b93506123cb81856020860161157a565b6123d4816115a4565b840191505092915050565b6000610100820190506123f5600083018b6114bd565b612402602083018a611d4c565b61240f6040830189612287565b61241c60608301886114bd565b6124296080830187612296565b61243660a0830186611d4c565b61244360c0830185611d4c565b81810360e083015261245581846123a6565b90509998505050505050505050565b600061247f61247a6124758461148b565b611b1e565b61148b565b9050919050565b600061249182612464565b9050919050565b60006124a382612486565b9050919050565b60008160601b9050919050565b60006124c2826124aa565b9050919050565b60006124d4826124b7565b9050919050565b6124ec6124e782612498565b6124c9565b82525050565b6000819050919050565b61250d612508826114fb565b6124f2565b82525050565b600061251f82856124db565b60148201915061252f82846124fc565b6020820191508190509392505050565b600060608201905061255460008301866114bd565b6125616020830185611d4c565b818103604083015261257381846123a6565b9050949350505050565b7f756e61626c6520746f207472616e73666572416e6443616c6c20746f206f726160008201527f636c650000000000000000000000000000000000000000000000000000000000602082015250565b60006125d9602383611569565b91506125e48261257d565b604082019050919050565b60006020820190508181036000830152612608816125cc565b9050919050565b600061261a826114fb565b9150612625836114fb565b925082612635576126346121bb565b5b82820690509291505056fea2646970667358221220d32c4e56698cdf07f8fb4a55367c452fd3619e15f084c46cc3cb8d10d5597bdf64736f6c63430008130033",
					"opcodes": "PUSH1 0x80 PUSH1 0x40 MSTORE PUSH1 0x1 PUSH1 0x4 SSTORE CALLVALUE DUP1 ISZERO PUSH3 0x16 JUMPI PUSH1 0x0 DUP1 REVERT JUMPDEST POP PUSH1 0x40 MLOAD PUSH3 0x2B35 CODESIZE SUB DUP1 PUSH3 0x2B35 DUP4 CODECOPY DUP2 DUP2 ADD PUSH1 0x40 MSTORE DUP2 ADD SWAP1 PUSH3 0x3C SWAP2 SWAP1 PUSH3 0x388 JUMP JUMPDEST CALLER DUP1 PUSH1 0x0 DUP1 PUSH20 0xFFFFFFFFFFFFFFFFFFFFFFFFFFFFFFFFFFFFFFFF AND DUP3 PUSH20 0xFFFFFFFFFFFFFFFFFFFFFFFFFFFFFFFFFFFFFFFF AND SUB PUSH3 0xB1 JUMPI PUSH1 0x40 MLOAD PUSH32 0x8C379A000000000000000000000000000000000000000000000000000000000 DUP2 MSTORE PUSH1 0x4 ADD PUSH3 0xA8 SWAP1 PUSH3 0x41B JUMP JUMPDEST PUSH1 0x40 MLOAD DUP1 SWAP2 SUB SWAP1 REVERT JUMPDEST DUP2 PUSH1 0x6 PUSH1 0x0 PUSH2 0x100 EXP DUP2 SLOAD DUP2 PUSH20 0xFFFFFFFFFFFFFFFFFFFFFFFFFFFFFFFFFFFFFFFF MUL NOT AND SWAP1 DUP4 PUSH20 0xFFFFFFFFFFFFFFFFFFFFFFFFFFFFFFFFFFFFFFFF AND MUL OR SWAP1 SSTORE POP PUSH1 0x0 PUSH20 0xFFFFFFFFFFFFFFFFFFFFFFFFFFFFFFFFFFFFFFFF AND DUP2 PUSH20 0xFFFFFFFFFFFFFFFFFFFFFFFFFFFFFFFFFFFFFFFF AND EQ PUSH3 0x139 JUMPI PUSH3 0x138 DUP2 PUSH3 0x1A9 PUSH1 0x20 SHL PUSH1 0x20 SHR JUMP JUMPDEST JUMPDEST POP POP POP PUSH3 0x161 PUSH20 0x779877A7B0D9E8603169DDBD7836E478B4624789 PUSH3 0x2DA PUSH1 0x20 SHL PUSH1 0x20 SHR JUMP JUMPDEST DUP1 PUSH1 0x9 PUSH1 0x0 PUSH2 0x100 EXP DUP2 SLOAD DUP2 PUSH20 0xFFFFFFFFFFFFFFFFFFFFFFFFFFFFFFFFFFFFFFFF MUL NOT AND SWAP1 DUP4 PUSH20 0xFFFFFFFFFFFFFFFFFFFFFFFFFFFFFFFFFFFFFFFF AND MUL OR SWAP1 SSTORE POP POP PUSH3 0x4AF JUMP JUMPDEST CALLER PUSH20 0xFFFFFFFFFFFFFFFFFFFFFFFFFFFFFFFFFFFFFFFF AND DUP2 PUSH20 0xFFFFFFFFFFFFFFFFFFFFFFFFFFFFFFFFFFFFFFFF AND SUB PUSH3 0x21A JUMPI PUSH1 0x40 MLOAD PUSH32 0x8C379A000000000000000000000000000000000000000000000000000000000 DUP2 MSTORE PUSH1 0x4 ADD PUSH3 0x211 SWAP1 PUSH3 0x48D JUMP JUMPDEST PUSH1 0x40 MLOAD DUP1 SWAP2 SUB SWAP1 REVERT JUMPDEST DUP1 PUSH1 0x7 PUSH1 0x0 PUSH2 0x100 EXP DUP2 SLOAD DUP2 PUSH20 0xFFFFFFFFFFFFFFFFFFFFFFFFFFFFFFFFFFFFFFFF MUL NOT AND SWAP1 DUP4 PUSH20 0xFFFFFFFFFFFFFFFFFFFFFFFFFFFFFFFFFFFFFFFF AND MUL OR SWAP1 SSTORE POP DUP1 PUSH20 0xFFFFFFFFFFFFFFFFFFFFFFFFFFFFFFFFFFFFFFFF AND PUSH1 0x6 PUSH1 0x0 SWAP1 SLOAD SWAP1 PUSH2 0x100 EXP SWAP1 DIV PUSH20 0xFFFFFFFFFFFFFFFFFFFFFFFFFFFFFFFFFFFFFFFF AND PUSH20 0xFFFFFFFFFFFFFFFFFFFFFFFFFFFFFFFFFFFFFFFF AND PUSH32 0xED8889F560326EB138920D842192F0EB3DD22B4F139C87A2C57538E05BAE1278 PUSH1 0x40 MLOAD PUSH1 0x40 MLOAD DUP1 SWAP2 SUB SWAP1 LOG3 POP JUMP JUMPDEST DUP1 PUSH1 0x2 PUSH1 0x0 PUSH2 0x100 EXP DUP2 SLOAD DUP2 PUSH20 0xFFFFFFFFFFFFFFFFFFFFFFFFFFFFFFFFFFFFFFFF MUL NOT AND SWAP1 DUP4 PUSH20 0xFFFFFFFFFFFFFFFFFFFFFFFFFFFFFFFFFFFFFFFF AND MUL OR SWAP1 SSTORE POP POP JUMP JUMPDEST PUSH1 0x0 DUP1 REVERT JUMPDEST PUSH1 0x0 PUSH20 0xFFFFFFFFFFFFFFFFFFFFFFFFFFFFFFFFFFFFFFFF DUP3 AND SWAP1 POP SWAP2 SWAP1 POP JUMP JUMPDEST PUSH1 0x0 PUSH3 0x350 DUP3 PUSH3 0x323 JUMP JUMPDEST SWAP1 POP SWAP2 SWAP1 POP JUMP JUMPDEST PUSH3 0x362 DUP2 PUSH3 0x343 JUMP JUMPDEST DUP2 EQ PUSH3 0x36E JUMPI PUSH1 0x0 DUP1 REVERT JUMPDEST POP JUMP JUMPDEST PUSH1 0x0 DUP2 MLOAD SWAP1 POP PUSH3 0x382 DUP2 PUSH3 0x357 JUMP JUMPDEST SWAP3 SWAP2 POP POP JUMP JUMPDEST PUSH1 0x0 PUSH1 0x20 DUP3 DUP5 SUB SLT ISZERO PUSH3 0x3A1 JUMPI PUSH3 0x3A0 PUSH3 0x31E JUMP JUMPDEST JUMPDEST PUSH1 0x0 PUSH3 0x3B1 DUP5 DUP3 DUP6 ADD PUSH3 0x371 JUMP JUMPDEST SWAP2 POP POP SWAP3 SWAP2 POP POP JUMP JUMPDEST PUSH1 0x0 DUP3 DUP3 MSTORE PUSH1 0x20 DUP3 ADD SWAP1 POP SWAP3 SWAP2 POP POP JUMP JUMPDEST PUSH32 0x43616E6E6F7420736574206F776E657220746F207A65726F0000000000000000 PUSH1 0x0 DUP3 ADD MSTORE POP JUMP JUMPDEST PUSH1 0x0 PUSH3 0x403 PUSH1 0x18 DUP4 PUSH3 0x3BA JUMP JUMPDEST SWAP2 POP PUSH3 0x410 DUP3 PUSH3 0x3CB JUMP JUMPDEST PUSH1 0x20 DUP3 ADD SWAP1 POP SWAP2 SWAP1 POP JUMP JUMPDEST PUSH1 0x0 PUSH1 0x20 DUP3 ADD SWAP1 POP DUP2 DUP2 SUB PUSH1 0x0 DUP4 ADD MSTORE PUSH3 0x436 DUP2 PUSH3 0x3F4 JUMP JUMPDEST SWAP1 POP SWAP2 SWAP1 POP JUMP JUMPDEST PUSH32 0x43616E6E6F74207472616E7366657220746F2073656C66000000000000000000 PUSH1 0x0 DUP3 ADD MSTORE POP JUMP JUMPDEST PUSH1 0x0 PUSH3 0x475 PUSH1 0x17 DUP4 PUSH3 0x3BA JUMP JUMPDEST SWAP2 POP PUSH3 0x482 DUP3 PUSH3 0x43D JUMP JUMPDEST PUSH1 0x20 DUP3 ADD SWAP1 POP SWAP2 SWAP1 POP JUMP JUMPDEST PUSH1 0x0 PUSH1 0x20 DUP3 ADD SWAP1 POP DUP2 DUP2 SUB PUSH1 0x0 DUP4 ADD MSTORE PUSH3 0x4A8 DUP2 PUSH3 0x466 JUMP JUMPDEST SWAP1 POP SWAP2 SWAP1 POP JUMP JUMPDEST PUSH2 0x2676 DUP1 PUSH3 0x4BF PUSH1 0x0 CODECOPY PUSH1 0x0 RETURN INVALID PUSH1 0x80 PUSH1 0x40 MSTORE CALLVALUE DUP1 ISZERO PUSH2 0x10 JUMPI PUSH1 0x0 DUP1 REVERT JUMPDEST POP PUSH1 0x4 CALLDATASIZE LT PUSH2 0xF5 JUMPI PUSH1 0x0 CALLDATALOAD PUSH1 0xE0 SHR DUP1 PUSH4 0x8DC654A2 GT PUSH2 0x97 JUMPI DUP1 PUSH4 0xD458FA96 GT PUSH2 0x66 JUMPI DUP1 PUSH4 0xD458FA96 EQ PUSH2 0x214 JUMPI DUP1 PUSH4 0xEC65D0F8 EQ PUSH2 0x230 JUMPI DUP1 PUSH4 0xF2FDE38B EQ PUSH2 0x24C JUMPI DUP1 PUSH4 0xF7023BB6 EQ PUSH2 0x268 JUMPI PUSH2 0xF5 JUMP JUMPDEST DUP1 PUSH4 0x8DC654A2 EQ PUSH2 0x1B4 JUMPI DUP1 PUSH4 0x9CB29CBD EQ PUSH2 0x1BE JUMPI DUP1 PUSH4 0xA3416B67 EQ PUSH2 0x1DA JUMPI DUP1 PUSH4 0xA89AE4BA EQ PUSH2 0x1F6 JUMPI PUSH2 0xF5 JUMP JUMPDEST DUP1 PUSH4 0x630C4EBC GT PUSH2 0xD3 JUMPI DUP1 PUSH4 0x630C4EBC EQ PUSH2 0x152 JUMPI DUP1 PUSH4 0x75CB0AC8 EQ PUSH2 0x170 JUMPI DUP1 PUSH4 0x79BA5097 EQ PUSH2 0x18C JUMPI DUP1 PUSH4 0x8DA5CB5B EQ PUSH2 0x196 JUMPI PUSH2 0xF5 JUMP JUMPDEST DUP1 PUSH4 0x165D35E1 EQ PUSH2 0xFA JUMPI DUP1 PUSH4 0x180AEDF3 EQ PUSH2 0x118 JUMPI DUP1 PUSH4 0x2CF2D1D3 EQ PUSH2 0x148 JUMPI JUMPDEST PUSH1 0x0 DUP1 REVERT JUMPDEST PUSH2 0x102 PUSH2 0x284 JUMP JUMPDEST PUSH1 0x40 MLOAD PUSH2 0x10F SWAP2 SWAP1 PUSH2 0x14CC JUMP JUMPDEST PUSH1 0x40 MLOAD DUP1 SWAP2 SUB SWAP1 RETURN JUMPDEST PUSH2 0x132 PUSH1 0x4 DUP1 CALLDATASIZE SUB DUP2 ADD SWAP1 PUSH2 0x12D SWAP2 SWAP1 PUSH2 0x1531 JUMP JUMPDEST PUSH2 0x293 JUMP JUMPDEST PUSH1 0x40 MLOAD PUSH2 0x13F SWAP2 SWAP1 PUSH2 0x15EE JUMP JUMPDEST PUSH1 0x40 MLOAD DUP1 SWAP2 SUB SWAP1 RETURN JUMPDEST PUSH2 0x150 PUSH2 0x345 JUMP JUMPDEST STOP JUMPDEST PUSH2 0x15A PUSH2 0x41D JUMP JUMPDEST PUSH1 0x40 MLOAD PUSH2 0x167 SWAP2 SWAP1 PUSH2 0x15EE JUMP JUMPDEST PUSH1 0x40 MLOAD DUP1 SWAP2 SUB SWAP1 RETURN JUMPDEST PUSH2 0x18A PUSH1 0x4 DUP1 CALLDATASIZE SUB DUP2 ADD SWAP1 PUSH2 0x185 SWAP2 SWAP1 PUSH2 0x1745 JUMP JUMPDEST PUSH2 0x4AB JUMP JUMPDEST STOP JUMPDEST PUSH2 0x194 PUSH2 0x54E JUMP JUMPDEST STOP JUMPDEST PUSH2 0x19E PUSH2 0x6E5 JUMP JUMPDEST PUSH1 0x40 MLOAD PUSH2 0x1AB SWAP2 SWAP1 PUSH2 0x14CC JUMP JUMPDEST PUSH1 0x40 MLOAD DUP1 SWAP2 SUB SWAP1 RETURN JUMPDEST PUSH2 0x1BC PUSH2 0x70F JUMP JUMPDEST STOP JUMPDEST PUSH2 0x1D8 PUSH1 0x4 DUP1 CALLDATASIZE SUB DUP2 ADD SWAP1 PUSH2 0x1D3 SWAP2 SWAP1 PUSH2 0x1531 JUMP JUMPDEST PUSH2 0x85C JUMP JUMPDEST STOP JUMPDEST PUSH2 0x1F4 PUSH1 0x4 DUP1 CALLDATASIZE SUB DUP2 ADD SWAP1 PUSH2 0x1EF SWAP2 SWAP1 PUSH2 0x178E JUMP JUMPDEST PUSH2 0x981 JUMP JUMPDEST STOP JUMPDEST PUSH2 0x1FE PUSH2 0xA3C JUMP JUMPDEST PUSH1 0x40 MLOAD PUSH2 0x20B SWAP2 SWAP1 PUSH2 0x14CC JUMP JUMPDEST PUSH1 0x40 MLOAD DUP1 SWAP2 SUB SWAP1 RETURN JUMPDEST PUSH2 0x22E PUSH1 0x4 DUP1 CALLDATASIZE SUB DUP2 ADD SWAP1 PUSH2 0x229 SWAP2 SWAP1 PUSH2 0x1820 JUMP JUMPDEST PUSH2 0xA62 JUMP JUMPDEST STOP JUMPDEST PUSH2 0x24A PUSH1 0x4 DUP1 CALLDATASIZE SUB DUP2 ADD SWAP1 PUSH2 0x245 SWAP2 SWAP1 PUSH2 0x18D4 JUMP JUMPDEST PUSH2 0xBB4 JUMP JUMPDEST STOP JUMPDEST PUSH2 0x266 PUSH1 0x4 DUP1 CALLDATASIZE SUB DUP2 ADD SWAP1 PUSH2 0x261 SWAP2 SWAP1 PUSH2 0x1967 JUMP JUMPDEST PUSH2 0xBCE JUMP JUMPDEST STOP JUMPDEST PUSH2 0x282 PUSH1 0x4 DUP1 CALLDATASIZE SUB DUP2 ADD SWAP1 PUSH2 0x27D SWAP2 SWAP1 PUSH2 0x1967 JUMP JUMPDEST PUSH2 0xBE2 JUMP JUMPDEST STOP JUMPDEST PUSH1 0x0 PUSH2 0x28E PUSH2 0xC65 JUMP JUMPDEST SWAP1 POP SWAP1 JUMP JUMPDEST PUSH1 0xA DUP2 DUP2 SLOAD DUP2 LT PUSH2 0x2A3 JUMPI PUSH1 0x0 DUP1 REVERT JUMPDEST SWAP1 PUSH1 0x0 MSTORE PUSH1 0x20 PUSH1 0x0 KECCAK256 ADD PUSH1 0x0 SWAP2 POP SWAP1 POP DUP1 PUSH1 0x0 ADD DUP1 SLOAD PUSH2 0x2C2 SWAP1 PUSH2 0x19C3 JUMP JUMPDEST DUP1 PUSH1 0x1F ADD PUSH1 0x20 DUP1 SWAP2 DIV MUL PUSH1 0x20 ADD PUSH1 0x40 MLOAD SWAP1 DUP2 ADD PUSH1 0x40 MSTORE DUP1 SWAP3 SWAP2 SWAP1 DUP2 DUP2 MSTORE PUSH1 0x20 ADD DUP3 DUP1 SLOAD PUSH2 0x2EE SWAP1 PUSH2 0x19C3 JUMP JUMPDEST DUP1 ISZERO PUSH2 0x33B JUMPI DUP1 PUSH1 0x1F LT PUSH2 0x310 JUMPI PUSH2 0x100 DUP1 DUP4 SLOAD DIV MUL DUP4 MSTORE SWAP2 PUSH1 0x20 ADD SWAP2 PUSH2 0x33B JUMP JUMPDEST DUP3 ADD SWAP2 SWAP1 PUSH1 0x0 MSTORE PUSH1 0x20 PUSH1 0x0 KECCAK256 SWAP1 JUMPDEST DUP2 SLOAD DUP2 MSTORE SWAP1 PUSH1 0x1 ADD SWAP1 PUSH1 0x20 ADD DUP1 DUP4 GT PUSH2 0x31E JUMPI DUP3 SWAP1 SUB PUSH1 0x1F AND DUP3 ADD SWAP2 JUMPDEST POP POP POP POP POP SWAP1 POP DUP2 JUMP JUMPDEST PUSH1 0x0 JUMPDEST PUSH1 0xA DUP1 SLOAD SWAP1 POP DUP2 LT ISZERO PUSH2 0x41A JUMPI PUSH2 0x407 PUSH1 0xA DUP3 DUP2 SLOAD DUP2 LT PUSH2 0x36C JUMPI PUSH2 0x36B PUSH2 0x19F4 JUMP JUMPDEST JUMPDEST SWAP1 PUSH1 0x0 MSTORE PUSH1 0x20 PUSH1 0x0 KECCAK256 ADD PUSH1 0x0 ADD DUP1 SLOAD PUSH2 0x384 SWAP1 PUSH2 0x19C3 JUMP JUMPDEST DUP1 PUSH1 0x1F ADD PUSH1 0x20 DUP1 SWAP2 DIV MUL PUSH1 0x20 ADD PUSH1 0x40 MLOAD SWAP1 DUP2 ADD PUSH1 0x40 MSTORE DUP1 SWAP3 SWAP2 SWAP1 DUP2 DUP2 MSTORE PUSH1 0x20 ADD DUP3 DUP1 SLOAD PUSH2 0x3B0 SWAP1 PUSH2 0x19C3 JUMP JUMPDEST DUP1 ISZERO PUSH2 0x3FD JUMPI DUP1 PUSH1 0x1F LT PUSH2 0x3D2 JUMPI PUSH2 0x100 DUP1 DUP4 SLOAD DIV MUL DUP4 MSTORE SWAP2 PUSH1 0x20 ADD SWAP2 PUSH2 0x3FD JUMP JUMPDEST DUP3 ADD SWAP2 SWAP1 PUSH1 0x0 MSTORE PUSH1 0x20 PUSH1 0x0 KECCAK256 SWAP1 JUMPDEST DUP2 SLOAD DUP2 MSTORE SWAP1 PUSH1 0x1 ADD SWAP1 PUSH1 0x20 ADD DUP1 DUP4 GT PUSH2 0x3E0 JUMPI DUP3 SWAP1 SUB PUSH1 0x1F AND DUP3 ADD SWAP2 JUMPDEST POP POP POP POP POP PUSH2 0xC8F JUMP JUMPDEST DUP1 DUP1 PUSH2 0x412 SWAP1 PUSH2 0x1A52 JUMP JUMPDEST SWAP2 POP POP PUSH2 0x348 JUMP JUMPDEST POP JUMP JUMPDEST PUSH1 0x8 DUP1 SLOAD PUSH2 0x42A SWAP1 PUSH2 0x19C3 JUMP JUMPDEST DUP1 PUSH1 0x1F ADD PUSH1 0x20 DUP1 SWAP2 DIV MUL PUSH1 0x20 ADD PUSH1 0x40 MLOAD SWAP1 DUP2 ADD PUSH1 0x40 MSTORE DUP1 SWAP3 SWAP2 SWAP1 DUP2 DUP2 MSTORE PUSH1 0x20 ADD DUP3 DUP1 SLOAD PUSH2 0x456 SWAP1 PUSH2 0x19C3 JUMP JUMPDEST DUP1 ISZERO PUSH2 0x4A3 JUMPI DUP1 PUSH1 0x1F LT PUSH2 0x478 JUMPI PUSH2 0x100 DUP1 DUP4 SLOAD DIV MUL DUP4 MSTORE SWAP2 PUSH1 0x20 ADD SWAP2 PUSH2 0x4A3 JUMP JUMPDEST DUP3 ADD SWAP2 SWAP1 PUSH1 0x0 MSTORE PUSH1 0x20 PUSH1 0x0 KECCAK256 SWAP1 JUMPDEST DUP2 SLOAD DUP2 MSTORE SWAP1 PUSH1 0x1 ADD SWAP1 PUSH1 0x20 ADD DUP1 DUP4 GT PUSH2 0x486 JUMPI DUP3 SWAP1 SUB PUSH1 0x1F AND DUP3 ADD SWAP2 JUMPDEST POP POP POP POP POP DUP2 JUMP JUMPDEST PUSH2 0x4B3 PUSH2 0xCFF JUMP JUMPDEST PUSH1 0xA PUSH1 0x40 MLOAD DUP1 PUSH1 0x20 ADD PUSH1 0x40 MSTORE DUP1 DUP4 DUP2 MSTORE POP SWAP1 DUP1 PUSH1 0x1 DUP2 SLOAD ADD DUP1 DUP3 SSTORE DUP1 SWAP2 POP POP PUSH1 0x1 SWAP1 SUB SWAP1 PUSH1 0x0 MSTORE PUSH1 0x20 PUSH1 0x0 KECCAK256 ADD PUSH1 0x0 SWAP1 SWAP2 SWAP1 SWAP2 SWAP1 SWAP2 POP PUSH1 0x0 DUP3 ADD MLOAD DUP2 PUSH1 0x0 ADD SWAP1 DUP2 PUSH2 0x4FE SWAP2 SWAP1 PUSH2 0x1C46 JUMP JUMPDEST POP POP POP PUSH32 0xD20CD5A820B437A8B626451F79BEA6C725FEE49B38CEC46C1B7EB12B44D40953 PUSH1 0x1 PUSH1 0xA DUP1 SLOAD SWAP1 POP PUSH2 0x534 SWAP2 SWAP1 PUSH2 0x1D18 JUMP JUMPDEST DUP3 PUSH1 0x40 MLOAD PUSH2 0x543 SWAP3 SWAP2 SWAP1 PUSH2 0x1D5B JUMP JUMPDEST PUSH1 0x40 MLOAD DUP1 SWAP2 SUB SWAP1 LOG1 POP JUMP JUMPDEST PUSH1 0x7 PUSH1 0x0 SWAP1 SLOAD SWAP1 PUSH2 0x100 EXP SWAP1 DIV PUSH20 0xFFFFFFFFFFFFFFFFFFFFFFFFFFFFFFFFFFFFFFFF AND PUSH20 0xFFFFFFFFFFFFFFFFFFFFFFFFFFFFFFFFFFFFFFFF AND CALLER PUSH20 0xFFFFFFFFFFFFFFFFFFFFFFFFFFFFFFFFFFFFFFFF AND EQ PUSH2 0x5DE JUMPI PUSH1 0x40 MLOAD PUSH32 0x8C379A000000000000000000000000000000000000000000000000000000000 DUP2 MSTORE PUSH1 0x4 ADD PUSH2 0x5D5 SWAP1 PUSH2 0x1DD7 JUMP JUMPDEST PUSH1 0x40 MLOAD DUP1 SWAP2 SUB SWAP1 REVERT JUMPDEST PUSH1 0x0 PUSH1 0x6 PUSH1 0x0 SWAP1 SLOAD SWAP1 PUSH2 0x100 EXP SWAP1 DIV PUSH20 0xFFFFFFFFFFFFFFFFFFFFFFFFFFFFFFFFFFFFFFFF AND SWAP1 POP CALLER PUSH1 0x6 PUSH1 0x0 PUSH2 0x100 EXP DUP2 SLOAD DUP2 PUSH20 0xFFFFFFFFFFFFFFFFFFFFFFFFFFFFFFFFFFFFFFFF MUL NOT AND SWAP1 DUP4 PUSH20 0xFFFFFFFFFFFFFFFFFFFFFFFFFFFFFFFFFFFFFFFF AND MUL OR SWAP1 SSTORE POP PUSH1 0x0 PUSH1 0x7 PUSH1 0x0 PUSH2 0x100 EXP DUP2 SLOAD DUP2 PUSH20 0xFFFFFFFFFFFFFFFFFFFFFFFFFFFFFFFFFFFFFFFF MUL NOT AND SWAP1 DUP4 PUSH20 0xFFFFFFFFFFFFFFFFFFFFFFFFFFFFFFFFFFFFFFFF AND MUL OR SWAP1 SSTORE POP CALLER PUSH20 0xFFFFFFFFFFFFFFFFFFFFFFFFFFFFFFFFFFFFFFFF AND DUP2 PUSH20 0xFFFFFFFFFFFFFFFFFFFFFFFFFFFFFFFFFFFFFFFF AND PUSH32 0x8BE0079C531659141344CD1FD0A4F28419497F9722A3DAAFE3B4186F6B6457E0 PUSH1 0x40 MLOAD PUSH1 0x40 MLOAD DUP1 SWAP2 SUB SWAP1 LOG3 POP JUMP JUMPDEST PUSH1 0x0 PUSH1 0x6 PUSH1 0x0 SWAP1 SLOAD SWAP1 PUSH2 0x100 EXP SWAP1 DIV PUSH20 0xFFFFFFFFFFFFFFFFFFFFFFFFFFFFFFFFFFFFFFFF AND SWAP1 POP SWAP1 JUMP JUMPDEST PUSH2 0x717 PUSH2 0xCFF JUMP JUMPDEST PUSH1 0x0 PUSH2 0x721 PUSH2 0xC65 JUMP JUMPDEST SWAP1 POP DUP1 PUSH20 0xFFFFFFFFFFFFFFFFFFFFFFFFFFFFFFFFFFFFFFFF AND PUSH4 0xA9059CBB CALLER DUP4 PUSH20 0xFFFFFFFFFFFFFFFFFFFFFFFFFFFFFFFFFFFFFFFF AND PUSH4 0x70A08231 ADDRESS PUSH1 0x40 MLOAD DUP3 PUSH4 0xFFFFFFFF AND PUSH1 0xE0 SHL DUP2 MSTORE PUSH1 0x4 ADD PUSH2 0x779 SWAP2 SWAP1 PUSH2 0x14CC JUMP JUMPDEST PUSH1 0x20 PUSH1 0x40 MLOAD DUP1 DUP4 SUB DUP2 DUP7 GAS STATICCALL ISZERO DUP1 ISZERO PUSH2 0x796 JUMPI RETURNDATASIZE PUSH1 0x0 DUP1 RETURNDATACOPY RETURNDATASIZE PUSH1 0x0 REVERT JUMPDEST POP POP POP POP PUSH1 0x40 MLOAD RETURNDATASIZE PUSH1 0x1F NOT PUSH1 0x1F DUP3 ADD AND DUP3 ADD DUP1 PUSH1 0x40 MSTORE POP DUP2 ADD SWAP1 PUSH2 0x7BA SWAP2 SWAP1 PUSH2 0x1E0C JUMP JUMPDEST PUSH1 0x40 MLOAD DUP4 PUSH4 0xFFFFFFFF AND PUSH1 0xE0 SHL DUP2 MSTORE PUSH1 0x4 ADD PUSH2 0x7D7 SWAP3 SWAP2 SWAP1 PUSH2 0x1E39 JUMP JUMPDEST PUSH1 0x20 PUSH1 0x40 MLOAD DUP1 DUP4 SUB DUP2 PUSH1 0x0 DUP8 GAS CALL ISZERO DUP1 ISZERO PUSH2 0x7F6 JUMPI RETURNDATASIZE PUSH1 0x0 DUP1 RETURNDATACOPY RETURNDATASIZE PUSH1 0x0 REVERT JUMPDEST POP POP POP POP PUSH1 0x40 MLOAD RETURNDATASIZE PUSH1 0x1F NOT PUSH1 0x1F DUP3 ADD AND DUP3 ADD DUP1 PUSH1 0x40 MSTORE POP DUP2 ADD SWAP1 PUSH2 0x81A SWAP2 SWAP1 PUSH2 0x1E9A JUMP JUMPDEST PUSH2 0x859 JUMPI PUSH1 0x40 MLOAD PUSH32 0x8C379A000000000000000000000000000000000000000000000000000000000 DUP2 MSTORE PUSH1 0x4 ADD PUSH2 0x850 SWAP1 PUSH2 0x1F13 JUMP JUMPDEST PUSH1 0x40 MLOAD DUP1 SWAP2 SUB SWAP1 REVERT JUMPDEST POP JUMP JUMPDEST PUSH2 0x864 PUSH2 0xCFF JUMP JUMPDEST PUSH1 0xA DUP1 SLOAD SWAP1 POP DUP2 LT PUSH2 0x8AB JUMPI PUSH1 0x40 MLOAD PUSH32 0x8C379A000000000000000000000000000000000000000000000000000000000 DUP2 MSTORE PUSH1 0x4 ADD PUSH2 0x8A2 SWAP1 PUSH2 0x1F7F JUMP JUMPDEST PUSH1 0x40 MLOAD DUP1 SWAP2 SUB SWAP1 REVERT JUMPDEST PUSH1 0xA PUSH1 0x1 PUSH1 0xA DUP1 SLOAD SWAP1 POP PUSH2 0x8BF SWAP2 SWAP1 PUSH2 0x1D18 JUMP JUMPDEST DUP2 SLOAD DUP2 LT PUSH2 0x8D0 JUMPI PUSH2 0x8CF PUSH2 0x19F4 JUMP JUMPDEST JUMPDEST SWAP1 PUSH1 0x0 MSTORE PUSH1 0x20 PUSH1 0x0 KECCAK256 ADD PUSH1 0xA DUP3 DUP2 SLOAD DUP2 LT PUSH2 0x8EE JUMPI PUSH2 0x8ED PUSH2 0x19F4 JUMP JUMPDEST JUMPDEST SWAP1 PUSH1 0x0 MSTORE PUSH1 0x20 PUSH1 0x0 KECCAK256 ADD PUSH1 0x0 DUP3 ADD DUP2 PUSH1 0x0 ADD SWAP1 DUP2 PUSH2 0x90C SWAP2 SWAP1 PUSH2 0x1FB5 JUMP JUMPDEST POP SWAP1 POP POP PUSH1 0xA DUP1 SLOAD DUP1 PUSH2 0x922 JUMPI PUSH2 0x921 PUSH2 0x209D JUMP JUMPDEST JUMPDEST PUSH1 0x1 SWAP1 SUB DUP2 DUP2 SWAP1 PUSH1 0x0 MSTORE PUSH1 0x20 PUSH1 0x0 KECCAK256 ADD PUSH1 0x0 DUP1 DUP3 ADD PUSH1 0x0 PUSH2 0x943 SWAP2 SWAP1 PUSH2 0x13A7 JUMP JUMPDEST POP POP SWAP1 SSTORE PUSH32 0x6DABA074DBA7F6E2F5FD289E20080BF7047E96329B083FC1DAB326FBEFD762BB DUP2 PUSH1 0x40 MLOAD PUSH2 0x976 SWAP2 SWAP1 PUSH2 0x20CC JUMP JUMPDEST PUSH1 0x40 MLOAD DUP1 SWAP2 SUB SWAP1 LOG1 POP JUMP JUMPDEST PUSH2 0x989 PUSH2 0xCFF JUMP JUMPDEST PUSH1 0xA DUP1 SLOAD SWAP1 POP DUP3 LT PUSH2 0x9D0 JUMPI PUSH1 0x40 MLOAD PUSH32 0x8C379A000000000000000000000000000000000000000000000000000000000 DUP2 MSTORE PUSH1 0x4 ADD PUSH2 0x9C7 SWAP1 PUSH2 0x1F7F JUMP JUMPDEST PUSH1 0x40 MLOAD DUP1 SWAP2 SUB SWAP1 REVERT JUMPDEST DUP1 PUSH1 0xA DUP4 DUP2 SLOAD DUP2 LT PUSH2 0x9E5 JUMPI PUSH2 0x9E4 PUSH2 0x19F4 JUMP JUMPDEST JUMPDEST SWAP1 PUSH1 0x0 MSTORE PUSH1 0x20 PUSH1 0x0 KECCAK256 ADD PUSH1 0x0 ADD SWAP1 DUP2 PUSH2 0x9FE SWAP2 SWAP1 PUSH2 0x1C46 JUMP JUMPDEST POP PUSH32 0x4B8F0934C14DA92E4E0907A10B2B403A99FAE79D2F3961B5C7F78744ED443404 DUP3 DUP3 PUSH1 0x40 MLOAD PUSH2 0xA30 SWAP3 SWAP2 SWAP1 PUSH2 0x1D5B JUMP JUMPDEST PUSH1 0x40 MLOAD DUP1 SWAP2 SUB SWAP1 LOG1 POP POP JUMP JUMPDEST PUSH1 0x9 PUSH1 0x0 SWAP1 SLOAD SWAP1 PUSH2 0x100 EXP SWAP1 DIV PUSH20 0xFFFFFFFFFFFFFFFFFFFFFFFFFFFFFFFFFFFFFFFF AND DUP2 JUMP JUMPDEST DUP2 PUSH1 0x5 PUSH1 0x0 DUP3 DUP2 MSTORE PUSH1 0x20 ADD SWAP1 DUP2 MSTORE PUSH1 0x20 ADD PUSH1 0x0 KECCAK256 PUSH1 0x0 SWAP1 SLOAD SWAP1 PUSH2 0x100 EXP SWAP1 DIV PUSH20 0xFFFFFFFFFFFFFFFFFFFFFFFFFFFFFFFFFFFFFFFF AND PUSH20 0xFFFFFFFFFFFFFFFFFFFFFFFFFFFFFFFFFFFFFFFF AND CALLER PUSH20 0xFFFFFFFFFFFFFFFFFFFFFFFFFFFFFFFFFFFFFFFF AND EQ PUSH2 0xB04 JUMPI PUSH1 0x40 MLOAD PUSH32 0x8C379A000000000000000000000000000000000000000000000000000000000 DUP2 MSTORE PUSH1 0x4 ADD PUSH2 0xAFB SWAP1 PUSH2 0x2159 JUMP JUMPDEST PUSH1 0x40 MLOAD DUP1 SWAP2 SUB SWAP1 REVERT JUMPDEST PUSH1 0x5 PUSH1 0x0 DUP3 DUP2 MSTORE PUSH1 0x20 ADD SWAP1 DUP2 MSTORE PUSH1 0x20 ADD PUSH1 0x0 KECCAK256 PUSH1 0x0 PUSH2 0x100 EXP DUP2 SLOAD SWAP1 PUSH20 0xFFFFFFFFFFFFFFFFFFFFFFFFFFFFFFFFFFFFFFFF MUL NOT AND SWAP1 SSTORE DUP1 PUSH32 0x7CC135E0CEBB02C3480AE5D74D377283180A2601F8F644EDF7987B009316C63A PUSH1 0x40 MLOAD PUSH1 0x40 MLOAD DUP1 SWAP2 SUB SWAP1 LOG2 DUP3 PUSH32 0xA4D501C645C4B43D9E4493C2B500E710EBB5FC182BBCDFA237EF5FF889F8FC89 DUP4 PUSH1 0x40 MLOAD PUSH2 0xB97 SWAP2 SWAP1 PUSH2 0x15EE JUMP JUMPDEST PUSH1 0x40 MLOAD DUP1 SWAP2 SUB SWAP1 LOG2 DUP2 PUSH1 0x8 SWAP1 DUP2 PUSH2 0xBAE SWAP2 SWAP1 PUSH2 0x1C46 JUMP JUMPDEST POP POP POP POP JUMP JUMPDEST PUSH2 0xBBC PUSH2 0xCFF JUMP JUMPDEST PUSH2 0xBC8 DUP5 DUP5 DUP5 DUP5 PUSH2 0xD91 JUMP JUMPDEST POP POP POP POP JUMP JUMPDEST PUSH2 0xBD6 PUSH2 0xCFF JUMP JUMPDEST PUSH2 0xBDF DUP2 PUSH2 0xEA4 JUMP JUMPDEST POP JUMP JUMPDEST PUSH2 0xBEA PUSH2 0xCFF JUMP JUMPDEST DUP1 PUSH1 0x9 PUSH1 0x0 PUSH2 0x100 EXP DUP2 SLOAD DUP2 PUSH20 0xFFFFFFFFFFFFFFFFFFFFFFFFFFFFFFFFFFFFFFFF MUL NOT AND SWAP1 DUP4 PUSH20 0xFFFFFFFFFFFFFFFFFFFFFFFFFFFFFFFFFFFFFFFF AND MUL OR SWAP1 SSTORE POP PUSH32 0x107A9FAFFFB7AC890F780879E423760C9FFEA8DCEE8045681F40F542AEDE2CB8 DUP2 PUSH1 0x40 MLOAD PUSH2 0xC5A SWAP2 SWAP1 PUSH2 0x14CC JUMP JUMPDEST PUSH1 0x40 MLOAD DUP1 SWAP2 SUB SWAP1 LOG1 POP JUMP JUMPDEST PUSH1 0x0 PUSH1 0x2 PUSH1 0x0 SWAP1 SLOAD SWAP1 PUSH2 0x100 EXP SWAP1 DIV PUSH20 0xFFFFFFFFFFFFFFFFFFFFFFFFFFFFFFFFFFFFFFFF AND SWAP1 POP SWAP1 JUMP JUMPDEST PUSH1 0x0 PUSH2 0xCAB PUSH2 0xC9D DUP4 PUSH2 0xFD2 JUMP JUMPDEST ADDRESS PUSH4 0xD458FA96 PUSH1 0xE0 SHL PUSH2 0xFFB JUMP JUMPDEST SWAP1 POP PUSH2 0xCFA PUSH1 0x9 PUSH1 0x0 SWAP1 SLOAD SWAP1 PUSH2 0x100 EXP SWAP1 DIV PUSH20 0xFFFFFFFFFFFFFFFFFFFFFFFFFFFFFFFFFFFFFFFF AND DUP3 PUSH1 0xA PUSH8 0xDE0B6B3A7640000 PUSH1 0x1 PUSH2 0xCEB SWAP2 SWAP1 PUSH2 0x2179 JUMP JUMPDEST PUSH2 0xCF5 SWAP2 SWAP1 PUSH2 0x21EA JUMP JUMPDEST PUSH2 0x102C JUMP JUMPDEST POP POP POP JUMP JUMPDEST PUSH1 0x6 PUSH1 0x0 SWAP1 SLOAD SWAP1 PUSH2 0x100 EXP SWAP1 DIV PUSH20 0xFFFFFFFFFFFFFFFFFFFFFFFFFFFFFFFFFFFFFFFF AND PUSH20 0xFFFFFFFFFFFFFFFFFFFFFFFFFFFFFFFFFFFFFFFF AND CALLER PUSH20 0xFFFFFFFFFFFFFFFFFFFFFFFFFFFFFFFFFFFFFFFF AND EQ PUSH2 0xD8F JUMPI PUSH1 0x40 MLOAD PUSH32 0x8C379A000000000000000000000000000000000000000000000000000000000 DUP2 MSTORE PUSH1 0x4 ADD PUSH2 0xD86 SWAP1 PUSH2 0x2267 JUMP JUMPDEST PUSH1 0x40 MLOAD DUP1 SWAP2 SUB SWAP1 REVERT JUMPDEST JUMP JUMPDEST PUSH1 0x0 PUSH1 0x5 PUSH1 0x0 DUP7 DUP2 MSTORE PUSH1 0x20 ADD SWAP1 DUP2 MSTORE PUSH1 0x20 ADD PUSH1 0x0 KECCAK256 PUSH1 0x0 SWAP1 SLOAD SWAP1 PUSH2 0x100 EXP SWAP1 DIV PUSH20 0xFFFFFFFFFFFFFFFFFFFFFFFFFFFFFFFFFFFFFFFF AND SWAP1 POP PUSH1 0x5 PUSH1 0x0 DUP7 DUP2 MSTORE PUSH1 0x20 ADD SWAP1 DUP2 MSTORE PUSH1 0x20 ADD PUSH1 0x0 KECCAK256 PUSH1 0x0 PUSH2 0x100 EXP DUP2 SLOAD SWAP1 PUSH20 0xFFFFFFFFFFFFFFFFFFFFFFFFFFFFFFFFFFFFFFFF MUL NOT AND SWAP1 SSTORE DUP5 PUSH32 0xE1FE3AFA0F7F761FF0A8B89086790EFD5140D2907EBD5B7FF6BFCB5E075FD4C5 PUSH1 0x40 MLOAD PUSH1 0x40 MLOAD DUP1 SWAP2 SUB SWAP1 LOG2 DUP1 PUSH20 0xFFFFFFFFFFFFFFFFFFFFFFFFFFFFFFFFFFFFFFFF AND PUSH4 0x6EE4D553 DUP7 DUP7 DUP7 DUP7 PUSH1 0x40 MLOAD DUP6 PUSH4 0xFFFFFFFF AND PUSH1 0xE0 SHL DUP2 MSTORE PUSH1 0x4 ADD PUSH2 0xE6B SWAP5 SWAP4 SWAP3 SWAP2 SWAP1 PUSH2 0x22A5 JUMP JUMPDEST PUSH1 0x0 PUSH1 0x40 MLOAD DUP1 DUP4 SUB DUP2 PUSH1 0x0 DUP8 DUP1 EXTCODESIZE ISZERO DUP1 ISZERO PUSH2 0xE85 JUMPI PUSH1 0x0 DUP1 REVERT JUMPDEST POP GAS CALL ISZERO DUP1 ISZERO PUSH2 0xE99 JUMPI RETURNDATASIZE PUSH1 0x0 DUP1 RETURNDATACOPY RETURNDATASIZE PUSH1 0x0 REVERT JUMPDEST POP POP POP POP POP POP POP POP POP JUMP JUMPDEST CALLER PUSH20 0xFFFFFFFFFFFFFFFFFFFFFFFFFFFFFFFFFFFFFFFF AND DUP2 PUSH20 0xFFFFFFFFFFFFFFFFFFFFFFFFFFFFFFFFFFFFFFFF AND SUB PUSH2 0xF12 JUMPI PUSH1 0x40 MLOAD PUSH32 0x8C379A000000000000000000000000000000000000000000000000000000000 DUP2 MSTORE PUSH1 0x4 ADD PUSH2 0xF09 SWAP1 PUSH2 0x2336 JUMP JUMPDEST PUSH1 0x40 MLOAD DUP1 SWAP2 SUB SWAP1 REVERT JUMPDEST DUP1 PUSH1 0x7 PUSH1 0x0 PUSH2 0x100 EXP DUP2 SLOAD DUP2 PUSH20 0xFFFFFFFFFFFFFFFFFFFFFFFFFFFFFFFFFFFFFFFF MUL NOT AND SWAP1 DUP4 PUSH20 0xFFFFFFFFFFFFFFFFFFFFFFFFFFFFFFFFFFFFFFFF AND MUL OR SWAP1 SSTORE POP DUP1 PUSH20 0xFFFFFFFFFFFFFFFFFFFFFFFFFFFFFFFFFFFFFFFF AND PUSH1 0x6 PUSH1 0x0 SWAP1 SLOAD SWAP1 PUSH2 0x100 EXP SWAP1 DIV PUSH20 0xFFFFFFFFFFFFFFFFFFFFFFFFFFFFFFFFFFFFFFFF AND PUSH20 0xFFFFFFFFFFFFFFFFFFFFFFFFFFFFFFFFFFFFFFFF AND PUSH32 0xED8889F560326EB138920D842192F0EB3DD22B4F139C87A2C57538E05BAE1278 PUSH1 0x40 MLOAD PUSH1 0x40 MLOAD DUP1 SWAP2 SUB SWAP1 LOG3 POP JUMP JUMPDEST PUSH1 0x0 DUP1 DUP3 SWAP1 POP PUSH1 0x0 DUP2 MLOAD SUB PUSH2 0xFED JUMPI PUSH1 0x0 DUP1 SHL SWAP2 POP POP PUSH2 0xFF6 JUMP JUMPDEST PUSH1 0x20 DUP4 ADD MLOAD SWAP2 POP POP JUMPDEST SWAP2 SWAP1 POP JUMP JUMPDEST PUSH2 0x1003 PUSH2 0x13E7 JUMP JUMPDEST PUSH2 0x100B PUSH2 0x13E7 JUMP JUMPDEST PUSH2 0x1022 DUP6 DUP6 DUP6 DUP5 PUSH2 0x10F8 SWAP1 SWAP4 SWAP3 SWAP2 SWAP1 PUSH4 0xFFFFFFFF AND JUMP JUMPDEST SWAP2 POP POP SWAP4 SWAP3 POP POP POP JUMP JUMPDEST PUSH1 0x0 DUP1 PUSH1 0x4 SLOAD SWAP1 POP PUSH1 0x1 DUP2 PUSH2 0x1041 SWAP2 SWAP1 PUSH2 0x2356 JUMP JUMPDEST PUSH1 0x4 DUP2 SWAP1 SSTORE POP PUSH1 0x0 PUSH4 0x40429946 PUSH1 0xE0 SHL PUSH1 0x0 DUP1 DUP8 PUSH1 0x0 ADD MLOAD ADDRESS DUP10 PUSH1 0x40 ADD MLOAD DUP8 PUSH1 0x1 DUP13 PUSH1 0x80 ADD MLOAD PUSH1 0x0 ADD MLOAD PUSH1 0x40 MLOAD PUSH1 0x24 ADD PUSH2 0x1082 SWAP9 SWAP8 SWAP7 SWAP6 SWAP5 SWAP4 SWAP3 SWAP2 SWAP1 PUSH2 0x23DF JUMP JUMPDEST PUSH1 0x40 MLOAD PUSH1 0x20 DUP2 DUP4 SUB SUB DUP2 MSTORE SWAP1 PUSH1 0x40 MSTORE SWAP1 PUSH28 0xFFFFFFFFFFFFFFFFFFFFFFFFFFFFFFFFFFFFFFFFFFFFFFFFFFFFFFFF NOT AND PUSH1 0x20 DUP3 ADD DUP1 MLOAD PUSH28 0xFFFFFFFFFFFFFFFFFFFFFFFFFFFFFFFFFFFFFFFFFFFFFFFFFFFFFFFF DUP4 DUP2 DUP4 AND OR DUP4 MSTORE POP POP POP POP SWAP1 POP PUSH2 0x10ED DUP7 DUP4 DUP7 DUP5 PUSH2 0x11A8 JUMP JUMPDEST SWAP3 POP POP POP SWAP4 SWAP3 POP POP POP JUMP JUMPDEST PUSH2 0x1100 PUSH2 0x13E7 JUMP JUMPDEST PUSH2 0x1110 DUP6 PUSH1 0x80 ADD MLOAD PUSH2 0x100 PUSH2 0x133D JUMP JUMPDEST POP DUP4 DUP6 PUSH1 0x0 ADD DUP2 DUP2 MSTORE POP POP DUP3 DUP6 PUSH1 0x20 ADD SWAP1 PUSH20 0xFFFFFFFFFFFFFFFFFFFFFFFFFFFFFFFFFFFFFFFF AND SWAP1 DUP2 PUSH20 0xFFFFFFFFFFFFFFFFFFFFFFFFFFFFFFFFFFFFFFFF AND DUP2 MSTORE POP POP DUP2 DUP6 PUSH1 0x40 ADD SWAP1 PUSH28 0xFFFFFFFFFFFFFFFFFFFFFFFFFFFFFFFFFFFFFFFFFFFFFFFFFFFFFFFF NOT AND SWAP1 DUP2 PUSH28 0xFFFFFFFFFFFFFFFFFFFFFFFFFFFFFFFFFFFFFFFFFFFFFFFFFFFFFFFF NOT AND DUP2 MSTORE POP POP DUP5 SWAP1 POP SWAP5 SWAP4 POP POP POP POP JUMP JUMPDEST PUSH1 0x0 ADDRESS DUP5 PUSH1 0x40 MLOAD PUSH1 0x20 ADD PUSH2 0x11BD SWAP3 SWAP2 SWAP1 PUSH2 0x2513 JUMP JUMPDEST PUSH1 0x40 MLOAD PUSH1 0x20 DUP2 DUP4 SUB SUB DUP2 MSTORE SWAP1 PUSH1 0x40 MSTORE DUP1 MLOAD SWAP1 PUSH1 0x20 ADD KECCAK256 SWAP1 POP DUP5 PUSH1 0x5 PUSH1 0x0 DUP4 DUP2 MSTORE PUSH1 0x20 ADD SWAP1 DUP2 MSTORE PUSH1 0x20 ADD PUSH1 0x0 KECCAK256 PUSH1 0x0 PUSH2 0x100 EXP DUP2 SLOAD DUP2 PUSH20 0xFFFFFFFFFFFFFFFFFFFFFFFFFFFFFFFFFFFFFFFF MUL NOT AND SWAP1 DUP4 PUSH20 0xFFFFFFFFFFFFFFFFFFFFFFFFFFFFFFFFFFFFFFFF AND MUL OR SWAP1 SSTORE POP DUP1 PUSH32 0xB5E6E01E79F91267DC17B4E6314D5D4D03593D2CEEE0FBB452B750BD70EA5AF9 PUSH1 0x40 MLOAD PUSH1 0x40 MLOAD DUP1 SWAP2 SUB SWAP1 LOG2 PUSH1 0x2 PUSH1 0x0 SWAP1 SLOAD SWAP1 PUSH2 0x100 EXP SWAP1 DIV PUSH20 0xFFFFFFFFFFFFFFFFFFFFFFFFFFFFFFFFFFFFFFFF AND PUSH20 0xFFFFFFFFFFFFFFFFFFFFFFFFFFFFFFFFFFFFFFFF AND PUSH4 0x4000AEA0 DUP7 DUP6 DUP6 PUSH1 0x40 MLOAD DUP5 PUSH4 0xFFFFFFFF AND PUSH1 0xE0 SHL DUP2 MSTORE PUSH1 0x4 ADD PUSH2 0x12B3 SWAP4 SWAP3 SWAP2 SWAP1 PUSH2 0x253F JUMP JUMPDEST PUSH1 0x20 PUSH1 0x40 MLOAD DUP1 DUP4 SUB DUP2 PUSH1 0x0 DUP8 GAS CALL ISZERO DUP1 ISZERO PUSH2 0x12D2 JUMPI RETURNDATASIZE PUSH1 0x0 DUP1 RETURNDATACOPY RETURNDATASIZE PUSH1 0x0 REVERT JUMPDEST POP POP POP POP PUSH1 0x40 MLOAD RETURNDATASIZE PUSH1 0x1F NOT PUSH1 0x1F DUP3 ADD AND DUP3 ADD DUP1 PUSH1 0x40 MSTORE POP DUP2 ADD SWAP1 PUSH2 0x12F6 SWAP2 SWAP1 PUSH2 0x1E9A JUMP JUMPDEST PUSH2 0x1335 JUMPI PUSH1 0x40 MLOAD PUSH32 0x8C379A000000000000000000000000000000000000000000000000000000000 DUP2 MSTORE PUSH1 0x4 ADD PUSH2 0x132C SWAP1 PUSH2 0x25EF JUMP JUMPDEST PUSH1 0x40 MLOAD DUP1 SWAP2 SUB SWAP1 REVERT JUMPDEST SWAP5 SWAP4 POP POP POP POP JUMP JUMPDEST PUSH2 0x1345 PUSH2 0x1454 JUMP JUMPDEST PUSH1 0x0 PUSH1 0x20 DUP4 PUSH2 0x1354 SWAP2 SWAP1 PUSH2 0x260F JUMP JUMPDEST EQ PUSH2 0x1380 JUMPI PUSH1 0x20 DUP3 PUSH2 0x1366 SWAP2 SWAP1 PUSH2 0x260F JUMP JUMPDEST PUSH1 0x20 PUSH2 0x1372 SWAP2 SWAP1 PUSH2 0x1D18 JUMP JUMPDEST DUP3 PUSH2 0x137D SWAP2 SWAP1 PUSH2 0x2356 JUMP JUMPDEST SWAP2 POP JUMPDEST DUP2 DUP4 PUSH1 0x20 ADD DUP2 DUP2 MSTORE POP POP PUSH1 0x40 MLOAD DUP1 DUP5 MSTORE PUSH1 0x0 DUP2 MSTORE DUP3 DUP2 ADD PUSH1 0x20 ADD PUSH1 0x40 MSTORE POP DUP3 SWAP1 POP SWAP3 SWAP2 POP POP JUMP JUMPDEST POP DUP1 SLOAD PUSH2 0x13B3 SWAP1 PUSH2 0x19C3 JUMP JUMPDEST PUSH1 0x0 DUP3 SSTORE DUP1 PUSH1 0x1F LT PUSH2 0x13C5 JUMPI POP PUSH2 0x13E4 JUMP JUMPDEST PUSH1 0x1F ADD PUSH1 0x20 SWAP1 DIV SWAP1 PUSH1 0x0 MSTORE PUSH1 0x20 PUSH1 0x0 KECCAK256 SWAP1 DUP2 ADD SWAP1 PUSH2 0x13E3 SWAP2 SWAP1 PUSH2 0x146E JUMP JUMPDEST JUMPDEST POP JUMP JUMPDEST PUSH1 0x40 MLOAD DUP1 PUSH1 0xA0 ADD PUSH1 0x40 MSTORE DUP1 PUSH1 0x0 DUP1 NOT AND DUP2 MSTORE PUSH1 0x20 ADD PUSH1 0x0 PUSH20 0xFFFFFFFFFFFFFFFFFFFFFFFFFFFFFFFFFFFFFFFF AND DUP2 MSTORE PUSH1 0x20 ADD PUSH1 0x0 PUSH28 0xFFFFFFFFFFFFFFFFFFFFFFFFFFFFFFFFFFFFFFFFFFFFFFFFFFFFFFFF NOT AND DUP2 MSTORE PUSH1 0x20 ADD PUSH1 0x0 DUP2 MSTORE PUSH1 0x20 ADD PUSH2 0x144E PUSH2 0x1454 JUMP JUMPDEST DUP2 MSTORE POP SWAP1 JUMP JUMPDEST PUSH1 0x40 MLOAD DUP1 PUSH1 0x40 ADD PUSH1 0x40 MSTORE DUP1 PUSH1 0x60 DUP2 MSTORE PUSH1 0x20 ADD PUSH1 0x0 DUP2 MSTORE POP SWAP1 JUMP JUMPDEST JUMPDEST DUP1 DUP3 GT ISZERO PUSH2 0x1487 JUMPI PUSH1 0x0 DUP2 PUSH1 0x0 SWAP1 SSTORE POP PUSH1 0x1 ADD PUSH2 0x146F JUMP JUMPDEST POP SWAP1 JUMP JUMPDEST PUSH1 0x0 PUSH20 0xFFFFFFFFFFFFFFFFFFFFFFFFFFFFFFFFFFFFFFFF DUP3 AND SWAP1 POP SWAP2 SWAP1 POP JUMP JUMPDEST PUSH1 0x0 PUSH2 0x14B6 DUP3 PUSH2 0x148B JUMP JUMPDEST SWAP1 POP SWAP2 SWAP1 POP JUMP JUMPDEST PUSH2 0x14C6 DUP2 PUSH2 0x14AB JUMP JUMPDEST DUP3 MSTORE POP POP JUMP JUMPDEST PUSH1 0x0 PUSH1 0x20 DUP3 ADD SWAP1 POP PUSH2 0x14E1 PUSH1 0x0 DUP4 ADD DUP5 PUSH2 0x14BD JUMP JUMPDEST SWAP3 SWAP2 POP POP JUMP JUMPDEST PUSH1 0x0 PUSH1 0x40 MLOAD SWAP1 POP SWAP1 JUMP JUMPDEST PUSH1 0x0 DUP1 REVERT JUMPDEST PUSH1 0x0 DUP1 REVERT JUMPDEST PUSH1 0x0 DUP2 SWAP1 POP SWAP2 SWAP1 POP JUMP JUMPDEST PUSH2 0x150E DUP2 PUSH2 0x14FB JUMP JUMPDEST DUP2 EQ PUSH2 0x1519 JUMPI PUSH1 0x0 DUP1 REVERT JUMPDEST POP JUMP JUMPDEST PUSH1 0x0 DUP2 CALLDATALOAD SWAP1 POP PUSH2 0x152B DUP2 PUSH2 0x1505 JUMP JUMPDEST SWAP3 SWAP2 POP POP JUMP JUMPDEST PUSH1 0x0 PUSH1 0x20 DUP3 DUP5 SUB SLT ISZERO PUSH2 0x1547 JUMPI PUSH2 0x1546 PUSH2 0x14F1 JUMP JUMPDEST JUMPDEST PUSH1 0x0 PUSH2 0x1555 DUP5 DUP3 DUP6 ADD PUSH2 0x151C JUMP JUMPDEST SWAP2 POP POP SWAP3 SWAP2 POP POP JUMP JUMPDEST PUSH1 0x0 DUP2 MLOAD SWAP1 POP SWAP2 SWAP1 POP JUMP JUMPDEST PUSH1 0x0 DUP3 DUP3 MSTORE PUSH1 0x20 DUP3 ADD SWAP1 POP SWAP3 SWAP2 POP POP JUMP JUMPDEST PUSH1 0x0 JUMPDEST DUP4 DUP2 LT ISZERO PUSH2 0x1598 JUMPI DUP1 DUP3 ADD MLOAD DUP2 DUP5 ADD MSTORE PUSH1 0x20 DUP2 ADD SWAP1 POP PUSH2 0x157D JUMP JUMPDEST PUSH1 0x0 DUP5 DUP5 ADD MSTORE POP POP POP POP JUMP JUMPDEST PUSH1 0x0 PUSH1 0x1F NOT PUSH1 0x1F DUP4 ADD AND SWAP1 POP SWAP2 SWAP1 POP JUMP JUMPDEST PUSH1 0x0 PUSH2 0x15C0 DUP3 PUSH2 0x155E JUMP JUMPDEST PUSH2 0x15CA DUP2 DUP6 PUSH2 0x1569 JUMP JUMPDEST SWAP4 POP PUSH2 0x15DA DUP2 DUP6 PUSH1 0x20 DUP7 ADD PUSH2 0x157A JUMP JUMPDEST PUSH2 0x15E3 DUP2 PUSH2 0x15A4 JUMP JUMPDEST DUP5 ADD SWAP2 POP POP SWAP3 SWAP2 POP POP JUMP JUMPDEST PUSH1 0x0 PUSH1 0x20 DUP3 ADD SWAP1 POP DUP2 DUP2 SUB PUSH1 0x0 DUP4 ADD MSTORE PUSH2 0x1608 DUP2 DUP5 PUSH2 0x15B5 JUMP JUMPDEST SWAP1 POP SWAP3 SWAP2 POP POP JUMP JUMPDEST PUSH1 0x0 DUP1 REVERT JUMPDEST PUSH1 0x0 DUP1 REVERT JUMPDEST PUSH32 0x4E487B7100000000000000000000000000000000000000000000000000000000 PUSH1 0x0 MSTORE PUSH1 0x41 PUSH1 0x4 MSTORE PUSH1 0x24 PUSH1 0x0 REVERT JUMPDEST PUSH2 0x1652 DUP3 PUSH2 0x15A4 JUMP JUMPDEST DUP2 ADD DUP2 DUP2 LT PUSH8 0xFFFFFFFFFFFFFFFF DUP3 GT OR ISZERO PUSH2 0x1671 JUMPI PUSH2 0x1670 PUSH2 0x161A JUMP JUMPDEST JUMPDEST DUP1 PUSH1 0x40 MSTORE POP POP POP JUMP JUMPDEST PUSH1 0x0 PUSH2 0x1684 PUSH2 0x14E7 JUMP JUMPDEST SWAP1 POP PUSH2 0x1690 DUP3 DUP3 PUSH2 0x1649 JUMP JUMPDEST SWAP2 SWAP1 POP JUMP JUMPDEST PUSH1 0x0 PUSH8 0xFFFFFFFFFFFFFFFF DUP3 GT ISZERO PUSH2 0x16B0 JUMPI PUSH2 0x16AF PUSH2 0x161A JUMP JUMPDEST JUMPDEST PUSH2 0x16B9 DUP3 PUSH2 0x15A4 JUMP JUMPDEST SWAP1 POP PUSH1 0x20 DUP2 ADD SWAP1 POP SWAP2 SWAP1 POP JUMP JUMPDEST DUP3 DUP2 DUP4 CALLDATACOPY PUSH1 0x0 DUP4 DUP4 ADD MSTORE POP POP POP JUMP JUMPDEST PUSH1 0x0 PUSH2 0x16E8 PUSH2 0x16E3 DUP5 PUSH2 0x1695 JUMP JUMPDEST PUSH2 0x167A JUMP JUMPDEST SWAP1 POP DUP3 DUP2 MSTORE PUSH1 0x20 DUP2 ADD DUP5 DUP5 DUP5 ADD GT ISZERO PUSH2 0x1704 JUMPI PUSH2 0x1703 PUSH2 0x1615 JUMP JUMPDEST JUMPDEST PUSH2 0x170F DUP5 DUP3 DUP6 PUSH2 0x16C6 JUMP JUMPDEST POP SWAP4 SWAP3 POP POP POP JUMP JUMPDEST PUSH1 0x0 DUP3 PUSH1 0x1F DUP4 ADD SLT PUSH2 0x172C JUMPI PUSH2 0x172B PUSH2 0x1610 JUMP JUMPDEST JUMPDEST DUP2 CALLDATALOAD PUSH2 0x173C DUP5 DUP3 PUSH1 0x20 DUP7 ADD PUSH2 0x16D5 JUMP JUMPDEST SWAP2 POP POP SWAP3 SWAP2 POP POP JUMP JUMPDEST PUSH1 0x0 PUSH1 0x20 DUP3 DUP5 SUB SLT ISZERO PUSH2 0x175B JUMPI PUSH2 0x175A PUSH2 0x14F1 JUMP JUMPDEST JUMPDEST PUSH1 0x0 DUP3 ADD CALLDATALOAD PUSH8 0xFFFFFFFFFFFFFFFF DUP2 GT ISZERO PUSH2 0x1779 JUMPI PUSH2 0x1778 PUSH2 0x14F6 JUMP JUMPDEST JUMPDEST PUSH2 0x1785 DUP5 DUP3 DUP6 ADD PUSH2 0x1717 JUMP JUMPDEST SWAP2 POP POP SWAP3 SWAP2 POP POP JUMP JUMPDEST PUSH1 0x0 DUP1 PUSH1 0x40 DUP4 DUP6 SUB SLT ISZERO PUSH2 0x17A5 JUMPI PUSH2 0x17A4 PUSH2 0x14F1 JUMP JUMPDEST JUMPDEST PUSH1 0x0 PUSH2 0x17B3 DUP6 DUP3 DUP7 ADD PUSH2 0x151C JUMP JUMPDEST SWAP3 POP POP PUSH1 0x20 DUP4 ADD CALLDATALOAD PUSH8 0xFFFFFFFFFFFFFFFF DUP2 GT ISZERO PUSH2 0x17D4 JUMPI PUSH2 0x17D3 PUSH2 0x14F6 JUMP JUMPDEST JUMPDEST PUSH2 0x17E0 DUP6 DUP3 DUP7 ADD PUSH2 0x1717 JUMP JUMPDEST SWAP2 POP POP SWAP3 POP SWAP3 SWAP1 POP JUMP JUMPDEST PUSH1 0x0 DUP2 SWAP1 POP SWAP2 SWAP1 POP JUMP JUMPDEST PUSH2 0x17FD DUP2 PUSH2 0x17EA JUMP JUMPDEST DUP2 EQ PUSH2 0x1808 JUMPI PUSH1 0x0 DUP1 REVERT JUMPDEST POP JUMP JUMPDEST PUSH1 0x0 DUP2 CALLDATALOAD SWAP1 POP PUSH2 0x181A DUP2 PUSH2 0x17F4 JUMP JUMPDEST SWAP3 SWAP2 POP POP JUMP JUMPDEST PUSH1 0x0 DUP1 PUSH1 0x40 DUP4 DUP6 SUB SLT ISZERO PUSH2 0x1837 JUMPI PUSH2 0x1836 PUSH2 0x14F1 JUMP JUMPDEST JUMPDEST PUSH1 0x0 PUSH2 0x1845 DUP6 DUP3 DUP7 ADD PUSH2 0x180B JUMP JUMPDEST SWAP3 POP POP PUSH1 0x20 DUP4 ADD CALLDATALOAD PUSH8 0xFFFFFFFFFFFFFFFF DUP2 GT ISZERO PUSH2 0x1866 JUMPI PUSH2 0x1865 PUSH2 0x14F6 JUMP JUMPDEST JUMPDEST PUSH2 0x1872 DUP6 DUP3 DUP7 ADD PUSH2 0x1717 JUMP JUMPDEST SWAP2 POP POP SWAP3 POP SWAP3 SWAP1 POP JUMP JUMPDEST PUSH1 0x0 PUSH32 0xFFFFFFFF00000000000000000000000000000000000000000000000000000000 DUP3 AND SWAP1 POP SWAP2 SWAP1 POP JUMP JUMPDEST PUSH2 0x18B1 DUP2 PUSH2 0x187C JUMP JUMPDEST DUP2 EQ PUSH2 0x18BC JUMPI PUSH1 0x0 DUP1 REVERT JUMPDEST POP JUMP JUMPDEST PUSH1 0x0 DUP2 CALLDATALOAD SWAP1 POP PUSH2 0x18CE DUP2 PUSH2 0x18A8 JUMP JUMPDEST SWAP3 SWAP2 POP POP JUMP JUMPDEST PUSH1 0x0 DUP1 PUSH1 0x0 DUP1 PUSH1 0x80 DUP6 DUP8 SUB SLT ISZERO PUSH2 0x18EE JUMPI PUSH2 0x18ED PUSH2 0x14F1 JUMP JUMPDEST JUMPDEST PUSH1 0x0 PUSH2 0x18FC DUP8 DUP3 DUP9 ADD PUSH2 0x180B JUMP JUMPDEST SWAP5 POP POP PUSH1 0x20 PUSH2 0x190D DUP8 DUP3 DUP9 ADD PUSH2 0x151C JUMP JUMPDEST SWAP4 POP POP PUSH1 0x40 PUSH2 0x191E DUP8 DUP3 DUP9 ADD PUSH2 0x18BF JUMP JUMPDEST SWAP3 POP POP PUSH1 0x60 PUSH2 0x192F DUP8 DUP3 DUP9 ADD PUSH2 0x151C JUMP JUMPDEST SWAP2 POP POP SWAP3 SWAP6 SWAP2 SWAP5 POP SWAP3 POP JUMP JUMPDEST PUSH2 0x1944 DUP2 PUSH2 0x14AB JUMP JUMPDEST DUP2 EQ PUSH2 0x194F JUMPI PUSH1 0x0 DUP1 REVERT JUMPDEST POP JUMP JUMPDEST PUSH1 0x0 DUP2 CALLDATALOAD SWAP1 POP PUSH2 0x1961 DUP2 PUSH2 0x193B JUMP JUMPDEST SWAP3 SWAP2 POP POP JUMP JUMPDEST PUSH1 0x0 PUSH1 0x20 DUP3 DUP5 SUB SLT ISZERO PUSH2 0x197D JUMPI PUSH2 0x197C PUSH2 0x14F1 JUMP JUMPDEST JUMPDEST PUSH1 0x0 PUSH2 0x198B DUP5 DUP3 DUP6 ADD PUSH2 0x1952 JUMP JUMPDEST SWAP2 POP POP SWAP3 SWAP2 POP POP JUMP JUMPDEST PUSH32 0x4E487B7100000000000000000000000000000000000000000000000000000000 PUSH1 0x0 MSTORE PUSH1 0x22 PUSH1 0x4 MSTORE PUSH1 0x24 PUSH1 0x0 REVERT JUMPDEST PUSH1 0x0 PUSH1 0x2 DUP3 DIV SWAP1 POP PUSH1 0x1 DUP3 AND DUP1 PUSH2 0x19DB JUMPI PUSH1 0x7F DUP3 AND SWAP2 POP JUMPDEST PUSH1 0x20 DUP3 LT DUP2 SUB PUSH2 0x19EE JUMPI PUSH2 0x19ED PUSH2 0x1994 JUMP JUMPDEST JUMPDEST POP SWAP2 SWAP1 POP JUMP JUMPDEST PUSH32 0x4E487B7100000000000000000000000000000000000000000000000000000000 PUSH1 0x0 MSTORE PUSH1 0x32 PUSH1 0x4 MSTORE PUSH1 0x24 PUSH1 0x0 REVERT JUMPDEST PUSH32 0x4E487B7100000000000000000000000000000000000000000000000000000000 PUSH1 0x0 MSTORE PUSH1 0x11 PUSH1 0x4 MSTORE PUSH1 0x24 PUSH1 0x0 REVERT JUMPDEST PUSH1 0x0 PUSH2 0x1A5D DUP3 PUSH2 0x14FB JUMP JUMPDEST SWAP2 POP PUSH32 0xFFFFFFFFFFFFFFFFFFFFFFFFFFFFFFFFFFFFFFFFFFFFFFFFFFFFFFFFFFFFFFFF DUP3 SUB PUSH2 0x1A8F JUMPI PUSH2 0x1A8E PUSH2 0x1A23 JUMP JUMPDEST JUMPDEST PUSH1 0x1 DUP3 ADD SWAP1 POP SWAP2 SWAP1 POP JUMP JUMPDEST PUSH1 0x0 DUP2 SWAP1 POP DUP2 PUSH1 0x0 MSTORE PUSH1 0x20 PUSH1 0x0 KECCAK256 SWAP1 POP SWAP2 SWAP1 POP JUMP JUMPDEST PUSH1 0x0 PUSH1 0x20 PUSH1 0x1F DUP4 ADD DIV SWAP1 POP SWAP2 SWAP1 POP JUMP JUMPDEST PUSH1 0x0 DUP3 DUP3 SHL SWAP1 POP SWAP3 SWAP2 POP POP JUMP JUMPDEST PUSH1 0x0 PUSH1 0x8 DUP4 MUL PUSH2 0x1AFC PUSH32 0xFFFFFFFFFFFFFFFFFFFFFFFFFFFFFFFFFFFFFFFFFFFFFFFFFFFFFFFFFFFFFFFF DUP3 PUSH2 0x1ABF JUMP JUMPDEST PUSH2 0x1B06 DUP7 DUP4 PUSH2 0x1ABF JUMP JUMPDEST SWAP6 POP DUP1 NOT DUP5 AND SWAP4 POP DUP1 DUP7 AND DUP5 OR SWAP3 POP POP POP SWAP4 SWAP3 POP POP POP JUMP JUMPDEST PUSH1 0x0 DUP2 SWAP1 POP SWAP2 SWAP1 POP JUMP JUMPDEST PUSH1 0x0 PUSH2 0x1B43 PUSH2 0x1B3E PUSH2 0x1B39 DUP5 PUSH2 0x14FB JUMP JUMPDEST PUSH2 0x1B1E JUMP JUMPDEST PUSH2 0x14FB JUMP JUMPDEST SWAP1 POP SWAP2 SWAP1 POP JUMP JUMPDEST PUSH1 0x0 DUP2 SWAP1 POP SWAP2 SWAP1 POP JUMP JUMPDEST PUSH2 0x1B5D DUP4 PUSH2 0x1B28 JUMP JUMPDEST PUSH2 0x1B71 PUSH2 0x1B69 DUP3 PUSH2 0x1B4A JUMP JUMPDEST DUP5 DUP5 SLOAD PUSH2 0x1ACC JUMP JUMPDEST DUP3 SSTORE POP POP POP POP JUMP JUMPDEST PUSH1 0x0 SWAP1 JUMP JUMPDEST PUSH2 0x1B86 PUSH2 0x1B79 JUMP JUMPDEST PUSH2 0x1B91 DUP2 DUP5 DUP5 PUSH2 0x1B54 JUMP JUMPDEST POP POP POP JUMP JUMPDEST JUMPDEST DUP2 DUP2 LT ISZERO PUSH2 0x1BB5 JUMPI PUSH2 0x1BAA PUSH1 0x0 DUP3 PUSH2 0x1B7E JUMP JUMPDEST PUSH1 0x1 DUP2 ADD SWAP1 POP PUSH2 0x1B97 JUMP JUMPDEST POP POP JUMP JUMPDEST PUSH1 0x1F DUP3 GT ISZERO PUSH2 0x1BFA JUMPI PUSH2 0x1BCB DUP2 PUSH2 0x1A9A JUMP JUMPDEST PUSH2 0x1BD4 DUP5 PUSH2 0x1AAF JUMP JUMPDEST DUP2 ADD PUSH1 0x20 DUP6 LT ISZERO PUSH2 0x1BE3 JUMPI DUP2 SWAP1 POP JUMPDEST PUSH2 0x1BF7 PUSH2 0x1BEF DUP6 PUSH2 0x1AAF JUMP JUMPDEST DUP4 ADD DUP3 PUSH2 0x1B96 JUMP JUMPDEST POP POP JUMPDEST POP POP POP JUMP JUMPDEST PUSH1 0x0 DUP3 DUP3 SHR SWAP1 POP SWAP3 SWAP2 POP POP JUMP JUMPDEST PUSH1 0x0 PUSH2 0x1C1D PUSH1 0x0 NOT DUP5 PUSH1 0x8 MUL PUSH2 0x1BFF JUMP JUMPDEST NOT DUP1 DUP4 AND SWAP2 POP POP SWAP3 SWAP2 POP POP JUMP JUMPDEST PUSH1 0x0 PUSH2 0x1C36 DUP4 DUP4 PUSH2 0x1C0C JUMP JUMPDEST SWAP2 POP DUP3 PUSH1 0x2 MUL DUP3 OR SWAP1 POP SWAP3 SWAP2 POP POP JUMP JUMPDEST PUSH2 0x1C4F DUP3 PUSH2 0x155E JUMP JUMPDEST PUSH8 0xFFFFFFFFFFFFFFFF DUP2 GT ISZERO PUSH2 0x1C68 JUMPI PUSH2 0x1C67 PUSH2 0x161A JUMP JUMPDEST JUMPDEST PUSH2 0x1C72 DUP3 SLOAD PUSH2 0x19C3 JUMP JUMPDEST PUSH2 0x1C7D DUP3 DUP3 DUP6 PUSH2 0x1BB9 JUMP JUMPDEST PUSH1 0x0 PUSH1 0x20 SWAP1 POP PUSH1 0x1F DUP4 GT PUSH1 0x1 DUP2 EQ PUSH2 0x1CB0 JUMPI PUSH1 0x0 DUP5 ISZERO PUSH2 0x1C9E JUMPI DUP3 DUP8 ADD MLOAD SWAP1 POP JUMPDEST PUSH2 0x1CA8 DUP6 DUP3 PUSH2 0x1C2A JUMP JUMPDEST DUP7 SSTORE POP PUSH2 0x1D10 JUMP JUMPDEST PUSH1 0x1F NOT DUP5 AND PUSH2 0x1CBE DUP7 PUSH2 0x1A9A JUMP JUMPDEST PUSH1 0x0 JUMPDEST DUP3 DUP2 LT ISZERO PUSH2 0x1CE6 JUMPI DUP5 DUP10 ADD MLOAD DUP3 SSTORE PUSH1 0x1 DUP3 ADD SWAP2 POP PUSH1 0x20 DUP6 ADD SWAP5 POP PUSH1 0x20 DUP2 ADD SWAP1 POP PUSH2 0x1CC1 JUMP JUMPDEST DUP7 DUP4 LT ISZERO PUSH2 0x1D03 JUMPI DUP5 DUP10 ADD MLOAD PUSH2 0x1CFF PUSH1 0x1F DUP10 AND DUP3 PUSH2 0x1C0C JUMP JUMPDEST DUP4 SSTORE POP JUMPDEST PUSH1 0x1 PUSH1 0x2 DUP9 MUL ADD DUP9 SSTORE POP POP POP JUMPDEST POP POP POP POP POP POP JUMP JUMPDEST PUSH1 0x0 PUSH2 0x1D23 DUP3 PUSH2 0x14FB JUMP JUMPDEST SWAP2 POP PUSH2 0x1D2E DUP4 PUSH2 0x14FB JUMP JUMPDEST SWAP3 POP DUP3 DUP3 SUB SWAP1 POP DUP2 DUP2 GT ISZERO PUSH2 0x1D46 JUMPI PUSH2 0x1D45 PUSH2 0x1A23 JUMP JUMPDEST JUMPDEST SWAP3 SWAP2 POP POP JUMP JUMPDEST PUSH2 0x1D55 DUP2 PUSH2 0x14FB JUMP JUMPDEST DUP3 MSTORE POP POP JUMP JUMPDEST PUSH1 0x0 PUSH1 0x40 DUP3 ADD SWAP1 POP PUSH2 0x1D70 PUSH1 0x0 DUP4 ADD DUP6 PUSH2 0x1D4C JUMP JUMPDEST DUP2 DUP2 SUB PUSH1 0x20 DUP4 ADD MSTORE PUSH2 0x1D82 DUP2 DUP5 PUSH2 0x15B5 JUMP JUMPDEST SWAP1 POP SWAP4 SWAP3 POP POP POP JUMP JUMPDEST PUSH32 0x4D7573742062652070726F706F736564206F776E657200000000000000000000 PUSH1 0x0 DUP3 ADD MSTORE POP JUMP JUMPDEST PUSH1 0x0 PUSH2 0x1DC1 PUSH1 0x16 DUP4 PUSH2 0x1569 JUMP JUMPDEST SWAP2 POP PUSH2 0x1DCC DUP3 PUSH2 0x1D8B JUMP JUMPDEST PUSH1 0x20 DUP3 ADD SWAP1 POP SWAP2 SWAP1 POP JUMP JUMPDEST PUSH1 0x0 PUSH1 0x20 DUP3 ADD SWAP1 POP DUP2 DUP2 SUB PUSH1 0x0 DUP4 ADD MSTORE PUSH2 0x1DF0 DUP2 PUSH2 0x1DB4 JUMP JUMPDEST SWAP1 POP SWAP2 SWAP1 POP JUMP JUMPDEST PUSH1 0x0 DUP2 MLOAD SWAP1 POP PUSH2 0x1E06 DUP2 PUSH2 0x1505 JUMP JUMPDEST SWAP3 SWAP2 POP POP JUMP JUMPDEST PUSH1 0x0 PUSH1 0x20 DUP3 DUP5 SUB SLT ISZERO PUSH2 0x1E22 JUMPI PUSH2 0x1E21 PUSH2 0x14F1 JUMP JUMPDEST JUMPDEST PUSH1 0x0 PUSH2 0x1E30 DUP5 DUP3 DUP6 ADD PUSH2 0x1DF7 JUMP JUMPDEST SWAP2 POP POP SWAP3 SWAP2 POP POP JUMP JUMPDEST PUSH1 0x0 PUSH1 0x40 DUP3 ADD SWAP1 POP PUSH2 0x1E4E PUSH1 0x0 DUP4 ADD DUP6 PUSH2 0x14BD JUMP JUMPDEST PUSH2 0x1E5B PUSH1 0x20 DUP4 ADD DUP5 PUSH2 0x1D4C JUMP JUMPDEST SWAP4 SWAP3 POP POP POP JUMP JUMPDEST PUSH1 0x0 DUP2 ISZERO ISZERO SWAP1 POP SWAP2 SWAP1 POP JUMP JUMPDEST PUSH2 0x1E77 DUP2 PUSH2 0x1E62 JUMP JUMPDEST DUP2 EQ PUSH2 0x1E82 JUMPI PUSH1 0x0 DUP1 REVERT JUMPDEST POP JUMP JUMPDEST PUSH1 0x0 DUP2 MLOAD SWAP1 POP PUSH2 0x1E94 DUP2 PUSH2 0x1E6E JUMP JUMPDEST SWAP3 SWAP2 POP POP JUMP JUMPDEST PUSH1 0x0 PUSH1 0x20 DUP3 DUP5 SUB SLT ISZERO PUSH2 0x1EB0 JUMPI PUSH2 0x1EAF PUSH2 0x14F1 JUMP JUMPDEST JUMPDEST PUSH1 0x0 PUSH2 0x1EBE DUP5 DUP3 DUP6 ADD PUSH2 0x1E85 JUMP JUMPDEST SWAP2 POP POP SWAP3 SWAP2 POP POP JUMP JUMPDEST PUSH32 0x556E61626C6520746F207472616E736665720000000000000000000000000000 PUSH1 0x0 DUP3 ADD MSTORE POP JUMP JUMPDEST PUSH1 0x0 PUSH2 0x1EFD PUSH1 0x12 DUP4 PUSH2 0x1569 JUMP JUMPDEST SWAP2 POP PUSH2 0x1F08 DUP3 PUSH2 0x1EC7 JUMP JUMPDEST PUSH1 0x20 DUP3 ADD SWAP1 POP SWAP2 SWAP1 POP JUMP JUMPDEST PUSH1 0x0 PUSH1 0x20 DUP3 ADD SWAP1 POP DUP2 DUP2 SUB PUSH1 0x0 DUP4 ADD MSTORE PUSH2 0x1F2C DUP2 PUSH2 0x1EF0 JUMP JUMPDEST SWAP1 POP SWAP2 SWAP1 POP JUMP JUMPDEST PUSH32 0x4A6F6220696E646578206F7574206F6620626F756E6473000000000000000000 PUSH1 0x0 DUP3 ADD MSTORE POP JUMP JUMPDEST PUSH1 0x0 PUSH2 0x1F69 PUSH1 0x17 DUP4 PUSH2 0x1569 JUMP JUMPDEST SWAP2 POP PUSH2 0x1F74 DUP3 PUSH2 0x1F33 JUMP JUMPDEST PUSH1 0x20 DUP3 ADD SWAP1 POP SWAP2 SWAP1 POP JUMP JUMPDEST PUSH1 0x0 PUSH1 0x20 DUP3 ADD SWAP1 POP DUP2 DUP2 SUB PUSH1 0x0 DUP4 ADD MSTORE PUSH2 0x1F98 DUP2 PUSH2 0x1F5C JUMP JUMPDEST SWAP1 POP SWAP2 SWAP1 POP JUMP JUMPDEST PUSH1 0x0 DUP2 SLOAD SWAP1 POP PUSH2 0x1FAE DUP2 PUSH2 0x19C3 JUMP JUMPDEST SWAP1 POP SWAP2 SWAP1 POP JUMP JUMPDEST DUP2 DUP2 SUB PUSH2 0x1FC3 JUMPI POP POP PUSH2 0x209B JUMP JUMPDEST PUSH2 0x1FCC DUP3 PUSH2 0x1F9F JUMP JUMPDEST PUSH8 0xFFFFFFFFFFFFFFFF DUP2 GT ISZERO PUSH2 0x1FE5 JUMPI PUSH2 0x1FE4 PUSH2 0x161A JUMP JUMPDEST JUMPDEST PUSH2 0x1FEF DUP3 SLOAD PUSH2 0x19C3 JUMP JUMPDEST PUSH2 0x1FFA DUP3 DUP3 DUP6 PUSH2 0x1BB9 JUMP JUMPDEST PUSH1 0x0 PUSH1 0x1F DUP4 GT PUSH1 0x1 DUP2 EQ PUSH2 0x2029 JUMPI PUSH1 0x0 DUP5 ISZERO PUSH2 0x2017 JUMPI DUP3 DUP8 ADD SLOAD SWAP1 POP JUMPDEST PUSH2 0x2021 DUP6 DUP3 PUSH2 0x1C2A JUMP JUMPDEST DUP7 SSTORE POP PUSH2 0x2094 JUMP JUMPDEST PUSH1 0x1F NOT DUP5 AND PUSH2 0x2037 DUP8 PUSH2 0x1A9A JUMP JUMPDEST SWAP7 POP PUSH2 0x2042 DUP7 PUSH2 0x1A9A JUMP JUMPDEST PUSH1 0x0 JUMPDEST DUP3 DUP2 LT ISZERO PUSH2 0x206A JUMPI DUP5 DUP10 ADD SLOAD DUP3 SSTORE PUSH1 0x1 DUP3 ADD SWAP2 POP PUSH1 0x1 DUP6 ADD SWAP5 POP PUSH1 0x20 DUP2 ADD SWAP1 POP PUSH2 0x2045 JUMP JUMPDEST DUP7 DUP4 LT ISZERO PUSH2 0x2087 JUMPI DUP5 DUP10 ADD SLOAD PUSH2 0x2083 PUSH1 0x1F DUP10 AND DUP3 PUSH2 0x1C0C JUMP JUMPDEST DUP4 SSTORE POP JUMPDEST PUSH1 0x1 PUSH1 0x2 DUP9 MUL ADD DUP9 SSTORE POP POP POP JUMPDEST POP POP POP POP POP POP JUMPDEST JUMP JUMPDEST PUSH32 0x4E487B7100000000000000000000000000000000000000000000000000000000 PUSH1 0x0 MSTORE PUSH1 0x31 PUSH1 0x4 MSTORE PUSH1 0x24 PUSH1 0x0 REVERT JUMPDEST PUSH1 0x0 PUSH1 0x20 DUP3 ADD SWAP1 POP PUSH2 0x20E1 PUSH1 0x0 DUP4 ADD DUP5 PUSH2 0x1D4C JUMP JUMPDEST SWAP3 SWAP2 POP POP JUMP JUMPDEST PUSH32 0x536F75726365206D75737420626520746865206F7261636C65206F6620746865 PUSH1 0x0 DUP3 ADD MSTORE PUSH32 0x2072657175657374000000000000000000000000000000000000000000000000 PUSH1 0x20 DUP3 ADD MSTORE POP JUMP JUMPDEST PUSH1 0x0 PUSH2 0x2143 PUSH1 0x28 DUP4 PUSH2 0x1569 JUMP JUMPDEST SWAP2 POP PUSH2 0x214E DUP3 PUSH2 0x20E7 JUMP JUMPDEST PUSH1 0x40 DUP3 ADD SWAP1 POP SWAP2 SWAP1 POP JUMP JUMPDEST PUSH1 0x0 PUSH1 0x20 DUP3 ADD SWAP1 POP DUP2 DUP2 SUB PUSH1 0x0 DUP4 ADD MSTORE PUSH2 0x2172 DUP2 PUSH2 0x2136 JUMP JUMPDEST SWAP1 POP SWAP2 SWAP1 POP JUMP JUMPDEST PUSH1 0x0 PUSH2 0x2184 DUP3 PUSH2 0x14FB JUMP JUMPDEST SWAP2 POP PUSH2 0x218F DUP4 PUSH2 0x14FB JUMP JUMPDEST SWAP3 POP DUP3 DUP3 MUL PUSH2 0x219D DUP2 PUSH2 0x14FB JUMP JUMPDEST SWAP2 POP DUP3 DUP3 DIV DUP5 EQ DUP4 ISZERO OR PUSH2 0x21B4 JUMPI PUSH2 0x21B3 PUSH2 0x1A23 JUMP JUMPDEST JUMPDEST POP SWAP3 SWAP2 POP POP JUMP JUMPDEST PUSH32 0x4E487B7100000000000000000000000000000000000000000000000000000000 PUSH1 0x0 MSTORE PUSH1 0x12 PUSH1 0x4 MSTORE PUSH1 0x24 PUSH1 0x0 REVERT JUMPDEST PUSH1 0x0 PUSH2 0x21F5 DUP3 PUSH2 0x14FB JUMP JUMPDEST SWAP2 POP PUSH2 0x2200 DUP4 PUSH2 0x14FB JUMP JUMPDEST SWAP3 POP DUP3 PUSH2 0x2210 JUMPI PUSH2 0x220F PUSH2 0x21BB JUMP JUMPDEST JUMPDEST DUP3 DUP3 DIV SWAP1 POP SWAP3 SWAP2 POP POP JUMP JUMPDEST PUSH32 0x4F6E6C792063616C6C61626C65206279206F776E657200000000000000000000 PUSH1 0x0 DUP3 ADD MSTORE POP JUMP JUMPDEST PUSH1 0x0 PUSH2 0x2251 PUSH1 0x16 DUP4 PUSH2 0x1569 JUMP JUMPDEST SWAP2 POP PUSH2 0x225C DUP3 PUSH2 0x221B JUMP JUMPDEST PUSH1 0x20 DUP3 ADD SWAP1 POP SWAP2 SWAP1 POP JUMP JUMPDEST PUSH1 0x0 PUSH1 0x20 DUP3 ADD SWAP1 POP DUP2 DUP2 SUB PUSH1 0x0 DUP4 ADD MSTORE PUSH2 0x2280 DUP2 PUSH2 0x2244 JUMP JUMPDEST SWAP1 POP SWAP2 SWAP1 POP JUMP JUMPDEST PUSH2 0x2290 DUP2 PUSH2 0x17EA JUMP JUMPDEST DUP3 MSTORE POP POP JUMP JUMPDEST PUSH2 0x229F DUP2 PUSH2 0x187C JUMP JUMPDEST DUP3 MSTORE POP POP JUMP JUMPDEST PUSH1 0x0 PUSH1 0x80 DUP3 ADD SWAP1 POP PUSH2 0x22BA PUSH1 0x0 DUP4 ADD DUP8 PUSH2 0x2287 JUMP JUMPDEST PUSH2 0x22C7 PUSH1 0x20 DUP4 ADD DUP7 PUSH2 0x1D4C JUMP JUMPDEST PUSH2 0x22D4 PUSH1 0x40 DUP4 ADD DUP6 PUSH2 0x2296 JUMP JUMPDEST PUSH2 0x22E1 PUSH1 0x60 DUP4 ADD DUP5 PUSH2 0x1D4C JUMP JUMPDEST SWAP6 SWAP5 POP POP POP POP POP JUMP JUMPDEST PUSH32 0x43616E6E6F74207472616E7366657220746F2073656C66000000000000000000 PUSH1 0x0 DUP3 ADD MSTORE POP JUMP JUMPDEST PUSH1 0x0 PUSH2 0x2320 PUSH1 0x17 DUP4 PUSH2 0x1569 JUMP JUMPDEST SWAP2 POP PUSH2 0x232B DUP3 PUSH2 0x22EA JUMP JUMPDEST PUSH1 0x20 DUP3 ADD SWAP1 POP SWAP2 SWAP1 POP JUMP JUMPDEST PUSH1 0x0 PUSH1 0x20 DUP3 ADD SWAP1 POP DUP2 DUP2 SUB PUSH1 0x0 DUP4 ADD MSTORE PUSH2 0x234F DUP2 PUSH2 0x2313 JUMP JUMPDEST SWAP1 POP SWAP2 SWAP1 POP JUMP JUMPDEST PUSH1 0x0 PUSH2 0x2361 DUP3 PUSH2 0x14FB JUMP JUMPDEST SWAP2 POP PUSH2 0x236C DUP4 PUSH2 0x14FB JUMP JUMPDEST SWAP3 POP DUP3 DUP3 ADD SWAP1 POP DUP1 DUP3 GT ISZERO PUSH2 0x2384 JUMPI PUSH2 0x2383 PUSH2 0x1A23 JUMP JUMPDEST JUMPDEST SWAP3 SWAP2 POP POP JUMP JUMPDEST PUSH1 0x0 DUP2 MLOAD SWAP1 POP SWAP2 SWAP1 POP JUMP JUMPDEST PUSH1 0x0 DUP3 DUP3 MSTORE PUSH1 0x20 DUP3 ADD SWAP1 POP SWAP3 SWAP2 POP POP JUMP JUMPDEST PUSH1 0x0 PUSH2 0x23B1 DUP3 PUSH2 0x238A JUMP JUMPDEST PUSH2 0x23BB DUP2 DUP6 PUSH2 0x2395 JUMP JUMPDEST SWAP4 POP PUSH2 0x23CB DUP2 DUP6 PUSH1 0x20 DUP7 ADD PUSH2 0x157A JUMP JUMPDEST PUSH2 0x23D4 DUP2 PUSH2 0x15A4 JUMP JUMPDEST DUP5 ADD SWAP2 POP POP SWAP3 SWAP2 POP POP JUMP JUMPDEST PUSH1 0x0 PUSH2 0x100 DUP3 ADD SWAP1 POP PUSH2 0x23F5 PUSH1 0x0 DUP4 ADD DUP12 PUSH2 0x14BD JUMP JUMPDEST PUSH2 0x2402 PUSH1 0x20 DUP4 ADD DUP11 PUSH2 0x1D4C JUMP JUMPDEST PUSH2 0x240F PUSH1 0x40 DUP4 ADD DUP10 PUSH2 0x2287 JUMP JUMPDEST PUSH2 0x241C PUSH1 0x60 DUP4 ADD DUP9 PUSH2 0x14BD JUMP JUMPDEST PUSH2 0x2429 PUSH1 0x80 DUP4 ADD DUP8 PUSH2 0x2296 JUMP JUMPDEST PUSH2 0x2436 PUSH1 0xA0 DUP4 ADD DUP7 PUSH2 0x1D4C JUMP JUMPDEST PUSH2 0x2443 PUSH1 0xC0 DUP4 ADD DUP6 PUSH2 0x1D4C JUMP JUMPDEST DUP2 DUP2 SUB PUSH1 0xE0 DUP4 ADD MSTORE PUSH2 0x2455 DUP2 DUP5 PUSH2 0x23A6 JUMP JUMPDEST SWAP1 POP SWAP10 SWAP9 POP POP POP POP POP POP POP POP POP JUMP JUMPDEST PUSH1 0x0 PUSH2 0x247F PUSH2 0x247A PUSH2 0x2475 DUP5 PUSH2 0x148B JUMP JUMPDEST PUSH2 0x1B1E JUMP JUMPDEST PUSH2 0x148B JUMP JUMPDEST SWAP1 POP SWAP2 SWAP1 POP JUMP JUMPDEST PUSH1 0x0 PUSH2 0x2491 DUP3 PUSH2 0x2464 JUMP JUMPDEST SWAP1 POP SWAP2 SWAP1 POP JUMP JUMPDEST PUSH1 0x0 PUSH2 0x24A3 DUP3 PUSH2 0x2486 JUMP JUMPDEST SWAP1 POP SWAP2 SWAP1 POP JUMP JUMPDEST PUSH1 0x0 DUP2 PUSH1 0x60 SHL SWAP1 POP SWAP2 SWAP1 POP JUMP JUMPDEST PUSH1 0x0 PUSH2 0x24C2 DUP3 PUSH2 0x24AA JUMP JUMPDEST SWAP1 POP SWAP2 SWAP1 POP JUMP JUMPDEST PUSH1 0x0 PUSH2 0x24D4 DUP3 PUSH2 0x24B7 JUMP JUMPDEST SWAP1 POP SWAP2 SWAP1 POP JUMP JUMPDEST PUSH2 0x24EC PUSH2 0x24E7 DUP3 PUSH2 0x2498 JUMP JUMPDEST PUSH2 0x24C9 JUMP JUMPDEST DUP3 MSTORE POP POP JUMP JUMPDEST PUSH1 0x0 DUP2 SWAP1 POP SWAP2 SWAP1 POP JUMP JUMPDEST PUSH2 0x250D PUSH2 0x2508 DUP3 PUSH2 0x14FB JUMP JUMPDEST PUSH2 0x24F2 JUMP JUMPDEST DUP3 MSTORE POP POP JUMP JUMPDEST PUSH1 0x0 PUSH2 0x251F DUP3 DUP6 PUSH2 0x24DB JUMP JUMPDEST PUSH1 0x14 DUP3 ADD SWAP2 POP PUSH2 0x252F DUP3 DUP5 PUSH2 0x24FC JUMP JUMPDEST PUSH1 0x20 DUP3 ADD SWAP2 POP DUP2 SWAP1 POP SWAP4 SWAP3 POP POP POP JUMP JUMPDEST PUSH1 0x0 PUSH1 0x60 DUP3 ADD SWAP1 POP PUSH2 0x2554 PUSH1 0x0 DUP4 ADD DUP7 PUSH2 0x14BD JUMP JUMPDEST PUSH2 0x2561 PUSH1 0x20 DUP4 ADD DUP6 PUSH2 0x1D4C JUMP JUMPDEST DUP2 DUP2 SUB PUSH1 0x40 DUP4 ADD MSTORE PUSH2 0x2573 DUP2 DUP5 PUSH2 0x23A6 JUMP JUMPDEST SWAP1 POP SWAP5 SWAP4 POP POP POP POP JUMP JUMPDEST PUSH32 0x756E61626C6520746F207472616E73666572416E6443616C6C20746F206F7261 PUSH1 0x0 DUP3 ADD MSTORE PUSH32 0x636C650000000000000000000000000000000000000000000000000000000000 PUSH1 0x20 DUP3 ADD MSTORE POP JUMP JUMPDEST PUSH1 0x0 PUSH2 0x25D9 PUSH1 0x23 DUP4 PUSH2 0x1569 JUMP JUMPDEST SWAP2 POP PUSH2 0x25E4 DUP3 PUSH2 0x257D JUMP JUMPDEST PUSH1 0x40 DUP3 ADD SWAP1 POP SWAP2 SWAP1 POP JUMP JUMPDEST PUSH1 0x0 PUSH1 0x20 DUP3 ADD SWAP1 POP DUP2 DUP2 SUB PUSH1 0x0 DUP4 ADD MSTORE PUSH2 0x2608 DUP2 PUSH2 0x25CC JUMP JUMPDEST SWAP1 POP SWAP2 SWAP1 POP JUMP JUMPDEST PUSH1 0x0 PUSH2 0x261A DUP3 PUSH2 0x14FB JUMP JUMPDEST SWAP2 POP PUSH2 0x2625 DUP4 PUSH2 0x14FB JUMP JUMPDEST SWAP3 POP DUP3 PUSH2 0x2635 JUMPI PUSH2 0x2634 PUSH2 0x21BB JUMP JUMPDEST JUMPDEST DUP3 DUP3 MOD SWAP1 POP SWAP3 SWAP2 POP POP JUMP INVALID LOG2 PUSH5 0x6970667358 0x22 SLT KECCAK256 0xD3 0x2C 0x4E JUMP PUSH10 0x8CDF07F8FB4A55367C45 0x2F 0xD3 PUSH2 0x9E15 CREATE DUP5 0xC4 PUSH13 0xC3CB8D10D5597BDF64736F6C63 NUMBER STOP ADDMOD SGT STOP CALLER "
				},
				"gasEstimates": {
					"creation": {
						"codeDepositCost": "1969200",
						"executionCost": "infinite",
						"totalCost": "infinite"
					},
					"external": {
						"acceptOwnership()": "54607",
						"addJob(string)": "infinite",
						"cancelRequest(bytes32,uint256,bytes4,uint256)": "infinite",
						"fulfillEventListener(bytes32,string)": "infinite",
						"getChainlinkToken()": "2581",
						"jobs(uint256)": "infinite",
						"lastMemo()": "infinite",
						"oracleAddress()": "2603",
						"owner()": "2611",
						"removeJob(uint256)": "infinite",
						"requestEventListener()": "infinite",
						"transferOwnership(address)": "30726",
						"updateJob(uint256,string)": "infinite",
						"updateOracleAddress(address)": "infinite",
						"withdrawLink()": "infinite"
					},
					"internal": {
						"_sendChainlinkRequest(string memory)": "infinite",
						"stringToBytes32(string memory)": "infinite"
					}
				},
				"methodIdentifiers": {
					"acceptOwnership()": "79ba5097",
					"addJob(string)": "75cb0ac8",
					"cancelRequest(bytes32,uint256,bytes4,uint256)": "ec65d0f8",
					"fulfillEventListener(bytes32,string)": "d458fa96",
					"getChainlinkToken()": "165d35e1",
					"jobs(uint256)": "180aedf3",
					"lastMemo()": "630c4ebc",
					"oracleAddress()": "a89ae4ba",
					"owner()": "8da5cb5b",
					"removeJob(uint256)": "9cb29cbd",
					"requestEventListener()": "2cf2d1d3",
					"transferOwnership(address)": "f2fde38b",
					"updateJob(uint256,string)": "a3416b67",
					"updateOracleAddress(address)": "f7023bb6",
					"withdrawLink()": "8dc654a2"
				}
			},
			"storageLayout": {
				"storage": [
					{
						"astId": 325,
						"contract": "ETHBangkok/Operator/RunJob.sol:RunJob",
						"label": "s_ens",
						"offset": 0,
						"slot": "0",
						"type": "t_contract(ENSInterface)982"
					},
					{
						"astId": 327,
						"contract": "ETHBangkok/Operator/RunJob.sol:RunJob",
						"label": "s_ensNode",
						"offset": 0,
						"slot": "1",
						"type": "t_bytes32"
					},
					{
						"astId": 330,
						"contract": "ETHBangkok/Operator/RunJob.sol:RunJob",
						"label": "s_link",
						"offset": 0,
						"slot": "2",
						"type": "t_contract(LinkTokenInterface)1382"
					},
					{
						"astId": 333,
						"contract": "ETHBangkok/Operator/RunJob.sol:RunJob",
						"label": "s_oracle",
						"offset": 0,
						"slot": "3",
						"type": "t_contract(OperatorInterface)1047"
					},
					{
						"astId": 336,
						"contract": "ETHBangkok/Operator/RunJob.sol:RunJob",
						"label": "s_requestCount",
						"offset": 0,
						"slot": "4",
						"type": "t_uint256"
					},
					{
						"astId": 340,
						"contract": "ETHBangkok/Operator/RunJob.sol:RunJob",
						"label": "s_pendingRequests",
						"offset": 0,
						"slot": "5",
						"type": "t_mapping(t_bytes32,t_address)"
					},
					{
						"astId": 1117,
						"contract": "ETHBangkok/Operator/RunJob.sol:RunJob",
						"label": "s_owner",
						"offset": 0,
						"slot": "6",
						"type": "t_address"
					},
					{
						"astId": 1119,
						"contract": "ETHBangkok/Operator/RunJob.sol:RunJob",
						"label": "s_pendingOwner",
						"offset": 0,
						"slot": "7",
						"type": "t_address"
					},
					{
						"astId": 2388,
						"contract": "ETHBangkok/Operator/RunJob.sol:RunJob",
						"label": "lastMemo",
						"offset": 0,
						"slot": "8",
						"type": "t_string_storage"
					},
					{
						"astId": 2390,
						"contract": "ETHBangkok/Operator/RunJob.sol:RunJob",
						"label": "oracleAddress",
						"offset": 0,
						"slot": "9",
						"type": "t_address"
					},
					{
						"astId": 2397,
						"contract": "ETHBangkok/Operator/RunJob.sol:RunJob",
						"label": "jobs",
						"offset": 0,
						"slot": "10",
						"type": "t_array(t_struct(Job)2393_storage)dyn_storage"
					}
				],
				"types": {
					"t_address": {
						"encoding": "inplace",
						"label": "address",
						"numberOfBytes": "20"
					},
					"t_array(t_struct(Job)2393_storage)dyn_storage": {
						"base": "t_struct(Job)2393_storage",
						"encoding": "dynamic_array",
						"label": "struct RunJob.Job[]",
						"numberOfBytes": "32"
					},
					"t_bytes32": {
						"encoding": "inplace",
						"label": "bytes32",
						"numberOfBytes": "32"
					},
					"t_contract(ENSInterface)982": {
						"encoding": "inplace",
						"label": "contract ENSInterface",
						"numberOfBytes": "20"
					},
					"t_contract(LinkTokenInterface)1382": {
						"encoding": "inplace",
						"label": "contract LinkTokenInterface",
						"numberOfBytes": "20"
					},
					"t_contract(OperatorInterface)1047": {
						"encoding": "inplace",
						"label": "contract OperatorInterface",
						"numberOfBytes": "20"
					},
					"t_mapping(t_bytes32,t_address)": {
						"encoding": "mapping",
						"key": "t_bytes32",
						"label": "mapping(bytes32 => address)",
						"numberOfBytes": "32",
						"value": "t_address"
					},
					"t_string_storage": {
						"encoding": "bytes",
						"label": "string",
						"numberOfBytes": "32"
					},
					"t_struct(Job)2393_storage": {
						"encoding": "inplace",
						"label": "struct RunJob.Job",
						"members": [
							{
								"astId": 2392,
								"contract": "ETHBangkok/Operator/RunJob.sol:RunJob",
								"label": "jobId",
								"offset": 0,
								"slot": "0",
								"type": "t_string_storage"
							}
						],
						"numberOfBytes": "32"
					},
					"t_uint256": {
						"encoding": "inplace",
						"label": "uint256",
						"numberOfBytes": "32"
					}
				}
			},
			"userdoc": {
				"kind": "user",
				"methods": {
					"acceptOwnership()": {
						"notice": "Allows an ownership transfer to be completed by the recipient."
					},
					"owner()": {
						"notice": "Get the current owner"
					},
					"transferOwnership(address)": {
						"notice": "Allows an owner to begin transferring ownership to a new address."
					}
				},
				"version": 1
			}
		}
	}
}