{
	"ETHBangkok/SmartWallet/SmartWallet.sol": {
		"SmartWallet": {
			"abi": [
				{
					"inputs": [
						{
							"internalType": "address",
							"name": "_initialOwner",
							"type": "address"
						},
						{
							"internalType": "address",
							"name": "_greenTokenAddress",
							"type": "address"
						}
					],
					"stateMutability": "nonpayable",
					"type": "constructor"
				},
				{
					"inputs": [
						{
							"internalType": "address",
							"name": "token",
							"type": "address"
						}
					],
					"name": "SafeERC20FailedOperation",
					"type": "error"
				},
				{
					"anonymous": false,
					"inputs": [
						{
							"indexed": true,
							"internalType": "address",
							"name": "newGreenToken",
							"type": "address"
						}
					],
					"name": "GreenTokenUpdated",
					"type": "event"
				},
				{
					"anonymous": false,
					"inputs": [
						{
							"indexed": true,
							"internalType": "address",
							"name": "newOwner",
							"type": "address"
						}
					],
					"name": "OwnerUpdated",
					"type": "event"
				},
				{
					"anonymous": false,
					"inputs": [
						{
							"indexed": true,
							"internalType": "address",
							"name": "owner",
							"type": "address"
						},
						{
							"indexed": false,
							"internalType": "uint256",
							"name": "amount",
							"type": "uint256"
						}
					],
					"name": "TokensWithdrawn",
					"type": "event"
				},
				{
					"stateMutability": "payable",
					"type": "fallback"
				},
				{
					"inputs": [],
					"name": "deployer",
					"outputs": [
						{
							"internalType": "address",
							"name": "",
							"type": "address"
						}
					],
					"stateMutability": "view",
					"type": "function"
				},
				{
					"inputs": [],
					"name": "getGreenTokenBalance",
					"outputs": [
						{
							"internalType": "uint256",
							"name": "",
							"type": "uint256"
						}
					],
					"stateMutability": "view",
					"type": "function"
				},
				{
					"inputs": [],
					"name": "greenToken",
					"outputs": [
						{
							"internalType": "contract IERC20",
							"name": "",
							"type": "address"
						}
					],
					"stateMutability": "view",
					"type": "function"
				},
				{
					"inputs": [],
					"name": "owner",
					"outputs": [
						{
							"internalType": "address",
							"name": "",
							"type": "address"
						}
					],
					"stateMutability": "view",
					"type": "function"
				},
				{
					"inputs": [
						{
							"internalType": "address",
							"name": "newGreenToken",
							"type": "address"
						}
					],
					"name": "updateGreenTokenAddress",
					"outputs": [],
					"stateMutability": "nonpayable",
					"type": "function"
				},
				{
					"inputs": [
						{
							"internalType": "address",
							"name": "newOwner",
							"type": "address"
						}
					],
					"name": "updateOwner",
					"outputs": [],
					"stateMutability": "nonpayable",
					"type": "function"
				},
				{
					"inputs": [],
					"name": "verifyAndWithdraw",
					"outputs": [],
					"stateMutability": "nonpayable",
					"type": "function"
				},
				{
					"stateMutability": "payable",
					"type": "receive"
				}
			],
			"devdoc": {
				"errors": {
					"SafeERC20FailedOperation(address)": [
						{
							"details": "An operation with an ERC-20 token failed."
						}
					]
				},
				"kind": "dev",
				"methods": {},
				"version": 1
			},
			"evm": {
				"assembly": "    /* \"ETHBangkok/SmartWallet/SmartWallet.sol\":188:2157  contract SmartWallet {... */\n  mstore(0x40, 0x80)\n    /* \"ETHBangkok/SmartWallet/SmartWallet.sol\":783:1155  constructor(address _initialOwner, address _greenTokenAddress) {... */\n  callvalue\n  dup1\n  iszero\n  tag_1\n  jumpi\n  0x00\n  dup1\n  revert\ntag_1:\n  pop\n  mload(0x40)\n  sub(codesize, bytecodeSize)\n  dup1\n  bytecodeSize\n  dup4\n  codecopy\n  dup2\n  dup2\n  add\n  0x40\n  mstore\n  dup2\n  add\n  swap1\n  tag_2\n  swap2\n  swap1\n  tag_3\n  jump\t// in\ntag_2:\n    /* \"ETHBangkok/SmartWallet/SmartWallet.sol\":890:891  0 */\n  0x00\n    /* \"ETHBangkok/SmartWallet/SmartWallet.sol\":865:892  _initialOwner != address(0) */\n  0xffffffffffffffffffffffffffffffffffffffff\n  and\n    /* \"ETHBangkok/SmartWallet/SmartWallet.sol\":865:878  _initialOwner */\n  dup3\n    /* \"ETHBangkok/SmartWallet/SmartWallet.sol\":865:892  _initialOwner != address(0) */\n  0xffffffffffffffffffffffffffffffffffffffff\n  and\n  sub\n    /* \"ETHBangkok/SmartWallet/SmartWallet.sol\":857:929  require(_initialOwner != address(0), \"Owner cannot be the zero address\") */\n  tag_6\n  jumpi\n  mload(0x40)\n  0x08c379a000000000000000000000000000000000000000000000000000000000\n  dup2\n  mstore\n  0x04\n  add\n  tag_7\n  swap1\n  tag_8\n  jump\t// in\ntag_7:\n  mload(0x40)\n  dup1\n  swap2\n  sub\n  swap1\n  revert\ntag_6:\n    /* \"ETHBangkok/SmartWallet/SmartWallet.sol\":978:979  0 */\n  0x00\n    /* \"ETHBangkok/SmartWallet/SmartWallet.sol\":948:980  _greenTokenAddress != address(0) */\n  0xffffffffffffffffffffffffffffffffffffffff\n  and\n    /* \"ETHBangkok/SmartWallet/SmartWallet.sol\":948:966  _greenTokenAddress */\n  dup2\n    /* \"ETHBangkok/SmartWallet/SmartWallet.sol\":948:980  _greenTokenAddress != address(0) */\n  0xffffffffffffffffffffffffffffffffffffffff\n  and\n  sub\n    /* \"ETHBangkok/SmartWallet/SmartWallet.sol\":940:1031  require(_greenTokenAddress != address(0), \"Green Token address cannot be the zero address\") */\n  tag_9\n  jumpi\n  mload(0x40)\n  0x08c379a000000000000000000000000000000000000000000000000000000000\n  dup2\n  mstore\n  0x04\n  add\n  tag_10\n  swap1\n  tag_11\n  jump\t// in\ntag_10:\n  mload(0x40)\n  dup1\n  swap2\n  sub\n  swap1\n  revert\ntag_9:\n    /* \"ETHBangkok/SmartWallet/SmartWallet.sol\":1052:1065  _initialOwner */\n  dup2\n    /* \"ETHBangkok/SmartWallet/SmartWallet.sol\":1044:1049  owner */\n  0x00\n  dup1\n    /* \"ETHBangkok/SmartWallet/SmartWallet.sol\":1044:1065  owner = _initialOwner */\n  0x0100\n  exp\n  dup2\n  sload\n  dup2\n  0xffffffffffffffffffffffffffffffffffffffff\n  mul\n  not\n  and\n  swap1\n  dup4\n  0xffffffffffffffffffffffffffffffffffffffff\n  and\n  mul\n  or\n  swap1\n  sstore\n  pop\n    /* \"ETHBangkok/SmartWallet/SmartWallet.sol\":1087:1097  msg.sender */\n  caller\n    /* \"ETHBangkok/SmartWallet/SmartWallet.sol\":1076:1084  deployer */\n  0x01\n  0x00\n    /* \"ETHBangkok/SmartWallet/SmartWallet.sol\":1076:1097  deployer = msg.sender */\n  0x0100\n  exp\n  dup2\n  sload\n  dup2\n  0xffffffffffffffffffffffffffffffffffffffff\n  mul\n  not\n  and\n  swap1\n  dup4\n  0xffffffffffffffffffffffffffffffffffffffff\n  and\n  mul\n  or\n  swap1\n  sstore\n  pop\n    /* \"ETHBangkok/SmartWallet/SmartWallet.sol\":1128:1146  _greenTokenAddress */\n  dup1\n    /* \"ETHBangkok/SmartWallet/SmartWallet.sol\":1108:1118  greenToken */\n  0x02\n  0x00\n    /* \"ETHBangkok/SmartWallet/SmartWallet.sol\":1108:1147  greenToken = IERC20(_greenTokenAddress) */\n  0x0100\n  exp\n  dup2\n  sload\n  dup2\n  0xffffffffffffffffffffffffffffffffffffffff\n  mul\n  not\n  and\n  swap1\n  dup4\n  0xffffffffffffffffffffffffffffffffffffffff\n  and\n  mul\n  or\n  swap1\n  sstore\n  pop\n    /* \"ETHBangkok/SmartWallet/SmartWallet.sol\":783:1155  constructor(address _initialOwner, address _greenTokenAddress) {... */\n  pop\n  pop\n    /* \"ETHBangkok/SmartWallet/SmartWallet.sol\":188:2157  contract SmartWallet {... */\n  jump(tag_12)\n    /* \"#utility.yul\":88:205   */\ntag_14:\n    /* \"#utility.yul\":197:198   */\n  0x00\n    /* \"#utility.yul\":194:195   */\n  dup1\n    /* \"#utility.yul\":187:199   */\n  revert\n    /* \"#utility.yul\":334:460   */\ntag_16:\n    /* \"#utility.yul\":371:378   */\n  0x00\n    /* \"#utility.yul\":411:453   */\n  0xffffffffffffffffffffffffffffffffffffffff\n    /* \"#utility.yul\":404:409   */\n  dup3\n    /* \"#utility.yul\":400:454   */\n  and\n    /* \"#utility.yul\":389:454   */\n  swap1\n  pop\n    /* \"#utility.yul\":334:460   */\n  swap2\n  swap1\n  pop\n  jump\t// out\n    /* \"#utility.yul\":466:562   */\ntag_17:\n    /* \"#utility.yul\":503:510   */\n  0x00\n    /* \"#utility.yul\":532:556   */\n  tag_31\n    /* \"#utility.yul\":550:555   */\n  dup3\n    /* \"#utility.yul\":532:556   */\n  tag_16\n  jump\t// in\ntag_31:\n    /* \"#utility.yul\":521:556   */\n  swap1\n  pop\n    /* \"#utility.yul\":466:562   */\n  swap2\n  swap1\n  pop\n  jump\t// out\n    /* \"#utility.yul\":568:690   */\ntag_18:\n    /* \"#utility.yul\":641:665   */\n  tag_33\n    /* \"#utility.yul\":659:664   */\n  dup2\n    /* \"#utility.yul\":641:665   */\n  tag_17\n  jump\t// in\ntag_33:\n    /* \"#utility.yul\":634:639   */\n  dup2\n    /* \"#utility.yul\":631:666   */\n  eq\n    /* \"#utility.yul\":621:684   */\n  tag_34\n  jumpi\n    /* \"#utility.yul\":680:681   */\n  0x00\n    /* \"#utility.yul\":677:678   */\n  dup1\n    /* \"#utility.yul\":670:682   */\n  revert\n    /* \"#utility.yul\":621:684   */\ntag_34:\n    /* \"#utility.yul\":568:690   */\n  pop\n  jump\t// out\n    /* \"#utility.yul\":696:839   */\ntag_19:\n    /* \"#utility.yul\":753:758   */\n  0x00\n    /* \"#utility.yul\":784:790   */\n  dup2\n    /* \"#utility.yul\":778:791   */\n  mload\n    /* \"#utility.yul\":769:791   */\n  swap1\n  pop\n    /* \"#utility.yul\":800:833   */\n  tag_36\n    /* \"#utility.yul\":827:832   */\n  dup2\n    /* \"#utility.yul\":800:833   */\n  tag_18\n  jump\t// in\ntag_36:\n    /* \"#utility.yul\":696:839   */\n  swap3\n  swap2\n  pop\n  pop\n  jump\t// out\n    /* \"#utility.yul\":845:1352   */\ntag_3:\n    /* \"#utility.yul\":924:930   */\n  0x00\n    /* \"#utility.yul\":932:938   */\n  dup1\n    /* \"#utility.yul\":981:983   */\n  0x40\n    /* \"#utility.yul\":969:978   */\n  dup4\n    /* \"#utility.yul\":960:967   */\n  dup6\n    /* \"#utility.yul\":956:979   */\n  sub\n    /* \"#utility.yul\":952:984   */\n  slt\n    /* \"#utility.yul\":949:1068   */\n  iszero\n  tag_38\n  jumpi\n    /* \"#utility.yul\":987:1066   */\n  tag_39\n  tag_14\n  jump\t// in\ntag_39:\n    /* \"#utility.yul\":949:1068   */\ntag_38:\n    /* \"#utility.yul\":1107:1108   */\n  0x00\n    /* \"#utility.yul\":1132:1196   */\n  tag_40\n    /* \"#utility.yul\":1188:1195   */\n  dup6\n    /* \"#utility.yul\":1179:1185   */\n  dup3\n    /* \"#utility.yul\":1168:1177   */\n  dup7\n    /* \"#utility.yul\":1164:1186   */\n  add\n    /* \"#utility.yul\":1132:1196   */\n  tag_19\n  jump\t// in\ntag_40:\n    /* \"#utility.yul\":1122:1196   */\n  swap3\n  pop\n    /* \"#utility.yul\":1078:1206   */\n  pop\n    /* \"#utility.yul\":1245:1247   */\n  0x20\n    /* \"#utility.yul\":1271:1335   */\n  tag_41\n    /* \"#utility.yul\":1327:1334   */\n  dup6\n    /* \"#utility.yul\":1318:1324   */\n  dup3\n    /* \"#utility.yul\":1307:1316   */\n  dup7\n    /* \"#utility.yul\":1303:1325   */\n  add\n    /* \"#utility.yul\":1271:1335   */\n  tag_19\n  jump\t// in\ntag_41:\n    /* \"#utility.yul\":1261:1335   */\n  swap2\n  pop\n    /* \"#utility.yul\":1216:1345   */\n  pop\n    /* \"#utility.yul\":845:1352   */\n  swap3\n  pop\n  swap3\n  swap1\n  pop\n  jump\t// out\n    /* \"#utility.yul\":1358:1527   */\ntag_20:\n    /* \"#utility.yul\":1442:1453   */\n  0x00\n    /* \"#utility.yul\":1476:1482   */\n  dup3\n    /* \"#utility.yul\":1471:1474   */\n  dup3\n    /* \"#utility.yul\":1464:1483   */\n  mstore\n    /* \"#utility.yul\":1516:1520   */\n  0x20\n    /* \"#utility.yul\":1511:1514   */\n  dup3\n    /* \"#utility.yul\":1507:1521   */\n  add\n    /* \"#utility.yul\":1492:1521   */\n  swap1\n  pop\n    /* \"#utility.yul\":1358:1527   */\n  swap3\n  swap2\n  pop\n  pop\n  jump\t// out\n    /* \"#utility.yul\":1533:1715   */\ntag_21:\n    /* \"#utility.yul\":1673:1707   */\n  0x4f776e65722063616e6e6f7420626520746865207a65726f2061646472657373\n    /* \"#utility.yul\":1669:1670   */\n  0x00\n    /* \"#utility.yul\":1661:1667   */\n  dup3\n    /* \"#utility.yul\":1657:1671   */\n  add\n    /* \"#utility.yul\":1650:1708   */\n  mstore\n    /* \"#utility.yul\":1533:1715   */\n  pop\n  jump\t// out\n    /* \"#utility.yul\":1721:2087   */\ntag_22:\n    /* \"#utility.yul\":1863:1866   */\n  0x00\n    /* \"#utility.yul\":1884:1951   */\n  tag_45\n    /* \"#utility.yul\":1948:1950   */\n  0x20\n    /* \"#utility.yul\":1943:1946   */\n  dup4\n    /* \"#utility.yul\":1884:1951   */\n  tag_20\n  jump\t// in\ntag_45:\n    /* \"#utility.yul\":1877:1951   */\n  swap2\n  pop\n    /* \"#utility.yul\":1960:2053   */\n  tag_46\n    /* \"#utility.yul\":2049:2052   */\n  dup3\n    /* \"#utility.yul\":1960:2053   */\n  tag_21\n  jump\t// in\ntag_46:\n    /* \"#utility.yul\":2078:2080   */\n  0x20\n    /* \"#utility.yul\":2073:2076   */\n  dup3\n    /* \"#utility.yul\":2069:2081   */\n  add\n    /* \"#utility.yul\":2062:2081   */\n  swap1\n  pop\n    /* \"#utility.yul\":1721:2087   */\n  swap2\n  swap1\n  pop\n  jump\t// out\n    /* \"#utility.yul\":2093:2512   */\ntag_8:\n    /* \"#utility.yul\":2259:2263   */\n  0x00\n    /* \"#utility.yul\":2297:2299   */\n  0x20\n    /* \"#utility.yul\":2286:2295   */\n  dup3\n    /* \"#utility.yul\":2282:2300   */\n  add\n    /* \"#utility.yul\":2274:2300   */\n  swap1\n  pop\n    /* \"#utility.yul\":2346:2355   */\n  dup2\n    /* \"#utility.yul\":2340:2344   */\n  dup2\n    /* \"#utility.yul\":2336:2356   */\n  sub\n    /* \"#utility.yul\":2332:2333   */\n  0x00\n    /* \"#utility.yul\":2321:2330   */\n  dup4\n    /* \"#utility.yul\":2317:2334   */\n  add\n    /* \"#utility.yul\":2310:2357   */\n  mstore\n    /* \"#utility.yul\":2374:2505   */\n  tag_48\n    /* \"#utility.yul\":2500:2504   */\n  dup2\n    /* \"#utility.yul\":2374:2505   */\n  tag_22\n  jump\t// in\ntag_48:\n    /* \"#utility.yul\":2366:2505   */\n  swap1\n  pop\n    /* \"#utility.yul\":2093:2512   */\n  swap2\n  swap1\n  pop\n  jump\t// out\n    /* \"#utility.yul\":2518:2751   */\ntag_23:\n    /* \"#utility.yul\":2658:2692   */\n  0x477265656e20546f6b656e20616464726573732063616e6e6f74206265207468\n    /* \"#utility.yul\":2654:2655   */\n  0x00\n    /* \"#utility.yul\":2646:2652   */\n  dup3\n    /* \"#utility.yul\":2642:2656   */\n  add\n    /* \"#utility.yul\":2635:2693   */\n  mstore\n    /* \"#utility.yul\":2727:2743   */\n  0x65207a65726f2061646472657373000000000000000000000000000000000000\n    /* \"#utility.yul\":2722:2724   */\n  0x20\n    /* \"#utility.yul\":2714:2720   */\n  dup3\n    /* \"#utility.yul\":2710:2725   */\n  add\n    /* \"#utility.yul\":2703:2744   */\n  mstore\n    /* \"#utility.yul\":2518:2751   */\n  pop\n  jump\t// out\n    /* \"#utility.yul\":2757:3123   */\ntag_24:\n    /* \"#utility.yul\":2899:2902   */\n  0x00\n    /* \"#utility.yul\":2920:2987   */\n  tag_51\n    /* \"#utility.yul\":2984:2986   */\n  0x2e\n    /* \"#utility.yul\":2979:2982   */\n  dup4\n    /* \"#utility.yul\":2920:2987   */\n  tag_20\n  jump\t// in\ntag_51:\n    /* \"#utility.yul\":2913:2987   */\n  swap2\n  pop\n    /* \"#utility.yul\":2996:3089   */\n  tag_52\n    /* \"#utility.yul\":3085:3088   */\n  dup3\n    /* \"#utility.yul\":2996:3089   */\n  tag_23\n  jump\t// in\ntag_52:\n    /* \"#utility.yul\":3114:3116   */\n  0x40\n    /* \"#utility.yul\":3109:3112   */\n  dup3\n    /* \"#utility.yul\":3105:3117   */\n  add\n    /* \"#utility.yul\":3098:3117   */\n  swap1\n  pop\n    /* \"#utility.yul\":2757:3123   */\n  swap2\n  swap1\n  pop\n  jump\t// out\n    /* \"#utility.yul\":3129:3548   */\ntag_11:\n    /* \"#utility.yul\":3295:3299   */\n  0x00\n    /* \"#utility.yul\":3333:3335   */\n  0x20\n    /* \"#utility.yul\":3322:3331   */\n  dup3\n    /* \"#utility.yul\":3318:3336   */\n  add\n    /* \"#utility.yul\":3310:3336   */\n  swap1\n  pop\n    /* \"#utility.yul\":3382:3391   */\n  dup2\n    /* \"#utility.yul\":3376:3380   */\n  dup2\n    /* \"#utility.yul\":3372:3392   */\n  sub\n    /* \"#utility.yul\":3368:3369   */\n  0x00\n    /* \"#utility.yul\":3357:3366   */\n  dup4\n    /* \"#utility.yul\":3353:3370   */\n  add\n    /* \"#utility.yul\":3346:3393   */\n  mstore\n    /* \"#utility.yul\":3410:3541   */\n  tag_54\n    /* \"#utility.yul\":3536:3540   */\n  dup2\n    /* \"#utility.yul\":3410:3541   */\n  tag_24\n  jump\t// in\ntag_54:\n    /* \"#utility.yul\":3402:3541   */\n  swap1\n  pop\n    /* \"#utility.yul\":3129:3548   */\n  swap2\n  swap1\n  pop\n  jump\t// out\n    /* \"ETHBangkok/SmartWallet/SmartWallet.sol\":188:2157  contract SmartWallet {... */\ntag_12:\n  dataSize(sub_0)\n  dup1\n  dataOffset(sub_0)\n  0x00\n  codecopy\n  0x00\n  return\nstop\n\nsub_0: assembly {\n        /* \"ETHBangkok/SmartWallet/SmartWallet.sol\":188:2157  contract SmartWallet {... */\n      mstore(0x40, 0x80)\n      jumpi(tag_1, lt(calldatasize, 0x04))\n      shr(0xe0, calldataload(0x00))\n      dup1\n      0x8da5cb5b\n      gt\n      tag_10\n      jumpi\n      dup1\n      0x8da5cb5b\n      eq\n      tag_6\n      jumpi\n      dup1\n      0x99e9c1dd\n      eq\n      tag_7\n      jumpi\n      dup1\n      0xd5f39488\n      eq\n      tag_8\n      jumpi\n      dup1\n      0xea017105\n      eq\n      tag_9\n      jumpi\n      jump(tag_2)\n    tag_10:\n      dup1\n      0x02b32af5\n      eq\n      tag_3\n      jumpi\n      dup1\n      0x1f31dc01\n      eq\n      tag_4\n      jumpi\n      dup1\n      0x880cdc31\n      eq\n      tag_5\n      jumpi\n      jump(tag_2)\n    tag_1:\n      jumpi(tag_2, calldatasize)\n      stop\n    tag_2:\n      stop\n        /* \"ETHBangkok/SmartWallet/SmartWallet.sol\":308:332  IERC20 public greenToken */\n    tag_3:\n      callvalue\n      dup1\n      iszero\n      tag_15\n      jumpi\n      0x00\n      dup1\n      revert\n    tag_15:\n      pop\n      tag_16\n      tag_17\n      jump\t// in\n    tag_16:\n      mload(0x40)\n      tag_18\n      swap2\n      swap1\n      tag_19\n      jump\t// in\n    tag_18:\n      mload(0x40)\n      dup1\n      swap2\n      sub\n      swap1\n      return\n        /* \"ETHBangkok/SmartWallet/SmartWallet.sol\":1387:1663  function updateGreenTokenAddress(address newGreenToken) external onlyDeployer {... */\n    tag_4:\n      callvalue\n      dup1\n      iszero\n      tag_20\n      jumpi\n      0x00\n      dup1\n      revert\n    tag_20:\n      pop\n      tag_21\n      0x04\n      dup1\n      calldatasize\n      sub\n      dup2\n      add\n      swap1\n      tag_22\n      swap2\n      swap1\n      tag_23\n      jump\t// in\n    tag_22:\n      tag_24\n      jump\t// in\n    tag_21:\n      stop\n        /* \"ETHBangkok/SmartWallet/SmartWallet.sol\":1163:1379  function updateOwner(address newOwner) external onlyDeployer {... */\n    tag_5:\n      callvalue\n      dup1\n      iszero\n      tag_25\n      jumpi\n      0x00\n      dup1\n      revert\n    tag_25:\n      pop\n      tag_26\n      0x04\n      dup1\n      calldatasize\n      sub\n      dup2\n      add\n      swap1\n      tag_27\n      swap2\n      swap1\n      tag_23\n      jump\t// in\n    tag_27:\n      tag_28\n      jump\t// in\n    tag_26:\n      stop\n        /* \"ETHBangkok/SmartWallet/SmartWallet.sol\":251:271  address public owner */\n    tag_6:\n      callvalue\n      dup1\n      iszero\n      tag_29\n      jumpi\n      0x00\n      dup1\n      revert\n    tag_29:\n      pop\n      tag_30\n      tag_31\n      jump\t// in\n    tag_30:\n      mload(0x40)\n      tag_32\n      swap2\n      swap1\n      tag_33\n      jump\t// in\n    tag_32:\n      mload(0x40)\n      dup1\n      swap2\n      sub\n      swap1\n      return\n        /* \"ETHBangkok/SmartWallet/SmartWallet.sol\":1954:2079  function getGreenTokenBalance() external view returns (uint256) {... */\n    tag_7:\n      callvalue\n      dup1\n      iszero\n      tag_34\n      jumpi\n      0x00\n      dup1\n      revert\n    tag_34:\n      pop\n      tag_35\n      tag_36\n      jump\t// in\n    tag_35:\n      mload(0x40)\n      tag_37\n      swap2\n      swap1\n      tag_38\n      jump\t// in\n    tag_37:\n      mload(0x40)\n      dup1\n      swap2\n      sub\n      swap1\n      return\n        /* \"ETHBangkok/SmartWallet/SmartWallet.sol\":278:301  address public deployer */\n    tag_8:\n      callvalue\n      dup1\n      iszero\n      tag_39\n      jumpi\n      0x00\n      dup1\n      revert\n    tag_39:\n      pop\n      tag_40\n      tag_41\n      jump\t// in\n    tag_40:\n      mload(0x40)\n      tag_42\n      swap2\n      swap1\n      tag_33\n      jump\t// in\n    tag_42:\n      mload(0x40)\n      dup1\n      swap2\n      sub\n      swap1\n      return\n        /* \"ETHBangkok/SmartWallet/SmartWallet.sol\":1671:1946  function verifyAndWithdraw() external onlyOwner {... */\n    tag_9:\n      callvalue\n      dup1\n      iszero\n      tag_43\n      jumpi\n      0x00\n      dup1\n      revert\n    tag_43:\n      pop\n      tag_44\n      tag_45\n      jump\t// in\n    tag_44:\n      stop\n        /* \"ETHBangkok/SmartWallet/SmartWallet.sol\":308:332  IERC20 public greenToken */\n    tag_17:\n      0x02\n      0x00\n      swap1\n      sload\n      swap1\n      0x0100\n      exp\n      swap1\n      div\n      0xffffffffffffffffffffffffffffffffffffffff\n      and\n      dup2\n      jump\t// out\n        /* \"ETHBangkok/SmartWallet/SmartWallet.sol\":1387:1663  function updateGreenTokenAddress(address newGreenToken) external onlyDeployer {... */\n    tag_24:\n        /* \"ETHBangkok/SmartWallet/SmartWallet.sol\":579:587  deployer */\n      0x01\n      0x00\n      swap1\n      sload\n      swap1\n      0x0100\n      exp\n      swap1\n      div\n      0xffffffffffffffffffffffffffffffffffffffff\n      and\n        /* \"ETHBangkok/SmartWallet/SmartWallet.sol\":565:587  msg.sender == deployer */\n      0xffffffffffffffffffffffffffffffffffffffff\n      and\n        /* \"ETHBangkok/SmartWallet/SmartWallet.sol\":565:575  msg.sender */\n      caller\n        /* \"ETHBangkok/SmartWallet/SmartWallet.sol\":565:587  msg.sender == deployer */\n      0xffffffffffffffffffffffffffffffffffffffff\n      and\n      eq\n        /* \"ETHBangkok/SmartWallet/SmartWallet.sol\":557:628  require(msg.sender == deployer, \"Only deployer can call this function\") */\n      tag_47\n      jumpi\n      mload(0x40)\n      0x08c379a000000000000000000000000000000000000000000000000000000000\n      dup2\n      mstore\n      0x04\n      add\n      tag_48\n      swap1\n      tag_49\n      jump\t// in\n    tag_48:\n      mload(0x40)\n      dup1\n      swap2\n      sub\n      swap1\n      revert\n    tag_47:\n        /* \"ETHBangkok/SmartWallet/SmartWallet.sol\":1509:1510  0 */\n      0x00\n        /* \"ETHBangkok/SmartWallet/SmartWallet.sol\":1484:1511  newGreenToken != address(0) */\n      0xffffffffffffffffffffffffffffffffffffffff\n      and\n        /* \"ETHBangkok/SmartWallet/SmartWallet.sol\":1484:1497  newGreenToken */\n      dup2\n        /* \"ETHBangkok/SmartWallet/SmartWallet.sol\":1484:1511  newGreenToken != address(0) */\n      0xffffffffffffffffffffffffffffffffffffffff\n      and\n      sub\n        /* \"ETHBangkok/SmartWallet/SmartWallet.sol\":1476:1562  require(newGreenToken != address(0), \"Green Token address cannot be the zero address\") */\n      tag_51\n      jumpi\n      mload(0x40)\n      0x08c379a000000000000000000000000000000000000000000000000000000000\n      dup2\n      mstore\n      0x04\n      add\n      tag_52\n      swap1\n      tag_53\n      jump\t// in\n    tag_52:\n      mload(0x40)\n      dup1\n      swap2\n      sub\n      swap1\n      revert\n    tag_51:\n        /* \"ETHBangkok/SmartWallet/SmartWallet.sol\":1593:1606  newGreenToken */\n      dup1\n        /* \"ETHBangkok/SmartWallet/SmartWallet.sol\":1573:1583  greenToken */\n      0x02\n      0x00\n        /* \"ETHBangkok/SmartWallet/SmartWallet.sol\":1573:1607  greenToken = IERC20(newGreenToken) */\n      0x0100\n      exp\n      dup2\n      sload\n      dup2\n      0xffffffffffffffffffffffffffffffffffffffff\n      mul\n      not\n      and\n      swap1\n      dup4\n      0xffffffffffffffffffffffffffffffffffffffff\n      and\n      mul\n      or\n      swap1\n      sstore\n      pop\n        /* \"ETHBangkok/SmartWallet/SmartWallet.sol\":1641:1654  newGreenToken */\n      dup1\n        /* \"ETHBangkok/SmartWallet/SmartWallet.sol\":1623:1655  GreenTokenUpdated(newGreenToken) */\n      0xffffffffffffffffffffffffffffffffffffffff\n      and\n      0x55b6b6fe98d11600785423c3f7630dee64b0f6fa54e8a25362aa522d83dfd243\n      mload(0x40)\n      mload(0x40)\n      dup1\n      swap2\n      sub\n      swap1\n      log2\n        /* \"ETHBangkok/SmartWallet/SmartWallet.sol\":1387:1663  function updateGreenTokenAddress(address newGreenToken) external onlyDeployer {... */\n      pop\n      jump\t// out\n        /* \"ETHBangkok/SmartWallet/SmartWallet.sol\":1163:1379  function updateOwner(address newOwner) external onlyDeployer {... */\n    tag_28:\n        /* \"ETHBangkok/SmartWallet/SmartWallet.sol\":579:587  deployer */\n      0x01\n      0x00\n      swap1\n      sload\n      swap1\n      0x0100\n      exp\n      swap1\n      div\n      0xffffffffffffffffffffffffffffffffffffffff\n      and\n        /* \"ETHBangkok/SmartWallet/SmartWallet.sol\":565:587  msg.sender == deployer */\n      0xffffffffffffffffffffffffffffffffffffffff\n      and\n        /* \"ETHBangkok/SmartWallet/SmartWallet.sol\":565:575  msg.sender */\n      caller\n        /* \"ETHBangkok/SmartWallet/SmartWallet.sol\":565:587  msg.sender == deployer */\n      0xffffffffffffffffffffffffffffffffffffffff\n      and\n      eq\n        /* \"ETHBangkok/SmartWallet/SmartWallet.sol\":557:628  require(msg.sender == deployer, \"Only deployer can call this function\") */\n      tag_55\n      jumpi\n      mload(0x40)\n      0x08c379a000000000000000000000000000000000000000000000000000000000\n      dup2\n      mstore\n      0x04\n      add\n      tag_56\n      swap1\n      tag_49\n      jump\t// in\n    tag_56:\n      mload(0x40)\n      dup1\n      swap2\n      sub\n      swap1\n      revert\n    tag_55:\n        /* \"ETHBangkok/SmartWallet/SmartWallet.sol\":1263:1264  0 */\n      0x00\n        /* \"ETHBangkok/SmartWallet/SmartWallet.sol\":1243:1265  newOwner != address(0) */\n      0xffffffffffffffffffffffffffffffffffffffff\n      and\n        /* \"ETHBangkok/SmartWallet/SmartWallet.sol\":1243:1251  newOwner */\n      dup2\n        /* \"ETHBangkok/SmartWallet/SmartWallet.sol\":1243:1265  newOwner != address(0) */\n      0xffffffffffffffffffffffffffffffffffffffff\n      and\n      sub\n        /* \"ETHBangkok/SmartWallet/SmartWallet.sol\":1235:1306  require(newOwner != address(0), \"New owner cannot be the zero address\") */\n      tag_58\n      jumpi\n      mload(0x40)\n      0x08c379a000000000000000000000000000000000000000000000000000000000\n      dup2\n      mstore\n      0x04\n      add\n      tag_59\n      swap1\n      tag_60\n      jump\t// in\n    tag_59:\n      mload(0x40)\n      dup1\n      swap2\n      sub\n      swap1\n      revert\n    tag_58:\n        /* \"ETHBangkok/SmartWallet/SmartWallet.sol\":1325:1333  newOwner */\n      dup1\n        /* \"ETHBangkok/SmartWallet/SmartWallet.sol\":1317:1322  owner */\n      0x00\n      dup1\n        /* \"ETHBangkok/SmartWallet/SmartWallet.sol\":1317:1333  owner = newOwner */\n      0x0100\n      exp\n      dup2\n      sload\n      dup2\n      0xffffffffffffffffffffffffffffffffffffffff\n      mul\n      not\n      and\n      swap1\n      dup4\n      0xffffffffffffffffffffffffffffffffffffffff\n      and\n      mul\n      or\n      swap1\n      sstore\n      pop\n        /* \"ETHBangkok/SmartWallet/SmartWallet.sol\":1362:1370  newOwner */\n      dup1\n        /* \"ETHBangkok/SmartWallet/SmartWallet.sol\":1349:1371  OwnerUpdated(newOwner) */\n      0xffffffffffffffffffffffffffffffffffffffff\n      and\n      0x4ffd725fc4a22075e9ec71c59edf9c38cdeb588a91b24fc5b61388c5be41282b\n      mload(0x40)\n      mload(0x40)\n      dup1\n      swap2\n      sub\n      swap1\n      log2\n        /* \"ETHBangkok/SmartWallet/SmartWallet.sol\":1163:1379  function updateOwner(address newOwner) external onlyDeployer {... */\n      pop\n      jump\t// out\n        /* \"ETHBangkok/SmartWallet/SmartWallet.sol\":251:271  address public owner */\n    tag_31:\n      0x00\n      dup1\n      sload\n      swap1\n      0x0100\n      exp\n      swap1\n      div\n      0xffffffffffffffffffffffffffffffffffffffff\n      and\n      dup2\n      jump\t// out\n        /* \"ETHBangkok/SmartWallet/SmartWallet.sol\":1954:2079  function getGreenTokenBalance() external view returns (uint256) {... */\n    tag_36:\n        /* \"ETHBangkok/SmartWallet/SmartWallet.sol\":2009:2016  uint256 */\n      0x00\n        /* \"ETHBangkok/SmartWallet/SmartWallet.sol\":2036:2046  greenToken */\n      0x02\n      0x00\n      swap1\n      sload\n      swap1\n      0x0100\n      exp\n      swap1\n      div\n      0xffffffffffffffffffffffffffffffffffffffff\n      and\n        /* \"ETHBangkok/SmartWallet/SmartWallet.sol\":2036:2056  greenToken.balanceOf */\n      0xffffffffffffffffffffffffffffffffffffffff\n      and\n      0x70a08231\n        /* \"ETHBangkok/SmartWallet/SmartWallet.sol\":2065:2069  this */\n      address\n        /* \"ETHBangkok/SmartWallet/SmartWallet.sol\":2036:2071  greenToken.balanceOf(address(this)) */\n      mload(0x40)\n      dup3\n      0xffffffff\n      and\n      0xe0\n      shl\n      dup2\n      mstore\n      0x04\n      add\n      tag_62\n      swap2\n      swap1\n      tag_33\n      jump\t// in\n    tag_62:\n      0x20\n      mload(0x40)\n      dup1\n      dup4\n      sub\n      dup2\n      dup7\n      gas\n      staticcall\n      iszero\n      dup1\n      iszero\n      tag_64\n      jumpi\n      returndatasize\n      0x00\n      dup1\n      returndatacopy\n      revert(0x00, returndatasize)\n    tag_64:\n      pop\n      pop\n      pop\n      pop\n      mload(0x40)\n      returndatasize\n      not(0x1f)\n      0x1f\n      dup3\n      add\n      and\n      dup3\n      add\n      dup1\n      0x40\n      mstore\n      pop\n      dup2\n      add\n      swap1\n      tag_65\n      swap2\n      swap1\n      tag_66\n      jump\t// in\n    tag_65:\n        /* \"ETHBangkok/SmartWallet/SmartWallet.sol\":2029:2071  return greenToken.balanceOf(address(this)) */\n      swap1\n      pop\n        /* \"ETHBangkok/SmartWallet/SmartWallet.sol\":1954:2079  function getGreenTokenBalance() external view returns (uint256) {... */\n      swap1\n      jump\t// out\n        /* \"ETHBangkok/SmartWallet/SmartWallet.sol\":278:301  address public deployer */\n    tag_41:\n      0x01\n      0x00\n      swap1\n      sload\n      swap1\n      0x0100\n      exp\n      swap1\n      div\n      0xffffffffffffffffffffffffffffffffffffffff\n      and\n      dup2\n      jump\t// out\n        /* \"ETHBangkok/SmartWallet/SmartWallet.sol\":1671:1946  function verifyAndWithdraw() external onlyOwner {... */\n    tag_45:\n        /* \"ETHBangkok/SmartWallet/SmartWallet.sol\":711:716  owner */\n      0x00\n      dup1\n      sload\n      swap1\n      0x0100\n      exp\n      swap1\n      div\n      0xffffffffffffffffffffffffffffffffffffffff\n      and\n        /* \"ETHBangkok/SmartWallet/SmartWallet.sol\":697:716  msg.sender == owner */\n      0xffffffffffffffffffffffffffffffffffffffff\n      and\n        /* \"ETHBangkok/SmartWallet/SmartWallet.sol\":697:707  msg.sender */\n      caller\n        /* \"ETHBangkok/SmartWallet/SmartWallet.sol\":697:716  msg.sender == owner */\n      0xffffffffffffffffffffffffffffffffffffffff\n      and\n      eq\n        /* \"ETHBangkok/SmartWallet/SmartWallet.sol\":689:754  require(msg.sender == owner, \"Only owner can call this function\") */\n      tag_68\n      jumpi\n      mload(0x40)\n      0x08c379a000000000000000000000000000000000000000000000000000000000\n      dup2\n      mstore\n      0x04\n      add\n      tag_69\n      swap1\n      tag_70\n      jump\t// in\n    tag_69:\n      mload(0x40)\n      dup1\n      swap2\n      sub\n      swap1\n      revert\n    tag_68:\n        /* \"ETHBangkok/SmartWallet/SmartWallet.sol\":1730:1745  uint256 balance */\n      0x00\n        /* \"ETHBangkok/SmartWallet/SmartWallet.sol\":1748:1758  greenToken */\n      0x02\n      0x00\n      swap1\n      sload\n      swap1\n      0x0100\n      exp\n      swap1\n      div\n      0xffffffffffffffffffffffffffffffffffffffff\n      and\n        /* \"ETHBangkok/SmartWallet/SmartWallet.sol\":1748:1768  greenToken.balanceOf */\n      0xffffffffffffffffffffffffffffffffffffffff\n      and\n      0x70a08231\n        /* \"ETHBangkok/SmartWallet/SmartWallet.sol\":1777:1781  this */\n      address\n        /* \"ETHBangkok/SmartWallet/SmartWallet.sol\":1748:1783  greenToken.balanceOf(address(this)) */\n      mload(0x40)\n      dup3\n      0xffffffff\n      and\n      0xe0\n      shl\n      dup2\n      mstore\n      0x04\n      add\n      tag_72\n      swap2\n      swap1\n      tag_33\n      jump\t// in\n    tag_72:\n      0x20\n      mload(0x40)\n      dup1\n      dup4\n      sub\n      dup2\n      dup7\n      gas\n      staticcall\n      iszero\n      dup1\n      iszero\n      tag_74\n      jumpi\n      returndatasize\n      0x00\n      dup1\n      returndatacopy\n      revert(0x00, returndatasize)\n    tag_74:\n      pop\n      pop\n      pop\n      pop\n      mload(0x40)\n      returndatasize\n      not(0x1f)\n      0x1f\n      dup3\n      add\n      and\n      dup3\n      add\n      dup1\n      0x40\n      mstore\n      pop\n      dup2\n      add\n      swap1\n      tag_75\n      swap2\n      swap1\n      tag_66\n      jump\t// in\n    tag_75:\n        /* \"ETHBangkok/SmartWallet/SmartWallet.sol\":1730:1783  uint256 balance = greenToken.balanceOf(address(this)) */\n      swap1\n      pop\n        /* \"ETHBangkok/SmartWallet/SmartWallet.sol\":1812:1813  0 */\n      0x00\n        /* \"ETHBangkok/SmartWallet/SmartWallet.sol\":1802:1809  balance */\n      dup2\n        /* \"ETHBangkok/SmartWallet/SmartWallet.sol\":1802:1813  balance > 0 */\n      gt\n        /* \"ETHBangkok/SmartWallet/SmartWallet.sol\":1794:1839  require(balance > 0, \"No tokens to withdraw\") */\n      tag_76\n      jumpi\n      mload(0x40)\n      0x08c379a000000000000000000000000000000000000000000000000000000000\n      dup2\n      mstore\n      0x04\n      add\n      tag_77\n      swap1\n      tag_78\n      jump\t// in\n    tag_77:\n      mload(0x40)\n      dup1\n      swap2\n      sub\n      swap1\n      revert\n    tag_76:\n        /* \"ETHBangkok/SmartWallet/SmartWallet.sol\":1852:1891  greenToken.safeTransfer(owner, balance) */\n      tag_79\n        /* \"ETHBangkok/SmartWallet/SmartWallet.sol\":1876:1881  owner */\n      0x00\n      dup1\n      sload\n      swap1\n      0x0100\n      exp\n      swap1\n      div\n      0xffffffffffffffffffffffffffffffffffffffff\n      and\n        /* \"ETHBangkok/SmartWallet/SmartWallet.sol\":1883:1890  balance */\n      dup3\n        /* \"ETHBangkok/SmartWallet/SmartWallet.sol\":1852:1862  greenToken */\n      0x02\n      0x00\n      swap1\n      sload\n      swap1\n      0x0100\n      exp\n      swap1\n      div\n      0xffffffffffffffffffffffffffffffffffffffff\n      and\n        /* \"ETHBangkok/SmartWallet/SmartWallet.sol\":1852:1875  greenToken.safeTransfer */\n      0xffffffffffffffffffffffffffffffffffffffff\n      and\n      tag_80\n      swap1\n        /* \"ETHBangkok/SmartWallet/SmartWallet.sol\":1852:1891  greenToken.safeTransfer(owner, balance) */\n      swap3\n      swap2\n      swap1\n      0xffffffff\n      and\n      jump\t// in\n    tag_79:\n        /* \"ETHBangkok/SmartWallet/SmartWallet.sol\":1923:1928  owner */\n      0x00\n      dup1\n      sload\n      swap1\n      0x0100\n      exp\n      swap1\n      div\n      0xffffffffffffffffffffffffffffffffffffffff\n      and\n        /* \"ETHBangkok/SmartWallet/SmartWallet.sol\":1907:1938  TokensWithdrawn(owner, balance) */\n      0xffffffffffffffffffffffffffffffffffffffff\n      and\n      0x6352c5382c4a4578e712449ca65e83cdb392d045dfcf1cad9615189db2da244b\n        /* \"ETHBangkok/SmartWallet/SmartWallet.sol\":1930:1937  balance */\n      dup3\n        /* \"ETHBangkok/SmartWallet/SmartWallet.sol\":1907:1938  TokensWithdrawn(owner, balance) */\n      mload(0x40)\n      tag_81\n      swap2\n      swap1\n      tag_38\n      jump\t// in\n    tag_81:\n      mload(0x40)\n      dup1\n      swap2\n      sub\n      swap1\n      log2\n        /* \"ETHBangkok/SmartWallet/SmartWallet.sol\":1719:1946  {... */\n      pop\n        /* \"ETHBangkok/SmartWallet/SmartWallet.sol\":1671:1946  function verifyAndWithdraw() external onlyOwner {... */\n      jump\t// out\n        /* \"@openzeppelin/contracts/token/ERC20/utils/SafeERC20.sol\":1271:1431  function safeTransfer(IERC20 token, address to, uint256 value) internal {... */\n    tag_80:\n        /* \"@openzeppelin/contracts/token/ERC20/utils/SafeERC20.sol\":1353:1424  _callOptionalReturn(token, abi.encodeCall(token.transfer, (to, value))) */\n      tag_83\n        /* \"@openzeppelin/contracts/token/ERC20/utils/SafeERC20.sol\":1373:1378  token */\n      dup4\n        /* \"@openzeppelin/contracts/token/ERC20/utils/SafeERC20.sol\":1395:1400  token */\n      dup5\n        /* \"@openzeppelin/contracts/token/ERC20/utils/SafeERC20.sol\":1395:1409  token.transfer */\n      0xffffffffffffffffffffffffffffffffffffffff\n      and\n      0xa9059cbb\n        /* \"@openzeppelin/contracts/token/ERC20/utils/SafeERC20.sol\":1412:1414  to */\n      dup6\n        /* \"@openzeppelin/contracts/token/ERC20/utils/SafeERC20.sol\":1416:1421  value */\n      dup6\n        /* \"@openzeppelin/contracts/token/ERC20/utils/SafeERC20.sol\":1380:1423  abi.encodeCall(token.transfer, (to, value)) */\n      add(0x24, mload(0x40))\n      tag_84\n      swap3\n      swap2\n      swap1\n      tag_85\n      jump\t// in\n    tag_84:\n      mload(0x40)\n      0x20\n      dup2\n      dup4\n      sub\n      sub\n      dup2\n      mstore\n      swap1\n      0x40\n      mstore\n      swap2\n      pop\n      0xe0\n      shl\n      0x20\n      dup3\n      add\n      dup1\n      mload\n      0xffffffffffffffffffffffffffffffffffffffffffffffffffffffff\n      dup4\n      dup2\n      dup4\n      and\n      or\n      dup4\n      mstore\n      pop\n      pop\n      pop\n      pop\n        /* \"@openzeppelin/contracts/token/ERC20/utils/SafeERC20.sol\":1353:1372  _callOptionalReturn */\n      tag_86\n        /* \"@openzeppelin/contracts/token/ERC20/utils/SafeERC20.sol\":1353:1424  _callOptionalReturn(token, abi.encodeCall(token.transfer, (to, value))) */\n      jump\t// in\n    tag_83:\n        /* \"@openzeppelin/contracts/token/ERC20/utils/SafeERC20.sol\":1271:1431  function safeTransfer(IERC20 token, address to, uint256 value) internal {... */\n      pop\n      pop\n      pop\n      jump\t// out\n        /* \"@openzeppelin/contracts/token/ERC20/utils/SafeERC20.sol\":7738:8458  function _callOptionalReturn(IERC20 token, bytes memory data) private {... */\n    tag_86:\n        /* \"@openzeppelin/contracts/token/ERC20/utils/SafeERC20.sol\":7818:7836  uint256 returnSize */\n      0x00\n        /* \"@openzeppelin/contracts/token/ERC20/utils/SafeERC20.sol\":7846:7865  uint256 returnValue */\n      dup1\n        /* \"@openzeppelin/contracts/token/ERC20/utils/SafeERC20.sol\":7984:7988  0x20 */\n      0x20\n        /* \"@openzeppelin/contracts/token/ERC20/utils/SafeERC20.sol\":7981:7982  0 */\n      0x00\n        /* \"@openzeppelin/contracts/token/ERC20/utils/SafeERC20.sol\":7974:7978  data */\n      dup5\n        /* \"@openzeppelin/contracts/token/ERC20/utils/SafeERC20.sol\":7968:7979  mload(data) */\n      mload\n        /* \"@openzeppelin/contracts/token/ERC20/utils/SafeERC20.sol\":7961:7965  0x20 */\n      0x20\n        /* \"@openzeppelin/contracts/token/ERC20/utils/SafeERC20.sol\":7955:7959  data */\n      dup7\n        /* \"@openzeppelin/contracts/token/ERC20/utils/SafeERC20.sol\":7951:7966  add(data, 0x20) */\n      add\n        /* \"@openzeppelin/contracts/token/ERC20/utils/SafeERC20.sol\":7948:7949  0 */\n      0x00\n        /* \"@openzeppelin/contracts/token/ERC20/utils/SafeERC20.sol\":7941:7946  token */\n      dup9\n        /* \"@openzeppelin/contracts/token/ERC20/utils/SafeERC20.sol\":7934:7939  gas() */\n      gas\n        /* \"@openzeppelin/contracts/token/ERC20/utils/SafeERC20.sol\":7929:7989  call(gas(), token, 0, add(data, 0x20), mload(data), 0, 0x20) */\n      call\n        /* \"@openzeppelin/contracts/token/ERC20/utils/SafeERC20.sol\":8041:8048  success */\n      dup1\n        /* \"@openzeppelin/contracts/token/ERC20/utils/SafeERC20.sol\":8031:8207  if iszero(success) {... */\n      tag_88\n      jumpi\n        /* \"@openzeppelin/contracts/token/ERC20/utils/SafeERC20.sol\":8085:8089  0x40 */\n      0x40\n        /* \"@openzeppelin/contracts/token/ERC20/utils/SafeERC20.sol\":8079:8090  mload(0x40) */\n      mload\n        /* \"@openzeppelin/contracts/token/ERC20/utils/SafeERC20.sol\":8130:8146  returndatasize() */\n      returndatasize\n        /* \"@openzeppelin/contracts/token/ERC20/utils/SafeERC20.sol\":8127:8128  0 */\n      0x00\n        /* \"@openzeppelin/contracts/token/ERC20/utils/SafeERC20.sol\":8122:8125  ptr */\n      dup3\n        /* \"@openzeppelin/contracts/token/ERC20/utils/SafeERC20.sol\":8107:8147  returndatacopy(ptr, 0, returndatasize()) */\n      returndatacopy\n        /* \"@openzeppelin/contracts/token/ERC20/utils/SafeERC20.sol\":8176:8192  returndatasize() */\n      returndatasize\n        /* \"@openzeppelin/contracts/token/ERC20/utils/SafeERC20.sol\":8171:8174  ptr */\n      dup2\n        /* \"@openzeppelin/contracts/token/ERC20/utils/SafeERC20.sol\":8164:8193  revert(ptr, returndatasize()) */\n      revert\n        /* \"@openzeppelin/contracts/token/ERC20/utils/SafeERC20.sol\":8031:8207  if iszero(success) {... */\n    tag_88:\n        /* \"@openzeppelin/contracts/token/ERC20/utils/SafeERC20.sol\":8234:8250  returndatasize() */\n      returndatasize\n        /* \"@openzeppelin/contracts/token/ERC20/utils/SafeERC20.sol\":8220:8250  returnSize := returndatasize() */\n      swap3\n      pop\n        /* \"@openzeppelin/contracts/token/ERC20/utils/SafeERC20.sol\":8284:8285  0 */\n      0x00\n        /* \"@openzeppelin/contracts/token/ERC20/utils/SafeERC20.sol\":8278:8286  mload(0) */\n      mload\n        /* \"@openzeppelin/contracts/token/ERC20/utils/SafeERC20.sol\":8263:8286  returnValue := mload(0) */\n      swap2\n      pop\n        /* \"@openzeppelin/contracts/token/ERC20/utils/SafeERC20.sol\":7900:8296  {... */\n      pop\n        /* \"@openzeppelin/contracts/token/ERC20/utils/SafeERC20.sol\":8324:8325  0 */\n      0x00\n        /* \"@openzeppelin/contracts/token/ERC20/utils/SafeERC20.sol\":8310:8320  returnSize */\n      dup3\n        /* \"@openzeppelin/contracts/token/ERC20/utils/SafeERC20.sol\":8310:8325  returnSize == 0 */\n      eq\n        /* \"@openzeppelin/contracts/token/ERC20/utils/SafeERC20.sol\":8310:8378  returnSize == 0 ? address(token).code.length == 0 : returnValue != 1 */\n      tag_89\n      jumpi\n        /* \"@openzeppelin/contracts/token/ERC20/utils/SafeERC20.sol\":8377:8378  1 */\n      0x01\n        /* \"@openzeppelin/contracts/token/ERC20/utils/SafeERC20.sol\":8362:8373  returnValue */\n      dup2\n        /* \"@openzeppelin/contracts/token/ERC20/utils/SafeERC20.sol\":8362:8378  returnValue != 1 */\n      eq\n      iszero\n        /* \"@openzeppelin/contracts/token/ERC20/utils/SafeERC20.sol\":8310:8378  returnSize == 0 ? address(token).code.length == 0 : returnValue != 1 */\n      jump(tag_90)\n    tag_89:\n        /* \"@openzeppelin/contracts/token/ERC20/utils/SafeERC20.sol\":8358:8359  0 */\n      0x00\n        /* \"@openzeppelin/contracts/token/ERC20/utils/SafeERC20.sol\":8336:8341  token */\n      dup5\n        /* \"@openzeppelin/contracts/token/ERC20/utils/SafeERC20.sol\":8328:8354  address(token).code.length */\n      0xffffffffffffffffffffffffffffffffffffffff\n      and\n      extcodesize\n        /* \"@openzeppelin/contracts/token/ERC20/utils/SafeERC20.sol\":8328:8359  address(token).code.length == 0 */\n      eq\n        /* \"@openzeppelin/contracts/token/ERC20/utils/SafeERC20.sol\":8310:8378  returnSize == 0 ? address(token).code.length == 0 : returnValue != 1 */\n    tag_90:\n        /* \"@openzeppelin/contracts/token/ERC20/utils/SafeERC20.sol\":8306:8452  if (returnSize == 0 ? address(token).code.length == 0 : returnValue != 1) {... */\n      iszero\n      tag_91\n      jumpi\n        /* \"@openzeppelin/contracts/token/ERC20/utils/SafeERC20.sol\":8434:8439  token */\n      dup4\n        /* \"@openzeppelin/contracts/token/ERC20/utils/SafeERC20.sol\":8401:8441  SafeERC20FailedOperation(address(token)) */\n      mload(0x40)\n      0x5274afe700000000000000000000000000000000000000000000000000000000\n      dup2\n      mstore\n      0x04\n      add\n      tag_92\n      swap2\n      swap1\n      tag_33\n      jump\t// in\n    tag_92:\n      mload(0x40)\n      dup1\n      swap2\n      sub\n      swap1\n      revert\n        /* \"@openzeppelin/contracts/token/ERC20/utils/SafeERC20.sol\":8306:8452  if (returnSize == 0 ? address(token).code.length == 0 : returnValue != 1) {... */\n    tag_91:\n        /* \"@openzeppelin/contracts/token/ERC20/utils/SafeERC20.sol\":7808:8458  {... */\n      pop\n      pop\n        /* \"@openzeppelin/contracts/token/ERC20/utils/SafeERC20.sol\":7738:8458  function _callOptionalReturn(IERC20 token, bytes memory data) private {... */\n      pop\n      pop\n      jump\t// out\n        /* \"#utility.yul\":7:133   */\n    tag_93:\n        /* \"#utility.yul\":44:51   */\n      0x00\n        /* \"#utility.yul\":84:126   */\n      0xffffffffffffffffffffffffffffffffffffffff\n        /* \"#utility.yul\":77:82   */\n      dup3\n        /* \"#utility.yul\":73:127   */\n      and\n        /* \"#utility.yul\":62:127   */\n      swap1\n      pop\n        /* \"#utility.yul\":7:133   */\n      swap2\n      swap1\n      pop\n      jump\t// out\n        /* \"#utility.yul\":139:199   */\n    tag_94:\n        /* \"#utility.yul\":167:170   */\n      0x00\n        /* \"#utility.yul\":188:193   */\n      dup2\n        /* \"#utility.yul\":181:193   */\n      swap1\n      pop\n        /* \"#utility.yul\":139:199   */\n      swap2\n      swap1\n      pop\n      jump\t// out\n        /* \"#utility.yul\":205:347   */\n    tag_95:\n        /* \"#utility.yul\":255:264   */\n      0x00\n        /* \"#utility.yul\":288:341   */\n      tag_125\n        /* \"#utility.yul\":306:340   */\n      tag_126\n        /* \"#utility.yul\":315:339   */\n      tag_127\n        /* \"#utility.yul\":333:338   */\n      dup5\n        /* \"#utility.yul\":315:339   */\n      tag_93\n      jump\t// in\n    tag_127:\n        /* \"#utility.yul\":306:340   */\n      tag_94\n      jump\t// in\n    tag_126:\n        /* \"#utility.yul\":288:341   */\n      tag_93\n      jump\t// in\n    tag_125:\n        /* \"#utility.yul\":275:341   */\n      swap1\n      pop\n        /* \"#utility.yul\":205:347   */\n      swap2\n      swap1\n      pop\n      jump\t// out\n        /* \"#utility.yul\":353:479   */\n    tag_96:\n        /* \"#utility.yul\":403:412   */\n      0x00\n        /* \"#utility.yul\":436:473   */\n      tag_129\n        /* \"#utility.yul\":467:472   */\n      dup3\n        /* \"#utility.yul\":436:473   */\n      tag_95\n      jump\t// in\n    tag_129:\n        /* \"#utility.yul\":423:473   */\n      swap1\n      pop\n        /* \"#utility.yul\":353:479   */\n      swap2\n      swap1\n      pop\n      jump\t// out\n        /* \"#utility.yul\":485:625   */\n    tag_97:\n        /* \"#utility.yul\":549:558   */\n      0x00\n        /* \"#utility.yul\":582:619   */\n      tag_131\n        /* \"#utility.yul\":613:618   */\n      dup3\n        /* \"#utility.yul\":582:619   */\n      tag_96\n      jump\t// in\n    tag_131:\n        /* \"#utility.yul\":569:619   */\n      swap1\n      pop\n        /* \"#utility.yul\":485:625   */\n      swap2\n      swap1\n      pop\n      jump\t// out\n        /* \"#utility.yul\":631:790   */\n    tag_98:\n        /* \"#utility.yul\":732:783   */\n      tag_133\n        /* \"#utility.yul\":777:782   */\n      dup2\n        /* \"#utility.yul\":732:783   */\n      tag_97\n      jump\t// in\n    tag_133:\n        /* \"#utility.yul\":727:730   */\n      dup3\n        /* \"#utility.yul\":720:784   */\n      mstore\n        /* \"#utility.yul\":631:790   */\n      pop\n      pop\n      jump\t// out\n        /* \"#utility.yul\":796:1046   */\n    tag_19:\n        /* \"#utility.yul\":903:907   */\n      0x00\n        /* \"#utility.yul\":941:943   */\n      0x20\n        /* \"#utility.yul\":930:939   */\n      dup3\n        /* \"#utility.yul\":926:944   */\n      add\n        /* \"#utility.yul\":918:944   */\n      swap1\n      pop\n        /* \"#utility.yul\":954:1039   */\n      tag_135\n        /* \"#utility.yul\":1036:1037   */\n      0x00\n        /* \"#utility.yul\":1025:1034   */\n      dup4\n        /* \"#utility.yul\":1021:1038   */\n      add\n        /* \"#utility.yul\":1012:1018   */\n      dup5\n        /* \"#utility.yul\":954:1039   */\n      tag_98\n      jump\t// in\n    tag_135:\n        /* \"#utility.yul\":796:1046   */\n      swap3\n      swap2\n      pop\n      pop\n      jump\t// out\n        /* \"#utility.yul\":1133:1250   */\n    tag_100:\n        /* \"#utility.yul\":1242:1243   */\n      0x00\n        /* \"#utility.yul\":1239:1240   */\n      dup1\n        /* \"#utility.yul\":1232:1244   */\n      revert\n        /* \"#utility.yul\":1379:1475   */\n    tag_102:\n        /* \"#utility.yul\":1416:1423   */\n      0x00\n        /* \"#utility.yul\":1445:1469   */\n      tag_140\n        /* \"#utility.yul\":1463:1468   */\n      dup3\n        /* \"#utility.yul\":1445:1469   */\n      tag_93\n      jump\t// in\n    tag_140:\n        /* \"#utility.yul\":1434:1469   */\n      swap1\n      pop\n        /* \"#utility.yul\":1379:1475   */\n      swap2\n      swap1\n      pop\n      jump\t// out\n        /* \"#utility.yul\":1481:1603   */\n    tag_103:\n        /* \"#utility.yul\":1554:1578   */\n      tag_142\n        /* \"#utility.yul\":1572:1577   */\n      dup2\n        /* \"#utility.yul\":1554:1578   */\n      tag_102\n      jump\t// in\n    tag_142:\n        /* \"#utility.yul\":1547:1552   */\n      dup2\n        /* \"#utility.yul\":1544:1579   */\n      eq\n        /* \"#utility.yul\":1534:1597   */\n      tag_143\n      jumpi\n        /* \"#utility.yul\":1593:1594   */\n      0x00\n        /* \"#utility.yul\":1590:1591   */\n      dup1\n        /* \"#utility.yul\":1583:1595   */\n      revert\n        /* \"#utility.yul\":1534:1597   */\n    tag_143:\n        /* \"#utility.yul\":1481:1603   */\n      pop\n      jump\t// out\n        /* \"#utility.yul\":1609:1748   */\n    tag_104:\n        /* \"#utility.yul\":1655:1660   */\n      0x00\n        /* \"#utility.yul\":1693:1699   */\n      dup2\n        /* \"#utility.yul\":1680:1700   */\n      calldataload\n        /* \"#utility.yul\":1671:1700   */\n      swap1\n      pop\n        /* \"#utility.yul\":1709:1742   */\n      tag_145\n        /* \"#utility.yul\":1736:1741   */\n      dup2\n        /* \"#utility.yul\":1709:1742   */\n      tag_103\n      jump\t// in\n    tag_145:\n        /* \"#utility.yul\":1609:1748   */\n      swap3\n      swap2\n      pop\n      pop\n      jump\t// out\n        /* \"#utility.yul\":1754:2083   */\n    tag_23:\n        /* \"#utility.yul\":1813:1819   */\n      0x00\n        /* \"#utility.yul\":1862:1864   */\n      0x20\n        /* \"#utility.yul\":1850:1859   */\n      dup3\n        /* \"#utility.yul\":1841:1848   */\n      dup5\n        /* \"#utility.yul\":1837:1860   */\n      sub\n        /* \"#utility.yul\":1833:1865   */\n      slt\n        /* \"#utility.yul\":1830:1949   */\n      iszero\n      tag_147\n      jumpi\n        /* \"#utility.yul\":1868:1947   */\n      tag_148\n      tag_100\n      jump\t// in\n    tag_148:\n        /* \"#utility.yul\":1830:1949   */\n    tag_147:\n        /* \"#utility.yul\":1988:1989   */\n      0x00\n        /* \"#utility.yul\":2013:2066   */\n      tag_149\n        /* \"#utility.yul\":2058:2065   */\n      dup5\n        /* \"#utility.yul\":2049:2055   */\n      dup3\n        /* \"#utility.yul\":2038:2047   */\n      dup6\n        /* \"#utility.yul\":2034:2056   */\n      add\n        /* \"#utility.yul\":2013:2066   */\n      tag_104\n      jump\t// in\n    tag_149:\n        /* \"#utility.yul\":2003:2066   */\n      swap2\n      pop\n        /* \"#utility.yul\":1959:2076   */\n      pop\n        /* \"#utility.yul\":1754:2083   */\n      swap3\n      swap2\n      pop\n      pop\n      jump\t// out\n        /* \"#utility.yul\":2089:2207   */\n    tag_105:\n        /* \"#utility.yul\":2176:2200   */\n      tag_151\n        /* \"#utility.yul\":2194:2199   */\n      dup2\n        /* \"#utility.yul\":2176:2200   */\n      tag_102\n      jump\t// in\n    tag_151:\n        /* \"#utility.yul\":2171:2174   */\n      dup3\n        /* \"#utility.yul\":2164:2201   */\n      mstore\n        /* \"#utility.yul\":2089:2207   */\n      pop\n      pop\n      jump\t// out\n        /* \"#utility.yul\":2213:2435   */\n    tag_33:\n        /* \"#utility.yul\":2306:2310   */\n      0x00\n        /* \"#utility.yul\":2344:2346   */\n      0x20\n        /* \"#utility.yul\":2333:2342   */\n      dup3\n        /* \"#utility.yul\":2329:2347   */\n      add\n        /* \"#utility.yul\":2321:2347   */\n      swap1\n      pop\n        /* \"#utility.yul\":2357:2428   */\n      tag_153\n        /* \"#utility.yul\":2425:2426   */\n      0x00\n        /* \"#utility.yul\":2414:2423   */\n      dup4\n        /* \"#utility.yul\":2410:2427   */\n      add\n        /* \"#utility.yul\":2401:2407   */\n      dup5\n        /* \"#utility.yul\":2357:2428   */\n      tag_105\n      jump\t// in\n    tag_153:\n        /* \"#utility.yul\":2213:2435   */\n      swap3\n      swap2\n      pop\n      pop\n      jump\t// out\n        /* \"#utility.yul\":2441:2518   */\n    tag_106:\n        /* \"#utility.yul\":2478:2485   */\n      0x00\n        /* \"#utility.yul\":2507:2512   */\n      dup2\n        /* \"#utility.yul\":2496:2512   */\n      swap1\n      pop\n        /* \"#utility.yul\":2441:2518   */\n      swap2\n      swap1\n      pop\n      jump\t// out\n        /* \"#utility.yul\":2524:2642   */\n    tag_107:\n        /* \"#utility.yul\":2611:2635   */\n      tag_156\n        /* \"#utility.yul\":2629:2634   */\n      dup2\n        /* \"#utility.yul\":2611:2635   */\n      tag_106\n      jump\t// in\n    tag_156:\n        /* \"#utility.yul\":2606:2609   */\n      dup3\n        /* \"#utility.yul\":2599:2636   */\n      mstore\n        /* \"#utility.yul\":2524:2642   */\n      pop\n      pop\n      jump\t// out\n        /* \"#utility.yul\":2648:2870   */\n    tag_38:\n        /* \"#utility.yul\":2741:2745   */\n      0x00\n        /* \"#utility.yul\":2779:2781   */\n      0x20\n        /* \"#utility.yul\":2768:2777   */\n      dup3\n        /* \"#utility.yul\":2764:2782   */\n      add\n        /* \"#utility.yul\":2756:2782   */\n      swap1\n      pop\n        /* \"#utility.yul\":2792:2863   */\n      tag_158\n        /* \"#utility.yul\":2860:2861   */\n      0x00\n        /* \"#utility.yul\":2849:2858   */\n      dup4\n        /* \"#utility.yul\":2845:2862   */\n      add\n        /* \"#utility.yul\":2836:2842   */\n      dup5\n        /* \"#utility.yul\":2792:2863   */\n      tag_107\n      jump\t// in\n    tag_158:\n        /* \"#utility.yul\":2648:2870   */\n      swap3\n      swap2\n      pop\n      pop\n      jump\t// out\n        /* \"#utility.yul\":2876:3045   */\n    tag_108:\n        /* \"#utility.yul\":2960:2971   */\n      0x00\n        /* \"#utility.yul\":2994:3000   */\n      dup3\n        /* \"#utility.yul\":2989:2992   */\n      dup3\n        /* \"#utility.yul\":2982:3001   */\n      mstore\n        /* \"#utility.yul\":3034:3038   */\n      0x20\n        /* \"#utility.yul\":3029:3032   */\n      dup3\n        /* \"#utility.yul\":3025:3039   */\n      add\n        /* \"#utility.yul\":3010:3039   */\n      swap1\n      pop\n        /* \"#utility.yul\":2876:3045   */\n      swap3\n      swap2\n      pop\n      pop\n      jump\t// out\n        /* \"#utility.yul\":3051:3274   */\n    tag_109:\n        /* \"#utility.yul\":3191:3225   */\n      0x4f6e6c79206465706c6f7965722063616e2063616c6c20746869732066756e63\n        /* \"#utility.yul\":3187:3188   */\n      0x00\n        /* \"#utility.yul\":3179:3185   */\n      dup3\n        /* \"#utility.yul\":3175:3189   */\n      add\n        /* \"#utility.yul\":3168:3226   */\n      mstore\n        /* \"#utility.yul\":3260:3266   */\n      0x74696f6e00000000000000000000000000000000000000000000000000000000\n        /* \"#utility.yul\":3255:3257   */\n      0x20\n        /* \"#utility.yul\":3247:3253   */\n      dup3\n        /* \"#utility.yul\":3243:3258   */\n      add\n        /* \"#utility.yul\":3236:3267   */\n      mstore\n        /* \"#utility.yul\":3051:3274   */\n      pop\n      jump\t// out\n        /* \"#utility.yul\":3280:3646   */\n    tag_110:\n        /* \"#utility.yul\":3422:3425   */\n      0x00\n        /* \"#utility.yul\":3443:3510   */\n      tag_162\n        /* \"#utility.yul\":3507:3509   */\n      0x24\n        /* \"#utility.yul\":3502:3505   */\n      dup4\n        /* \"#utility.yul\":3443:3510   */\n      tag_108\n      jump\t// in\n    tag_162:\n        /* \"#utility.yul\":3436:3510   */\n      swap2\n      pop\n        /* \"#utility.yul\":3519:3612   */\n      tag_163\n        /* \"#utility.yul\":3608:3611   */\n      dup3\n        /* \"#utility.yul\":3519:3612   */\n      tag_109\n      jump\t// in\n    tag_163:\n        /* \"#utility.yul\":3637:3639   */\n      0x40\n        /* \"#utility.yul\":3632:3635   */\n      dup3\n        /* \"#utility.yul\":3628:3640   */\n      add\n        /* \"#utility.yul\":3621:3640   */\n      swap1\n      pop\n        /* \"#utility.yul\":3280:3646   */\n      swap2\n      swap1\n      pop\n      jump\t// out\n        /* \"#utility.yul\":3652:4071   */\n    tag_49:\n        /* \"#utility.yul\":3818:3822   */\n      0x00\n        /* \"#utility.yul\":3856:3858   */\n      0x20\n        /* \"#utility.yul\":3845:3854   */\n      dup3\n        /* \"#utility.yul\":3841:3859   */\n      add\n        /* \"#utility.yul\":3833:3859   */\n      swap1\n      pop\n        /* \"#utility.yul\":3905:3914   */\n      dup2\n        /* \"#utility.yul\":3899:3903   */\n      dup2\n        /* \"#utility.yul\":3895:3915   */\n      sub\n        /* \"#utility.yul\":3891:3892   */\n      0x00\n        /* \"#utility.yul\":3880:3889   */\n      dup4\n        /* \"#utility.yul\":3876:3893   */\n      add\n        /* \"#utility.yul\":3869:3916   */\n      mstore\n        /* \"#utility.yul\":3933:4064   */\n      tag_165\n        /* \"#utility.yul\":4059:4063   */\n      dup2\n        /* \"#utility.yul\":3933:4064   */\n      tag_110\n      jump\t// in\n    tag_165:\n        /* \"#utility.yul\":3925:4064   */\n      swap1\n      pop\n        /* \"#utility.yul\":3652:4071   */\n      swap2\n      swap1\n      pop\n      jump\t// out\n        /* \"#utility.yul\":4077:4310   */\n    tag_111:\n        /* \"#utility.yul\":4217:4251   */\n      0x477265656e20546f6b656e20616464726573732063616e6e6f74206265207468\n        /* \"#utility.yul\":4213:4214   */\n      0x00\n        /* \"#utility.yul\":4205:4211   */\n      dup3\n        /* \"#utility.yul\":4201:4215   */\n      add\n        /* \"#utility.yul\":4194:4252   */\n      mstore\n        /* \"#utility.yul\":4286:4302   */\n      0x65207a65726f2061646472657373000000000000000000000000000000000000\n        /* \"#utility.yul\":4281:4283   */\n      0x20\n        /* \"#utility.yul\":4273:4279   */\n      dup3\n        /* \"#utility.yul\":4269:4284   */\n      add\n        /* \"#utility.yul\":4262:4303   */\n      mstore\n        /* \"#utility.yul\":4077:4310   */\n      pop\n      jump\t// out\n        /* \"#utility.yul\":4316:4682   */\n    tag_112:\n        /* \"#utility.yul\":4458:4461   */\n      0x00\n        /* \"#utility.yul\":4479:4546   */\n      tag_168\n        /* \"#utility.yul\":4543:4545   */\n      0x2e\n        /* \"#utility.yul\":4538:4541   */\n      dup4\n        /* \"#utility.yul\":4479:4546   */\n      tag_108\n      jump\t// in\n    tag_168:\n        /* \"#utility.yul\":4472:4546   */\n      swap2\n      pop\n        /* \"#utility.yul\":4555:4648   */\n      tag_169\n        /* \"#utility.yul\":4644:4647   */\n      dup3\n        /* \"#utility.yul\":4555:4648   */\n      tag_111\n      jump\t// in\n    tag_169:\n        /* \"#utility.yul\":4673:4675   */\n      0x40\n        /* \"#utility.yul\":4668:4671   */\n      dup3\n        /* \"#utility.yul\":4664:4676   */\n      add\n        /* \"#utility.yul\":4657:4676   */\n      swap1\n      pop\n        /* \"#utility.yul\":4316:4682   */\n      swap2\n      swap1\n      pop\n      jump\t// out\n        /* \"#utility.yul\":4688:5107   */\n    tag_53:\n        /* \"#utility.yul\":4854:4858   */\n      0x00\n        /* \"#utility.yul\":4892:4894   */\n      0x20\n        /* \"#utility.yul\":4881:4890   */\n      dup3\n        /* \"#utility.yul\":4877:4895   */\n      add\n        /* \"#utility.yul\":4869:4895   */\n      swap1\n      pop\n        /* \"#utility.yul\":4941:4950   */\n      dup2\n        /* \"#utility.yul\":4935:4939   */\n      dup2\n        /* \"#utility.yul\":4931:4951   */\n      sub\n        /* \"#utility.yul\":4927:4928   */\n      0x00\n        /* \"#utility.yul\":4916:4925   */\n      dup4\n        /* \"#utility.yul\":4912:4929   */\n      add\n        /* \"#utility.yul\":4905:4952   */\n      mstore\n        /* \"#utility.yul\":4969:5100   */\n      tag_171\n        /* \"#utility.yul\":5095:5099   */\n      dup2\n        /* \"#utility.yul\":4969:5100   */\n      tag_112\n      jump\t// in\n    tag_171:\n        /* \"#utility.yul\":4961:5100   */\n      swap1\n      pop\n        /* \"#utility.yul\":4688:5107   */\n      swap2\n      swap1\n      pop\n      jump\t// out\n        /* \"#utility.yul\":5113:5336   */\n    tag_113:\n        /* \"#utility.yul\":5253:5287   */\n      0x4e6577206f776e65722063616e6e6f7420626520746865207a65726f20616464\n        /* \"#utility.yul\":5249:5250   */\n      0x00\n        /* \"#utility.yul\":5241:5247   */\n      dup3\n        /* \"#utility.yul\":5237:5251   */\n      add\n        /* \"#utility.yul\":5230:5288   */\n      mstore\n        /* \"#utility.yul\":5322:5328   */\n      0x7265737300000000000000000000000000000000000000000000000000000000\n        /* \"#utility.yul\":5317:5319   */\n      0x20\n        /* \"#utility.yul\":5309:5315   */\n      dup3\n        /* \"#utility.yul\":5305:5320   */\n      add\n        /* \"#utility.yul\":5298:5329   */\n      mstore\n        /* \"#utility.yul\":5113:5336   */\n      pop\n      jump\t// out\n        /* \"#utility.yul\":5342:5708   */\n    tag_114:\n        /* \"#utility.yul\":5484:5487   */\n      0x00\n        /* \"#utility.yul\":5505:5572   */\n      tag_174\n        /* \"#utility.yul\":5569:5571   */\n      0x24\n        /* \"#utility.yul\":5564:5567   */\n      dup4\n        /* \"#utility.yul\":5505:5572   */\n      tag_108\n      jump\t// in\n    tag_174:\n        /* \"#utility.yul\":5498:5572   */\n      swap2\n      pop\n        /* \"#utility.yul\":5581:5674   */\n      tag_175\n        /* \"#utility.yul\":5670:5673   */\n      dup3\n        /* \"#utility.yul\":5581:5674   */\n      tag_113\n      jump\t// in\n    tag_175:\n        /* \"#utility.yul\":5699:5701   */\n      0x40\n        /* \"#utility.yul\":5694:5697   */\n      dup3\n        /* \"#utility.yul\":5690:5702   */\n      add\n        /* \"#utility.yul\":5683:5702   */\n      swap1\n      pop\n        /* \"#utility.yul\":5342:5708   */\n      swap2\n      swap1\n      pop\n      jump\t// out\n        /* \"#utility.yul\":5714:6133   */\n    tag_60:\n        /* \"#utility.yul\":5880:5884   */\n      0x00\n        /* \"#utility.yul\":5918:5920   */\n      0x20\n        /* \"#utility.yul\":5907:5916   */\n      dup3\n        /* \"#utility.yul\":5903:5921   */\n      add\n        /* \"#utility.yul\":5895:5921   */\n      swap1\n      pop\n        /* \"#utility.yul\":5967:5976   */\n      dup2\n        /* \"#utility.yul\":5961:5965   */\n      dup2\n        /* \"#utility.yul\":5957:5977   */\n      sub\n        /* \"#utility.yul\":5953:5954   */\n      0x00\n        /* \"#utility.yul\":5942:5951   */\n      dup4\n        /* \"#utility.yul\":5938:5955   */\n      add\n        /* \"#utility.yul\":5931:5978   */\n      mstore\n        /* \"#utility.yul\":5995:6126   */\n      tag_177\n        /* \"#utility.yul\":6121:6125   */\n      dup2\n        /* \"#utility.yul\":5995:6126   */\n      tag_114\n      jump\t// in\n    tag_177:\n        /* \"#utility.yul\":5987:6126   */\n      swap1\n      pop\n        /* \"#utility.yul\":5714:6133   */\n      swap2\n      swap1\n      pop\n      jump\t// out\n        /* \"#utility.yul\":6139:6261   */\n    tag_115:\n        /* \"#utility.yul\":6212:6236   */\n      tag_179\n        /* \"#utility.yul\":6230:6235   */\n      dup2\n        /* \"#utility.yul\":6212:6236   */\n      tag_106\n      jump\t// in\n    tag_179:\n        /* \"#utility.yul\":6205:6210   */\n      dup2\n        /* \"#utility.yul\":6202:6237   */\n      eq\n        /* \"#utility.yul\":6192:6255   */\n      tag_180\n      jumpi\n        /* \"#utility.yul\":6251:6252   */\n      0x00\n        /* \"#utility.yul\":6248:6249   */\n      dup1\n        /* \"#utility.yul\":6241:6253   */\n      revert\n        /* \"#utility.yul\":6192:6255   */\n    tag_180:\n        /* \"#utility.yul\":6139:6261   */\n      pop\n      jump\t// out\n        /* \"#utility.yul\":6267:6410   */\n    tag_116:\n        /* \"#utility.yul\":6324:6329   */\n      0x00\n        /* \"#utility.yul\":6355:6361   */\n      dup2\n        /* \"#utility.yul\":6349:6362   */\n      mload\n        /* \"#utility.yul\":6340:6362   */\n      swap1\n      pop\n        /* \"#utility.yul\":6371:6404   */\n      tag_182\n        /* \"#utility.yul\":6398:6403   */\n      dup2\n        /* \"#utility.yul\":6371:6404   */\n      tag_115\n      jump\t// in\n    tag_182:\n        /* \"#utility.yul\":6267:6410   */\n      swap3\n      swap2\n      pop\n      pop\n      jump\t// out\n        /* \"#utility.yul\":6416:6767   */\n    tag_66:\n        /* \"#utility.yul\":6486:6492   */\n      0x00\n        /* \"#utility.yul\":6535:6537   */\n      0x20\n        /* \"#utility.yul\":6523:6532   */\n      dup3\n        /* \"#utility.yul\":6514:6521   */\n      dup5\n        /* \"#utility.yul\":6510:6533   */\n      sub\n        /* \"#utility.yul\":6506:6538   */\n      slt\n        /* \"#utility.yul\":6503:6622   */\n      iszero\n      tag_184\n      jumpi\n        /* \"#utility.yul\":6541:6620   */\n      tag_185\n      tag_100\n      jump\t// in\n    tag_185:\n        /* \"#utility.yul\":6503:6622   */\n    tag_184:\n        /* \"#utility.yul\":6661:6662   */\n      0x00\n        /* \"#utility.yul\":6686:6750   */\n      tag_186\n        /* \"#utility.yul\":6742:6749   */\n      dup5\n        /* \"#utility.yul\":6733:6739   */\n      dup3\n        /* \"#utility.yul\":6722:6731   */\n      dup6\n        /* \"#utility.yul\":6718:6740   */\n      add\n        /* \"#utility.yul\":6686:6750   */\n      tag_116\n      jump\t// in\n    tag_186:\n        /* \"#utility.yul\":6676:6750   */\n      swap2\n      pop\n        /* \"#utility.yul\":6632:6760   */\n      pop\n        /* \"#utility.yul\":6416:6767   */\n      swap3\n      swap2\n      pop\n      pop\n      jump\t// out\n        /* \"#utility.yul\":6773:6993   */\n    tag_117:\n        /* \"#utility.yul\":6913:6947   */\n      0x4f6e6c79206f776e65722063616e2063616c6c20746869732066756e6374696f\n        /* \"#utility.yul\":6909:6910   */\n      0x00\n        /* \"#utility.yul\":6901:6907   */\n      dup3\n        /* \"#utility.yul\":6897:6911   */\n      add\n        /* \"#utility.yul\":6890:6948   */\n      mstore\n        /* \"#utility.yul\":6982:6985   */\n      0x6e00000000000000000000000000000000000000000000000000000000000000\n        /* \"#utility.yul\":6977:6979   */\n      0x20\n        /* \"#utility.yul\":6969:6975   */\n      dup3\n        /* \"#utility.yul\":6965:6980   */\n      add\n        /* \"#utility.yul\":6958:6986   */\n      mstore\n        /* \"#utility.yul\":6773:6993   */\n      pop\n      jump\t// out\n        /* \"#utility.yul\":6999:7365   */\n    tag_118:\n        /* \"#utility.yul\":7141:7144   */\n      0x00\n        /* \"#utility.yul\":7162:7229   */\n      tag_189\n        /* \"#utility.yul\":7226:7228   */\n      0x21\n        /* \"#utility.yul\":7221:7224   */\n      dup4\n        /* \"#utility.yul\":7162:7229   */\n      tag_108\n      jump\t// in\n    tag_189:\n        /* \"#utility.yul\":7155:7229   */\n      swap2\n      pop\n        /* \"#utility.yul\":7238:7331   */\n      tag_190\n        /* \"#utility.yul\":7327:7330   */\n      dup3\n        /* \"#utility.yul\":7238:7331   */\n      tag_117\n      jump\t// in\n    tag_190:\n        /* \"#utility.yul\":7356:7358   */\n      0x40\n        /* \"#utility.yul\":7351:7354   */\n      dup3\n        /* \"#utility.yul\":7347:7359   */\n      add\n        /* \"#utility.yul\":7340:7359   */\n      swap1\n      pop\n        /* \"#utility.yul\":6999:7365   */\n      swap2\n      swap1\n      pop\n      jump\t// out\n        /* \"#utility.yul\":7371:7790   */\n    tag_70:\n        /* \"#utility.yul\":7537:7541   */\n      0x00\n        /* \"#utility.yul\":7575:7577   */\n      0x20\n        /* \"#utility.yul\":7564:7573   */\n      dup3\n        /* \"#utility.yul\":7560:7578   */\n      add\n        /* \"#utility.yul\":7552:7578   */\n      swap1\n      pop\n        /* \"#utility.yul\":7624:7633   */\n      dup2\n        /* \"#utility.yul\":7618:7622   */\n      dup2\n        /* \"#utility.yul\":7614:7634   */\n      sub\n        /* \"#utility.yul\":7610:7611   */\n      0x00\n        /* \"#utility.yul\":7599:7608   */\n      dup4\n        /* \"#utility.yul\":7595:7612   */\n      add\n        /* \"#utility.yul\":7588:7635   */\n      mstore\n        /* \"#utility.yul\":7652:7783   */\n      tag_192\n        /* \"#utility.yul\":7778:7782   */\n      dup2\n        /* \"#utility.yul\":7652:7783   */\n      tag_118\n      jump\t// in\n    tag_192:\n        /* \"#utility.yul\":7644:7783   */\n      swap1\n      pop\n        /* \"#utility.yul\":7371:7790   */\n      swap2\n      swap1\n      pop\n      jump\t// out\n        /* \"#utility.yul\":7796:7967   */\n    tag_119:\n        /* \"#utility.yul\":7936:7959   */\n      0x4e6f20746f6b656e7320746f2077697468647261770000000000000000000000\n        /* \"#utility.yul\":7932:7933   */\n      0x00\n        /* \"#utility.yul\":7924:7930   */\n      dup3\n        /* \"#utility.yul\":7920:7934   */\n      add\n        /* \"#utility.yul\":7913:7960   */\n      mstore\n        /* \"#utility.yul\":7796:7967   */\n      pop\n      jump\t// out\n        /* \"#utility.yul\":7973:8339   */\n    tag_120:\n        /* \"#utility.yul\":8115:8118   */\n      0x00\n        /* \"#utility.yul\":8136:8203   */\n      tag_195\n        /* \"#utility.yul\":8200:8202   */\n      0x15\n        /* \"#utility.yul\":8195:8198   */\n      dup4\n        /* \"#utility.yul\":8136:8203   */\n      tag_108\n      jump\t// in\n    tag_195:\n        /* \"#utility.yul\":8129:8203   */\n      swap2\n      pop\n        /* \"#utility.yul\":8212:8305   */\n      tag_196\n        /* \"#utility.yul\":8301:8304   */\n      dup3\n        /* \"#utility.yul\":8212:8305   */\n      tag_119\n      jump\t// in\n    tag_196:\n        /* \"#utility.yul\":8330:8332   */\n      0x20\n        /* \"#utility.yul\":8325:8328   */\n      dup3\n        /* \"#utility.yul\":8321:8333   */\n      add\n        /* \"#utility.yul\":8314:8333   */\n      swap1\n      pop\n        /* \"#utility.yul\":7973:8339   */\n      swap2\n      swap1\n      pop\n      jump\t// out\n        /* \"#utility.yul\":8345:8764   */\n    tag_78:\n        /* \"#utility.yul\":8511:8515   */\n      0x00\n        /* \"#utility.yul\":8549:8551   */\n      0x20\n        /* \"#utility.yul\":8538:8547   */\n      dup3\n        /* \"#utility.yul\":8534:8552   */\n      add\n        /* \"#utility.yul\":8526:8552   */\n      swap1\n      pop\n        /* \"#utility.yul\":8598:8607   */\n      dup2\n        /* \"#utility.yul\":8592:8596   */\n      dup2\n        /* \"#utility.yul\":8588:8608   */\n      sub\n        /* \"#utility.yul\":8584:8585   */\n      0x00\n        /* \"#utility.yul\":8573:8582   */\n      dup4\n        /* \"#utility.yul\":8569:8586   */\n      add\n        /* \"#utility.yul\":8562:8609   */\n      mstore\n        /* \"#utility.yul\":8626:8757   */\n      tag_198\n        /* \"#utility.yul\":8752:8756   */\n      dup2\n        /* \"#utility.yul\":8626:8757   */\n      tag_120\n      jump\t// in\n    tag_198:\n        /* \"#utility.yul\":8618:8757   */\n      swap1\n      pop\n        /* \"#utility.yul\":8345:8764   */\n      swap2\n      swap1\n      pop\n      jump\t// out\n        /* \"#utility.yul\":8770:9102   */\n    tag_85:\n        /* \"#utility.yul\":8891:8895   */\n      0x00\n        /* \"#utility.yul\":8929:8931   */\n      0x40\n        /* \"#utility.yul\":8918:8927   */\n      dup3\n        /* \"#utility.yul\":8914:8932   */\n      add\n        /* \"#utility.yul\":8906:8932   */\n      swap1\n      pop\n        /* \"#utility.yul\":8942:9013   */\n      tag_200\n        /* \"#utility.yul\":9010:9011   */\n      0x00\n        /* \"#utility.yul\":8999:9008   */\n      dup4\n        /* \"#utility.yul\":8995:9012   */\n      add\n        /* \"#utility.yul\":8986:8992   */\n      dup6\n        /* \"#utility.yul\":8942:9013   */\n      tag_105\n      jump\t// in\n    tag_200:\n        /* \"#utility.yul\":9023:9095   */\n      tag_201\n        /* \"#utility.yul\":9091:9093   */\n      0x20\n        /* \"#utility.yul\":9080:9089   */\n      dup4\n        /* \"#utility.yul\":9076:9094   */\n      add\n        /* \"#utility.yul\":9067:9073   */\n      dup5\n        /* \"#utility.yul\":9023:9095   */\n      tag_107\n      jump\t// in\n    tag_201:\n        /* \"#utility.yul\":8770:9102   */\n      swap4\n      swap3\n      pop\n      pop\n      pop\n      jump\t// out\n\n    auxdata: 0xa2646970667358221220c02d03b12c5f3beb48621faac0b8472b5996bf528cd5abf1212ab6fce51371a264736f6c634300081a0033\n}\n",
				"bytecode": {
					"linkReferences": {},
					"object": "608060405234801561000f575f80fd5b5060405161113538038061113583398181016040528101906100319190610231565b5f73ffffffffffffffffffffffffffffffffffffffff168273ffffffffffffffffffffffffffffffffffffffff160361009f576040517f08c379a0000000000000000000000000000000000000000000000000000000008152600401610096906102c9565b60405180910390fd5b5f73ffffffffffffffffffffffffffffffffffffffff168173ffffffffffffffffffffffffffffffffffffffff160361010d576040517f08c379a000000000000000000000000000000000000000000000000000000000815260040161010490610357565b60405180910390fd5b815f806101000a81548173ffffffffffffffffffffffffffffffffffffffff021916908373ffffffffffffffffffffffffffffffffffffffff1602179055503360015f6101000a81548173ffffffffffffffffffffffffffffffffffffffff021916908373ffffffffffffffffffffffffffffffffffffffff1602179055508060025f6101000a81548173ffffffffffffffffffffffffffffffffffffffff021916908373ffffffffffffffffffffffffffffffffffffffff1602179055505050610375565b5f80fd5b5f73ffffffffffffffffffffffffffffffffffffffff82169050919050565b5f610200826101d7565b9050919050565b610210816101f6565b811461021a575f80fd5b50565b5f8151905061022b81610207565b92915050565b5f8060408385031215610247576102466101d3565b5b5f6102548582860161021d565b92505060206102658582860161021d565b9150509250929050565b5f82825260208201905092915050565b7f4f776e65722063616e6e6f7420626520746865207a65726f20616464726573735f82015250565b5f6102b360208361026f565b91506102be8261027f565b602082019050919050565b5f6020820190508181035f8301526102e0816102a7565b9050919050565b7f477265656e20546f6b656e20616464726573732063616e6e6f742062652074685f8201527f65207a65726f2061646472657373000000000000000000000000000000000000602082015250565b5f610341602e8361026f565b915061034c826102e7565b604082019050919050565b5f6020820190508181035f83015261036e81610335565b9050919050565b610db3806103825f395ff3fe608060405260043610610073575f3560e01c80638da5cb5b1161004d5780638da5cb5b146100f657806399e9c1dd14610120578063d5f394881461014a578063ea017105146101745761007a565b806302b32af51461007c5780631f31dc01146100a6578063880cdc31146100ce5761007a565b3661007a57005b005b348015610087575f80fd5b5061009061018a565b60405161009d9190610975565b60405180910390f35b3480156100b1575f80fd5b506100cc60048036038101906100c791906109cd565b6101af565b005b3480156100d9575f80fd5b506100f460048036038101906100ef91906109cd565b610332565b005b348015610101575f80fd5b5061010a6104b4565b6040516101179190610a07565b60405180910390f35b34801561012b575f80fd5b506101346104d7565b6040516101419190610a38565b60405180910390f35b348015610155575f80fd5b5061015e610576565b60405161016b9190610a07565b60405180910390f35b34801561017f575f80fd5b5061018861059b565b005b60025f9054906101000a900473ffffffffffffffffffffffffffffffffffffffff1681565b60015f9054906101000a900473ffffffffffffffffffffffffffffffffffffffff1673ffffffffffffffffffffffffffffffffffffffff163373ffffffffffffffffffffffffffffffffffffffff161461023e576040517f08c379a000000000000000000000000000000000000000000000000000000000815260040161023590610ad1565b60405180910390fd5b5f73ffffffffffffffffffffffffffffffffffffffff168173ffffffffffffffffffffffffffffffffffffffff16036102ac576040517f08c379a00000000000000000000000000000000000000000000000000000000081526004016102a390610b5f565b60405180910390fd5b8060025f6101000a81548173ffffffffffffffffffffffffffffffffffffffff021916908373ffffffffffffffffffffffffffffffffffffffff1602179055508073ffffffffffffffffffffffffffffffffffffffff167f55b6b6fe98d11600785423c3f7630dee64b0f6fa54e8a25362aa522d83dfd24360405160405180910390a250565b60015f9054906101000a900473ffffffffffffffffffffffffffffffffffffffff1673ffffffffffffffffffffffffffffffffffffffff163373ffffffffffffffffffffffffffffffffffffffff16146103c1576040517f08c379a00000000000000000000000000000000000000000000000000000000081526004016103b890610ad1565b60405180910390fd5b5f73ffffffffffffffffffffffffffffffffffffffff168173ffffffffffffffffffffffffffffffffffffffff160361042f576040517f08c379a000000000000000000000000000000000000000000000000000000000815260040161042690610bed565b60405180910390fd5b805f806101000a81548173ffffffffffffffffffffffffffffffffffffffff021916908373ffffffffffffffffffffffffffffffffffffffff1602179055508073ffffffffffffffffffffffffffffffffffffffff167f4ffd725fc4a22075e9ec71c59edf9c38cdeb588a91b24fc5b61388c5be41282b60405160405180910390a250565b5f8054906101000a900473ffffffffffffffffffffffffffffffffffffffff1681565b5f60025f9054906101000a900473ffffffffffffffffffffffffffffffffffffffff1673ffffffffffffffffffffffffffffffffffffffff166370a08231306040518263ffffffff1660e01b81526004016105329190610a07565b602060405180830381865afa15801561054d573d5f803e3d5ffd5b505050506040513d601f19601f820116820180604052508101906105719190610c35565b905090565b60015f9054906101000a900473ffffffffffffffffffffffffffffffffffffffff1681565b5f8054906101000a900473ffffffffffffffffffffffffffffffffffffffff1673ffffffffffffffffffffffffffffffffffffffff163373ffffffffffffffffffffffffffffffffffffffff1614610628576040517f08c379a000000000000000000000000000000000000000000000000000000000815260040161061f90610cd0565b60405180910390fd5b5f60025f9054906101000a900473ffffffffffffffffffffffffffffffffffffffff1673ffffffffffffffffffffffffffffffffffffffff166370a08231306040518263ffffffff1660e01b81526004016106839190610a07565b602060405180830381865afa15801561069e573d5f803e3d5ffd5b505050506040513d601f19601f820116820180604052508101906106c29190610c35565b90505f8111610706576040517f08c379a00000000000000000000000000000000000000000000000000000000081526004016106fd90610d38565b60405180910390fd5b6107715f8054906101000a900473ffffffffffffffffffffffffffffffffffffffff168260025f9054906101000a900473ffffffffffffffffffffffffffffffffffffffff1673ffffffffffffffffffffffffffffffffffffffff166107e19092919063ffffffff16565b5f8054906101000a900473ffffffffffffffffffffffffffffffffffffffff1673ffffffffffffffffffffffffffffffffffffffff167f6352c5382c4a4578e712449ca65e83cdb392d045dfcf1cad9615189db2da244b826040516107d69190610a38565b60405180910390a250565b61085b838473ffffffffffffffffffffffffffffffffffffffff1663a9059cbb8585604051602401610814929190610d56565b604051602081830303815290604052915060e01b6020820180517bffffffffffffffffffffffffffffffffffffffffffffffffffffffff8381831617835250505050610860565b505050565b5f8060205f8451602086015f885af18061087f576040513d5f823e3d81fd5b3d92505f519150505f82146108985760018114156108b3565b5f8473ffffffffffffffffffffffffffffffffffffffff163b145b156108f557836040517f5274afe70000000000000000000000000000000000000000000000000000000081526004016108ec9190610a07565b60405180910390fd5b50505050565b5f73ffffffffffffffffffffffffffffffffffffffff82169050919050565b5f819050919050565b5f61093d610938610933846108fb565b61091a565b6108fb565b9050919050565b5f61094e82610923565b9050919050565b5f61095f82610944565b9050919050565b61096f81610955565b82525050565b5f6020820190506109885f830184610966565b92915050565b5f80fd5b5f61099c826108fb565b9050919050565b6109ac81610992565b81146109b6575f80fd5b50565b5f813590506109c7816109a3565b92915050565b5f602082840312156109e2576109e161098e565b5b5f6109ef848285016109b9565b91505092915050565b610a0181610992565b82525050565b5f602082019050610a1a5f8301846109f8565b92915050565b5f819050919050565b610a3281610a20565b82525050565b5f602082019050610a4b5f830184610a29565b92915050565b5f82825260208201905092915050565b7f4f6e6c79206465706c6f7965722063616e2063616c6c20746869732066756e635f8201527f74696f6e00000000000000000000000000000000000000000000000000000000602082015250565b5f610abb602483610a51565b9150610ac682610a61565b604082019050919050565b5f6020820190508181035f830152610ae881610aaf565b9050919050565b7f477265656e20546f6b656e20616464726573732063616e6e6f742062652074685f8201527f65207a65726f2061646472657373000000000000000000000000000000000000602082015250565b5f610b49602e83610a51565b9150610b5482610aef565b604082019050919050565b5f6020820190508181035f830152610b7681610b3d565b9050919050565b7f4e6577206f776e65722063616e6e6f7420626520746865207a65726f206164645f8201527f7265737300000000000000000000000000000000000000000000000000000000602082015250565b5f610bd7602483610a51565b9150610be282610b7d565b604082019050919050565b5f6020820190508181035f830152610c0481610bcb565b9050919050565b610c1481610a20565b8114610c1e575f80fd5b50565b5f81519050610c2f81610c0b565b92915050565b5f60208284031215610c4a57610c4961098e565b5b5f610c5784828501610c21565b91505092915050565b7f4f6e6c79206f776e65722063616e2063616c6c20746869732066756e6374696f5f8201527f6e00000000000000000000000000000000000000000000000000000000000000602082015250565b5f610cba602183610a51565b9150610cc582610c60565b604082019050919050565b5f6020820190508181035f830152610ce781610cae565b9050919050565b7f4e6f20746f6b656e7320746f20776974686472617700000000000000000000005f82015250565b5f610d22601583610a51565b9150610d2d82610cee565b602082019050919050565b5f6020820190508181035f830152610d4f81610d16565b9050919050565b5f604082019050610d695f8301856109f8565b610d766020830184610a29565b939250505056fea2646970667358221220c02d03b12c5f3beb48621faac0b8472b5996bf528cd5abf1212ab6fce51371a264736f6c634300081a0033",
					"opcodes": "PUSH1 0x80 PUSH1 0x40 MSTORE CALLVALUE DUP1 ISZERO PUSH2 0xF JUMPI PUSH0 DUP1 REVERT JUMPDEST POP PUSH1 0x40 MLOAD PUSH2 0x1135 CODESIZE SUB DUP1 PUSH2 0x1135 DUP4 CODECOPY DUP2 DUP2 ADD PUSH1 0x40 MSTORE DUP2 ADD SWAP1 PUSH2 0x31 SWAP2 SWAP1 PUSH2 0x231 JUMP JUMPDEST PUSH0 PUSH20 0xFFFFFFFFFFFFFFFFFFFFFFFFFFFFFFFFFFFFFFFF AND DUP3 PUSH20 0xFFFFFFFFFFFFFFFFFFFFFFFFFFFFFFFFFFFFFFFF AND SUB PUSH2 0x9F JUMPI PUSH1 0x40 MLOAD PUSH32 0x8C379A000000000000000000000000000000000000000000000000000000000 DUP2 MSTORE PUSH1 0x4 ADD PUSH2 0x96 SWAP1 PUSH2 0x2C9 JUMP JUMPDEST PUSH1 0x40 MLOAD DUP1 SWAP2 SUB SWAP1 REVERT JUMPDEST PUSH0 PUSH20 0xFFFFFFFFFFFFFFFFFFFFFFFFFFFFFFFFFFFFFFFF AND DUP2 PUSH20 0xFFFFFFFFFFFFFFFFFFFFFFFFFFFFFFFFFFFFFFFF AND SUB PUSH2 0x10D JUMPI PUSH1 0x40 MLOAD PUSH32 0x8C379A000000000000000000000000000000000000000000000000000000000 DUP2 MSTORE PUSH1 0x4 ADD PUSH2 0x104 SWAP1 PUSH2 0x357 JUMP JUMPDEST PUSH1 0x40 MLOAD DUP1 SWAP2 SUB SWAP1 REVERT JUMPDEST DUP2 PUSH0 DUP1 PUSH2 0x100 EXP DUP2 SLOAD DUP2 PUSH20 0xFFFFFFFFFFFFFFFFFFFFFFFFFFFFFFFFFFFFFFFF MUL NOT AND SWAP1 DUP4 PUSH20 0xFFFFFFFFFFFFFFFFFFFFFFFFFFFFFFFFFFFFFFFF AND MUL OR SWAP1 SSTORE POP CALLER PUSH1 0x1 PUSH0 PUSH2 0x100 EXP DUP2 SLOAD DUP2 PUSH20 0xFFFFFFFFFFFFFFFFFFFFFFFFFFFFFFFFFFFFFFFF MUL NOT AND SWAP1 DUP4 PUSH20 0xFFFFFFFFFFFFFFFFFFFFFFFFFFFFFFFFFFFFFFFF AND MUL OR SWAP1 SSTORE POP DUP1 PUSH1 0x2 PUSH0 PUSH2 0x100 EXP DUP2 SLOAD DUP2 PUSH20 0xFFFFFFFFFFFFFFFFFFFFFFFFFFFFFFFFFFFFFFFF MUL NOT AND SWAP1 DUP4 PUSH20 0xFFFFFFFFFFFFFFFFFFFFFFFFFFFFFFFFFFFFFFFF AND MUL OR SWAP1 SSTORE POP POP POP PUSH2 0x375 JUMP JUMPDEST PUSH0 DUP1 REVERT JUMPDEST PUSH0 PUSH20 0xFFFFFFFFFFFFFFFFFFFFFFFFFFFFFFFFFFFFFFFF DUP3 AND SWAP1 POP SWAP2 SWAP1 POP JUMP JUMPDEST PUSH0 PUSH2 0x200 DUP3 PUSH2 0x1D7 JUMP JUMPDEST SWAP1 POP SWAP2 SWAP1 POP JUMP JUMPDEST PUSH2 0x210 DUP2 PUSH2 0x1F6 JUMP JUMPDEST DUP2 EQ PUSH2 0x21A JUMPI PUSH0 DUP1 REVERT JUMPDEST POP JUMP JUMPDEST PUSH0 DUP2 MLOAD SWAP1 POP PUSH2 0x22B DUP2 PUSH2 0x207 JUMP JUMPDEST SWAP3 SWAP2 POP POP JUMP JUMPDEST PUSH0 DUP1 PUSH1 0x40 DUP4 DUP6 SUB SLT ISZERO PUSH2 0x247 JUMPI PUSH2 0x246 PUSH2 0x1D3 JUMP JUMPDEST JUMPDEST PUSH0 PUSH2 0x254 DUP6 DUP3 DUP7 ADD PUSH2 0x21D JUMP JUMPDEST SWAP3 POP POP PUSH1 0x20 PUSH2 0x265 DUP6 DUP3 DUP7 ADD PUSH2 0x21D JUMP JUMPDEST SWAP2 POP POP SWAP3 POP SWAP3 SWAP1 POP JUMP JUMPDEST PUSH0 DUP3 DUP3 MSTORE PUSH1 0x20 DUP3 ADD SWAP1 POP SWAP3 SWAP2 POP POP JUMP JUMPDEST PUSH32 0x4F776E65722063616E6E6F7420626520746865207A65726F2061646472657373 PUSH0 DUP3 ADD MSTORE POP JUMP JUMPDEST PUSH0 PUSH2 0x2B3 PUSH1 0x20 DUP4 PUSH2 0x26F JUMP JUMPDEST SWAP2 POP PUSH2 0x2BE DUP3 PUSH2 0x27F JUMP JUMPDEST PUSH1 0x20 DUP3 ADD SWAP1 POP SWAP2 SWAP1 POP JUMP JUMPDEST PUSH0 PUSH1 0x20 DUP3 ADD SWAP1 POP DUP2 DUP2 SUB PUSH0 DUP4 ADD MSTORE PUSH2 0x2E0 DUP2 PUSH2 0x2A7 JUMP JUMPDEST SWAP1 POP SWAP2 SWAP1 POP JUMP JUMPDEST PUSH32 0x477265656E20546F6B656E20616464726573732063616E6E6F74206265207468 PUSH0 DUP3 ADD MSTORE PUSH32 0x65207A65726F2061646472657373000000000000000000000000000000000000 PUSH1 0x20 DUP3 ADD MSTORE POP JUMP JUMPDEST PUSH0 PUSH2 0x341 PUSH1 0x2E DUP4 PUSH2 0x26F JUMP JUMPDEST SWAP2 POP PUSH2 0x34C DUP3 PUSH2 0x2E7 JUMP JUMPDEST PUSH1 0x40 DUP3 ADD SWAP1 POP SWAP2 SWAP1 POP JUMP JUMPDEST PUSH0 PUSH1 0x20 DUP3 ADD SWAP1 POP DUP2 DUP2 SUB PUSH0 DUP4 ADD MSTORE PUSH2 0x36E DUP2 PUSH2 0x335 JUMP JUMPDEST SWAP1 POP SWAP2 SWAP1 POP JUMP JUMPDEST PUSH2 0xDB3 DUP1 PUSH2 0x382 PUSH0 CODECOPY PUSH0 RETURN INVALID PUSH1 0x80 PUSH1 0x40 MSTORE PUSH1 0x4 CALLDATASIZE LT PUSH2 0x73 JUMPI PUSH0 CALLDATALOAD PUSH1 0xE0 SHR DUP1 PUSH4 0x8DA5CB5B GT PUSH2 0x4D JUMPI DUP1 PUSH4 0x8DA5CB5B EQ PUSH2 0xF6 JUMPI DUP1 PUSH4 0x99E9C1DD EQ PUSH2 0x120 JUMPI DUP1 PUSH4 0xD5F39488 EQ PUSH2 0x14A JUMPI DUP1 PUSH4 0xEA017105 EQ PUSH2 0x174 JUMPI PUSH2 0x7A JUMP JUMPDEST DUP1 PUSH4 0x2B32AF5 EQ PUSH2 0x7C JUMPI DUP1 PUSH4 0x1F31DC01 EQ PUSH2 0xA6 JUMPI DUP1 PUSH4 0x880CDC31 EQ PUSH2 0xCE JUMPI PUSH2 0x7A JUMP JUMPDEST CALLDATASIZE PUSH2 0x7A JUMPI STOP JUMPDEST STOP JUMPDEST CALLVALUE DUP1 ISZERO PUSH2 0x87 JUMPI PUSH0 DUP1 REVERT JUMPDEST POP PUSH2 0x90 PUSH2 0x18A JUMP JUMPDEST PUSH1 0x40 MLOAD PUSH2 0x9D SWAP2 SWAP1 PUSH2 0x975 JUMP JUMPDEST PUSH1 0x40 MLOAD DUP1 SWAP2 SUB SWAP1 RETURN JUMPDEST CALLVALUE DUP1 ISZERO PUSH2 0xB1 JUMPI PUSH0 DUP1 REVERT JUMPDEST POP PUSH2 0xCC PUSH1 0x4 DUP1 CALLDATASIZE SUB DUP2 ADD SWAP1 PUSH2 0xC7 SWAP2 SWAP1 PUSH2 0x9CD JUMP JUMPDEST PUSH2 0x1AF JUMP JUMPDEST STOP JUMPDEST CALLVALUE DUP1 ISZERO PUSH2 0xD9 JUMPI PUSH0 DUP1 REVERT JUMPDEST POP PUSH2 0xF4 PUSH1 0x4 DUP1 CALLDATASIZE SUB DUP2 ADD SWAP1 PUSH2 0xEF SWAP2 SWAP1 PUSH2 0x9CD JUMP JUMPDEST PUSH2 0x332 JUMP JUMPDEST STOP JUMPDEST CALLVALUE DUP1 ISZERO PUSH2 0x101 JUMPI PUSH0 DUP1 REVERT JUMPDEST POP PUSH2 0x10A PUSH2 0x4B4 JUMP JUMPDEST PUSH1 0x40 MLOAD PUSH2 0x117 SWAP2 SWAP1 PUSH2 0xA07 JUMP JUMPDEST PUSH1 0x40 MLOAD DUP1 SWAP2 SUB SWAP1 RETURN JUMPDEST CALLVALUE DUP1 ISZERO PUSH2 0x12B JUMPI PUSH0 DUP1 REVERT JUMPDEST POP PUSH2 0x134 PUSH2 0x4D7 JUMP JUMPDEST PUSH1 0x40 MLOAD PUSH2 0x141 SWAP2 SWAP1 PUSH2 0xA38 JUMP JUMPDEST PUSH1 0x40 MLOAD DUP1 SWAP2 SUB SWAP1 RETURN JUMPDEST CALLVALUE DUP1 ISZERO PUSH2 0x155 JUMPI PUSH0 DUP1 REVERT JUMPDEST POP PUSH2 0x15E PUSH2 0x576 JUMP JUMPDEST PUSH1 0x40 MLOAD PUSH2 0x16B SWAP2 SWAP1 PUSH2 0xA07 JUMP JUMPDEST PUSH1 0x40 MLOAD DUP1 SWAP2 SUB SWAP1 RETURN JUMPDEST CALLVALUE DUP1 ISZERO PUSH2 0x17F JUMPI PUSH0 DUP1 REVERT JUMPDEST POP PUSH2 0x188 PUSH2 0x59B JUMP JUMPDEST STOP JUMPDEST PUSH1 0x2 PUSH0 SWAP1 SLOAD SWAP1 PUSH2 0x100 EXP SWAP1 DIV PUSH20 0xFFFFFFFFFFFFFFFFFFFFFFFFFFFFFFFFFFFFFFFF AND DUP2 JUMP JUMPDEST PUSH1 0x1 PUSH0 SWAP1 SLOAD SWAP1 PUSH2 0x100 EXP SWAP1 DIV PUSH20 0xFFFFFFFFFFFFFFFFFFFFFFFFFFFFFFFFFFFFFFFF AND PUSH20 0xFFFFFFFFFFFFFFFFFFFFFFFFFFFFFFFFFFFFFFFF AND CALLER PUSH20 0xFFFFFFFFFFFFFFFFFFFFFFFFFFFFFFFFFFFFFFFF AND EQ PUSH2 0x23E JUMPI PUSH1 0x40 MLOAD PUSH32 0x8C379A000000000000000000000000000000000000000000000000000000000 DUP2 MSTORE PUSH1 0x4 ADD PUSH2 0x235 SWAP1 PUSH2 0xAD1 JUMP JUMPDEST PUSH1 0x40 MLOAD DUP1 SWAP2 SUB SWAP1 REVERT JUMPDEST PUSH0 PUSH20 0xFFFFFFFFFFFFFFFFFFFFFFFFFFFFFFFFFFFFFFFF AND DUP2 PUSH20 0xFFFFFFFFFFFFFFFFFFFFFFFFFFFFFFFFFFFFFFFF AND SUB PUSH2 0x2AC JUMPI PUSH1 0x40 MLOAD PUSH32 0x8C379A000000000000000000000000000000000000000000000000000000000 DUP2 MSTORE PUSH1 0x4 ADD PUSH2 0x2A3 SWAP1 PUSH2 0xB5F JUMP JUMPDEST PUSH1 0x40 MLOAD DUP1 SWAP2 SUB SWAP1 REVERT JUMPDEST DUP1 PUSH1 0x2 PUSH0 PUSH2 0x100 EXP DUP2 SLOAD DUP2 PUSH20 0xFFFFFFFFFFFFFFFFFFFFFFFFFFFFFFFFFFFFFFFF MUL NOT AND SWAP1 DUP4 PUSH20 0xFFFFFFFFFFFFFFFFFFFFFFFFFFFFFFFFFFFFFFFF AND MUL OR SWAP1 SSTORE POP DUP1 PUSH20 0xFFFFFFFFFFFFFFFFFFFFFFFFFFFFFFFFFFFFFFFF AND PUSH32 0x55B6B6FE98D11600785423C3F7630DEE64B0F6FA54E8A25362AA522D83DFD243 PUSH1 0x40 MLOAD PUSH1 0x40 MLOAD DUP1 SWAP2 SUB SWAP1 LOG2 POP JUMP JUMPDEST PUSH1 0x1 PUSH0 SWAP1 SLOAD SWAP1 PUSH2 0x100 EXP SWAP1 DIV PUSH20 0xFFFFFFFFFFFFFFFFFFFFFFFFFFFFFFFFFFFFFFFF AND PUSH20 0xFFFFFFFFFFFFFFFFFFFFFFFFFFFFFFFFFFFFFFFF AND CALLER PUSH20 0xFFFFFFFFFFFFFFFFFFFFFFFFFFFFFFFFFFFFFFFF AND EQ PUSH2 0x3C1 JUMPI PUSH1 0x40 MLOAD PUSH32 0x8C379A000000000000000000000000000000000000000000000000000000000 DUP2 MSTORE PUSH1 0x4 ADD PUSH2 0x3B8 SWAP1 PUSH2 0xAD1 JUMP JUMPDEST PUSH1 0x40 MLOAD DUP1 SWAP2 SUB SWAP1 REVERT JUMPDEST PUSH0 PUSH20 0xFFFFFFFFFFFFFFFFFFFFFFFFFFFFFFFFFFFFFFFF AND DUP2 PUSH20 0xFFFFFFFFFFFFFFFFFFFFFFFFFFFFFFFFFFFFFFFF AND SUB PUSH2 0x42F JUMPI PUSH1 0x40 MLOAD PUSH32 0x8C379A000000000000000000000000000000000000000000000000000000000 DUP2 MSTORE PUSH1 0x4 ADD PUSH2 0x426 SWAP1 PUSH2 0xBED JUMP JUMPDEST PUSH1 0x40 MLOAD DUP1 SWAP2 SUB SWAP1 REVERT JUMPDEST DUP1 PUSH0 DUP1 PUSH2 0x100 EXP DUP2 SLOAD DUP2 PUSH20 0xFFFFFFFFFFFFFFFFFFFFFFFFFFFFFFFFFFFFFFFF MUL NOT AND SWAP1 DUP4 PUSH20 0xFFFFFFFFFFFFFFFFFFFFFFFFFFFFFFFFFFFFFFFF AND MUL OR SWAP1 SSTORE POP DUP1 PUSH20 0xFFFFFFFFFFFFFFFFFFFFFFFFFFFFFFFFFFFFFFFF AND PUSH32 0x4FFD725FC4A22075E9EC71C59EDF9C38CDEB588A91B24FC5B61388C5BE41282B PUSH1 0x40 MLOAD PUSH1 0x40 MLOAD DUP1 SWAP2 SUB SWAP1 LOG2 POP JUMP JUMPDEST PUSH0 DUP1 SLOAD SWAP1 PUSH2 0x100 EXP SWAP1 DIV PUSH20 0xFFFFFFFFFFFFFFFFFFFFFFFFFFFFFFFFFFFFFFFF AND DUP2 JUMP JUMPDEST PUSH0 PUSH1 0x2 PUSH0 SWAP1 SLOAD SWAP1 PUSH2 0x100 EXP SWAP1 DIV PUSH20 0xFFFFFFFFFFFFFFFFFFFFFFFFFFFFFFFFFFFFFFFF AND PUSH20 0xFFFFFFFFFFFFFFFFFFFFFFFFFFFFFFFFFFFFFFFF AND PUSH4 0x70A08231 ADDRESS PUSH1 0x40 MLOAD DUP3 PUSH4 0xFFFFFFFF AND PUSH1 0xE0 SHL DUP2 MSTORE PUSH1 0x4 ADD PUSH2 0x532 SWAP2 SWAP1 PUSH2 0xA07 JUMP JUMPDEST PUSH1 0x20 PUSH1 0x40 MLOAD DUP1 DUP4 SUB DUP2 DUP7 GAS STATICCALL ISZERO DUP1 ISZERO PUSH2 0x54D JUMPI RETURNDATASIZE PUSH0 DUP1 RETURNDATACOPY RETURNDATASIZE PUSH0 REVERT JUMPDEST POP POP POP POP PUSH1 0x40 MLOAD RETURNDATASIZE PUSH1 0x1F NOT PUSH1 0x1F DUP3 ADD AND DUP3 ADD DUP1 PUSH1 0x40 MSTORE POP DUP2 ADD SWAP1 PUSH2 0x571 SWAP2 SWAP1 PUSH2 0xC35 JUMP JUMPDEST SWAP1 POP SWAP1 JUMP JUMPDEST PUSH1 0x1 PUSH0 SWAP1 SLOAD SWAP1 PUSH2 0x100 EXP SWAP1 DIV PUSH20 0xFFFFFFFFFFFFFFFFFFFFFFFFFFFFFFFFFFFFFFFF AND DUP2 JUMP JUMPDEST PUSH0 DUP1 SLOAD SWAP1 PUSH2 0x100 EXP SWAP1 DIV PUSH20 0xFFFFFFFFFFFFFFFFFFFFFFFFFFFFFFFFFFFFFFFF AND PUSH20 0xFFFFFFFFFFFFFFFFFFFFFFFFFFFFFFFFFFFFFFFF AND CALLER PUSH20 0xFFFFFFFFFFFFFFFFFFFFFFFFFFFFFFFFFFFFFFFF AND EQ PUSH2 0x628 JUMPI PUSH1 0x40 MLOAD PUSH32 0x8C379A000000000000000000000000000000000000000000000000000000000 DUP2 MSTORE PUSH1 0x4 ADD PUSH2 0x61F SWAP1 PUSH2 0xCD0 JUMP JUMPDEST PUSH1 0x40 MLOAD DUP1 SWAP2 SUB SWAP1 REVERT JUMPDEST PUSH0 PUSH1 0x2 PUSH0 SWAP1 SLOAD SWAP1 PUSH2 0x100 EXP SWAP1 DIV PUSH20 0xFFFFFFFFFFFFFFFFFFFFFFFFFFFFFFFFFFFFFFFF AND PUSH20 0xFFFFFFFFFFFFFFFFFFFFFFFFFFFFFFFFFFFFFFFF AND PUSH4 0x70A08231 ADDRESS PUSH1 0x40 MLOAD DUP3 PUSH4 0xFFFFFFFF AND PUSH1 0xE0 SHL DUP2 MSTORE PUSH1 0x4 ADD PUSH2 0x683 SWAP2 SWAP1 PUSH2 0xA07 JUMP JUMPDEST PUSH1 0x20 PUSH1 0x40 MLOAD DUP1 DUP4 SUB DUP2 DUP7 GAS STATICCALL ISZERO DUP1 ISZERO PUSH2 0x69E JUMPI RETURNDATASIZE PUSH0 DUP1 RETURNDATACOPY RETURNDATASIZE PUSH0 REVERT JUMPDEST POP POP POP POP PUSH1 0x40 MLOAD RETURNDATASIZE PUSH1 0x1F NOT PUSH1 0x1F DUP3 ADD AND DUP3 ADD DUP1 PUSH1 0x40 MSTORE POP DUP2 ADD SWAP1 PUSH2 0x6C2 SWAP2 SWAP1 PUSH2 0xC35 JUMP JUMPDEST SWAP1 POP PUSH0 DUP2 GT PUSH2 0x706 JUMPI PUSH1 0x40 MLOAD PUSH32 0x8C379A000000000000000000000000000000000000000000000000000000000 DUP2 MSTORE PUSH1 0x4 ADD PUSH2 0x6FD SWAP1 PUSH2 0xD38 JUMP JUMPDEST PUSH1 0x40 MLOAD DUP1 SWAP2 SUB SWAP1 REVERT JUMPDEST PUSH2 0x771 PUSH0 DUP1 SLOAD SWAP1 PUSH2 0x100 EXP SWAP1 DIV PUSH20 0xFFFFFFFFFFFFFFFFFFFFFFFFFFFFFFFFFFFFFFFF AND DUP3 PUSH1 0x2 PUSH0 SWAP1 SLOAD SWAP1 PUSH2 0x100 EXP SWAP1 DIV PUSH20 0xFFFFFFFFFFFFFFFFFFFFFFFFFFFFFFFFFFFFFFFF AND PUSH20 0xFFFFFFFFFFFFFFFFFFFFFFFFFFFFFFFFFFFFFFFF AND PUSH2 0x7E1 SWAP1 SWAP3 SWAP2 SWAP1 PUSH4 0xFFFFFFFF AND JUMP JUMPDEST PUSH0 DUP1 SLOAD SWAP1 PUSH2 0x100 EXP SWAP1 DIV PUSH20 0xFFFFFFFFFFFFFFFFFFFFFFFFFFFFFFFFFFFFFFFF AND PUSH20 0xFFFFFFFFFFFFFFFFFFFFFFFFFFFFFFFFFFFFFFFF AND PUSH32 0x6352C5382C4A4578E712449CA65E83CDB392D045DFCF1CAD9615189DB2DA244B DUP3 PUSH1 0x40 MLOAD PUSH2 0x7D6 SWAP2 SWAP1 PUSH2 0xA38 JUMP JUMPDEST PUSH1 0x40 MLOAD DUP1 SWAP2 SUB SWAP1 LOG2 POP JUMP JUMPDEST PUSH2 0x85B DUP4 DUP5 PUSH20 0xFFFFFFFFFFFFFFFFFFFFFFFFFFFFFFFFFFFFFFFF AND PUSH4 0xA9059CBB DUP6 DUP6 PUSH1 0x40 MLOAD PUSH1 0x24 ADD PUSH2 0x814 SWAP3 SWAP2 SWAP1 PUSH2 0xD56 JUMP JUMPDEST PUSH1 0x40 MLOAD PUSH1 0x20 DUP2 DUP4 SUB SUB DUP2 MSTORE SWAP1 PUSH1 0x40 MSTORE SWAP2 POP PUSH1 0xE0 SHL PUSH1 0x20 DUP3 ADD DUP1 MLOAD PUSH28 0xFFFFFFFFFFFFFFFFFFFFFFFFFFFFFFFFFFFFFFFFFFFFFFFFFFFFFFFF DUP4 DUP2 DUP4 AND OR DUP4 MSTORE POP POP POP POP PUSH2 0x860 JUMP JUMPDEST POP POP POP JUMP JUMPDEST PUSH0 DUP1 PUSH1 0x20 PUSH0 DUP5 MLOAD PUSH1 0x20 DUP7 ADD PUSH0 DUP9 GAS CALL DUP1 PUSH2 0x87F JUMPI PUSH1 0x40 MLOAD RETURNDATASIZE PUSH0 DUP3 RETURNDATACOPY RETURNDATASIZE DUP2 REVERT JUMPDEST RETURNDATASIZE SWAP3 POP PUSH0 MLOAD SWAP2 POP POP PUSH0 DUP3 EQ PUSH2 0x898 JUMPI PUSH1 0x1 DUP2 EQ ISZERO PUSH2 0x8B3 JUMP JUMPDEST PUSH0 DUP5 PUSH20 0xFFFFFFFFFFFFFFFFFFFFFFFFFFFFFFFFFFFFFFFF AND EXTCODESIZE EQ JUMPDEST ISZERO PUSH2 0x8F5 JUMPI DUP4 PUSH1 0x40 MLOAD PUSH32 0x5274AFE700000000000000000000000000000000000000000000000000000000 DUP2 MSTORE PUSH1 0x4 ADD PUSH2 0x8EC SWAP2 SWAP1 PUSH2 0xA07 JUMP JUMPDEST PUSH1 0x40 MLOAD DUP1 SWAP2 SUB SWAP1 REVERT JUMPDEST POP POP POP POP JUMP JUMPDEST PUSH0 PUSH20 0xFFFFFFFFFFFFFFFFFFFFFFFFFFFFFFFFFFFFFFFF DUP3 AND SWAP1 POP SWAP2 SWAP1 POP JUMP JUMPDEST PUSH0 DUP2 SWAP1 POP SWAP2 SWAP1 POP JUMP JUMPDEST PUSH0 PUSH2 0x93D PUSH2 0x938 PUSH2 0x933 DUP5 PUSH2 0x8FB JUMP JUMPDEST PUSH2 0x91A JUMP JUMPDEST PUSH2 0x8FB JUMP JUMPDEST SWAP1 POP SWAP2 SWAP1 POP JUMP JUMPDEST PUSH0 PUSH2 0x94E DUP3 PUSH2 0x923 JUMP JUMPDEST SWAP1 POP SWAP2 SWAP1 POP JUMP JUMPDEST PUSH0 PUSH2 0x95F DUP3 PUSH2 0x944 JUMP JUMPDEST SWAP1 POP SWAP2 SWAP1 POP JUMP JUMPDEST PUSH2 0x96F DUP2 PUSH2 0x955 JUMP JUMPDEST DUP3 MSTORE POP POP JUMP JUMPDEST PUSH0 PUSH1 0x20 DUP3 ADD SWAP1 POP PUSH2 0x988 PUSH0 DUP4 ADD DUP5 PUSH2 0x966 JUMP JUMPDEST SWAP3 SWAP2 POP POP JUMP JUMPDEST PUSH0 DUP1 REVERT JUMPDEST PUSH0 PUSH2 0x99C DUP3 PUSH2 0x8FB JUMP JUMPDEST SWAP1 POP SWAP2 SWAP1 POP JUMP JUMPDEST PUSH2 0x9AC DUP2 PUSH2 0x992 JUMP JUMPDEST DUP2 EQ PUSH2 0x9B6 JUMPI PUSH0 DUP1 REVERT JUMPDEST POP JUMP JUMPDEST PUSH0 DUP2 CALLDATALOAD SWAP1 POP PUSH2 0x9C7 DUP2 PUSH2 0x9A3 JUMP JUMPDEST SWAP3 SWAP2 POP POP JUMP JUMPDEST PUSH0 PUSH1 0x20 DUP3 DUP5 SUB SLT ISZERO PUSH2 0x9E2 JUMPI PUSH2 0x9E1 PUSH2 0x98E JUMP JUMPDEST JUMPDEST PUSH0 PUSH2 0x9EF DUP5 DUP3 DUP6 ADD PUSH2 0x9B9 JUMP JUMPDEST SWAP2 POP POP SWAP3 SWAP2 POP POP JUMP JUMPDEST PUSH2 0xA01 DUP2 PUSH2 0x992 JUMP JUMPDEST DUP3 MSTORE POP POP JUMP JUMPDEST PUSH0 PUSH1 0x20 DUP3 ADD SWAP1 POP PUSH2 0xA1A PUSH0 DUP4 ADD DUP5 PUSH2 0x9F8 JUMP JUMPDEST SWAP3 SWAP2 POP POP JUMP JUMPDEST PUSH0 DUP2 SWAP1 POP SWAP2 SWAP1 POP JUMP JUMPDEST PUSH2 0xA32 DUP2 PUSH2 0xA20 JUMP JUMPDEST DUP3 MSTORE POP POP JUMP JUMPDEST PUSH0 PUSH1 0x20 DUP3 ADD SWAP1 POP PUSH2 0xA4B PUSH0 DUP4 ADD DUP5 PUSH2 0xA29 JUMP JUMPDEST SWAP3 SWAP2 POP POP JUMP JUMPDEST PUSH0 DUP3 DUP3 MSTORE PUSH1 0x20 DUP3 ADD SWAP1 POP SWAP3 SWAP2 POP POP JUMP JUMPDEST PUSH32 0x4F6E6C79206465706C6F7965722063616E2063616C6C20746869732066756E63 PUSH0 DUP3 ADD MSTORE PUSH32 0x74696F6E00000000000000000000000000000000000000000000000000000000 PUSH1 0x20 DUP3 ADD MSTORE POP JUMP JUMPDEST PUSH0 PUSH2 0xABB PUSH1 0x24 DUP4 PUSH2 0xA51 JUMP JUMPDEST SWAP2 POP PUSH2 0xAC6 DUP3 PUSH2 0xA61 JUMP JUMPDEST PUSH1 0x40 DUP3 ADD SWAP1 POP SWAP2 SWAP1 POP JUMP JUMPDEST PUSH0 PUSH1 0x20 DUP3 ADD SWAP1 POP DUP2 DUP2 SUB PUSH0 DUP4 ADD MSTORE PUSH2 0xAE8 DUP2 PUSH2 0xAAF JUMP JUMPDEST SWAP1 POP SWAP2 SWAP1 POP JUMP JUMPDEST PUSH32 0x477265656E20546F6B656E20616464726573732063616E6E6F74206265207468 PUSH0 DUP3 ADD MSTORE PUSH32 0x65207A65726F2061646472657373000000000000000000000000000000000000 PUSH1 0x20 DUP3 ADD MSTORE POP JUMP JUMPDEST PUSH0 PUSH2 0xB49 PUSH1 0x2E DUP4 PUSH2 0xA51 JUMP JUMPDEST SWAP2 POP PUSH2 0xB54 DUP3 PUSH2 0xAEF JUMP JUMPDEST PUSH1 0x40 DUP3 ADD SWAP1 POP SWAP2 SWAP1 POP JUMP JUMPDEST PUSH0 PUSH1 0x20 DUP3 ADD SWAP1 POP DUP2 DUP2 SUB PUSH0 DUP4 ADD MSTORE PUSH2 0xB76 DUP2 PUSH2 0xB3D JUMP JUMPDEST SWAP1 POP SWAP2 SWAP1 POP JUMP JUMPDEST PUSH32 0x4E6577206F776E65722063616E6E6F7420626520746865207A65726F20616464 PUSH0 DUP3 ADD MSTORE PUSH32 0x7265737300000000000000000000000000000000000000000000000000000000 PUSH1 0x20 DUP3 ADD MSTORE POP JUMP JUMPDEST PUSH0 PUSH2 0xBD7 PUSH1 0x24 DUP4 PUSH2 0xA51 JUMP JUMPDEST SWAP2 POP PUSH2 0xBE2 DUP3 PUSH2 0xB7D JUMP JUMPDEST PUSH1 0x40 DUP3 ADD SWAP1 POP SWAP2 SWAP1 POP JUMP JUMPDEST PUSH0 PUSH1 0x20 DUP3 ADD SWAP1 POP DUP2 DUP2 SUB PUSH0 DUP4 ADD MSTORE PUSH2 0xC04 DUP2 PUSH2 0xBCB JUMP JUMPDEST SWAP1 POP SWAP2 SWAP1 POP JUMP JUMPDEST PUSH2 0xC14 DUP2 PUSH2 0xA20 JUMP JUMPDEST DUP2 EQ PUSH2 0xC1E JUMPI PUSH0 DUP1 REVERT JUMPDEST POP JUMP JUMPDEST PUSH0 DUP2 MLOAD SWAP1 POP PUSH2 0xC2F DUP2 PUSH2 0xC0B JUMP JUMPDEST SWAP3 SWAP2 POP POP JUMP JUMPDEST PUSH0 PUSH1 0x20 DUP3 DUP5 SUB SLT ISZERO PUSH2 0xC4A JUMPI PUSH2 0xC49 PUSH2 0x98E JUMP JUMPDEST JUMPDEST PUSH0 PUSH2 0xC57 DUP5 DUP3 DUP6 ADD PUSH2 0xC21 JUMP JUMPDEST SWAP2 POP POP SWAP3 SWAP2 POP POP JUMP JUMPDEST PUSH32 0x4F6E6C79206F776E65722063616E2063616C6C20746869732066756E6374696F PUSH0 DUP3 ADD MSTORE PUSH32 0x6E00000000000000000000000000000000000000000000000000000000000000 PUSH1 0x20 DUP3 ADD MSTORE POP JUMP JUMPDEST PUSH0 PUSH2 0xCBA PUSH1 0x21 DUP4 PUSH2 0xA51 JUMP JUMPDEST SWAP2 POP PUSH2 0xCC5 DUP3 PUSH2 0xC60 JUMP JUMPDEST PUSH1 0x40 DUP3 ADD SWAP1 POP SWAP2 SWAP1 POP JUMP JUMPDEST PUSH0 PUSH1 0x20 DUP3 ADD SWAP1 POP DUP2 DUP2 SUB PUSH0 DUP4 ADD MSTORE PUSH2 0xCE7 DUP2 PUSH2 0xCAE JUMP JUMPDEST SWAP1 POP SWAP2 SWAP1 POP JUMP JUMPDEST PUSH32 0x4E6F20746F6B656E7320746F2077697468647261770000000000000000000000 PUSH0 DUP3 ADD MSTORE POP JUMP JUMPDEST PUSH0 PUSH2 0xD22 PUSH1 0x15 DUP4 PUSH2 0xA51 JUMP JUMPDEST SWAP2 POP PUSH2 0xD2D DUP3 PUSH2 0xCEE JUMP JUMPDEST PUSH1 0x20 DUP3 ADD SWAP1 POP SWAP2 SWAP1 POP JUMP JUMPDEST PUSH0 PUSH1 0x20 DUP3 ADD SWAP1 POP DUP2 DUP2 SUB PUSH0 DUP4 ADD MSTORE PUSH2 0xD4F DUP2 PUSH2 0xD16 JUMP JUMPDEST SWAP1 POP SWAP2 SWAP1 POP JUMP JUMPDEST PUSH0 PUSH1 0x40 DUP3 ADD SWAP1 POP PUSH2 0xD69 PUSH0 DUP4 ADD DUP6 PUSH2 0x9F8 JUMP JUMPDEST PUSH2 0xD76 PUSH1 0x20 DUP4 ADD DUP5 PUSH2 0xA29 JUMP JUMPDEST SWAP4 SWAP3 POP POP POP JUMP INVALID LOG2 PUSH5 0x6970667358 0x22 SLT KECCAK256 0xC0 0x2D SUB 0xB1 0x2C PUSH0 EXTCODESIZE 0xEB BASEFEE PUSH3 0x1FAAC0 0xB8 SELFBALANCE 0x2B MSIZE SWAP7 0xBF MSTORE DUP13 0xD5 0xAB CALL 0x21 0x2A 0xB6 0xFC 0xE5 SGT PUSH18 0xA264736F6C634300081A0033000000000000 "
				},
				"gasEstimates": {
					"creation": {
						"codeDepositCost": "701400",
						"executionCost": "infinite",
						"totalCost": "infinite"
					},
					"external": {
						"": "151",
						"deployer()": "2552",
						"getGreenTokenBalance()": "infinite",
						"greenToken()": "infinite",
						"owner()": "2505",
						"updateGreenTokenAddress(address)": "28102",
						"updateOwner(address)": "28124",
						"verifyAndWithdraw()": "infinite"
					}
				},
				"methodIdentifiers": {
					"deployer()": "d5f39488",
					"getGreenTokenBalance()": "99e9c1dd",
					"greenToken()": "02b32af5",
					"owner()": "8da5cb5b",
					"updateGreenTokenAddress(address)": "1f31dc01",
					"updateOwner(address)": "880cdc31",
					"verifyAndWithdraw()": "ea017105"
				}
			},
			"storageLayout": {
				"storage": [
					{
						"astId": 881,
						"contract": "ETHBangkok/SmartWallet/SmartWallet.sol:SmartWallet",
						"label": "owner",
						"offset": 0,
						"slot": "0",
						"type": "t_address"
					},
					{
						"astId": 883,
						"contract": "ETHBangkok/SmartWallet/SmartWallet.sol:SmartWallet",
						"label": "deployer",
						"offset": 0,
						"slot": "1",
						"type": "t_address"
					},
					{
						"astId": 886,
						"contract": "ETHBangkok/SmartWallet/SmartWallet.sol:SmartWallet",
						"label": "greenToken",
						"offset": 0,
						"slot": "2",
						"type": "t_contract(IERC20)167"
					}
				],
				"types": {
					"t_address": {
						"encoding": "inplace",
						"label": "address",
						"numberOfBytes": "20"
					},
					"t_contract(IERC20)167": {
						"encoding": "inplace",
						"label": "contract IERC20",
						"numberOfBytes": "20"
					}
				}
			},
			"userdoc": {
				"kind": "user",
				"methods": {},
				"version": 1
			}
		}
	}
}