{
	"ETHBangkok/SmartWallet/SmartWalletFactory.sol": {
		"SmartWalletFactory": {
			"abi": [
				{
					"inputs": [
						{
							"internalType": "address",
							"name": "_greenToken",
							"type": "address"
						}
					],
					"stateMutability": "nonpayable",
					"type": "constructor"
				},
				{
					"anonymous": false,
					"inputs": [
						{
							"indexed": true,
							"internalType": "address",
							"name": "newGreenToken",
							"type": "address"
						}
					],
					"name": "GreenTokenUpdated",
					"type": "event"
				},
				{
					"anonymous": false,
					"inputs": [
						{
							"indexed": true,
							"internalType": "address",
							"name": "walletAddress",
							"type": "address"
						},
						{
							"indexed": true,
							"internalType": "address",
							"name": "initialOwner",
							"type": "address"
						}
					],
					"name": "WalletDeployed",
					"type": "event"
				},
				{
					"inputs": [
						{
							"internalType": "address",
							"name": "_initialOwner",
							"type": "address"
						}
					],
					"name": "deploySmartWallet",
					"outputs": [
						{
							"internalType": "address",
							"name": "",
							"type": "address"
						}
					],
					"stateMutability": "nonpayable",
					"type": "function"
				},
				{
					"inputs": [
						{
							"internalType": "uint256",
							"name": "",
							"type": "uint256"
						}
					],
					"name": "deployedWallets",
					"outputs": [
						{
							"internalType": "address",
							"name": "",
							"type": "address"
						}
					],
					"stateMutability": "view",
					"type": "function"
				},
				{
					"inputs": [],
					"name": "deployer",
					"outputs": [
						{
							"internalType": "address",
							"name": "",
							"type": "address"
						}
					],
					"stateMutability": "view",
					"type": "function"
				},
				{
					"inputs": [],
					"name": "getDeployedWallets",
					"outputs": [
						{
							"internalType": "address[]",
							"name": "",
							"type": "address[]"
						}
					],
					"stateMutability": "view",
					"type": "function"
				},
				{
					"inputs": [],
					"name": "greenToken",
					"outputs": [
						{
							"internalType": "address",
							"name": "",
							"type": "address"
						}
					],
					"stateMutability": "view",
					"type": "function"
				},
				{
					"inputs": [
						{
							"internalType": "address",
							"name": "_newGreenToken",
							"type": "address"
						}
					],
					"name": "updateGreenToken",
					"outputs": [],
					"stateMutability": "nonpayable",
					"type": "function"
				},
				{
					"inputs": [
						{
							"internalType": "address payable",
							"name": "walletAddress",
							"type": "address"
						},
						{
							"internalType": "address",
							"name": "newOwner",
							"type": "address"
						}
					],
					"name": "updateOwnerInWallet",
					"outputs": [],
					"stateMutability": "nonpayable",
					"type": "function"
				}
			],
			"devdoc": {
				"kind": "dev",
				"methods": {},
				"version": 1
			},
			"evm": {
				"assembly": "    /* \"ETHBangkok/SmartWallet/SmartWalletFactory.sol\":92:1920  contract SmartWalletFactory {... */\n  mstore(0x40, 0x80)\n    /* \"ETHBangkok/SmartWallet/SmartWalletFactory.sol\":515:623  constructor(address _greenToken) {... */\n  callvalue\n  dup1\n  iszero\n  tag_1\n  jumpi\n  0x00\n  dup1\n  revert\ntag_1:\n  pop\n  mload(0x40)\n  sub(codesize, bytecodeSize)\n  dup1\n  bytecodeSize\n  dup4\n  codecopy\n  dup2\n  dup2\n  add\n  0x40\n  mstore\n  dup2\n  add\n  swap1\n  tag_2\n  swap2\n  swap1\n  tag_3\n  jump\t// in\ntag_2:\n    /* \"ETHBangkok/SmartWallet/SmartWalletFactory.sol\":570:580  msg.sender */\n  caller\n    /* \"ETHBangkok/SmartWallet/SmartWalletFactory.sol\":559:567  deployer */\n  0x00\n  dup1\n    /* \"ETHBangkok/SmartWallet/SmartWalletFactory.sol\":559:580  deployer = msg.sender */\n  0x0100\n  exp\n  dup2\n  sload\n  dup2\n  0xffffffffffffffffffffffffffffffffffffffff\n  mul\n  not\n  and\n  swap1\n  dup4\n  0xffffffffffffffffffffffffffffffffffffffff\n  and\n  mul\n  or\n  swap1\n  sstore\n  pop\n    /* \"ETHBangkok/SmartWallet/SmartWalletFactory.sol\":604:615  _greenToken */\n  dup1\n    /* \"ETHBangkok/SmartWallet/SmartWalletFactory.sol\":591:601  greenToken */\n  0x01\n  0x00\n    /* \"ETHBangkok/SmartWallet/SmartWalletFactory.sol\":591:615  greenToken = _greenToken */\n  0x0100\n  exp\n  dup2\n  sload\n  dup2\n  0xffffffffffffffffffffffffffffffffffffffff\n  mul\n  not\n  and\n  swap1\n  dup4\n  0xffffffffffffffffffffffffffffffffffffffff\n  and\n  mul\n  or\n  swap1\n  sstore\n  pop\n    /* \"ETHBangkok/SmartWallet/SmartWalletFactory.sol\":515:623  constructor(address _greenToken) {... */\n  pop\n    /* \"ETHBangkok/SmartWallet/SmartWalletFactory.sol\":92:1920  contract SmartWalletFactory {... */\n  jump(tag_6)\n    /* \"#utility.yul\":88:205   */\ntag_8:\n    /* \"#utility.yul\":197:198   */\n  0x00\n    /* \"#utility.yul\":194:195   */\n  dup1\n    /* \"#utility.yul\":187:199   */\n  revert\n    /* \"#utility.yul\":334:460   */\ntag_10:\n    /* \"#utility.yul\":371:378   */\n  0x00\n    /* \"#utility.yul\":411:453   */\n  0xffffffffffffffffffffffffffffffffffffffff\n    /* \"#utility.yul\":404:409   */\n  dup3\n    /* \"#utility.yul\":400:454   */\n  and\n    /* \"#utility.yul\":389:454   */\n  swap1\n  pop\n    /* \"#utility.yul\":334:460   */\n  swap2\n  swap1\n  pop\n  jump\t// out\n    /* \"#utility.yul\":466:562   */\ntag_11:\n    /* \"#utility.yul\":503:510   */\n  0x00\n    /* \"#utility.yul\":532:556   */\n  tag_20\n    /* \"#utility.yul\":550:555   */\n  dup3\n    /* \"#utility.yul\":532:556   */\n  tag_10\n  jump\t// in\ntag_20:\n    /* \"#utility.yul\":521:556   */\n  swap1\n  pop\n    /* \"#utility.yul\":466:562   */\n  swap2\n  swap1\n  pop\n  jump\t// out\n    /* \"#utility.yul\":568:690   */\ntag_12:\n    /* \"#utility.yul\":641:665   */\n  tag_22\n    /* \"#utility.yul\":659:664   */\n  dup2\n    /* \"#utility.yul\":641:665   */\n  tag_11\n  jump\t// in\ntag_22:\n    /* \"#utility.yul\":634:639   */\n  dup2\n    /* \"#utility.yul\":631:666   */\n  eq\n    /* \"#utility.yul\":621:684   */\n  tag_23\n  jumpi\n    /* \"#utility.yul\":680:681   */\n  0x00\n    /* \"#utility.yul\":677:678   */\n  dup1\n    /* \"#utility.yul\":670:682   */\n  revert\n    /* \"#utility.yul\":621:684   */\ntag_23:\n    /* \"#utility.yul\":568:690   */\n  pop\n  jump\t// out\n    /* \"#utility.yul\":696:839   */\ntag_13:\n    /* \"#utility.yul\":753:758   */\n  0x00\n    /* \"#utility.yul\":784:790   */\n  dup2\n    /* \"#utility.yul\":778:791   */\n  mload\n    /* \"#utility.yul\":769:791   */\n  swap1\n  pop\n    /* \"#utility.yul\":800:833   */\n  tag_25\n    /* \"#utility.yul\":827:832   */\n  dup2\n    /* \"#utility.yul\":800:833   */\n  tag_12\n  jump\t// in\ntag_25:\n    /* \"#utility.yul\":696:839   */\n  swap3\n  swap2\n  pop\n  pop\n  jump\t// out\n    /* \"#utility.yul\":845:1196   */\ntag_3:\n    /* \"#utility.yul\":915:921   */\n  0x00\n    /* \"#utility.yul\":964:966   */\n  0x20\n    /* \"#utility.yul\":952:961   */\n  dup3\n    /* \"#utility.yul\":943:950   */\n  dup5\n    /* \"#utility.yul\":939:962   */\n  sub\n    /* \"#utility.yul\":935:967   */\n  slt\n    /* \"#utility.yul\":932:1051   */\n  iszero\n  tag_27\n  jumpi\n    /* \"#utility.yul\":970:1049   */\n  tag_28\n  tag_8\n  jump\t// in\ntag_28:\n    /* \"#utility.yul\":932:1051   */\ntag_27:\n    /* \"#utility.yul\":1090:1091   */\n  0x00\n    /* \"#utility.yul\":1115:1179   */\n  tag_29\n    /* \"#utility.yul\":1171:1178   */\n  dup5\n    /* \"#utility.yul\":1162:1168   */\n  dup3\n    /* \"#utility.yul\":1151:1160   */\n  dup6\n    /* \"#utility.yul\":1147:1169   */\n  add\n    /* \"#utility.yul\":1115:1179   */\n  tag_13\n  jump\t// in\ntag_29:\n    /* \"#utility.yul\":1105:1179   */\n  swap2\n  pop\n    /* \"#utility.yul\":1061:1189   */\n  pop\n    /* \"#utility.yul\":845:1196   */\n  swap3\n  swap2\n  pop\n  pop\n  jump\t// out\n    /* \"ETHBangkok/SmartWallet/SmartWalletFactory.sol\":92:1920  contract SmartWalletFactory {... */\ntag_6:\n  dataSize(sub_0)\n  dup1\n  dataOffset(sub_0)\n  0x00\n  codecopy\n  0x00\n  return\nstop\n\nsub_0: assembly {\n        /* \"ETHBangkok/SmartWallet/SmartWalletFactory.sol\":92:1920  contract SmartWalletFactory {... */\n      mstore(0x40, 0x80)\n      callvalue\n      dup1\n      iszero\n      tag_1\n      jumpi\n      0x00\n      dup1\n      revert\n    tag_1:\n      pop\n      jumpi(tag_2, lt(calldatasize, 0x04))\n      shr(0xe0, calldataload(0x00))\n      dup1\n      0x8455c423\n      gt\n      tag_10\n      jumpi\n      dup1\n      0x8455c423\n      eq\n      tag_6\n      jumpi\n      dup1\n      0xa57354a1\n      eq\n      tag_7\n      jumpi\n      dup1\n      0xa72c82d7\n      eq\n      tag_8\n      jumpi\n      dup1\n      0xd5f39488\n      eq\n      tag_9\n      jumpi\n      jump(tag_2)\n    tag_10:\n      dup1\n      0x02b32af5\n      eq\n      tag_3\n      jumpi\n      dup1\n      0x21fe926a\n      eq\n      tag_4\n      jumpi\n      dup1\n      0x646ce69b\n      eq\n      tag_5\n      jumpi\n    tag_2:\n      0x00\n      dup1\n      revert\n        /* \"ETHBangkok/SmartWallet/SmartWalletFactory.sol\":157:182  address public greenToken */\n    tag_3:\n      tag_11\n      tag_12\n      jump\t// in\n    tag_11:\n      mload(0x40)\n      tag_13\n      swap2\n      swap1\n      tag_14\n      jump\t// in\n    tag_13:\n      mload(0x40)\n      dup1\n      swap2\n      sub\n      swap1\n      return\n        /* \"ETHBangkok/SmartWallet/SmartWalletFactory.sol\":1534:1797  function updateOwnerInWallet(address payable walletAddress, address newOwner) external onlyDeployer {... */\n    tag_4:\n      tag_15\n      0x04\n      dup1\n      calldatasize\n      sub\n      dup2\n      add\n      swap1\n      tag_16\n      swap2\n      swap1\n      tag_17\n      jump\t// in\n    tag_16:\n      tag_18\n      jump\t// in\n    tag_15:\n      stop\n        /* \"ETHBangkok/SmartWallet/SmartWalletFactory.sol\":904:1233  function deploySmartWallet(address _initialOwner) external onlyDeployer returns (address) {... */\n    tag_5:\n      tag_19\n      0x04\n      dup1\n      calldatasize\n      sub\n      dup2\n      add\n      swap1\n      tag_20\n      swap2\n      swap1\n      tag_21\n      jump\t// in\n    tag_20:\n      tag_22\n      jump\t// in\n    tag_19:\n      mload(0x40)\n      tag_23\n      swap2\n      swap1\n      tag_14\n      jump\t// in\n    tag_23:\n      mload(0x40)\n      dup1\n      swap2\n      sub\n      swap1\n      return\n        /* \"ETHBangkok/SmartWallet/SmartWalletFactory.sol\":189:221  address[] public deployedWallets */\n    tag_6:\n      tag_24\n      0x04\n      dup1\n      calldatasize\n      sub\n      dup2\n      add\n      swap1\n      tag_25\n      swap2\n      swap1\n      tag_26\n      jump\t// in\n    tag_25:\n      tag_27\n      jump\t// in\n    tag_24:\n      mload(0x40)\n      tag_28\n      swap2\n      swap1\n      tag_14\n      jump\t// in\n    tag_28:\n      mload(0x40)\n      dup1\n      swap2\n      sub\n      swap1\n      return\n        /* \"ETHBangkok/SmartWallet/SmartWalletFactory.sol\":631:896  function updateGreenToken(address _newGreenToken) external onlyDeployer {... */\n    tag_7:\n      tag_29\n      0x04\n      dup1\n      calldatasize\n      sub\n      dup2\n      add\n      swap1\n      tag_30\n      swap2\n      swap1\n      tag_21\n      jump\t// in\n    tag_30:\n      tag_31\n      jump\t// in\n    tag_29:\n      stop\n        /* \"ETHBangkok/SmartWallet/SmartWalletFactory.sol\":1805:1917  function getDeployedWallets() external view returns (address[] memory) {... */\n    tag_8:\n      tag_32\n      tag_33\n      jump\t// in\n    tag_32:\n      mload(0x40)\n      tag_34\n      swap2\n      swap1\n      tag_35\n      jump\t// in\n    tag_34:\n      mload(0x40)\n      dup1\n      swap2\n      sub\n      swap1\n      return\n        /* \"ETHBangkok/SmartWallet/SmartWalletFactory.sol\":127:150  address public deployer */\n    tag_9:\n      tag_36\n      tag_37\n      jump\t// in\n    tag_36:\n      mload(0x40)\n      tag_38\n      swap2\n      swap1\n      tag_14\n      jump\t// in\n    tag_38:\n      mload(0x40)\n      dup1\n      swap2\n      sub\n      swap1\n      return\n        /* \"ETHBangkok/SmartWallet/SmartWalletFactory.sol\":157:182  address public greenToken */\n    tag_12:\n      0x01\n      0x00\n      swap1\n      sload\n      swap1\n      0x0100\n      exp\n      swap1\n      div\n      0xffffffffffffffffffffffffffffffffffffffff\n      and\n      dup2\n      jump\t// out\n        /* \"ETHBangkok/SmartWallet/SmartWalletFactory.sol\":1534:1797  function updateOwnerInWallet(address payable walletAddress, address newOwner) external onlyDeployer {... */\n    tag_18:\n        /* \"ETHBangkok/SmartWallet/SmartWalletFactory.sol\":438:446  deployer */\n      0x00\n      dup1\n      sload\n      swap1\n      0x0100\n      exp\n      swap1\n      div\n      0xffffffffffffffffffffffffffffffffffffffff\n      and\n        /* \"ETHBangkok/SmartWallet/SmartWalletFactory.sol\":424:446  msg.sender == deployer */\n      0xffffffffffffffffffffffffffffffffffffffff\n      and\n        /* \"ETHBangkok/SmartWallet/SmartWalletFactory.sol\":424:434  msg.sender */\n      caller\n        /* \"ETHBangkok/SmartWallet/SmartWalletFactory.sol\":424:446  msg.sender == deployer */\n      0xffffffffffffffffffffffffffffffffffffffff\n      and\n      eq\n        /* \"ETHBangkok/SmartWallet/SmartWalletFactory.sol\":416:487  require(msg.sender == deployer, \"Only deployer can call this function\") */\n      tag_40\n      jumpi\n      mload(0x40)\n      0x08c379a000000000000000000000000000000000000000000000000000000000\n      dup2\n      mstore\n      0x04\n      add\n      tag_41\n      swap1\n      tag_42\n      jump\t// in\n    tag_41:\n      mload(0x40)\n      dup1\n      swap2\n      sub\n      swap1\n      revert\n    tag_40:\n        /* \"ETHBangkok/SmartWallet/SmartWalletFactory.sol\":1653:1684  isDeployedWallet(walletAddress) */\n      tag_44\n        /* \"ETHBangkok/SmartWallet/SmartWalletFactory.sol\":1670:1683  walletAddress */\n      dup3\n        /* \"ETHBangkok/SmartWallet/SmartWalletFactory.sol\":1653:1669  isDeployedWallet */\n      tag_45\n        /* \"ETHBangkok/SmartWallet/SmartWalletFactory.sol\":1653:1684  isDeployedWallet(walletAddress) */\n      jump\t// in\n    tag_44:\n        /* \"ETHBangkok/SmartWallet/SmartWalletFactory.sol\":1645:1728  require(isDeployedWallet(walletAddress), \"Wallet address is not a deployed wallet\") */\n      tag_46\n      jumpi\n      mload(0x40)\n      0x08c379a000000000000000000000000000000000000000000000000000000000\n      dup2\n      mstore\n      0x04\n      add\n      tag_47\n      swap1\n      tag_48\n      jump\t// in\n    tag_47:\n      mload(0x40)\n      dup1\n      swap2\n      sub\n      swap1\n      revert\n    tag_46:\n        /* \"ETHBangkok/SmartWallet/SmartWalletFactory.sol\":1753:1766  walletAddress */\n      dup2\n        /* \"ETHBangkok/SmartWallet/SmartWalletFactory.sol\":1741:1779  SmartWallet(walletAddress).updateOwner */\n      0xffffffffffffffffffffffffffffffffffffffff\n      and\n      0x880cdc31\n        /* \"ETHBangkok/SmartWallet/SmartWalletFactory.sol\":1780:1788  newOwner */\n      dup3\n        /* \"ETHBangkok/SmartWallet/SmartWalletFactory.sol\":1741:1789  SmartWallet(walletAddress).updateOwner(newOwner) */\n      mload(0x40)\n      dup3\n      0xffffffff\n      and\n      0xe0\n      shl\n      dup2\n      mstore\n      0x04\n      add\n      tag_49\n      swap2\n      swap1\n      tag_14\n      jump\t// in\n    tag_49:\n      0x00\n      mload(0x40)\n      dup1\n      dup4\n      sub\n      dup2\n      0x00\n      dup8\n      dup1\n      extcodesize\n      iszero\n      dup1\n      iszero\n      tag_50\n      jumpi\n      0x00\n      dup1\n      revert\n    tag_50:\n      pop\n      gas\n      call\n      iszero\n      dup1\n      iszero\n      tag_52\n      jumpi\n      returndatasize\n      0x00\n      dup1\n      returndatacopy\n      revert(0x00, returndatasize)\n    tag_52:\n      pop\n      pop\n      pop\n      pop\n        /* \"ETHBangkok/SmartWallet/SmartWalletFactory.sol\":1534:1797  function updateOwnerInWallet(address payable walletAddress, address newOwner) external onlyDeployer {... */\n      pop\n      pop\n      jump\t// out\n        /* \"ETHBangkok/SmartWallet/SmartWalletFactory.sol\":904:1233  function deploySmartWallet(address _initialOwner) external onlyDeployer returns (address) {... */\n    tag_22:\n        /* \"ETHBangkok/SmartWallet/SmartWalletFactory.sol\":985:992  address */\n      0x00\n        /* \"ETHBangkok/SmartWallet/SmartWalletFactory.sol\":438:446  deployer */\n      dup1\n      0x00\n      swap1\n      sload\n      swap1\n      0x0100\n      exp\n      swap1\n      div\n      0xffffffffffffffffffffffffffffffffffffffff\n      and\n        /* \"ETHBangkok/SmartWallet/SmartWalletFactory.sol\":424:446  msg.sender == deployer */\n      0xffffffffffffffffffffffffffffffffffffffff\n      and\n        /* \"ETHBangkok/SmartWallet/SmartWalletFactory.sol\":424:434  msg.sender */\n      caller\n        /* \"ETHBangkok/SmartWallet/SmartWalletFactory.sol\":424:446  msg.sender == deployer */\n      0xffffffffffffffffffffffffffffffffffffffff\n      and\n      eq\n        /* \"ETHBangkok/SmartWallet/SmartWalletFactory.sol\":416:487  require(msg.sender == deployer, \"Only deployer can call this function\") */\n      tag_54\n      jumpi\n      mload(0x40)\n      0x08c379a000000000000000000000000000000000000000000000000000000000\n      dup2\n      mstore\n      0x04\n      add\n      tag_55\n      swap1\n      tag_42\n      jump\t// in\n    tag_55:\n      mload(0x40)\n      dup1\n      swap2\n      sub\n      swap1\n      revert\n    tag_54:\n        /* \"ETHBangkok/SmartWallet/SmartWalletFactory.sol\":1005:1026  SmartWallet newWallet */\n      0x00\n        /* \"ETHBangkok/SmartWallet/SmartWalletFactory.sol\":1045:1058  _initialOwner */\n      dup3\n        /* \"ETHBangkok/SmartWallet/SmartWalletFactory.sol\":1060:1070  greenToken */\n      0x01\n      0x00\n      swap1\n      sload\n      swap1\n      0x0100\n      exp\n      swap1\n      div\n      0xffffffffffffffffffffffffffffffffffffffff\n      and\n        /* \"ETHBangkok/SmartWallet/SmartWalletFactory.sol\":1029:1071  new SmartWallet(_initialOwner, greenToken) */\n      mload(0x40)\n      tag_57\n      swap1\n      tag_58\n      jump\t// in\n    tag_57:\n      tag_59\n      swap3\n      swap2\n      swap1\n      tag_60\n      jump\t// in\n    tag_59:\n      mload(0x40)\n      dup1\n      swap2\n      sub\n      swap1\n      0x00\n      create\n      dup1\n      iszero\n      dup1\n      iszero\n      tag_61\n      jumpi\n      returndatasize\n      0x00\n      dup1\n      returndatacopy\n      revert(0x00, returndatasize)\n    tag_61:\n      pop\n        /* \"ETHBangkok/SmartWallet/SmartWalletFactory.sol\":1005:1071  SmartWallet newWallet = new SmartWallet(_initialOwner, greenToken) */\n      swap1\n      pop\n        /* \"ETHBangkok/SmartWallet/SmartWalletFactory.sol\":1082:1097  deployedWallets */\n      0x02\n        /* \"ETHBangkok/SmartWallet/SmartWalletFactory.sol\":1111:1120  newWallet */\n      dup2\n        /* \"ETHBangkok/SmartWallet/SmartWalletFactory.sol\":1082:1122  deployedWallets.push(address(newWallet)) */\n      swap1\n      dup1\n      0x01\n      dup2\n      sload\n      add\n      dup1\n      dup3\n      sstore\n      dup1\n      swap2\n      pop\n      pop\n      0x01\n      swap1\n      sub\n      swap1\n      0x00\n      mstore\n      keccak256(0x00, 0x20)\n      add\n      0x00\n      swap1\n      swap2\n      swap1\n      swap2\n      swap1\n      swap2\n      0x0100\n      exp\n      dup2\n      sload\n      dup2\n      0xffffffffffffffffffffffffffffffffffffffff\n      mul\n      not\n      and\n      swap1\n      dup4\n      0xffffffffffffffffffffffffffffffffffffffff\n      and\n      mul\n      or\n      swap1\n      sstore\n      pop\n        /* \"ETHBangkok/SmartWallet/SmartWalletFactory.sol\":1175:1188  _initialOwner */\n      dup3\n        /* \"ETHBangkok/SmartWallet/SmartWalletFactory.sol\":1140:1189  WalletDeployed(address(newWallet), _initialOwner) */\n      0xffffffffffffffffffffffffffffffffffffffff\n      and\n        /* \"ETHBangkok/SmartWallet/SmartWalletFactory.sol\":1163:1172  newWallet */\n      dup2\n        /* \"ETHBangkok/SmartWallet/SmartWalletFactory.sol\":1140:1189  WalletDeployed(address(newWallet), _initialOwner) */\n      0xffffffffffffffffffffffffffffffffffffffff\n      and\n      0xf25144576b87c0db53fd13e964c2b18299ee19d7d44d4b2636144644acff745b\n      mload(0x40)\n      mload(0x40)\n      dup1\n      swap2\n      sub\n      swap1\n      log3\n        /* \"ETHBangkok/SmartWallet/SmartWalletFactory.sol\":1215:1224  newWallet */\n      dup1\n        /* \"ETHBangkok/SmartWallet/SmartWalletFactory.sol\":1200:1225  return address(newWallet) */\n      swap2\n      pop\n      pop\n        /* \"ETHBangkok/SmartWallet/SmartWalletFactory.sol\":904:1233  function deploySmartWallet(address _initialOwner) external onlyDeployer returns (address) {... */\n      swap2\n      swap1\n      pop\n      jump\t// out\n        /* \"ETHBangkok/SmartWallet/SmartWalletFactory.sol\":189:221  address[] public deployedWallets */\n    tag_27:\n      0x02\n      dup2\n      dup2\n      sload\n      dup2\n      lt\n      tag_63\n      jumpi\n      0x00\n      dup1\n      revert\n    tag_63:\n      swap1\n      0x00\n      mstore\n      keccak256(0x00, 0x20)\n      add\n      0x00\n      swap2\n      pop\n      sload\n      swap1\n      0x0100\n      exp\n      swap1\n      div\n      0xffffffffffffffffffffffffffffffffffffffff\n      and\n      dup2\n      jump\t// out\n        /* \"ETHBangkok/SmartWallet/SmartWalletFactory.sol\":631:896  function updateGreenToken(address _newGreenToken) external onlyDeployer {... */\n    tag_31:\n        /* \"ETHBangkok/SmartWallet/SmartWalletFactory.sol\":438:446  deployer */\n      0x00\n      dup1\n      sload\n      swap1\n      0x0100\n      exp\n      swap1\n      div\n      0xffffffffffffffffffffffffffffffffffffffff\n      and\n        /* \"ETHBangkok/SmartWallet/SmartWalletFactory.sol\":424:446  msg.sender == deployer */\n      0xffffffffffffffffffffffffffffffffffffffff\n      and\n        /* \"ETHBangkok/SmartWallet/SmartWalletFactory.sol\":424:434  msg.sender */\n      caller\n        /* \"ETHBangkok/SmartWallet/SmartWalletFactory.sol\":424:446  msg.sender == deployer */\n      0xffffffffffffffffffffffffffffffffffffffff\n      and\n      eq\n        /* \"ETHBangkok/SmartWallet/SmartWalletFactory.sol\":416:487  require(msg.sender == deployer, \"Only deployer can call this function\") */\n      tag_66\n      jumpi\n      mload(0x40)\n      0x08c379a000000000000000000000000000000000000000000000000000000000\n      dup2\n      mstore\n      0x04\n      add\n      tag_67\n      swap1\n      tag_42\n      jump\t// in\n    tag_67:\n      mload(0x40)\n      dup1\n      swap2\n      sub\n      swap1\n      revert\n    tag_66:\n        /* \"ETHBangkok/SmartWallet/SmartWalletFactory.sol\":748:749  0 */\n      0x00\n        /* \"ETHBangkok/SmartWallet/SmartWalletFactory.sol\":722:750  _newGreenToken != address(0) */\n      0xffffffffffffffffffffffffffffffffffffffff\n      and\n        /* \"ETHBangkok/SmartWallet/SmartWalletFactory.sol\":722:736  _newGreenToken */\n      dup2\n        /* \"ETHBangkok/SmartWallet/SmartWalletFactory.sol\":722:750  _newGreenToken != address(0) */\n      0xffffffffffffffffffffffffffffffffffffffff\n      and\n      sub\n        /* \"ETHBangkok/SmartWallet/SmartWalletFactory.sol\":714:801  require(_newGreenToken != address(0), \"New green token address cannot be zero address\") */\n      tag_69\n      jumpi\n      mload(0x40)\n      0x08c379a000000000000000000000000000000000000000000000000000000000\n      dup2\n      mstore\n      0x04\n      add\n      tag_70\n      swap1\n      tag_71\n      jump\t// in\n    tag_70:\n      mload(0x40)\n      dup1\n      swap2\n      sub\n      swap1\n      revert\n    tag_69:\n        /* \"ETHBangkok/SmartWallet/SmartWalletFactory.sol\":825:839  _newGreenToken */\n      dup1\n        /* \"ETHBangkok/SmartWallet/SmartWalletFactory.sol\":812:822  greenToken */\n      0x01\n      0x00\n        /* \"ETHBangkok/SmartWallet/SmartWalletFactory.sol\":812:839  greenToken = _newGreenToken */\n      0x0100\n      exp\n      dup2\n      sload\n      dup2\n      0xffffffffffffffffffffffffffffffffffffffff\n      mul\n      not\n      and\n      swap1\n      dup4\n      0xffffffffffffffffffffffffffffffffffffffff\n      and\n      mul\n      or\n      swap1\n      sstore\n      pop\n        /* \"ETHBangkok/SmartWallet/SmartWalletFactory.sol\":873:887  _newGreenToken */\n      dup1\n        /* \"ETHBangkok/SmartWallet/SmartWalletFactory.sol\":855:888  GreenTokenUpdated(_newGreenToken) */\n      0xffffffffffffffffffffffffffffffffffffffff\n      and\n      0x55b6b6fe98d11600785423c3f7630dee64b0f6fa54e8a25362aa522d83dfd243\n      mload(0x40)\n      mload(0x40)\n      dup1\n      swap2\n      sub\n      swap1\n      log2\n        /* \"ETHBangkok/SmartWallet/SmartWalletFactory.sol\":631:896  function updateGreenToken(address _newGreenToken) external onlyDeployer {... */\n      pop\n      jump\t// out\n        /* \"ETHBangkok/SmartWallet/SmartWalletFactory.sol\":1805:1917  function getDeployedWallets() external view returns (address[] memory) {... */\n    tag_33:\n        /* \"ETHBangkok/SmartWallet/SmartWalletFactory.sol\":1858:1874  address[] memory */\n      0x60\n        /* \"ETHBangkok/SmartWallet/SmartWalletFactory.sol\":1894:1909  deployedWallets */\n      0x02\n        /* \"ETHBangkok/SmartWallet/SmartWalletFactory.sol\":1887:1909  return deployedWallets */\n      dup1\n      sload\n      dup1\n      0x20\n      mul\n      0x20\n      add\n      mload(0x40)\n      swap1\n      dup2\n      add\n      0x40\n      mstore\n      dup1\n      swap3\n      swap2\n      swap1\n      dup2\n      dup2\n      mstore\n      0x20\n      add\n      dup3\n      dup1\n      sload\n      dup1\n      iszero\n      tag_73\n      jumpi\n      0x20\n      mul\n      dup3\n      add\n      swap2\n      swap1\n      0x00\n      mstore\n      keccak256(0x00, 0x20)\n      swap1\n    tag_74:\n      dup2\n      0x00\n      swap1\n      sload\n      swap1\n      0x0100\n      exp\n      swap1\n      div\n      0xffffffffffffffffffffffffffffffffffffffff\n      and\n      0xffffffffffffffffffffffffffffffffffffffff\n      and\n      dup2\n      mstore\n      0x20\n      add\n      swap1\n      0x01\n      add\n      swap1\n      dup1\n      dup4\n      gt\n      tag_74\n      jumpi\n    tag_73:\n      pop\n      pop\n      pop\n      pop\n      pop\n      swap1\n      pop\n        /* \"ETHBangkok/SmartWallet/SmartWalletFactory.sol\":1805:1917  function getDeployedWallets() external view returns (address[] memory) {... */\n      swap1\n      jump\t// out\n        /* \"ETHBangkok/SmartWallet/SmartWalletFactory.sol\":127:150  address public deployer */\n    tag_37:\n      0x00\n      dup1\n      sload\n      swap1\n      0x0100\n      exp\n      swap1\n      div\n      0xffffffffffffffffffffffffffffffffffffffff\n      and\n      dup2\n      jump\t// out\n        /* \"ETHBangkok/SmartWallet/SmartWalletFactory.sol\":1241:1526  function isDeployedWallet(address walletAddress) internal view returns (bool) {... */\n    tag_45:\n        /* \"ETHBangkok/SmartWallet/SmartWalletFactory.sol\":1313:1317  bool */\n      0x00\n        /* \"ETHBangkok/SmartWallet/SmartWalletFactory.sol\":1335:1344  uint256 i */\n      dup1\n        /* \"ETHBangkok/SmartWallet/SmartWalletFactory.sol\":1347:1348  0 */\n      0x00\n        /* \"ETHBangkok/SmartWallet/SmartWalletFactory.sol\":1335:1348  uint256 i = 0 */\n      swap1\n      pop\n        /* \"ETHBangkok/SmartWallet/SmartWalletFactory.sol\":1330:1496  for (uint256 i = 0; i < deployedWallets.length; i++) {... */\n    tag_76:\n        /* \"ETHBangkok/SmartWallet/SmartWalletFactory.sol\":1354:1369  deployedWallets */\n      0x02\n        /* \"ETHBangkok/SmartWallet/SmartWalletFactory.sol\":1354:1376  deployedWallets.length */\n      dup1\n      sload\n      swap1\n      pop\n        /* \"ETHBangkok/SmartWallet/SmartWalletFactory.sol\":1350:1351  i */\n      dup2\n        /* \"ETHBangkok/SmartWallet/SmartWalletFactory.sol\":1350:1376  i < deployedWallets.length */\n      lt\n        /* \"ETHBangkok/SmartWallet/SmartWalletFactory.sol\":1330:1496  for (uint256 i = 0; i < deployedWallets.length; i++) {... */\n      iszero\n      tag_77\n      jumpi\n        /* \"ETHBangkok/SmartWallet/SmartWalletFactory.sol\":1424:1437  walletAddress */\n      dup3\n        /* \"ETHBangkok/SmartWallet/SmartWalletFactory.sol\":1402:1437  deployedWallets[i] == walletAddress */\n      0xffffffffffffffffffffffffffffffffffffffff\n      and\n        /* \"ETHBangkok/SmartWallet/SmartWalletFactory.sol\":1402:1417  deployedWallets */\n      0x02\n        /* \"ETHBangkok/SmartWallet/SmartWalletFactory.sol\":1418:1419  i */\n      dup3\n        /* \"ETHBangkok/SmartWallet/SmartWalletFactory.sol\":1402:1420  deployedWallets[i] */\n      dup2\n      sload\n      dup2\n      lt\n      tag_79\n      jumpi\n      tag_80\n      tag_81\n      jump\t// in\n    tag_80:\n    tag_79:\n      swap1\n      0x00\n      mstore\n      keccak256(0x00, 0x20)\n      add\n      0x00\n      swap1\n      sload\n      swap1\n      0x0100\n      exp\n      swap1\n      div\n      0xffffffffffffffffffffffffffffffffffffffff\n      and\n        /* \"ETHBangkok/SmartWallet/SmartWalletFactory.sol\":1402:1437  deployedWallets[i] == walletAddress */\n      0xffffffffffffffffffffffffffffffffffffffff\n      and\n      sub\n        /* \"ETHBangkok/SmartWallet/SmartWalletFactory.sol\":1398:1485  if (deployedWallets[i] == walletAddress) {... */\n      tag_83\n      jumpi\n        /* \"ETHBangkok/SmartWallet/SmartWalletFactory.sol\":1465:1469  true */\n      0x01\n        /* \"ETHBangkok/SmartWallet/SmartWalletFactory.sol\":1458:1469  return true */\n      swap2\n      pop\n      pop\n      jump(tag_75)\n        /* \"ETHBangkok/SmartWallet/SmartWalletFactory.sol\":1398:1485  if (deployedWallets[i] == walletAddress) {... */\n    tag_83:\n        /* \"ETHBangkok/SmartWallet/SmartWalletFactory.sol\":1378:1381  i++ */\n      dup1\n      dup1\n      0x01\n      add\n      swap2\n      pop\n      pop\n        /* \"ETHBangkok/SmartWallet/SmartWalletFactory.sol\":1330:1496  for (uint256 i = 0; i < deployedWallets.length; i++) {... */\n      jump(tag_76)\n    tag_77:\n      pop\n        /* \"ETHBangkok/SmartWallet/SmartWalletFactory.sol\":1513:1518  false */\n      0x00\n        /* \"ETHBangkok/SmartWallet/SmartWalletFactory.sol\":1506:1518  return false */\n      swap1\n      pop\n        /* \"ETHBangkok/SmartWallet/SmartWalletFactory.sol\":1241:1526  function isDeployedWallet(address walletAddress) internal view returns (bool) {... */\n    tag_75:\n      swap2\n      swap1\n      pop\n      jump\t// out\n    tag_58:\n      dataSize(sub_0)\n      dup1\n      dataOffset(sub_0)\n      dup4\n      codecopy\n      add\n      swap1\n      jump\t// out\n        /* \"#utility.yul\":7:133   */\n    tag_84:\n        /* \"#utility.yul\":44:51   */\n      0x00\n        /* \"#utility.yul\":84:126   */\n      0xffffffffffffffffffffffffffffffffffffffff\n        /* \"#utility.yul\":77:82   */\n      dup3\n        /* \"#utility.yul\":73:127   */\n      and\n        /* \"#utility.yul\":62:127   */\n      swap1\n      pop\n        /* \"#utility.yul\":7:133   */\n      swap2\n      swap1\n      pop\n      jump\t// out\n        /* \"#utility.yul\":139:235   */\n    tag_85:\n        /* \"#utility.yul\":176:183   */\n      0x00\n        /* \"#utility.yul\":205:229   */\n      tag_115\n        /* \"#utility.yul\":223:228   */\n      dup3\n        /* \"#utility.yul\":205:229   */\n      tag_84\n      jump\t// in\n    tag_115:\n        /* \"#utility.yul\":194:229   */\n      swap1\n      pop\n        /* \"#utility.yul\":139:235   */\n      swap2\n      swap1\n      pop\n      jump\t// out\n        /* \"#utility.yul\":241:359   */\n    tag_86:\n        /* \"#utility.yul\":328:352   */\n      tag_117\n        /* \"#utility.yul\":346:351   */\n      dup2\n        /* \"#utility.yul\":328:352   */\n      tag_85\n      jump\t// in\n    tag_117:\n        /* \"#utility.yul\":323:326   */\n      dup3\n        /* \"#utility.yul\":316:353   */\n      mstore\n        /* \"#utility.yul\":241:359   */\n      pop\n      pop\n      jump\t// out\n        /* \"#utility.yul\":365:587   */\n    tag_14:\n        /* \"#utility.yul\":458:462   */\n      0x00\n        /* \"#utility.yul\":496:498   */\n      0x20\n        /* \"#utility.yul\":485:494   */\n      dup3\n        /* \"#utility.yul\":481:499   */\n      add\n        /* \"#utility.yul\":473:499   */\n      swap1\n      pop\n        /* \"#utility.yul\":509:580   */\n      tag_119\n        /* \"#utility.yul\":577:578   */\n      0x00\n        /* \"#utility.yul\":566:575   */\n      dup4\n        /* \"#utility.yul\":562:579   */\n      add\n        /* \"#utility.yul\":553:559   */\n      dup5\n        /* \"#utility.yul\":509:580   */\n      tag_86\n      jump\t// in\n    tag_119:\n        /* \"#utility.yul\":365:587   */\n      swap3\n      swap2\n      pop\n      pop\n      jump\t// out\n        /* \"#utility.yul\":674:791   */\n    tag_88:\n        /* \"#utility.yul\":783:784   */\n      0x00\n        /* \"#utility.yul\":780:781   */\n      dup1\n        /* \"#utility.yul\":773:785   */\n      revert\n        /* \"#utility.yul\":920:1024   */\n    tag_90:\n        /* \"#utility.yul\":965:972   */\n      0x00\n        /* \"#utility.yul\":994:1018   */\n      tag_124\n        /* \"#utility.yul\":1012:1017   */\n      dup3\n        /* \"#utility.yul\":994:1018   */\n      tag_84\n      jump\t// in\n    tag_124:\n        /* \"#utility.yul\":983:1018   */\n      swap1\n      pop\n        /* \"#utility.yul\":920:1024   */\n      swap2\n      swap1\n      pop\n      jump\t// out\n        /* \"#utility.yul\":1030:1168   */\n    tag_91:\n        /* \"#utility.yul\":1111:1143   */\n      tag_126\n        /* \"#utility.yul\":1137:1142   */\n      dup2\n        /* \"#utility.yul\":1111:1143   */\n      tag_90\n      jump\t// in\n    tag_126:\n        /* \"#utility.yul\":1104:1109   */\n      dup2\n        /* \"#utility.yul\":1101:1144   */\n      eq\n        /* \"#utility.yul\":1091:1162   */\n      tag_127\n      jumpi\n        /* \"#utility.yul\":1158:1159   */\n      0x00\n        /* \"#utility.yul\":1155:1156   */\n      dup1\n        /* \"#utility.yul\":1148:1160   */\n      revert\n        /* \"#utility.yul\":1091:1162   */\n    tag_127:\n        /* \"#utility.yul\":1030:1168   */\n      pop\n      jump\t// out\n        /* \"#utility.yul\":1174:1329   */\n    tag_92:\n        /* \"#utility.yul\":1228:1233   */\n      0x00\n        /* \"#utility.yul\":1266:1272   */\n      dup2\n        /* \"#utility.yul\":1253:1273   */\n      calldataload\n        /* \"#utility.yul\":1244:1273   */\n      swap1\n      pop\n        /* \"#utility.yul\":1282:1323   */\n      tag_129\n        /* \"#utility.yul\":1317:1322   */\n      dup2\n        /* \"#utility.yul\":1282:1323   */\n      tag_91\n      jump\t// in\n    tag_129:\n        /* \"#utility.yul\":1174:1329   */\n      swap3\n      swap2\n      pop\n      pop\n      jump\t// out\n        /* \"#utility.yul\":1335:1457   */\n    tag_93:\n        /* \"#utility.yul\":1408:1432   */\n      tag_131\n        /* \"#utility.yul\":1426:1431   */\n      dup2\n        /* \"#utility.yul\":1408:1432   */\n      tag_85\n      jump\t// in\n    tag_131:\n        /* \"#utility.yul\":1401:1406   */\n      dup2\n        /* \"#utility.yul\":1398:1433   */\n      eq\n        /* \"#utility.yul\":1388:1451   */\n      tag_132\n      jumpi\n        /* \"#utility.yul\":1447:1448   */\n      0x00\n        /* \"#utility.yul\":1444:1445   */\n      dup1\n        /* \"#utility.yul\":1437:1449   */\n      revert\n        /* \"#utility.yul\":1388:1451   */\n    tag_132:\n        /* \"#utility.yul\":1335:1457   */\n      pop\n      jump\t// out\n        /* \"#utility.yul\":1463:1602   */\n    tag_94:\n        /* \"#utility.yul\":1509:1514   */\n      0x00\n        /* \"#utility.yul\":1547:1553   */\n      dup2\n        /* \"#utility.yul\":1534:1554   */\n      calldataload\n        /* \"#utility.yul\":1525:1554   */\n      swap1\n      pop\n        /* \"#utility.yul\":1563:1596   */\n      tag_134\n        /* \"#utility.yul\":1590:1595   */\n      dup2\n        /* \"#utility.yul\":1563:1596   */\n      tag_93\n      jump\t// in\n    tag_134:\n        /* \"#utility.yul\":1463:1602   */\n      swap3\n      swap2\n      pop\n      pop\n      jump\t// out\n        /* \"#utility.yul\":1608:2098   */\n    tag_17:\n        /* \"#utility.yul\":1684:1690   */\n      0x00\n        /* \"#utility.yul\":1692:1698   */\n      dup1\n        /* \"#utility.yul\":1741:1743   */\n      0x40\n        /* \"#utility.yul\":1729:1738   */\n      dup4\n        /* \"#utility.yul\":1720:1727   */\n      dup6\n        /* \"#utility.yul\":1716:1739   */\n      sub\n        /* \"#utility.yul\":1712:1744   */\n      slt\n        /* \"#utility.yul\":1709:1828   */\n      iszero\n      tag_136\n      jumpi\n        /* \"#utility.yul\":1747:1826   */\n      tag_137\n      tag_88\n      jump\t// in\n    tag_137:\n        /* \"#utility.yul\":1709:1828   */\n    tag_136:\n        /* \"#utility.yul\":1867:1868   */\n      0x00\n        /* \"#utility.yul\":1892:1953   */\n      tag_138\n        /* \"#utility.yul\":1945:1952   */\n      dup6\n        /* \"#utility.yul\":1936:1942   */\n      dup3\n        /* \"#utility.yul\":1925:1934   */\n      dup7\n        /* \"#utility.yul\":1921:1943   */\n      add\n        /* \"#utility.yul\":1892:1953   */\n      tag_92\n      jump\t// in\n    tag_138:\n        /* \"#utility.yul\":1882:1953   */\n      swap3\n      pop\n        /* \"#utility.yul\":1838:1963   */\n      pop\n        /* \"#utility.yul\":2002:2004   */\n      0x20\n        /* \"#utility.yul\":2028:2081   */\n      tag_139\n        /* \"#utility.yul\":2073:2080   */\n      dup6\n        /* \"#utility.yul\":2064:2070   */\n      dup3\n        /* \"#utility.yul\":2053:2062   */\n      dup7\n        /* \"#utility.yul\":2049:2071   */\n      add\n        /* \"#utility.yul\":2028:2081   */\n      tag_94\n      jump\t// in\n    tag_139:\n        /* \"#utility.yul\":2018:2081   */\n      swap2\n      pop\n        /* \"#utility.yul\":1973:2091   */\n      pop\n        /* \"#utility.yul\":1608:2098   */\n      swap3\n      pop\n      swap3\n      swap1\n      pop\n      jump\t// out\n        /* \"#utility.yul\":2104:2433   */\n    tag_21:\n        /* \"#utility.yul\":2163:2169   */\n      0x00\n        /* \"#utility.yul\":2212:2214   */\n      0x20\n        /* \"#utility.yul\":2200:2209   */\n      dup3\n        /* \"#utility.yul\":2191:2198   */\n      dup5\n        /* \"#utility.yul\":2187:2210   */\n      sub\n        /* \"#utility.yul\":2183:2215   */\n      slt\n        /* \"#utility.yul\":2180:2299   */\n      iszero\n      tag_141\n      jumpi\n        /* \"#utility.yul\":2218:2297   */\n      tag_142\n      tag_88\n      jump\t// in\n    tag_142:\n        /* \"#utility.yul\":2180:2299   */\n    tag_141:\n        /* \"#utility.yul\":2338:2339   */\n      0x00\n        /* \"#utility.yul\":2363:2416   */\n      tag_143\n        /* \"#utility.yul\":2408:2415   */\n      dup5\n        /* \"#utility.yul\":2399:2405   */\n      dup3\n        /* \"#utility.yul\":2388:2397   */\n      dup6\n        /* \"#utility.yul\":2384:2406   */\n      add\n        /* \"#utility.yul\":2363:2416   */\n      tag_94\n      jump\t// in\n    tag_143:\n        /* \"#utility.yul\":2353:2416   */\n      swap2\n      pop\n        /* \"#utility.yul\":2309:2426   */\n      pop\n        /* \"#utility.yul\":2104:2433   */\n      swap3\n      swap2\n      pop\n      pop\n      jump\t// out\n        /* \"#utility.yul\":2439:2516   */\n    tag_95:\n        /* \"#utility.yul\":2476:2483   */\n      0x00\n        /* \"#utility.yul\":2505:2510   */\n      dup2\n        /* \"#utility.yul\":2494:2510   */\n      swap1\n      pop\n        /* \"#utility.yul\":2439:2516   */\n      swap2\n      swap1\n      pop\n      jump\t// out\n        /* \"#utility.yul\":2522:2644   */\n    tag_96:\n        /* \"#utility.yul\":2595:2619   */\n      tag_146\n        /* \"#utility.yul\":2613:2618   */\n      dup2\n        /* \"#utility.yul\":2595:2619   */\n      tag_95\n      jump\t// in\n    tag_146:\n        /* \"#utility.yul\":2588:2593   */\n      dup2\n        /* \"#utility.yul\":2585:2620   */\n      eq\n        /* \"#utility.yul\":2575:2638   */\n      tag_147\n      jumpi\n        /* \"#utility.yul\":2634:2635   */\n      0x00\n        /* \"#utility.yul\":2631:2632   */\n      dup1\n        /* \"#utility.yul\":2624:2636   */\n      revert\n        /* \"#utility.yul\":2575:2638   */\n    tag_147:\n        /* \"#utility.yul\":2522:2644   */\n      pop\n      jump\t// out\n        /* \"#utility.yul\":2650:2789   */\n    tag_97:\n        /* \"#utility.yul\":2696:2701   */\n      0x00\n        /* \"#utility.yul\":2734:2740   */\n      dup2\n        /* \"#utility.yul\":2721:2741   */\n      calldataload\n        /* \"#utility.yul\":2712:2741   */\n      swap1\n      pop\n        /* \"#utility.yul\":2750:2783   */\n      tag_149\n        /* \"#utility.yul\":2777:2782   */\n      dup2\n        /* \"#utility.yul\":2750:2783   */\n      tag_96\n      jump\t// in\n    tag_149:\n        /* \"#utility.yul\":2650:2789   */\n      swap3\n      swap2\n      pop\n      pop\n      jump\t// out\n        /* \"#utility.yul\":2795:3124   */\n    tag_26:\n        /* \"#utility.yul\":2854:2860   */\n      0x00\n        /* \"#utility.yul\":2903:2905   */\n      0x20\n        /* \"#utility.yul\":2891:2900   */\n      dup3\n        /* \"#utility.yul\":2882:2889   */\n      dup5\n        /* \"#utility.yul\":2878:2901   */\n      sub\n        /* \"#utility.yul\":2874:2906   */\n      slt\n        /* \"#utility.yul\":2871:2990   */\n      iszero\n      tag_151\n      jumpi\n        /* \"#utility.yul\":2909:2988   */\n      tag_152\n      tag_88\n      jump\t// in\n    tag_152:\n        /* \"#utility.yul\":2871:2990   */\n    tag_151:\n        /* \"#utility.yul\":3029:3030   */\n      0x00\n        /* \"#utility.yul\":3054:3107   */\n      tag_153\n        /* \"#utility.yul\":3099:3106   */\n      dup5\n        /* \"#utility.yul\":3090:3096   */\n      dup3\n        /* \"#utility.yul\":3079:3088   */\n      dup6\n        /* \"#utility.yul\":3075:3097   */\n      add\n        /* \"#utility.yul\":3054:3107   */\n      tag_97\n      jump\t// in\n    tag_153:\n        /* \"#utility.yul\":3044:3107   */\n      swap2\n      pop\n        /* \"#utility.yul\":3000:3117   */\n      pop\n        /* \"#utility.yul\":2795:3124   */\n      swap3\n      swap2\n      pop\n      pop\n      jump\t// out\n        /* \"#utility.yul\":3130:3244   */\n    tag_98:\n        /* \"#utility.yul\":3197:3203   */\n      0x00\n        /* \"#utility.yul\":3231:3236   */\n      dup2\n        /* \"#utility.yul\":3225:3237   */\n      mload\n        /* \"#utility.yul\":3215:3237   */\n      swap1\n      pop\n        /* \"#utility.yul\":3130:3244   */\n      swap2\n      swap1\n      pop\n      jump\t// out\n        /* \"#utility.yul\":3250:3434   */\n    tag_99:\n        /* \"#utility.yul\":3349:3360   */\n      0x00\n        /* \"#utility.yul\":3383:3389   */\n      dup3\n        /* \"#utility.yul\":3378:3381   */\n      dup3\n        /* \"#utility.yul\":3371:3390   */\n      mstore\n        /* \"#utility.yul\":3423:3427   */\n      0x20\n        /* \"#utility.yul\":3418:3421   */\n      dup3\n        /* \"#utility.yul\":3414:3428   */\n      add\n        /* \"#utility.yul\":3399:3428   */\n      swap1\n      pop\n        /* \"#utility.yul\":3250:3434   */\n      swap3\n      swap2\n      pop\n      pop\n      jump\t// out\n        /* \"#utility.yul\":3440:3572   */\n    tag_100:\n        /* \"#utility.yul\":3507:3511   */\n      0x00\n        /* \"#utility.yul\":3530:3533   */\n      dup2\n        /* \"#utility.yul\":3522:3533   */\n      swap1\n      pop\n        /* \"#utility.yul\":3560:3564   */\n      0x20\n        /* \"#utility.yul\":3555:3558   */\n      dup3\n        /* \"#utility.yul\":3551:3565   */\n      add\n        /* \"#utility.yul\":3543:3565   */\n      swap1\n      pop\n        /* \"#utility.yul\":3440:3572   */\n      swap2\n      swap1\n      pop\n      jump\t// out\n        /* \"#utility.yul\":3578:3686   */\n    tag_101:\n        /* \"#utility.yul\":3655:3679   */\n      tag_158\n        /* \"#utility.yul\":3673:3678   */\n      dup2\n        /* \"#utility.yul\":3655:3679   */\n      tag_85\n      jump\t// in\n    tag_158:\n        /* \"#utility.yul\":3650:3653   */\n      dup3\n        /* \"#utility.yul\":3643:3680   */\n      mstore\n        /* \"#utility.yul\":3578:3686   */\n      pop\n      pop\n      jump\t// out\n        /* \"#utility.yul\":3692:3871   */\n    tag_102:\n        /* \"#utility.yul\":3761:3771   */\n      0x00\n        /* \"#utility.yul\":3782:3828   */\n      tag_160\n        /* \"#utility.yul\":3824:3827   */\n      dup4\n        /* \"#utility.yul\":3816:3822   */\n      dup4\n        /* \"#utility.yul\":3782:3828   */\n      tag_101\n      jump\t// in\n    tag_160:\n        /* \"#utility.yul\":3860:3864   */\n      0x20\n        /* \"#utility.yul\":3855:3858   */\n      dup4\n        /* \"#utility.yul\":3851:3865   */\n      add\n        /* \"#utility.yul\":3837:3865   */\n      swap1\n      pop\n        /* \"#utility.yul\":3692:3871   */\n      swap3\n      swap2\n      pop\n      pop\n      jump\t// out\n        /* \"#utility.yul\":3877:3990   */\n    tag_103:\n        /* \"#utility.yul\":3947:3951   */\n      0x00\n        /* \"#utility.yul\":3979:3983   */\n      0x20\n        /* \"#utility.yul\":3974:3977   */\n      dup3\n        /* \"#utility.yul\":3970:3984   */\n      add\n        /* \"#utility.yul\":3962:3984   */\n      swap1\n      pop\n        /* \"#utility.yul\":3877:3990   */\n      swap2\n      swap1\n      pop\n      jump\t// out\n        /* \"#utility.yul\":4026:4758   */\n    tag_104:\n        /* \"#utility.yul\":4145:4148   */\n      0x00\n        /* \"#utility.yul\":4174:4228   */\n      tag_163\n        /* \"#utility.yul\":4222:4227   */\n      dup3\n        /* \"#utility.yul\":4174:4228   */\n      tag_98\n      jump\t// in\n    tag_163:\n        /* \"#utility.yul\":4244:4330   */\n      tag_164\n        /* \"#utility.yul\":4323:4329   */\n      dup2\n        /* \"#utility.yul\":4318:4321   */\n      dup6\n        /* \"#utility.yul\":4244:4330   */\n      tag_99\n      jump\t// in\n    tag_164:\n        /* \"#utility.yul\":4237:4330   */\n      swap4\n      pop\n        /* \"#utility.yul\":4354:4410   */\n      tag_165\n        /* \"#utility.yul\":4404:4409   */\n      dup4\n        /* \"#utility.yul\":4354:4410   */\n      tag_100\n      jump\t// in\n    tag_165:\n        /* \"#utility.yul\":4433:4440   */\n      dup1\n        /* \"#utility.yul\":4464:4465   */\n      0x00\n        /* \"#utility.yul\":4449:4733   */\n    tag_166:\n        /* \"#utility.yul\":4474:4480   */\n      dup4\n        /* \"#utility.yul\":4471:4472   */\n      dup2\n        /* \"#utility.yul\":4468:4481   */\n      lt\n        /* \"#utility.yul\":4449:4733   */\n      iszero\n      tag_168\n      jumpi\n        /* \"#utility.yul\":4550:4556   */\n      dup2\n        /* \"#utility.yul\":4544:4557   */\n      mload\n        /* \"#utility.yul\":4577:4640   */\n      tag_169\n        /* \"#utility.yul\":4636:4639   */\n      dup9\n        /* \"#utility.yul\":4621:4634   */\n      dup3\n        /* \"#utility.yul\":4577:4640   */\n      tag_102\n      jump\t// in\n    tag_169:\n        /* \"#utility.yul\":4570:4640   */\n      swap8\n      pop\n        /* \"#utility.yul\":4663:4723   */\n      tag_170\n        /* \"#utility.yul\":4716:4722   */\n      dup4\n        /* \"#utility.yul\":4663:4723   */\n      tag_103\n      jump\t// in\n    tag_170:\n        /* \"#utility.yul\":4653:4723   */\n      swap3\n      pop\n        /* \"#utility.yul\":4509:4733   */\n      pop\n        /* \"#utility.yul\":4496:4497   */\n      0x01\n        /* \"#utility.yul\":4493:4494   */\n      dup2\n        /* \"#utility.yul\":4489:4498   */\n      add\n        /* \"#utility.yul\":4484:4498   */\n      swap1\n      pop\n        /* \"#utility.yul\":4449:4733   */\n      jump(tag_166)\n    tag_168:\n        /* \"#utility.yul\":4453:4467   */\n      pop\n        /* \"#utility.yul\":4749:4752   */\n      dup6\n        /* \"#utility.yul\":4742:4752   */\n      swap4\n      pop\n        /* \"#utility.yul\":4150:4758   */\n      pop\n      pop\n      pop\n        /* \"#utility.yul\":4026:4758   */\n      swap3\n      swap2\n      pop\n      pop\n      jump\t// out\n        /* \"#utility.yul\":4764:5137   */\n    tag_35:\n        /* \"#utility.yul\":4907:4911   */\n      0x00\n        /* \"#utility.yul\":4945:4947   */\n      0x20\n        /* \"#utility.yul\":4934:4943   */\n      dup3\n        /* \"#utility.yul\":4930:4948   */\n      add\n        /* \"#utility.yul\":4922:4948   */\n      swap1\n      pop\n        /* \"#utility.yul\":4994:5003   */\n      dup2\n        /* \"#utility.yul\":4988:4992   */\n      dup2\n        /* \"#utility.yul\":4984:5004   */\n      sub\n        /* \"#utility.yul\":4980:4981   */\n      0x00\n        /* \"#utility.yul\":4969:4978   */\n      dup4\n        /* \"#utility.yul\":4965:4982   */\n      add\n        /* \"#utility.yul\":4958:5005   */\n      mstore\n        /* \"#utility.yul\":5022:5130   */\n      tag_172\n        /* \"#utility.yul\":5125:5129   */\n      dup2\n        /* \"#utility.yul\":5116:5122   */\n      dup5\n        /* \"#utility.yul\":5022:5130   */\n      tag_104\n      jump\t// in\n    tag_172:\n        /* \"#utility.yul\":5014:5130   */\n      swap1\n      pop\n        /* \"#utility.yul\":4764:5137   */\n      swap3\n      swap2\n      pop\n      pop\n      jump\t// out\n        /* \"#utility.yul\":5143:5312   */\n    tag_105:\n        /* \"#utility.yul\":5227:5238   */\n      0x00\n        /* \"#utility.yul\":5261:5267   */\n      dup3\n        /* \"#utility.yul\":5256:5259   */\n      dup3\n        /* \"#utility.yul\":5249:5268   */\n      mstore\n        /* \"#utility.yul\":5301:5305   */\n      0x20\n        /* \"#utility.yul\":5296:5299   */\n      dup3\n        /* \"#utility.yul\":5292:5306   */\n      add\n        /* \"#utility.yul\":5277:5306   */\n      swap1\n      pop\n        /* \"#utility.yul\":5143:5312   */\n      swap3\n      swap2\n      pop\n      pop\n      jump\t// out\n        /* \"#utility.yul\":5318:5541   */\n    tag_106:\n        /* \"#utility.yul\":5458:5492   */\n      0x4f6e6c79206465706c6f7965722063616e2063616c6c20746869732066756e63\n        /* \"#utility.yul\":5454:5455   */\n      0x00\n        /* \"#utility.yul\":5446:5452   */\n      dup3\n        /* \"#utility.yul\":5442:5456   */\n      add\n        /* \"#utility.yul\":5435:5493   */\n      mstore\n        /* \"#utility.yul\":5527:5533   */\n      0x74696f6e00000000000000000000000000000000000000000000000000000000\n        /* \"#utility.yul\":5522:5524   */\n      0x20\n        /* \"#utility.yul\":5514:5520   */\n      dup3\n        /* \"#utility.yul\":5510:5525   */\n      add\n        /* \"#utility.yul\":5503:5534   */\n      mstore\n        /* \"#utility.yul\":5318:5541   */\n      pop\n      jump\t// out\n        /* \"#utility.yul\":5547:5913   */\n    tag_107:\n        /* \"#utility.yul\":5689:5692   */\n      0x00\n        /* \"#utility.yul\":5710:5777   */\n      tag_176\n        /* \"#utility.yul\":5774:5776   */\n      0x24\n        /* \"#utility.yul\":5769:5772   */\n      dup4\n        /* \"#utility.yul\":5710:5777   */\n      tag_105\n      jump\t// in\n    tag_176:\n        /* \"#utility.yul\":5703:5777   */\n      swap2\n      pop\n        /* \"#utility.yul\":5786:5879   */\n      tag_177\n        /* \"#utility.yul\":5875:5878   */\n      dup3\n        /* \"#utility.yul\":5786:5879   */\n      tag_106\n      jump\t// in\n    tag_177:\n        /* \"#utility.yul\":5904:5906   */\n      0x40\n        /* \"#utility.yul\":5899:5902   */\n      dup3\n        /* \"#utility.yul\":5895:5907   */\n      add\n        /* \"#utility.yul\":5888:5907   */\n      swap1\n      pop\n        /* \"#utility.yul\":5547:5913   */\n      swap2\n      swap1\n      pop\n      jump\t// out\n        /* \"#utility.yul\":5919:6338   */\n    tag_42:\n        /* \"#utility.yul\":6085:6089   */\n      0x00\n        /* \"#utility.yul\":6123:6125   */\n      0x20\n        /* \"#utility.yul\":6112:6121   */\n      dup3\n        /* \"#utility.yul\":6108:6126   */\n      add\n        /* \"#utility.yul\":6100:6126   */\n      swap1\n      pop\n        /* \"#utility.yul\":6172:6181   */\n      dup2\n        /* \"#utility.yul\":6166:6170   */\n      dup2\n        /* \"#utility.yul\":6162:6182   */\n      sub\n        /* \"#utility.yul\":6158:6159   */\n      0x00\n        /* \"#utility.yul\":6147:6156   */\n      dup4\n        /* \"#utility.yul\":6143:6160   */\n      add\n        /* \"#utility.yul\":6136:6183   */\n      mstore\n        /* \"#utility.yul\":6200:6331   */\n      tag_179\n        /* \"#utility.yul\":6326:6330   */\n      dup2\n        /* \"#utility.yul\":6200:6331   */\n      tag_107\n      jump\t// in\n    tag_179:\n        /* \"#utility.yul\":6192:6331   */\n      swap1\n      pop\n        /* \"#utility.yul\":5919:6338   */\n      swap2\n      swap1\n      pop\n      jump\t// out\n        /* \"#utility.yul\":6344:6570   */\n    tag_108:\n        /* \"#utility.yul\":6484:6518   */\n      0x57616c6c65742061646472657373206973206e6f742061206465706c6f796564\n        /* \"#utility.yul\":6480:6481   */\n      0x00\n        /* \"#utility.yul\":6472:6478   */\n      dup3\n        /* \"#utility.yul\":6468:6482   */\n      add\n        /* \"#utility.yul\":6461:6519   */\n      mstore\n        /* \"#utility.yul\":6553:6562   */\n      0x2077616c6c657400000000000000000000000000000000000000000000000000\n        /* \"#utility.yul\":6548:6550   */\n      0x20\n        /* \"#utility.yul\":6540:6546   */\n      dup3\n        /* \"#utility.yul\":6536:6551   */\n      add\n        /* \"#utility.yul\":6529:6563   */\n      mstore\n        /* \"#utility.yul\":6344:6570   */\n      pop\n      jump\t// out\n        /* \"#utility.yul\":6576:6942   */\n    tag_109:\n        /* \"#utility.yul\":6718:6721   */\n      0x00\n        /* \"#utility.yul\":6739:6806   */\n      tag_182\n        /* \"#utility.yul\":6803:6805   */\n      0x27\n        /* \"#utility.yul\":6798:6801   */\n      dup4\n        /* \"#utility.yul\":6739:6806   */\n      tag_105\n      jump\t// in\n    tag_182:\n        /* \"#utility.yul\":6732:6806   */\n      swap2\n      pop\n        /* \"#utility.yul\":6815:6908   */\n      tag_183\n        /* \"#utility.yul\":6904:6907   */\n      dup3\n        /* \"#utility.yul\":6815:6908   */\n      tag_108\n      jump\t// in\n    tag_183:\n        /* \"#utility.yul\":6933:6935   */\n      0x40\n        /* \"#utility.yul\":6928:6931   */\n      dup3\n        /* \"#utility.yul\":6924:6936   */\n      add\n        /* \"#utility.yul\":6917:6936   */\n      swap1\n      pop\n        /* \"#utility.yul\":6576:6942   */\n      swap2\n      swap1\n      pop\n      jump\t// out\n        /* \"#utility.yul\":6948:7367   */\n    tag_48:\n        /* \"#utility.yul\":7114:7118   */\n      0x00\n        /* \"#utility.yul\":7152:7154   */\n      0x20\n        /* \"#utility.yul\":7141:7150   */\n      dup3\n        /* \"#utility.yul\":7137:7155   */\n      add\n        /* \"#utility.yul\":7129:7155   */\n      swap1\n      pop\n        /* \"#utility.yul\":7201:7210   */\n      dup2\n        /* \"#utility.yul\":7195:7199   */\n      dup2\n        /* \"#utility.yul\":7191:7211   */\n      sub\n        /* \"#utility.yul\":7187:7188   */\n      0x00\n        /* \"#utility.yul\":7176:7185   */\n      dup4\n        /* \"#utility.yul\":7172:7189   */\n      add\n        /* \"#utility.yul\":7165:7212   */\n      mstore\n        /* \"#utility.yul\":7229:7360   */\n      tag_185\n        /* \"#utility.yul\":7355:7359   */\n      dup2\n        /* \"#utility.yul\":7229:7360   */\n      tag_109\n      jump\t// in\n    tag_185:\n        /* \"#utility.yul\":7221:7360   */\n      swap1\n      pop\n        /* \"#utility.yul\":6948:7367   */\n      swap2\n      swap1\n      pop\n      jump\t// out\n        /* \"#utility.yul\":7373:7705   */\n    tag_60:\n        /* \"#utility.yul\":7494:7498   */\n      0x00\n        /* \"#utility.yul\":7532:7534   */\n      0x40\n        /* \"#utility.yul\":7521:7530   */\n      dup3\n        /* \"#utility.yul\":7517:7535   */\n      add\n        /* \"#utility.yul\":7509:7535   */\n      swap1\n      pop\n        /* \"#utility.yul\":7545:7616   */\n      tag_187\n        /* \"#utility.yul\":7613:7614   */\n      0x00\n        /* \"#utility.yul\":7602:7611   */\n      dup4\n        /* \"#utility.yul\":7598:7615   */\n      add\n        /* \"#utility.yul\":7589:7595   */\n      dup6\n        /* \"#utility.yul\":7545:7616   */\n      tag_86\n      jump\t// in\n    tag_187:\n        /* \"#utility.yul\":7626:7698   */\n      tag_188\n        /* \"#utility.yul\":7694:7696   */\n      0x20\n        /* \"#utility.yul\":7683:7692   */\n      dup4\n        /* \"#utility.yul\":7679:7697   */\n      add\n        /* \"#utility.yul\":7670:7676   */\n      dup5\n        /* \"#utility.yul\":7626:7698   */\n      tag_86\n      jump\t// in\n    tag_188:\n        /* \"#utility.yul\":7373:7705   */\n      swap4\n      swap3\n      pop\n      pop\n      pop\n      jump\t// out\n        /* \"#utility.yul\":7711:7944   */\n    tag_110:\n        /* \"#utility.yul\":7851:7885   */\n      0x4e657720677265656e20746f6b656e20616464726573732063616e6e6f742062\n        /* \"#utility.yul\":7847:7848   */\n      0x00\n        /* \"#utility.yul\":7839:7845   */\n      dup3\n        /* \"#utility.yul\":7835:7849   */\n      add\n        /* \"#utility.yul\":7828:7886   */\n      mstore\n        /* \"#utility.yul\":7920:7936   */\n      0x65207a65726f2061646472657373000000000000000000000000000000000000\n        /* \"#utility.yul\":7915:7917   */\n      0x20\n        /* \"#utility.yul\":7907:7913   */\n      dup3\n        /* \"#utility.yul\":7903:7918   */\n      add\n        /* \"#utility.yul\":7896:7937   */\n      mstore\n        /* \"#utility.yul\":7711:7944   */\n      pop\n      jump\t// out\n        /* \"#utility.yul\":7950:8316   */\n    tag_111:\n        /* \"#utility.yul\":8092:8095   */\n      0x00\n        /* \"#utility.yul\":8113:8180   */\n      tag_191\n        /* \"#utility.yul\":8177:8179   */\n      0x2e\n        /* \"#utility.yul\":8172:8175   */\n      dup4\n        /* \"#utility.yul\":8113:8180   */\n      tag_105\n      jump\t// in\n    tag_191:\n        /* \"#utility.yul\":8106:8180   */\n      swap2\n      pop\n        /* \"#utility.yul\":8189:8282   */\n      tag_192\n        /* \"#utility.yul\":8278:8281   */\n      dup3\n        /* \"#utility.yul\":8189:8282   */\n      tag_110\n      jump\t// in\n    tag_192:\n        /* \"#utility.yul\":8307:8309   */\n      0x40\n        /* \"#utility.yul\":8302:8305   */\n      dup3\n        /* \"#utility.yul\":8298:8310   */\n      add\n        /* \"#utility.yul\":8291:8310   */\n      swap1\n      pop\n        /* \"#utility.yul\":7950:8316   */\n      swap2\n      swap1\n      pop\n      jump\t// out\n        /* \"#utility.yul\":8322:8741   */\n    tag_71:\n        /* \"#utility.yul\":8488:8492   */\n      0x00\n        /* \"#utility.yul\":8526:8528   */\n      0x20\n        /* \"#utility.yul\":8515:8524   */\n      dup3\n        /* \"#utility.yul\":8511:8529   */\n      add\n        /* \"#utility.yul\":8503:8529   */\n      swap1\n      pop\n        /* \"#utility.yul\":8575:8584   */\n      dup2\n        /* \"#utility.yul\":8569:8573   */\n      dup2\n        /* \"#utility.yul\":8565:8585   */\n      sub\n        /* \"#utility.yul\":8561:8562   */\n      0x00\n        /* \"#utility.yul\":8550:8559   */\n      dup4\n        /* \"#utility.yul\":8546:8563   */\n      add\n        /* \"#utility.yul\":8539:8586   */\n      mstore\n        /* \"#utility.yul\":8603:8734   */\n      tag_194\n        /* \"#utility.yul\":8729:8733   */\n      dup2\n        /* \"#utility.yul\":8603:8734   */\n      tag_111\n      jump\t// in\n    tag_194:\n        /* \"#utility.yul\":8595:8734   */\n      swap1\n      pop\n        /* \"#utility.yul\":8322:8741   */\n      swap2\n      swap1\n      pop\n      jump\t// out\n        /* \"#utility.yul\":8747:8927   */\n    tag_81:\n        /* \"#utility.yul\":8795:8872   */\n      0x4e487b7100000000000000000000000000000000000000000000000000000000\n        /* \"#utility.yul\":8792:8793   */\n      0x00\n        /* \"#utility.yul\":8785:8873   */\n      mstore\n        /* \"#utility.yul\":8892:8896   */\n      0x32\n        /* \"#utility.yul\":8889:8890   */\n      0x04\n        /* \"#utility.yul\":8882:8897   */\n      mstore\n        /* \"#utility.yul\":8916:8920   */\n      0x24\n        /* \"#utility.yul\":8913:8914   */\n      0x00\n        /* \"#utility.yul\":8906:8921   */\n      revert\n    stop\n\n    sub_0: assembly {\n            /* \"ETHBangkok/SmartWallet/SmartWallet.sol\":188:1623  contract SmartWallet {... */\n          mstore(0x40, 0x80)\n            /* \"ETHBangkok/SmartWallet/SmartWallet.sol\":720:905  constructor(address _initialOwner, address _greenTokenAddress) {... */\n          callvalue\n          dup1\n          iszero\n          tag_1\n          jumpi\n          0x00\n          dup1\n          revert\n        tag_1:\n          pop\n          mload(0x40)\n          sub(codesize, bytecodeSize)\n          dup1\n          bytecodeSize\n          dup4\n          codecopy\n          dup2\n          dup2\n          add\n          0x40\n          mstore\n          dup2\n          add\n          swap1\n          tag_2\n          swap2\n          swap1\n          tag_3\n          jump\t// in\n        tag_2:\n            /* \"ETHBangkok/SmartWallet/SmartWallet.sol\":802:815  _initialOwner */\n          dup2\n            /* \"ETHBangkok/SmartWallet/SmartWallet.sol\":794:799  owner */\n          0x00\n          dup1\n            /* \"ETHBangkok/SmartWallet/SmartWallet.sol\":794:815  owner = _initialOwner */\n          0x0100\n          exp\n          dup2\n          sload\n          dup2\n          0xffffffffffffffffffffffffffffffffffffffff\n          mul\n          not\n          and\n          swap1\n          dup4\n          0xffffffffffffffffffffffffffffffffffffffff\n          and\n          mul\n          or\n          swap1\n          sstore\n          pop\n            /* \"ETHBangkok/SmartWallet/SmartWallet.sol\":837:847  msg.sender */\n          caller\n            /* \"ETHBangkok/SmartWallet/SmartWallet.sol\":826:834  deployer */\n          0x01\n          0x00\n            /* \"ETHBangkok/SmartWallet/SmartWallet.sol\":826:847  deployer = msg.sender */\n          0x0100\n          exp\n          dup2\n          sload\n          dup2\n          0xffffffffffffffffffffffffffffffffffffffff\n          mul\n          not\n          and\n          swap1\n          dup4\n          0xffffffffffffffffffffffffffffffffffffffff\n          and\n          mul\n          or\n          swap1\n          sstore\n          pop\n            /* \"ETHBangkok/SmartWallet/SmartWallet.sol\":878:896  _greenTokenAddress */\n          dup1\n            /* \"ETHBangkok/SmartWallet/SmartWallet.sol\":858:868  greenToken */\n          0x02\n          0x00\n            /* \"ETHBangkok/SmartWallet/SmartWallet.sol\":858:897  greenToken = IERC20(_greenTokenAddress) */\n          0x0100\n          exp\n          dup2\n          sload\n          dup2\n          0xffffffffffffffffffffffffffffffffffffffff\n          mul\n          not\n          and\n          swap1\n          dup4\n          0xffffffffffffffffffffffffffffffffffffffff\n          and\n          mul\n          or\n          swap1\n          sstore\n          pop\n            /* \"ETHBangkok/SmartWallet/SmartWallet.sol\":720:905  constructor(address _initialOwner, address _greenTokenAddress) {... */\n          pop\n          pop\n            /* \"ETHBangkok/SmartWallet/SmartWallet.sol\":188:1623  contract SmartWallet {... */\n          jump(tag_6)\n            /* \"#utility.yul\":88:205   */\n        tag_8:\n            /* \"#utility.yul\":197:198   */\n          0x00\n            /* \"#utility.yul\":194:195   */\n          dup1\n            /* \"#utility.yul\":187:199   */\n          revert\n            /* \"#utility.yul\":334:460   */\n        tag_10:\n            /* \"#utility.yul\":371:378   */\n          0x00\n            /* \"#utility.yul\":411:453   */\n          0xffffffffffffffffffffffffffffffffffffffff\n            /* \"#utility.yul\":404:409   */\n          dup3\n            /* \"#utility.yul\":400:454   */\n          and\n            /* \"#utility.yul\":389:454   */\n          swap1\n          pop\n            /* \"#utility.yul\":334:460   */\n          swap2\n          swap1\n          pop\n          jump\t// out\n            /* \"#utility.yul\":466:562   */\n        tag_11:\n            /* \"#utility.yul\":503:510   */\n          0x00\n            /* \"#utility.yul\":532:556   */\n          tag_20\n            /* \"#utility.yul\":550:555   */\n          dup3\n            /* \"#utility.yul\":532:556   */\n          tag_10\n          jump\t// in\n        tag_20:\n            /* \"#utility.yul\":521:556   */\n          swap1\n          pop\n            /* \"#utility.yul\":466:562   */\n          swap2\n          swap1\n          pop\n          jump\t// out\n            /* \"#utility.yul\":568:690   */\n        tag_12:\n            /* \"#utility.yul\":641:665   */\n          tag_22\n            /* \"#utility.yul\":659:664   */\n          dup2\n            /* \"#utility.yul\":641:665   */\n          tag_11\n          jump\t// in\n        tag_22:\n            /* \"#utility.yul\":634:639   */\n          dup2\n            /* \"#utility.yul\":631:666   */\n          eq\n            /* \"#utility.yul\":621:684   */\n          tag_23\n          jumpi\n            /* \"#utility.yul\":680:681   */\n          0x00\n            /* \"#utility.yul\":677:678   */\n          dup1\n            /* \"#utility.yul\":670:682   */\n          revert\n            /* \"#utility.yul\":621:684   */\n        tag_23:\n            /* \"#utility.yul\":568:690   */\n          pop\n          jump\t// out\n            /* \"#utility.yul\":696:839   */\n        tag_13:\n            /* \"#utility.yul\":753:758   */\n          0x00\n            /* \"#utility.yul\":784:790   */\n          dup2\n            /* \"#utility.yul\":778:791   */\n          mload\n            /* \"#utility.yul\":769:791   */\n          swap1\n          pop\n            /* \"#utility.yul\":800:833   */\n          tag_25\n            /* \"#utility.yul\":827:832   */\n          dup2\n            /* \"#utility.yul\":800:833   */\n          tag_12\n          jump\t// in\n        tag_25:\n            /* \"#utility.yul\":696:839   */\n          swap3\n          swap2\n          pop\n          pop\n          jump\t// out\n            /* \"#utility.yul\":845:1352   */\n        tag_3:\n            /* \"#utility.yul\":924:930   */\n          0x00\n            /* \"#utility.yul\":932:938   */\n          dup1\n            /* \"#utility.yul\":981:983   */\n          0x40\n            /* \"#utility.yul\":969:978   */\n          dup4\n            /* \"#utility.yul\":960:967   */\n          dup6\n            /* \"#utility.yul\":956:979   */\n          sub\n            /* \"#utility.yul\":952:984   */\n          slt\n            /* \"#utility.yul\":949:1068   */\n          iszero\n          tag_27\n          jumpi\n            /* \"#utility.yul\":987:1066   */\n          tag_28\n          tag_8\n          jump\t// in\n        tag_28:\n            /* \"#utility.yul\":949:1068   */\n        tag_27:\n            /* \"#utility.yul\":1107:1108   */\n          0x00\n            /* \"#utility.yul\":1132:1196   */\n          tag_29\n            /* \"#utility.yul\":1188:1195   */\n          dup6\n            /* \"#utility.yul\":1179:1185   */\n          dup3\n            /* \"#utility.yul\":1168:1177   */\n          dup7\n            /* \"#utility.yul\":1164:1186   */\n          add\n            /* \"#utility.yul\":1132:1196   */\n          tag_13\n          jump\t// in\n        tag_29:\n            /* \"#utility.yul\":1122:1196   */\n          swap3\n          pop\n            /* \"#utility.yul\":1078:1206   */\n          pop\n            /* \"#utility.yul\":1245:1247   */\n          0x20\n            /* \"#utility.yul\":1271:1335   */\n          tag_30\n            /* \"#utility.yul\":1327:1334   */\n          dup6\n            /* \"#utility.yul\":1318:1324   */\n          dup3\n            /* \"#utility.yul\":1307:1316   */\n          dup7\n            /* \"#utility.yul\":1303:1325   */\n          add\n            /* \"#utility.yul\":1271:1335   */\n          tag_13\n          jump\t// in\n        tag_30:\n            /* \"#utility.yul\":1261:1335   */\n          swap2\n          pop\n            /* \"#utility.yul\":1216:1345   */\n          pop\n            /* \"#utility.yul\":845:1352   */\n          swap3\n          pop\n          swap3\n          swap1\n          pop\n          jump\t// out\n            /* \"ETHBangkok/SmartWallet/SmartWallet.sol\":188:1623  contract SmartWallet {... */\n        tag_6:\n          dataSize(sub_0)\n          dup1\n          dataOffset(sub_0)\n          0x00\n          codecopy\n          0x00\n          return\n        stop\n\n        sub_0: assembly {\n                /* \"ETHBangkok/SmartWallet/SmartWallet.sol\":188:1623  contract SmartWallet {... */\n              mstore(0x40, 0x80)\n              jumpi(tag_1, lt(calldatasize, 0x04))\n              shr(0xe0, calldataload(0x00))\n              dup1\n              0x02b32af5\n              eq\n              tag_3\n              jumpi\n              dup1\n              0x880cdc31\n              eq\n              tag_4\n              jumpi\n              dup1\n              0x8da5cb5b\n              eq\n              tag_5\n              jumpi\n              dup1\n              0x99e9c1dd\n              eq\n              tag_6\n              jumpi\n              dup1\n              0xd5f39488\n              eq\n              tag_7\n              jumpi\n              dup1\n              0xea017105\n              eq\n              tag_8\n              jumpi\n              jump(tag_2)\n            tag_1:\n              jumpi(tag_2, calldatasize)\n              stop\n            tag_2:\n              stop\n                /* \"ETHBangkok/SmartWallet/SmartWallet.sol\":308:332  IERC20 public greenToken */\n            tag_3:\n              callvalue\n              dup1\n              iszero\n              tag_13\n              jumpi\n              0x00\n              dup1\n              revert\n            tag_13:\n              pop\n              tag_14\n              tag_15\n              jump\t// in\n            tag_14:\n              mload(0x40)\n              tag_16\n              swap2\n              swap1\n              tag_17\n              jump\t// in\n            tag_16:\n              mload(0x40)\n              dup1\n              swap2\n              sub\n              swap1\n              return\n                /* \"ETHBangkok/SmartWallet/SmartWallet.sol\":913:1129  function updateOwner(address newOwner) external onlyDeployer {... */\n            tag_4:\n              callvalue\n              dup1\n              iszero\n              tag_18\n              jumpi\n              0x00\n              dup1\n              revert\n            tag_18:\n              pop\n              tag_19\n              0x04\n              dup1\n              calldatasize\n              sub\n              dup2\n              add\n              swap1\n              tag_20\n              swap2\n              swap1\n              tag_21\n              jump\t// in\n            tag_20:\n              tag_22\n              jump\t// in\n            tag_19:\n              stop\n                /* \"ETHBangkok/SmartWallet/SmartWallet.sol\":251:271  address public owner */\n            tag_5:\n              callvalue\n              dup1\n              iszero\n              tag_23\n              jumpi\n              0x00\n              dup1\n              revert\n            tag_23:\n              pop\n              tag_24\n              tag_25\n              jump\t// in\n            tag_24:\n              mload(0x40)\n              tag_26\n              swap2\n              swap1\n              tag_27\n              jump\t// in\n            tag_26:\n              mload(0x40)\n              dup1\n              swap2\n              sub\n              swap1\n              return\n                /* \"ETHBangkok/SmartWallet/SmartWallet.sol\":1420:1545  function getGreenTokenBalance() external view returns (uint256) {... */\n            tag_6:\n              callvalue\n              dup1\n              iszero\n              tag_28\n              jumpi\n              0x00\n              dup1\n              revert\n            tag_28:\n              pop\n              tag_29\n              tag_30\n              jump\t// in\n            tag_29:\n              mload(0x40)\n              tag_31\n              swap2\n              swap1\n              tag_32\n              jump\t// in\n            tag_31:\n              mload(0x40)\n              dup1\n              swap2\n              sub\n              swap1\n              return\n                /* \"ETHBangkok/SmartWallet/SmartWallet.sol\":278:301  address public deployer */\n            tag_7:\n              callvalue\n              dup1\n              iszero\n              tag_33\n              jumpi\n              0x00\n              dup1\n              revert\n            tag_33:\n              pop\n              tag_34\n              tag_35\n              jump\t// in\n            tag_34:\n              mload(0x40)\n              tag_36\n              swap2\n              swap1\n              tag_27\n              jump\t// in\n            tag_36:\n              mload(0x40)\n              dup1\n              swap2\n              sub\n              swap1\n              return\n                /* \"ETHBangkok/SmartWallet/SmartWallet.sol\":1137:1412  function verifyAndWithdraw() external onlyOwner {... */\n            tag_8:\n              callvalue\n              dup1\n              iszero\n              tag_37\n              jumpi\n              0x00\n              dup1\n              revert\n            tag_37:\n              pop\n              tag_38\n              tag_39\n              jump\t// in\n            tag_38:\n              stop\n                /* \"ETHBangkok/SmartWallet/SmartWallet.sol\":308:332  IERC20 public greenToken */\n            tag_15:\n              0x02\n              0x00\n              swap1\n              sload\n              swap1\n              0x0100\n              exp\n              swap1\n              div\n              0xffffffffffffffffffffffffffffffffffffffff\n              and\n              dup2\n              jump\t// out\n                /* \"ETHBangkok/SmartWallet/SmartWallet.sol\":913:1129  function updateOwner(address newOwner) external onlyDeployer {... */\n            tag_22:\n                /* \"ETHBangkok/SmartWallet/SmartWallet.sol\":518:526  deployer */\n              0x01\n              0x00\n              swap1\n              sload\n              swap1\n              0x0100\n              exp\n              swap1\n              div\n              0xffffffffffffffffffffffffffffffffffffffff\n              and\n                /* \"ETHBangkok/SmartWallet/SmartWallet.sol\":504:526  msg.sender == deployer */\n              0xffffffffffffffffffffffffffffffffffffffff\n              and\n                /* \"ETHBangkok/SmartWallet/SmartWallet.sol\":504:514  msg.sender */\n              caller\n                /* \"ETHBangkok/SmartWallet/SmartWallet.sol\":504:526  msg.sender == deployer */\n              0xffffffffffffffffffffffffffffffffffffffff\n              and\n              eq\n                /* \"ETHBangkok/SmartWallet/SmartWallet.sol\":496:567  require(msg.sender == deployer, \"Only deployer can call this function\") */\n              tag_41\n              jumpi\n              mload(0x40)\n              0x08c379a000000000000000000000000000000000000000000000000000000000\n              dup2\n              mstore\n              0x04\n              add\n              tag_42\n              swap1\n              tag_43\n              jump\t// in\n            tag_42:\n              mload(0x40)\n              dup1\n              swap2\n              sub\n              swap1\n              revert\n            tag_41:\n                /* \"ETHBangkok/SmartWallet/SmartWallet.sol\":1013:1014  0 */\n              0x00\n                /* \"ETHBangkok/SmartWallet/SmartWallet.sol\":993:1015  newOwner != address(0) */\n              0xffffffffffffffffffffffffffffffffffffffff\n              and\n                /* \"ETHBangkok/SmartWallet/SmartWallet.sol\":993:1001  newOwner */\n              dup2\n                /* \"ETHBangkok/SmartWallet/SmartWallet.sol\":993:1015  newOwner != address(0) */\n              0xffffffffffffffffffffffffffffffffffffffff\n              and\n              sub\n                /* \"ETHBangkok/SmartWallet/SmartWallet.sol\":985:1056  require(newOwner != address(0), \"New owner cannot be the zero address\") */\n              tag_45\n              jumpi\n              mload(0x40)\n              0x08c379a000000000000000000000000000000000000000000000000000000000\n              dup2\n              mstore\n              0x04\n              add\n              tag_46\n              swap1\n              tag_47\n              jump\t// in\n            tag_46:\n              mload(0x40)\n              dup1\n              swap2\n              sub\n              swap1\n              revert\n            tag_45:\n                /* \"ETHBangkok/SmartWallet/SmartWallet.sol\":1075:1083  newOwner */\n              dup1\n                /* \"ETHBangkok/SmartWallet/SmartWallet.sol\":1067:1072  owner */\n              0x00\n              dup1\n                /* \"ETHBangkok/SmartWallet/SmartWallet.sol\":1067:1083  owner = newOwner */\n              0x0100\n              exp\n              dup2\n              sload\n              dup2\n              0xffffffffffffffffffffffffffffffffffffffff\n              mul\n              not\n              and\n              swap1\n              dup4\n              0xffffffffffffffffffffffffffffffffffffffff\n              and\n              mul\n              or\n              swap1\n              sstore\n              pop\n                /* \"ETHBangkok/SmartWallet/SmartWallet.sol\":1112:1120  newOwner */\n              dup1\n                /* \"ETHBangkok/SmartWallet/SmartWallet.sol\":1099:1121  OwnerUpdated(newOwner) */\n              0xffffffffffffffffffffffffffffffffffffffff\n              and\n              0x4ffd725fc4a22075e9ec71c59edf9c38cdeb588a91b24fc5b61388c5be41282b\n              mload(0x40)\n              mload(0x40)\n              dup1\n              swap2\n              sub\n              swap1\n              log2\n                /* \"ETHBangkok/SmartWallet/SmartWallet.sol\":913:1129  function updateOwner(address newOwner) external onlyDeployer {... */\n              pop\n              jump\t// out\n                /* \"ETHBangkok/SmartWallet/SmartWallet.sol\":251:271  address public owner */\n            tag_25:\n              0x00\n              dup1\n              sload\n              swap1\n              0x0100\n              exp\n              swap1\n              div\n              0xffffffffffffffffffffffffffffffffffffffff\n              and\n              dup2\n              jump\t// out\n                /* \"ETHBangkok/SmartWallet/SmartWallet.sol\":1420:1545  function getGreenTokenBalance() external view returns (uint256) {... */\n            tag_30:\n                /* \"ETHBangkok/SmartWallet/SmartWallet.sol\":1475:1482  uint256 */\n              0x00\n                /* \"ETHBangkok/SmartWallet/SmartWallet.sol\":1502:1512  greenToken */\n              0x02\n              0x00\n              swap1\n              sload\n              swap1\n              0x0100\n              exp\n              swap1\n              div\n              0xffffffffffffffffffffffffffffffffffffffff\n              and\n                /* \"ETHBangkok/SmartWallet/SmartWallet.sol\":1502:1522  greenToken.balanceOf */\n              0xffffffffffffffffffffffffffffffffffffffff\n              and\n              0x70a08231\n                /* \"ETHBangkok/SmartWallet/SmartWallet.sol\":1531:1535  this */\n              address\n                /* \"ETHBangkok/SmartWallet/SmartWallet.sol\":1502:1537  greenToken.balanceOf(address(this)) */\n              mload(0x40)\n              dup3\n              0xffffffff\n              and\n              0xe0\n              shl\n              dup2\n              mstore\n              0x04\n              add\n              tag_49\n              swap2\n              swap1\n              tag_27\n              jump\t// in\n            tag_49:\n              0x20\n              mload(0x40)\n              dup1\n              dup4\n              sub\n              dup2\n              dup7\n              gas\n              staticcall\n              iszero\n              dup1\n              iszero\n              tag_51\n              jumpi\n              returndatasize\n              0x00\n              dup1\n              returndatacopy\n              revert(0x00, returndatasize)\n            tag_51:\n              pop\n              pop\n              pop\n              pop\n              mload(0x40)\n              returndatasize\n              not(0x1f)\n              0x1f\n              dup3\n              add\n              and\n              dup3\n              add\n              dup1\n              0x40\n              mstore\n              pop\n              dup2\n              add\n              swap1\n              tag_52\n              swap2\n              swap1\n              tag_53\n              jump\t// in\n            tag_52:\n                /* \"ETHBangkok/SmartWallet/SmartWallet.sol\":1495:1537  return greenToken.balanceOf(address(this)) */\n              swap1\n              pop\n                /* \"ETHBangkok/SmartWallet/SmartWallet.sol\":1420:1545  function getGreenTokenBalance() external view returns (uint256) {... */\n              swap1\n              jump\t// out\n                /* \"ETHBangkok/SmartWallet/SmartWallet.sol\":278:301  address public deployer */\n            tag_35:\n              0x01\n              0x00\n              swap1\n              sload\n              swap1\n              0x0100\n              exp\n              swap1\n              div\n              0xffffffffffffffffffffffffffffffffffffffff\n              and\n              dup2\n              jump\t// out\n                /* \"ETHBangkok/SmartWallet/SmartWallet.sol\":1137:1412  function verifyAndWithdraw() external onlyOwner {... */\n            tag_39:\n                /* \"ETHBangkok/SmartWallet/SmartWallet.sol\":649:654  owner */\n              0x00\n              dup1\n              sload\n              swap1\n              0x0100\n              exp\n              swap1\n              div\n              0xffffffffffffffffffffffffffffffffffffffff\n              and\n                /* \"ETHBangkok/SmartWallet/SmartWallet.sol\":635:654  msg.sender == owner */\n              0xffffffffffffffffffffffffffffffffffffffff\n              and\n                /* \"ETHBangkok/SmartWallet/SmartWallet.sol\":635:645  msg.sender */\n              caller\n                /* \"ETHBangkok/SmartWallet/SmartWallet.sol\":635:654  msg.sender == owner */\n              0xffffffffffffffffffffffffffffffffffffffff\n              and\n              eq\n                /* \"ETHBangkok/SmartWallet/SmartWallet.sol\":627:692  require(msg.sender == owner, \"Only owner can call this function\") */\n              tag_55\n              jumpi\n              mload(0x40)\n              0x08c379a000000000000000000000000000000000000000000000000000000000\n              dup2\n              mstore\n              0x04\n              add\n              tag_56\n              swap1\n              tag_57\n              jump\t// in\n            tag_56:\n              mload(0x40)\n              dup1\n              swap2\n              sub\n              swap1\n              revert\n            tag_55:\n                /* \"ETHBangkok/SmartWallet/SmartWallet.sol\":1196:1211  uint256 balance */\n              0x00\n                /* \"ETHBangkok/SmartWallet/SmartWallet.sol\":1214:1224  greenToken */\n              0x02\n              0x00\n              swap1\n              sload\n              swap1\n              0x0100\n              exp\n              swap1\n              div\n              0xffffffffffffffffffffffffffffffffffffffff\n              and\n                /* \"ETHBangkok/SmartWallet/SmartWallet.sol\":1214:1234  greenToken.balanceOf */\n              0xffffffffffffffffffffffffffffffffffffffff\n              and\n              0x70a08231\n                /* \"ETHBangkok/SmartWallet/SmartWallet.sol\":1243:1247  this */\n              address\n                /* \"ETHBangkok/SmartWallet/SmartWallet.sol\":1214:1249  greenToken.balanceOf(address(this)) */\n              mload(0x40)\n              dup3\n              0xffffffff\n              and\n              0xe0\n              shl\n              dup2\n              mstore\n              0x04\n              add\n              tag_59\n              swap2\n              swap1\n              tag_27\n              jump\t// in\n            tag_59:\n              0x20\n              mload(0x40)\n              dup1\n              dup4\n              sub\n              dup2\n              dup7\n              gas\n              staticcall\n              iszero\n              dup1\n              iszero\n              tag_61\n              jumpi\n              returndatasize\n              0x00\n              dup1\n              returndatacopy\n              revert(0x00, returndatasize)\n            tag_61:\n              pop\n              pop\n              pop\n              pop\n              mload(0x40)\n              returndatasize\n              not(0x1f)\n              0x1f\n              dup3\n              add\n              and\n              dup3\n              add\n              dup1\n              0x40\n              mstore\n              pop\n              dup2\n              add\n              swap1\n              tag_62\n              swap2\n              swap1\n              tag_53\n              jump\t// in\n            tag_62:\n                /* \"ETHBangkok/SmartWallet/SmartWallet.sol\":1196:1249  uint256 balance = greenToken.balanceOf(address(this)) */\n              swap1\n              pop\n                /* \"ETHBangkok/SmartWallet/SmartWallet.sol\":1278:1279  0 */\n              0x00\n                /* \"ETHBangkok/SmartWallet/SmartWallet.sol\":1268:1275  balance */\n              dup2\n                /* \"ETHBangkok/SmartWallet/SmartWallet.sol\":1268:1279  balance > 0 */\n              gt\n                /* \"ETHBangkok/SmartWallet/SmartWallet.sol\":1260:1305  require(balance > 0, \"No tokens to withdraw\") */\n              tag_63\n              jumpi\n              mload(0x40)\n              0x08c379a000000000000000000000000000000000000000000000000000000000\n              dup2\n              mstore\n              0x04\n              add\n              tag_64\n              swap1\n              tag_65\n              jump\t// in\n            tag_64:\n              mload(0x40)\n              dup1\n              swap2\n              sub\n              swap1\n              revert\n            tag_63:\n                /* \"ETHBangkok/SmartWallet/SmartWallet.sol\":1318:1357  greenToken.safeTransfer(owner, balance) */\n              tag_66\n                /* \"ETHBangkok/SmartWallet/SmartWallet.sol\":1342:1347  owner */\n              0x00\n              dup1\n              sload\n              swap1\n              0x0100\n              exp\n              swap1\n              div\n              0xffffffffffffffffffffffffffffffffffffffff\n              and\n                /* \"ETHBangkok/SmartWallet/SmartWallet.sol\":1349:1356  balance */\n              dup3\n                /* \"ETHBangkok/SmartWallet/SmartWallet.sol\":1318:1328  greenToken */\n              0x02\n              0x00\n              swap1\n              sload\n              swap1\n              0x0100\n              exp\n              swap1\n              div\n              0xffffffffffffffffffffffffffffffffffffffff\n              and\n                /* \"ETHBangkok/SmartWallet/SmartWallet.sol\":1318:1341  greenToken.safeTransfer */\n              0xffffffffffffffffffffffffffffffffffffffff\n              and\n              tag_67\n              swap1\n                /* \"ETHBangkok/SmartWallet/SmartWallet.sol\":1318:1357  greenToken.safeTransfer(owner, balance) */\n              swap3\n              swap2\n              swap1\n              0xffffffff\n              and\n              jump\t// in\n            tag_66:\n                /* \"ETHBangkok/SmartWallet/SmartWallet.sol\":1389:1394  owner */\n              0x00\n              dup1\n              sload\n              swap1\n              0x0100\n              exp\n              swap1\n              div\n              0xffffffffffffffffffffffffffffffffffffffff\n              and\n                /* \"ETHBangkok/SmartWallet/SmartWallet.sol\":1373:1404  TokensWithdrawn(owner, balance) */\n              0xffffffffffffffffffffffffffffffffffffffff\n              and\n              0x6352c5382c4a4578e712449ca65e83cdb392d045dfcf1cad9615189db2da244b\n                /* \"ETHBangkok/SmartWallet/SmartWallet.sol\":1396:1403  balance */\n              dup3\n                /* \"ETHBangkok/SmartWallet/SmartWallet.sol\":1373:1404  TokensWithdrawn(owner, balance) */\n              mload(0x40)\n              tag_68\n              swap2\n              swap1\n              tag_32\n              jump\t// in\n            tag_68:\n              mload(0x40)\n              dup1\n              swap2\n              sub\n              swap1\n              log2\n                /* \"ETHBangkok/SmartWallet/SmartWallet.sol\":1185:1412  {... */\n              pop\n                /* \"ETHBangkok/SmartWallet/SmartWallet.sol\":1137:1412  function verifyAndWithdraw() external onlyOwner {... */\n              jump\t// out\n                /* \"@openzeppelin/contracts/token/ERC20/utils/SafeERC20.sol\":1271:1431  function safeTransfer(IERC20 token, address to, uint256 value) internal {... */\n            tag_67:\n                /* \"@openzeppelin/contracts/token/ERC20/utils/SafeERC20.sol\":1353:1424  _callOptionalReturn(token, abi.encodeCall(token.transfer, (to, value))) */\n              tag_70\n                /* \"@openzeppelin/contracts/token/ERC20/utils/SafeERC20.sol\":1373:1378  token */\n              dup4\n                /* \"@openzeppelin/contracts/token/ERC20/utils/SafeERC20.sol\":1395:1400  token */\n              dup5\n                /* \"@openzeppelin/contracts/token/ERC20/utils/SafeERC20.sol\":1395:1409  token.transfer */\n              0xffffffffffffffffffffffffffffffffffffffff\n              and\n              0xa9059cbb\n                /* \"@openzeppelin/contracts/token/ERC20/utils/SafeERC20.sol\":1412:1414  to */\n              dup6\n                /* \"@openzeppelin/contracts/token/ERC20/utils/SafeERC20.sol\":1416:1421  value */\n              dup6\n                /* \"@openzeppelin/contracts/token/ERC20/utils/SafeERC20.sol\":1380:1423  abi.encodeCall(token.transfer, (to, value)) */\n              add(0x24, mload(0x40))\n              tag_71\n              swap3\n              swap2\n              swap1\n              tag_72\n              jump\t// in\n            tag_71:\n              mload(0x40)\n              0x20\n              dup2\n              dup4\n              sub\n              sub\n              dup2\n              mstore\n              swap1\n              0x40\n              mstore\n              swap2\n              pop\n              0xe0\n              shl\n              0x20\n              dup3\n              add\n              dup1\n              mload\n              0xffffffffffffffffffffffffffffffffffffffffffffffffffffffff\n              dup4\n              dup2\n              dup4\n              and\n              or\n              dup4\n              mstore\n              pop\n              pop\n              pop\n              pop\n                /* \"@openzeppelin/contracts/token/ERC20/utils/SafeERC20.sol\":1353:1372  _callOptionalReturn */\n              tag_73\n                /* \"@openzeppelin/contracts/token/ERC20/utils/SafeERC20.sol\":1353:1424  _callOptionalReturn(token, abi.encodeCall(token.transfer, (to, value))) */\n              jump\t// in\n            tag_70:\n                /* \"@openzeppelin/contracts/token/ERC20/utils/SafeERC20.sol\":1271:1431  function safeTransfer(IERC20 token, address to, uint256 value) internal {... */\n              pop\n              pop\n              pop\n              jump\t// out\n                /* \"@openzeppelin/contracts/token/ERC20/utils/SafeERC20.sol\":7738:8458  function _callOptionalReturn(IERC20 token, bytes memory data) private {... */\n            tag_73:\n                /* \"@openzeppelin/contracts/token/ERC20/utils/SafeERC20.sol\":7818:7836  uint256 returnSize */\n              0x00\n                /* \"@openzeppelin/contracts/token/ERC20/utils/SafeERC20.sol\":7846:7865  uint256 returnValue */\n              dup1\n                /* \"@openzeppelin/contracts/token/ERC20/utils/SafeERC20.sol\":7984:7988  0x20 */\n              0x20\n                /* \"@openzeppelin/contracts/token/ERC20/utils/SafeERC20.sol\":7981:7982  0 */\n              0x00\n                /* \"@openzeppelin/contracts/token/ERC20/utils/SafeERC20.sol\":7974:7978  data */\n              dup5\n                /* \"@openzeppelin/contracts/token/ERC20/utils/SafeERC20.sol\":7968:7979  mload(data) */\n              mload\n                /* \"@openzeppelin/contracts/token/ERC20/utils/SafeERC20.sol\":7961:7965  0x20 */\n              0x20\n                /* \"@openzeppelin/contracts/token/ERC20/utils/SafeERC20.sol\":7955:7959  data */\n              dup7\n                /* \"@openzeppelin/contracts/token/ERC20/utils/SafeERC20.sol\":7951:7966  add(data, 0x20) */\n              add\n                /* \"@openzeppelin/contracts/token/ERC20/utils/SafeERC20.sol\":7948:7949  0 */\n              0x00\n                /* \"@openzeppelin/contracts/token/ERC20/utils/SafeERC20.sol\":7941:7946  token */\n              dup9\n                /* \"@openzeppelin/contracts/token/ERC20/utils/SafeERC20.sol\":7934:7939  gas() */\n              gas\n                /* \"@openzeppelin/contracts/token/ERC20/utils/SafeERC20.sol\":7929:7989  call(gas(), token, 0, add(data, 0x20), mload(data), 0, 0x20) */\n              call\n                /* \"@openzeppelin/contracts/token/ERC20/utils/SafeERC20.sol\":8041:8048  success */\n              dup1\n                /* \"@openzeppelin/contracts/token/ERC20/utils/SafeERC20.sol\":8031:8207  if iszero(success) {... */\n              tag_75\n              jumpi\n                /* \"@openzeppelin/contracts/token/ERC20/utils/SafeERC20.sol\":8085:8089  0x40 */\n              0x40\n                /* \"@openzeppelin/contracts/token/ERC20/utils/SafeERC20.sol\":8079:8090  mload(0x40) */\n              mload\n                /* \"@openzeppelin/contracts/token/ERC20/utils/SafeERC20.sol\":8130:8146  returndatasize() */\n              returndatasize\n                /* \"@openzeppelin/contracts/token/ERC20/utils/SafeERC20.sol\":8127:8128  0 */\n              0x00\n                /* \"@openzeppelin/contracts/token/ERC20/utils/SafeERC20.sol\":8122:8125  ptr */\n              dup3\n                /* \"@openzeppelin/contracts/token/ERC20/utils/SafeERC20.sol\":8107:8147  returndatacopy(ptr, 0, returndatasize()) */\n              returndatacopy\n                /* \"@openzeppelin/contracts/token/ERC20/utils/SafeERC20.sol\":8176:8192  returndatasize() */\n              returndatasize\n                /* \"@openzeppelin/contracts/token/ERC20/utils/SafeERC20.sol\":8171:8174  ptr */\n              dup2\n                /* \"@openzeppelin/contracts/token/ERC20/utils/SafeERC20.sol\":8164:8193  revert(ptr, returndatasize()) */\n              revert\n                /* \"@openzeppelin/contracts/token/ERC20/utils/SafeERC20.sol\":8031:8207  if iszero(success) {... */\n            tag_75:\n                /* \"@openzeppelin/contracts/token/ERC20/utils/SafeERC20.sol\":8234:8250  returndatasize() */\n              returndatasize\n                /* \"@openzeppelin/contracts/token/ERC20/utils/SafeERC20.sol\":8220:8250  returnSize := returndatasize() */\n              swap3\n              pop\n                /* \"@openzeppelin/contracts/token/ERC20/utils/SafeERC20.sol\":8284:8285  0 */\n              0x00\n                /* \"@openzeppelin/contracts/token/ERC20/utils/SafeERC20.sol\":8278:8286  mload(0) */\n              mload\n                /* \"@openzeppelin/contracts/token/ERC20/utils/SafeERC20.sol\":8263:8286  returnValue := mload(0) */\n              swap2\n              pop\n                /* \"@openzeppelin/contracts/token/ERC20/utils/SafeERC20.sol\":7900:8296  {... */\n              pop\n                /* \"@openzeppelin/contracts/token/ERC20/utils/SafeERC20.sol\":8324:8325  0 */\n              0x00\n                /* \"@openzeppelin/contracts/token/ERC20/utils/SafeERC20.sol\":8310:8320  returnSize */\n              dup3\n                /* \"@openzeppelin/contracts/token/ERC20/utils/SafeERC20.sol\":8310:8325  returnSize == 0 */\n              eq\n                /* \"@openzeppelin/contracts/token/ERC20/utils/SafeERC20.sol\":8310:8378  returnSize == 0 ? address(token).code.length == 0 : returnValue != 1 */\n              tag_76\n              jumpi\n                /* \"@openzeppelin/contracts/token/ERC20/utils/SafeERC20.sol\":8377:8378  1 */\n              0x01\n                /* \"@openzeppelin/contracts/token/ERC20/utils/SafeERC20.sol\":8362:8373  returnValue */\n              dup2\n                /* \"@openzeppelin/contracts/token/ERC20/utils/SafeERC20.sol\":8362:8378  returnValue != 1 */\n              eq\n              iszero\n                /* \"@openzeppelin/contracts/token/ERC20/utils/SafeERC20.sol\":8310:8378  returnSize == 0 ? address(token).code.length == 0 : returnValue != 1 */\n              jump(tag_77)\n            tag_76:\n                /* \"@openzeppelin/contracts/token/ERC20/utils/SafeERC20.sol\":8358:8359  0 */\n              0x00\n                /* \"@openzeppelin/contracts/token/ERC20/utils/SafeERC20.sol\":8336:8341  token */\n              dup5\n                /* \"@openzeppelin/contracts/token/ERC20/utils/SafeERC20.sol\":8328:8354  address(token).code.length */\n              0xffffffffffffffffffffffffffffffffffffffff\n              and\n              extcodesize\n                /* \"@openzeppelin/contracts/token/ERC20/utils/SafeERC20.sol\":8328:8359  address(token).code.length == 0 */\n              eq\n                /* \"@openzeppelin/contracts/token/ERC20/utils/SafeERC20.sol\":8310:8378  returnSize == 0 ? address(token).code.length == 0 : returnValue != 1 */\n            tag_77:\n                /* \"@openzeppelin/contracts/token/ERC20/utils/SafeERC20.sol\":8306:8452  if (returnSize == 0 ? address(token).code.length == 0 : returnValue != 1) {... */\n              iszero\n              tag_78\n              jumpi\n                /* \"@openzeppelin/contracts/token/ERC20/utils/SafeERC20.sol\":8434:8439  token */\n              dup4\n                /* \"@openzeppelin/contracts/token/ERC20/utils/SafeERC20.sol\":8401:8441  SafeERC20FailedOperation(address(token)) */\n              mload(0x40)\n              0x5274afe700000000000000000000000000000000000000000000000000000000\n              dup2\n              mstore\n              0x04\n              add\n              tag_79\n              swap2\n              swap1\n              tag_27\n              jump\t// in\n            tag_79:\n              mload(0x40)\n              dup1\n              swap2\n              sub\n              swap1\n              revert\n                /* \"@openzeppelin/contracts/token/ERC20/utils/SafeERC20.sol\":8306:8452  if (returnSize == 0 ? address(token).code.length == 0 : returnValue != 1) {... */\n            tag_78:\n                /* \"@openzeppelin/contracts/token/ERC20/utils/SafeERC20.sol\":7808:8458  {... */\n              pop\n              pop\n                /* \"@openzeppelin/contracts/token/ERC20/utils/SafeERC20.sol\":7738:8458  function _callOptionalReturn(IERC20 token, bytes memory data) private {... */\n              pop\n              pop\n              jump\t// out\n                /* \"#utility.yul\":7:133   */\n            tag_80:\n                /* \"#utility.yul\":44:51   */\n              0x00\n                /* \"#utility.yul\":84:126   */\n              0xffffffffffffffffffffffffffffffffffffffff\n                /* \"#utility.yul\":77:82   */\n              dup3\n                /* \"#utility.yul\":73:127   */\n              and\n                /* \"#utility.yul\":62:127   */\n              swap1\n              pop\n                /* \"#utility.yul\":7:133   */\n              swap2\n              swap1\n              pop\n              jump\t// out\n                /* \"#utility.yul\":139:199   */\n            tag_81:\n                /* \"#utility.yul\":167:170   */\n              0x00\n                /* \"#utility.yul\":188:193   */\n              dup2\n                /* \"#utility.yul\":181:193   */\n              swap1\n              pop\n                /* \"#utility.yul\":139:199   */\n              swap2\n              swap1\n              pop\n              jump\t// out\n                /* \"#utility.yul\":205:347   */\n            tag_82:\n                /* \"#utility.yul\":255:264   */\n              0x00\n                /* \"#utility.yul\":288:341   */\n              tag_110\n                /* \"#utility.yul\":306:340   */\n              tag_111\n                /* \"#utility.yul\":315:339   */\n              tag_112\n                /* \"#utility.yul\":333:338   */\n              dup5\n                /* \"#utility.yul\":315:339   */\n              tag_80\n              jump\t// in\n            tag_112:\n                /* \"#utility.yul\":306:340   */\n              tag_81\n              jump\t// in\n            tag_111:\n                /* \"#utility.yul\":288:341   */\n              tag_80\n              jump\t// in\n            tag_110:\n                /* \"#utility.yul\":275:341   */\n              swap1\n              pop\n                /* \"#utility.yul\":205:347   */\n              swap2\n              swap1\n              pop\n              jump\t// out\n                /* \"#utility.yul\":353:479   */\n            tag_83:\n                /* \"#utility.yul\":403:412   */\n              0x00\n                /* \"#utility.yul\":436:473   */\n              tag_114\n                /* \"#utility.yul\":467:472   */\n              dup3\n                /* \"#utility.yul\":436:473   */\n              tag_82\n              jump\t// in\n            tag_114:\n                /* \"#utility.yul\":423:473   */\n              swap1\n              pop\n                /* \"#utility.yul\":353:479   */\n              swap2\n              swap1\n              pop\n              jump\t// out\n                /* \"#utility.yul\":485:625   */\n            tag_84:\n                /* \"#utility.yul\":549:558   */\n              0x00\n                /* \"#utility.yul\":582:619   */\n              tag_116\n                /* \"#utility.yul\":613:618   */\n              dup3\n                /* \"#utility.yul\":582:619   */\n              tag_83\n              jump\t// in\n            tag_116:\n                /* \"#utility.yul\":569:619   */\n              swap1\n              pop\n                /* \"#utility.yul\":485:625   */\n              swap2\n              swap1\n              pop\n              jump\t// out\n                /* \"#utility.yul\":631:790   */\n            tag_85:\n                /* \"#utility.yul\":732:783   */\n              tag_118\n                /* \"#utility.yul\":777:782   */\n              dup2\n                /* \"#utility.yul\":732:783   */\n              tag_84\n              jump\t// in\n            tag_118:\n                /* \"#utility.yul\":727:730   */\n              dup3\n                /* \"#utility.yul\":720:784   */\n              mstore\n                /* \"#utility.yul\":631:790   */\n              pop\n              pop\n              jump\t// out\n                /* \"#utility.yul\":796:1046   */\n            tag_17:\n                /* \"#utility.yul\":903:907   */\n              0x00\n                /* \"#utility.yul\":941:943   */\n              0x20\n                /* \"#utility.yul\":930:939   */\n              dup3\n                /* \"#utility.yul\":926:944   */\n              add\n                /* \"#utility.yul\":918:944   */\n              swap1\n              pop\n                /* \"#utility.yul\":954:1039   */\n              tag_120\n                /* \"#utility.yul\":1036:1037   */\n              0x00\n                /* \"#utility.yul\":1025:1034   */\n              dup4\n                /* \"#utility.yul\":1021:1038   */\n              add\n                /* \"#utility.yul\":1012:1018   */\n              dup5\n                /* \"#utility.yul\":954:1039   */\n              tag_85\n              jump\t// in\n            tag_120:\n                /* \"#utility.yul\":796:1046   */\n              swap3\n              swap2\n              pop\n              pop\n              jump\t// out\n                /* \"#utility.yul\":1133:1250   */\n            tag_87:\n                /* \"#utility.yul\":1242:1243   */\n              0x00\n                /* \"#utility.yul\":1239:1240   */\n              dup1\n                /* \"#utility.yul\":1232:1244   */\n              revert\n                /* \"#utility.yul\":1379:1475   */\n            tag_89:\n                /* \"#utility.yul\":1416:1423   */\n              0x00\n                /* \"#utility.yul\":1445:1469   */\n              tag_125\n                /* \"#utility.yul\":1463:1468   */\n              dup3\n                /* \"#utility.yul\":1445:1469   */\n              tag_80\n              jump\t// in\n            tag_125:\n                /* \"#utility.yul\":1434:1469   */\n              swap1\n              pop\n                /* \"#utility.yul\":1379:1475   */\n              swap2\n              swap1\n              pop\n              jump\t// out\n                /* \"#utility.yul\":1481:1603   */\n            tag_90:\n                /* \"#utility.yul\":1554:1578   */\n              tag_127\n                /* \"#utility.yul\":1572:1577   */\n              dup2\n                /* \"#utility.yul\":1554:1578   */\n              tag_89\n              jump\t// in\n            tag_127:\n                /* \"#utility.yul\":1547:1552   */\n              dup2\n                /* \"#utility.yul\":1544:1579   */\n              eq\n                /* \"#utility.yul\":1534:1597   */\n              tag_128\n              jumpi\n                /* \"#utility.yul\":1593:1594   */\n              0x00\n                /* \"#utility.yul\":1590:1591   */\n              dup1\n                /* \"#utility.yul\":1583:1595   */\n              revert\n                /* \"#utility.yul\":1534:1597   */\n            tag_128:\n                /* \"#utility.yul\":1481:1603   */\n              pop\n              jump\t// out\n                /* \"#utility.yul\":1609:1748   */\n            tag_91:\n                /* \"#utility.yul\":1655:1660   */\n              0x00\n                /* \"#utility.yul\":1693:1699   */\n              dup2\n                /* \"#utility.yul\":1680:1700   */\n              calldataload\n                /* \"#utility.yul\":1671:1700   */\n              swap1\n              pop\n                /* \"#utility.yul\":1709:1742   */\n              tag_130\n                /* \"#utility.yul\":1736:1741   */\n              dup2\n                /* \"#utility.yul\":1709:1742   */\n              tag_90\n              jump\t// in\n            tag_130:\n                /* \"#utility.yul\":1609:1748   */\n              swap3\n              swap2\n              pop\n              pop\n              jump\t// out\n                /* \"#utility.yul\":1754:2083   */\n            tag_21:\n                /* \"#utility.yul\":1813:1819   */\n              0x00\n                /* \"#utility.yul\":1862:1864   */\n              0x20\n                /* \"#utility.yul\":1850:1859   */\n              dup3\n                /* \"#utility.yul\":1841:1848   */\n              dup5\n                /* \"#utility.yul\":1837:1860   */\n              sub\n                /* \"#utility.yul\":1833:1865   */\n              slt\n                /* \"#utility.yul\":1830:1949   */\n              iszero\n              tag_132\n              jumpi\n                /* \"#utility.yul\":1868:1947   */\n              tag_133\n              tag_87\n              jump\t// in\n            tag_133:\n                /* \"#utility.yul\":1830:1949   */\n            tag_132:\n                /* \"#utility.yul\":1988:1989   */\n              0x00\n                /* \"#utility.yul\":2013:2066   */\n              tag_134\n                /* \"#utility.yul\":2058:2065   */\n              dup5\n                /* \"#utility.yul\":2049:2055   */\n              dup3\n                /* \"#utility.yul\":2038:2047   */\n              dup6\n                /* \"#utility.yul\":2034:2056   */\n              add\n                /* \"#utility.yul\":2013:2066   */\n              tag_91\n              jump\t// in\n            tag_134:\n                /* \"#utility.yul\":2003:2066   */\n              swap2\n              pop\n                /* \"#utility.yul\":1959:2076   */\n              pop\n                /* \"#utility.yul\":1754:2083   */\n              swap3\n              swap2\n              pop\n              pop\n              jump\t// out\n                /* \"#utility.yul\":2089:2207   */\n            tag_92:\n                /* \"#utility.yul\":2176:2200   */\n              tag_136\n                /* \"#utility.yul\":2194:2199   */\n              dup2\n                /* \"#utility.yul\":2176:2200   */\n              tag_89\n              jump\t// in\n            tag_136:\n                /* \"#utility.yul\":2171:2174   */\n              dup3\n                /* \"#utility.yul\":2164:2201   */\n              mstore\n                /* \"#utility.yul\":2089:2207   */\n              pop\n              pop\n              jump\t// out\n                /* \"#utility.yul\":2213:2435   */\n            tag_27:\n                /* \"#utility.yul\":2306:2310   */\n              0x00\n                /* \"#utility.yul\":2344:2346   */\n              0x20\n                /* \"#utility.yul\":2333:2342   */\n              dup3\n                /* \"#utility.yul\":2329:2347   */\n              add\n                /* \"#utility.yul\":2321:2347   */\n              swap1\n              pop\n                /* \"#utility.yul\":2357:2428   */\n              tag_138\n                /* \"#utility.yul\":2425:2426   */\n              0x00\n                /* \"#utility.yul\":2414:2423   */\n              dup4\n                /* \"#utility.yul\":2410:2427   */\n              add\n                /* \"#utility.yul\":2401:2407   */\n              dup5\n                /* \"#utility.yul\":2357:2428   */\n              tag_92\n              jump\t// in\n            tag_138:\n                /* \"#utility.yul\":2213:2435   */\n              swap3\n              swap2\n              pop\n              pop\n              jump\t// out\n                /* \"#utility.yul\":2441:2518   */\n            tag_93:\n                /* \"#utility.yul\":2478:2485   */\n              0x00\n                /* \"#utility.yul\":2507:2512   */\n              dup2\n                /* \"#utility.yul\":2496:2512   */\n              swap1\n              pop\n                /* \"#utility.yul\":2441:2518   */\n              swap2\n              swap1\n              pop\n              jump\t// out\n                /* \"#utility.yul\":2524:2642   */\n            tag_94:\n                /* \"#utility.yul\":2611:2635   */\n              tag_141\n                /* \"#utility.yul\":2629:2634   */\n              dup2\n                /* \"#utility.yul\":2611:2635   */\n              tag_93\n              jump\t// in\n            tag_141:\n                /* \"#utility.yul\":2606:2609   */\n              dup3\n                /* \"#utility.yul\":2599:2636   */\n              mstore\n                /* \"#utility.yul\":2524:2642   */\n              pop\n              pop\n              jump\t// out\n                /* \"#utility.yul\":2648:2870   */\n            tag_32:\n                /* \"#utility.yul\":2741:2745   */\n              0x00\n                /* \"#utility.yul\":2779:2781   */\n              0x20\n                /* \"#utility.yul\":2768:2777   */\n              dup3\n                /* \"#utility.yul\":2764:2782   */\n              add\n                /* \"#utility.yul\":2756:2782   */\n              swap1\n              pop\n                /* \"#utility.yul\":2792:2863   */\n              tag_143\n                /* \"#utility.yul\":2860:2861   */\n              0x00\n                /* \"#utility.yul\":2849:2858   */\n              dup4\n                /* \"#utility.yul\":2845:2862   */\n              add\n                /* \"#utility.yul\":2836:2842   */\n              dup5\n                /* \"#utility.yul\":2792:2863   */\n              tag_94\n              jump\t// in\n            tag_143:\n                /* \"#utility.yul\":2648:2870   */\n              swap3\n              swap2\n              pop\n              pop\n              jump\t// out\n                /* \"#utility.yul\":2876:3045   */\n            tag_95:\n                /* \"#utility.yul\":2960:2971   */\n              0x00\n                /* \"#utility.yul\":2994:3000   */\n              dup3\n                /* \"#utility.yul\":2989:2992   */\n              dup3\n                /* \"#utility.yul\":2982:3001   */\n              mstore\n                /* \"#utility.yul\":3034:3038   */\n              0x20\n                /* \"#utility.yul\":3029:3032   */\n              dup3\n                /* \"#utility.yul\":3025:3039   */\n              add\n                /* \"#utility.yul\":3010:3039   */\n              swap1\n              pop\n                /* \"#utility.yul\":2876:3045   */\n              swap3\n              swap2\n              pop\n              pop\n              jump\t// out\n                /* \"#utility.yul\":3051:3274   */\n            tag_96:\n                /* \"#utility.yul\":3191:3225   */\n              0x4f6e6c79206465706c6f7965722063616e2063616c6c20746869732066756e63\n                /* \"#utility.yul\":3187:3188   */\n              0x00\n                /* \"#utility.yul\":3179:3185   */\n              dup3\n                /* \"#utility.yul\":3175:3189   */\n              add\n                /* \"#utility.yul\":3168:3226   */\n              mstore\n                /* \"#utility.yul\":3260:3266   */\n              0x74696f6e00000000000000000000000000000000000000000000000000000000\n                /* \"#utility.yul\":3255:3257   */\n              0x20\n                /* \"#utility.yul\":3247:3253   */\n              dup3\n                /* \"#utility.yul\":3243:3258   */\n              add\n                /* \"#utility.yul\":3236:3267   */\n              mstore\n                /* \"#utility.yul\":3051:3274   */\n              pop\n              jump\t// out\n                /* \"#utility.yul\":3280:3646   */\n            tag_97:\n                /* \"#utility.yul\":3422:3425   */\n              0x00\n                /* \"#utility.yul\":3443:3510   */\n              tag_147\n                /* \"#utility.yul\":3507:3509   */\n              0x24\n                /* \"#utility.yul\":3502:3505   */\n              dup4\n                /* \"#utility.yul\":3443:3510   */\n              tag_95\n              jump\t// in\n            tag_147:\n                /* \"#utility.yul\":3436:3510   */\n              swap2\n              pop\n                /* \"#utility.yul\":3519:3612   */\n              tag_148\n                /* \"#utility.yul\":3608:3611   */\n              dup3\n                /* \"#utility.yul\":3519:3612   */\n              tag_96\n              jump\t// in\n            tag_148:\n                /* \"#utility.yul\":3637:3639   */\n              0x40\n                /* \"#utility.yul\":3632:3635   */\n              dup3\n                /* \"#utility.yul\":3628:3640   */\n              add\n                /* \"#utility.yul\":3621:3640   */\n              swap1\n              pop\n                /* \"#utility.yul\":3280:3646   */\n              swap2\n              swap1\n              pop\n              jump\t// out\n                /* \"#utility.yul\":3652:4071   */\n            tag_43:\n                /* \"#utility.yul\":3818:3822   */\n              0x00\n                /* \"#utility.yul\":3856:3858   */\n              0x20\n                /* \"#utility.yul\":3845:3854   */\n              dup3\n                /* \"#utility.yul\":3841:3859   */\n              add\n                /* \"#utility.yul\":3833:3859   */\n              swap1\n              pop\n                /* \"#utility.yul\":3905:3914   */\n              dup2\n                /* \"#utility.yul\":3899:3903   */\n              dup2\n                /* \"#utility.yul\":3895:3915   */\n              sub\n                /* \"#utility.yul\":3891:3892   */\n              0x00\n                /* \"#utility.yul\":3880:3889   */\n              dup4\n                /* \"#utility.yul\":3876:3893   */\n              add\n                /* \"#utility.yul\":3869:3916   */\n              mstore\n                /* \"#utility.yul\":3933:4064   */\n              tag_150\n                /* \"#utility.yul\":4059:4063   */\n              dup2\n                /* \"#utility.yul\":3933:4064   */\n              tag_97\n              jump\t// in\n            tag_150:\n                /* \"#utility.yul\":3925:4064   */\n              swap1\n              pop\n                /* \"#utility.yul\":3652:4071   */\n              swap2\n              swap1\n              pop\n              jump\t// out\n                /* \"#utility.yul\":4077:4300   */\n            tag_98:\n                /* \"#utility.yul\":4217:4251   */\n              0x4e6577206f776e65722063616e6e6f7420626520746865207a65726f20616464\n                /* \"#utility.yul\":4213:4214   */\n              0x00\n                /* \"#utility.yul\":4205:4211   */\n              dup3\n                /* \"#utility.yul\":4201:4215   */\n              add\n                /* \"#utility.yul\":4194:4252   */\n              mstore\n                /* \"#utility.yul\":4286:4292   */\n              0x7265737300000000000000000000000000000000000000000000000000000000\n                /* \"#utility.yul\":4281:4283   */\n              0x20\n                /* \"#utility.yul\":4273:4279   */\n              dup3\n                /* \"#utility.yul\":4269:4284   */\n              add\n                /* \"#utility.yul\":4262:4293   */\n              mstore\n                /* \"#utility.yul\":4077:4300   */\n              pop\n              jump\t// out\n                /* \"#utility.yul\":4306:4672   */\n            tag_99:\n                /* \"#utility.yul\":4448:4451   */\n              0x00\n                /* \"#utility.yul\":4469:4536   */\n              tag_153\n                /* \"#utility.yul\":4533:4535   */\n              0x24\n                /* \"#utility.yul\":4528:4531   */\n              dup4\n                /* \"#utility.yul\":4469:4536   */\n              tag_95\n              jump\t// in\n            tag_153:\n                /* \"#utility.yul\":4462:4536   */\n              swap2\n              pop\n                /* \"#utility.yul\":4545:4638   */\n              tag_154\n                /* \"#utility.yul\":4634:4637   */\n              dup3\n                /* \"#utility.yul\":4545:4638   */\n              tag_98\n              jump\t// in\n            tag_154:\n                /* \"#utility.yul\":4663:4665   */\n              0x40\n                /* \"#utility.yul\":4658:4661   */\n              dup3\n                /* \"#utility.yul\":4654:4666   */\n              add\n                /* \"#utility.yul\":4647:4666   */\n              swap1\n              pop\n                /* \"#utility.yul\":4306:4672   */\n              swap2\n              swap1\n              pop\n              jump\t// out\n                /* \"#utility.yul\":4678:5097   */\n            tag_47:\n                /* \"#utility.yul\":4844:4848   */\n              0x00\n                /* \"#utility.yul\":4882:4884   */\n              0x20\n                /* \"#utility.yul\":4871:4880   */\n              dup3\n                /* \"#utility.yul\":4867:4885   */\n              add\n                /* \"#utility.yul\":4859:4885   */\n              swap1\n              pop\n                /* \"#utility.yul\":4931:4940   */\n              dup2\n                /* \"#utility.yul\":4925:4929   */\n              dup2\n                /* \"#utility.yul\":4921:4941   */\n              sub\n                /* \"#utility.yul\":4917:4918   */\n              0x00\n                /* \"#utility.yul\":4906:4915   */\n              dup4\n                /* \"#utility.yul\":4902:4919   */\n              add\n                /* \"#utility.yul\":4895:4942   */\n              mstore\n                /* \"#utility.yul\":4959:5090   */\n              tag_156\n                /* \"#utility.yul\":5085:5089   */\n              dup2\n                /* \"#utility.yul\":4959:5090   */\n              tag_99\n              jump\t// in\n            tag_156:\n                /* \"#utility.yul\":4951:5090   */\n              swap1\n              pop\n                /* \"#utility.yul\":4678:5097   */\n              swap2\n              swap1\n              pop\n              jump\t// out\n                /* \"#utility.yul\":5103:5225   */\n            tag_100:\n                /* \"#utility.yul\":5176:5200   */\n              tag_158\n                /* \"#utility.yul\":5194:5199   */\n              dup2\n                /* \"#utility.yul\":5176:5200   */\n              tag_93\n              jump\t// in\n            tag_158:\n                /* \"#utility.yul\":5169:5174   */\n              dup2\n                /* \"#utility.yul\":5166:5201   */\n              eq\n                /* \"#utility.yul\":5156:5219   */\n              tag_159\n              jumpi\n                /* \"#utility.yul\":5215:5216   */\n              0x00\n                /* \"#utility.yul\":5212:5213   */\n              dup1\n                /* \"#utility.yul\":5205:5217   */\n              revert\n                /* \"#utility.yul\":5156:5219   */\n            tag_159:\n                /* \"#utility.yul\":5103:5225   */\n              pop\n              jump\t// out\n                /* \"#utility.yul\":5231:5374   */\n            tag_101:\n                /* \"#utility.yul\":5288:5293   */\n              0x00\n                /* \"#utility.yul\":5319:5325   */\n              dup2\n                /* \"#utility.yul\":5313:5326   */\n              mload\n                /* \"#utility.yul\":5304:5326   */\n              swap1\n              pop\n                /* \"#utility.yul\":5335:5368   */\n              tag_161\n                /* \"#utility.yul\":5362:5367   */\n              dup2\n                /* \"#utility.yul\":5335:5368   */\n              tag_100\n              jump\t// in\n            tag_161:\n                /* \"#utility.yul\":5231:5374   */\n              swap3\n              swap2\n              pop\n              pop\n              jump\t// out\n                /* \"#utility.yul\":5380:5731   */\n            tag_53:\n                /* \"#utility.yul\":5450:5456   */\n              0x00\n                /* \"#utility.yul\":5499:5501   */\n              0x20\n                /* \"#utility.yul\":5487:5496   */\n              dup3\n                /* \"#utility.yul\":5478:5485   */\n              dup5\n                /* \"#utility.yul\":5474:5497   */\n              sub\n                /* \"#utility.yul\":5470:5502   */\n              slt\n                /* \"#utility.yul\":5467:5586   */\n              iszero\n              tag_163\n              jumpi\n                /* \"#utility.yul\":5505:5584   */\n              tag_164\n              tag_87\n              jump\t// in\n            tag_164:\n                /* \"#utility.yul\":5467:5586   */\n            tag_163:\n                /* \"#utility.yul\":5625:5626   */\n              0x00\n                /* \"#utility.yul\":5650:5714   */\n              tag_165\n                /* \"#utility.yul\":5706:5713   */\n              dup5\n                /* \"#utility.yul\":5697:5703   */\n              dup3\n                /* \"#utility.yul\":5686:5695   */\n              dup6\n                /* \"#utility.yul\":5682:5704   */\n              add\n                /* \"#utility.yul\":5650:5714   */\n              tag_101\n              jump\t// in\n            tag_165:\n                /* \"#utility.yul\":5640:5714   */\n              swap2\n              pop\n                /* \"#utility.yul\":5596:5724   */\n              pop\n                /* \"#utility.yul\":5380:5731   */\n              swap3\n              swap2\n              pop\n              pop\n              jump\t// out\n                /* \"#utility.yul\":5737:5957   */\n            tag_102:\n                /* \"#utility.yul\":5877:5911   */\n              0x4f6e6c79206f776e65722063616e2063616c6c20746869732066756e6374696f\n                /* \"#utility.yul\":5873:5874   */\n              0x00\n                /* \"#utility.yul\":5865:5871   */\n              dup3\n                /* \"#utility.yul\":5861:5875   */\n              add\n                /* \"#utility.yul\":5854:5912   */\n              mstore\n                /* \"#utility.yul\":5946:5949   */\n              0x6e00000000000000000000000000000000000000000000000000000000000000\n                /* \"#utility.yul\":5941:5943   */\n              0x20\n                /* \"#utility.yul\":5933:5939   */\n              dup3\n                /* \"#utility.yul\":5929:5944   */\n              add\n                /* \"#utility.yul\":5922:5950   */\n              mstore\n                /* \"#utility.yul\":5737:5957   */\n              pop\n              jump\t// out\n                /* \"#utility.yul\":5963:6329   */\n            tag_103:\n                /* \"#utility.yul\":6105:6108   */\n              0x00\n                /* \"#utility.yul\":6126:6193   */\n              tag_168\n                /* \"#utility.yul\":6190:6192   */\n              0x21\n                /* \"#utility.yul\":6185:6188   */\n              dup4\n                /* \"#utility.yul\":6126:6193   */\n              tag_95\n              jump\t// in\n            tag_168:\n                /* \"#utility.yul\":6119:6193   */\n              swap2\n              pop\n                /* \"#utility.yul\":6202:6295   */\n              tag_169\n                /* \"#utility.yul\":6291:6294   */\n              dup3\n                /* \"#utility.yul\":6202:6295   */\n              tag_102\n              jump\t// in\n            tag_169:\n                /* \"#utility.yul\":6320:6322   */\n              0x40\n                /* \"#utility.yul\":6315:6318   */\n              dup3\n                /* \"#utility.yul\":6311:6323   */\n              add\n                /* \"#utility.yul\":6304:6323   */\n              swap1\n              pop\n                /* \"#utility.yul\":5963:6329   */\n              swap2\n              swap1\n              pop\n              jump\t// out\n                /* \"#utility.yul\":6335:6754   */\n            tag_57:\n                /* \"#utility.yul\":6501:6505   */\n              0x00\n                /* \"#utility.yul\":6539:6541   */\n              0x20\n                /* \"#utility.yul\":6528:6537   */\n              dup3\n                /* \"#utility.yul\":6524:6542   */\n              add\n                /* \"#utility.yul\":6516:6542   */\n              swap1\n              pop\n                /* \"#utility.yul\":6588:6597   */\n              dup2\n                /* \"#utility.yul\":6582:6586   */\n              dup2\n                /* \"#utility.yul\":6578:6598   */\n              sub\n                /* \"#utility.yul\":6574:6575   */\n              0x00\n                /* \"#utility.yul\":6563:6572   */\n              dup4\n                /* \"#utility.yul\":6559:6576   */\n              add\n                /* \"#utility.yul\":6552:6599   */\n              mstore\n                /* \"#utility.yul\":6616:6747   */\n              tag_171\n                /* \"#utility.yul\":6742:6746   */\n              dup2\n                /* \"#utility.yul\":6616:6747   */\n              tag_103\n              jump\t// in\n            tag_171:\n                /* \"#utility.yul\":6608:6747   */\n              swap1\n              pop\n                /* \"#utility.yul\":6335:6754   */\n              swap2\n              swap1\n              pop\n              jump\t// out\n                /* \"#utility.yul\":6760:6931   */\n            tag_104:\n                /* \"#utility.yul\":6900:6923   */\n              0x4e6f20746f6b656e7320746f2077697468647261770000000000000000000000\n                /* \"#utility.yul\":6896:6897   */\n              0x00\n                /* \"#utility.yul\":6888:6894   */\n              dup3\n                /* \"#utility.yul\":6884:6898   */\n              add\n                /* \"#utility.yul\":6877:6924   */\n              mstore\n                /* \"#utility.yul\":6760:6931   */\n              pop\n              jump\t// out\n                /* \"#utility.yul\":6937:7303   */\n            tag_105:\n                /* \"#utility.yul\":7079:7082   */\n              0x00\n                /* \"#utility.yul\":7100:7167   */\n              tag_174\n                /* \"#utility.yul\":7164:7166   */\n              0x15\n                /* \"#utility.yul\":7159:7162   */\n              dup4\n                /* \"#utility.yul\":7100:7167   */\n              tag_95\n              jump\t// in\n            tag_174:\n                /* \"#utility.yul\":7093:7167   */\n              swap2\n              pop\n                /* \"#utility.yul\":7176:7269   */\n              tag_175\n                /* \"#utility.yul\":7265:7268   */\n              dup3\n                /* \"#utility.yul\":7176:7269   */\n              tag_104\n              jump\t// in\n            tag_175:\n                /* \"#utility.yul\":7294:7296   */\n              0x20\n                /* \"#utility.yul\":7289:7292   */\n              dup3\n                /* \"#utility.yul\":7285:7297   */\n              add\n                /* \"#utility.yul\":7278:7297   */\n              swap1\n              pop\n                /* \"#utility.yul\":6937:7303   */\n              swap2\n              swap1\n              pop\n              jump\t// out\n                /* \"#utility.yul\":7309:7728   */\n            tag_65:\n                /* \"#utility.yul\":7475:7479   */\n              0x00\n                /* \"#utility.yul\":7513:7515   */\n              0x20\n                /* \"#utility.yul\":7502:7511   */\n              dup3\n                /* \"#utility.yul\":7498:7516   */\n              add\n                /* \"#utility.yul\":7490:7516   */\n              swap1\n              pop\n                /* \"#utility.yul\":7562:7571   */\n              dup2\n                /* \"#utility.yul\":7556:7560   */\n              dup2\n                /* \"#utility.yul\":7552:7572   */\n              sub\n                /* \"#utility.yul\":7548:7549   */\n              0x00\n                /* \"#utility.yul\":7537:7546   */\n              dup4\n                /* \"#utility.yul\":7533:7550   */\n              add\n                /* \"#utility.yul\":7526:7573   */\n              mstore\n                /* \"#utility.yul\":7590:7721   */\n              tag_177\n                /* \"#utility.yul\":7716:7720   */\n              dup2\n                /* \"#utility.yul\":7590:7721   */\n              tag_105\n              jump\t// in\n            tag_177:\n                /* \"#utility.yul\":7582:7721   */\n              swap1\n              pop\n                /* \"#utility.yul\":7309:7728   */\n              swap2\n              swap1\n              pop\n              jump\t// out\n                /* \"#utility.yul\":7734:8066   */\n            tag_72:\n                /* \"#utility.yul\":7855:7859   */\n              0x00\n                /* \"#utility.yul\":7893:7895   */\n              0x40\n                /* \"#utility.yul\":7882:7891   */\n              dup3\n                /* \"#utility.yul\":7878:7896   */\n              add\n                /* \"#utility.yul\":7870:7896   */\n              swap1\n              pop\n                /* \"#utility.yul\":7906:7977   */\n              tag_179\n                /* \"#utility.yul\":7974:7975   */\n              0x00\n                /* \"#utility.yul\":7963:7972   */\n              dup4\n                /* \"#utility.yul\":7959:7976   */\n              add\n                /* \"#utility.yul\":7950:7956   */\n              dup6\n                /* \"#utility.yul\":7906:7977   */\n              tag_92\n              jump\t// in\n            tag_179:\n                /* \"#utility.yul\":7987:8059   */\n              tag_180\n                /* \"#utility.yul\":8055:8057   */\n              0x20\n                /* \"#utility.yul\":8044:8053   */\n              dup4\n                /* \"#utility.yul\":8040:8058   */\n              add\n                /* \"#utility.yul\":8031:8037   */\n              dup5\n                /* \"#utility.yul\":7987:8059   */\n              tag_94\n              jump\t// in\n            tag_180:\n                /* \"#utility.yul\":7734:8066   */\n              swap4\n              swap3\n              pop\n              pop\n              pop\n              jump\t// out\n\n            auxdata: 0xa26469706673582212201ce029e6c02223959e472a47e4c7597ca24bfd1b543c48872486ef0a9e30357f64736f6c634300081a0033\n        }\n    }\n\n    auxdata: 0xa26469706673582212205b252a001e81187adaa46f6fe1db2686280caa9c7735047ad1eaa7c02e22514564736f6c634300081a0033\n}\n",
				"bytecode": {
					"linkReferences": {},
					"object": "608060405234801561000f575f80fd5b50604051611a85380380611a8583398181016040528101906100319190610114565b335f806101000a81548173ffffffffffffffffffffffffffffffffffffffff021916908373ffffffffffffffffffffffffffffffffffffffff1602179055508060015f6101000a81548173ffffffffffffffffffffffffffffffffffffffff021916908373ffffffffffffffffffffffffffffffffffffffff1602179055505061013f565b5f80fd5b5f73ffffffffffffffffffffffffffffffffffffffff82169050919050565b5f6100e3826100ba565b9050919050565b6100f3816100d9565b81146100fd575f80fd5b50565b5f8151905061010e816100ea565b92915050565b5f60208284031215610129576101286100b6565b5b5f61013684828501610100565b91505092915050565b6119398061014c5f395ff3fe608060405234801561000f575f80fd5b506004361061007b575f3560e01c80638455c423116100595780638455c423146100e9578063a57354a114610119578063a72c82d714610135578063d5f39488146101535761007b565b806302b32af51461007f57806321fe926a1461009d578063646ce69b146100b9575b5f80fd5b610087610171565b60405161009491906107d6565b60405180910390f35b6100b760048036038101906100b29190610858565b610196565b005b6100d360048036038101906100ce9190610896565b6102d5565b6040516100e091906107d6565b60405180910390f35b61010360048036038101906100fe91906108f4565b61047e565b60405161011091906107d6565b60405180910390f35b610133600480360381019061012e9190610896565b6104b9565b005b61013d61063a565b60405161014a91906109d6565b60405180910390f35b61015b6106c5565b60405161016891906107d6565b60405180910390f35b60015f9054906101000a900473ffffffffffffffffffffffffffffffffffffffff1681565b5f8054906101000a900473ffffffffffffffffffffffffffffffffffffffff1673ffffffffffffffffffffffffffffffffffffffff163373ffffffffffffffffffffffffffffffffffffffff1614610223576040517f08c379a000000000000000000000000000000000000000000000000000000000815260040161021a90610a76565b60405180910390fd5b61022c826106e8565b61026b576040517f08c379a000000000000000000000000000000000000000000000000000000000815260040161026290610b04565b60405180910390fd5b8173ffffffffffffffffffffffffffffffffffffffff1663880cdc31826040518263ffffffff1660e01b81526004016102a491906107d6565b5f604051808303815f87803b1580156102bb575f80fd5b505af11580156102cd573d5f803e3d5ffd5b505050505050565b5f805f9054906101000a900473ffffffffffffffffffffffffffffffffffffffff1673ffffffffffffffffffffffffffffffffffffffff163373ffffffffffffffffffffffffffffffffffffffff1614610364576040517f08c379a000000000000000000000000000000000000000000000000000000000815260040161035b90610a76565b60405180910390fd5b5f8260015f9054906101000a900473ffffffffffffffffffffffffffffffffffffffff166040516103949061078a565b61039f929190610b22565b604051809103905ff0801580156103b8573d5f803e3d5ffd5b509050600281908060018154018082558091505060019003905f5260205f20015f9091909190916101000a81548173ffffffffffffffffffffffffffffffffffffffff021916908373ffffffffffffffffffffffffffffffffffffffff1602179055508273ffffffffffffffffffffffffffffffffffffffff168173ffffffffffffffffffffffffffffffffffffffff167ff25144576b87c0db53fd13e964c2b18299ee19d7d44d4b2636144644acff745b60405160405180910390a380915050919050565b6002818154811061048d575f80fd5b905f5260205f20015f915054906101000a900473ffffffffffffffffffffffffffffffffffffffff1681565b5f8054906101000a900473ffffffffffffffffffffffffffffffffffffffff1673ffffffffffffffffffffffffffffffffffffffff163373ffffffffffffffffffffffffffffffffffffffff1614610546576040517f08c379a000000000000000000000000000000000000000000000000000000000815260040161053d90610a76565b60405180910390fd5b5f73ffffffffffffffffffffffffffffffffffffffff168173ffffffffffffffffffffffffffffffffffffffff16036105b4576040517f08c379a00000000000000000000000000000000000000000000000000000000081526004016105ab90610bb9565b60405180910390fd5b8060015f6101000a81548173ffffffffffffffffffffffffffffffffffffffff021916908373ffffffffffffffffffffffffffffffffffffffff1602179055508073ffffffffffffffffffffffffffffffffffffffff167f55b6b6fe98d11600785423c3f7630dee64b0f6fa54e8a25362aa522d83dfd24360405160405180910390a250565b606060028054806020026020016040519081016040528092919081815260200182805480156106bb57602002820191905f5260205f20905b815f9054906101000a900473ffffffffffffffffffffffffffffffffffffffff1673ffffffffffffffffffffffffffffffffffffffff1681526020019060010190808311610672575b5050505050905090565b5f8054906101000a900473ffffffffffffffffffffffffffffffffffffffff1681565b5f805f90505b600280549050811015610780578273ffffffffffffffffffffffffffffffffffffffff166002828154811061072657610725610bd7565b5b905f5260205f20015f9054906101000a900473ffffffffffffffffffffffffffffffffffffffff1673ffffffffffffffffffffffffffffffffffffffff1603610773576001915050610785565b80806001019150506106ee565b505f90505b919050565b610cff80610c0583390190565b5f73ffffffffffffffffffffffffffffffffffffffff82169050919050565b5f6107c082610797565b9050919050565b6107d0816107b6565b82525050565b5f6020820190506107e95f8301846107c7565b92915050565b5f80fd5b5f6107fd82610797565b9050919050565b61080d816107f3565b8114610817575f80fd5b50565b5f8135905061082881610804565b92915050565b610837816107b6565b8114610841575f80fd5b50565b5f813590506108528161082e565b92915050565b5f806040838503121561086e5761086d6107ef565b5b5f61087b8582860161081a565b925050602061088c85828601610844565b9150509250929050565b5f602082840312156108ab576108aa6107ef565b5b5f6108b884828501610844565b91505092915050565b5f819050919050565b6108d3816108c1565b81146108dd575f80fd5b50565b5f813590506108ee816108ca565b92915050565b5f60208284031215610909576109086107ef565b5b5f610916848285016108e0565b91505092915050565b5f81519050919050565b5f82825260208201905092915050565b5f819050602082019050919050565b610951816107b6565b82525050565b5f6109628383610948565b60208301905092915050565b5f602082019050919050565b5f6109848261091f565b61098e8185610929565b935061099983610939565b805f5b838110156109c95781516109b08882610957565b97506109bb8361096e565b92505060018101905061099c565b5085935050505092915050565b5f6020820190508181035f8301526109ee818461097a565b905092915050565b5f82825260208201905092915050565b7f4f6e6c79206465706c6f7965722063616e2063616c6c20746869732066756e635f8201527f74696f6e00000000000000000000000000000000000000000000000000000000602082015250565b5f610a606024836109f6565b9150610a6b82610a06565b604082019050919050565b5f6020820190508181035f830152610a8d81610a54565b9050919050565b7f57616c6c65742061646472657373206973206e6f742061206465706c6f7965645f8201527f2077616c6c657400000000000000000000000000000000000000000000000000602082015250565b5f610aee6027836109f6565b9150610af982610a94565b604082019050919050565b5f6020820190508181035f830152610b1b81610ae2565b9050919050565b5f604082019050610b355f8301856107c7565b610b4260208301846107c7565b9392505050565b7f4e657720677265656e20746f6b656e20616464726573732063616e6e6f7420625f8201527f65207a65726f2061646472657373000000000000000000000000000000000000602082015250565b5f610ba3602e836109f6565b9150610bae82610b49565b604082019050919050565b5f6020820190508181035f830152610bd081610b97565b9050919050565b7f4e487b71000000000000000000000000000000000000000000000000000000005f52603260045260245ffdfe608060405234801561000f575f80fd5b50604051610cff380380610cff83398181016040528101906100319190610155565b815f806101000a81548173ffffffffffffffffffffffffffffffffffffffff021916908373ffffffffffffffffffffffffffffffffffffffff1602179055503360015f6101000a81548173ffffffffffffffffffffffffffffffffffffffff021916908373ffffffffffffffffffffffffffffffffffffffff1602179055508060025f6101000a81548173ffffffffffffffffffffffffffffffffffffffff021916908373ffffffffffffffffffffffffffffffffffffffff1602179055505050610193565b5f80fd5b5f73ffffffffffffffffffffffffffffffffffffffff82169050919050565b5f610124826100fb565b9050919050565b6101348161011a565b811461013e575f80fd5b50565b5f8151905061014f8161012b565b92915050565b5f806040838503121561016b5761016a6100f7565b5b5f61017885828601610141565b925050602061018985828601610141565b9150509250929050565b610b5f806101a05f395ff3fe608060405260043610610058575f3560e01c806302b32af514610061578063880cdc311461008b5780638da5cb5b146100b357806399e9c1dd146100dd578063d5f3948814610107578063ea017105146101315761005f565b3661005f57005b005b34801561006c575f80fd5b50610075610147565b60405161008291906107af565b60405180910390f35b348015610096575f80fd5b506100b160048036038101906100ac9190610807565b61016c565b005b3480156100be575f80fd5b506100c76102ee565b6040516100d49190610841565b60405180910390f35b3480156100e8575f80fd5b506100f1610311565b6040516100fe9190610872565b60405180910390f35b348015610112575f80fd5b5061011b6103b0565b6040516101289190610841565b60405180910390f35b34801561013c575f80fd5b506101456103d5565b005b60025f9054906101000a900473ffffffffffffffffffffffffffffffffffffffff1681565b60015f9054906101000a900473ffffffffffffffffffffffffffffffffffffffff1673ffffffffffffffffffffffffffffffffffffffff163373ffffffffffffffffffffffffffffffffffffffff16146101fb576040517f08c379a00000000000000000000000000000000000000000000000000000000081526004016101f29061090b565b60405180910390fd5b5f73ffffffffffffffffffffffffffffffffffffffff168173ffffffffffffffffffffffffffffffffffffffff1603610269576040517f08c379a000000000000000000000000000000000000000000000000000000000815260040161026090610999565b60405180910390fd5b805f806101000a81548173ffffffffffffffffffffffffffffffffffffffff021916908373ffffffffffffffffffffffffffffffffffffffff1602179055508073ffffffffffffffffffffffffffffffffffffffff167f4ffd725fc4a22075e9ec71c59edf9c38cdeb588a91b24fc5b61388c5be41282b60405160405180910390a250565b5f8054906101000a900473ffffffffffffffffffffffffffffffffffffffff1681565b5f60025f9054906101000a900473ffffffffffffffffffffffffffffffffffffffff1673ffffffffffffffffffffffffffffffffffffffff166370a08231306040518263ffffffff1660e01b815260040161036c9190610841565b602060405180830381865afa158015610387573d5f803e3d5ffd5b505050506040513d601f19601f820116820180604052508101906103ab91906109e1565b905090565b60015f9054906101000a900473ffffffffffffffffffffffffffffffffffffffff1681565b5f8054906101000a900473ffffffffffffffffffffffffffffffffffffffff1673ffffffffffffffffffffffffffffffffffffffff163373ffffffffffffffffffffffffffffffffffffffff1614610462576040517f08c379a000000000000000000000000000000000000000000000000000000000815260040161045990610a7c565b60405180910390fd5b5f60025f9054906101000a900473ffffffffffffffffffffffffffffffffffffffff1673ffffffffffffffffffffffffffffffffffffffff166370a08231306040518263ffffffff1660e01b81526004016104bd9190610841565b602060405180830381865afa1580156104d8573d5f803e3d5ffd5b505050506040513d601f19601f820116820180604052508101906104fc91906109e1565b90505f8111610540576040517f08c379a000000000000000000000000000000000000000000000000000000000815260040161053790610ae4565b60405180910390fd5b6105ab5f8054906101000a900473ffffffffffffffffffffffffffffffffffffffff168260025f9054906101000a900473ffffffffffffffffffffffffffffffffffffffff1673ffffffffffffffffffffffffffffffffffffffff1661061b9092919063ffffffff16565b5f8054906101000a900473ffffffffffffffffffffffffffffffffffffffff1673ffffffffffffffffffffffffffffffffffffffff167f6352c5382c4a4578e712449ca65e83cdb392d045dfcf1cad9615189db2da244b826040516106109190610872565b60405180910390a250565b610695838473ffffffffffffffffffffffffffffffffffffffff1663a9059cbb858560405160240161064e929190610b02565b604051602081830303815290604052915060e01b6020820180517bffffffffffffffffffffffffffffffffffffffffffffffffffffffff838183161783525050505061069a565b505050565b5f8060205f8451602086015f885af1806106b9576040513d5f823e3d81fd5b3d92505f519150505f82146106d25760018114156106ed565b5f8473ffffffffffffffffffffffffffffffffffffffff163b145b1561072f57836040517f5274afe70000000000000000000000000000000000000000000000000000000081526004016107269190610841565b60405180910390fd5b50505050565b5f73ffffffffffffffffffffffffffffffffffffffff82169050919050565b5f819050919050565b5f61077761077261076d84610735565b610754565b610735565b9050919050565b5f6107888261075d565b9050919050565b5f6107998261077e565b9050919050565b6107a98161078f565b82525050565b5f6020820190506107c25f8301846107a0565b92915050565b5f80fd5b5f6107d682610735565b9050919050565b6107e6816107cc565b81146107f0575f80fd5b50565b5f81359050610801816107dd565b92915050565b5f6020828403121561081c5761081b6107c8565b5b5f610829848285016107f3565b91505092915050565b61083b816107cc565b82525050565b5f6020820190506108545f830184610832565b92915050565b5f819050919050565b61086c8161085a565b82525050565b5f6020820190506108855f830184610863565b92915050565b5f82825260208201905092915050565b7f4f6e6c79206465706c6f7965722063616e2063616c6c20746869732066756e635f8201527f74696f6e00000000000000000000000000000000000000000000000000000000602082015250565b5f6108f560248361088b565b91506109008261089b565b604082019050919050565b5f6020820190508181035f830152610922816108e9565b9050919050565b7f4e6577206f776e65722063616e6e6f7420626520746865207a65726f206164645f8201527f7265737300000000000000000000000000000000000000000000000000000000602082015250565b5f61098360248361088b565b915061098e82610929565b604082019050919050565b5f6020820190508181035f8301526109b081610977565b9050919050565b6109c08161085a565b81146109ca575f80fd5b50565b5f815190506109db816109b7565b92915050565b5f602082840312156109f6576109f56107c8565b5b5f610a03848285016109cd565b91505092915050565b7f4f6e6c79206f776e65722063616e2063616c6c20746869732066756e6374696f5f8201527f6e00000000000000000000000000000000000000000000000000000000000000602082015250565b5f610a6660218361088b565b9150610a7182610a0c565b604082019050919050565b5f6020820190508181035f830152610a9381610a5a565b9050919050565b7f4e6f20746f6b656e7320746f20776974686472617700000000000000000000005f82015250565b5f610ace60158361088b565b9150610ad982610a9a565b602082019050919050565b5f6020820190508181035f830152610afb81610ac2565b9050919050565b5f604082019050610b155f830185610832565b610b226020830184610863565b939250505056fea26469706673582212201ce029e6c02223959e472a47e4c7597ca24bfd1b543c48872486ef0a9e30357f64736f6c634300081a0033a26469706673582212205b252a001e81187adaa46f6fe1db2686280caa9c7735047ad1eaa7c02e22514564736f6c634300081a0033",
					"opcodes": "PUSH1 0x80 PUSH1 0x40 MSTORE CALLVALUE DUP1 ISZERO PUSH2 0xF JUMPI PUSH0 DUP1 REVERT JUMPDEST POP PUSH1 0x40 MLOAD PUSH2 0x1A85 CODESIZE SUB DUP1 PUSH2 0x1A85 DUP4 CODECOPY DUP2 DUP2 ADD PUSH1 0x40 MSTORE DUP2 ADD SWAP1 PUSH2 0x31 SWAP2 SWAP1 PUSH2 0x114 JUMP JUMPDEST CALLER PUSH0 DUP1 PUSH2 0x100 EXP DUP2 SLOAD DUP2 PUSH20 0xFFFFFFFFFFFFFFFFFFFFFFFFFFFFFFFFFFFFFFFF MUL NOT AND SWAP1 DUP4 PUSH20 0xFFFFFFFFFFFFFFFFFFFFFFFFFFFFFFFFFFFFFFFF AND MUL OR SWAP1 SSTORE POP DUP1 PUSH1 0x1 PUSH0 PUSH2 0x100 EXP DUP2 SLOAD DUP2 PUSH20 0xFFFFFFFFFFFFFFFFFFFFFFFFFFFFFFFFFFFFFFFF MUL NOT AND SWAP1 DUP4 PUSH20 0xFFFFFFFFFFFFFFFFFFFFFFFFFFFFFFFFFFFFFFFF AND MUL OR SWAP1 SSTORE POP POP PUSH2 0x13F JUMP JUMPDEST PUSH0 DUP1 REVERT JUMPDEST PUSH0 PUSH20 0xFFFFFFFFFFFFFFFFFFFFFFFFFFFFFFFFFFFFFFFF DUP3 AND SWAP1 POP SWAP2 SWAP1 POP JUMP JUMPDEST PUSH0 PUSH2 0xE3 DUP3 PUSH2 0xBA JUMP JUMPDEST SWAP1 POP SWAP2 SWAP1 POP JUMP JUMPDEST PUSH2 0xF3 DUP2 PUSH2 0xD9 JUMP JUMPDEST DUP2 EQ PUSH2 0xFD JUMPI PUSH0 DUP1 REVERT JUMPDEST POP JUMP JUMPDEST PUSH0 DUP2 MLOAD SWAP1 POP PUSH2 0x10E DUP2 PUSH2 0xEA JUMP JUMPDEST SWAP3 SWAP2 POP POP JUMP JUMPDEST PUSH0 PUSH1 0x20 DUP3 DUP5 SUB SLT ISZERO PUSH2 0x129 JUMPI PUSH2 0x128 PUSH2 0xB6 JUMP JUMPDEST JUMPDEST PUSH0 PUSH2 0x136 DUP5 DUP3 DUP6 ADD PUSH2 0x100 JUMP JUMPDEST SWAP2 POP POP SWAP3 SWAP2 POP POP JUMP JUMPDEST PUSH2 0x1939 DUP1 PUSH2 0x14C PUSH0 CODECOPY PUSH0 RETURN INVALID PUSH1 0x80 PUSH1 0x40 MSTORE CALLVALUE DUP1 ISZERO PUSH2 0xF JUMPI PUSH0 DUP1 REVERT JUMPDEST POP PUSH1 0x4 CALLDATASIZE LT PUSH2 0x7B JUMPI PUSH0 CALLDATALOAD PUSH1 0xE0 SHR DUP1 PUSH4 0x8455C423 GT PUSH2 0x59 JUMPI DUP1 PUSH4 0x8455C423 EQ PUSH2 0xE9 JUMPI DUP1 PUSH4 0xA57354A1 EQ PUSH2 0x119 JUMPI DUP1 PUSH4 0xA72C82D7 EQ PUSH2 0x135 JUMPI DUP1 PUSH4 0xD5F39488 EQ PUSH2 0x153 JUMPI PUSH2 0x7B JUMP JUMPDEST DUP1 PUSH4 0x2B32AF5 EQ PUSH2 0x7F JUMPI DUP1 PUSH4 0x21FE926A EQ PUSH2 0x9D JUMPI DUP1 PUSH4 0x646CE69B EQ PUSH2 0xB9 JUMPI JUMPDEST PUSH0 DUP1 REVERT JUMPDEST PUSH2 0x87 PUSH2 0x171 JUMP JUMPDEST PUSH1 0x40 MLOAD PUSH2 0x94 SWAP2 SWAP1 PUSH2 0x7D6 JUMP JUMPDEST PUSH1 0x40 MLOAD DUP1 SWAP2 SUB SWAP1 RETURN JUMPDEST PUSH2 0xB7 PUSH1 0x4 DUP1 CALLDATASIZE SUB DUP2 ADD SWAP1 PUSH2 0xB2 SWAP2 SWAP1 PUSH2 0x858 JUMP JUMPDEST PUSH2 0x196 JUMP JUMPDEST STOP JUMPDEST PUSH2 0xD3 PUSH1 0x4 DUP1 CALLDATASIZE SUB DUP2 ADD SWAP1 PUSH2 0xCE SWAP2 SWAP1 PUSH2 0x896 JUMP JUMPDEST PUSH2 0x2D5 JUMP JUMPDEST PUSH1 0x40 MLOAD PUSH2 0xE0 SWAP2 SWAP1 PUSH2 0x7D6 JUMP JUMPDEST PUSH1 0x40 MLOAD DUP1 SWAP2 SUB SWAP1 RETURN JUMPDEST PUSH2 0x103 PUSH1 0x4 DUP1 CALLDATASIZE SUB DUP2 ADD SWAP1 PUSH2 0xFE SWAP2 SWAP1 PUSH2 0x8F4 JUMP JUMPDEST PUSH2 0x47E JUMP JUMPDEST PUSH1 0x40 MLOAD PUSH2 0x110 SWAP2 SWAP1 PUSH2 0x7D6 JUMP JUMPDEST PUSH1 0x40 MLOAD DUP1 SWAP2 SUB SWAP1 RETURN JUMPDEST PUSH2 0x133 PUSH1 0x4 DUP1 CALLDATASIZE SUB DUP2 ADD SWAP1 PUSH2 0x12E SWAP2 SWAP1 PUSH2 0x896 JUMP JUMPDEST PUSH2 0x4B9 JUMP JUMPDEST STOP JUMPDEST PUSH2 0x13D PUSH2 0x63A JUMP JUMPDEST PUSH1 0x40 MLOAD PUSH2 0x14A SWAP2 SWAP1 PUSH2 0x9D6 JUMP JUMPDEST PUSH1 0x40 MLOAD DUP1 SWAP2 SUB SWAP1 RETURN JUMPDEST PUSH2 0x15B PUSH2 0x6C5 JUMP JUMPDEST PUSH1 0x40 MLOAD PUSH2 0x168 SWAP2 SWAP1 PUSH2 0x7D6 JUMP JUMPDEST PUSH1 0x40 MLOAD DUP1 SWAP2 SUB SWAP1 RETURN JUMPDEST PUSH1 0x1 PUSH0 SWAP1 SLOAD SWAP1 PUSH2 0x100 EXP SWAP1 DIV PUSH20 0xFFFFFFFFFFFFFFFFFFFFFFFFFFFFFFFFFFFFFFFF AND DUP2 JUMP JUMPDEST PUSH0 DUP1 SLOAD SWAP1 PUSH2 0x100 EXP SWAP1 DIV PUSH20 0xFFFFFFFFFFFFFFFFFFFFFFFFFFFFFFFFFFFFFFFF AND PUSH20 0xFFFFFFFFFFFFFFFFFFFFFFFFFFFFFFFFFFFFFFFF AND CALLER PUSH20 0xFFFFFFFFFFFFFFFFFFFFFFFFFFFFFFFFFFFFFFFF AND EQ PUSH2 0x223 JUMPI PUSH1 0x40 MLOAD PUSH32 0x8C379A000000000000000000000000000000000000000000000000000000000 DUP2 MSTORE PUSH1 0x4 ADD PUSH2 0x21A SWAP1 PUSH2 0xA76 JUMP JUMPDEST PUSH1 0x40 MLOAD DUP1 SWAP2 SUB SWAP1 REVERT JUMPDEST PUSH2 0x22C DUP3 PUSH2 0x6E8 JUMP JUMPDEST PUSH2 0x26B JUMPI PUSH1 0x40 MLOAD PUSH32 0x8C379A000000000000000000000000000000000000000000000000000000000 DUP2 MSTORE PUSH1 0x4 ADD PUSH2 0x262 SWAP1 PUSH2 0xB04 JUMP JUMPDEST PUSH1 0x40 MLOAD DUP1 SWAP2 SUB SWAP1 REVERT JUMPDEST DUP2 PUSH20 0xFFFFFFFFFFFFFFFFFFFFFFFFFFFFFFFFFFFFFFFF AND PUSH4 0x880CDC31 DUP3 PUSH1 0x40 MLOAD DUP3 PUSH4 0xFFFFFFFF AND PUSH1 0xE0 SHL DUP2 MSTORE PUSH1 0x4 ADD PUSH2 0x2A4 SWAP2 SWAP1 PUSH2 0x7D6 JUMP JUMPDEST PUSH0 PUSH1 0x40 MLOAD DUP1 DUP4 SUB DUP2 PUSH0 DUP8 DUP1 EXTCODESIZE ISZERO DUP1 ISZERO PUSH2 0x2BB JUMPI PUSH0 DUP1 REVERT JUMPDEST POP GAS CALL ISZERO DUP1 ISZERO PUSH2 0x2CD JUMPI RETURNDATASIZE PUSH0 DUP1 RETURNDATACOPY RETURNDATASIZE PUSH0 REVERT JUMPDEST POP POP POP POP POP POP JUMP JUMPDEST PUSH0 DUP1 PUSH0 SWAP1 SLOAD SWAP1 PUSH2 0x100 EXP SWAP1 DIV PUSH20 0xFFFFFFFFFFFFFFFFFFFFFFFFFFFFFFFFFFFFFFFF AND PUSH20 0xFFFFFFFFFFFFFFFFFFFFFFFFFFFFFFFFFFFFFFFF AND CALLER PUSH20 0xFFFFFFFFFFFFFFFFFFFFFFFFFFFFFFFFFFFFFFFF AND EQ PUSH2 0x364 JUMPI PUSH1 0x40 MLOAD PUSH32 0x8C379A000000000000000000000000000000000000000000000000000000000 DUP2 MSTORE PUSH1 0x4 ADD PUSH2 0x35B SWAP1 PUSH2 0xA76 JUMP JUMPDEST PUSH1 0x40 MLOAD DUP1 SWAP2 SUB SWAP1 REVERT JUMPDEST PUSH0 DUP3 PUSH1 0x1 PUSH0 SWAP1 SLOAD SWAP1 PUSH2 0x100 EXP SWAP1 DIV PUSH20 0xFFFFFFFFFFFFFFFFFFFFFFFFFFFFFFFFFFFFFFFF AND PUSH1 0x40 MLOAD PUSH2 0x394 SWAP1 PUSH2 0x78A JUMP JUMPDEST PUSH2 0x39F SWAP3 SWAP2 SWAP1 PUSH2 0xB22 JUMP JUMPDEST PUSH1 0x40 MLOAD DUP1 SWAP2 SUB SWAP1 PUSH0 CREATE DUP1 ISZERO DUP1 ISZERO PUSH2 0x3B8 JUMPI RETURNDATASIZE PUSH0 DUP1 RETURNDATACOPY RETURNDATASIZE PUSH0 REVERT JUMPDEST POP SWAP1 POP PUSH1 0x2 DUP2 SWAP1 DUP1 PUSH1 0x1 DUP2 SLOAD ADD DUP1 DUP3 SSTORE DUP1 SWAP2 POP POP PUSH1 0x1 SWAP1 SUB SWAP1 PUSH0 MSTORE PUSH1 0x20 PUSH0 KECCAK256 ADD PUSH0 SWAP1 SWAP2 SWAP1 SWAP2 SWAP1 SWAP2 PUSH2 0x100 EXP DUP2 SLOAD DUP2 PUSH20 0xFFFFFFFFFFFFFFFFFFFFFFFFFFFFFFFFFFFFFFFF MUL NOT AND SWAP1 DUP4 PUSH20 0xFFFFFFFFFFFFFFFFFFFFFFFFFFFFFFFFFFFFFFFF AND MUL OR SWAP1 SSTORE POP DUP3 PUSH20 0xFFFFFFFFFFFFFFFFFFFFFFFFFFFFFFFFFFFFFFFF AND DUP2 PUSH20 0xFFFFFFFFFFFFFFFFFFFFFFFFFFFFFFFFFFFFFFFF AND PUSH32 0xF25144576B87C0DB53FD13E964C2B18299EE19D7D44D4B2636144644ACFF745B PUSH1 0x40 MLOAD PUSH1 0x40 MLOAD DUP1 SWAP2 SUB SWAP1 LOG3 DUP1 SWAP2 POP POP SWAP2 SWAP1 POP JUMP JUMPDEST PUSH1 0x2 DUP2 DUP2 SLOAD DUP2 LT PUSH2 0x48D JUMPI PUSH0 DUP1 REVERT JUMPDEST SWAP1 PUSH0 MSTORE PUSH1 0x20 PUSH0 KECCAK256 ADD PUSH0 SWAP2 POP SLOAD SWAP1 PUSH2 0x100 EXP SWAP1 DIV PUSH20 0xFFFFFFFFFFFFFFFFFFFFFFFFFFFFFFFFFFFFFFFF AND DUP2 JUMP JUMPDEST PUSH0 DUP1 SLOAD SWAP1 PUSH2 0x100 EXP SWAP1 DIV PUSH20 0xFFFFFFFFFFFFFFFFFFFFFFFFFFFFFFFFFFFFFFFF AND PUSH20 0xFFFFFFFFFFFFFFFFFFFFFFFFFFFFFFFFFFFFFFFF AND CALLER PUSH20 0xFFFFFFFFFFFFFFFFFFFFFFFFFFFFFFFFFFFFFFFF AND EQ PUSH2 0x546 JUMPI PUSH1 0x40 MLOAD PUSH32 0x8C379A000000000000000000000000000000000000000000000000000000000 DUP2 MSTORE PUSH1 0x4 ADD PUSH2 0x53D SWAP1 PUSH2 0xA76 JUMP JUMPDEST PUSH1 0x40 MLOAD DUP1 SWAP2 SUB SWAP1 REVERT JUMPDEST PUSH0 PUSH20 0xFFFFFFFFFFFFFFFFFFFFFFFFFFFFFFFFFFFFFFFF AND DUP2 PUSH20 0xFFFFFFFFFFFFFFFFFFFFFFFFFFFFFFFFFFFFFFFF AND SUB PUSH2 0x5B4 JUMPI PUSH1 0x40 MLOAD PUSH32 0x8C379A000000000000000000000000000000000000000000000000000000000 DUP2 MSTORE PUSH1 0x4 ADD PUSH2 0x5AB SWAP1 PUSH2 0xBB9 JUMP JUMPDEST PUSH1 0x40 MLOAD DUP1 SWAP2 SUB SWAP1 REVERT JUMPDEST DUP1 PUSH1 0x1 PUSH0 PUSH2 0x100 EXP DUP2 SLOAD DUP2 PUSH20 0xFFFFFFFFFFFFFFFFFFFFFFFFFFFFFFFFFFFFFFFF MUL NOT AND SWAP1 DUP4 PUSH20 0xFFFFFFFFFFFFFFFFFFFFFFFFFFFFFFFFFFFFFFFF AND MUL OR SWAP1 SSTORE POP DUP1 PUSH20 0xFFFFFFFFFFFFFFFFFFFFFFFFFFFFFFFFFFFFFFFF AND PUSH32 0x55B6B6FE98D11600785423C3F7630DEE64B0F6FA54E8A25362AA522D83DFD243 PUSH1 0x40 MLOAD PUSH1 0x40 MLOAD DUP1 SWAP2 SUB SWAP1 LOG2 POP JUMP JUMPDEST PUSH1 0x60 PUSH1 0x2 DUP1 SLOAD DUP1 PUSH1 0x20 MUL PUSH1 0x20 ADD PUSH1 0x40 MLOAD SWAP1 DUP2 ADD PUSH1 0x40 MSTORE DUP1 SWAP3 SWAP2 SWAP1 DUP2 DUP2 MSTORE PUSH1 0x20 ADD DUP3 DUP1 SLOAD DUP1 ISZERO PUSH2 0x6BB JUMPI PUSH1 0x20 MUL DUP3 ADD SWAP2 SWAP1 PUSH0 MSTORE PUSH1 0x20 PUSH0 KECCAK256 SWAP1 JUMPDEST DUP2 PUSH0 SWAP1 SLOAD SWAP1 PUSH2 0x100 EXP SWAP1 DIV PUSH20 0xFFFFFFFFFFFFFFFFFFFFFFFFFFFFFFFFFFFFFFFF AND PUSH20 0xFFFFFFFFFFFFFFFFFFFFFFFFFFFFFFFFFFFFFFFF AND DUP2 MSTORE PUSH1 0x20 ADD SWAP1 PUSH1 0x1 ADD SWAP1 DUP1 DUP4 GT PUSH2 0x672 JUMPI JUMPDEST POP POP POP POP POP SWAP1 POP SWAP1 JUMP JUMPDEST PUSH0 DUP1 SLOAD SWAP1 PUSH2 0x100 EXP SWAP1 DIV PUSH20 0xFFFFFFFFFFFFFFFFFFFFFFFFFFFFFFFFFFFFFFFF AND DUP2 JUMP JUMPDEST PUSH0 DUP1 PUSH0 SWAP1 POP JUMPDEST PUSH1 0x2 DUP1 SLOAD SWAP1 POP DUP2 LT ISZERO PUSH2 0x780 JUMPI DUP3 PUSH20 0xFFFFFFFFFFFFFFFFFFFFFFFFFFFFFFFFFFFFFFFF AND PUSH1 0x2 DUP3 DUP2 SLOAD DUP2 LT PUSH2 0x726 JUMPI PUSH2 0x725 PUSH2 0xBD7 JUMP JUMPDEST JUMPDEST SWAP1 PUSH0 MSTORE PUSH1 0x20 PUSH0 KECCAK256 ADD PUSH0 SWAP1 SLOAD SWAP1 PUSH2 0x100 EXP SWAP1 DIV PUSH20 0xFFFFFFFFFFFFFFFFFFFFFFFFFFFFFFFFFFFFFFFF AND PUSH20 0xFFFFFFFFFFFFFFFFFFFFFFFFFFFFFFFFFFFFFFFF AND SUB PUSH2 0x773 JUMPI PUSH1 0x1 SWAP2 POP POP PUSH2 0x785 JUMP JUMPDEST DUP1 DUP1 PUSH1 0x1 ADD SWAP2 POP POP PUSH2 0x6EE JUMP JUMPDEST POP PUSH0 SWAP1 POP JUMPDEST SWAP2 SWAP1 POP JUMP JUMPDEST PUSH2 0xCFF DUP1 PUSH2 0xC05 DUP4 CODECOPY ADD SWAP1 JUMP JUMPDEST PUSH0 PUSH20 0xFFFFFFFFFFFFFFFFFFFFFFFFFFFFFFFFFFFFFFFF DUP3 AND SWAP1 POP SWAP2 SWAP1 POP JUMP JUMPDEST PUSH0 PUSH2 0x7C0 DUP3 PUSH2 0x797 JUMP JUMPDEST SWAP1 POP SWAP2 SWAP1 POP JUMP JUMPDEST PUSH2 0x7D0 DUP2 PUSH2 0x7B6 JUMP JUMPDEST DUP3 MSTORE POP POP JUMP JUMPDEST PUSH0 PUSH1 0x20 DUP3 ADD SWAP1 POP PUSH2 0x7E9 PUSH0 DUP4 ADD DUP5 PUSH2 0x7C7 JUMP JUMPDEST SWAP3 SWAP2 POP POP JUMP JUMPDEST PUSH0 DUP1 REVERT JUMPDEST PUSH0 PUSH2 0x7FD DUP3 PUSH2 0x797 JUMP JUMPDEST SWAP1 POP SWAP2 SWAP1 POP JUMP JUMPDEST PUSH2 0x80D DUP2 PUSH2 0x7F3 JUMP JUMPDEST DUP2 EQ PUSH2 0x817 JUMPI PUSH0 DUP1 REVERT JUMPDEST POP JUMP JUMPDEST PUSH0 DUP2 CALLDATALOAD SWAP1 POP PUSH2 0x828 DUP2 PUSH2 0x804 JUMP JUMPDEST SWAP3 SWAP2 POP POP JUMP JUMPDEST PUSH2 0x837 DUP2 PUSH2 0x7B6 JUMP JUMPDEST DUP2 EQ PUSH2 0x841 JUMPI PUSH0 DUP1 REVERT JUMPDEST POP JUMP JUMPDEST PUSH0 DUP2 CALLDATALOAD SWAP1 POP PUSH2 0x852 DUP2 PUSH2 0x82E JUMP JUMPDEST SWAP3 SWAP2 POP POP JUMP JUMPDEST PUSH0 DUP1 PUSH1 0x40 DUP4 DUP6 SUB SLT ISZERO PUSH2 0x86E JUMPI PUSH2 0x86D PUSH2 0x7EF JUMP JUMPDEST JUMPDEST PUSH0 PUSH2 0x87B DUP6 DUP3 DUP7 ADD PUSH2 0x81A JUMP JUMPDEST SWAP3 POP POP PUSH1 0x20 PUSH2 0x88C DUP6 DUP3 DUP7 ADD PUSH2 0x844 JUMP JUMPDEST SWAP2 POP POP SWAP3 POP SWAP3 SWAP1 POP JUMP JUMPDEST PUSH0 PUSH1 0x20 DUP3 DUP5 SUB SLT ISZERO PUSH2 0x8AB JUMPI PUSH2 0x8AA PUSH2 0x7EF JUMP JUMPDEST JUMPDEST PUSH0 PUSH2 0x8B8 DUP5 DUP3 DUP6 ADD PUSH2 0x844 JUMP JUMPDEST SWAP2 POP POP SWAP3 SWAP2 POP POP JUMP JUMPDEST PUSH0 DUP2 SWAP1 POP SWAP2 SWAP1 POP JUMP JUMPDEST PUSH2 0x8D3 DUP2 PUSH2 0x8C1 JUMP JUMPDEST DUP2 EQ PUSH2 0x8DD JUMPI PUSH0 DUP1 REVERT JUMPDEST POP JUMP JUMPDEST PUSH0 DUP2 CALLDATALOAD SWAP1 POP PUSH2 0x8EE DUP2 PUSH2 0x8CA JUMP JUMPDEST SWAP3 SWAP2 POP POP JUMP JUMPDEST PUSH0 PUSH1 0x20 DUP3 DUP5 SUB SLT ISZERO PUSH2 0x909 JUMPI PUSH2 0x908 PUSH2 0x7EF JUMP JUMPDEST JUMPDEST PUSH0 PUSH2 0x916 DUP5 DUP3 DUP6 ADD PUSH2 0x8E0 JUMP JUMPDEST SWAP2 POP POP SWAP3 SWAP2 POP POP JUMP JUMPDEST PUSH0 DUP2 MLOAD SWAP1 POP SWAP2 SWAP1 POP JUMP JUMPDEST PUSH0 DUP3 DUP3 MSTORE PUSH1 0x20 DUP3 ADD SWAP1 POP SWAP3 SWAP2 POP POP JUMP JUMPDEST PUSH0 DUP2 SWAP1 POP PUSH1 0x20 DUP3 ADD SWAP1 POP SWAP2 SWAP1 POP JUMP JUMPDEST PUSH2 0x951 DUP2 PUSH2 0x7B6 JUMP JUMPDEST DUP3 MSTORE POP POP JUMP JUMPDEST PUSH0 PUSH2 0x962 DUP4 DUP4 PUSH2 0x948 JUMP JUMPDEST PUSH1 0x20 DUP4 ADD SWAP1 POP SWAP3 SWAP2 POP POP JUMP JUMPDEST PUSH0 PUSH1 0x20 DUP3 ADD SWAP1 POP SWAP2 SWAP1 POP JUMP JUMPDEST PUSH0 PUSH2 0x984 DUP3 PUSH2 0x91F JUMP JUMPDEST PUSH2 0x98E DUP2 DUP6 PUSH2 0x929 JUMP JUMPDEST SWAP4 POP PUSH2 0x999 DUP4 PUSH2 0x939 JUMP JUMPDEST DUP1 PUSH0 JUMPDEST DUP4 DUP2 LT ISZERO PUSH2 0x9C9 JUMPI DUP2 MLOAD PUSH2 0x9B0 DUP9 DUP3 PUSH2 0x957 JUMP JUMPDEST SWAP8 POP PUSH2 0x9BB DUP4 PUSH2 0x96E JUMP JUMPDEST SWAP3 POP POP PUSH1 0x1 DUP2 ADD SWAP1 POP PUSH2 0x99C JUMP JUMPDEST POP DUP6 SWAP4 POP POP POP POP SWAP3 SWAP2 POP POP JUMP JUMPDEST PUSH0 PUSH1 0x20 DUP3 ADD SWAP1 POP DUP2 DUP2 SUB PUSH0 DUP4 ADD MSTORE PUSH2 0x9EE DUP2 DUP5 PUSH2 0x97A JUMP JUMPDEST SWAP1 POP SWAP3 SWAP2 POP POP JUMP JUMPDEST PUSH0 DUP3 DUP3 MSTORE PUSH1 0x20 DUP3 ADD SWAP1 POP SWAP3 SWAP2 POP POP JUMP JUMPDEST PUSH32 0x4F6E6C79206465706C6F7965722063616E2063616C6C20746869732066756E63 PUSH0 DUP3 ADD MSTORE PUSH32 0x74696F6E00000000000000000000000000000000000000000000000000000000 PUSH1 0x20 DUP3 ADD MSTORE POP JUMP JUMPDEST PUSH0 PUSH2 0xA60 PUSH1 0x24 DUP4 PUSH2 0x9F6 JUMP JUMPDEST SWAP2 POP PUSH2 0xA6B DUP3 PUSH2 0xA06 JUMP JUMPDEST PUSH1 0x40 DUP3 ADD SWAP1 POP SWAP2 SWAP1 POP JUMP JUMPDEST PUSH0 PUSH1 0x20 DUP3 ADD SWAP1 POP DUP2 DUP2 SUB PUSH0 DUP4 ADD MSTORE PUSH2 0xA8D DUP2 PUSH2 0xA54 JUMP JUMPDEST SWAP1 POP SWAP2 SWAP1 POP JUMP JUMPDEST PUSH32 0x57616C6C65742061646472657373206973206E6F742061206465706C6F796564 PUSH0 DUP3 ADD MSTORE PUSH32 0x2077616C6C657400000000000000000000000000000000000000000000000000 PUSH1 0x20 DUP3 ADD MSTORE POP JUMP JUMPDEST PUSH0 PUSH2 0xAEE PUSH1 0x27 DUP4 PUSH2 0x9F6 JUMP JUMPDEST SWAP2 POP PUSH2 0xAF9 DUP3 PUSH2 0xA94 JUMP JUMPDEST PUSH1 0x40 DUP3 ADD SWAP1 POP SWAP2 SWAP1 POP JUMP JUMPDEST PUSH0 PUSH1 0x20 DUP3 ADD SWAP1 POP DUP2 DUP2 SUB PUSH0 DUP4 ADD MSTORE PUSH2 0xB1B DUP2 PUSH2 0xAE2 JUMP JUMPDEST SWAP1 POP SWAP2 SWAP1 POP JUMP JUMPDEST PUSH0 PUSH1 0x40 DUP3 ADD SWAP1 POP PUSH2 0xB35 PUSH0 DUP4 ADD DUP6 PUSH2 0x7C7 JUMP JUMPDEST PUSH2 0xB42 PUSH1 0x20 DUP4 ADD DUP5 PUSH2 0x7C7 JUMP JUMPDEST SWAP4 SWAP3 POP POP POP JUMP JUMPDEST PUSH32 0x4E657720677265656E20746F6B656E20616464726573732063616E6E6F742062 PUSH0 DUP3 ADD MSTORE PUSH32 0x65207A65726F2061646472657373000000000000000000000000000000000000 PUSH1 0x20 DUP3 ADD MSTORE POP JUMP JUMPDEST PUSH0 PUSH2 0xBA3 PUSH1 0x2E DUP4 PUSH2 0x9F6 JUMP JUMPDEST SWAP2 POP PUSH2 0xBAE DUP3 PUSH2 0xB49 JUMP JUMPDEST PUSH1 0x40 DUP3 ADD SWAP1 POP SWAP2 SWAP1 POP JUMP JUMPDEST PUSH0 PUSH1 0x20 DUP3 ADD SWAP1 POP DUP2 DUP2 SUB PUSH0 DUP4 ADD MSTORE PUSH2 0xBD0 DUP2 PUSH2 0xB97 JUMP JUMPDEST SWAP1 POP SWAP2 SWAP1 POP JUMP JUMPDEST PUSH32 0x4E487B7100000000000000000000000000000000000000000000000000000000 PUSH0 MSTORE PUSH1 0x32 PUSH1 0x4 MSTORE PUSH1 0x24 PUSH0 REVERT INVALID PUSH1 0x80 PUSH1 0x40 MSTORE CALLVALUE DUP1 ISZERO PUSH2 0xF JUMPI PUSH0 DUP1 REVERT JUMPDEST POP PUSH1 0x40 MLOAD PUSH2 0xCFF CODESIZE SUB DUP1 PUSH2 0xCFF DUP4 CODECOPY DUP2 DUP2 ADD PUSH1 0x40 MSTORE DUP2 ADD SWAP1 PUSH2 0x31 SWAP2 SWAP1 PUSH2 0x155 JUMP JUMPDEST DUP2 PUSH0 DUP1 PUSH2 0x100 EXP DUP2 SLOAD DUP2 PUSH20 0xFFFFFFFFFFFFFFFFFFFFFFFFFFFFFFFFFFFFFFFF MUL NOT AND SWAP1 DUP4 PUSH20 0xFFFFFFFFFFFFFFFFFFFFFFFFFFFFFFFFFFFFFFFF AND MUL OR SWAP1 SSTORE POP CALLER PUSH1 0x1 PUSH0 PUSH2 0x100 EXP DUP2 SLOAD DUP2 PUSH20 0xFFFFFFFFFFFFFFFFFFFFFFFFFFFFFFFFFFFFFFFF MUL NOT AND SWAP1 DUP4 PUSH20 0xFFFFFFFFFFFFFFFFFFFFFFFFFFFFFFFFFFFFFFFF AND MUL OR SWAP1 SSTORE POP DUP1 PUSH1 0x2 PUSH0 PUSH2 0x100 EXP DUP2 SLOAD DUP2 PUSH20 0xFFFFFFFFFFFFFFFFFFFFFFFFFFFFFFFFFFFFFFFF MUL NOT AND SWAP1 DUP4 PUSH20 0xFFFFFFFFFFFFFFFFFFFFFFFFFFFFFFFFFFFFFFFF AND MUL OR SWAP1 SSTORE POP POP POP PUSH2 0x193 JUMP JUMPDEST PUSH0 DUP1 REVERT JUMPDEST PUSH0 PUSH20 0xFFFFFFFFFFFFFFFFFFFFFFFFFFFFFFFFFFFFFFFF DUP3 AND SWAP1 POP SWAP2 SWAP1 POP JUMP JUMPDEST PUSH0 PUSH2 0x124 DUP3 PUSH2 0xFB JUMP JUMPDEST SWAP1 POP SWAP2 SWAP1 POP JUMP JUMPDEST PUSH2 0x134 DUP2 PUSH2 0x11A JUMP JUMPDEST DUP2 EQ PUSH2 0x13E JUMPI PUSH0 DUP1 REVERT JUMPDEST POP JUMP JUMPDEST PUSH0 DUP2 MLOAD SWAP1 POP PUSH2 0x14F DUP2 PUSH2 0x12B JUMP JUMPDEST SWAP3 SWAP2 POP POP JUMP JUMPDEST PUSH0 DUP1 PUSH1 0x40 DUP4 DUP6 SUB SLT ISZERO PUSH2 0x16B JUMPI PUSH2 0x16A PUSH2 0xF7 JUMP JUMPDEST JUMPDEST PUSH0 PUSH2 0x178 DUP6 DUP3 DUP7 ADD PUSH2 0x141 JUMP JUMPDEST SWAP3 POP POP PUSH1 0x20 PUSH2 0x189 DUP6 DUP3 DUP7 ADD PUSH2 0x141 JUMP JUMPDEST SWAP2 POP POP SWAP3 POP SWAP3 SWAP1 POP JUMP JUMPDEST PUSH2 0xB5F DUP1 PUSH2 0x1A0 PUSH0 CODECOPY PUSH0 RETURN INVALID PUSH1 0x80 PUSH1 0x40 MSTORE PUSH1 0x4 CALLDATASIZE LT PUSH2 0x58 JUMPI PUSH0 CALLDATALOAD PUSH1 0xE0 SHR DUP1 PUSH4 0x2B32AF5 EQ PUSH2 0x61 JUMPI DUP1 PUSH4 0x880CDC31 EQ PUSH2 0x8B JUMPI DUP1 PUSH4 0x8DA5CB5B EQ PUSH2 0xB3 JUMPI DUP1 PUSH4 0x99E9C1DD EQ PUSH2 0xDD JUMPI DUP1 PUSH4 0xD5F39488 EQ PUSH2 0x107 JUMPI DUP1 PUSH4 0xEA017105 EQ PUSH2 0x131 JUMPI PUSH2 0x5F JUMP JUMPDEST CALLDATASIZE PUSH2 0x5F JUMPI STOP JUMPDEST STOP JUMPDEST CALLVALUE DUP1 ISZERO PUSH2 0x6C JUMPI PUSH0 DUP1 REVERT JUMPDEST POP PUSH2 0x75 PUSH2 0x147 JUMP JUMPDEST PUSH1 0x40 MLOAD PUSH2 0x82 SWAP2 SWAP1 PUSH2 0x7AF JUMP JUMPDEST PUSH1 0x40 MLOAD DUP1 SWAP2 SUB SWAP1 RETURN JUMPDEST CALLVALUE DUP1 ISZERO PUSH2 0x96 JUMPI PUSH0 DUP1 REVERT JUMPDEST POP PUSH2 0xB1 PUSH1 0x4 DUP1 CALLDATASIZE SUB DUP2 ADD SWAP1 PUSH2 0xAC SWAP2 SWAP1 PUSH2 0x807 JUMP JUMPDEST PUSH2 0x16C JUMP JUMPDEST STOP JUMPDEST CALLVALUE DUP1 ISZERO PUSH2 0xBE JUMPI PUSH0 DUP1 REVERT JUMPDEST POP PUSH2 0xC7 PUSH2 0x2EE JUMP JUMPDEST PUSH1 0x40 MLOAD PUSH2 0xD4 SWAP2 SWAP1 PUSH2 0x841 JUMP JUMPDEST PUSH1 0x40 MLOAD DUP1 SWAP2 SUB SWAP1 RETURN JUMPDEST CALLVALUE DUP1 ISZERO PUSH2 0xE8 JUMPI PUSH0 DUP1 REVERT JUMPDEST POP PUSH2 0xF1 PUSH2 0x311 JUMP JUMPDEST PUSH1 0x40 MLOAD PUSH2 0xFE SWAP2 SWAP1 PUSH2 0x872 JUMP JUMPDEST PUSH1 0x40 MLOAD DUP1 SWAP2 SUB SWAP1 RETURN JUMPDEST CALLVALUE DUP1 ISZERO PUSH2 0x112 JUMPI PUSH0 DUP1 REVERT JUMPDEST POP PUSH2 0x11B PUSH2 0x3B0 JUMP JUMPDEST PUSH1 0x40 MLOAD PUSH2 0x128 SWAP2 SWAP1 PUSH2 0x841 JUMP JUMPDEST PUSH1 0x40 MLOAD DUP1 SWAP2 SUB SWAP1 RETURN JUMPDEST CALLVALUE DUP1 ISZERO PUSH2 0x13C JUMPI PUSH0 DUP1 REVERT JUMPDEST POP PUSH2 0x145 PUSH2 0x3D5 JUMP JUMPDEST STOP JUMPDEST PUSH1 0x2 PUSH0 SWAP1 SLOAD SWAP1 PUSH2 0x100 EXP SWAP1 DIV PUSH20 0xFFFFFFFFFFFFFFFFFFFFFFFFFFFFFFFFFFFFFFFF AND DUP2 JUMP JUMPDEST PUSH1 0x1 PUSH0 SWAP1 SLOAD SWAP1 PUSH2 0x100 EXP SWAP1 DIV PUSH20 0xFFFFFFFFFFFFFFFFFFFFFFFFFFFFFFFFFFFFFFFF AND PUSH20 0xFFFFFFFFFFFFFFFFFFFFFFFFFFFFFFFFFFFFFFFF AND CALLER PUSH20 0xFFFFFFFFFFFFFFFFFFFFFFFFFFFFFFFFFFFFFFFF AND EQ PUSH2 0x1FB JUMPI PUSH1 0x40 MLOAD PUSH32 0x8C379A000000000000000000000000000000000000000000000000000000000 DUP2 MSTORE PUSH1 0x4 ADD PUSH2 0x1F2 SWAP1 PUSH2 0x90B JUMP JUMPDEST PUSH1 0x40 MLOAD DUP1 SWAP2 SUB SWAP1 REVERT JUMPDEST PUSH0 PUSH20 0xFFFFFFFFFFFFFFFFFFFFFFFFFFFFFFFFFFFFFFFF AND DUP2 PUSH20 0xFFFFFFFFFFFFFFFFFFFFFFFFFFFFFFFFFFFFFFFF AND SUB PUSH2 0x269 JUMPI PUSH1 0x40 MLOAD PUSH32 0x8C379A000000000000000000000000000000000000000000000000000000000 DUP2 MSTORE PUSH1 0x4 ADD PUSH2 0x260 SWAP1 PUSH2 0x999 JUMP JUMPDEST PUSH1 0x40 MLOAD DUP1 SWAP2 SUB SWAP1 REVERT JUMPDEST DUP1 PUSH0 DUP1 PUSH2 0x100 EXP DUP2 SLOAD DUP2 PUSH20 0xFFFFFFFFFFFFFFFFFFFFFFFFFFFFFFFFFFFFFFFF MUL NOT AND SWAP1 DUP4 PUSH20 0xFFFFFFFFFFFFFFFFFFFFFFFFFFFFFFFFFFFFFFFF AND MUL OR SWAP1 SSTORE POP DUP1 PUSH20 0xFFFFFFFFFFFFFFFFFFFFFFFFFFFFFFFFFFFFFFFF AND PUSH32 0x4FFD725FC4A22075E9EC71C59EDF9C38CDEB588A91B24FC5B61388C5BE41282B PUSH1 0x40 MLOAD PUSH1 0x40 MLOAD DUP1 SWAP2 SUB SWAP1 LOG2 POP JUMP JUMPDEST PUSH0 DUP1 SLOAD SWAP1 PUSH2 0x100 EXP SWAP1 DIV PUSH20 0xFFFFFFFFFFFFFFFFFFFFFFFFFFFFFFFFFFFFFFFF AND DUP2 JUMP JUMPDEST PUSH0 PUSH1 0x2 PUSH0 SWAP1 SLOAD SWAP1 PUSH2 0x100 EXP SWAP1 DIV PUSH20 0xFFFFFFFFFFFFFFFFFFFFFFFFFFFFFFFFFFFFFFFF AND PUSH20 0xFFFFFFFFFFFFFFFFFFFFFFFFFFFFFFFFFFFFFFFF AND PUSH4 0x70A08231 ADDRESS PUSH1 0x40 MLOAD DUP3 PUSH4 0xFFFFFFFF AND PUSH1 0xE0 SHL DUP2 MSTORE PUSH1 0x4 ADD PUSH2 0x36C SWAP2 SWAP1 PUSH2 0x841 JUMP JUMPDEST PUSH1 0x20 PUSH1 0x40 MLOAD DUP1 DUP4 SUB DUP2 DUP7 GAS STATICCALL ISZERO DUP1 ISZERO PUSH2 0x387 JUMPI RETURNDATASIZE PUSH0 DUP1 RETURNDATACOPY RETURNDATASIZE PUSH0 REVERT JUMPDEST POP POP POP POP PUSH1 0x40 MLOAD RETURNDATASIZE PUSH1 0x1F NOT PUSH1 0x1F DUP3 ADD AND DUP3 ADD DUP1 PUSH1 0x40 MSTORE POP DUP2 ADD SWAP1 PUSH2 0x3AB SWAP2 SWAP1 PUSH2 0x9E1 JUMP JUMPDEST SWAP1 POP SWAP1 JUMP JUMPDEST PUSH1 0x1 PUSH0 SWAP1 SLOAD SWAP1 PUSH2 0x100 EXP SWAP1 DIV PUSH20 0xFFFFFFFFFFFFFFFFFFFFFFFFFFFFFFFFFFFFFFFF AND DUP2 JUMP JUMPDEST PUSH0 DUP1 SLOAD SWAP1 PUSH2 0x100 EXP SWAP1 DIV PUSH20 0xFFFFFFFFFFFFFFFFFFFFFFFFFFFFFFFFFFFFFFFF AND PUSH20 0xFFFFFFFFFFFFFFFFFFFFFFFFFFFFFFFFFFFFFFFF AND CALLER PUSH20 0xFFFFFFFFFFFFFFFFFFFFFFFFFFFFFFFFFFFFFFFF AND EQ PUSH2 0x462 JUMPI PUSH1 0x40 MLOAD PUSH32 0x8C379A000000000000000000000000000000000000000000000000000000000 DUP2 MSTORE PUSH1 0x4 ADD PUSH2 0x459 SWAP1 PUSH2 0xA7C JUMP JUMPDEST PUSH1 0x40 MLOAD DUP1 SWAP2 SUB SWAP1 REVERT JUMPDEST PUSH0 PUSH1 0x2 PUSH0 SWAP1 SLOAD SWAP1 PUSH2 0x100 EXP SWAP1 DIV PUSH20 0xFFFFFFFFFFFFFFFFFFFFFFFFFFFFFFFFFFFFFFFF AND PUSH20 0xFFFFFFFFFFFFFFFFFFFFFFFFFFFFFFFFFFFFFFFF AND PUSH4 0x70A08231 ADDRESS PUSH1 0x40 MLOAD DUP3 PUSH4 0xFFFFFFFF AND PUSH1 0xE0 SHL DUP2 MSTORE PUSH1 0x4 ADD PUSH2 0x4BD SWAP2 SWAP1 PUSH2 0x841 JUMP JUMPDEST PUSH1 0x20 PUSH1 0x40 MLOAD DUP1 DUP4 SUB DUP2 DUP7 GAS STATICCALL ISZERO DUP1 ISZERO PUSH2 0x4D8 JUMPI RETURNDATASIZE PUSH0 DUP1 RETURNDATACOPY RETURNDATASIZE PUSH0 REVERT JUMPDEST POP POP POP POP PUSH1 0x40 MLOAD RETURNDATASIZE PUSH1 0x1F NOT PUSH1 0x1F DUP3 ADD AND DUP3 ADD DUP1 PUSH1 0x40 MSTORE POP DUP2 ADD SWAP1 PUSH2 0x4FC SWAP2 SWAP1 PUSH2 0x9E1 JUMP JUMPDEST SWAP1 POP PUSH0 DUP2 GT PUSH2 0x540 JUMPI PUSH1 0x40 MLOAD PUSH32 0x8C379A000000000000000000000000000000000000000000000000000000000 DUP2 MSTORE PUSH1 0x4 ADD PUSH2 0x537 SWAP1 PUSH2 0xAE4 JUMP JUMPDEST PUSH1 0x40 MLOAD DUP1 SWAP2 SUB SWAP1 REVERT JUMPDEST PUSH2 0x5AB PUSH0 DUP1 SLOAD SWAP1 PUSH2 0x100 EXP SWAP1 DIV PUSH20 0xFFFFFFFFFFFFFFFFFFFFFFFFFFFFFFFFFFFFFFFF AND DUP3 PUSH1 0x2 PUSH0 SWAP1 SLOAD SWAP1 PUSH2 0x100 EXP SWAP1 DIV PUSH20 0xFFFFFFFFFFFFFFFFFFFFFFFFFFFFFFFFFFFFFFFF AND PUSH20 0xFFFFFFFFFFFFFFFFFFFFFFFFFFFFFFFFFFFFFFFF AND PUSH2 0x61B SWAP1 SWAP3 SWAP2 SWAP1 PUSH4 0xFFFFFFFF AND JUMP JUMPDEST PUSH0 DUP1 SLOAD SWAP1 PUSH2 0x100 EXP SWAP1 DIV PUSH20 0xFFFFFFFFFFFFFFFFFFFFFFFFFFFFFFFFFFFFFFFF AND PUSH20 0xFFFFFFFFFFFFFFFFFFFFFFFFFFFFFFFFFFFFFFFF AND PUSH32 0x6352C5382C4A4578E712449CA65E83CDB392D045DFCF1CAD9615189DB2DA244B DUP3 PUSH1 0x40 MLOAD PUSH2 0x610 SWAP2 SWAP1 PUSH2 0x872 JUMP JUMPDEST PUSH1 0x40 MLOAD DUP1 SWAP2 SUB SWAP1 LOG2 POP JUMP JUMPDEST PUSH2 0x695 DUP4 DUP5 PUSH20 0xFFFFFFFFFFFFFFFFFFFFFFFFFFFFFFFFFFFFFFFF AND PUSH4 0xA9059CBB DUP6 DUP6 PUSH1 0x40 MLOAD PUSH1 0x24 ADD PUSH2 0x64E SWAP3 SWAP2 SWAP1 PUSH2 0xB02 JUMP JUMPDEST PUSH1 0x40 MLOAD PUSH1 0x20 DUP2 DUP4 SUB SUB DUP2 MSTORE SWAP1 PUSH1 0x40 MSTORE SWAP2 POP PUSH1 0xE0 SHL PUSH1 0x20 DUP3 ADD DUP1 MLOAD PUSH28 0xFFFFFFFFFFFFFFFFFFFFFFFFFFFFFFFFFFFFFFFFFFFFFFFFFFFFFFFF DUP4 DUP2 DUP4 AND OR DUP4 MSTORE POP POP POP POP PUSH2 0x69A JUMP JUMPDEST POP POP POP JUMP JUMPDEST PUSH0 DUP1 PUSH1 0x20 PUSH0 DUP5 MLOAD PUSH1 0x20 DUP7 ADD PUSH0 DUP9 GAS CALL DUP1 PUSH2 0x6B9 JUMPI PUSH1 0x40 MLOAD RETURNDATASIZE PUSH0 DUP3 RETURNDATACOPY RETURNDATASIZE DUP2 REVERT JUMPDEST RETURNDATASIZE SWAP3 POP PUSH0 MLOAD SWAP2 POP POP PUSH0 DUP3 EQ PUSH2 0x6D2 JUMPI PUSH1 0x1 DUP2 EQ ISZERO PUSH2 0x6ED JUMP JUMPDEST PUSH0 DUP5 PUSH20 0xFFFFFFFFFFFFFFFFFFFFFFFFFFFFFFFFFFFFFFFF AND EXTCODESIZE EQ JUMPDEST ISZERO PUSH2 0x72F JUMPI DUP4 PUSH1 0x40 MLOAD PUSH32 0x5274AFE700000000000000000000000000000000000000000000000000000000 DUP2 MSTORE PUSH1 0x4 ADD PUSH2 0x726 SWAP2 SWAP1 PUSH2 0x841 JUMP JUMPDEST PUSH1 0x40 MLOAD DUP1 SWAP2 SUB SWAP1 REVERT JUMPDEST POP POP POP POP JUMP JUMPDEST PUSH0 PUSH20 0xFFFFFFFFFFFFFFFFFFFFFFFFFFFFFFFFFFFFFFFF DUP3 AND SWAP1 POP SWAP2 SWAP1 POP JUMP JUMPDEST PUSH0 DUP2 SWAP1 POP SWAP2 SWAP1 POP JUMP JUMPDEST PUSH0 PUSH2 0x777 PUSH2 0x772 PUSH2 0x76D DUP5 PUSH2 0x735 JUMP JUMPDEST PUSH2 0x754 JUMP JUMPDEST PUSH2 0x735 JUMP JUMPDEST SWAP1 POP SWAP2 SWAP1 POP JUMP JUMPDEST PUSH0 PUSH2 0x788 DUP3 PUSH2 0x75D JUMP JUMPDEST SWAP1 POP SWAP2 SWAP1 POP JUMP JUMPDEST PUSH0 PUSH2 0x799 DUP3 PUSH2 0x77E JUMP JUMPDEST SWAP1 POP SWAP2 SWAP1 POP JUMP JUMPDEST PUSH2 0x7A9 DUP2 PUSH2 0x78F JUMP JUMPDEST DUP3 MSTORE POP POP JUMP JUMPDEST PUSH0 PUSH1 0x20 DUP3 ADD SWAP1 POP PUSH2 0x7C2 PUSH0 DUP4 ADD DUP5 PUSH2 0x7A0 JUMP JUMPDEST SWAP3 SWAP2 POP POP JUMP JUMPDEST PUSH0 DUP1 REVERT JUMPDEST PUSH0 PUSH2 0x7D6 DUP3 PUSH2 0x735 JUMP JUMPDEST SWAP1 POP SWAP2 SWAP1 POP JUMP JUMPDEST PUSH2 0x7E6 DUP2 PUSH2 0x7CC JUMP JUMPDEST DUP2 EQ PUSH2 0x7F0 JUMPI PUSH0 DUP1 REVERT JUMPDEST POP JUMP JUMPDEST PUSH0 DUP2 CALLDATALOAD SWAP1 POP PUSH2 0x801 DUP2 PUSH2 0x7DD JUMP JUMPDEST SWAP3 SWAP2 POP POP JUMP JUMPDEST PUSH0 PUSH1 0x20 DUP3 DUP5 SUB SLT ISZERO PUSH2 0x81C JUMPI PUSH2 0x81B PUSH2 0x7C8 JUMP JUMPDEST JUMPDEST PUSH0 PUSH2 0x829 DUP5 DUP3 DUP6 ADD PUSH2 0x7F3 JUMP JUMPDEST SWAP2 POP POP SWAP3 SWAP2 POP POP JUMP JUMPDEST PUSH2 0x83B DUP2 PUSH2 0x7CC JUMP JUMPDEST DUP3 MSTORE POP POP JUMP JUMPDEST PUSH0 PUSH1 0x20 DUP3 ADD SWAP1 POP PUSH2 0x854 PUSH0 DUP4 ADD DUP5 PUSH2 0x832 JUMP JUMPDEST SWAP3 SWAP2 POP POP JUMP JUMPDEST PUSH0 DUP2 SWAP1 POP SWAP2 SWAP1 POP JUMP JUMPDEST PUSH2 0x86C DUP2 PUSH2 0x85A JUMP JUMPDEST DUP3 MSTORE POP POP JUMP JUMPDEST PUSH0 PUSH1 0x20 DUP3 ADD SWAP1 POP PUSH2 0x885 PUSH0 DUP4 ADD DUP5 PUSH2 0x863 JUMP JUMPDEST SWAP3 SWAP2 POP POP JUMP JUMPDEST PUSH0 DUP3 DUP3 MSTORE PUSH1 0x20 DUP3 ADD SWAP1 POP SWAP3 SWAP2 POP POP JUMP JUMPDEST PUSH32 0x4F6E6C79206465706C6F7965722063616E2063616C6C20746869732066756E63 PUSH0 DUP3 ADD MSTORE PUSH32 0x74696F6E00000000000000000000000000000000000000000000000000000000 PUSH1 0x20 DUP3 ADD MSTORE POP JUMP JUMPDEST PUSH0 PUSH2 0x8F5 PUSH1 0x24 DUP4 PUSH2 0x88B JUMP JUMPDEST SWAP2 POP PUSH2 0x900 DUP3 PUSH2 0x89B JUMP JUMPDEST PUSH1 0x40 DUP3 ADD SWAP1 POP SWAP2 SWAP1 POP JUMP JUMPDEST PUSH0 PUSH1 0x20 DUP3 ADD SWAP1 POP DUP2 DUP2 SUB PUSH0 DUP4 ADD MSTORE PUSH2 0x922 DUP2 PUSH2 0x8E9 JUMP JUMPDEST SWAP1 POP SWAP2 SWAP1 POP JUMP JUMPDEST PUSH32 0x4E6577206F776E65722063616E6E6F7420626520746865207A65726F20616464 PUSH0 DUP3 ADD MSTORE PUSH32 0x7265737300000000000000000000000000000000000000000000000000000000 PUSH1 0x20 DUP3 ADD MSTORE POP JUMP JUMPDEST PUSH0 PUSH2 0x983 PUSH1 0x24 DUP4 PUSH2 0x88B JUMP JUMPDEST SWAP2 POP PUSH2 0x98E DUP3 PUSH2 0x929 JUMP JUMPDEST PUSH1 0x40 DUP3 ADD SWAP1 POP SWAP2 SWAP1 POP JUMP JUMPDEST PUSH0 PUSH1 0x20 DUP3 ADD SWAP1 POP DUP2 DUP2 SUB PUSH0 DUP4 ADD MSTORE PUSH2 0x9B0 DUP2 PUSH2 0x977 JUMP JUMPDEST SWAP1 POP SWAP2 SWAP1 POP JUMP JUMPDEST PUSH2 0x9C0 DUP2 PUSH2 0x85A JUMP JUMPDEST DUP2 EQ PUSH2 0x9CA JUMPI PUSH0 DUP1 REVERT JUMPDEST POP JUMP JUMPDEST PUSH0 DUP2 MLOAD SWAP1 POP PUSH2 0x9DB DUP2 PUSH2 0x9B7 JUMP JUMPDEST SWAP3 SWAP2 POP POP JUMP JUMPDEST PUSH0 PUSH1 0x20 DUP3 DUP5 SUB SLT ISZERO PUSH2 0x9F6 JUMPI PUSH2 0x9F5 PUSH2 0x7C8 JUMP JUMPDEST JUMPDEST PUSH0 PUSH2 0xA03 DUP5 DUP3 DUP6 ADD PUSH2 0x9CD JUMP JUMPDEST SWAP2 POP POP SWAP3 SWAP2 POP POP JUMP JUMPDEST PUSH32 0x4F6E6C79206F776E65722063616E2063616C6C20746869732066756E6374696F PUSH0 DUP3 ADD MSTORE PUSH32 0x6E00000000000000000000000000000000000000000000000000000000000000 PUSH1 0x20 DUP3 ADD MSTORE POP JUMP JUMPDEST PUSH0 PUSH2 0xA66 PUSH1 0x21 DUP4 PUSH2 0x88B JUMP JUMPDEST SWAP2 POP PUSH2 0xA71 DUP3 PUSH2 0xA0C JUMP JUMPDEST PUSH1 0x40 DUP3 ADD SWAP1 POP SWAP2 SWAP1 POP JUMP JUMPDEST PUSH0 PUSH1 0x20 DUP3 ADD SWAP1 POP DUP2 DUP2 SUB PUSH0 DUP4 ADD MSTORE PUSH2 0xA93 DUP2 PUSH2 0xA5A JUMP JUMPDEST SWAP1 POP SWAP2 SWAP1 POP JUMP JUMPDEST PUSH32 0x4E6F20746F6B656E7320746F2077697468647261770000000000000000000000 PUSH0 DUP3 ADD MSTORE POP JUMP JUMPDEST PUSH0 PUSH2 0xACE PUSH1 0x15 DUP4 PUSH2 0x88B JUMP JUMPDEST SWAP2 POP PUSH2 0xAD9 DUP3 PUSH2 0xA9A JUMP JUMPDEST PUSH1 0x20 DUP3 ADD SWAP1 POP SWAP2 SWAP1 POP JUMP JUMPDEST PUSH0 PUSH1 0x20 DUP3 ADD SWAP1 POP DUP2 DUP2 SUB PUSH0 DUP4 ADD MSTORE PUSH2 0xAFB DUP2 PUSH2 0xAC2 JUMP JUMPDEST SWAP1 POP SWAP2 SWAP1 POP JUMP JUMPDEST PUSH0 PUSH1 0x40 DUP3 ADD SWAP1 POP PUSH2 0xB15 PUSH0 DUP4 ADD DUP6 PUSH2 0x832 JUMP JUMPDEST PUSH2 0xB22 PUSH1 0x20 DUP4 ADD DUP5 PUSH2 0x863 JUMP JUMPDEST SWAP4 SWAP3 POP POP POP JUMP INVALID LOG2 PUSH5 0x6970667358 0x22 SLT KECCAK256 SHR 0xE0 0x29 0xE6 0xC0 0x22 0x23 SWAP6 SWAP15 SELFBALANCE 0x2A SELFBALANCE 0xE4 0xC7 MSIZE PUSH29 0xA24BFD1B543C48872486EF0A9E30357F64736F6C634300081A0033A264 PUSH10 0x706673582212205B252A STOP 0x1E DUP2 XOR PUSH27 0xDAA46F6FE1DB2686280CAA9C7735047AD1EAA7C02E22514564736F PUSH13 0x634300081A0033000000000000 "
				},
				"gasEstimates": {
					"creation": {
						"codeDepositCost": "1291400",
						"executionCost": "infinite",
						"totalCost": "infinite"
					},
					"external": {
						"deploySmartWallet(address)": "infinite",
						"deployedWallets(uint256)": "4944",
						"deployer()": "2571",
						"getDeployedWallets()": "infinite",
						"greenToken()": "2509",
						"updateGreenToken(address)": "28098",
						"updateOwnerInWallet(address,address)": "infinite"
					},
					"internal": {
						"isDeployedWallet(address)": "infinite"
					}
				},
				"methodIdentifiers": {
					"deploySmartWallet(address)": "646ce69b",
					"deployedWallets(uint256)": "8455c423",
					"deployer()": "d5f39488",
					"getDeployedWallets()": "a72c82d7",
					"greenToken()": "02b32af5",
					"updateGreenToken(address)": "a57354a1",
					"updateOwnerInWallet(address,address)": "21fe926a"
				}
			},
			"storageLayout": {
				"storage": [
					{
						"astId": 1032,
						"contract": "ETHBangkok/SmartWallet/SmartWalletFactory.sol:SmartWalletFactory",
						"label": "deployer",
						"offset": 0,
						"slot": "0",
						"type": "t_address"
					},
					{
						"astId": 1034,
						"contract": "ETHBangkok/SmartWallet/SmartWalletFactory.sol:SmartWalletFactory",
						"label": "greenToken",
						"offset": 0,
						"slot": "1",
						"type": "t_address"
					},
					{
						"astId": 1037,
						"contract": "ETHBangkok/SmartWallet/SmartWalletFactory.sol:SmartWalletFactory",
						"label": "deployedWallets",
						"offset": 0,
						"slot": "2",
						"type": "t_array(t_address)dyn_storage"
					}
				],
				"types": {
					"t_address": {
						"encoding": "inplace",
						"label": "address",
						"numberOfBytes": "20"
					},
					"t_array(t_address)dyn_storage": {
						"base": "t_address",
						"encoding": "dynamic_array",
						"label": "address[]",
						"numberOfBytes": "32"
					}
				}
			},
			"userdoc": {
				"kind": "user",
				"methods": {},
				"version": 1
			}
		}
	}
}