{
	"ETHBangkok/GreenToken/DataStorage.sol": {
		"DataStorage": {
			"abi": [
				{
					"anonymous": false,
					"inputs": [
						{
							"indexed": false,
							"internalType": "uint256",
							"name": "CO2_emissions",
							"type": "uint256"
						},
						{
							"indexed": false,
							"internalType": "uint256",
							"name": "methane_emissions",
							"type": "uint256"
						},
						{
							"indexed": false,
							"internalType": "uint256",
							"name": "NOx_emissions",
							"type": "uint256"
						},
						{
							"indexed": false,
							"internalType": "uint256",
							"name": "PM_emissions",
							"type": "uint256"
						},
						{
							"indexed": false,
							"internalType": "uint256",
							"name": "humidity",
							"type": "uint256"
						},
						{
							"indexed": false,
							"internalType": "uint256",
							"name": "temperature",
							"type": "uint256"
						},
						{
							"indexed": true,
							"internalType": "address",
							"name": "walletAddress",
							"type": "address"
						},
						{
							"indexed": false,
							"internalType": "uint256",
							"name": "timestamp",
							"type": "uint256"
						}
					],
					"name": "DataStored",
					"type": "event"
				},
				{
					"inputs": [
						{
							"internalType": "uint256",
							"name": "",
							"type": "uint256"
						}
					],
					"name": "dataEntries",
					"outputs": [
						{
							"internalType": "uint256",
							"name": "CO2_emissions",
							"type": "uint256"
						},
						{
							"internalType": "uint256",
							"name": "methane_emissions",
							"type": "uint256"
						},
						{
							"internalType": "uint256",
							"name": "NOx_emissions",
							"type": "uint256"
						},
						{
							"internalType": "uint256",
							"name": "PM_emissions",
							"type": "uint256"
						},
						{
							"internalType": "uint256",
							"name": "humidity",
							"type": "uint256"
						},
						{
							"internalType": "uint256",
							"name": "temperature",
							"type": "uint256"
						},
						{
							"internalType": "address",
							"name": "walletAddress",
							"type": "address"
						},
						{
							"internalType": "uint256",
							"name": "timestamp",
							"type": "uint256"
						}
					],
					"stateMutability": "view",
					"type": "function"
				},
				{
					"inputs": [
						{
							"internalType": "address",
							"name": "_walletAddress",
							"type": "address"
						}
					],
					"name": "getDataByWallet",
					"outputs": [
						{
							"internalType": "uint256[]",
							"name": "",
							"type": "uint256[]"
						}
					],
					"stateMutability": "view",
					"type": "function"
				},
				{
					"inputs": [],
					"name": "getDataEntries",
					"outputs": [
						{
							"components": [
								{
									"internalType": "uint256",
									"name": "CO2_emissions",
									"type": "uint256"
								},
								{
									"internalType": "uint256",
									"name": "methane_emissions",
									"type": "uint256"
								},
								{
									"internalType": "uint256",
									"name": "NOx_emissions",
									"type": "uint256"
								},
								{
									"internalType": "uint256",
									"name": "PM_emissions",
									"type": "uint256"
								},
								{
									"internalType": "uint256",
									"name": "humidity",
									"type": "uint256"
								},
								{
									"internalType": "uint256",
									"name": "temperature",
									"type": "uint256"
								},
								{
									"internalType": "address",
									"name": "walletAddress",
									"type": "address"
								},
								{
									"internalType": "uint256",
									"name": "timestamp",
									"type": "uint256"
								}
							],
							"internalType": "struct DataStorage.DataEntry[]",
							"name": "",
							"type": "tuple[]"
						}
					],
					"stateMutability": "view",
					"type": "function"
				},
				{
					"inputs": [
						{
							"internalType": "uint256",
							"name": "index",
							"type": "uint256"
						}
					],
					"name": "getDataEntry",
					"outputs": [
						{
							"internalType": "uint256",
							"name": "",
							"type": "uint256"
						},
						{
							"internalType": "uint256",
							"name": "",
							"type": "uint256"
						},
						{
							"internalType": "uint256",
							"name": "",
							"type": "uint256"
						},
						{
							"internalType": "uint256",
							"name": "",
							"type": "uint256"
						},
						{
							"internalType": "uint256",
							"name": "",
							"type": "uint256"
						},
						{
							"internalType": "uint256",
							"name": "",
							"type": "uint256"
						},
						{
							"internalType": "address",
							"name": "",
							"type": "address"
						},
						{
							"internalType": "uint256",
							"name": "",
							"type": "uint256"
						}
					],
					"stateMutability": "view",
					"type": "function"
				},
				{
					"inputs": [
						{
							"internalType": "uint256",
							"name": "_CO2_emissions",
							"type": "uint256"
						},
						{
							"internalType": "uint256",
							"name": "_methane_emissions",
							"type": "uint256"
						},
						{
							"internalType": "uint256",
							"name": "_NOx_emissions",
							"type": "uint256"
						},
						{
							"internalType": "uint256",
							"name": "_PM_emissions",
							"type": "uint256"
						},
						{
							"internalType": "uint256",
							"name": "_humidity",
							"type": "uint256"
						},
						{
							"internalType": "uint256",
							"name": "_temperature",
							"type": "uint256"
						},
						{
							"internalType": "address",
							"name": "_walletAddress",
							"type": "address"
						}
					],
					"name": "storeData",
					"outputs": [],
					"stateMutability": "nonpayable",
					"type": "function"
				}
			],
			"devdoc": {
				"kind": "dev",
				"methods": {},
				"version": 1
			},
			"evm": {
				"assembly": "    /* \"ETHBangkok/GreenToken/DataStorage.sol\":61:3501  contract DataStorage {... */\n  mstore(0x40, 0x80)\n  callvalue\n  dup1\n  iszero\n  tag_1\n  jumpi\n  0x00\n  dup1\n  revert\ntag_1:\n  pop\n  dataSize(sub_0)\n  dup1\n  dataOffset(sub_0)\n  0x00\n  codecopy\n  0x00\n  return\nstop\n\nsub_0: assembly {\n        /* \"ETHBangkok/GreenToken/DataStorage.sol\":61:3501  contract DataStorage {... */\n      mstore(0x40, 0x80)\n      callvalue\n      dup1\n      iszero\n      tag_1\n      jumpi\n      0x00\n      dup1\n      revert\n    tag_1:\n      pop\n      jumpi(tag_2, lt(calldatasize, 0x04))\n      shr(0xe0, calldataload(0x00))\n      dup1\n      0x325f4658\n      eq\n      tag_3\n      jumpi\n      dup1\n      0x54751a38\n      eq\n      tag_4\n      jumpi\n      dup1\n      0xb8bd5f25\n      eq\n      tag_5\n      jumpi\n      dup1\n      0xf75d8ada\n      eq\n      tag_6\n      jumpi\n      dup1\n      0xffad0c8f\n      eq\n      tag_7\n      jumpi\n    tag_2:\n      0x00\n      dup1\n      revert\n        /* \"ETHBangkok/GreenToken/DataStorage.sol\":372:402  DataEntry[] public dataEntries */\n    tag_3:\n      tag_8\n      0x04\n      dup1\n      calldatasize\n      sub\n      dup2\n      add\n      swap1\n      tag_9\n      swap2\n      swap1\n      tag_10\n      jump\t// in\n    tag_9:\n      tag_11\n      jump\t// in\n    tag_8:\n      mload(0x40)\n      tag_12\n      swap9\n      swap8\n      swap7\n      swap6\n      swap5\n      swap4\n      swap3\n      swap2\n      swap1\n      tag_13\n      jump\t// in\n    tag_12:\n      mload(0x40)\n      dup1\n      swap2\n      sub\n      swap1\n      return\n        /* \"ETHBangkok/GreenToken/DataStorage.sol\":2432:3496  function getDataByWallet(address _walletAddress) public view returns (... */\n    tag_4:\n      tag_14\n      0x04\n      dup1\n      calldatasize\n      sub\n      dup2\n      add\n      swap1\n      tag_15\n      swap2\n      swap1\n      tag_16\n      jump\t// in\n    tag_15:\n      tag_17\n      jump\t// in\n    tag_14:\n      mload(0x40)\n      tag_18\n      swap2\n      swap1\n      tag_19\n      jump\t// in\n    tag_18:\n      mload(0x40)\n      dup1\n      swap2\n      sub\n      swap1\n      return\n        /* \"ETHBangkok/GreenToken/DataStorage.sol\":699:1674  function storeData(... */\n    tag_5:\n      tag_20\n      0x04\n      dup1\n      calldatasize\n      sub\n      dup2\n      add\n      swap1\n      tag_21\n      swap2\n      swap1\n      tag_22\n      jump\t// in\n    tag_21:\n      tag_23\n      jump\t// in\n    tag_20:\n      stop\n        /* \"ETHBangkok/GreenToken/DataStorage.sol\":1794:2424  function getDataEntry(uint256 index) public view returns (... */\n    tag_6:\n      tag_24\n      0x04\n      dup1\n      calldatasize\n      sub\n      dup2\n      add\n      swap1\n      tag_25\n      swap2\n      swap1\n      tag_10\n      jump\t// in\n    tag_25:\n      tag_26\n      jump\t// in\n    tag_24:\n      mload(0x40)\n      tag_27\n      swap9\n      swap8\n      swap7\n      swap6\n      swap5\n      swap4\n      swap3\n      swap2\n      swap1\n      tag_13\n      jump\t// in\n    tag_27:\n      mload(0x40)\n      dup1\n      swap2\n      sub\n      swap1\n      return\n        /* \"ETHBangkok/GreenToken/DataStorage.sol\":1682:1786  function getDataEntries() public view returns (DataEntry[] memory) {... */\n    tag_7:\n      tag_28\n      tag_29\n      jump\t// in\n    tag_28:\n      mload(0x40)\n      tag_30\n      swap2\n      swap1\n      tag_31\n      jump\t// in\n    tag_30:\n      mload(0x40)\n      dup1\n      swap2\n      sub\n      swap1\n      return\n        /* \"ETHBangkok/GreenToken/DataStorage.sol\":372:402  DataEntry[] public dataEntries */\n    tag_11:\n      0x00\n      dup2\n      dup2\n      sload\n      dup2\n      lt\n      tag_32\n      jumpi\n      0x00\n      dup1\n      revert\n    tag_32:\n      swap1\n      0x00\n      mstore\n      keccak256(0x00, 0x20)\n      swap1\n      0x08\n      mul\n      add\n      0x00\n      swap2\n      pop\n      swap1\n      pop\n      dup1\n      0x00\n      add\n      sload\n      swap1\n      dup1\n      0x01\n      add\n      sload\n      swap1\n      dup1\n      0x02\n      add\n      sload\n      swap1\n      dup1\n      0x03\n      add\n      sload\n      swap1\n      dup1\n      0x04\n      add\n      sload\n      swap1\n      dup1\n      0x05\n      add\n      sload\n      swap1\n      dup1\n      0x06\n      add\n      0x00\n      swap1\n      sload\n      swap1\n      0x0100\n      exp\n      swap1\n      div\n      0xffffffffffffffffffffffffffffffffffffffff\n      and\n      swap1\n      dup1\n      0x07\n      add\n      sload\n      swap1\n      pop\n      dup9\n      jump\t// out\n        /* \"ETHBangkok/GreenToken/DataStorage.sol\":2432:3496  function getDataByWallet(address _walletAddress) public view returns (... */\n    tag_17:\n        /* \"ETHBangkok/GreenToken/DataStorage.sol\":2512:2528  uint256[] memory */\n      0x60\n        /* \"ETHBangkok/GreenToken/DataStorage.sol\":2547:2560  uint256 count */\n      0x00\n        /* \"ETHBangkok/GreenToken/DataStorage.sol\":2582:2591  uint256 i */\n      dup1\n        /* \"ETHBangkok/GreenToken/DataStorage.sol\":2577:2746  for (uint256 i = 0; i < dataEntries.length; i++) {... */\n    tag_35:\n        /* \"ETHBangkok/GreenToken/DataStorage.sol\":2601:2612  dataEntries */\n      0x00\n        /* \"ETHBangkok/GreenToken/DataStorage.sol\":2601:2619  dataEntries.length */\n      dup1\n      sload\n      swap1\n      pop\n        /* \"ETHBangkok/GreenToken/DataStorage.sol\":2597:2598  i */\n      dup2\n        /* \"ETHBangkok/GreenToken/DataStorage.sol\":2597:2619  i < dataEntries.length */\n      lt\n        /* \"ETHBangkok/GreenToken/DataStorage.sol\":2577:2746  for (uint256 i = 0; i < dataEntries.length; i++) {... */\n      iszero\n      tag_36\n      jumpi\n        /* \"ETHBangkok/GreenToken/DataStorage.sol\":2677:2691  _walletAddress */\n      dup4\n        /* \"ETHBangkok/GreenToken/DataStorage.sol\":2645:2691  dataEntries[i].walletAddress == _walletAddress */\n      0xffffffffffffffffffffffffffffffffffffffff\n      and\n        /* \"ETHBangkok/GreenToken/DataStorage.sol\":2645:2656  dataEntries */\n      0x00\n        /* \"ETHBangkok/GreenToken/DataStorage.sol\":2657:2658  i */\n      dup3\n        /* \"ETHBangkok/GreenToken/DataStorage.sol\":2645:2659  dataEntries[i] */\n      dup2\n      sload\n      dup2\n      lt\n      tag_38\n      jumpi\n      tag_39\n      tag_40\n      jump\t// in\n    tag_39:\n    tag_38:\n      swap1\n      0x00\n      mstore\n      keccak256(0x00, 0x20)\n      swap1\n      0x08\n      mul\n      add\n        /* \"ETHBangkok/GreenToken/DataStorage.sol\":2645:2673  dataEntries[i].walletAddress */\n      0x06\n      add\n      0x00\n      swap1\n      sload\n      swap1\n      0x0100\n      exp\n      swap1\n      div\n      0xffffffffffffffffffffffffffffffffffffffff\n      and\n        /* \"ETHBangkok/GreenToken/DataStorage.sol\":2645:2691  dataEntries[i].walletAddress == _walletAddress */\n      0xffffffffffffffffffffffffffffffffffffffff\n      and\n      sub\n        /* \"ETHBangkok/GreenToken/DataStorage.sol\":2641:2735  if (dataEntries[i].walletAddress == _walletAddress) {... */\n      tag_42\n      jumpi\n        /* \"ETHBangkok/GreenToken/DataStorage.sol\":2712:2719  count++ */\n      dup2\n      dup1\n      tag_43\n      swap1\n      tag_44\n      jump\t// in\n    tag_43:\n      swap3\n      pop\n      pop\n        /* \"ETHBangkok/GreenToken/DataStorage.sol\":2641:2735  if (dataEntries[i].walletAddress == _walletAddress) {... */\n    tag_42:\n        /* \"ETHBangkok/GreenToken/DataStorage.sol\":2621:2624  i++ */\n      dup1\n      dup1\n      0x01\n      add\n      swap2\n      pop\n      pop\n        /* \"ETHBangkok/GreenToken/DataStorage.sol\":2577:2746  for (uint256 i = 0; i < dataEntries.length; i++) {... */\n      jump(tag_35)\n    tag_36:\n      pop\n        /* \"ETHBangkok/GreenToken/DataStorage.sol\":2758:2781  uint256[] memory result */\n      0x00\n        /* \"ETHBangkok/GreenToken/DataStorage.sol\":2806:2807  6 */\n      0x06\n        /* \"ETHBangkok/GreenToken/DataStorage.sol\":2798:2803  count */\n      dup3\n        /* \"ETHBangkok/GreenToken/DataStorage.sol\":2798:2807  count * 6 */\n      tag_45\n      swap2\n      swap1\n      tag_46\n      jump\t// in\n    tag_45:\n        /* \"ETHBangkok/GreenToken/DataStorage.sol\":2784:2808  new uint256[](count * 6) */\n      0xffffffffffffffff\n      dup2\n      gt\n      iszero\n      tag_47\n      jumpi\n      tag_48\n      tag_49\n      jump\t// in\n    tag_48:\n    tag_47:\n      mload(0x40)\n      swap1\n      dup1\n      dup3\n      mstore\n      dup1\n      0x20\n      mul\n      0x20\n      add\n      dup3\n      add\n      0x40\n      mstore\n      dup1\n      iszero\n      tag_50\n      jumpi\n      dup2\n      0x20\n      add\n      0x20\n      dup3\n      mul\n      dup1\n      calldatasize\n      dup4\n      calldatacopy\n      dup1\n      dup3\n      add\n      swap2\n      pop\n      pop\n      swap1\n      pop\n    tag_50:\n      pop\n        /* \"ETHBangkok/GreenToken/DataStorage.sol\":2758:2808  uint256[] memory result = new uint256[](count * 6) */\n      swap1\n      pop\n        /* \"ETHBangkok/GreenToken/DataStorage.sol\":2820:2833  uint256 index */\n      0x00\n        /* \"ETHBangkok/GreenToken/DataStorage.sol\":2853:2862  uint256 i */\n      dup1\n        /* \"ETHBangkok/GreenToken/DataStorage.sol\":2865:2876  dataEntries */\n      dup1\n        /* \"ETHBangkok/GreenToken/DataStorage.sol\":2865:2883  dataEntries.length */\n      dup1\n      sload\n      swap1\n      pop\n        /* \"ETHBangkok/GreenToken/DataStorage.sol\":2853:2883  uint256 i = dataEntries.length */\n      swap1\n      pop\n        /* \"ETHBangkok/GreenToken/DataStorage.sol\":2848:3463  for (uint256 i = dataEntries.length; i > 0; i--) {... */\n    tag_51:\n        /* \"ETHBangkok/GreenToken/DataStorage.sol\":2889:2890  0 */\n      0x00\n        /* \"ETHBangkok/GreenToken/DataStorage.sol\":2885:2886  i */\n      dup2\n        /* \"ETHBangkok/GreenToken/DataStorage.sol\":2885:2890  i > 0 */\n      gt\n        /* \"ETHBangkok/GreenToken/DataStorage.sol\":2848:3463  for (uint256 i = dataEntries.length; i > 0; i--) {... */\n      iszero\n      tag_52\n      jumpi\n        /* \"ETHBangkok/GreenToken/DataStorage.sol\":2952:2966  _walletAddress */\n      dup6\n        /* \"ETHBangkok/GreenToken/DataStorage.sol\":2916:2966  dataEntries[i - 1].walletAddress == _walletAddress */\n      0xffffffffffffffffffffffffffffffffffffffff\n      and\n        /* \"ETHBangkok/GreenToken/DataStorage.sol\":2916:2927  dataEntries */\n      0x00\n        /* \"ETHBangkok/GreenToken/DataStorage.sol\":2932:2933  1 */\n      0x01\n        /* \"ETHBangkok/GreenToken/DataStorage.sol\":2928:2929  i */\n      dup4\n        /* \"ETHBangkok/GreenToken/DataStorage.sol\":2928:2933  i - 1 */\n      tag_54\n      swap2\n      swap1\n      tag_55\n      jump\t// in\n    tag_54:\n        /* \"ETHBangkok/GreenToken/DataStorage.sol\":2916:2934  dataEntries[i - 1] */\n      dup2\n      sload\n      dup2\n      lt\n      tag_56\n      jumpi\n      tag_57\n      tag_40\n      jump\t// in\n    tag_57:\n    tag_56:\n      swap1\n      0x00\n      mstore\n      keccak256(0x00, 0x20)\n      swap1\n      0x08\n      mul\n      add\n        /* \"ETHBangkok/GreenToken/DataStorage.sol\":2916:2948  dataEntries[i - 1].walletAddress */\n      0x06\n      add\n      0x00\n      swap1\n      sload\n      swap1\n      0x0100\n      exp\n      swap1\n      div\n      0xffffffffffffffffffffffffffffffffffffffff\n      and\n        /* \"ETHBangkok/GreenToken/DataStorage.sol\":2916:2966  dataEntries[i - 1].walletAddress == _walletAddress */\n      0xffffffffffffffffffffffffffffffffffffffff\n      and\n      sub\n        /* \"ETHBangkok/GreenToken/DataStorage.sol\":2912:3452  if (dataEntries[i - 1].walletAddress == _walletAddress) {... */\n      tag_59\n      jumpi\n        /* \"ETHBangkok/GreenToken/DataStorage.sol\":3007:3018  dataEntries */\n      0x00\n        /* \"ETHBangkok/GreenToken/DataStorage.sol\":3023:3024  1 */\n      0x01\n        /* \"ETHBangkok/GreenToken/DataStorage.sol\":3019:3020  i */\n      dup3\n        /* \"ETHBangkok/GreenToken/DataStorage.sol\":3019:3024  i - 1 */\n      tag_60\n      swap2\n      swap1\n      tag_55\n      jump\t// in\n    tag_60:\n        /* \"ETHBangkok/GreenToken/DataStorage.sol\":3007:3025  dataEntries[i - 1] */\n      dup2\n      sload\n      dup2\n      lt\n      tag_61\n      jumpi\n      tag_62\n      tag_40\n      jump\t// in\n    tag_62:\n    tag_61:\n      swap1\n      0x00\n      mstore\n      keccak256(0x00, 0x20)\n      swap1\n      0x08\n      mul\n      add\n        /* \"ETHBangkok/GreenToken/DataStorage.sol\":3007:3039  dataEntries[i - 1].CO2_emissions */\n      0x00\n      add\n      sload\n        /* \"ETHBangkok/GreenToken/DataStorage.sol\":2987:2993  result */\n      dup4\n        /* \"ETHBangkok/GreenToken/DataStorage.sol\":3002:3003  6 */\n      0x06\n        /* \"ETHBangkok/GreenToken/DataStorage.sol\":2994:2999  index */\n      dup5\n        /* \"ETHBangkok/GreenToken/DataStorage.sol\":2994:3003  index * 6 */\n      tag_64\n      swap2\n      swap1\n      tag_46\n      jump\t// in\n    tag_64:\n        /* \"ETHBangkok/GreenToken/DataStorage.sol\":2987:3004  result[index * 6] */\n      dup2\n      mload\n      dup2\n      lt\n      tag_65\n      jumpi\n      tag_66\n      tag_40\n      jump\t// in\n    tag_66:\n    tag_65:\n      0x20\n      mul\n      0x20\n      add\n      add\n        /* \"ETHBangkok/GreenToken/DataStorage.sol\":2987:3039  result[index * 6] = dataEntries[i - 1].CO2_emissions */\n      dup2\n      dup2\n      mstore\n      pop\n      pop\n        /* \"ETHBangkok/GreenToken/DataStorage.sol\":3082:3093  dataEntries */\n      0x00\n        /* \"ETHBangkok/GreenToken/DataStorage.sol\":3098:3099  1 */\n      0x01\n        /* \"ETHBangkok/GreenToken/DataStorage.sol\":3094:3095  i */\n      dup3\n        /* \"ETHBangkok/GreenToken/DataStorage.sol\":3094:3099  i - 1 */\n      tag_67\n      swap2\n      swap1\n      tag_55\n      jump\t// in\n    tag_67:\n        /* \"ETHBangkok/GreenToken/DataStorage.sol\":3082:3100  dataEntries[i - 1] */\n      dup2\n      sload\n      dup2\n      lt\n      tag_68\n      jumpi\n      tag_69\n      tag_40\n      jump\t// in\n    tag_69:\n    tag_68:\n      swap1\n      0x00\n      mstore\n      keccak256(0x00, 0x20)\n      swap1\n      0x08\n      mul\n      add\n        /* \"ETHBangkok/GreenToken/DataStorage.sol\":3082:3118  dataEntries[i - 1].methane_emissions */\n      0x01\n      add\n      sload\n        /* \"ETHBangkok/GreenToken/DataStorage.sol\":3058:3064  result */\n      dup4\n        /* \"ETHBangkok/GreenToken/DataStorage.sol\":3077:3078  1 */\n      0x01\n        /* \"ETHBangkok/GreenToken/DataStorage.sol\":3073:3074  6 */\n      0x06\n        /* \"ETHBangkok/GreenToken/DataStorage.sol\":3065:3070  index */\n      dup6\n        /* \"ETHBangkok/GreenToken/DataStorage.sol\":3065:3074  index * 6 */\n      tag_71\n      swap2\n      swap1\n      tag_46\n      jump\t// in\n    tag_71:\n        /* \"ETHBangkok/GreenToken/DataStorage.sol\":3065:3078  index * 6 + 1 */\n      tag_72\n      swap2\n      swap1\n      tag_73\n      jump\t// in\n    tag_72:\n        /* \"ETHBangkok/GreenToken/DataStorage.sol\":3058:3079  result[index * 6 + 1] */\n      dup2\n      mload\n      dup2\n      lt\n      tag_74\n      jumpi\n      tag_75\n      tag_40\n      jump\t// in\n    tag_75:\n    tag_74:\n      0x20\n      mul\n      0x20\n      add\n      add\n        /* \"ETHBangkok/GreenToken/DataStorage.sol\":3058:3118  result[index * 6 + 1] = dataEntries[i - 1].methane_emissions */\n      dup2\n      dup2\n      mstore\n      pop\n      pop\n        /* \"ETHBangkok/GreenToken/DataStorage.sol\":3161:3172  dataEntries */\n      0x00\n        /* \"ETHBangkok/GreenToken/DataStorage.sol\":3177:3178  1 */\n      0x01\n        /* \"ETHBangkok/GreenToken/DataStorage.sol\":3173:3174  i */\n      dup3\n        /* \"ETHBangkok/GreenToken/DataStorage.sol\":3173:3178  i - 1 */\n      tag_76\n      swap2\n      swap1\n      tag_55\n      jump\t// in\n    tag_76:\n        /* \"ETHBangkok/GreenToken/DataStorage.sol\":3161:3179  dataEntries[i - 1] */\n      dup2\n      sload\n      dup2\n      lt\n      tag_77\n      jumpi\n      tag_78\n      tag_40\n      jump\t// in\n    tag_78:\n    tag_77:\n      swap1\n      0x00\n      mstore\n      keccak256(0x00, 0x20)\n      swap1\n      0x08\n      mul\n      add\n        /* \"ETHBangkok/GreenToken/DataStorage.sol\":3161:3193  dataEntries[i - 1].NOx_emissions */\n      0x02\n      add\n      sload\n        /* \"ETHBangkok/GreenToken/DataStorage.sol\":3137:3143  result */\n      dup4\n        /* \"ETHBangkok/GreenToken/DataStorage.sol\":3156:3157  2 */\n      0x02\n        /* \"ETHBangkok/GreenToken/DataStorage.sol\":3152:3153  6 */\n      0x06\n        /* \"ETHBangkok/GreenToken/DataStorage.sol\":3144:3149  index */\n      dup6\n        /* \"ETHBangkok/GreenToken/DataStorage.sol\":3144:3153  index * 6 */\n      tag_80\n      swap2\n      swap1\n      tag_46\n      jump\t// in\n    tag_80:\n        /* \"ETHBangkok/GreenToken/DataStorage.sol\":3144:3157  index * 6 + 2 */\n      tag_81\n      swap2\n      swap1\n      tag_73\n      jump\t// in\n    tag_81:\n        /* \"ETHBangkok/GreenToken/DataStorage.sol\":3137:3158  result[index * 6 + 2] */\n      dup2\n      mload\n      dup2\n      lt\n      tag_82\n      jumpi\n      tag_83\n      tag_40\n      jump\t// in\n    tag_83:\n    tag_82:\n      0x20\n      mul\n      0x20\n      add\n      add\n        /* \"ETHBangkok/GreenToken/DataStorage.sol\":3137:3193  result[index * 6 + 2] = dataEntries[i - 1].NOx_emissions */\n      dup2\n      dup2\n      mstore\n      pop\n      pop\n        /* \"ETHBangkok/GreenToken/DataStorage.sol\":3236:3247  dataEntries */\n      0x00\n        /* \"ETHBangkok/GreenToken/DataStorage.sol\":3252:3253  1 */\n      0x01\n        /* \"ETHBangkok/GreenToken/DataStorage.sol\":3248:3249  i */\n      dup3\n        /* \"ETHBangkok/GreenToken/DataStorage.sol\":3248:3253  i - 1 */\n      tag_84\n      swap2\n      swap1\n      tag_55\n      jump\t// in\n    tag_84:\n        /* \"ETHBangkok/GreenToken/DataStorage.sol\":3236:3254  dataEntries[i - 1] */\n      dup2\n      sload\n      dup2\n      lt\n      tag_85\n      jumpi\n      tag_86\n      tag_40\n      jump\t// in\n    tag_86:\n    tag_85:\n      swap1\n      0x00\n      mstore\n      keccak256(0x00, 0x20)\n      swap1\n      0x08\n      mul\n      add\n        /* \"ETHBangkok/GreenToken/DataStorage.sol\":3236:3267  dataEntries[i - 1].PM_emissions */\n      0x03\n      add\n      sload\n        /* \"ETHBangkok/GreenToken/DataStorage.sol\":3212:3218  result */\n      dup4\n        /* \"ETHBangkok/GreenToken/DataStorage.sol\":3231:3232  3 */\n      0x03\n        /* \"ETHBangkok/GreenToken/DataStorage.sol\":3227:3228  6 */\n      0x06\n        /* \"ETHBangkok/GreenToken/DataStorage.sol\":3219:3224  index */\n      dup6\n        /* \"ETHBangkok/GreenToken/DataStorage.sol\":3219:3228  index * 6 */\n      tag_88\n      swap2\n      swap1\n      tag_46\n      jump\t// in\n    tag_88:\n        /* \"ETHBangkok/GreenToken/DataStorage.sol\":3219:3232  index * 6 + 3 */\n      tag_89\n      swap2\n      swap1\n      tag_73\n      jump\t// in\n    tag_89:\n        /* \"ETHBangkok/GreenToken/DataStorage.sol\":3212:3233  result[index * 6 + 3] */\n      dup2\n      mload\n      dup2\n      lt\n      tag_90\n      jumpi\n      tag_91\n      tag_40\n      jump\t// in\n    tag_91:\n    tag_90:\n      0x20\n      mul\n      0x20\n      add\n      add\n        /* \"ETHBangkok/GreenToken/DataStorage.sol\":3212:3267  result[index * 6 + 3] = dataEntries[i - 1].PM_emissions */\n      dup2\n      dup2\n      mstore\n      pop\n      pop\n        /* \"ETHBangkok/GreenToken/DataStorage.sol\":3310:3321  dataEntries */\n      0x00\n        /* \"ETHBangkok/GreenToken/DataStorage.sol\":3326:3327  1 */\n      0x01\n        /* \"ETHBangkok/GreenToken/DataStorage.sol\":3322:3323  i */\n      dup3\n        /* \"ETHBangkok/GreenToken/DataStorage.sol\":3322:3327  i - 1 */\n      tag_92\n      swap2\n      swap1\n      tag_55\n      jump\t// in\n    tag_92:\n        /* \"ETHBangkok/GreenToken/DataStorage.sol\":3310:3328  dataEntries[i - 1] */\n      dup2\n      sload\n      dup2\n      lt\n      tag_93\n      jumpi\n      tag_94\n      tag_40\n      jump\t// in\n    tag_94:\n    tag_93:\n      swap1\n      0x00\n      mstore\n      keccak256(0x00, 0x20)\n      swap1\n      0x08\n      mul\n      add\n        /* \"ETHBangkok/GreenToken/DataStorage.sol\":3310:3337  dataEntries[i - 1].humidity */\n      0x04\n      add\n      sload\n        /* \"ETHBangkok/GreenToken/DataStorage.sol\":3286:3292  result */\n      dup4\n        /* \"ETHBangkok/GreenToken/DataStorage.sol\":3305:3306  4 */\n      0x04\n        /* \"ETHBangkok/GreenToken/DataStorage.sol\":3301:3302  6 */\n      0x06\n        /* \"ETHBangkok/GreenToken/DataStorage.sol\":3293:3298  index */\n      dup6\n        /* \"ETHBangkok/GreenToken/DataStorage.sol\":3293:3302  index * 6 */\n      tag_96\n      swap2\n      swap1\n      tag_46\n      jump\t// in\n    tag_96:\n        /* \"ETHBangkok/GreenToken/DataStorage.sol\":3293:3306  index * 6 + 4 */\n      tag_97\n      swap2\n      swap1\n      tag_73\n      jump\t// in\n    tag_97:\n        /* \"ETHBangkok/GreenToken/DataStorage.sol\":3286:3307  result[index * 6 + 4] */\n      dup2\n      mload\n      dup2\n      lt\n      tag_98\n      jumpi\n      tag_99\n      tag_40\n      jump\t// in\n    tag_99:\n    tag_98:\n      0x20\n      mul\n      0x20\n      add\n      add\n        /* \"ETHBangkok/GreenToken/DataStorage.sol\":3286:3337  result[index * 6 + 4] = dataEntries[i - 1].humidity */\n      dup2\n      dup2\n      mstore\n      pop\n      pop\n        /* \"ETHBangkok/GreenToken/DataStorage.sol\":3380:3391  dataEntries */\n      0x00\n        /* \"ETHBangkok/GreenToken/DataStorage.sol\":3396:3397  1 */\n      0x01\n        /* \"ETHBangkok/GreenToken/DataStorage.sol\":3392:3393  i */\n      dup3\n        /* \"ETHBangkok/GreenToken/DataStorage.sol\":3392:3397  i - 1 */\n      tag_100\n      swap2\n      swap1\n      tag_55\n      jump\t// in\n    tag_100:\n        /* \"ETHBangkok/GreenToken/DataStorage.sol\":3380:3398  dataEntries[i - 1] */\n      dup2\n      sload\n      dup2\n      lt\n      tag_101\n      jumpi\n      tag_102\n      tag_40\n      jump\t// in\n    tag_102:\n    tag_101:\n      swap1\n      0x00\n      mstore\n      keccak256(0x00, 0x20)\n      swap1\n      0x08\n      mul\n      add\n        /* \"ETHBangkok/GreenToken/DataStorage.sol\":3380:3410  dataEntries[i - 1].temperature */\n      0x05\n      add\n      sload\n        /* \"ETHBangkok/GreenToken/DataStorage.sol\":3356:3362  result */\n      dup4\n        /* \"ETHBangkok/GreenToken/DataStorage.sol\":3375:3376  5 */\n      0x05\n        /* \"ETHBangkok/GreenToken/DataStorage.sol\":3371:3372  6 */\n      0x06\n        /* \"ETHBangkok/GreenToken/DataStorage.sol\":3363:3368  index */\n      dup6\n        /* \"ETHBangkok/GreenToken/DataStorage.sol\":3363:3372  index * 6 */\n      tag_104\n      swap2\n      swap1\n      tag_46\n      jump\t// in\n    tag_104:\n        /* \"ETHBangkok/GreenToken/DataStorage.sol\":3363:3376  index * 6 + 5 */\n      tag_105\n      swap2\n      swap1\n      tag_73\n      jump\t// in\n    tag_105:\n        /* \"ETHBangkok/GreenToken/DataStorage.sol\":3356:3377  result[index * 6 + 5] */\n      dup2\n      mload\n      dup2\n      lt\n      tag_106\n      jumpi\n      tag_107\n      tag_40\n      jump\t// in\n    tag_107:\n    tag_106:\n      0x20\n      mul\n      0x20\n      add\n      add\n        /* \"ETHBangkok/GreenToken/DataStorage.sol\":3356:3410  result[index * 6 + 5] = dataEntries[i - 1].temperature */\n      dup2\n      dup2\n      mstore\n      pop\n      pop\n        /* \"ETHBangkok/GreenToken/DataStorage.sol\":3429:3436  index++ */\n      dup2\n      dup1\n      tag_108\n      swap1\n      tag_44\n      jump\t// in\n    tag_108:\n      swap3\n      pop\n      pop\n        /* \"ETHBangkok/GreenToken/DataStorage.sol\":2912:3452  if (dataEntries[i - 1].walletAddress == _walletAddress) {... */\n    tag_59:\n        /* \"ETHBangkok/GreenToken/DataStorage.sol\":2892:2895  i-- */\n      dup1\n      dup1\n      tag_109\n      swap1\n      tag_110\n      jump\t// in\n    tag_109:\n      swap2\n      pop\n      pop\n        /* \"ETHBangkok/GreenToken/DataStorage.sol\":2848:3463  for (uint256 i = dataEntries.length; i > 0; i--) {... */\n      jump(tag_51)\n    tag_52:\n      pop\n        /* \"ETHBangkok/GreenToken/DataStorage.sol\":3482:3488  result */\n      dup2\n        /* \"ETHBangkok/GreenToken/DataStorage.sol\":3475:3488  return result */\n      swap4\n      pop\n      pop\n      pop\n      pop\n        /* \"ETHBangkok/GreenToken/DataStorage.sol\":2432:3496  function getDataByWallet(address _walletAddress) public view returns (... */\n      swap2\n      swap1\n      pop\n      jump\t// out\n        /* \"ETHBangkok/GreenToken/DataStorage.sol\":699:1674  function storeData(... */\n    tag_23:\n        /* \"ETHBangkok/GreenToken/DataStorage.sol\":970:994  DataEntry memory newData */\n      0x00\n        /* \"ETHBangkok/GreenToken/DataStorage.sol\":997:1360  DataEntry({... */\n      mload(0x40)\n      dup1\n      0x0100\n      add\n      0x40\n      mstore\n      dup1\n        /* \"ETHBangkok/GreenToken/DataStorage.sol\":1037:1051  _CO2_emissions */\n      dup10\n        /* \"ETHBangkok/GreenToken/DataStorage.sol\":997:1360  DataEntry({... */\n      dup2\n      mstore\n      0x20\n      add\n        /* \"ETHBangkok/GreenToken/DataStorage.sol\":1085:1103  _methane_emissions */\n      dup9\n        /* \"ETHBangkok/GreenToken/DataStorage.sol\":997:1360  DataEntry({... */\n      dup2\n      mstore\n      0x20\n      add\n        /* \"ETHBangkok/GreenToken/DataStorage.sol\":1133:1147  _NOx_emissions */\n      dup8\n        /* \"ETHBangkok/GreenToken/DataStorage.sol\":997:1360  DataEntry({... */\n      dup2\n      mstore\n      0x20\n      add\n        /* \"ETHBangkok/GreenToken/DataStorage.sol\":1176:1189  _PM_emissions */\n      dup7\n        /* \"ETHBangkok/GreenToken/DataStorage.sol\":997:1360  DataEntry({... */\n      dup2\n      mstore\n      0x20\n      add\n        /* \"ETHBangkok/GreenToken/DataStorage.sol\":1214:1223  _humidity */\n      dup6\n        /* \"ETHBangkok/GreenToken/DataStorage.sol\":997:1360  DataEntry({... */\n      dup2\n      mstore\n      0x20\n      add\n        /* \"ETHBangkok/GreenToken/DataStorage.sol\":1251:1263  _temperature */\n      dup5\n        /* \"ETHBangkok/GreenToken/DataStorage.sol\":997:1360  DataEntry({... */\n      dup2\n      mstore\n      0x20\n      add\n        /* \"ETHBangkok/GreenToken/DataStorage.sol\":1293:1307  _walletAddress */\n      dup4\n        /* \"ETHBangkok/GreenToken/DataStorage.sol\":997:1360  DataEntry({... */\n      0xffffffffffffffffffffffffffffffffffffffff\n      and\n      dup2\n      mstore\n      0x20\n      add\n        /* \"ETHBangkok/GreenToken/DataStorage.sol\":1333:1348  block.timestamp */\n      timestamp\n        /* \"ETHBangkok/GreenToken/DataStorage.sol\":997:1360  DataEntry({... */\n      dup2\n      mstore\n      pop\n        /* \"ETHBangkok/GreenToken/DataStorage.sol\":970:1360  DataEntry memory newData = DataEntry({... */\n      swap1\n      pop\n        /* \"ETHBangkok/GreenToken/DataStorage.sol\":1373:1384  dataEntries */\n      0x00\n        /* \"ETHBangkok/GreenToken/DataStorage.sol\":1390:1397  newData */\n      dup2\n        /* \"ETHBangkok/GreenToken/DataStorage.sol\":1373:1398  dataEntries.push(newData) */\n      swap1\n      dup1\n      0x01\n      dup2\n      sload\n      add\n      dup1\n      dup3\n      sstore\n      dup1\n      swap2\n      pop\n      pop\n      0x01\n      swap1\n      sub\n      swap1\n      0x00\n      mstore\n      keccak256(0x00, 0x20)\n      swap1\n      0x08\n      mul\n      add\n      0x00\n      swap1\n      swap2\n      swap1\n      swap2\n      swap1\n      swap2\n      pop\n      0x00\n      dup3\n      add\n      mload\n      dup2\n      0x00\n      add\n      sstore\n      0x20\n      dup3\n      add\n      mload\n      dup2\n      0x01\n      add\n      sstore\n      0x40\n      dup3\n      add\n      mload\n      dup2\n      0x02\n      add\n      sstore\n      0x60\n      dup3\n      add\n      mload\n      dup2\n      0x03\n      add\n      sstore\n      0x80\n      dup3\n      add\n      mload\n      dup2\n      0x04\n      add\n      sstore\n      0xa0\n      dup3\n      add\n      mload\n      dup2\n      0x05\n      add\n      sstore\n      0xc0\n      dup3\n      add\n      mload\n      dup2\n      0x06\n      add\n      exp(0x0100, 0x00)\n      dup2\n      sload\n      dup2\n      0xffffffffffffffffffffffffffffffffffffffff\n      mul\n      not\n      and\n      swap1\n      dup4\n      0xffffffffffffffffffffffffffffffffffffffff\n      and\n      mul\n      or\n      swap1\n      sstore\n      pop\n      0xe0\n      dup3\n      add\n      mload\n      dup2\n      0x07\n      add\n      sstore\n      pop\n      pop\n        /* \"ETHBangkok/GreenToken/DataStorage.sol\":1611:1625  _walletAddress */\n      dup2\n        /* \"ETHBangkok/GreenToken/DataStorage.sol\":1416:1666  DataStored(... */\n      0xffffffffffffffffffffffffffffffffffffffff\n      and\n      0x0520ca8400c530c05e265fe59da93e2abc1187ed3bf15c7dc82846f0edc3cb75\n        /* \"ETHBangkok/GreenToken/DataStorage.sol\":1441:1455  _CO2_emissions */\n      dup10\n        /* \"ETHBangkok/GreenToken/DataStorage.sol\":1470:1488  _methane_emissions */\n      dup10\n        /* \"ETHBangkok/GreenToken/DataStorage.sol\":1503:1517  _NOx_emissions */\n      dup10\n        /* \"ETHBangkok/GreenToken/DataStorage.sol\":1532:1545  _PM_emissions */\n      dup10\n        /* \"ETHBangkok/GreenToken/DataStorage.sol\":1560:1569  _humidity */\n      dup10\n        /* \"ETHBangkok/GreenToken/DataStorage.sol\":1584:1596  _temperature */\n      dup10\n        /* \"ETHBangkok/GreenToken/DataStorage.sol\":1640:1655  block.timestamp */\n      timestamp\n        /* \"ETHBangkok/GreenToken/DataStorage.sol\":1416:1666  DataStored(... */\n      mload(0x40)\n      tag_113\n      swap8\n      swap7\n      swap6\n      swap5\n      swap4\n      swap3\n      swap2\n      swap1\n      tag_114\n      jump\t// in\n    tag_113:\n      mload(0x40)\n      dup1\n      swap2\n      sub\n      swap1\n      log2\n        /* \"ETHBangkok/GreenToken/DataStorage.sol\":959:1674  {... */\n      pop\n        /* \"ETHBangkok/GreenToken/DataStorage.sol\":699:1674  function storeData(... */\n      pop\n      pop\n      pop\n      pop\n      pop\n      pop\n      pop\n      jump\t// out\n        /* \"ETHBangkok/GreenToken/DataStorage.sol\":1794:2424  function getDataEntry(uint256 index) public view returns (... */\n    tag_26:\n        /* \"ETHBangkok/GreenToken/DataStorage.sol\":1866:1873  uint256 */\n      0x00\n        /* \"ETHBangkok/GreenToken/DataStorage.sol\":1875:1882  uint256 */\n      dup1\n        /* \"ETHBangkok/GreenToken/DataStorage.sol\":1884:1891  uint256 */\n      0x00\n        /* \"ETHBangkok/GreenToken/DataStorage.sol\":1893:1900  uint256 */\n      dup1\n        /* \"ETHBangkok/GreenToken/DataStorage.sol\":1902:1909  uint256 */\n      0x00\n        /* \"ETHBangkok/GreenToken/DataStorage.sol\":1911:1918  uint256 */\n      dup1\n        /* \"ETHBangkok/GreenToken/DataStorage.sol\":1920:1927  address */\n      0x00\n        /* \"ETHBangkok/GreenToken/DataStorage.sol\":1929:1936  uint256 */\n      dup1\n        /* \"ETHBangkok/GreenToken/DataStorage.sol\":1979:1990  dataEntries */\n      0x00\n        /* \"ETHBangkok/GreenToken/DataStorage.sol\":1979:1997  dataEntries.length */\n      dup1\n      sload\n      swap1\n      pop\n        /* \"ETHBangkok/GreenToken/DataStorage.sol\":1971:1976  index */\n      dup10\n        /* \"ETHBangkok/GreenToken/DataStorage.sol\":1971:1997  index < dataEntries.length */\n      lt\n        /* \"ETHBangkok/GreenToken/DataStorage.sol\":1963:2021  require(index < dataEntries.length, \"Index out of bounds\") */\n      tag_116\n      jumpi\n      mload(0x40)\n      0x08c379a000000000000000000000000000000000000000000000000000000000\n      dup2\n      mstore\n      0x04\n      add\n      tag_117\n      swap1\n      tag_118\n      jump\t// in\n    tag_117:\n      mload(0x40)\n      dup1\n      swap2\n      sub\n      swap1\n      revert\n    tag_116:\n        /* \"ETHBangkok/GreenToken/DataStorage.sol\":2036:2058  DataEntry memory entry */\n      0x00\n        /* \"ETHBangkok/GreenToken/DataStorage.sol\":2061:2072  dataEntries */\n      dup1\n        /* \"ETHBangkok/GreenToken/DataStorage.sol\":2073:2078  index */\n      dup11\n        /* \"ETHBangkok/GreenToken/DataStorage.sol\":2061:2079  dataEntries[index] */\n      dup2\n      sload\n      dup2\n      lt\n      tag_119\n      jumpi\n      tag_120\n      tag_40\n      jump\t// in\n    tag_120:\n    tag_119:\n      swap1\n      0x00\n      mstore\n      keccak256(0x00, 0x20)\n      swap1\n      0x08\n      mul\n      add\n        /* \"ETHBangkok/GreenToken/DataStorage.sol\":2036:2079  DataEntry memory entry = dataEntries[index] */\n      mload(0x40)\n      dup1\n      0x0100\n      add\n      0x40\n      mstore\n      swap1\n      dup2\n      0x00\n      dup3\n      add\n      sload\n      dup2\n      mstore\n      0x20\n      add\n      0x01\n      dup3\n      add\n      sload\n      dup2\n      mstore\n      0x20\n      add\n      0x02\n      dup3\n      add\n      sload\n      dup2\n      mstore\n      0x20\n      add\n      0x03\n      dup3\n      add\n      sload\n      dup2\n      mstore\n      0x20\n      add\n      0x04\n      dup3\n      add\n      sload\n      dup2\n      mstore\n      0x20\n      add\n      0x05\n      dup3\n      add\n      sload\n      dup2\n      mstore\n      0x20\n      add\n      0x06\n      dup3\n      add\n      0x00\n      swap1\n      sload\n      swap1\n      0x0100\n      exp\n      swap1\n      div\n      0xffffffffffffffffffffffffffffffffffffffff\n      and\n      0xffffffffffffffffffffffffffffffffffffffff\n      and\n      0xffffffffffffffffffffffffffffffffffffffff\n      and\n      dup2\n      mstore\n      0x20\n      add\n      0x07\n      dup3\n      add\n      sload\n      dup2\n      mstore\n      pop\n      pop\n      swap1\n      pop\n        /* \"ETHBangkok/GreenToken/DataStorage.sol\":2120:2125  entry */\n      dup1\n        /* \"ETHBangkok/GreenToken/DataStorage.sol\":2120:2139  entry.CO2_emissions */\n      0x00\n      add\n      mload\n        /* \"ETHBangkok/GreenToken/DataStorage.sol\":2158:2163  entry */\n      dup2\n        /* \"ETHBangkok/GreenToken/DataStorage.sol\":2158:2181  entry.methane_emissions */\n      0x20\n      add\n      mload\n        /* \"ETHBangkok/GreenToken/DataStorage.sol\":2200:2205  entry */\n      dup3\n        /* \"ETHBangkok/GreenToken/DataStorage.sol\":2200:2219  entry.NOx_emissions */\n      0x40\n      add\n      mload\n        /* \"ETHBangkok/GreenToken/DataStorage.sol\":2238:2243  entry */\n      dup4\n        /* \"ETHBangkok/GreenToken/DataStorage.sol\":2238:2256  entry.PM_emissions */\n      0x60\n      add\n      mload\n        /* \"ETHBangkok/GreenToken/DataStorage.sol\":2275:2280  entry */\n      dup5\n        /* \"ETHBangkok/GreenToken/DataStorage.sol\":2275:2289  entry.humidity */\n      0x80\n      add\n      mload\n        /* \"ETHBangkok/GreenToken/DataStorage.sol\":2308:2313  entry */\n      dup6\n        /* \"ETHBangkok/GreenToken/DataStorage.sol\":2308:2325  entry.temperature */\n      0xa0\n      add\n      mload\n        /* \"ETHBangkok/GreenToken/DataStorage.sol\":2344:2349  entry */\n      dup7\n        /* \"ETHBangkok/GreenToken/DataStorage.sol\":2344:2363  entry.walletAddress */\n      0xc0\n      add\n      mload\n        /* \"ETHBangkok/GreenToken/DataStorage.sol\":2382:2387  entry */\n      dup8\n        /* \"ETHBangkok/GreenToken/DataStorage.sol\":2382:2397  entry.timestamp */\n      0xe0\n      add\n      mload\n        /* \"ETHBangkok/GreenToken/DataStorage.sol\":2094:2412  return (... */\n      swap9\n      pop\n      swap9\n      pop\n      swap9\n      pop\n      swap9\n      pop\n      swap9\n      pop\n      swap9\n      pop\n      swap9\n      pop\n      swap9\n      pop\n      pop\n        /* \"ETHBangkok/GreenToken/DataStorage.sol\":1794:2424  function getDataEntry(uint256 index) public view returns (... */\n      swap2\n      swap4\n      swap6\n      swap8\n      pop\n      swap2\n      swap4\n      swap6\n      swap8\n      jump\t// out\n        /* \"ETHBangkok/GreenToken/DataStorage.sol\":1682:1786  function getDataEntries() public view returns (DataEntry[] memory) {... */\n    tag_29:\n        /* \"ETHBangkok/GreenToken/DataStorage.sol\":1729:1747  DataEntry[] memory */\n      0x60\n        /* \"ETHBangkok/GreenToken/DataStorage.sol\":1767:1778  dataEntries */\n      0x00\n        /* \"ETHBangkok/GreenToken/DataStorage.sol\":1760:1778  return dataEntries */\n      dup1\n      sload\n      dup1\n      0x20\n      mul\n      0x20\n      add\n      mload(0x40)\n      swap1\n      dup2\n      add\n      0x40\n      mstore\n      dup1\n      swap3\n      swap2\n      swap1\n      dup2\n      dup2\n      mstore\n      0x20\n      add\n      0x00\n      swap1\n    tag_123:\n      dup3\n      dup3\n      lt\n      iszero\n      tag_124\n      jumpi\n      dup4\n      dup3\n      swap1\n      0x00\n      mstore\n      keccak256(0x00, 0x20)\n      swap1\n      0x08\n      mul\n      add\n      mload(0x40)\n      dup1\n      0x0100\n      add\n      0x40\n      mstore\n      swap1\n      dup2\n      0x00\n      dup3\n      add\n      sload\n      dup2\n      mstore\n      0x20\n      add\n      0x01\n      dup3\n      add\n      sload\n      dup2\n      mstore\n      0x20\n      add\n      0x02\n      dup3\n      add\n      sload\n      dup2\n      mstore\n      0x20\n      add\n      0x03\n      dup3\n      add\n      sload\n      dup2\n      mstore\n      0x20\n      add\n      0x04\n      dup3\n      add\n      sload\n      dup2\n      mstore\n      0x20\n      add\n      0x05\n      dup3\n      add\n      sload\n      dup2\n      mstore\n      0x20\n      add\n      0x06\n      dup3\n      add\n      0x00\n      swap1\n      sload\n      swap1\n      0x0100\n      exp\n      swap1\n      div\n      0xffffffffffffffffffffffffffffffffffffffff\n      and\n      0xffffffffffffffffffffffffffffffffffffffff\n      and\n      0xffffffffffffffffffffffffffffffffffffffff\n      and\n      dup2\n      mstore\n      0x20\n      add\n      0x07\n      dup3\n      add\n      sload\n      dup2\n      mstore\n      pop\n      pop\n      dup2\n      mstore\n      0x20\n      add\n      swap1\n      0x01\n      add\n      swap1\n      jump(tag_123)\n    tag_124:\n      pop\n      pop\n      pop\n      pop\n      swap1\n      pop\n        /* \"ETHBangkok/GreenToken/DataStorage.sol\":1682:1786  function getDataEntries() public view returns (DataEntry[] memory) {... */\n      swap1\n      jump\t// out\n        /* \"#utility.yul\":88:205   */\n    tag_127:\n        /* \"#utility.yul\":197:198   */\n      0x00\n        /* \"#utility.yul\":194:195   */\n      dup1\n        /* \"#utility.yul\":187:199   */\n      revert\n        /* \"#utility.yul\":334:411   */\n    tag_129:\n        /* \"#utility.yul\":371:378   */\n      0x00\n        /* \"#utility.yul\":400:405   */\n      dup2\n        /* \"#utility.yul\":389:405   */\n      swap1\n      pop\n        /* \"#utility.yul\":334:411   */\n      swap2\n      swap1\n      pop\n      jump\t// out\n        /* \"#utility.yul\":417:539   */\n    tag_130:\n        /* \"#utility.yul\":490:514   */\n      tag_163\n        /* \"#utility.yul\":508:513   */\n      dup2\n        /* \"#utility.yul\":490:514   */\n      tag_129\n      jump\t// in\n    tag_163:\n        /* \"#utility.yul\":483:488   */\n      dup2\n        /* \"#utility.yul\":480:515   */\n      eq\n        /* \"#utility.yul\":470:533   */\n      tag_164\n      jumpi\n        /* \"#utility.yul\":529:530   */\n      0x00\n        /* \"#utility.yul\":526:527   */\n      dup1\n        /* \"#utility.yul\":519:531   */\n      revert\n        /* \"#utility.yul\":470:533   */\n    tag_164:\n        /* \"#utility.yul\":417:539   */\n      pop\n      jump\t// out\n        /* \"#utility.yul\":545:684   */\n    tag_131:\n        /* \"#utility.yul\":591:596   */\n      0x00\n        /* \"#utility.yul\":629:635   */\n      dup2\n        /* \"#utility.yul\":616:636   */\n      calldataload\n        /* \"#utility.yul\":607:636   */\n      swap1\n      pop\n        /* \"#utility.yul\":645:678   */\n      tag_166\n        /* \"#utility.yul\":672:677   */\n      dup2\n        /* \"#utility.yul\":645:678   */\n      tag_130\n      jump\t// in\n    tag_166:\n        /* \"#utility.yul\":545:684   */\n      swap3\n      swap2\n      pop\n      pop\n      jump\t// out\n        /* \"#utility.yul\":690:1019   */\n    tag_10:\n        /* \"#utility.yul\":749:755   */\n      0x00\n        /* \"#utility.yul\":798:800   */\n      0x20\n        /* \"#utility.yul\":786:795   */\n      dup3\n        /* \"#utility.yul\":777:784   */\n      dup5\n        /* \"#utility.yul\":773:796   */\n      sub\n        /* \"#utility.yul\":769:801   */\n      slt\n        /* \"#utility.yul\":766:885   */\n      iszero\n      tag_168\n      jumpi\n        /* \"#utility.yul\":804:883   */\n      tag_169\n      tag_127\n      jump\t// in\n    tag_169:\n        /* \"#utility.yul\":766:885   */\n    tag_168:\n        /* \"#utility.yul\":924:925   */\n      0x00\n        /* \"#utility.yul\":949:1002   */\n      tag_170\n        /* \"#utility.yul\":994:1001   */\n      dup5\n        /* \"#utility.yul\":985:991   */\n      dup3\n        /* \"#utility.yul\":974:983   */\n      dup6\n        /* \"#utility.yul\":970:992   */\n      add\n        /* \"#utility.yul\":949:1002   */\n      tag_131\n      jump\t// in\n    tag_170:\n        /* \"#utility.yul\":939:1002   */\n      swap2\n      pop\n        /* \"#utility.yul\":895:1012   */\n      pop\n        /* \"#utility.yul\":690:1019   */\n      swap3\n      swap2\n      pop\n      pop\n      jump\t// out\n        /* \"#utility.yul\":1025:1143   */\n    tag_132:\n        /* \"#utility.yul\":1112:1136   */\n      tag_172\n        /* \"#utility.yul\":1130:1135   */\n      dup2\n        /* \"#utility.yul\":1112:1136   */\n      tag_129\n      jump\t// in\n    tag_172:\n        /* \"#utility.yul\":1107:1110   */\n      dup3\n        /* \"#utility.yul\":1100:1137   */\n      mstore\n        /* \"#utility.yul\":1025:1143   */\n      pop\n      pop\n      jump\t// out\n        /* \"#utility.yul\":1149:1275   */\n    tag_133:\n        /* \"#utility.yul\":1186:1193   */\n      0x00\n        /* \"#utility.yul\":1226:1268   */\n      0xffffffffffffffffffffffffffffffffffffffff\n        /* \"#utility.yul\":1219:1224   */\n      dup3\n        /* \"#utility.yul\":1215:1269   */\n      and\n        /* \"#utility.yul\":1204:1269   */\n      swap1\n      pop\n        /* \"#utility.yul\":1149:1275   */\n      swap2\n      swap1\n      pop\n      jump\t// out\n        /* \"#utility.yul\":1281:1377   */\n    tag_134:\n        /* \"#utility.yul\":1318:1325   */\n      0x00\n        /* \"#utility.yul\":1347:1371   */\n      tag_175\n        /* \"#utility.yul\":1365:1370   */\n      dup3\n        /* \"#utility.yul\":1347:1371   */\n      tag_133\n      jump\t// in\n    tag_175:\n        /* \"#utility.yul\":1336:1371   */\n      swap1\n      pop\n        /* \"#utility.yul\":1281:1377   */\n      swap2\n      swap1\n      pop\n      jump\t// out\n        /* \"#utility.yul\":1383:1501   */\n    tag_135:\n        /* \"#utility.yul\":1470:1494   */\n      tag_177\n        /* \"#utility.yul\":1488:1493   */\n      dup2\n        /* \"#utility.yul\":1470:1494   */\n      tag_134\n      jump\t// in\n    tag_177:\n        /* \"#utility.yul\":1465:1468   */\n      dup3\n        /* \"#utility.yul\":1458:1495   */\n      mstore\n        /* \"#utility.yul\":1383:1501   */\n      pop\n      pop\n      jump\t// out\n        /* \"#utility.yul\":1507:2504   */\n    tag_13:\n        /* \"#utility.yul\":1796:1800   */\n      0x00\n        /* \"#utility.yul\":1834:1837   */\n      0x0100\n        /* \"#utility.yul\":1823:1832   */\n      dup3\n        /* \"#utility.yul\":1819:1838   */\n      add\n        /* \"#utility.yul\":1811:1838   */\n      swap1\n      pop\n        /* \"#utility.yul\":1848:1919   */\n      tag_179\n        /* \"#utility.yul\":1916:1917   */\n      0x00\n        /* \"#utility.yul\":1905:1914   */\n      dup4\n        /* \"#utility.yul\":1901:1918   */\n      add\n        /* \"#utility.yul\":1892:1898   */\n      dup12\n        /* \"#utility.yul\":1848:1919   */\n      tag_132\n      jump\t// in\n    tag_179:\n        /* \"#utility.yul\":1929:2001   */\n      tag_180\n        /* \"#utility.yul\":1997:1999   */\n      0x20\n        /* \"#utility.yul\":1986:1995   */\n      dup4\n        /* \"#utility.yul\":1982:2000   */\n      add\n        /* \"#utility.yul\":1973:1979   */\n      dup11\n        /* \"#utility.yul\":1929:2001   */\n      tag_132\n      jump\t// in\n    tag_180:\n        /* \"#utility.yul\":2011:2083   */\n      tag_181\n        /* \"#utility.yul\":2079:2081   */\n      0x40\n        /* \"#utility.yul\":2068:2077   */\n      dup4\n        /* \"#utility.yul\":2064:2082   */\n      add\n        /* \"#utility.yul\":2055:2061   */\n      dup10\n        /* \"#utility.yul\":2011:2083   */\n      tag_132\n      jump\t// in\n    tag_181:\n        /* \"#utility.yul\":2093:2165   */\n      tag_182\n        /* \"#utility.yul\":2161:2163   */\n      0x60\n        /* \"#utility.yul\":2150:2159   */\n      dup4\n        /* \"#utility.yul\":2146:2164   */\n      add\n        /* \"#utility.yul\":2137:2143   */\n      dup9\n        /* \"#utility.yul\":2093:2165   */\n      tag_132\n      jump\t// in\n    tag_182:\n        /* \"#utility.yul\":2175:2248   */\n      tag_183\n        /* \"#utility.yul\":2243:2246   */\n      0x80\n        /* \"#utility.yul\":2232:2241   */\n      dup4\n        /* \"#utility.yul\":2228:2247   */\n      add\n        /* \"#utility.yul\":2219:2225   */\n      dup8\n        /* \"#utility.yul\":2175:2248   */\n      tag_132\n      jump\t// in\n    tag_183:\n        /* \"#utility.yul\":2258:2331   */\n      tag_184\n        /* \"#utility.yul\":2326:2329   */\n      0xa0\n        /* \"#utility.yul\":2315:2324   */\n      dup4\n        /* \"#utility.yul\":2311:2330   */\n      add\n        /* \"#utility.yul\":2302:2308   */\n      dup7\n        /* \"#utility.yul\":2258:2331   */\n      tag_132\n      jump\t// in\n    tag_184:\n        /* \"#utility.yul\":2341:2414   */\n      tag_185\n        /* \"#utility.yul\":2409:2412   */\n      0xc0\n        /* \"#utility.yul\":2398:2407   */\n      dup4\n        /* \"#utility.yul\":2394:2413   */\n      add\n        /* \"#utility.yul\":2385:2391   */\n      dup6\n        /* \"#utility.yul\":2341:2414   */\n      tag_135\n      jump\t// in\n    tag_185:\n        /* \"#utility.yul\":2424:2497   */\n      tag_186\n        /* \"#utility.yul\":2492:2495   */\n      0xe0\n        /* \"#utility.yul\":2481:2490   */\n      dup4\n        /* \"#utility.yul\":2477:2496   */\n      add\n        /* \"#utility.yul\":2468:2474   */\n      dup5\n        /* \"#utility.yul\":2424:2497   */\n      tag_132\n      jump\t// in\n    tag_186:\n        /* \"#utility.yul\":1507:2504   */\n      swap10\n      swap9\n      pop\n      pop\n      pop\n      pop\n      pop\n      pop\n      pop\n      pop\n      pop\n      jump\t// out\n        /* \"#utility.yul\":2510:2632   */\n    tag_136:\n        /* \"#utility.yul\":2583:2607   */\n      tag_188\n        /* \"#utility.yul\":2601:2606   */\n      dup2\n        /* \"#utility.yul\":2583:2607   */\n      tag_134\n      jump\t// in\n    tag_188:\n        /* \"#utility.yul\":2576:2581   */\n      dup2\n        /* \"#utility.yul\":2573:2608   */\n      eq\n        /* \"#utility.yul\":2563:2626   */\n      tag_189\n      jumpi\n        /* \"#utility.yul\":2622:2623   */\n      0x00\n        /* \"#utility.yul\":2619:2620   */\n      dup1\n        /* \"#utility.yul\":2612:2624   */\n      revert\n        /* \"#utility.yul\":2563:2626   */\n    tag_189:\n        /* \"#utility.yul\":2510:2632   */\n      pop\n      jump\t// out\n        /* \"#utility.yul\":2638:2777   */\n    tag_137:\n        /* \"#utility.yul\":2684:2689   */\n      0x00\n        /* \"#utility.yul\":2722:2728   */\n      dup2\n        /* \"#utility.yul\":2709:2729   */\n      calldataload\n        /* \"#utility.yul\":2700:2729   */\n      swap1\n      pop\n        /* \"#utility.yul\":2738:2771   */\n      tag_191\n        /* \"#utility.yul\":2765:2770   */\n      dup2\n        /* \"#utility.yul\":2738:2771   */\n      tag_136\n      jump\t// in\n    tag_191:\n        /* \"#utility.yul\":2638:2777   */\n      swap3\n      swap2\n      pop\n      pop\n      jump\t// out\n        /* \"#utility.yul\":2783:3112   */\n    tag_16:\n        /* \"#utility.yul\":2842:2848   */\n      0x00\n        /* \"#utility.yul\":2891:2893   */\n      0x20\n        /* \"#utility.yul\":2879:2888   */\n      dup3\n        /* \"#utility.yul\":2870:2877   */\n      dup5\n        /* \"#utility.yul\":2866:2889   */\n      sub\n        /* \"#utility.yul\":2862:2894   */\n      slt\n        /* \"#utility.yul\":2859:2978   */\n      iszero\n      tag_193\n      jumpi\n        /* \"#utility.yul\":2897:2976   */\n      tag_194\n      tag_127\n      jump\t// in\n    tag_194:\n        /* \"#utility.yul\":2859:2978   */\n    tag_193:\n        /* \"#utility.yul\":3017:3018   */\n      0x00\n        /* \"#utility.yul\":3042:3095   */\n      tag_195\n        /* \"#utility.yul\":3087:3094   */\n      dup5\n        /* \"#utility.yul\":3078:3084   */\n      dup3\n        /* \"#utility.yul\":3067:3076   */\n      dup6\n        /* \"#utility.yul\":3063:3085   */\n      add\n        /* \"#utility.yul\":3042:3095   */\n      tag_137\n      jump\t// in\n    tag_195:\n        /* \"#utility.yul\":3032:3095   */\n      swap2\n      pop\n        /* \"#utility.yul\":2988:3105   */\n      pop\n        /* \"#utility.yul\":2783:3112   */\n      swap3\n      swap2\n      pop\n      pop\n      jump\t// out\n        /* \"#utility.yul\":3118:3232   */\n    tag_138:\n        /* \"#utility.yul\":3185:3191   */\n      0x00\n        /* \"#utility.yul\":3219:3224   */\n      dup2\n        /* \"#utility.yul\":3213:3225   */\n      mload\n        /* \"#utility.yul\":3203:3225   */\n      swap1\n      pop\n        /* \"#utility.yul\":3118:3232   */\n      swap2\n      swap1\n      pop\n      jump\t// out\n        /* \"#utility.yul\":3238:3422   */\n    tag_139:\n        /* \"#utility.yul\":3337:3348   */\n      0x00\n        /* \"#utility.yul\":3371:3377   */\n      dup3\n        /* \"#utility.yul\":3366:3369   */\n      dup3\n        /* \"#utility.yul\":3359:3378   */\n      mstore\n        /* \"#utility.yul\":3411:3415   */\n      0x20\n        /* \"#utility.yul\":3406:3409   */\n      dup3\n        /* \"#utility.yul\":3402:3416   */\n      add\n        /* \"#utility.yul\":3387:3416   */\n      swap1\n      pop\n        /* \"#utility.yul\":3238:3422   */\n      swap3\n      swap2\n      pop\n      pop\n      jump\t// out\n        /* \"#utility.yul\":3428:3560   */\n    tag_140:\n        /* \"#utility.yul\":3495:3499   */\n      0x00\n        /* \"#utility.yul\":3518:3521   */\n      dup2\n        /* \"#utility.yul\":3510:3521   */\n      swap1\n      pop\n        /* \"#utility.yul\":3548:3552   */\n      0x20\n        /* \"#utility.yul\":3543:3546   */\n      dup3\n        /* \"#utility.yul\":3539:3553   */\n      add\n        /* \"#utility.yul\":3531:3553   */\n      swap1\n      pop\n        /* \"#utility.yul\":3428:3560   */\n      swap2\n      swap1\n      pop\n      jump\t// out\n        /* \"#utility.yul\":3566:3674   */\n    tag_141:\n        /* \"#utility.yul\":3643:3667   */\n      tag_200\n        /* \"#utility.yul\":3661:3666   */\n      dup2\n        /* \"#utility.yul\":3643:3667   */\n      tag_129\n      jump\t// in\n    tag_200:\n        /* \"#utility.yul\":3638:3641   */\n      dup3\n        /* \"#utility.yul\":3631:3668   */\n      mstore\n        /* \"#utility.yul\":3566:3674   */\n      pop\n      pop\n      jump\t// out\n        /* \"#utility.yul\":3680:3859   */\n    tag_142:\n        /* \"#utility.yul\":3749:3759   */\n      0x00\n        /* \"#utility.yul\":3770:3816   */\n      tag_202\n        /* \"#utility.yul\":3812:3815   */\n      dup4\n        /* \"#utility.yul\":3804:3810   */\n      dup4\n        /* \"#utility.yul\":3770:3816   */\n      tag_141\n      jump\t// in\n    tag_202:\n        /* \"#utility.yul\":3848:3852   */\n      0x20\n        /* \"#utility.yul\":3843:3846   */\n      dup4\n        /* \"#utility.yul\":3839:3853   */\n      add\n        /* \"#utility.yul\":3825:3853   */\n      swap1\n      pop\n        /* \"#utility.yul\":3680:3859   */\n      swap3\n      swap2\n      pop\n      pop\n      jump\t// out\n        /* \"#utility.yul\":3865:3978   */\n    tag_143:\n        /* \"#utility.yul\":3935:3939   */\n      0x00\n        /* \"#utility.yul\":3967:3971   */\n      0x20\n        /* \"#utility.yul\":3962:3965   */\n      dup3\n        /* \"#utility.yul\":3958:3972   */\n      add\n        /* \"#utility.yul\":3950:3972   */\n      swap1\n      pop\n        /* \"#utility.yul\":3865:3978   */\n      swap2\n      swap1\n      pop\n      jump\t// out\n        /* \"#utility.yul\":4014:4746   */\n    tag_144:\n        /* \"#utility.yul\":4133:4136   */\n      0x00\n        /* \"#utility.yul\":4162:4216   */\n      tag_205\n        /* \"#utility.yul\":4210:4215   */\n      dup3\n        /* \"#utility.yul\":4162:4216   */\n      tag_138\n      jump\t// in\n    tag_205:\n        /* \"#utility.yul\":4232:4318   */\n      tag_206\n        /* \"#utility.yul\":4311:4317   */\n      dup2\n        /* \"#utility.yul\":4306:4309   */\n      dup6\n        /* \"#utility.yul\":4232:4318   */\n      tag_139\n      jump\t// in\n    tag_206:\n        /* \"#utility.yul\":4225:4318   */\n      swap4\n      pop\n        /* \"#utility.yul\":4342:4398   */\n      tag_207\n        /* \"#utility.yul\":4392:4397   */\n      dup4\n        /* \"#utility.yul\":4342:4398   */\n      tag_140\n      jump\t// in\n    tag_207:\n        /* \"#utility.yul\":4421:4428   */\n      dup1\n        /* \"#utility.yul\":4452:4453   */\n      0x00\n        /* \"#utility.yul\":4437:4721   */\n    tag_208:\n        /* \"#utility.yul\":4462:4468   */\n      dup4\n        /* \"#utility.yul\":4459:4460   */\n      dup2\n        /* \"#utility.yul\":4456:4469   */\n      lt\n        /* \"#utility.yul\":4437:4721   */\n      iszero\n      tag_210\n      jumpi\n        /* \"#utility.yul\":4538:4544   */\n      dup2\n        /* \"#utility.yul\":4532:4545   */\n      mload\n        /* \"#utility.yul\":4565:4628   */\n      tag_211\n        /* \"#utility.yul\":4624:4627   */\n      dup9\n        /* \"#utility.yul\":4609:4622   */\n      dup3\n        /* \"#utility.yul\":4565:4628   */\n      tag_142\n      jump\t// in\n    tag_211:\n        /* \"#utility.yul\":4558:4628   */\n      swap8\n      pop\n        /* \"#utility.yul\":4651:4711   */\n      tag_212\n        /* \"#utility.yul\":4704:4710   */\n      dup4\n        /* \"#utility.yul\":4651:4711   */\n      tag_143\n      jump\t// in\n    tag_212:\n        /* \"#utility.yul\":4641:4711   */\n      swap3\n      pop\n        /* \"#utility.yul\":4497:4721   */\n      pop\n        /* \"#utility.yul\":4484:4485   */\n      0x01\n        /* \"#utility.yul\":4481:4482   */\n      dup2\n        /* \"#utility.yul\":4477:4486   */\n      add\n        /* \"#utility.yul\":4472:4486   */\n      swap1\n      pop\n        /* \"#utility.yul\":4437:4721   */\n      jump(tag_208)\n    tag_210:\n        /* \"#utility.yul\":4441:4455   */\n      pop\n        /* \"#utility.yul\":4737:4740   */\n      dup6\n        /* \"#utility.yul\":4730:4740   */\n      swap4\n      pop\n        /* \"#utility.yul\":4138:4746   */\n      pop\n      pop\n      pop\n        /* \"#utility.yul\":4014:4746   */\n      swap3\n      swap2\n      pop\n      pop\n      jump\t// out\n        /* \"#utility.yul\":4752:5125   */\n    tag_19:\n        /* \"#utility.yul\":4895:4899   */\n      0x00\n        /* \"#utility.yul\":4933:4935   */\n      0x20\n        /* \"#utility.yul\":4922:4931   */\n      dup3\n        /* \"#utility.yul\":4918:4936   */\n      add\n        /* \"#utility.yul\":4910:4936   */\n      swap1\n      pop\n        /* \"#utility.yul\":4982:4991   */\n      dup2\n        /* \"#utility.yul\":4976:4980   */\n      dup2\n        /* \"#utility.yul\":4972:4992   */\n      sub\n        /* \"#utility.yul\":4968:4969   */\n      0x00\n        /* \"#utility.yul\":4957:4966   */\n      dup4\n        /* \"#utility.yul\":4953:4970   */\n      add\n        /* \"#utility.yul\":4946:4993   */\n      mstore\n        /* \"#utility.yul\":5010:5118   */\n      tag_214\n        /* \"#utility.yul\":5113:5117   */\n      dup2\n        /* \"#utility.yul\":5104:5110   */\n      dup5\n        /* \"#utility.yul\":5010:5118   */\n      tag_144\n      jump\t// in\n    tag_214:\n        /* \"#utility.yul\":5002:5118   */\n      swap1\n      pop\n        /* \"#utility.yul\":4752:5125   */\n      swap3\n      swap2\n      pop\n      pop\n      jump\t// out\n        /* \"#utility.yul\":5131:6334   */\n    tag_22:\n        /* \"#utility.yul\":5244:5250   */\n      0x00\n        /* \"#utility.yul\":5252:5258   */\n      dup1\n        /* \"#utility.yul\":5260:5266   */\n      0x00\n        /* \"#utility.yul\":5268:5274   */\n      dup1\n        /* \"#utility.yul\":5276:5282   */\n      0x00\n        /* \"#utility.yul\":5284:5290   */\n      dup1\n        /* \"#utility.yul\":5292:5298   */\n      0x00\n        /* \"#utility.yul\":5341:5344   */\n      0xe0\n        /* \"#utility.yul\":5329:5338   */\n      dup9\n        /* \"#utility.yul\":5320:5327   */\n      dup11\n        /* \"#utility.yul\":5316:5339   */\n      sub\n        /* \"#utility.yul\":5312:5345   */\n      slt\n        /* \"#utility.yul\":5309:5429   */\n      iszero\n      tag_216\n      jumpi\n        /* \"#utility.yul\":5348:5427   */\n      tag_217\n      tag_127\n      jump\t// in\n    tag_217:\n        /* \"#utility.yul\":5309:5429   */\n    tag_216:\n        /* \"#utility.yul\":5468:5469   */\n      0x00\n        /* \"#utility.yul\":5493:5546   */\n      tag_218\n        /* \"#utility.yul\":5538:5545   */\n      dup11\n        /* \"#utility.yul\":5529:5535   */\n      dup3\n        /* \"#utility.yul\":5518:5527   */\n      dup12\n        /* \"#utility.yul\":5514:5536   */\n      add\n        /* \"#utility.yul\":5493:5546   */\n      tag_131\n      jump\t// in\n    tag_218:\n        /* \"#utility.yul\":5483:5546   */\n      swap8\n      pop\n        /* \"#utility.yul\":5439:5556   */\n      pop\n        /* \"#utility.yul\":5595:5597   */\n      0x20\n        /* \"#utility.yul\":5621:5674   */\n      tag_219\n        /* \"#utility.yul\":5666:5673   */\n      dup11\n        /* \"#utility.yul\":5657:5663   */\n      dup3\n        /* \"#utility.yul\":5646:5655   */\n      dup12\n        /* \"#utility.yul\":5642:5664   */\n      add\n        /* \"#utility.yul\":5621:5674   */\n      tag_131\n      jump\t// in\n    tag_219:\n        /* \"#utility.yul\":5611:5674   */\n      swap7\n      pop\n        /* \"#utility.yul\":5566:5684   */\n      pop\n        /* \"#utility.yul\":5723:5725   */\n      0x40\n        /* \"#utility.yul\":5749:5802   */\n      tag_220\n        /* \"#utility.yul\":5794:5801   */\n      dup11\n        /* \"#utility.yul\":5785:5791   */\n      dup3\n        /* \"#utility.yul\":5774:5783   */\n      dup12\n        /* \"#utility.yul\":5770:5792   */\n      add\n        /* \"#utility.yul\":5749:5802   */\n      tag_131\n      jump\t// in\n    tag_220:\n        /* \"#utility.yul\":5739:5802   */\n      swap6\n      pop\n        /* \"#utility.yul\":5694:5812   */\n      pop\n        /* \"#utility.yul\":5851:5853   */\n      0x60\n        /* \"#utility.yul\":5877:5930   */\n      tag_221\n        /* \"#utility.yul\":5922:5929   */\n      dup11\n        /* \"#utility.yul\":5913:5919   */\n      dup3\n        /* \"#utility.yul\":5902:5911   */\n      dup12\n        /* \"#utility.yul\":5898:5920   */\n      add\n        /* \"#utility.yul\":5877:5930   */\n      tag_131\n      jump\t// in\n    tag_221:\n        /* \"#utility.yul\":5867:5930   */\n      swap5\n      pop\n        /* \"#utility.yul\":5822:5940   */\n      pop\n        /* \"#utility.yul\":5979:5982   */\n      0x80\n        /* \"#utility.yul\":6006:6059   */\n      tag_222\n        /* \"#utility.yul\":6051:6058   */\n      dup11\n        /* \"#utility.yul\":6042:6048   */\n      dup3\n        /* \"#utility.yul\":6031:6040   */\n      dup12\n        /* \"#utility.yul\":6027:6049   */\n      add\n        /* \"#utility.yul\":6006:6059   */\n      tag_131\n      jump\t// in\n    tag_222:\n        /* \"#utility.yul\":5996:6059   */\n      swap4\n      pop\n        /* \"#utility.yul\":5950:6069   */\n      pop\n        /* \"#utility.yul\":6108:6111   */\n      0xa0\n        /* \"#utility.yul\":6135:6188   */\n      tag_223\n        /* \"#utility.yul\":6180:6187   */\n      dup11\n        /* \"#utility.yul\":6171:6177   */\n      dup3\n        /* \"#utility.yul\":6160:6169   */\n      dup12\n        /* \"#utility.yul\":6156:6178   */\n      add\n        /* \"#utility.yul\":6135:6188   */\n      tag_131\n      jump\t// in\n    tag_223:\n        /* \"#utility.yul\":6125:6188   */\n      swap3\n      pop\n        /* \"#utility.yul\":6079:6198   */\n      pop\n        /* \"#utility.yul\":6237:6240   */\n      0xc0\n        /* \"#utility.yul\":6264:6317   */\n      tag_224\n        /* \"#utility.yul\":6309:6316   */\n      dup11\n        /* \"#utility.yul\":6300:6306   */\n      dup3\n        /* \"#utility.yul\":6289:6298   */\n      dup12\n        /* \"#utility.yul\":6285:6307   */\n      add\n        /* \"#utility.yul\":6264:6317   */\n      tag_137\n      jump\t// in\n    tag_224:\n        /* \"#utility.yul\":6254:6317   */\n      swap2\n      pop\n        /* \"#utility.yul\":6208:6327   */\n      pop\n        /* \"#utility.yul\":5131:6334   */\n      swap3\n      swap6\n      swap9\n      swap2\n      swap5\n      swap8\n      pop\n      swap3\n      swap6\n      pop\n      jump\t// out\n        /* \"#utility.yul\":6340:6479   */\n    tag_145:\n        /* \"#utility.yul\":6432:6438   */\n      0x00\n        /* \"#utility.yul\":6466:6471   */\n      dup2\n        /* \"#utility.yul\":6460:6472   */\n      mload\n        /* \"#utility.yul\":6450:6472   */\n      swap1\n      pop\n        /* \"#utility.yul\":6340:6479   */\n      swap2\n      swap1\n      pop\n      jump\t// out\n        /* \"#utility.yul\":6485:6694   */\n    tag_146:\n        /* \"#utility.yul\":6609:6620   */\n      0x00\n        /* \"#utility.yul\":6643:6649   */\n      dup3\n        /* \"#utility.yul\":6638:6641   */\n      dup3\n        /* \"#utility.yul\":6631:6650   */\n      mstore\n        /* \"#utility.yul\":6683:6687   */\n      0x20\n        /* \"#utility.yul\":6678:6681   */\n      dup3\n        /* \"#utility.yul\":6674:6688   */\n      add\n        /* \"#utility.yul\":6659:6688   */\n      swap1\n      pop\n        /* \"#utility.yul\":6485:6694   */\n      swap3\n      swap2\n      pop\n      pop\n      jump\t// out\n        /* \"#utility.yul\":6700:6857   */\n    tag_147:\n        /* \"#utility.yul\":6792:6796   */\n      0x00\n        /* \"#utility.yul\":6815:6818   */\n      dup2\n        /* \"#utility.yul\":6807:6818   */\n      swap1\n      pop\n        /* \"#utility.yul\":6845:6849   */\n      0x20\n        /* \"#utility.yul\":6840:6843   */\n      dup3\n        /* \"#utility.yul\":6836:6850   */\n      add\n        /* \"#utility.yul\":6828:6850   */\n      swap1\n      pop\n        /* \"#utility.yul\":6700:6857   */\n      swap2\n      swap1\n      pop\n      jump\t// out\n        /* \"#utility.yul\":6863:6971   */\n    tag_148:\n        /* \"#utility.yul\":6940:6964   */\n      tag_229\n        /* \"#utility.yul\":6958:6963   */\n      dup2\n        /* \"#utility.yul\":6940:6964   */\n      tag_134\n      jump\t// in\n    tag_229:\n        /* \"#utility.yul\":6935:6938   */\n      dup3\n        /* \"#utility.yul\":6928:6965   */\n      mstore\n        /* \"#utility.yul\":6863:6971   */\n      pop\n      pop\n      jump\t// out\n        /* \"#utility.yul\":7045:8652   */\n    tag_149:\n        /* \"#utility.yul\":7182:7188   */\n      0x0100\n        /* \"#utility.yul\":7177:7180   */\n      dup3\n        /* \"#utility.yul\":7173:7189   */\n      add\n        /* \"#utility.yul\":7280:7284   */\n      0x00\n        /* \"#utility.yul\":7273:7278   */\n      dup3\n        /* \"#utility.yul\":7269:7285   */\n      add\n        /* \"#utility.yul\":7263:7286   */\n      mload\n        /* \"#utility.yul\":7299:7362   */\n      tag_231\n        /* \"#utility.yul\":7356:7360   */\n      0x00\n        /* \"#utility.yul\":7351:7354   */\n      dup6\n        /* \"#utility.yul\":7347:7361   */\n      add\n        /* \"#utility.yul\":7333:7345   */\n      dup3\n        /* \"#utility.yul\":7299:7362   */\n      tag_141\n      jump\t// in\n    tag_231:\n        /* \"#utility.yul\":7199:7372   */\n      pop\n        /* \"#utility.yul\":7467:7471   */\n      0x20\n        /* \"#utility.yul\":7460:7465   */\n      dup3\n        /* \"#utility.yul\":7456:7472   */\n      add\n        /* \"#utility.yul\":7450:7473   */\n      mload\n        /* \"#utility.yul\":7486:7549   */\n      tag_232\n        /* \"#utility.yul\":7543:7547   */\n      0x20\n        /* \"#utility.yul\":7538:7541   */\n      dup6\n        /* \"#utility.yul\":7534:7548   */\n      add\n        /* \"#utility.yul\":7520:7532   */\n      dup3\n        /* \"#utility.yul\":7486:7549   */\n      tag_141\n      jump\t// in\n    tag_232:\n        /* \"#utility.yul\":7382:7559   */\n      pop\n        /* \"#utility.yul\":7650:7654   */\n      0x40\n        /* \"#utility.yul\":7643:7648   */\n      dup3\n        /* \"#utility.yul\":7639:7655   */\n      add\n        /* \"#utility.yul\":7633:7656   */\n      mload\n        /* \"#utility.yul\":7669:7732   */\n      tag_233\n        /* \"#utility.yul\":7726:7730   */\n      0x40\n        /* \"#utility.yul\":7721:7724   */\n      dup6\n        /* \"#utility.yul\":7717:7731   */\n      add\n        /* \"#utility.yul\":7703:7715   */\n      dup3\n        /* \"#utility.yul\":7669:7732   */\n      tag_141\n      jump\t// in\n    tag_233:\n        /* \"#utility.yul\":7569:7742   */\n      pop\n        /* \"#utility.yul\":7832:7836   */\n      0x60\n        /* \"#utility.yul\":7825:7830   */\n      dup3\n        /* \"#utility.yul\":7821:7837   */\n      add\n        /* \"#utility.yul\":7815:7838   */\n      mload\n        /* \"#utility.yul\":7851:7914   */\n      tag_234\n        /* \"#utility.yul\":7908:7912   */\n      0x60\n        /* \"#utility.yul\":7903:7906   */\n      dup6\n        /* \"#utility.yul\":7899:7913   */\n      add\n        /* \"#utility.yul\":7885:7897   */\n      dup3\n        /* \"#utility.yul\":7851:7914   */\n      tag_141\n      jump\t// in\n    tag_234:\n        /* \"#utility.yul\":7752:7924   */\n      pop\n        /* \"#utility.yul\":8010:8014   */\n      0x80\n        /* \"#utility.yul\":8003:8008   */\n      dup3\n        /* \"#utility.yul\":7999:8015   */\n      add\n        /* \"#utility.yul\":7993:8016   */\n      mload\n        /* \"#utility.yul\":8029:8092   */\n      tag_235\n        /* \"#utility.yul\":8086:8090   */\n      0x80\n        /* \"#utility.yul\":8081:8084   */\n      dup6\n        /* \"#utility.yul\":8077:8091   */\n      add\n        /* \"#utility.yul\":8063:8075   */\n      dup3\n        /* \"#utility.yul\":8029:8092   */\n      tag_141\n      jump\t// in\n    tag_235:\n        /* \"#utility.yul\":7934:8102   */\n      pop\n        /* \"#utility.yul\":8191:8195   */\n      0xa0\n        /* \"#utility.yul\":8184:8189   */\n      dup3\n        /* \"#utility.yul\":8180:8196   */\n      add\n        /* \"#utility.yul\":8174:8197   */\n      mload\n        /* \"#utility.yul\":8210:8273   */\n      tag_236\n        /* \"#utility.yul\":8267:8271   */\n      0xa0\n        /* \"#utility.yul\":8262:8265   */\n      dup6\n        /* \"#utility.yul\":8258:8272   */\n      add\n        /* \"#utility.yul\":8244:8256   */\n      dup3\n        /* \"#utility.yul\":8210:8273   */\n      tag_141\n      jump\t// in\n    tag_236:\n        /* \"#utility.yul\":8112:8283   */\n      pop\n        /* \"#utility.yul\":8374:8378   */\n      0xc0\n        /* \"#utility.yul\":8367:8372   */\n      dup3\n        /* \"#utility.yul\":8363:8379   */\n      add\n        /* \"#utility.yul\":8357:8380   */\n      mload\n        /* \"#utility.yul\":8393:8456   */\n      tag_237\n        /* \"#utility.yul\":8450:8454   */\n      0xc0\n        /* \"#utility.yul\":8445:8448   */\n      dup6\n        /* \"#utility.yul\":8441:8455   */\n      add\n        /* \"#utility.yul\":8427:8439   */\n      dup3\n        /* \"#utility.yul\":8393:8456   */\n      tag_148\n      jump\t// in\n    tag_237:\n        /* \"#utility.yul\":8293:8466   */\n      pop\n        /* \"#utility.yul\":8553:8557   */\n      0xe0\n        /* \"#utility.yul\":8546:8551   */\n      dup3\n        /* \"#utility.yul\":8542:8558   */\n      add\n        /* \"#utility.yul\":8536:8559   */\n      mload\n        /* \"#utility.yul\":8572:8635   */\n      tag_238\n        /* \"#utility.yul\":8629:8633   */\n      0xe0\n        /* \"#utility.yul\":8624:8627   */\n      dup6\n        /* \"#utility.yul\":8620:8634   */\n      add\n        /* \"#utility.yul\":8606:8618   */\n      dup3\n        /* \"#utility.yul\":8572:8635   */\n      tag_141\n      jump\t// in\n    tag_238:\n        /* \"#utility.yul\":8476:8645   */\n      pop\n        /* \"#utility.yul\":7151:8652   */\n      pop\n        /* \"#utility.yul\":7045:8652   */\n      pop\n      pop\n      jump\t// out\n        /* \"#utility.yul\":8658:8939   */\n    tag_150:\n        /* \"#utility.yul\":8777:8787   */\n      0x00\n        /* \"#utility.yul\":8798:8894   */\n      tag_240\n        /* \"#utility.yul\":8890:8893   */\n      dup4\n        /* \"#utility.yul\":8882:8888   */\n      dup4\n        /* \"#utility.yul\":8798:8894   */\n      tag_149\n      jump\t// in\n    tag_240:\n        /* \"#utility.yul\":8926:8932   */\n      0x0100\n        /* \"#utility.yul\":8921:8924   */\n      dup4\n        /* \"#utility.yul\":8917:8933   */\n      add\n        /* \"#utility.yul\":8903:8933   */\n      swap1\n      pop\n        /* \"#utility.yul\":8658:8939   */\n      swap3\n      swap2\n      pop\n      pop\n      jump\t// out\n        /* \"#utility.yul\":8945:9083   */\n    tag_151:\n        /* \"#utility.yul\":9040:9044   */\n      0x00\n        /* \"#utility.yul\":9072:9076   */\n      0x20\n        /* \"#utility.yul\":9067:9070   */\n      dup3\n        /* \"#utility.yul\":9063:9077   */\n      add\n        /* \"#utility.yul\":9055:9077   */\n      swap1\n      pop\n        /* \"#utility.yul\":8945:9083   */\n      swap2\n      swap1\n      pop\n      jump\t// out\n        /* \"#utility.yul\":9161:10093   */\n    tag_152:\n        /* \"#utility.yul\":9330:9333   */\n      0x00\n        /* \"#utility.yul\":9359:9438   */\n      tag_243\n        /* \"#utility.yul\":9432:9437   */\n      dup3\n        /* \"#utility.yul\":9359:9438   */\n      tag_145\n      jump\t// in\n    tag_243:\n        /* \"#utility.yul\":9454:9565   */\n      tag_244\n        /* \"#utility.yul\":9558:9564   */\n      dup2\n        /* \"#utility.yul\":9553:9556   */\n      dup6\n        /* \"#utility.yul\":9454:9565   */\n      tag_146\n      jump\t// in\n    tag_244:\n        /* \"#utility.yul\":9447:9565   */\n      swap4\n      pop\n        /* \"#utility.yul\":9589:9670   */\n      tag_245\n        /* \"#utility.yul\":9664:9669   */\n      dup4\n        /* \"#utility.yul\":9589:9670   */\n      tag_147\n      jump\t// in\n    tag_245:\n        /* \"#utility.yul\":9693:9700   */\n      dup1\n        /* \"#utility.yul\":9724:9725   */\n      0x00\n        /* \"#utility.yul\":9709:10068   */\n    tag_246:\n        /* \"#utility.yul\":9734:9740   */\n      dup4\n        /* \"#utility.yul\":9731:9732   */\n      dup2\n        /* \"#utility.yul\":9728:9741   */\n      lt\n        /* \"#utility.yul\":9709:10068   */\n      iszero\n      tag_248\n      jumpi\n        /* \"#utility.yul\":9810:9816   */\n      dup2\n        /* \"#utility.yul\":9804:9817   */\n      mload\n        /* \"#utility.yul\":9837:9950   */\n      tag_249\n        /* \"#utility.yul\":9946:9949   */\n      dup9\n        /* \"#utility.yul\":9931:9944   */\n      dup3\n        /* \"#utility.yul\":9837:9950   */\n      tag_150\n      jump\t// in\n    tag_249:\n        /* \"#utility.yul\":9830:9950   */\n      swap8\n      pop\n        /* \"#utility.yul\":9973:10058   */\n      tag_250\n        /* \"#utility.yul\":10051:10057   */\n      dup4\n        /* \"#utility.yul\":9973:10058   */\n      tag_151\n      jump\t// in\n    tag_250:\n        /* \"#utility.yul\":9963:10058   */\n      swap3\n      pop\n        /* \"#utility.yul\":9769:10068   */\n      pop\n        /* \"#utility.yul\":9756:9757   */\n      0x01\n        /* \"#utility.yul\":9753:9754   */\n      dup2\n        /* \"#utility.yul\":9749:9758   */\n      add\n        /* \"#utility.yul\":9744:9758   */\n      swap1\n      pop\n        /* \"#utility.yul\":9709:10068   */\n      jump(tag_246)\n    tag_248:\n        /* \"#utility.yul\":9713:9727   */\n      pop\n        /* \"#utility.yul\":10084:10087   */\n      dup6\n        /* \"#utility.yul\":10077:10087   */\n      swap4\n      pop\n        /* \"#utility.yul\":9335:10093   */\n      pop\n      pop\n      pop\n        /* \"#utility.yul\":9161:10093   */\n      swap3\n      swap2\n      pop\n      pop\n      jump\t// out\n        /* \"#utility.yul\":10099:10572   */\n    tag_31:\n        /* \"#utility.yul\":10292:10296   */\n      0x00\n        /* \"#utility.yul\":10330:10332   */\n      0x20\n        /* \"#utility.yul\":10319:10328   */\n      dup3\n        /* \"#utility.yul\":10315:10333   */\n      add\n        /* \"#utility.yul\":10307:10333   */\n      swap1\n      pop\n        /* \"#utility.yul\":10379:10388   */\n      dup2\n        /* \"#utility.yul\":10373:10377   */\n      dup2\n        /* \"#utility.yul\":10369:10389   */\n      sub\n        /* \"#utility.yul\":10365:10366   */\n      0x00\n        /* \"#utility.yul\":10354:10363   */\n      dup4\n        /* \"#utility.yul\":10350:10367   */\n      add\n        /* \"#utility.yul\":10343:10390   */\n      mstore\n        /* \"#utility.yul\":10407:10565   */\n      tag_252\n        /* \"#utility.yul\":10560:10564   */\n      dup2\n        /* \"#utility.yul\":10551:10557   */\n      dup5\n        /* \"#utility.yul\":10407:10565   */\n      tag_152\n      jump\t// in\n    tag_252:\n        /* \"#utility.yul\":10399:10565   */\n      swap1\n      pop\n        /* \"#utility.yul\":10099:10572   */\n      swap3\n      swap2\n      pop\n      pop\n      jump\t// out\n        /* \"#utility.yul\":10578:10758   */\n    tag_40:\n        /* \"#utility.yul\":10626:10703   */\n      0x4e487b7100000000000000000000000000000000000000000000000000000000\n        /* \"#utility.yul\":10623:10624   */\n      0x00\n        /* \"#utility.yul\":10616:10704   */\n      mstore\n        /* \"#utility.yul\":10723:10727   */\n      0x32\n        /* \"#utility.yul\":10720:10721   */\n      0x04\n        /* \"#utility.yul\":10713:10728   */\n      mstore\n        /* \"#utility.yul\":10747:10751   */\n      0x24\n        /* \"#utility.yul\":10744:10745   */\n      0x00\n        /* \"#utility.yul\":10737:10752   */\n      revert\n        /* \"#utility.yul\":10764:10944   */\n    tag_153:\n        /* \"#utility.yul\":10812:10889   */\n      0x4e487b7100000000000000000000000000000000000000000000000000000000\n        /* \"#utility.yul\":10809:10810   */\n      0x00\n        /* \"#utility.yul\":10802:10890   */\n      mstore\n        /* \"#utility.yul\":10909:10913   */\n      0x11\n        /* \"#utility.yul\":10906:10907   */\n      0x04\n        /* \"#utility.yul\":10899:10914   */\n      mstore\n        /* \"#utility.yul\":10933:10937   */\n      0x24\n        /* \"#utility.yul\":10930:10931   */\n      0x00\n        /* \"#utility.yul\":10923:10938   */\n      revert\n        /* \"#utility.yul\":10950:11183   */\n    tag_44:\n        /* \"#utility.yul\":10989:10992   */\n      0x00\n        /* \"#utility.yul\":11012:11036   */\n      tag_256\n        /* \"#utility.yul\":11030:11035   */\n      dup3\n        /* \"#utility.yul\":11012:11036   */\n      tag_129\n      jump\t// in\n    tag_256:\n        /* \"#utility.yul\":11003:11036   */\n      swap2\n      pop\n        /* \"#utility.yul\":11058:11124   */\n      0xffffffffffffffffffffffffffffffffffffffffffffffffffffffffffffffff\n        /* \"#utility.yul\":11051:11056   */\n      dup3\n        /* \"#utility.yul\":11048:11125   */\n      sub\n        /* \"#utility.yul\":11045:11148   */\n      tag_257\n      jumpi\n        /* \"#utility.yul\":11128:11146   */\n      tag_258\n      tag_153\n      jump\t// in\n    tag_258:\n        /* \"#utility.yul\":11045:11148   */\n    tag_257:\n        /* \"#utility.yul\":11175:11176   */\n      0x01\n        /* \"#utility.yul\":11168:11173   */\n      dup3\n        /* \"#utility.yul\":11164:11177   */\n      add\n        /* \"#utility.yul\":11157:11177   */\n      swap1\n      pop\n        /* \"#utility.yul\":10950:11183   */\n      swap2\n      swap1\n      pop\n      jump\t// out\n        /* \"#utility.yul\":11189:11599   */\n    tag_46:\n        /* \"#utility.yul\":11229:11236   */\n      0x00\n        /* \"#utility.yul\":11252:11272   */\n      tag_260\n        /* \"#utility.yul\":11270:11271   */\n      dup3\n        /* \"#utility.yul\":11252:11272   */\n      tag_129\n      jump\t// in\n    tag_260:\n        /* \"#utility.yul\":11247:11272   */\n      swap2\n      pop\n        /* \"#utility.yul\":11286:11306   */\n      tag_261\n        /* \"#utility.yul\":11304:11305   */\n      dup4\n        /* \"#utility.yul\":11286:11306   */\n      tag_129\n      jump\t// in\n    tag_261:\n        /* \"#utility.yul\":11281:11306   */\n      swap3\n      pop\n        /* \"#utility.yul\":11341:11342   */\n      dup3\n        /* \"#utility.yul\":11338:11339   */\n      dup3\n        /* \"#utility.yul\":11334:11343   */\n      mul\n        /* \"#utility.yul\":11363:11393   */\n      tag_262\n        /* \"#utility.yul\":11381:11392   */\n      dup2\n        /* \"#utility.yul\":11363:11393   */\n      tag_129\n      jump\t// in\n    tag_262:\n        /* \"#utility.yul\":11352:11393   */\n      swap2\n      pop\n        /* \"#utility.yul\":11542:11543   */\n      dup3\n        /* \"#utility.yul\":11533:11540   */\n      dup3\n        /* \"#utility.yul\":11529:11544   */\n      div\n        /* \"#utility.yul\":11526:11527   */\n      dup5\n        /* \"#utility.yul\":11523:11545   */\n      eq\n        /* \"#utility.yul\":11503:11504   */\n      dup4\n        /* \"#utility.yul\":11496:11505   */\n      iszero\n        /* \"#utility.yul\":11476:11559   */\n      or\n        /* \"#utility.yul\":11453:11592   */\n      tag_263\n      jumpi\n        /* \"#utility.yul\":11572:11590   */\n      tag_264\n      tag_153\n      jump\t// in\n    tag_264:\n        /* \"#utility.yul\":11453:11592   */\n    tag_263:\n        /* \"#utility.yul\":11237:11599   */\n      pop\n        /* \"#utility.yul\":11189:11599   */\n      swap3\n      swap2\n      pop\n      pop\n      jump\t// out\n        /* \"#utility.yul\":11605:11785   */\n    tag_49:\n        /* \"#utility.yul\":11653:11730   */\n      0x4e487b7100000000000000000000000000000000000000000000000000000000\n        /* \"#utility.yul\":11650:11651   */\n      0x00\n        /* \"#utility.yul\":11643:11731   */\n      mstore\n        /* \"#utility.yul\":11750:11754   */\n      0x41\n        /* \"#utility.yul\":11747:11748   */\n      0x04\n        /* \"#utility.yul\":11740:11755   */\n      mstore\n        /* \"#utility.yul\":11774:11778   */\n      0x24\n        /* \"#utility.yul\":11771:11772   */\n      0x00\n        /* \"#utility.yul\":11764:11779   */\n      revert\n        /* \"#utility.yul\":11791:11985   */\n    tag_55:\n        /* \"#utility.yul\":11831:11835   */\n      0x00\n        /* \"#utility.yul\":11851:11871   */\n      tag_267\n        /* \"#utility.yul\":11869:11870   */\n      dup3\n        /* \"#utility.yul\":11851:11871   */\n      tag_129\n      jump\t// in\n    tag_267:\n        /* \"#utility.yul\":11846:11871   */\n      swap2\n      pop\n        /* \"#utility.yul\":11885:11905   */\n      tag_268\n        /* \"#utility.yul\":11903:11904   */\n      dup4\n        /* \"#utility.yul\":11885:11905   */\n      tag_129\n      jump\t// in\n    tag_268:\n        /* \"#utility.yul\":11880:11905   */\n      swap3\n      pop\n        /* \"#utility.yul\":11929:11930   */\n      dup3\n        /* \"#utility.yul\":11926:11927   */\n      dup3\n        /* \"#utility.yul\":11922:11931   */\n      sub\n        /* \"#utility.yul\":11914:11931   */\n      swap1\n      pop\n        /* \"#utility.yul\":11953:11954   */\n      dup2\n        /* \"#utility.yul\":11947:11951   */\n      dup2\n        /* \"#utility.yul\":11944:11955   */\n      gt\n        /* \"#utility.yul\":11941:11978   */\n      iszero\n      tag_269\n      jumpi\n        /* \"#utility.yul\":11958:11976   */\n      tag_270\n      tag_153\n      jump\t// in\n    tag_270:\n        /* \"#utility.yul\":11941:11978   */\n    tag_269:\n        /* \"#utility.yul\":11791:11985   */\n      swap3\n      swap2\n      pop\n      pop\n      jump\t// out\n        /* \"#utility.yul\":11991:12182   */\n    tag_73:\n        /* \"#utility.yul\":12031:12034   */\n      0x00\n        /* \"#utility.yul\":12050:12070   */\n      tag_272\n        /* \"#utility.yul\":12068:12069   */\n      dup3\n        /* \"#utility.yul\":12050:12070   */\n      tag_129\n      jump\t// in\n    tag_272:\n        /* \"#utility.yul\":12045:12070   */\n      swap2\n      pop\n        /* \"#utility.yul\":12084:12104   */\n      tag_273\n        /* \"#utility.yul\":12102:12103   */\n      dup4\n        /* \"#utility.yul\":12084:12104   */\n      tag_129\n      jump\t// in\n    tag_273:\n        /* \"#utility.yul\":12079:12104   */\n      swap3\n      pop\n        /* \"#utility.yul\":12127:12128   */\n      dup3\n        /* \"#utility.yul\":12124:12125   */\n      dup3\n        /* \"#utility.yul\":12120:12129   */\n      add\n        /* \"#utility.yul\":12113:12129   */\n      swap1\n      pop\n        /* \"#utility.yul\":12148:12151   */\n      dup1\n        /* \"#utility.yul\":12145:12146   */\n      dup3\n        /* \"#utility.yul\":12142:12152   */\n      gt\n        /* \"#utility.yul\":12139:12175   */\n      iszero\n      tag_274\n      jumpi\n        /* \"#utility.yul\":12155:12173   */\n      tag_275\n      tag_153\n      jump\t// in\n    tag_275:\n        /* \"#utility.yul\":12139:12175   */\n    tag_274:\n        /* \"#utility.yul\":11991:12182   */\n      swap3\n      swap2\n      pop\n      pop\n      jump\t// out\n        /* \"#utility.yul\":12188:12359   */\n    tag_110:\n        /* \"#utility.yul\":12227:12230   */\n      0x00\n        /* \"#utility.yul\":12250:12274   */\n      tag_277\n        /* \"#utility.yul\":12268:12273   */\n      dup3\n        /* \"#utility.yul\":12250:12274   */\n      tag_129\n      jump\t// in\n    tag_277:\n        /* \"#utility.yul\":12241:12274   */\n      swap2\n      pop\n        /* \"#utility.yul\":12296:12300   */\n      0x00\n        /* \"#utility.yul\":12289:12294   */\n      dup3\n        /* \"#utility.yul\":12286:12301   */\n      sub\n        /* \"#utility.yul\":12283:12324   */\n      tag_278\n      jumpi\n        /* \"#utility.yul\":12304:12322   */\n      tag_279\n      tag_153\n      jump\t// in\n    tag_279:\n        /* \"#utility.yul\":12283:12324   */\n    tag_278:\n        /* \"#utility.yul\":12351:12352   */\n      0x01\n        /* \"#utility.yul\":12344:12349   */\n      dup3\n        /* \"#utility.yul\":12340:12353   */\n      sub\n        /* \"#utility.yul\":12333:12353   */\n      swap1\n      pop\n        /* \"#utility.yul\":12188:12359   */\n      swap2\n      swap1\n      pop\n      jump\t// out\n        /* \"#utility.yul\":12365:13251   */\n    tag_114:\n        /* \"#utility.yul\":12626:12630   */\n      0x00\n        /* \"#utility.yul\":12664:12667   */\n      0xe0\n        /* \"#utility.yul\":12653:12662   */\n      dup3\n        /* \"#utility.yul\":12649:12668   */\n      add\n        /* \"#utility.yul\":12641:12668   */\n      swap1\n      pop\n        /* \"#utility.yul\":12678:12749   */\n      tag_281\n        /* \"#utility.yul\":12746:12747   */\n      0x00\n        /* \"#utility.yul\":12735:12744   */\n      dup4\n        /* \"#utility.yul\":12731:12748   */\n      add\n        /* \"#utility.yul\":12722:12728   */\n      dup11\n        /* \"#utility.yul\":12678:12749   */\n      tag_132\n      jump\t// in\n    tag_281:\n        /* \"#utility.yul\":12759:12831   */\n      tag_282\n        /* \"#utility.yul\":12827:12829   */\n      0x20\n        /* \"#utility.yul\":12816:12825   */\n      dup4\n        /* \"#utility.yul\":12812:12830   */\n      add\n        /* \"#utility.yul\":12803:12809   */\n      dup10\n        /* \"#utility.yul\":12759:12831   */\n      tag_132\n      jump\t// in\n    tag_282:\n        /* \"#utility.yul\":12841:12913   */\n      tag_283\n        /* \"#utility.yul\":12909:12911   */\n      0x40\n        /* \"#utility.yul\":12898:12907   */\n      dup4\n        /* \"#utility.yul\":12894:12912   */\n      add\n        /* \"#utility.yul\":12885:12891   */\n      dup9\n        /* \"#utility.yul\":12841:12913   */\n      tag_132\n      jump\t// in\n    tag_283:\n        /* \"#utility.yul\":12923:12995   */\n      tag_284\n        /* \"#utility.yul\":12991:12993   */\n      0x60\n        /* \"#utility.yul\":12980:12989   */\n      dup4\n        /* \"#utility.yul\":12976:12994   */\n      add\n        /* \"#utility.yul\":12967:12973   */\n      dup8\n        /* \"#utility.yul\":12923:12995   */\n      tag_132\n      jump\t// in\n    tag_284:\n        /* \"#utility.yul\":13005:13078   */\n      tag_285\n        /* \"#utility.yul\":13073:13076   */\n      0x80\n        /* \"#utility.yul\":13062:13071   */\n      dup4\n        /* \"#utility.yul\":13058:13077   */\n      add\n        /* \"#utility.yul\":13049:13055   */\n      dup7\n        /* \"#utility.yul\":13005:13078   */\n      tag_132\n      jump\t// in\n    tag_285:\n        /* \"#utility.yul\":13088:13161   */\n      tag_286\n        /* \"#utility.yul\":13156:13159   */\n      0xa0\n        /* \"#utility.yul\":13145:13154   */\n      dup4\n        /* \"#utility.yul\":13141:13160   */\n      add\n        /* \"#utility.yul\":13132:13138   */\n      dup6\n        /* \"#utility.yul\":13088:13161   */\n      tag_132\n      jump\t// in\n    tag_286:\n        /* \"#utility.yul\":13171:13244   */\n      tag_287\n        /* \"#utility.yul\":13239:13242   */\n      0xc0\n        /* \"#utility.yul\":13228:13237   */\n      dup4\n        /* \"#utility.yul\":13224:13243   */\n      add\n        /* \"#utility.yul\":13215:13221   */\n      dup5\n        /* \"#utility.yul\":13171:13244   */\n      tag_132\n      jump\t// in\n    tag_287:\n        /* \"#utility.yul\":12365:13251   */\n      swap9\n      swap8\n      pop\n      pop\n      pop\n      pop\n      pop\n      pop\n      pop\n      pop\n      jump\t// out\n        /* \"#utility.yul\":13257:13426   */\n    tag_154:\n        /* \"#utility.yul\":13341:13352   */\n      0x00\n        /* \"#utility.yul\":13375:13381   */\n      dup3\n        /* \"#utility.yul\":13370:13373   */\n      dup3\n        /* \"#utility.yul\":13363:13382   */\n      mstore\n        /* \"#utility.yul\":13415:13419   */\n      0x20\n        /* \"#utility.yul\":13410:13413   */\n      dup3\n        /* \"#utility.yul\":13406:13420   */\n      add\n        /* \"#utility.yul\":13391:13420   */\n      swap1\n      pop\n        /* \"#utility.yul\":13257:13426   */\n      swap3\n      swap2\n      pop\n      pop\n      jump\t// out\n        /* \"#utility.yul\":13432:13601   */\n    tag_155:\n        /* \"#utility.yul\":13572:13593   */\n      0x496e646578206f7574206f6620626f756e647300000000000000000000000000\n        /* \"#utility.yul\":13568:13569   */\n      0x00\n        /* \"#utility.yul\":13560:13566   */\n      dup3\n        /* \"#utility.yul\":13556:13570   */\n      add\n        /* \"#utility.yul\":13549:13594   */\n      mstore\n        /* \"#utility.yul\":13432:13601   */\n      pop\n      jump\t// out\n        /* \"#utility.yul\":13607:13973   */\n    tag_156:\n        /* \"#utility.yul\":13749:13752   */\n      0x00\n        /* \"#utility.yul\":13770:13837   */\n      tag_291\n        /* \"#utility.yul\":13834:13836   */\n      0x13\n        /* \"#utility.yul\":13829:13832   */\n      dup4\n        /* \"#utility.yul\":13770:13837   */\n      tag_154\n      jump\t// in\n    tag_291:\n        /* \"#utility.yul\":13763:13837   */\n      swap2\n      pop\n        /* \"#utility.yul\":13846:13939   */\n      tag_292\n        /* \"#utility.yul\":13935:13938   */\n      dup3\n        /* \"#utility.yul\":13846:13939   */\n      tag_155\n      jump\t// in\n    tag_292:\n        /* \"#utility.yul\":13964:13966   */\n      0x20\n        /* \"#utility.yul\":13959:13962   */\n      dup3\n        /* \"#utility.yul\":13955:13967   */\n      add\n        /* \"#utility.yul\":13948:13967   */\n      swap1\n      pop\n        /* \"#utility.yul\":13607:13973   */\n      swap2\n      swap1\n      pop\n      jump\t// out\n        /* \"#utility.yul\":13979:14398   */\n    tag_118:\n        /* \"#utility.yul\":14145:14149   */\n      0x00\n        /* \"#utility.yul\":14183:14185   */\n      0x20\n        /* \"#utility.yul\":14172:14181   */\n      dup3\n        /* \"#utility.yul\":14168:14186   */\n      add\n        /* \"#utility.yul\":14160:14186   */\n      swap1\n      pop\n        /* \"#utility.yul\":14232:14241   */\n      dup2\n        /* \"#utility.yul\":14226:14230   */\n      dup2\n        /* \"#utility.yul\":14222:14242   */\n      sub\n        /* \"#utility.yul\":14218:14219   */\n      0x00\n        /* \"#utility.yul\":14207:14216   */\n      dup4\n        /* \"#utility.yul\":14203:14220   */\n      add\n        /* \"#utility.yul\":14196:14243   */\n      mstore\n        /* \"#utility.yul\":14260:14391   */\n      tag_294\n        /* \"#utility.yul\":14386:14390   */\n      dup2\n        /* \"#utility.yul\":14260:14391   */\n      tag_156\n      jump\t// in\n    tag_294:\n        /* \"#utility.yul\":14252:14391   */\n      swap1\n      pop\n        /* \"#utility.yul\":13979:14398   */\n      swap2\n      swap1\n      pop\n      jump\t// out\n\n    auxdata: 0xa2646970667358221220df4f6fcf45c102f7d733a423482855bb91926cfdf137e90bad4d23066749e5ef64736f6c634300081a0033\n}\n",
				"bytecode": {
					"linkReferences": {},
					"object": "6080604052348015600e575f80fd5b506110918061001c5f395ff3fe608060405234801561000f575f80fd5b5060043610610055575f3560e01c8063325f46581461005957806354751a3814610090578063b8bd5f25146100c0578063f75d8ada146100dc578063ffad0c8f14610113575b5f80fd5b610073600480360381019061006e91906109a4565b610131565b604051610087989796959493929190610a1d565b60405180910390f35b6100aa60048036038101906100a59190610ac3565b6101a2565b6040516100b79190610ba5565b60405180910390f35b6100da60048036038101906100d59190610bc5565b6105b3565b005b6100f660048036038101906100f191906109a4565b61071e565b60405161010a989796959493929190610a1d565b60405180910390f35b61011b610877565b6040516101289190610dba565b60405180910390f35b5f818154811061013f575f80fd5b905f5260205f2090600802015f91509050805f015490806001015490806002015490806003015490806004015490806005015490806006015f9054906101000a900473ffffffffffffffffffffffffffffffffffffffff16908060070154905088565b60605f805b5f80549050811015610243578373ffffffffffffffffffffffffffffffffffffffff165f82815481106101dd576101dc610dda565b5b905f5260205f2090600802016006015f9054906101000a900473ffffffffffffffffffffffffffffffffffffffff1673ffffffffffffffffffffffffffffffffffffffff160361023657818061023290610e34565b9250505b80806001019150506101a7565b505f6006826102529190610e7b565b67ffffffffffffffff81111561026b5761026a610ebc565b5b6040519080825280602002602001820160405280156102995781602001602082028036833780820191505090505b5090505f80808054905090505b5f8111156105a7578573ffffffffffffffffffffffffffffffffffffffff165f6001836102d39190610ee9565b815481106102e4576102e3610dda565b5b905f5260205f2090600802016006015f9054906101000a900473ffffffffffffffffffffffffffffffffffffffff1673ffffffffffffffffffffffffffffffffffffffff1603610594575f60018261033c9190610ee9565b8154811061034d5761034c610dda565b5b905f5260205f2090600802015f01548360068461036a9190610e7b565b8151811061037b5761037a610dda565b5b6020026020010181815250505f6001826103959190610ee9565b815481106103a6576103a5610dda565b5b905f5260205f209060080201600101548360016006856103c69190610e7b565b6103d09190610f1c565b815181106103e1576103e0610dda565b5b6020026020010181815250505f6001826103fb9190610ee9565b8154811061040c5761040b610dda565b5b905f5260205f2090600802016002015483600260068561042c9190610e7b565b6104369190610f1c565b8151811061044757610446610dda565b5b6020026020010181815250505f6001826104619190610ee9565b8154811061047257610471610dda565b5b905f5260205f209060080201600301548360036006856104929190610e7b565b61049c9190610f1c565b815181106104ad576104ac610dda565b5b6020026020010181815250505f6001826104c79190610ee9565b815481106104d8576104d7610dda565b5b905f5260205f209060080201600401548360046006856104f89190610e7b565b6105029190610f1c565b8151811061051357610512610dda565b5b6020026020010181815250505f60018261052d9190610ee9565b8154811061053e5761053d610dda565b5b905f5260205f2090600802016005015483600560068561055e9190610e7b565b6105689190610f1c565b8151811061057957610578610dda565b5b602002602001018181525050818061059090610e34565b9250505b808061059f90610f4f565b9150506102a6565b50819350505050919050565b5f6040518061010001604052808981526020018881526020018781526020018681526020018581526020018481526020018373ffffffffffffffffffffffffffffffffffffffff1681526020014281525090505f81908060018154018082558091505060019003905f5260205f2090600802015f909190919091505f820151815f01556020820151816001015560408201518160020155606082015181600301556080820151816004015560a0820151816005015560c0820151816006015f6101000a81548173ffffffffffffffffffffffffffffffffffffffff021916908373ffffffffffffffffffffffffffffffffffffffff16021790555060e0820151816007015550508173ffffffffffffffffffffffffffffffffffffffff167f0520ca8400c530c05e265fe59da93e2abc1187ed3bf15c7dc82846f0edc3cb758989898989894260405161070c9796959493929190610f76565b60405180910390a25050505050505050565b5f805f805f805f805f80549050891061076c576040517f08c379a00000000000000000000000000000000000000000000000000000000081526004016107639061103d565b60405180910390fd5b5f808a815481106107805761077f610dda565b5b905f5260205f209060080201604051806101000160405290815f82015481526020016001820154815260200160028201548152602001600382015481526020016004820154815260200160058201548152602001600682015f9054906101000a900473ffffffffffffffffffffffffffffffffffffffff1673ffffffffffffffffffffffffffffffffffffffff1673ffffffffffffffffffffffffffffffffffffffff1681526020016007820154815250509050805f015181602001518260400151836060015184608001518560a001518660c001518760e001519850985098509850985098509850985050919395975091939597565b60605f805480602002602001604051908101604052809291908181526020015f905b82821015610964578382905f5260205f209060080201604051806101000160405290815f82015481526020016001820154815260200160028201548152602001600382015481526020016004820154815260200160058201548152602001600682015f9054906101000a900473ffffffffffffffffffffffffffffffffffffffff1673ffffffffffffffffffffffffffffffffffffffff1673ffffffffffffffffffffffffffffffffffffffff16815260200160078201548152505081526020019060010190610899565b50505050905090565b5f80fd5b5f819050919050565b61098381610971565b811461098d575f80fd5b50565b5f8135905061099e8161097a565b92915050565b5f602082840312156109b9576109b861096d565b5b5f6109c684828501610990565b91505092915050565b6109d881610971565b82525050565b5f73ffffffffffffffffffffffffffffffffffffffff82169050919050565b5f610a07826109de565b9050919050565b610a17816109fd565b82525050565b5f61010082019050610a315f83018b6109cf565b610a3e602083018a6109cf565b610a4b60408301896109cf565b610a5860608301886109cf565b610a6560808301876109cf565b610a7260a08301866109cf565b610a7f60c0830185610a0e565b610a8c60e08301846109cf565b9998505050505050505050565b610aa2816109fd565b8114610aac575f80fd5b50565b5f81359050610abd81610a99565b92915050565b5f60208284031215610ad857610ad761096d565b5b5f610ae584828501610aaf565b91505092915050565b5f81519050919050565b5f82825260208201905092915050565b5f819050602082019050919050565b610b2081610971565b82525050565b5f610b318383610b17565b60208301905092915050565b5f602082019050919050565b5f610b5382610aee565b610b5d8185610af8565b9350610b6883610b08565b805f5b83811015610b98578151610b7f8882610b26565b9750610b8a83610b3d565b925050600181019050610b6b565b5085935050505092915050565b5f6020820190508181035f830152610bbd8184610b49565b905092915050565b5f805f805f805f60e0888a031215610be057610bdf61096d565b5b5f610bed8a828b01610990565b9750506020610bfe8a828b01610990565b9650506040610c0f8a828b01610990565b9550506060610c208a828b01610990565b9450506080610c318a828b01610990565b93505060a0610c428a828b01610990565b92505060c0610c538a828b01610aaf565b91505092959891949750929550565b5f81519050919050565b5f82825260208201905092915050565b5f819050602082019050919050565b610c94816109fd565b82525050565b61010082015f820151610caf5f850182610b17565b506020820151610cc26020850182610b17565b506040820151610cd56040850182610b17565b506060820151610ce86060850182610b17565b506080820151610cfb6080850182610b17565b5060a0820151610d0e60a0850182610b17565b5060c0820151610d2160c0850182610c8b565b5060e0820151610d3460e0850182610b17565b50505050565b5f610d458383610c9a565b6101008301905092915050565b5f602082019050919050565b5f610d6882610c62565b610d728185610c6c565b9350610d7d83610c7c565b805f5b83811015610dad578151610d948882610d3a565b9750610d9f83610d52565b925050600181019050610d80565b5085935050505092915050565b5f6020820190508181035f830152610dd28184610d5e565b905092915050565b7f4e487b71000000000000000000000000000000000000000000000000000000005f52603260045260245ffd5b7f4e487b71000000000000000000000000000000000000000000000000000000005f52601160045260245ffd5b5f610e3e82610971565b91507fffffffffffffffffffffffffffffffffffffffffffffffffffffffffffffffff8203610e7057610e6f610e07565b5b600182019050919050565b5f610e8582610971565b9150610e9083610971565b9250828202610e9e81610971565b91508282048414831517610eb557610eb4610e07565b5b5092915050565b7f4e487b71000000000000000000000000000000000000000000000000000000005f52604160045260245ffd5b5f610ef382610971565b9150610efe83610971565b9250828203905081811115610f1657610f15610e07565b5b92915050565b5f610f2682610971565b9150610f3183610971565b9250828201905080821115610f4957610f48610e07565b5b92915050565b5f610f5982610971565b91505f8203610f6b57610f6a610e07565b5b600182039050919050565b5f60e082019050610f895f83018a6109cf565b610f9660208301896109cf565b610fa360408301886109cf565b610fb060608301876109cf565b610fbd60808301866109cf565b610fca60a08301856109cf565b610fd760c08301846109cf565b98975050505050505050565b5f82825260208201905092915050565b7f496e646578206f7574206f6620626f756e6473000000000000000000000000005f82015250565b5f611027601383610fe3565b915061103282610ff3565b602082019050919050565b5f6020820190508181035f8301526110548161101b565b905091905056fea2646970667358221220df4f6fcf45c102f7d733a423482855bb91926cfdf137e90bad4d23066749e5ef64736f6c634300081a0033",
					"opcodes": "PUSH1 0x80 PUSH1 0x40 MSTORE CALLVALUE DUP1 ISZERO PUSH1 0xE JUMPI PUSH0 DUP1 REVERT JUMPDEST POP PUSH2 0x1091 DUP1 PUSH2 0x1C PUSH0 CODECOPY PUSH0 RETURN INVALID PUSH1 0x80 PUSH1 0x40 MSTORE CALLVALUE DUP1 ISZERO PUSH2 0xF JUMPI PUSH0 DUP1 REVERT JUMPDEST POP PUSH1 0x4 CALLDATASIZE LT PUSH2 0x55 JUMPI PUSH0 CALLDATALOAD PUSH1 0xE0 SHR DUP1 PUSH4 0x325F4658 EQ PUSH2 0x59 JUMPI DUP1 PUSH4 0x54751A38 EQ PUSH2 0x90 JUMPI DUP1 PUSH4 0xB8BD5F25 EQ PUSH2 0xC0 JUMPI DUP1 PUSH4 0xF75D8ADA EQ PUSH2 0xDC JUMPI DUP1 PUSH4 0xFFAD0C8F EQ PUSH2 0x113 JUMPI JUMPDEST PUSH0 DUP1 REVERT JUMPDEST PUSH2 0x73 PUSH1 0x4 DUP1 CALLDATASIZE SUB DUP2 ADD SWAP1 PUSH2 0x6E SWAP2 SWAP1 PUSH2 0x9A4 JUMP JUMPDEST PUSH2 0x131 JUMP JUMPDEST PUSH1 0x40 MLOAD PUSH2 0x87 SWAP9 SWAP8 SWAP7 SWAP6 SWAP5 SWAP4 SWAP3 SWAP2 SWAP1 PUSH2 0xA1D JUMP JUMPDEST PUSH1 0x40 MLOAD DUP1 SWAP2 SUB SWAP1 RETURN JUMPDEST PUSH2 0xAA PUSH1 0x4 DUP1 CALLDATASIZE SUB DUP2 ADD SWAP1 PUSH2 0xA5 SWAP2 SWAP1 PUSH2 0xAC3 JUMP JUMPDEST PUSH2 0x1A2 JUMP JUMPDEST PUSH1 0x40 MLOAD PUSH2 0xB7 SWAP2 SWAP1 PUSH2 0xBA5 JUMP JUMPDEST PUSH1 0x40 MLOAD DUP1 SWAP2 SUB SWAP1 RETURN JUMPDEST PUSH2 0xDA PUSH1 0x4 DUP1 CALLDATASIZE SUB DUP2 ADD SWAP1 PUSH2 0xD5 SWAP2 SWAP1 PUSH2 0xBC5 JUMP JUMPDEST PUSH2 0x5B3 JUMP JUMPDEST STOP JUMPDEST PUSH2 0xF6 PUSH1 0x4 DUP1 CALLDATASIZE SUB DUP2 ADD SWAP1 PUSH2 0xF1 SWAP2 SWAP1 PUSH2 0x9A4 JUMP JUMPDEST PUSH2 0x71E JUMP JUMPDEST PUSH1 0x40 MLOAD PUSH2 0x10A SWAP9 SWAP8 SWAP7 SWAP6 SWAP5 SWAP4 SWAP3 SWAP2 SWAP1 PUSH2 0xA1D JUMP JUMPDEST PUSH1 0x40 MLOAD DUP1 SWAP2 SUB SWAP1 RETURN JUMPDEST PUSH2 0x11B PUSH2 0x877 JUMP JUMPDEST PUSH1 0x40 MLOAD PUSH2 0x128 SWAP2 SWAP1 PUSH2 0xDBA JUMP JUMPDEST PUSH1 0x40 MLOAD DUP1 SWAP2 SUB SWAP1 RETURN JUMPDEST PUSH0 DUP2 DUP2 SLOAD DUP2 LT PUSH2 0x13F JUMPI PUSH0 DUP1 REVERT JUMPDEST SWAP1 PUSH0 MSTORE PUSH1 0x20 PUSH0 KECCAK256 SWAP1 PUSH1 0x8 MUL ADD PUSH0 SWAP2 POP SWAP1 POP DUP1 PUSH0 ADD SLOAD SWAP1 DUP1 PUSH1 0x1 ADD SLOAD SWAP1 DUP1 PUSH1 0x2 ADD SLOAD SWAP1 DUP1 PUSH1 0x3 ADD SLOAD SWAP1 DUP1 PUSH1 0x4 ADD SLOAD SWAP1 DUP1 PUSH1 0x5 ADD SLOAD SWAP1 DUP1 PUSH1 0x6 ADD PUSH0 SWAP1 SLOAD SWAP1 PUSH2 0x100 EXP SWAP1 DIV PUSH20 0xFFFFFFFFFFFFFFFFFFFFFFFFFFFFFFFFFFFFFFFF AND SWAP1 DUP1 PUSH1 0x7 ADD SLOAD SWAP1 POP DUP9 JUMP JUMPDEST PUSH1 0x60 PUSH0 DUP1 JUMPDEST PUSH0 DUP1 SLOAD SWAP1 POP DUP2 LT ISZERO PUSH2 0x243 JUMPI DUP4 PUSH20 0xFFFFFFFFFFFFFFFFFFFFFFFFFFFFFFFFFFFFFFFF AND PUSH0 DUP3 DUP2 SLOAD DUP2 LT PUSH2 0x1DD JUMPI PUSH2 0x1DC PUSH2 0xDDA JUMP JUMPDEST JUMPDEST SWAP1 PUSH0 MSTORE PUSH1 0x20 PUSH0 KECCAK256 SWAP1 PUSH1 0x8 MUL ADD PUSH1 0x6 ADD PUSH0 SWAP1 SLOAD SWAP1 PUSH2 0x100 EXP SWAP1 DIV PUSH20 0xFFFFFFFFFFFFFFFFFFFFFFFFFFFFFFFFFFFFFFFF AND PUSH20 0xFFFFFFFFFFFFFFFFFFFFFFFFFFFFFFFFFFFFFFFF AND SUB PUSH2 0x236 JUMPI DUP2 DUP1 PUSH2 0x232 SWAP1 PUSH2 0xE34 JUMP JUMPDEST SWAP3 POP POP JUMPDEST DUP1 DUP1 PUSH1 0x1 ADD SWAP2 POP POP PUSH2 0x1A7 JUMP JUMPDEST POP PUSH0 PUSH1 0x6 DUP3 PUSH2 0x252 SWAP2 SWAP1 PUSH2 0xE7B JUMP JUMPDEST PUSH8 0xFFFFFFFFFFFFFFFF DUP2 GT ISZERO PUSH2 0x26B JUMPI PUSH2 0x26A PUSH2 0xEBC JUMP JUMPDEST JUMPDEST PUSH1 0x40 MLOAD SWAP1 DUP1 DUP3 MSTORE DUP1 PUSH1 0x20 MUL PUSH1 0x20 ADD DUP3 ADD PUSH1 0x40 MSTORE DUP1 ISZERO PUSH2 0x299 JUMPI DUP2 PUSH1 0x20 ADD PUSH1 0x20 DUP3 MUL DUP1 CALLDATASIZE DUP4 CALLDATACOPY DUP1 DUP3 ADD SWAP2 POP POP SWAP1 POP JUMPDEST POP SWAP1 POP PUSH0 DUP1 DUP1 DUP1 SLOAD SWAP1 POP SWAP1 POP JUMPDEST PUSH0 DUP2 GT ISZERO PUSH2 0x5A7 JUMPI DUP6 PUSH20 0xFFFFFFFFFFFFFFFFFFFFFFFFFFFFFFFFFFFFFFFF AND PUSH0 PUSH1 0x1 DUP4 PUSH2 0x2D3 SWAP2 SWAP1 PUSH2 0xEE9 JUMP JUMPDEST DUP2 SLOAD DUP2 LT PUSH2 0x2E4 JUMPI PUSH2 0x2E3 PUSH2 0xDDA JUMP JUMPDEST JUMPDEST SWAP1 PUSH0 MSTORE PUSH1 0x20 PUSH0 KECCAK256 SWAP1 PUSH1 0x8 MUL ADD PUSH1 0x6 ADD PUSH0 SWAP1 SLOAD SWAP1 PUSH2 0x100 EXP SWAP1 DIV PUSH20 0xFFFFFFFFFFFFFFFFFFFFFFFFFFFFFFFFFFFFFFFF AND PUSH20 0xFFFFFFFFFFFFFFFFFFFFFFFFFFFFFFFFFFFFFFFF AND SUB PUSH2 0x594 JUMPI PUSH0 PUSH1 0x1 DUP3 PUSH2 0x33C SWAP2 SWAP1 PUSH2 0xEE9 JUMP JUMPDEST DUP2 SLOAD DUP2 LT PUSH2 0x34D JUMPI PUSH2 0x34C PUSH2 0xDDA JUMP JUMPDEST JUMPDEST SWAP1 PUSH0 MSTORE PUSH1 0x20 PUSH0 KECCAK256 SWAP1 PUSH1 0x8 MUL ADD PUSH0 ADD SLOAD DUP4 PUSH1 0x6 DUP5 PUSH2 0x36A SWAP2 SWAP1 PUSH2 0xE7B JUMP JUMPDEST DUP2 MLOAD DUP2 LT PUSH2 0x37B JUMPI PUSH2 0x37A PUSH2 0xDDA JUMP JUMPDEST JUMPDEST PUSH1 0x20 MUL PUSH1 0x20 ADD ADD DUP2 DUP2 MSTORE POP POP PUSH0 PUSH1 0x1 DUP3 PUSH2 0x395 SWAP2 SWAP1 PUSH2 0xEE9 JUMP JUMPDEST DUP2 SLOAD DUP2 LT PUSH2 0x3A6 JUMPI PUSH2 0x3A5 PUSH2 0xDDA JUMP JUMPDEST JUMPDEST SWAP1 PUSH0 MSTORE PUSH1 0x20 PUSH0 KECCAK256 SWAP1 PUSH1 0x8 MUL ADD PUSH1 0x1 ADD SLOAD DUP4 PUSH1 0x1 PUSH1 0x6 DUP6 PUSH2 0x3C6 SWAP2 SWAP1 PUSH2 0xE7B JUMP JUMPDEST PUSH2 0x3D0 SWAP2 SWAP1 PUSH2 0xF1C JUMP JUMPDEST DUP2 MLOAD DUP2 LT PUSH2 0x3E1 JUMPI PUSH2 0x3E0 PUSH2 0xDDA JUMP JUMPDEST JUMPDEST PUSH1 0x20 MUL PUSH1 0x20 ADD ADD DUP2 DUP2 MSTORE POP POP PUSH0 PUSH1 0x1 DUP3 PUSH2 0x3FB SWAP2 SWAP1 PUSH2 0xEE9 JUMP JUMPDEST DUP2 SLOAD DUP2 LT PUSH2 0x40C JUMPI PUSH2 0x40B PUSH2 0xDDA JUMP JUMPDEST JUMPDEST SWAP1 PUSH0 MSTORE PUSH1 0x20 PUSH0 KECCAK256 SWAP1 PUSH1 0x8 MUL ADD PUSH1 0x2 ADD SLOAD DUP4 PUSH1 0x2 PUSH1 0x6 DUP6 PUSH2 0x42C SWAP2 SWAP1 PUSH2 0xE7B JUMP JUMPDEST PUSH2 0x436 SWAP2 SWAP1 PUSH2 0xF1C JUMP JUMPDEST DUP2 MLOAD DUP2 LT PUSH2 0x447 JUMPI PUSH2 0x446 PUSH2 0xDDA JUMP JUMPDEST JUMPDEST PUSH1 0x20 MUL PUSH1 0x20 ADD ADD DUP2 DUP2 MSTORE POP POP PUSH0 PUSH1 0x1 DUP3 PUSH2 0x461 SWAP2 SWAP1 PUSH2 0xEE9 JUMP JUMPDEST DUP2 SLOAD DUP2 LT PUSH2 0x472 JUMPI PUSH2 0x471 PUSH2 0xDDA JUMP JUMPDEST JUMPDEST SWAP1 PUSH0 MSTORE PUSH1 0x20 PUSH0 KECCAK256 SWAP1 PUSH1 0x8 MUL ADD PUSH1 0x3 ADD SLOAD DUP4 PUSH1 0x3 PUSH1 0x6 DUP6 PUSH2 0x492 SWAP2 SWAP1 PUSH2 0xE7B JUMP JUMPDEST PUSH2 0x49C SWAP2 SWAP1 PUSH2 0xF1C JUMP JUMPDEST DUP2 MLOAD DUP2 LT PUSH2 0x4AD JUMPI PUSH2 0x4AC PUSH2 0xDDA JUMP JUMPDEST JUMPDEST PUSH1 0x20 MUL PUSH1 0x20 ADD ADD DUP2 DUP2 MSTORE POP POP PUSH0 PUSH1 0x1 DUP3 PUSH2 0x4C7 SWAP2 SWAP1 PUSH2 0xEE9 JUMP JUMPDEST DUP2 SLOAD DUP2 LT PUSH2 0x4D8 JUMPI PUSH2 0x4D7 PUSH2 0xDDA JUMP JUMPDEST JUMPDEST SWAP1 PUSH0 MSTORE PUSH1 0x20 PUSH0 KECCAK256 SWAP1 PUSH1 0x8 MUL ADD PUSH1 0x4 ADD SLOAD DUP4 PUSH1 0x4 PUSH1 0x6 DUP6 PUSH2 0x4F8 SWAP2 SWAP1 PUSH2 0xE7B JUMP JUMPDEST PUSH2 0x502 SWAP2 SWAP1 PUSH2 0xF1C JUMP JUMPDEST DUP2 MLOAD DUP2 LT PUSH2 0x513 JUMPI PUSH2 0x512 PUSH2 0xDDA JUMP JUMPDEST JUMPDEST PUSH1 0x20 MUL PUSH1 0x20 ADD ADD DUP2 DUP2 MSTORE POP POP PUSH0 PUSH1 0x1 DUP3 PUSH2 0x52D SWAP2 SWAP1 PUSH2 0xEE9 JUMP JUMPDEST DUP2 SLOAD DUP2 LT PUSH2 0x53E JUMPI PUSH2 0x53D PUSH2 0xDDA JUMP JUMPDEST JUMPDEST SWAP1 PUSH0 MSTORE PUSH1 0x20 PUSH0 KECCAK256 SWAP1 PUSH1 0x8 MUL ADD PUSH1 0x5 ADD SLOAD DUP4 PUSH1 0x5 PUSH1 0x6 DUP6 PUSH2 0x55E SWAP2 SWAP1 PUSH2 0xE7B JUMP JUMPDEST PUSH2 0x568 SWAP2 SWAP1 PUSH2 0xF1C JUMP JUMPDEST DUP2 MLOAD DUP2 LT PUSH2 0x579 JUMPI PUSH2 0x578 PUSH2 0xDDA JUMP JUMPDEST JUMPDEST PUSH1 0x20 MUL PUSH1 0x20 ADD ADD DUP2 DUP2 MSTORE POP POP DUP2 DUP1 PUSH2 0x590 SWAP1 PUSH2 0xE34 JUMP JUMPDEST SWAP3 POP POP JUMPDEST DUP1 DUP1 PUSH2 0x59F SWAP1 PUSH2 0xF4F JUMP JUMPDEST SWAP2 POP POP PUSH2 0x2A6 JUMP JUMPDEST POP DUP2 SWAP4 POP POP POP POP SWAP2 SWAP1 POP JUMP JUMPDEST PUSH0 PUSH1 0x40 MLOAD DUP1 PUSH2 0x100 ADD PUSH1 0x40 MSTORE DUP1 DUP10 DUP2 MSTORE PUSH1 0x20 ADD DUP9 DUP2 MSTORE PUSH1 0x20 ADD DUP8 DUP2 MSTORE PUSH1 0x20 ADD DUP7 DUP2 MSTORE PUSH1 0x20 ADD DUP6 DUP2 MSTORE PUSH1 0x20 ADD DUP5 DUP2 MSTORE PUSH1 0x20 ADD DUP4 PUSH20 0xFFFFFFFFFFFFFFFFFFFFFFFFFFFFFFFFFFFFFFFF AND DUP2 MSTORE PUSH1 0x20 ADD TIMESTAMP DUP2 MSTORE POP SWAP1 POP PUSH0 DUP2 SWAP1 DUP1 PUSH1 0x1 DUP2 SLOAD ADD DUP1 DUP3 SSTORE DUP1 SWAP2 POP POP PUSH1 0x1 SWAP1 SUB SWAP1 PUSH0 MSTORE PUSH1 0x20 PUSH0 KECCAK256 SWAP1 PUSH1 0x8 MUL ADD PUSH0 SWAP1 SWAP2 SWAP1 SWAP2 SWAP1 SWAP2 POP PUSH0 DUP3 ADD MLOAD DUP2 PUSH0 ADD SSTORE PUSH1 0x20 DUP3 ADD MLOAD DUP2 PUSH1 0x1 ADD SSTORE PUSH1 0x40 DUP3 ADD MLOAD DUP2 PUSH1 0x2 ADD SSTORE PUSH1 0x60 DUP3 ADD MLOAD DUP2 PUSH1 0x3 ADD SSTORE PUSH1 0x80 DUP3 ADD MLOAD DUP2 PUSH1 0x4 ADD SSTORE PUSH1 0xA0 DUP3 ADD MLOAD DUP2 PUSH1 0x5 ADD SSTORE PUSH1 0xC0 DUP3 ADD MLOAD DUP2 PUSH1 0x6 ADD PUSH0 PUSH2 0x100 EXP DUP2 SLOAD DUP2 PUSH20 0xFFFFFFFFFFFFFFFFFFFFFFFFFFFFFFFFFFFFFFFF MUL NOT AND SWAP1 DUP4 PUSH20 0xFFFFFFFFFFFFFFFFFFFFFFFFFFFFFFFFFFFFFFFF AND MUL OR SWAP1 SSTORE POP PUSH1 0xE0 DUP3 ADD MLOAD DUP2 PUSH1 0x7 ADD SSTORE POP POP DUP2 PUSH20 0xFFFFFFFFFFFFFFFFFFFFFFFFFFFFFFFFFFFFFFFF AND PUSH32 0x520CA8400C530C05E265FE59DA93E2ABC1187ED3BF15C7DC82846F0EDC3CB75 DUP10 DUP10 DUP10 DUP10 DUP10 DUP10 TIMESTAMP PUSH1 0x40 MLOAD PUSH2 0x70C SWAP8 SWAP7 SWAP6 SWAP5 SWAP4 SWAP3 SWAP2 SWAP1 PUSH2 0xF76 JUMP JUMPDEST PUSH1 0x40 MLOAD DUP1 SWAP2 SUB SWAP1 LOG2 POP POP POP POP POP POP POP POP JUMP JUMPDEST PUSH0 DUP1 PUSH0 DUP1 PUSH0 DUP1 PUSH0 DUP1 PUSH0 DUP1 SLOAD SWAP1 POP DUP10 LT PUSH2 0x76C JUMPI PUSH1 0x40 MLOAD PUSH32 0x8C379A000000000000000000000000000000000000000000000000000000000 DUP2 MSTORE PUSH1 0x4 ADD PUSH2 0x763 SWAP1 PUSH2 0x103D JUMP JUMPDEST PUSH1 0x40 MLOAD DUP1 SWAP2 SUB SWAP1 REVERT JUMPDEST PUSH0 DUP1 DUP11 DUP2 SLOAD DUP2 LT PUSH2 0x780 JUMPI PUSH2 0x77F PUSH2 0xDDA JUMP JUMPDEST JUMPDEST SWAP1 PUSH0 MSTORE PUSH1 0x20 PUSH0 KECCAK256 SWAP1 PUSH1 0x8 MUL ADD PUSH1 0x40 MLOAD DUP1 PUSH2 0x100 ADD PUSH1 0x40 MSTORE SWAP1 DUP2 PUSH0 DUP3 ADD SLOAD DUP2 MSTORE PUSH1 0x20 ADD PUSH1 0x1 DUP3 ADD SLOAD DUP2 MSTORE PUSH1 0x20 ADD PUSH1 0x2 DUP3 ADD SLOAD DUP2 MSTORE PUSH1 0x20 ADD PUSH1 0x3 DUP3 ADD SLOAD DUP2 MSTORE PUSH1 0x20 ADD PUSH1 0x4 DUP3 ADD SLOAD DUP2 MSTORE PUSH1 0x20 ADD PUSH1 0x5 DUP3 ADD SLOAD DUP2 MSTORE PUSH1 0x20 ADD PUSH1 0x6 DUP3 ADD PUSH0 SWAP1 SLOAD SWAP1 PUSH2 0x100 EXP SWAP1 DIV PUSH20 0xFFFFFFFFFFFFFFFFFFFFFFFFFFFFFFFFFFFFFFFF AND PUSH20 0xFFFFFFFFFFFFFFFFFFFFFFFFFFFFFFFFFFFFFFFF AND PUSH20 0xFFFFFFFFFFFFFFFFFFFFFFFFFFFFFFFFFFFFFFFF AND DUP2 MSTORE PUSH1 0x20 ADD PUSH1 0x7 DUP3 ADD SLOAD DUP2 MSTORE POP POP SWAP1 POP DUP1 PUSH0 ADD MLOAD DUP2 PUSH1 0x20 ADD MLOAD DUP3 PUSH1 0x40 ADD MLOAD DUP4 PUSH1 0x60 ADD MLOAD DUP5 PUSH1 0x80 ADD MLOAD DUP6 PUSH1 0xA0 ADD MLOAD DUP7 PUSH1 0xC0 ADD MLOAD DUP8 PUSH1 0xE0 ADD MLOAD SWAP9 POP SWAP9 POP SWAP9 POP SWAP9 POP SWAP9 POP SWAP9 POP SWAP9 POP SWAP9 POP POP SWAP2 SWAP4 SWAP6 SWAP8 POP SWAP2 SWAP4 SWAP6 SWAP8 JUMP JUMPDEST PUSH1 0x60 PUSH0 DUP1 SLOAD DUP1 PUSH1 0x20 MUL PUSH1 0x20 ADD PUSH1 0x40 MLOAD SWAP1 DUP2 ADD PUSH1 0x40 MSTORE DUP1 SWAP3 SWAP2 SWAP1 DUP2 DUP2 MSTORE PUSH1 0x20 ADD PUSH0 SWAP1 JUMPDEST DUP3 DUP3 LT ISZERO PUSH2 0x964 JUMPI DUP4 DUP3 SWAP1 PUSH0 MSTORE PUSH1 0x20 PUSH0 KECCAK256 SWAP1 PUSH1 0x8 MUL ADD PUSH1 0x40 MLOAD DUP1 PUSH2 0x100 ADD PUSH1 0x40 MSTORE SWAP1 DUP2 PUSH0 DUP3 ADD SLOAD DUP2 MSTORE PUSH1 0x20 ADD PUSH1 0x1 DUP3 ADD SLOAD DUP2 MSTORE PUSH1 0x20 ADD PUSH1 0x2 DUP3 ADD SLOAD DUP2 MSTORE PUSH1 0x20 ADD PUSH1 0x3 DUP3 ADD SLOAD DUP2 MSTORE PUSH1 0x20 ADD PUSH1 0x4 DUP3 ADD SLOAD DUP2 MSTORE PUSH1 0x20 ADD PUSH1 0x5 DUP3 ADD SLOAD DUP2 MSTORE PUSH1 0x20 ADD PUSH1 0x6 DUP3 ADD PUSH0 SWAP1 SLOAD SWAP1 PUSH2 0x100 EXP SWAP1 DIV PUSH20 0xFFFFFFFFFFFFFFFFFFFFFFFFFFFFFFFFFFFFFFFF AND PUSH20 0xFFFFFFFFFFFFFFFFFFFFFFFFFFFFFFFFFFFFFFFF AND PUSH20 0xFFFFFFFFFFFFFFFFFFFFFFFFFFFFFFFFFFFFFFFF AND DUP2 MSTORE PUSH1 0x20 ADD PUSH1 0x7 DUP3 ADD SLOAD DUP2 MSTORE POP POP DUP2 MSTORE PUSH1 0x20 ADD SWAP1 PUSH1 0x1 ADD SWAP1 PUSH2 0x899 JUMP JUMPDEST POP POP POP POP SWAP1 POP SWAP1 JUMP JUMPDEST PUSH0 DUP1 REVERT JUMPDEST PUSH0 DUP2 SWAP1 POP SWAP2 SWAP1 POP JUMP JUMPDEST PUSH2 0x983 DUP2 PUSH2 0x971 JUMP JUMPDEST DUP2 EQ PUSH2 0x98D JUMPI PUSH0 DUP1 REVERT JUMPDEST POP JUMP JUMPDEST PUSH0 DUP2 CALLDATALOAD SWAP1 POP PUSH2 0x99E DUP2 PUSH2 0x97A JUMP JUMPDEST SWAP3 SWAP2 POP POP JUMP JUMPDEST PUSH0 PUSH1 0x20 DUP3 DUP5 SUB SLT ISZERO PUSH2 0x9B9 JUMPI PUSH2 0x9B8 PUSH2 0x96D JUMP JUMPDEST JUMPDEST PUSH0 PUSH2 0x9C6 DUP5 DUP3 DUP6 ADD PUSH2 0x990 JUMP JUMPDEST SWAP2 POP POP SWAP3 SWAP2 POP POP JUMP JUMPDEST PUSH2 0x9D8 DUP2 PUSH2 0x971 JUMP JUMPDEST DUP3 MSTORE POP POP JUMP JUMPDEST PUSH0 PUSH20 0xFFFFFFFFFFFFFFFFFFFFFFFFFFFFFFFFFFFFFFFF DUP3 AND SWAP1 POP SWAP2 SWAP1 POP JUMP JUMPDEST PUSH0 PUSH2 0xA07 DUP3 PUSH2 0x9DE JUMP JUMPDEST SWAP1 POP SWAP2 SWAP1 POP JUMP JUMPDEST PUSH2 0xA17 DUP2 PUSH2 0x9FD JUMP JUMPDEST DUP3 MSTORE POP POP JUMP JUMPDEST PUSH0 PUSH2 0x100 DUP3 ADD SWAP1 POP PUSH2 0xA31 PUSH0 DUP4 ADD DUP12 PUSH2 0x9CF JUMP JUMPDEST PUSH2 0xA3E PUSH1 0x20 DUP4 ADD DUP11 PUSH2 0x9CF JUMP JUMPDEST PUSH2 0xA4B PUSH1 0x40 DUP4 ADD DUP10 PUSH2 0x9CF JUMP JUMPDEST PUSH2 0xA58 PUSH1 0x60 DUP4 ADD DUP9 PUSH2 0x9CF JUMP JUMPDEST PUSH2 0xA65 PUSH1 0x80 DUP4 ADD DUP8 PUSH2 0x9CF JUMP JUMPDEST PUSH2 0xA72 PUSH1 0xA0 DUP4 ADD DUP7 PUSH2 0x9CF JUMP JUMPDEST PUSH2 0xA7F PUSH1 0xC0 DUP4 ADD DUP6 PUSH2 0xA0E JUMP JUMPDEST PUSH2 0xA8C PUSH1 0xE0 DUP4 ADD DUP5 PUSH2 0x9CF JUMP JUMPDEST SWAP10 SWAP9 POP POP POP POP POP POP POP POP POP JUMP JUMPDEST PUSH2 0xAA2 DUP2 PUSH2 0x9FD JUMP JUMPDEST DUP2 EQ PUSH2 0xAAC JUMPI PUSH0 DUP1 REVERT JUMPDEST POP JUMP JUMPDEST PUSH0 DUP2 CALLDATALOAD SWAP1 POP PUSH2 0xABD DUP2 PUSH2 0xA99 JUMP JUMPDEST SWAP3 SWAP2 POP POP JUMP JUMPDEST PUSH0 PUSH1 0x20 DUP3 DUP5 SUB SLT ISZERO PUSH2 0xAD8 JUMPI PUSH2 0xAD7 PUSH2 0x96D JUMP JUMPDEST JUMPDEST PUSH0 PUSH2 0xAE5 DUP5 DUP3 DUP6 ADD PUSH2 0xAAF JUMP JUMPDEST SWAP2 POP POP SWAP3 SWAP2 POP POP JUMP JUMPDEST PUSH0 DUP2 MLOAD SWAP1 POP SWAP2 SWAP1 POP JUMP JUMPDEST PUSH0 DUP3 DUP3 MSTORE PUSH1 0x20 DUP3 ADD SWAP1 POP SWAP3 SWAP2 POP POP JUMP JUMPDEST PUSH0 DUP2 SWAP1 POP PUSH1 0x20 DUP3 ADD SWAP1 POP SWAP2 SWAP1 POP JUMP JUMPDEST PUSH2 0xB20 DUP2 PUSH2 0x971 JUMP JUMPDEST DUP3 MSTORE POP POP JUMP JUMPDEST PUSH0 PUSH2 0xB31 DUP4 DUP4 PUSH2 0xB17 JUMP JUMPDEST PUSH1 0x20 DUP4 ADD SWAP1 POP SWAP3 SWAP2 POP POP JUMP JUMPDEST PUSH0 PUSH1 0x20 DUP3 ADD SWAP1 POP SWAP2 SWAP1 POP JUMP JUMPDEST PUSH0 PUSH2 0xB53 DUP3 PUSH2 0xAEE JUMP JUMPDEST PUSH2 0xB5D DUP2 DUP6 PUSH2 0xAF8 JUMP JUMPDEST SWAP4 POP PUSH2 0xB68 DUP4 PUSH2 0xB08 JUMP JUMPDEST DUP1 PUSH0 JUMPDEST DUP4 DUP2 LT ISZERO PUSH2 0xB98 JUMPI DUP2 MLOAD PUSH2 0xB7F DUP9 DUP3 PUSH2 0xB26 JUMP JUMPDEST SWAP8 POP PUSH2 0xB8A DUP4 PUSH2 0xB3D JUMP JUMPDEST SWAP3 POP POP PUSH1 0x1 DUP2 ADD SWAP1 POP PUSH2 0xB6B JUMP JUMPDEST POP DUP6 SWAP4 POP POP POP POP SWAP3 SWAP2 POP POP JUMP JUMPDEST PUSH0 PUSH1 0x20 DUP3 ADD SWAP1 POP DUP2 DUP2 SUB PUSH0 DUP4 ADD MSTORE PUSH2 0xBBD DUP2 DUP5 PUSH2 0xB49 JUMP JUMPDEST SWAP1 POP SWAP3 SWAP2 POP POP JUMP JUMPDEST PUSH0 DUP1 PUSH0 DUP1 PUSH0 DUP1 PUSH0 PUSH1 0xE0 DUP9 DUP11 SUB SLT ISZERO PUSH2 0xBE0 JUMPI PUSH2 0xBDF PUSH2 0x96D JUMP JUMPDEST JUMPDEST PUSH0 PUSH2 0xBED DUP11 DUP3 DUP12 ADD PUSH2 0x990 JUMP JUMPDEST SWAP8 POP POP PUSH1 0x20 PUSH2 0xBFE DUP11 DUP3 DUP12 ADD PUSH2 0x990 JUMP JUMPDEST SWAP7 POP POP PUSH1 0x40 PUSH2 0xC0F DUP11 DUP3 DUP12 ADD PUSH2 0x990 JUMP JUMPDEST SWAP6 POP POP PUSH1 0x60 PUSH2 0xC20 DUP11 DUP3 DUP12 ADD PUSH2 0x990 JUMP JUMPDEST SWAP5 POP POP PUSH1 0x80 PUSH2 0xC31 DUP11 DUP3 DUP12 ADD PUSH2 0x990 JUMP JUMPDEST SWAP4 POP POP PUSH1 0xA0 PUSH2 0xC42 DUP11 DUP3 DUP12 ADD PUSH2 0x990 JUMP JUMPDEST SWAP3 POP POP PUSH1 0xC0 PUSH2 0xC53 DUP11 DUP3 DUP12 ADD PUSH2 0xAAF JUMP JUMPDEST SWAP2 POP POP SWAP3 SWAP6 SWAP9 SWAP2 SWAP5 SWAP8 POP SWAP3 SWAP6 POP JUMP JUMPDEST PUSH0 DUP2 MLOAD SWAP1 POP SWAP2 SWAP1 POP JUMP JUMPDEST PUSH0 DUP3 DUP3 MSTORE PUSH1 0x20 DUP3 ADD SWAP1 POP SWAP3 SWAP2 POP POP JUMP JUMPDEST PUSH0 DUP2 SWAP1 POP PUSH1 0x20 DUP3 ADD SWAP1 POP SWAP2 SWAP1 POP JUMP JUMPDEST PUSH2 0xC94 DUP2 PUSH2 0x9FD JUMP JUMPDEST DUP3 MSTORE POP POP JUMP JUMPDEST PUSH2 0x100 DUP3 ADD PUSH0 DUP3 ADD MLOAD PUSH2 0xCAF PUSH0 DUP6 ADD DUP3 PUSH2 0xB17 JUMP JUMPDEST POP PUSH1 0x20 DUP3 ADD MLOAD PUSH2 0xCC2 PUSH1 0x20 DUP6 ADD DUP3 PUSH2 0xB17 JUMP JUMPDEST POP PUSH1 0x40 DUP3 ADD MLOAD PUSH2 0xCD5 PUSH1 0x40 DUP6 ADD DUP3 PUSH2 0xB17 JUMP JUMPDEST POP PUSH1 0x60 DUP3 ADD MLOAD PUSH2 0xCE8 PUSH1 0x60 DUP6 ADD DUP3 PUSH2 0xB17 JUMP JUMPDEST POP PUSH1 0x80 DUP3 ADD MLOAD PUSH2 0xCFB PUSH1 0x80 DUP6 ADD DUP3 PUSH2 0xB17 JUMP JUMPDEST POP PUSH1 0xA0 DUP3 ADD MLOAD PUSH2 0xD0E PUSH1 0xA0 DUP6 ADD DUP3 PUSH2 0xB17 JUMP JUMPDEST POP PUSH1 0xC0 DUP3 ADD MLOAD PUSH2 0xD21 PUSH1 0xC0 DUP6 ADD DUP3 PUSH2 0xC8B JUMP JUMPDEST POP PUSH1 0xE0 DUP3 ADD MLOAD PUSH2 0xD34 PUSH1 0xE0 DUP6 ADD DUP3 PUSH2 0xB17 JUMP JUMPDEST POP POP POP POP JUMP JUMPDEST PUSH0 PUSH2 0xD45 DUP4 DUP4 PUSH2 0xC9A JUMP JUMPDEST PUSH2 0x100 DUP4 ADD SWAP1 POP SWAP3 SWAP2 POP POP JUMP JUMPDEST PUSH0 PUSH1 0x20 DUP3 ADD SWAP1 POP SWAP2 SWAP1 POP JUMP JUMPDEST PUSH0 PUSH2 0xD68 DUP3 PUSH2 0xC62 JUMP JUMPDEST PUSH2 0xD72 DUP2 DUP6 PUSH2 0xC6C JUMP JUMPDEST SWAP4 POP PUSH2 0xD7D DUP4 PUSH2 0xC7C JUMP JUMPDEST DUP1 PUSH0 JUMPDEST DUP4 DUP2 LT ISZERO PUSH2 0xDAD JUMPI DUP2 MLOAD PUSH2 0xD94 DUP9 DUP3 PUSH2 0xD3A JUMP JUMPDEST SWAP8 POP PUSH2 0xD9F DUP4 PUSH2 0xD52 JUMP JUMPDEST SWAP3 POP POP PUSH1 0x1 DUP2 ADD SWAP1 POP PUSH2 0xD80 JUMP JUMPDEST POP DUP6 SWAP4 POP POP POP POP SWAP3 SWAP2 POP POP JUMP JUMPDEST PUSH0 PUSH1 0x20 DUP3 ADD SWAP1 POP DUP2 DUP2 SUB PUSH0 DUP4 ADD MSTORE PUSH2 0xDD2 DUP2 DUP5 PUSH2 0xD5E JUMP JUMPDEST SWAP1 POP SWAP3 SWAP2 POP POP JUMP JUMPDEST PUSH32 0x4E487B7100000000000000000000000000000000000000000000000000000000 PUSH0 MSTORE PUSH1 0x32 PUSH1 0x4 MSTORE PUSH1 0x24 PUSH0 REVERT JUMPDEST PUSH32 0x4E487B7100000000000000000000000000000000000000000000000000000000 PUSH0 MSTORE PUSH1 0x11 PUSH1 0x4 MSTORE PUSH1 0x24 PUSH0 REVERT JUMPDEST PUSH0 PUSH2 0xE3E DUP3 PUSH2 0x971 JUMP JUMPDEST SWAP2 POP PUSH32 0xFFFFFFFFFFFFFFFFFFFFFFFFFFFFFFFFFFFFFFFFFFFFFFFFFFFFFFFFFFFFFFFF DUP3 SUB PUSH2 0xE70 JUMPI PUSH2 0xE6F PUSH2 0xE07 JUMP JUMPDEST JUMPDEST PUSH1 0x1 DUP3 ADD SWAP1 POP SWAP2 SWAP1 POP JUMP JUMPDEST PUSH0 PUSH2 0xE85 DUP3 PUSH2 0x971 JUMP JUMPDEST SWAP2 POP PUSH2 0xE90 DUP4 PUSH2 0x971 JUMP JUMPDEST SWAP3 POP DUP3 DUP3 MUL PUSH2 0xE9E DUP2 PUSH2 0x971 JUMP JUMPDEST SWAP2 POP DUP3 DUP3 DIV DUP5 EQ DUP4 ISZERO OR PUSH2 0xEB5 JUMPI PUSH2 0xEB4 PUSH2 0xE07 JUMP JUMPDEST JUMPDEST POP SWAP3 SWAP2 POP POP JUMP JUMPDEST PUSH32 0x4E487B7100000000000000000000000000000000000000000000000000000000 PUSH0 MSTORE PUSH1 0x41 PUSH1 0x4 MSTORE PUSH1 0x24 PUSH0 REVERT JUMPDEST PUSH0 PUSH2 0xEF3 DUP3 PUSH2 0x971 JUMP JUMPDEST SWAP2 POP PUSH2 0xEFE DUP4 PUSH2 0x971 JUMP JUMPDEST SWAP3 POP DUP3 DUP3 SUB SWAP1 POP DUP2 DUP2 GT ISZERO PUSH2 0xF16 JUMPI PUSH2 0xF15 PUSH2 0xE07 JUMP JUMPDEST JUMPDEST SWAP3 SWAP2 POP POP JUMP JUMPDEST PUSH0 PUSH2 0xF26 DUP3 PUSH2 0x971 JUMP JUMPDEST SWAP2 POP PUSH2 0xF31 DUP4 PUSH2 0x971 JUMP JUMPDEST SWAP3 POP DUP3 DUP3 ADD SWAP1 POP DUP1 DUP3 GT ISZERO PUSH2 0xF49 JUMPI PUSH2 0xF48 PUSH2 0xE07 JUMP JUMPDEST JUMPDEST SWAP3 SWAP2 POP POP JUMP JUMPDEST PUSH0 PUSH2 0xF59 DUP3 PUSH2 0x971 JUMP JUMPDEST SWAP2 POP PUSH0 DUP3 SUB PUSH2 0xF6B JUMPI PUSH2 0xF6A PUSH2 0xE07 JUMP JUMPDEST JUMPDEST PUSH1 0x1 DUP3 SUB SWAP1 POP SWAP2 SWAP1 POP JUMP JUMPDEST PUSH0 PUSH1 0xE0 DUP3 ADD SWAP1 POP PUSH2 0xF89 PUSH0 DUP4 ADD DUP11 PUSH2 0x9CF JUMP JUMPDEST PUSH2 0xF96 PUSH1 0x20 DUP4 ADD DUP10 PUSH2 0x9CF JUMP JUMPDEST PUSH2 0xFA3 PUSH1 0x40 DUP4 ADD DUP9 PUSH2 0x9CF JUMP JUMPDEST PUSH2 0xFB0 PUSH1 0x60 DUP4 ADD DUP8 PUSH2 0x9CF JUMP JUMPDEST PUSH2 0xFBD PUSH1 0x80 DUP4 ADD DUP7 PUSH2 0x9CF JUMP JUMPDEST PUSH2 0xFCA PUSH1 0xA0 DUP4 ADD DUP6 PUSH2 0x9CF JUMP JUMPDEST PUSH2 0xFD7 PUSH1 0xC0 DUP4 ADD DUP5 PUSH2 0x9CF JUMP JUMPDEST SWAP9 SWAP8 POP POP POP POP POP POP POP POP JUMP JUMPDEST PUSH0 DUP3 DUP3 MSTORE PUSH1 0x20 DUP3 ADD SWAP1 POP SWAP3 SWAP2 POP POP JUMP JUMPDEST PUSH32 0x496E646578206F7574206F6620626F756E647300000000000000000000000000 PUSH0 DUP3 ADD MSTORE POP JUMP JUMPDEST PUSH0 PUSH2 0x1027 PUSH1 0x13 DUP4 PUSH2 0xFE3 JUMP JUMPDEST SWAP2 POP PUSH2 0x1032 DUP3 PUSH2 0xFF3 JUMP JUMPDEST PUSH1 0x20 DUP3 ADD SWAP1 POP SWAP2 SWAP1 POP JUMP JUMPDEST PUSH0 PUSH1 0x20 DUP3 ADD SWAP1 POP DUP2 DUP2 SUB PUSH0 DUP4 ADD MSTORE PUSH2 0x1054 DUP2 PUSH2 0x101B JUMP JUMPDEST SWAP1 POP SWAP2 SWAP1 POP JUMP INVALID LOG2 PUSH5 0x6970667358 0x22 SLT KECCAK256 0xDF 0x4F PUSH16 0xCF45C102F7D733A423482855BB91926C REVERT CALL CALLDATACOPY 0xE9 SIGNEXTEND 0xAD 0x4D 0x23 MOD PUSH8 0x49E5EF64736F6C63 NUMBER STOP ADDMOD BYTE STOP CALLER "
				},
				"gasEstimates": {
					"creation": {
						"codeDepositCost": "848200",
						"executionCost": "881",
						"totalCost": "849081"
					},
					"external": {
						"dataEntries(uint256)": "infinite",
						"getDataByWallet(address)": "infinite",
						"getDataEntries()": "infinite",
						"getDataEntry(uint256)": "infinite",
						"storeData(uint256,uint256,uint256,uint256,uint256,uint256,address)": "infinite"
					}
				},
				"methodIdentifiers": {
					"dataEntries(uint256)": "325f4658",
					"getDataByWallet(address)": "54751a38",
					"getDataEntries()": "ffad0c8f",
					"getDataEntry(uint256)": "f75d8ada",
					"storeData(uint256,uint256,uint256,uint256,uint256,uint256,address)": "b8bd5f25"
				}
			},
			"storageLayout": {
				"storage": [
					{
						"astId": 22,
						"contract": "ETHBangkok/GreenToken/DataStorage.sol:DataStorage",
						"label": "dataEntries",
						"offset": 0,
						"slot": "0",
						"type": "t_array(t_struct(DataEntry)18_storage)dyn_storage"
					}
				],
				"types": {
					"t_address": {
						"encoding": "inplace",
						"label": "address",
						"numberOfBytes": "20"
					},
					"t_array(t_struct(DataEntry)18_storage)dyn_storage": {
						"base": "t_struct(DataEntry)18_storage",
						"encoding": "dynamic_array",
						"label": "struct DataStorage.DataEntry[]",
						"numberOfBytes": "32"
					},
					"t_struct(DataEntry)18_storage": {
						"encoding": "inplace",
						"label": "struct DataStorage.DataEntry",
						"members": [
							{
								"astId": 3,
								"contract": "ETHBangkok/GreenToken/DataStorage.sol:DataStorage",
								"label": "CO2_emissions",
								"offset": 0,
								"slot": "0",
								"type": "t_uint256"
							},
							{
								"astId": 5,
								"contract": "ETHBangkok/GreenToken/DataStorage.sol:DataStorage",
								"label": "methane_emissions",
								"offset": 0,
								"slot": "1",
								"type": "t_uint256"
							},
							{
								"astId": 7,
								"contract": "ETHBangkok/GreenToken/DataStorage.sol:DataStorage",
								"label": "NOx_emissions",
								"offset": 0,
								"slot": "2",
								"type": "t_uint256"
							},
							{
								"astId": 9,
								"contract": "ETHBangkok/GreenToken/DataStorage.sol:DataStorage",
								"label": "PM_emissions",
								"offset": 0,
								"slot": "3",
								"type": "t_uint256"
							},
							{
								"astId": 11,
								"contract": "ETHBangkok/GreenToken/DataStorage.sol:DataStorage",
								"label": "humidity",
								"offset": 0,
								"slot": "4",
								"type": "t_uint256"
							},
							{
								"astId": 13,
								"contract": "ETHBangkok/GreenToken/DataStorage.sol:DataStorage",
								"label": "temperature",
								"offset": 0,
								"slot": "5",
								"type": "t_uint256"
							},
							{
								"astId": 15,
								"contract": "ETHBangkok/GreenToken/DataStorage.sol:DataStorage",
								"label": "walletAddress",
								"offset": 0,
								"slot": "6",
								"type": "t_address"
							},
							{
								"astId": 17,
								"contract": "ETHBangkok/GreenToken/DataStorage.sol:DataStorage",
								"label": "timestamp",
								"offset": 0,
								"slot": "7",
								"type": "t_uint256"
							}
						],
						"numberOfBytes": "256"
					},
					"t_uint256": {
						"encoding": "inplace",
						"label": "uint256",
						"numberOfBytes": "32"
					}
				}
			},
			"userdoc": {
				"kind": "user",
				"methods": {},
				"version": 1
			}
		}
	}
}