{
	"data": {
		"bytecode": {
			"linkReferences": {},
			"object": "608060405234801561000f575f80fd5b50604051611af1380380611af183398181016040528101906100319190610335565b805f73ffffffffffffffffffffffffffffffffffffffff168173ffffffffffffffffffffffffffffffffffffffff16036100a2575f6040517f1e4fbdf70000000000000000000000000000000000000000000000000000000081526004016100999190610394565b60405180910390fd5b6100b18161021660201b60201c565b505f73ffffffffffffffffffffffffffffffffffffffff168373ffffffffffffffffffffffffffffffffffffffff1603610120576040517f08c379a00000000000000000000000000000000000000000000000000000000081526004016101179061042d565b60405180910390fd5b5f73ffffffffffffffffffffffffffffffffffffffff168273ffffffffffffffffffffffffffffffffffffffff160361018e576040517f08c379a0000000000000000000000000000000000000000000000000000000008152600401610185906104bb565b60405180910390fd5b8260015f6101000a81548173ffffffffffffffffffffffffffffffffffffffff021916908373ffffffffffffffffffffffffffffffffffffffff1602179055508160025f6101000a81548173ffffffffffffffffffffffffffffffffffffffff021916908373ffffffffffffffffffffffffffffffffffffffff1602179055505050506104d9565b5f805f9054906101000a900473ffffffffffffffffffffffffffffffffffffffff169050815f806101000a81548173ffffffffffffffffffffffffffffffffffffffff021916908373ffffffffffffffffffffffffffffffffffffffff1602179055508173ffffffffffffffffffffffffffffffffffffffff168173ffffffffffffffffffffffffffffffffffffffff167f8be0079c531659141344cd1fd0a4f28419497f9722a3daafe3b4186f6b6457e060405160405180910390a35050565b5f80fd5b5f73ffffffffffffffffffffffffffffffffffffffff82169050919050565b5f610304826102db565b9050919050565b610314816102fa565b811461031e575f80fd5b50565b5f8151905061032f8161030b565b92915050565b5f805f6060848603121561034c5761034b6102d7565b5b5f61035986828701610321565b935050602061036a86828701610321565b925050604061037b86828701610321565b9150509250925092565b61038e816102fa565b82525050565b5f6020820190506103a75f830184610385565b92915050565b5f82825260208201905092915050565b7f477265656e20746f6b656e20616464726573732063616e6e6f74206265207a655f8201527f726f000000000000000000000000000000000000000000000000000000000000602082015250565b5f6104176022836103ad565b9150610422826103bd565b604082019050919050565b5f6020820190508181035f8301526104448161040b565b9050919050565b7f436f6d70616e792077616c6c657420616464726573732063616e6e6f742062655f8201527f207a65726f000000000000000000000000000000000000000000000000000000602082015250565b5f6104a56025836103ad565b91506104b08261044b565b604082019050919050565b5f6020820190508181035f8301526104d281610499565b9050919050565b61160b806104e65f395ff3fe608060405234801561000f575f80fd5b5060043610610091575f3560e01c80637e6cd78e116100645780637e6cd78e146100f75780638da5cb5b14610118578063a908baae14610136578063d4f11ab214610157578063f2fde38b1461017357610091565b806302b32af5146100955780631ec32d15146100b35780635b0b8953146100d1578063715018a6146100ed575b5f80fd5b61009d61018f565b6040516100aa9190610c82565b60405180910390f35b6100bb6101b4565b6040516100c89190610cbb565b60405180910390f35b6100eb60048036038101906100e69190610e54565b6101d9565b005b6100f56103db565b005b6100ff6103ee565b60405161010f9493929190610f4b565b60405180910390f35b610120610517565b60405161012d9190610cbb565b60405180910390f35b61013e61053e565b60405161014e9493929190610f4b565b60405180910390f35b610171600480360381019061016c9190610fc6565b6106a8565b005b61018d60048036038101906101889190610fc6565b6107a4565b005b60015f9054906101000a900473ffffffffffffffffffffffffffffffffffffffff1681565b60025f9054906101000a900473ffffffffffffffffffffffffffffffffffffffff1681565b60405180608001604052808481526020018381526020018281526020014281525060035f820151815f0155602082015181600101908161021991906111e2565b50604082015181600201908161022f91906111e2565b50606082015181600301559050507fe5864b0c9ecb87481f762b621f90ad82bae82b7ead682d35b3b91247a5c24215838383426040516102729493929190610f4b565b60405180910390a15f61028c61028784610828565b6109a4565b90505f8111156103d55760015f9054906101000a900473ffffffffffffffffffffffffffffffffffffffff1673ffffffffffffffffffffffffffffffffffffffff166323b872dd6102db610517565b60025f9054906101000a900473ffffffffffffffffffffffffffffffffffffffff16846040518463ffffffff1660e01b815260040161031c939291906112b1565b6020604051808303815f875af1158015610338573d5f803e3d5ffd5b505050506040513d601f19601f8201168201806040525081019061035c919061131b565b61039b576040517f08c379a000000000000000000000000000000000000000000000000000000000815260040161039290611390565b60405180910390fd5b7f41fc147bba21ccfbe723d5eea8d020d7a9a65a05b8bd2714b3656b177943e5bf83826040516103cc9291906113ae565b60405180910390a15b50505050565b6103e3610ab9565b6103ec5f610b40565b565b6003805f0154908060010180546104049061101e565b80601f01602080910402602001604051908101604052809291908181526020018280546104309061101e565b801561047b5780601f106104525761010080835404028352916020019161047b565b820191905f5260205f20905b81548152906001019060200180831161045e57829003601f168201915b5050505050908060020180546104909061101e565b80601f01602080910402602001604051908101604052809291908181526020018280546104bc9061101e565b80156105075780601f106104de57610100808354040283529160200191610507565b820191905f5260205f20905b8154815290600101906020018083116104ea57829003601f168201915b5050505050908060030154905084565b5f805f9054906101000a900473ffffffffffffffffffffffffffffffffffffffff16905090565b5f6060805f8060036040518060800160405290815f820154815260200160018201805461056a9061101e565b80601f01602080910402602001604051908101604052809291908181526020018280546105969061101e565b80156105e15780601f106105b8576101008083540402835291602001916105e1565b820191905f5260205f20905b8154815290600101906020018083116105c457829003601f168201915b505050505081526020016002820180546105fa9061101e565b80601f01602080910402602001604051908101604052809291908181526020018280546106269061101e565b80156106715780601f1061064857610100808354040283529160200191610671565b820191905f5260205f20905b81548152906001019060200180831161065457829003601f168201915b505050505081526020016003820154815250509050805f015181602001518260400151836060015194509450945094505090919293565b6106b0610ab9565b5f73ffffffffffffffffffffffffffffffffffffffff168173ffffffffffffffffffffffffffffffffffffffff160361071e576040517f08c379a00000000000000000000000000000000000000000000000000000000081526004016107159061144c565b60405180910390fd5b8060025f6101000a81548173ffffffffffffffffffffffffffffffffffffffff021916908373ffffffffffffffffffffffffffffffffffffffff1602179055508073ffffffffffffffffffffffffffffffffffffffff167f17d26bfa5741118db2591b0b12d70c28d8d73304f68bc040d7ed502f8ea1ef8d60405160405180910390a250565b6107ac610ab9565b5f73ffffffffffffffffffffffffffffffffffffffff168173ffffffffffffffffffffffffffffffffffffffff160361081c575f6040517f1e4fbdf70000000000000000000000000000000000000000000000000000000081526004016108139190610cbb565b60405180910390fd5b61082581610b40565b50565b5f808290505f80600190505f805b8451811015610979577f2e000000000000000000000000000000000000000000000000000000000000008582815181106108735761087261146a565b5b602001015160f81c60f81b7effffffffffffffffffffffffffffffffffffffffffffffffffffffffffffff1916036108ae576001915061096c565b60308582815181106108c3576108c261146a565b5b602001015160f81c60f81b60f81c60ff1610158015610906575060398582815181106108f2576108f161146a565b5b602001015160f81c60f81b60f81c60ff1611155b1561096b57811561092157600a8361091e91906114c4565b92505b60308582815181106109365761093561146a565b5b602001015160f81c60f81b60f81c61094e9190611511565b60ff16600a8561095e91906114c4565b6109689190611545565b93505b5b8080600101915050610836565b5081670de0b6b3a76400008461098f91906114c4565b61099991906115a5565b945050505050919050565b5f8082101580156109bd57506801158e460913d0000082105b156109d35768056bc75e2d631000009050610ab4565b6801158e460913d0000082101580156109f4575068022b1c8c1227a0000082105b15610a0a57680ad78ebc5ac62000009050610ab4565b68022b1c8c1227a000008210158015610a2b5750680340aad21b3b70000082105b15610a4157681043561a88293000009050610ab4565b680340aad21b3b7000008210158015610a6257506804563918244f40000082105b15610a78576815af1d78b58c4000009050610ab4565b6804563918244f4000008210158015610a9a575068056bc75e2d631000008211155b15610ab057681b1ae4d6e2ef5000009050610ab4565b5f90505b919050565b610ac1610c01565b73ffffffffffffffffffffffffffffffffffffffff16610adf610517565b73ffffffffffffffffffffffffffffffffffffffff1614610b3e57610b02610c01565b6040517f118cdaa7000000000000000000000000000000000000000000000000000000008152600401610b359190610cbb565b60405180910390fd5b565b5f805f9054906101000a900473ffffffffffffffffffffffffffffffffffffffff169050815f806101000a81548173ffffffffffffffffffffffffffffffffffffffff021916908373ffffffffffffffffffffffffffffffffffffffff1602179055508173ffffffffffffffffffffffffffffffffffffffff168173ffffffffffffffffffffffffffffffffffffffff167f8be0079c531659141344cd1fd0a4f28419497f9722a3daafe3b4186f6b6457e060405160405180910390a35050565b5f33905090565b5f73ffffffffffffffffffffffffffffffffffffffff82169050919050565b5f819050919050565b5f610c4a610c45610c4084610c08565b610c27565b610c08565b9050919050565b5f610c5b82610c30565b9050919050565b5f610c6c82610c51565b9050919050565b610c7c81610c62565b82525050565b5f602082019050610c955f830184610c73565b92915050565b5f610ca582610c08565b9050919050565b610cb581610c9b565b82525050565b5f602082019050610cce5f830184610cac565b92915050565b5f604051905090565b5f80fd5b5f80fd5b5f819050919050565b610cf781610ce5565b8114610d01575f80fd5b50565b5f81359050610d1281610cee565b92915050565b5f80fd5b5f80fd5b5f601f19601f8301169050919050565b7f4e487b71000000000000000000000000000000000000000000000000000000005f52604160045260245ffd5b610d6682610d20565b810181811067ffffffffffffffff82111715610d8557610d84610d30565b5b80604052505050565b5f610d97610cd4565b9050610da38282610d5d565b919050565b5f67ffffffffffffffff821115610dc257610dc1610d30565b5b610dcb82610d20565b9050602081019050919050565b828183375f83830152505050565b5f610df8610df384610da8565b610d8e565b905082815260208101848484011115610e1457610e13610d1c565b5b610e1f848285610dd8565b509392505050565b5f82601f830112610e3b57610e3a610d18565b5b8135610e4b848260208601610de6565b91505092915050565b5f805f60608486031215610e6b57610e6a610cdd565b5b5f610e7886828701610d04565b935050602084013567ffffffffffffffff811115610e9957610e98610ce1565b5b610ea586828701610e27565b925050604084013567ffffffffffffffff811115610ec657610ec5610ce1565b5b610ed286828701610e27565b9150509250925092565b610ee581610ce5565b82525050565b5f81519050919050565b5f82825260208201905092915050565b8281835e5f83830152505050565b5f610f1d82610eeb565b610f278185610ef5565b9350610f37818560208601610f05565b610f4081610d20565b840191505092915050565b5f608082019050610f5e5f830187610edc565b8181036020830152610f708186610f13565b90508181036040830152610f848185610f13565b9050610f936060830184610edc565b95945050505050565b610fa581610c9b565b8114610faf575f80fd5b50565b5f81359050610fc081610f9c565b92915050565b5f60208284031215610fdb57610fda610cdd565b5b5f610fe884828501610fb2565b91505092915050565b7f4e487b71000000000000000000000000000000000000000000000000000000005f52602260045260245ffd5b5f600282049050600182168061103557607f821691505b60208210810361104857611047610ff1565b5b50919050565b5f819050815f5260205f209050919050565b5f6020601f8301049050919050565b5f82821b905092915050565b5f600883026110aa7fffffffffffffffffffffffffffffffffffffffffffffffffffffffffffffffff8261106f565b6110b4868361106f565b95508019841693508086168417925050509392505050565b5f6110e66110e16110dc84610ce5565b610c27565b610ce5565b9050919050565b5f819050919050565b6110ff836110cc565b61111361110b826110ed565b84845461107b565b825550505050565b5f90565b61112761111b565b6111328184846110f6565b505050565b5b818110156111555761114a5f8261111f565b600181019050611138565b5050565b601f82111561119a5761116b8161104e565b61117484611060565b81016020851015611183578190505b61119761118f85611060565b830182611137565b50505b505050565b5f82821c905092915050565b5f6111ba5f198460080261119f565b1980831691505092915050565b5f6111d283836111ab565b9150826002028217905092915050565b6111eb82610eeb565b67ffffffffffffffff81111561120457611203610d30565b5b61120e825461101e565b611219828285611159565b5f60209050601f83116001811461124a575f8415611238578287015190505b61124285826111c7565b8655506112a9565b601f1984166112588661104e565b5f5b8281101561127f5784890151825560018201915060208501945060208101905061125a565b8683101561129c5784890151611298601f8916826111ab565b8355505b6001600288020188555050505b505050505050565b5f6060820190506112c45f830186610cac565b6112d16020830185610cac565b6112de6040830184610edc565b949350505050565b5f8115159050919050565b6112fa816112e6565b8114611304575f80fd5b50565b5f81519050611315816112f1565b92915050565b5f602082840312156113305761132f610cdd565b5b5f61133d84828501611307565b91505092915050565b7f546f6b656e207472616e73666572206661696c656400000000000000000000005f82015250565b5f61137a601583610ef5565b915061138582611346565b602082019050919050565b5f6020820190508181035f8301526113a78161136e565b9050919050565b5f6040820190508181035f8301526113c68185610f13565b90506113d56020830184610edc565b9392505050565b7f4e65772077616c6c657420616464726573732063616e6e6f74206265207a65725f8201527f6f00000000000000000000000000000000000000000000000000000000000000602082015250565b5f611436602183610ef5565b9150611441826113dc565b604082019050919050565b5f6020820190508181035f8301526114638161142a565b9050919050565b7f4e487b71000000000000000000000000000000000000000000000000000000005f52603260045260245ffd5b7f4e487b71000000000000000000000000000000000000000000000000000000005f52601160045260245ffd5b5f6114ce82610ce5565b91506114d983610ce5565b92508282026114e781610ce5565b915082820484148315176114fe576114fd611497565b5b5092915050565b5f60ff82169050919050565b5f61151b82611505565b915061152683611505565b9250828203905060ff81111561153f5761153e611497565b5b92915050565b5f61154f82610ce5565b915061155a83610ce5565b925082820190508082111561157257611571611497565b5b92915050565b7f4e487b71000000000000000000000000000000000000000000000000000000005f52601260045260245ffd5b5f6115af82610ce5565b91506115ba83610ce5565b9250826115ca576115c9611578565b5b82820490509291505056fea26469706673582212205de3c6893effb48052d25c88016c4c2df9436705a99f0653bb2df9aa2aa7674964736f6c634300081a0033",
			"opcodes": "PUSH1 0x80 PUSH1 0x40 MSTORE CALLVALUE DUP1 ISZERO PUSH2 0xF JUMPI PUSH0 DUP1 REVERT JUMPDEST POP PUSH1 0x40 MLOAD PUSH2 0x1AF1 CODESIZE SUB DUP1 PUSH2 0x1AF1 DUP4 CODECOPY DUP2 DUP2 ADD PUSH1 0x40 MSTORE DUP2 ADD SWAP1 PUSH2 0x31 SWAP2 SWAP1 PUSH2 0x335 JUMP JUMPDEST DUP1 PUSH0 PUSH20 0xFFFFFFFFFFFFFFFFFFFFFFFFFFFFFFFFFFFFFFFF AND DUP2 PUSH20 0xFFFFFFFFFFFFFFFFFFFFFFFFFFFFFFFFFFFFFFFF AND SUB PUSH2 0xA2 JUMPI PUSH0 PUSH1 0x40 MLOAD PUSH32 0x1E4FBDF700000000000000000000000000000000000000000000000000000000 DUP2 MSTORE PUSH1 0x4 ADD PUSH2 0x99 SWAP2 SWAP1 PUSH2 0x394 JUMP JUMPDEST PUSH1 0x40 MLOAD DUP1 SWAP2 SUB SWAP1 REVERT JUMPDEST PUSH2 0xB1 DUP2 PUSH2 0x216 PUSH1 0x20 SHL PUSH1 0x20 SHR JUMP JUMPDEST POP PUSH0 PUSH20 0xFFFFFFFFFFFFFFFFFFFFFFFFFFFFFFFFFFFFFFFF AND DUP4 PUSH20 0xFFFFFFFFFFFFFFFFFFFFFFFFFFFFFFFFFFFFFFFF AND SUB PUSH2 0x120 JUMPI PUSH1 0x40 MLOAD PUSH32 0x8C379A000000000000000000000000000000000000000000000000000000000 DUP2 MSTORE PUSH1 0x4 ADD PUSH2 0x117 SWAP1 PUSH2 0x42D JUMP JUMPDEST PUSH1 0x40 MLOAD DUP1 SWAP2 SUB SWAP1 REVERT JUMPDEST PUSH0 PUSH20 0xFFFFFFFFFFFFFFFFFFFFFFFFFFFFFFFFFFFFFFFF AND DUP3 PUSH20 0xFFFFFFFFFFFFFFFFFFFFFFFFFFFFFFFFFFFFFFFF AND SUB PUSH2 0x18E JUMPI PUSH1 0x40 MLOAD PUSH32 0x8C379A000000000000000000000000000000000000000000000000000000000 DUP2 MSTORE PUSH1 0x4 ADD PUSH2 0x185 SWAP1 PUSH2 0x4BB JUMP JUMPDEST PUSH1 0x40 MLOAD DUP1 SWAP2 SUB SWAP1 REVERT JUMPDEST DUP3 PUSH1 0x1 PUSH0 PUSH2 0x100 EXP DUP2 SLOAD DUP2 PUSH20 0xFFFFFFFFFFFFFFFFFFFFFFFFFFFFFFFFFFFFFFFF MUL NOT AND SWAP1 DUP4 PUSH20 0xFFFFFFFFFFFFFFFFFFFFFFFFFFFFFFFFFFFFFFFF AND MUL OR SWAP1 SSTORE POP DUP2 PUSH1 0x2 PUSH0 PUSH2 0x100 EXP DUP2 SLOAD DUP2 PUSH20 0xFFFFFFFFFFFFFFFFFFFFFFFFFFFFFFFFFFFFFFFF MUL NOT AND SWAP1 DUP4 PUSH20 0xFFFFFFFFFFFFFFFFFFFFFFFFFFFFFFFFFFFFFFFF AND MUL OR SWAP1 SSTORE POP POP POP POP PUSH2 0x4D9 JUMP JUMPDEST PUSH0 DUP1 PUSH0 SWAP1 SLOAD SWAP1 PUSH2 0x100 EXP SWAP1 DIV PUSH20 0xFFFFFFFFFFFFFFFFFFFFFFFFFFFFFFFFFFFFFFFF AND SWAP1 POP DUP2 PUSH0 DUP1 PUSH2 0x100 EXP DUP2 SLOAD DUP2 PUSH20 0xFFFFFFFFFFFFFFFFFFFFFFFFFFFFFFFFFFFFFFFF MUL NOT AND SWAP1 DUP4 PUSH20 0xFFFFFFFFFFFFFFFFFFFFFFFFFFFFFFFFFFFFFFFF AND MUL OR SWAP1 SSTORE POP DUP2 PUSH20 0xFFFFFFFFFFFFFFFFFFFFFFFFFFFFFFFFFFFFFFFF AND DUP2 PUSH20 0xFFFFFFFFFFFFFFFFFFFFFFFFFFFFFFFFFFFFFFFF AND PUSH32 0x8BE0079C531659141344CD1FD0A4F28419497F9722A3DAAFE3B4186F6B6457E0 PUSH1 0x40 MLOAD PUSH1 0x40 MLOAD DUP1 SWAP2 SUB SWAP1 LOG3 POP POP JUMP JUMPDEST PUSH0 DUP1 REVERT JUMPDEST PUSH0 PUSH20 0xFFFFFFFFFFFFFFFFFFFFFFFFFFFFFFFFFFFFFFFF DUP3 AND SWAP1 POP SWAP2 SWAP1 POP JUMP JUMPDEST PUSH0 PUSH2 0x304 DUP3 PUSH2 0x2DB JUMP JUMPDEST SWAP1 POP SWAP2 SWAP1 POP JUMP JUMPDEST PUSH2 0x314 DUP2 PUSH2 0x2FA JUMP JUMPDEST DUP2 EQ PUSH2 0x31E JUMPI PUSH0 DUP1 REVERT JUMPDEST POP JUMP JUMPDEST PUSH0 DUP2 MLOAD SWAP1 POP PUSH2 0x32F DUP2 PUSH2 0x30B JUMP JUMPDEST SWAP3 SWAP2 POP POP JUMP JUMPDEST PUSH0 DUP1 PUSH0 PUSH1 0x60 DUP5 DUP7 SUB SLT ISZERO PUSH2 0x34C JUMPI PUSH2 0x34B PUSH2 0x2D7 JUMP JUMPDEST JUMPDEST PUSH0 PUSH2 0x359 DUP7 DUP3 DUP8 ADD PUSH2 0x321 JUMP JUMPDEST SWAP4 POP POP PUSH1 0x20 PUSH2 0x36A DUP7 DUP3 DUP8 ADD PUSH2 0x321 JUMP JUMPDEST SWAP3 POP POP PUSH1 0x40 PUSH2 0x37B DUP7 DUP3 DUP8 ADD PUSH2 0x321 JUMP JUMPDEST SWAP2 POP POP SWAP3 POP SWAP3 POP SWAP3 JUMP JUMPDEST PUSH2 0x38E DUP2 PUSH2 0x2FA JUMP JUMPDEST DUP3 MSTORE POP POP JUMP JUMPDEST PUSH0 PUSH1 0x20 DUP3 ADD SWAP1 POP PUSH2 0x3A7 PUSH0 DUP4 ADD DUP5 PUSH2 0x385 JUMP JUMPDEST SWAP3 SWAP2 POP POP JUMP JUMPDEST PUSH0 DUP3 DUP3 MSTORE PUSH1 0x20 DUP3 ADD SWAP1 POP SWAP3 SWAP2 POP POP JUMP JUMPDEST PUSH32 0x477265656E20746F6B656E20616464726573732063616E6E6F74206265207A65 PUSH0 DUP3 ADD MSTORE PUSH32 0x726F000000000000000000000000000000000000000000000000000000000000 PUSH1 0x20 DUP3 ADD MSTORE POP JUMP JUMPDEST PUSH0 PUSH2 0x417 PUSH1 0x22 DUP4 PUSH2 0x3AD JUMP JUMPDEST SWAP2 POP PUSH2 0x422 DUP3 PUSH2 0x3BD JUMP JUMPDEST PUSH1 0x40 DUP3 ADD SWAP1 POP SWAP2 SWAP1 POP JUMP JUMPDEST PUSH0 PUSH1 0x20 DUP3 ADD SWAP1 POP DUP2 DUP2 SUB PUSH0 DUP4 ADD MSTORE PUSH2 0x444 DUP2 PUSH2 0x40B JUMP JUMPDEST SWAP1 POP SWAP2 SWAP1 POP JUMP JUMPDEST PUSH32 0x436F6D70616E792077616C6C657420616464726573732063616E6E6F74206265 PUSH0 DUP3 ADD MSTORE PUSH32 0x207A65726F000000000000000000000000000000000000000000000000000000 PUSH1 0x20 DUP3 ADD MSTORE POP JUMP JUMPDEST PUSH0 PUSH2 0x4A5 PUSH1 0x25 DUP4 PUSH2 0x3AD JUMP JUMPDEST SWAP2 POP PUSH2 0x4B0 DUP3 PUSH2 0x44B JUMP JUMPDEST PUSH1 0x40 DUP3 ADD SWAP1 POP SWAP2 SWAP1 POP JUMP JUMPDEST PUSH0 PUSH1 0x20 DUP3 ADD SWAP1 POP DUP2 DUP2 SUB PUSH0 DUP4 ADD MSTORE PUSH2 0x4D2 DUP2 PUSH2 0x499 JUMP JUMPDEST SWAP1 POP SWAP2 SWAP1 POP JUMP JUMPDEST PUSH2 0x160B DUP1 PUSH2 0x4E6 PUSH0 CODECOPY PUSH0 RETURN INVALID PUSH1 0x80 PUSH1 0x40 MSTORE CALLVALUE DUP1 ISZERO PUSH2 0xF JUMPI PUSH0 DUP1 REVERT JUMPDEST POP PUSH1 0x4 CALLDATASIZE LT PUSH2 0x91 JUMPI PUSH0 CALLDATALOAD PUSH1 0xE0 SHR DUP1 PUSH4 0x7E6CD78E GT PUSH2 0x64 JUMPI DUP1 PUSH4 0x7E6CD78E EQ PUSH2 0xF7 JUMPI DUP1 PUSH4 0x8DA5CB5B EQ PUSH2 0x118 JUMPI DUP1 PUSH4 0xA908BAAE EQ PUSH2 0x136 JUMPI DUP1 PUSH4 0xD4F11AB2 EQ PUSH2 0x157 JUMPI DUP1 PUSH4 0xF2FDE38B EQ PUSH2 0x173 JUMPI PUSH2 0x91 JUMP JUMPDEST DUP1 PUSH4 0x2B32AF5 EQ PUSH2 0x95 JUMPI DUP1 PUSH4 0x1EC32D15 EQ PUSH2 0xB3 JUMPI DUP1 PUSH4 0x5B0B8953 EQ PUSH2 0xD1 JUMPI DUP1 PUSH4 0x715018A6 EQ PUSH2 0xED JUMPI JUMPDEST PUSH0 DUP1 REVERT JUMPDEST PUSH2 0x9D PUSH2 0x18F JUMP JUMPDEST PUSH1 0x40 MLOAD PUSH2 0xAA SWAP2 SWAP1 PUSH2 0xC82 JUMP JUMPDEST PUSH1 0x40 MLOAD DUP1 SWAP2 SUB SWAP1 RETURN JUMPDEST PUSH2 0xBB PUSH2 0x1B4 JUMP JUMPDEST PUSH1 0x40 MLOAD PUSH2 0xC8 SWAP2 SWAP1 PUSH2 0xCBB JUMP JUMPDEST PUSH1 0x40 MLOAD DUP1 SWAP2 SUB SWAP1 RETURN JUMPDEST PUSH2 0xEB PUSH1 0x4 DUP1 CALLDATASIZE SUB DUP2 ADD SWAP1 PUSH2 0xE6 SWAP2 SWAP1 PUSH2 0xE54 JUMP JUMPDEST PUSH2 0x1D9 JUMP JUMPDEST STOP JUMPDEST PUSH2 0xF5 PUSH2 0x3DB JUMP JUMPDEST STOP JUMPDEST PUSH2 0xFF PUSH2 0x3EE JUMP JUMPDEST PUSH1 0x40 MLOAD PUSH2 0x10F SWAP5 SWAP4 SWAP3 SWAP2 SWAP1 PUSH2 0xF4B JUMP JUMPDEST PUSH1 0x40 MLOAD DUP1 SWAP2 SUB SWAP1 RETURN JUMPDEST PUSH2 0x120 PUSH2 0x517 JUMP JUMPDEST PUSH1 0x40 MLOAD PUSH2 0x12D SWAP2 SWAP1 PUSH2 0xCBB JUMP JUMPDEST PUSH1 0x40 MLOAD DUP1 SWAP2 SUB SWAP1 RETURN JUMPDEST PUSH2 0x13E PUSH2 0x53E JUMP JUMPDEST PUSH1 0x40 MLOAD PUSH2 0x14E SWAP5 SWAP4 SWAP3 SWAP2 SWAP1 PUSH2 0xF4B JUMP JUMPDEST PUSH1 0x40 MLOAD DUP1 SWAP2 SUB SWAP1 RETURN JUMPDEST PUSH2 0x171 PUSH1 0x4 DUP1 CALLDATASIZE SUB DUP2 ADD SWAP1 PUSH2 0x16C SWAP2 SWAP1 PUSH2 0xFC6 JUMP JUMPDEST PUSH2 0x6A8 JUMP JUMPDEST STOP JUMPDEST PUSH2 0x18D PUSH1 0x4 DUP1 CALLDATASIZE SUB DUP2 ADD SWAP1 PUSH2 0x188 SWAP2 SWAP1 PUSH2 0xFC6 JUMP JUMPDEST PUSH2 0x7A4 JUMP JUMPDEST STOP JUMPDEST PUSH1 0x1 PUSH0 SWAP1 SLOAD SWAP1 PUSH2 0x100 EXP SWAP1 DIV PUSH20 0xFFFFFFFFFFFFFFFFFFFFFFFFFFFFFFFFFFFFFFFF AND DUP2 JUMP JUMPDEST PUSH1 0x2 PUSH0 SWAP1 SLOAD SWAP1 PUSH2 0x100 EXP SWAP1 DIV PUSH20 0xFFFFFFFFFFFFFFFFFFFFFFFFFFFFFFFFFFFFFFFF AND DUP2 JUMP JUMPDEST PUSH1 0x40 MLOAD DUP1 PUSH1 0x80 ADD PUSH1 0x40 MSTORE DUP1 DUP5 DUP2 MSTORE PUSH1 0x20 ADD DUP4 DUP2 MSTORE PUSH1 0x20 ADD DUP3 DUP2 MSTORE PUSH1 0x20 ADD TIMESTAMP DUP2 MSTORE POP PUSH1 0x3 PUSH0 DUP3 ADD MLOAD DUP2 PUSH0 ADD SSTORE PUSH1 0x20 DUP3 ADD MLOAD DUP2 PUSH1 0x1 ADD SWAP1 DUP2 PUSH2 0x219 SWAP2 SWAP1 PUSH2 0x11E2 JUMP JUMPDEST POP PUSH1 0x40 DUP3 ADD MLOAD DUP2 PUSH1 0x2 ADD SWAP1 DUP2 PUSH2 0x22F SWAP2 SWAP1 PUSH2 0x11E2 JUMP JUMPDEST POP PUSH1 0x60 DUP3 ADD MLOAD DUP2 PUSH1 0x3 ADD SSTORE SWAP1 POP POP PUSH32 0xE5864B0C9ECB87481F762B621F90AD82BAE82B7EAD682D35B3B91247A5C24215 DUP4 DUP4 DUP4 TIMESTAMP PUSH1 0x40 MLOAD PUSH2 0x272 SWAP5 SWAP4 SWAP3 SWAP2 SWAP1 PUSH2 0xF4B JUMP JUMPDEST PUSH1 0x40 MLOAD DUP1 SWAP2 SUB SWAP1 LOG1 PUSH0 PUSH2 0x28C PUSH2 0x287 DUP5 PUSH2 0x828 JUMP JUMPDEST PUSH2 0x9A4 JUMP JUMPDEST SWAP1 POP PUSH0 DUP2 GT ISZERO PUSH2 0x3D5 JUMPI PUSH1 0x1 PUSH0 SWAP1 SLOAD SWAP1 PUSH2 0x100 EXP SWAP1 DIV PUSH20 0xFFFFFFFFFFFFFFFFFFFFFFFFFFFFFFFFFFFFFFFF AND PUSH20 0xFFFFFFFFFFFFFFFFFFFFFFFFFFFFFFFFFFFFFFFF AND PUSH4 0x23B872DD PUSH2 0x2DB PUSH2 0x517 JUMP JUMPDEST PUSH1 0x2 PUSH0 SWAP1 SLOAD SWAP1 PUSH2 0x100 EXP SWAP1 DIV PUSH20 0xFFFFFFFFFFFFFFFFFFFFFFFFFFFFFFFFFFFFFFFF AND DUP5 PUSH1 0x40 MLOAD DUP5 PUSH4 0xFFFFFFFF AND PUSH1 0xE0 SHL DUP2 MSTORE PUSH1 0x4 ADD PUSH2 0x31C SWAP4 SWAP3 SWAP2 SWAP1 PUSH2 0x12B1 JUMP JUMPDEST PUSH1 0x20 PUSH1 0x40 MLOAD DUP1 DUP4 SUB DUP2 PUSH0 DUP8 GAS CALL ISZERO DUP1 ISZERO PUSH2 0x338 JUMPI RETURNDATASIZE PUSH0 DUP1 RETURNDATACOPY RETURNDATASIZE PUSH0 REVERT JUMPDEST POP POP POP POP PUSH1 0x40 MLOAD RETURNDATASIZE PUSH1 0x1F NOT PUSH1 0x1F DUP3 ADD AND DUP3 ADD DUP1 PUSH1 0x40 MSTORE POP DUP2 ADD SWAP1 PUSH2 0x35C SWAP2 SWAP1 PUSH2 0x131B JUMP JUMPDEST PUSH2 0x39B JUMPI PUSH1 0x40 MLOAD PUSH32 0x8C379A000000000000000000000000000000000000000000000000000000000 DUP2 MSTORE PUSH1 0x4 ADD PUSH2 0x392 SWAP1 PUSH2 0x1390 JUMP JUMPDEST PUSH1 0x40 MLOAD DUP1 SWAP2 SUB SWAP1 REVERT JUMPDEST PUSH32 0x41FC147BBA21CCFBE723D5EEA8D020D7A9A65A05B8BD2714B3656B177943E5BF DUP4 DUP3 PUSH1 0x40 MLOAD PUSH2 0x3CC SWAP3 SWAP2 SWAP1 PUSH2 0x13AE JUMP JUMPDEST PUSH1 0x40 MLOAD DUP1 SWAP2 SUB SWAP1 LOG1 JUMPDEST POP POP POP POP JUMP JUMPDEST PUSH2 0x3E3 PUSH2 0xAB9 JUMP JUMPDEST PUSH2 0x3EC PUSH0 PUSH2 0xB40 JUMP JUMPDEST JUMP JUMPDEST PUSH1 0x3 DUP1 PUSH0 ADD SLOAD SWAP1 DUP1 PUSH1 0x1 ADD DUP1 SLOAD PUSH2 0x404 SWAP1 PUSH2 0x101E JUMP JUMPDEST DUP1 PUSH1 0x1F ADD PUSH1 0x20 DUP1 SWAP2 DIV MUL PUSH1 0x20 ADD PUSH1 0x40 MLOAD SWAP1 DUP2 ADD PUSH1 0x40 MSTORE DUP1 SWAP3 SWAP2 SWAP1 DUP2 DUP2 MSTORE PUSH1 0x20 ADD DUP3 DUP1 SLOAD PUSH2 0x430 SWAP1 PUSH2 0x101E JUMP JUMPDEST DUP1 ISZERO PUSH2 0x47B JUMPI DUP1 PUSH1 0x1F LT PUSH2 0x452 JUMPI PUSH2 0x100 DUP1 DUP4 SLOAD DIV MUL DUP4 MSTORE SWAP2 PUSH1 0x20 ADD SWAP2 PUSH2 0x47B JUMP JUMPDEST DUP3 ADD SWAP2 SWAP1 PUSH0 MSTORE PUSH1 0x20 PUSH0 KECCAK256 SWAP1 JUMPDEST DUP2 SLOAD DUP2 MSTORE SWAP1 PUSH1 0x1 ADD SWAP1 PUSH1 0x20 ADD DUP1 DUP4 GT PUSH2 0x45E JUMPI DUP3 SWAP1 SUB PUSH1 0x1F AND DUP3 ADD SWAP2 JUMPDEST POP POP POP POP POP SWAP1 DUP1 PUSH1 0x2 ADD DUP1 SLOAD PUSH2 0x490 SWAP1 PUSH2 0x101E JUMP JUMPDEST DUP1 PUSH1 0x1F ADD PUSH1 0x20 DUP1 SWAP2 DIV MUL PUSH1 0x20 ADD PUSH1 0x40 MLOAD SWAP1 DUP2 ADD PUSH1 0x40 MSTORE DUP1 SWAP3 SWAP2 SWAP1 DUP2 DUP2 MSTORE PUSH1 0x20 ADD DUP3 DUP1 SLOAD PUSH2 0x4BC SWAP1 PUSH2 0x101E JUMP JUMPDEST DUP1 ISZERO PUSH2 0x507 JUMPI DUP1 PUSH1 0x1F LT PUSH2 0x4DE JUMPI PUSH2 0x100 DUP1 DUP4 SLOAD DIV MUL DUP4 MSTORE SWAP2 PUSH1 0x20 ADD SWAP2 PUSH2 0x507 JUMP JUMPDEST DUP3 ADD SWAP2 SWAP1 PUSH0 MSTORE PUSH1 0x20 PUSH0 KECCAK256 SWAP1 JUMPDEST DUP2 SLOAD DUP2 MSTORE SWAP1 PUSH1 0x1 ADD SWAP1 PUSH1 0x20 ADD DUP1 DUP4 GT PUSH2 0x4EA JUMPI DUP3 SWAP1 SUB PUSH1 0x1F AND DUP3 ADD SWAP2 JUMPDEST POP POP POP POP POP SWAP1 DUP1 PUSH1 0x3 ADD SLOAD SWAP1 POP DUP5 JUMP JUMPDEST PUSH0 DUP1 PUSH0 SWAP1 SLOAD SWAP1 PUSH2 0x100 EXP SWAP1 DIV PUSH20 0xFFFFFFFFFFFFFFFFFFFFFFFFFFFFFFFFFFFFFFFF AND SWAP1 POP SWAP1 JUMP JUMPDEST PUSH0 PUSH1 0x60 DUP1 PUSH0 DUP1 PUSH1 0x3 PUSH1 0x40 MLOAD DUP1 PUSH1 0x80 ADD PUSH1 0x40 MSTORE SWAP1 DUP2 PUSH0 DUP3 ADD SLOAD DUP2 MSTORE PUSH1 0x20 ADD PUSH1 0x1 DUP3 ADD DUP1 SLOAD PUSH2 0x56A SWAP1 PUSH2 0x101E JUMP JUMPDEST DUP1 PUSH1 0x1F ADD PUSH1 0x20 DUP1 SWAP2 DIV MUL PUSH1 0x20 ADD PUSH1 0x40 MLOAD SWAP1 DUP2 ADD PUSH1 0x40 MSTORE DUP1 SWAP3 SWAP2 SWAP1 DUP2 DUP2 MSTORE PUSH1 0x20 ADD DUP3 DUP1 SLOAD PUSH2 0x596 SWAP1 PUSH2 0x101E JUMP JUMPDEST DUP1 ISZERO PUSH2 0x5E1 JUMPI DUP1 PUSH1 0x1F LT PUSH2 0x5B8 JUMPI PUSH2 0x100 DUP1 DUP4 SLOAD DIV MUL DUP4 MSTORE SWAP2 PUSH1 0x20 ADD SWAP2 PUSH2 0x5E1 JUMP JUMPDEST DUP3 ADD SWAP2 SWAP1 PUSH0 MSTORE PUSH1 0x20 PUSH0 KECCAK256 SWAP1 JUMPDEST DUP2 SLOAD DUP2 MSTORE SWAP1 PUSH1 0x1 ADD SWAP1 PUSH1 0x20 ADD DUP1 DUP4 GT PUSH2 0x5C4 JUMPI DUP3 SWAP1 SUB PUSH1 0x1F AND DUP3 ADD SWAP2 JUMPDEST POP POP POP POP POP DUP2 MSTORE PUSH1 0x20 ADD PUSH1 0x2 DUP3 ADD DUP1 SLOAD PUSH2 0x5FA SWAP1 PUSH2 0x101E JUMP JUMPDEST DUP1 PUSH1 0x1F ADD PUSH1 0x20 DUP1 SWAP2 DIV MUL PUSH1 0x20 ADD PUSH1 0x40 MLOAD SWAP1 DUP2 ADD PUSH1 0x40 MSTORE DUP1 SWAP3 SWAP2 SWAP1 DUP2 DUP2 MSTORE PUSH1 0x20 ADD DUP3 DUP1 SLOAD PUSH2 0x626 SWAP1 PUSH2 0x101E JUMP JUMPDEST DUP1 ISZERO PUSH2 0x671 JUMPI DUP1 PUSH1 0x1F LT PUSH2 0x648 JUMPI PUSH2 0x100 DUP1 DUP4 SLOAD DIV MUL DUP4 MSTORE SWAP2 PUSH1 0x20 ADD SWAP2 PUSH2 0x671 JUMP JUMPDEST DUP3 ADD SWAP2 SWAP1 PUSH0 MSTORE PUSH1 0x20 PUSH0 KECCAK256 SWAP1 JUMPDEST DUP2 SLOAD DUP2 MSTORE SWAP1 PUSH1 0x1 ADD SWAP1 PUSH1 0x20 ADD DUP1 DUP4 GT PUSH2 0x654 JUMPI DUP3 SWAP1 SUB PUSH1 0x1F AND DUP3 ADD SWAP2 JUMPDEST POP POP POP POP POP DUP2 MSTORE PUSH1 0x20 ADD PUSH1 0x3 DUP3 ADD SLOAD DUP2 MSTORE POP POP SWAP1 POP DUP1 PUSH0 ADD MLOAD DUP2 PUSH1 0x20 ADD MLOAD DUP3 PUSH1 0x40 ADD MLOAD DUP4 PUSH1 0x60 ADD MLOAD SWAP5 POP SWAP5 POP SWAP5 POP SWAP5 POP POP SWAP1 SWAP2 SWAP3 SWAP4 JUMP JUMPDEST PUSH2 0x6B0 PUSH2 0xAB9 JUMP JUMPDEST PUSH0 PUSH20 0xFFFFFFFFFFFFFFFFFFFFFFFFFFFFFFFFFFFFFFFF AND DUP2 PUSH20 0xFFFFFFFFFFFFFFFFFFFFFFFFFFFFFFFFFFFFFFFF AND SUB PUSH2 0x71E JUMPI PUSH1 0x40 MLOAD PUSH32 0x8C379A000000000000000000000000000000000000000000000000000000000 DUP2 MSTORE PUSH1 0x4 ADD PUSH2 0x715 SWAP1 PUSH2 0x144C JUMP JUMPDEST PUSH1 0x40 MLOAD DUP1 SWAP2 SUB SWAP1 REVERT JUMPDEST DUP1 PUSH1 0x2 PUSH0 PUSH2 0x100 EXP DUP2 SLOAD DUP2 PUSH20 0xFFFFFFFFFFFFFFFFFFFFFFFFFFFFFFFFFFFFFFFF MUL NOT AND SWAP1 DUP4 PUSH20 0xFFFFFFFFFFFFFFFFFFFFFFFFFFFFFFFFFFFFFFFF AND MUL OR SWAP1 SSTORE POP DUP1 PUSH20 0xFFFFFFFFFFFFFFFFFFFFFFFFFFFFFFFFFFFFFFFF AND PUSH32 0x17D26BFA5741118DB2591B0B12D70C28D8D73304F68BC040D7ED502F8EA1EF8D PUSH1 0x40 MLOAD PUSH1 0x40 MLOAD DUP1 SWAP2 SUB SWAP1 LOG2 POP JUMP JUMPDEST PUSH2 0x7AC PUSH2 0xAB9 JUMP JUMPDEST PUSH0 PUSH20 0xFFFFFFFFFFFFFFFFFFFFFFFFFFFFFFFFFFFFFFFF AND DUP2 PUSH20 0xFFFFFFFFFFFFFFFFFFFFFFFFFFFFFFFFFFFFFFFF AND SUB PUSH2 0x81C JUMPI PUSH0 PUSH1 0x40 MLOAD PUSH32 0x1E4FBDF700000000000000000000000000000000000000000000000000000000 DUP2 MSTORE PUSH1 0x4 ADD PUSH2 0x813 SWAP2 SWAP1 PUSH2 0xCBB JUMP JUMPDEST PUSH1 0x40 MLOAD DUP1 SWAP2 SUB SWAP1 REVERT JUMPDEST PUSH2 0x825 DUP2 PUSH2 0xB40 JUMP JUMPDEST POP JUMP JUMPDEST PUSH0 DUP1 DUP3 SWAP1 POP PUSH0 DUP1 PUSH1 0x1 SWAP1 POP PUSH0 DUP1 JUMPDEST DUP5 MLOAD DUP2 LT ISZERO PUSH2 0x979 JUMPI PUSH32 0x2E00000000000000000000000000000000000000000000000000000000000000 DUP6 DUP3 DUP2 MLOAD DUP2 LT PUSH2 0x873 JUMPI PUSH2 0x872 PUSH2 0x146A JUMP JUMPDEST JUMPDEST PUSH1 0x20 ADD ADD MLOAD PUSH1 0xF8 SHR PUSH1 0xF8 SHL PUSH31 0xFFFFFFFFFFFFFFFFFFFFFFFFFFFFFFFFFFFFFFFFFFFFFFFFFFFFFFFFFFFFFF NOT AND SUB PUSH2 0x8AE JUMPI PUSH1 0x1 SWAP2 POP PUSH2 0x96C JUMP JUMPDEST PUSH1 0x30 DUP6 DUP3 DUP2 MLOAD DUP2 LT PUSH2 0x8C3 JUMPI PUSH2 0x8C2 PUSH2 0x146A JUMP JUMPDEST JUMPDEST PUSH1 0x20 ADD ADD MLOAD PUSH1 0xF8 SHR PUSH1 0xF8 SHL PUSH1 0xF8 SHR PUSH1 0xFF AND LT ISZERO DUP1 ISZERO PUSH2 0x906 JUMPI POP PUSH1 0x39 DUP6 DUP3 DUP2 MLOAD DUP2 LT PUSH2 0x8F2 JUMPI PUSH2 0x8F1 PUSH2 0x146A JUMP JUMPDEST JUMPDEST PUSH1 0x20 ADD ADD MLOAD PUSH1 0xF8 SHR PUSH1 0xF8 SHL PUSH1 0xF8 SHR PUSH1 0xFF AND GT ISZERO JUMPDEST ISZERO PUSH2 0x96B JUMPI DUP2 ISZERO PUSH2 0x921 JUMPI PUSH1 0xA DUP4 PUSH2 0x91E SWAP2 SWAP1 PUSH2 0x14C4 JUMP JUMPDEST SWAP3 POP JUMPDEST PUSH1 0x30 DUP6 DUP3 DUP2 MLOAD DUP2 LT PUSH2 0x936 JUMPI PUSH2 0x935 PUSH2 0x146A JUMP JUMPDEST JUMPDEST PUSH1 0x20 ADD ADD MLOAD PUSH1 0xF8 SHR PUSH1 0xF8 SHL PUSH1 0xF8 SHR PUSH2 0x94E SWAP2 SWAP1 PUSH2 0x1511 JUMP JUMPDEST PUSH1 0xFF AND PUSH1 0xA DUP6 PUSH2 0x95E SWAP2 SWAP1 PUSH2 0x14C4 JUMP JUMPDEST PUSH2 0x968 SWAP2 SWAP1 PUSH2 0x1545 JUMP JUMPDEST SWAP4 POP JUMPDEST JUMPDEST DUP1 DUP1 PUSH1 0x1 ADD SWAP2 POP POP PUSH2 0x836 JUMP JUMPDEST POP DUP2 PUSH8 0xDE0B6B3A7640000 DUP5 PUSH2 0x98F SWAP2 SWAP1 PUSH2 0x14C4 JUMP JUMPDEST PUSH2 0x999 SWAP2 SWAP1 PUSH2 0x15A5 JUMP JUMPDEST SWAP5 POP POP POP POP POP SWAP2 SWAP1 POP JUMP JUMPDEST PUSH0 DUP1 DUP3 LT ISZERO DUP1 ISZERO PUSH2 0x9BD JUMPI POP PUSH9 0x1158E460913D00000 DUP3 LT JUMPDEST ISZERO PUSH2 0x9D3 JUMPI PUSH9 0x56BC75E2D63100000 SWAP1 POP PUSH2 0xAB4 JUMP JUMPDEST PUSH9 0x1158E460913D00000 DUP3 LT ISZERO DUP1 ISZERO PUSH2 0x9F4 JUMPI POP PUSH9 0x22B1C8C1227A00000 DUP3 LT JUMPDEST ISZERO PUSH2 0xA0A JUMPI PUSH9 0xAD78EBC5AC6200000 SWAP1 POP PUSH2 0xAB4 JUMP JUMPDEST PUSH9 0x22B1C8C1227A00000 DUP3 LT ISZERO DUP1 ISZERO PUSH2 0xA2B JUMPI POP PUSH9 0x340AAD21B3B700000 DUP3 LT JUMPDEST ISZERO PUSH2 0xA41 JUMPI PUSH9 0x1043561A8829300000 SWAP1 POP PUSH2 0xAB4 JUMP JUMPDEST PUSH9 0x340AAD21B3B700000 DUP3 LT ISZERO DUP1 ISZERO PUSH2 0xA62 JUMPI POP PUSH9 0x4563918244F400000 DUP3 LT JUMPDEST ISZERO PUSH2 0xA78 JUMPI PUSH9 0x15AF1D78B58C400000 SWAP1 POP PUSH2 0xAB4 JUMP JUMPDEST PUSH9 0x4563918244F400000 DUP3 LT ISZERO DUP1 ISZERO PUSH2 0xA9A JUMPI POP PUSH9 0x56BC75E2D63100000 DUP3 GT ISZERO JUMPDEST ISZERO PUSH2 0xAB0 JUMPI PUSH9 0x1B1AE4D6E2EF500000 SWAP1 POP PUSH2 0xAB4 JUMP JUMPDEST PUSH0 SWAP1 POP JUMPDEST SWAP2 SWAP1 POP JUMP JUMPDEST PUSH2 0xAC1 PUSH2 0xC01 JUMP JUMPDEST PUSH20 0xFFFFFFFFFFFFFFFFFFFFFFFFFFFFFFFFFFFFFFFF AND PUSH2 0xADF PUSH2 0x517 JUMP JUMPDEST PUSH20 0xFFFFFFFFFFFFFFFFFFFFFFFFFFFFFFFFFFFFFFFF AND EQ PUSH2 0xB3E JUMPI PUSH2 0xB02 PUSH2 0xC01 JUMP JUMPDEST PUSH1 0x40 MLOAD PUSH32 0x118CDAA700000000000000000000000000000000000000000000000000000000 DUP2 MSTORE PUSH1 0x4 ADD PUSH2 0xB35 SWAP2 SWAP1 PUSH2 0xCBB JUMP JUMPDEST PUSH1 0x40 MLOAD DUP1 SWAP2 SUB SWAP1 REVERT JUMPDEST JUMP JUMPDEST PUSH0 DUP1 PUSH0 SWAP1 SLOAD SWAP1 PUSH2 0x100 EXP SWAP1 DIV PUSH20 0xFFFFFFFFFFFFFFFFFFFFFFFFFFFFFFFFFFFFFFFF AND SWAP1 POP DUP2 PUSH0 DUP1 PUSH2 0x100 EXP DUP2 SLOAD DUP2 PUSH20 0xFFFFFFFFFFFFFFFFFFFFFFFFFFFFFFFFFFFFFFFF MUL NOT AND SWAP1 DUP4 PUSH20 0xFFFFFFFFFFFFFFFFFFFFFFFFFFFFFFFFFFFFFFFF AND MUL OR SWAP1 SSTORE POP DUP2 PUSH20 0xFFFFFFFFFFFFFFFFFFFFFFFFFFFFFFFFFFFFFFFF AND DUP2 PUSH20 0xFFFFFFFFFFFFFFFFFFFFFFFFFFFFFFFFFFFFFFFF AND PUSH32 0x8BE0079C531659141344CD1FD0A4F28419497F9722A3DAAFE3B4186F6B6457E0 PUSH1 0x40 MLOAD PUSH1 0x40 MLOAD DUP1 SWAP2 SUB SWAP1 LOG3 POP POP JUMP JUMPDEST PUSH0 CALLER SWAP1 POP SWAP1 JUMP JUMPDEST PUSH0 PUSH20 0xFFFFFFFFFFFFFFFFFFFFFFFFFFFFFFFFFFFFFFFF DUP3 AND SWAP1 POP SWAP2 SWAP1 POP JUMP JUMPDEST PUSH0 DUP2 SWAP1 POP SWAP2 SWAP1 POP JUMP JUMPDEST PUSH0 PUSH2 0xC4A PUSH2 0xC45 PUSH2 0xC40 DUP5 PUSH2 0xC08 JUMP JUMPDEST PUSH2 0xC27 JUMP JUMPDEST PUSH2 0xC08 JUMP JUMPDEST SWAP1 POP SWAP2 SWAP1 POP JUMP JUMPDEST PUSH0 PUSH2 0xC5B DUP3 PUSH2 0xC30 JUMP JUMPDEST SWAP1 POP SWAP2 SWAP1 POP JUMP JUMPDEST PUSH0 PUSH2 0xC6C DUP3 PUSH2 0xC51 JUMP JUMPDEST SWAP1 POP SWAP2 SWAP1 POP JUMP JUMPDEST PUSH2 0xC7C DUP2 PUSH2 0xC62 JUMP JUMPDEST DUP3 MSTORE POP POP JUMP JUMPDEST PUSH0 PUSH1 0x20 DUP3 ADD SWAP1 POP PUSH2 0xC95 PUSH0 DUP4 ADD DUP5 PUSH2 0xC73 JUMP JUMPDEST SWAP3 SWAP2 POP POP JUMP JUMPDEST PUSH0 PUSH2 0xCA5 DUP3 PUSH2 0xC08 JUMP JUMPDEST SWAP1 POP SWAP2 SWAP1 POP JUMP JUMPDEST PUSH2 0xCB5 DUP2 PUSH2 0xC9B JUMP JUMPDEST DUP3 MSTORE POP POP JUMP JUMPDEST PUSH0 PUSH1 0x20 DUP3 ADD SWAP1 POP PUSH2 0xCCE PUSH0 DUP4 ADD DUP5 PUSH2 0xCAC JUMP JUMPDEST SWAP3 SWAP2 POP POP JUMP JUMPDEST PUSH0 PUSH1 0x40 MLOAD SWAP1 POP SWAP1 JUMP JUMPDEST PUSH0 DUP1 REVERT JUMPDEST PUSH0 DUP1 REVERT JUMPDEST PUSH0 DUP2 SWAP1 POP SWAP2 SWAP1 POP JUMP JUMPDEST PUSH2 0xCF7 DUP2 PUSH2 0xCE5 JUMP JUMPDEST DUP2 EQ PUSH2 0xD01 JUMPI PUSH0 DUP1 REVERT JUMPDEST POP JUMP JUMPDEST PUSH0 DUP2 CALLDATALOAD SWAP1 POP PUSH2 0xD12 DUP2 PUSH2 0xCEE JUMP JUMPDEST SWAP3 SWAP2 POP POP JUMP JUMPDEST PUSH0 DUP1 REVERT JUMPDEST PUSH0 DUP1 REVERT JUMPDEST PUSH0 PUSH1 0x1F NOT PUSH1 0x1F DUP4 ADD AND SWAP1 POP SWAP2 SWAP1 POP JUMP JUMPDEST PUSH32 0x4E487B7100000000000000000000000000000000000000000000000000000000 PUSH0 MSTORE PUSH1 0x41 PUSH1 0x4 MSTORE PUSH1 0x24 PUSH0 REVERT JUMPDEST PUSH2 0xD66 DUP3 PUSH2 0xD20 JUMP JUMPDEST DUP2 ADD DUP2 DUP2 LT PUSH8 0xFFFFFFFFFFFFFFFF DUP3 GT OR ISZERO PUSH2 0xD85 JUMPI PUSH2 0xD84 PUSH2 0xD30 JUMP JUMPDEST JUMPDEST DUP1 PUSH1 0x40 MSTORE POP POP POP JUMP JUMPDEST PUSH0 PUSH2 0xD97 PUSH2 0xCD4 JUMP JUMPDEST SWAP1 POP PUSH2 0xDA3 DUP3 DUP3 PUSH2 0xD5D JUMP JUMPDEST SWAP2 SWAP1 POP JUMP JUMPDEST PUSH0 PUSH8 0xFFFFFFFFFFFFFFFF DUP3 GT ISZERO PUSH2 0xDC2 JUMPI PUSH2 0xDC1 PUSH2 0xD30 JUMP JUMPDEST JUMPDEST PUSH2 0xDCB DUP3 PUSH2 0xD20 JUMP JUMPDEST SWAP1 POP PUSH1 0x20 DUP2 ADD SWAP1 POP SWAP2 SWAP1 POP JUMP JUMPDEST DUP3 DUP2 DUP4 CALLDATACOPY PUSH0 DUP4 DUP4 ADD MSTORE POP POP POP JUMP JUMPDEST PUSH0 PUSH2 0xDF8 PUSH2 0xDF3 DUP5 PUSH2 0xDA8 JUMP JUMPDEST PUSH2 0xD8E JUMP JUMPDEST SWAP1 POP DUP3 DUP2 MSTORE PUSH1 0x20 DUP2 ADD DUP5 DUP5 DUP5 ADD GT ISZERO PUSH2 0xE14 JUMPI PUSH2 0xE13 PUSH2 0xD1C JUMP JUMPDEST JUMPDEST PUSH2 0xE1F DUP5 DUP3 DUP6 PUSH2 0xDD8 JUMP JUMPDEST POP SWAP4 SWAP3 POP POP POP JUMP JUMPDEST PUSH0 DUP3 PUSH1 0x1F DUP4 ADD SLT PUSH2 0xE3B JUMPI PUSH2 0xE3A PUSH2 0xD18 JUMP JUMPDEST JUMPDEST DUP2 CALLDATALOAD PUSH2 0xE4B DUP5 DUP3 PUSH1 0x20 DUP7 ADD PUSH2 0xDE6 JUMP JUMPDEST SWAP2 POP POP SWAP3 SWAP2 POP POP JUMP JUMPDEST PUSH0 DUP1 PUSH0 PUSH1 0x60 DUP5 DUP7 SUB SLT ISZERO PUSH2 0xE6B JUMPI PUSH2 0xE6A PUSH2 0xCDD JUMP JUMPDEST JUMPDEST PUSH0 PUSH2 0xE78 DUP7 DUP3 DUP8 ADD PUSH2 0xD04 JUMP JUMPDEST SWAP4 POP POP PUSH1 0x20 DUP5 ADD CALLDATALOAD PUSH8 0xFFFFFFFFFFFFFFFF DUP2 GT ISZERO PUSH2 0xE99 JUMPI PUSH2 0xE98 PUSH2 0xCE1 JUMP JUMPDEST JUMPDEST PUSH2 0xEA5 DUP7 DUP3 DUP8 ADD PUSH2 0xE27 JUMP JUMPDEST SWAP3 POP POP PUSH1 0x40 DUP5 ADD CALLDATALOAD PUSH8 0xFFFFFFFFFFFFFFFF DUP2 GT ISZERO PUSH2 0xEC6 JUMPI PUSH2 0xEC5 PUSH2 0xCE1 JUMP JUMPDEST JUMPDEST PUSH2 0xED2 DUP7 DUP3 DUP8 ADD PUSH2 0xE27 JUMP JUMPDEST SWAP2 POP POP SWAP3 POP SWAP3 POP SWAP3 JUMP JUMPDEST PUSH2 0xEE5 DUP2 PUSH2 0xCE5 JUMP JUMPDEST DUP3 MSTORE POP POP JUMP JUMPDEST PUSH0 DUP2 MLOAD SWAP1 POP SWAP2 SWAP1 POP JUMP JUMPDEST PUSH0 DUP3 DUP3 MSTORE PUSH1 0x20 DUP3 ADD SWAP1 POP SWAP3 SWAP2 POP POP JUMP JUMPDEST DUP3 DUP2 DUP4 MCOPY PUSH0 DUP4 DUP4 ADD MSTORE POP POP POP JUMP JUMPDEST PUSH0 PUSH2 0xF1D DUP3 PUSH2 0xEEB JUMP JUMPDEST PUSH2 0xF27 DUP2 DUP6 PUSH2 0xEF5 JUMP JUMPDEST SWAP4 POP PUSH2 0xF37 DUP2 DUP6 PUSH1 0x20 DUP7 ADD PUSH2 0xF05 JUMP JUMPDEST PUSH2 0xF40 DUP2 PUSH2 0xD20 JUMP JUMPDEST DUP5 ADD SWAP2 POP POP SWAP3 SWAP2 POP POP JUMP JUMPDEST PUSH0 PUSH1 0x80 DUP3 ADD SWAP1 POP PUSH2 0xF5E PUSH0 DUP4 ADD DUP8 PUSH2 0xEDC JUMP JUMPDEST DUP2 DUP2 SUB PUSH1 0x20 DUP4 ADD MSTORE PUSH2 0xF70 DUP2 DUP7 PUSH2 0xF13 JUMP JUMPDEST SWAP1 POP DUP2 DUP2 SUB PUSH1 0x40 DUP4 ADD MSTORE PUSH2 0xF84 DUP2 DUP6 PUSH2 0xF13 JUMP JUMPDEST SWAP1 POP PUSH2 0xF93 PUSH1 0x60 DUP4 ADD DUP5 PUSH2 0xEDC JUMP JUMPDEST SWAP6 SWAP5 POP POP POP POP POP JUMP JUMPDEST PUSH2 0xFA5 DUP2 PUSH2 0xC9B JUMP JUMPDEST DUP2 EQ PUSH2 0xFAF JUMPI PUSH0 DUP1 REVERT JUMPDEST POP JUMP JUMPDEST PUSH0 DUP2 CALLDATALOAD SWAP1 POP PUSH2 0xFC0 DUP2 PUSH2 0xF9C JUMP JUMPDEST SWAP3 SWAP2 POP POP JUMP JUMPDEST PUSH0 PUSH1 0x20 DUP3 DUP5 SUB SLT ISZERO PUSH2 0xFDB JUMPI PUSH2 0xFDA PUSH2 0xCDD JUMP JUMPDEST JUMPDEST PUSH0 PUSH2 0xFE8 DUP5 DUP3 DUP6 ADD PUSH2 0xFB2 JUMP JUMPDEST SWAP2 POP POP SWAP3 SWAP2 POP POP JUMP JUMPDEST PUSH32 0x4E487B7100000000000000000000000000000000000000000000000000000000 PUSH0 MSTORE PUSH1 0x22 PUSH1 0x4 MSTORE PUSH1 0x24 PUSH0 REVERT JUMPDEST PUSH0 PUSH1 0x2 DUP3 DIV SWAP1 POP PUSH1 0x1 DUP3 AND DUP1 PUSH2 0x1035 JUMPI PUSH1 0x7F DUP3 AND SWAP2 POP JUMPDEST PUSH1 0x20 DUP3 LT DUP2 SUB PUSH2 0x1048 JUMPI PUSH2 0x1047 PUSH2 0xFF1 JUMP JUMPDEST JUMPDEST POP SWAP2 SWAP1 POP JUMP JUMPDEST PUSH0 DUP2 SWAP1 POP DUP2 PUSH0 MSTORE PUSH1 0x20 PUSH0 KECCAK256 SWAP1 POP SWAP2 SWAP1 POP JUMP JUMPDEST PUSH0 PUSH1 0x20 PUSH1 0x1F DUP4 ADD DIV SWAP1 POP SWAP2 SWAP1 POP JUMP JUMPDEST PUSH0 DUP3 DUP3 SHL SWAP1 POP SWAP3 SWAP2 POP POP JUMP JUMPDEST PUSH0 PUSH1 0x8 DUP4 MUL PUSH2 0x10AA PUSH32 0xFFFFFFFFFFFFFFFFFFFFFFFFFFFFFFFFFFFFFFFFFFFFFFFFFFFFFFFFFFFFFFFF DUP3 PUSH2 0x106F JUMP JUMPDEST PUSH2 0x10B4 DUP7 DUP4 PUSH2 0x106F JUMP JUMPDEST SWAP6 POP DUP1 NOT DUP5 AND SWAP4 POP DUP1 DUP7 AND DUP5 OR SWAP3 POP POP POP SWAP4 SWAP3 POP POP POP JUMP JUMPDEST PUSH0 PUSH2 0x10E6 PUSH2 0x10E1 PUSH2 0x10DC DUP5 PUSH2 0xCE5 JUMP JUMPDEST PUSH2 0xC27 JUMP JUMPDEST PUSH2 0xCE5 JUMP JUMPDEST SWAP1 POP SWAP2 SWAP1 POP JUMP JUMPDEST PUSH0 DUP2 SWAP1 POP SWAP2 SWAP1 POP JUMP JUMPDEST PUSH2 0x10FF DUP4 PUSH2 0x10CC JUMP JUMPDEST PUSH2 0x1113 PUSH2 0x110B DUP3 PUSH2 0x10ED JUMP JUMPDEST DUP5 DUP5 SLOAD PUSH2 0x107B JUMP JUMPDEST DUP3 SSTORE POP POP POP POP JUMP JUMPDEST PUSH0 SWAP1 JUMP JUMPDEST PUSH2 0x1127 PUSH2 0x111B JUMP JUMPDEST PUSH2 0x1132 DUP2 DUP5 DUP5 PUSH2 0x10F6 JUMP JUMPDEST POP POP POP JUMP JUMPDEST JUMPDEST DUP2 DUP2 LT ISZERO PUSH2 0x1155 JUMPI PUSH2 0x114A PUSH0 DUP3 PUSH2 0x111F JUMP JUMPDEST PUSH1 0x1 DUP2 ADD SWAP1 POP PUSH2 0x1138 JUMP JUMPDEST POP POP JUMP JUMPDEST PUSH1 0x1F DUP3 GT ISZERO PUSH2 0x119A JUMPI PUSH2 0x116B DUP2 PUSH2 0x104E JUMP JUMPDEST PUSH2 0x1174 DUP5 PUSH2 0x1060 JUMP JUMPDEST DUP2 ADD PUSH1 0x20 DUP6 LT ISZERO PUSH2 0x1183 JUMPI DUP2 SWAP1 POP JUMPDEST PUSH2 0x1197 PUSH2 0x118F DUP6 PUSH2 0x1060 JUMP JUMPDEST DUP4 ADD DUP3 PUSH2 0x1137 JUMP JUMPDEST POP POP JUMPDEST POP POP POP JUMP JUMPDEST PUSH0 DUP3 DUP3 SHR SWAP1 POP SWAP3 SWAP2 POP POP JUMP JUMPDEST PUSH0 PUSH2 0x11BA PUSH0 NOT DUP5 PUSH1 0x8 MUL PUSH2 0x119F JUMP JUMPDEST NOT DUP1 DUP4 AND SWAP2 POP POP SWAP3 SWAP2 POP POP JUMP JUMPDEST PUSH0 PUSH2 0x11D2 DUP4 DUP4 PUSH2 0x11AB JUMP JUMPDEST SWAP2 POP DUP3 PUSH1 0x2 MUL DUP3 OR SWAP1 POP SWAP3 SWAP2 POP POP JUMP JUMPDEST PUSH2 0x11EB DUP3 PUSH2 0xEEB JUMP JUMPDEST PUSH8 0xFFFFFFFFFFFFFFFF DUP2 GT ISZERO PUSH2 0x1204 JUMPI PUSH2 0x1203 PUSH2 0xD30 JUMP JUMPDEST JUMPDEST PUSH2 0x120E DUP3 SLOAD PUSH2 0x101E JUMP JUMPDEST PUSH2 0x1219 DUP3 DUP3 DUP6 PUSH2 0x1159 JUMP JUMPDEST PUSH0 PUSH1 0x20 SWAP1 POP PUSH1 0x1F DUP4 GT PUSH1 0x1 DUP2 EQ PUSH2 0x124A JUMPI PUSH0 DUP5 ISZERO PUSH2 0x1238 JUMPI DUP3 DUP8 ADD MLOAD SWAP1 POP JUMPDEST PUSH2 0x1242 DUP6 DUP3 PUSH2 0x11C7 JUMP JUMPDEST DUP7 SSTORE POP PUSH2 0x12A9 JUMP JUMPDEST PUSH1 0x1F NOT DUP5 AND PUSH2 0x1258 DUP7 PUSH2 0x104E JUMP JUMPDEST PUSH0 JUMPDEST DUP3 DUP2 LT ISZERO PUSH2 0x127F JUMPI DUP5 DUP10 ADD MLOAD DUP3 SSTORE PUSH1 0x1 DUP3 ADD SWAP2 POP PUSH1 0x20 DUP6 ADD SWAP5 POP PUSH1 0x20 DUP2 ADD SWAP1 POP PUSH2 0x125A JUMP JUMPDEST DUP7 DUP4 LT ISZERO PUSH2 0x129C JUMPI DUP5 DUP10 ADD MLOAD PUSH2 0x1298 PUSH1 0x1F DUP10 AND DUP3 PUSH2 0x11AB JUMP JUMPDEST DUP4 SSTORE POP JUMPDEST PUSH1 0x1 PUSH1 0x2 DUP9 MUL ADD DUP9 SSTORE POP POP POP JUMPDEST POP POP POP POP POP POP JUMP JUMPDEST PUSH0 PUSH1 0x60 DUP3 ADD SWAP1 POP PUSH2 0x12C4 PUSH0 DUP4 ADD DUP7 PUSH2 0xCAC JUMP JUMPDEST PUSH2 0x12D1 PUSH1 0x20 DUP4 ADD DUP6 PUSH2 0xCAC JUMP JUMPDEST PUSH2 0x12DE PUSH1 0x40 DUP4 ADD DUP5 PUSH2 0xEDC JUMP JUMPDEST SWAP5 SWAP4 POP POP POP POP JUMP JUMPDEST PUSH0 DUP2 ISZERO ISZERO SWAP1 POP SWAP2 SWAP1 POP JUMP JUMPDEST PUSH2 0x12FA DUP2 PUSH2 0x12E6 JUMP JUMPDEST DUP2 EQ PUSH2 0x1304 JUMPI PUSH0 DUP1 REVERT JUMPDEST POP JUMP JUMPDEST PUSH0 DUP2 MLOAD SWAP1 POP PUSH2 0x1315 DUP2 PUSH2 0x12F1 JUMP JUMPDEST SWAP3 SWAP2 POP POP JUMP JUMPDEST PUSH0 PUSH1 0x20 DUP3 DUP5 SUB SLT ISZERO PUSH2 0x1330 JUMPI PUSH2 0x132F PUSH2 0xCDD JUMP JUMPDEST JUMPDEST PUSH0 PUSH2 0x133D DUP5 DUP3 DUP6 ADD PUSH2 0x1307 JUMP JUMPDEST SWAP2 POP POP SWAP3 SWAP2 POP POP JUMP JUMPDEST PUSH32 0x546F6B656E207472616E73666572206661696C65640000000000000000000000 PUSH0 DUP3 ADD MSTORE POP JUMP JUMPDEST PUSH0 PUSH2 0x137A PUSH1 0x15 DUP4 PUSH2 0xEF5 JUMP JUMPDEST SWAP2 POP PUSH2 0x1385 DUP3 PUSH2 0x1346 JUMP JUMPDEST PUSH1 0x20 DUP3 ADD SWAP1 POP SWAP2 SWAP1 POP JUMP JUMPDEST PUSH0 PUSH1 0x20 DUP3 ADD SWAP1 POP DUP2 DUP2 SUB PUSH0 DUP4 ADD MSTORE PUSH2 0x13A7 DUP2 PUSH2 0x136E JUMP JUMPDEST SWAP1 POP SWAP2 SWAP1 POP JUMP JUMPDEST PUSH0 PUSH1 0x40 DUP3 ADD SWAP1 POP DUP2 DUP2 SUB PUSH0 DUP4 ADD MSTORE PUSH2 0x13C6 DUP2 DUP6 PUSH2 0xF13 JUMP JUMPDEST SWAP1 POP PUSH2 0x13D5 PUSH1 0x20 DUP4 ADD DUP5 PUSH2 0xEDC JUMP JUMPDEST SWAP4 SWAP3 POP POP POP JUMP JUMPDEST PUSH32 0x4E65772077616C6C657420616464726573732063616E6E6F74206265207A6572 PUSH0 DUP3 ADD MSTORE PUSH32 0x6F00000000000000000000000000000000000000000000000000000000000000 PUSH1 0x20 DUP3 ADD MSTORE POP JUMP JUMPDEST PUSH0 PUSH2 0x1436 PUSH1 0x21 DUP4 PUSH2 0xEF5 JUMP JUMPDEST SWAP2 POP PUSH2 0x1441 DUP3 PUSH2 0x13DC JUMP JUMPDEST PUSH1 0x40 DUP3 ADD SWAP1 POP SWAP2 SWAP1 POP JUMP JUMPDEST PUSH0 PUSH1 0x20 DUP3 ADD SWAP1 POP DUP2 DUP2 SUB PUSH0 DUP4 ADD MSTORE PUSH2 0x1463 DUP2 PUSH2 0x142A JUMP JUMPDEST SWAP1 POP SWAP2 SWAP1 POP JUMP JUMPDEST PUSH32 0x4E487B7100000000000000000000000000000000000000000000000000000000 PUSH0 MSTORE PUSH1 0x32 PUSH1 0x4 MSTORE PUSH1 0x24 PUSH0 REVERT JUMPDEST PUSH32 0x4E487B7100000000000000000000000000000000000000000000000000000000 PUSH0 MSTORE PUSH1 0x11 PUSH1 0x4 MSTORE PUSH1 0x24 PUSH0 REVERT JUMPDEST PUSH0 PUSH2 0x14CE DUP3 PUSH2 0xCE5 JUMP JUMPDEST SWAP2 POP PUSH2 0x14D9 DUP4 PUSH2 0xCE5 JUMP JUMPDEST SWAP3 POP DUP3 DUP3 MUL PUSH2 0x14E7 DUP2 PUSH2 0xCE5 JUMP JUMPDEST SWAP2 POP DUP3 DUP3 DIV DUP5 EQ DUP4 ISZERO OR PUSH2 0x14FE JUMPI PUSH2 0x14FD PUSH2 0x1497 JUMP JUMPDEST JUMPDEST POP SWAP3 SWAP2 POP POP JUMP JUMPDEST PUSH0 PUSH1 0xFF DUP3 AND SWAP1 POP SWAP2 SWAP1 POP JUMP JUMPDEST PUSH0 PUSH2 0x151B DUP3 PUSH2 0x1505 JUMP JUMPDEST SWAP2 POP PUSH2 0x1526 DUP4 PUSH2 0x1505 JUMP JUMPDEST SWAP3 POP DUP3 DUP3 SUB SWAP1 POP PUSH1 0xFF DUP2 GT ISZERO PUSH2 0x153F JUMPI PUSH2 0x153E PUSH2 0x1497 JUMP JUMPDEST JUMPDEST SWAP3 SWAP2 POP POP JUMP JUMPDEST PUSH0 PUSH2 0x154F DUP3 PUSH2 0xCE5 JUMP JUMPDEST SWAP2 POP PUSH2 0x155A DUP4 PUSH2 0xCE5 JUMP JUMPDEST SWAP3 POP DUP3 DUP3 ADD SWAP1 POP DUP1 DUP3 GT ISZERO PUSH2 0x1572 JUMPI PUSH2 0x1571 PUSH2 0x1497 JUMP JUMPDEST JUMPDEST SWAP3 SWAP2 POP POP JUMP JUMPDEST PUSH32 0x4E487B7100000000000000000000000000000000000000000000000000000000 PUSH0 MSTORE PUSH1 0x12 PUSH1 0x4 MSTORE PUSH1 0x24 PUSH0 REVERT JUMPDEST PUSH0 PUSH2 0x15AF DUP3 PUSH2 0xCE5 JUMP JUMPDEST SWAP2 POP PUSH2 0x15BA DUP4 PUSH2 0xCE5 JUMP JUMPDEST SWAP3 POP DUP3 PUSH2 0x15CA JUMPI PUSH2 0x15C9 PUSH2 0x1578 JUMP JUMPDEST JUMPDEST DUP3 DUP3 DIV SWAP1 POP SWAP3 SWAP2 POP POP JUMP INVALID LOG2 PUSH5 0x6970667358 0x22 SLT KECCAK256 TSTORE 0xE3 0xC6 DUP10 RETURNDATACOPY SELFDESTRUCT 0xB4 DUP1 MSTORE 0xD2 TLOAD DUP9 ADD PUSH13 0x4C2DF9436705A99F0653BB2DF9 0xAA 0x2A 0xA7 PUSH8 0x4964736F6C634300 ADDMOD BYTE STOP CALLER "
		},
		"gasEstimates": {
			"creation": {
				"codeDepositCost": "1128600",
				"executionCost": "infinite",
				"totalCost": "infinite"
			},
			"external": {
				"companyWallet()": "2531",
				"getLatestAggregatedData()": "infinite",
				"greenToken()": "infinite",
				"latestAggregatedData()": "infinite",
				"owner()": "2537",
				"renounceOwnership()": "infinite",
				"storeAggregatedData(uint256,string,string)": "infinite",
				"transferOwnership(address)": "infinite",
				"updateCompanyWallet(address)": "infinite"
			},
			"internal": {
				"getRewardAmount(uint256)": "341",
				"parseESGScore(string memory)": "infinite"
			}
		},
		"methodIdentifiers": {
			"companyWallet()": "1ec32d15",
			"getLatestAggregatedData()": "a908baae",
			"greenToken()": "02b32af5",
			"latestAggregatedData()": "7e6cd78e",
			"owner()": "8da5cb5b",
			"renounceOwnership()": "715018a6",
			"storeAggregatedData(uint256,string,string)": "5b0b8953",
			"transferOwnership(address)": "f2fde38b",
			"updateCompanyWallet(address)": "d4f11ab2"
		}
	},
	"abi": [
		{
			"inputs": [
				{
					"internalType": "address",
					"name": "_greenTokenAddress",
					"type": "address"
				},
				{
					"internalType": "address",
					"name": "_initialCompanyWallet",
					"type": "address"
				},
				{
					"internalType": "address",
					"name": "_initialOwner",
					"type": "address"
				}
			],
			"stateMutability": "nonpayable",
			"type": "constructor"
		},
		{
			"inputs": [
				{
					"internalType": "address",
					"name": "owner",
					"type": "address"
				}
			],
			"name": "OwnableInvalidOwner",
			"type": "error"
		},
		{
			"inputs": [
				{
					"internalType": "address",
					"name": "account",
					"type": "address"
				}
			],
			"name": "OwnableUnauthorizedAccount",
			"type": "error"
		},
		{
			"anonymous": false,
			"inputs": [
				{
					"indexed": false,
					"internalType": "uint256",
					"name": "aggregatedCluster",
					"type": "uint256"
				},
				{
					"indexed": false,
					"internalType": "string",
					"name": "aggregatedESGScore",
					"type": "string"
				},
				{
					"indexed": false,
					"internalType": "string",
					"name": "mostCommonRiskCategory",
					"type": "string"
				},
				{
					"indexed": false,
					"internalType": "uint256",
					"name": "timestamp",
					"type": "uint256"
				}
			],
			"name": "AggregatedDataStored",
			"type": "event"
		},
		{
			"anonymous": false,
			"inputs": [
				{
					"indexed": true,
					"internalType": "address",
					"name": "newCompanyWallet",
					"type": "address"
				}
			],
			"name": "CompanyWalletUpdated",
			"type": "event"
		},
		{
			"anonymous": false,
			"inputs": [
				{
					"indexed": true,
					"internalType": "address",
					"name": "previousOwner",
					"type": "address"
				},
				{
					"indexed": true,
					"internalType": "address",
					"name": "newOwner",
					"type": "address"
				}
			],
			"name": "OwnershipTransferred",
			"type": "event"
		},
		{
			"anonymous": false,
			"inputs": [
				{
					"indexed": false,
					"internalType": "string",
					"name": "aggregatedESGScore",
					"type": "string"
				},
				{
					"indexed": false,
					"internalType": "uint256",
					"name": "rewardAmount",
					"type": "uint256"
				}
			],
			"name": "TokensRewarded",
			"type": "event"
		},
		{
			"inputs": [],
			"name": "companyWallet",
			"outputs": [
				{
					"internalType": "address",
					"name": "",
					"type": "address"
				}
			],
			"stateMutability": "view",
			"type": "function"
		},
		{
			"inputs": [],
			"name": "getLatestAggregatedData",
			"outputs": [
				{
					"internalType": "uint256",
					"name": "aggregatedCluster",
					"type": "uint256"
				},
				{
					"internalType": "string",
					"name": "aggregatedESGScore",
					"type": "string"
				},
				{
					"internalType": "string",
					"name": "mostCommonRiskCategory",
					"type": "string"
				},
				{
					"internalType": "uint256",
					"name": "timestamp",
					"type": "uint256"
				}
			],
			"stateMutability": "view",
			"type": "function"
		},
		{
			"inputs": [],
			"name": "greenToken",
			"outputs": [
				{
					"internalType": "contract IERC20",
					"name": "",
					"type": "address"
				}
			],
			"stateMutability": "view",
			"type": "function"
		},
		{
			"inputs": [],
			"name": "latestAggregatedData",
			"outputs": [
				{
					"internalType": "uint256",
					"name": "aggregatedCluster",
					"type": "uint256"
				},
				{
					"internalType": "string",
					"name": "aggregatedESGScore",
					"type": "string"
				},
				{
					"internalType": "string",
					"name": "mostCommonRiskCategory",
					"type": "string"
				},
				{
					"internalType": "uint256",
					"name": "timestamp",
					"type": "uint256"
				}
			],
			"stateMutability": "view",
			"type": "function"
		},
		{
			"inputs": [],
			"name": "owner",
			"outputs": [
				{
					"internalType": "address",
					"name": "",
					"type": "address"
				}
			],
			"stateMutability": "view",
			"type": "function"
		},
		{
			"inputs": [],
			"name": "renounceOwnership",
			"outputs": [],
			"stateMutability": "nonpayable",
			"type": "function"
		},
		{
			"inputs": [
				{
					"internalType": "uint256",
					"name": "_aggregatedCluster",
					"type": "uint256"
				},
				{
					"internalType": "string",
					"name": "_aggregatedESGScore",
					"type": "string"
				},
				{
					"internalType": "string",
					"name": "_mostCommonRiskCategory",
					"type": "string"
				}
			],
			"name": "storeAggregatedData",
			"outputs": [],
			"stateMutability": "nonpayable",
			"type": "function"
		},
		{
			"inputs": [
				{
					"internalType": "address",
					"name": "newOwner",
					"type": "address"
				}
			],
			"name": "transferOwnership",
			"outputs": [],
			"stateMutability": "nonpayable",
			"type": "function"
		},
		{
			"inputs": [
				{
					"internalType": "address",
					"name": "newCompanyWallet",
					"type": "address"
				}
			],
			"name": "updateCompanyWallet",
			"outputs": [],
			"stateMutability": "nonpayable",
			"type": "function"
		}
	]
}