{
	"data": {
		"bytecode": {
			"linkReferences": {},
			"object": "6080604052348015600e575f80fd5b506110918061001c5f395ff3fe608060405234801561000f575f80fd5b5060043610610055575f3560e01c8063325f46581461005957806354751a3814610090578063b8bd5f25146100c0578063f75d8ada146100dc578063ffad0c8f14610113575b5f80fd5b610073600480360381019061006e91906109a4565b610131565b604051610087989796959493929190610a1d565b60405180910390f35b6100aa60048036038101906100a59190610ac3565b6101a2565b6040516100b79190610ba5565b60405180910390f35b6100da60048036038101906100d59190610bc5565b6105b3565b005b6100f660048036038101906100f191906109a4565b61071e565b60405161010a989796959493929190610a1d565b60405180910390f35b61011b610877565b6040516101289190610dba565b60405180910390f35b5f818154811061013f575f80fd5b905f5260205f2090600802015f91509050805f015490806001015490806002015490806003015490806004015490806005015490806006015f9054906101000a900473ffffffffffffffffffffffffffffffffffffffff16908060070154905088565b60605f805b5f80549050811015610243578373ffffffffffffffffffffffffffffffffffffffff165f82815481106101dd576101dc610dda565b5b905f5260205f2090600802016006015f9054906101000a900473ffffffffffffffffffffffffffffffffffffffff1673ffffffffffffffffffffffffffffffffffffffff160361023657818061023290610e34565b9250505b80806001019150506101a7565b505f6006826102529190610e7b565b67ffffffffffffffff81111561026b5761026a610ebc565b5b6040519080825280602002602001820160405280156102995781602001602082028036833780820191505090505b5090505f80808054905090505b5f8111156105a7578573ffffffffffffffffffffffffffffffffffffffff165f6001836102d39190610ee9565b815481106102e4576102e3610dda565b5b905f5260205f2090600802016006015f9054906101000a900473ffffffffffffffffffffffffffffffffffffffff1673ffffffffffffffffffffffffffffffffffffffff1603610594575f60018261033c9190610ee9565b8154811061034d5761034c610dda565b5b905f5260205f2090600802015f01548360068461036a9190610e7b565b8151811061037b5761037a610dda565b5b6020026020010181815250505f6001826103959190610ee9565b815481106103a6576103a5610dda565b5b905f5260205f209060080201600101548360016006856103c69190610e7b565b6103d09190610f1c565b815181106103e1576103e0610dda565b5b6020026020010181815250505f6001826103fb9190610ee9565b8154811061040c5761040b610dda565b5b905f5260205f2090600802016002015483600260068561042c9190610e7b565b6104369190610f1c565b8151811061044757610446610dda565b5b6020026020010181815250505f6001826104619190610ee9565b8154811061047257610471610dda565b5b905f5260205f209060080201600301548360036006856104929190610e7b565b61049c9190610f1c565b815181106104ad576104ac610dda565b5b6020026020010181815250505f6001826104c79190610ee9565b815481106104d8576104d7610dda565b5b905f5260205f209060080201600401548360046006856104f89190610e7b565b6105029190610f1c565b8151811061051357610512610dda565b5b6020026020010181815250505f60018261052d9190610ee9565b8154811061053e5761053d610dda565b5b905f5260205f2090600802016005015483600560068561055e9190610e7b565b6105689190610f1c565b8151811061057957610578610dda565b5b602002602001018181525050818061059090610e34565b9250505b808061059f90610f4f565b9150506102a6565b50819350505050919050565b5f6040518061010001604052808981526020018881526020018781526020018681526020018581526020018481526020018373ffffffffffffffffffffffffffffffffffffffff1681526020014281525090505f81908060018154018082558091505060019003905f5260205f2090600802015f909190919091505f820151815f01556020820151816001015560408201518160020155606082015181600301556080820151816004015560a0820151816005015560c0820151816006015f6101000a81548173ffffffffffffffffffffffffffffffffffffffff021916908373ffffffffffffffffffffffffffffffffffffffff16021790555060e0820151816007015550508173ffffffffffffffffffffffffffffffffffffffff167f0520ca8400c530c05e265fe59da93e2abc1187ed3bf15c7dc82846f0edc3cb758989898989894260405161070c9796959493929190610f76565b60405180910390a25050505050505050565b5f805f805f805f805f80549050891061076c576040517f08c379a00000000000000000000000000000000000000000000000000000000081526004016107639061103d565b60405180910390fd5b5f808a815481106107805761077f610dda565b5b905f5260205f209060080201604051806101000160405290815f82015481526020016001820154815260200160028201548152602001600382015481526020016004820154815260200160058201548152602001600682015f9054906101000a900473ffffffffffffffffffffffffffffffffffffffff1673ffffffffffffffffffffffffffffffffffffffff1673ffffffffffffffffffffffffffffffffffffffff1681526020016007820154815250509050805f015181602001518260400151836060015184608001518560a001518660c001518760e001519850985098509850985098509850985050919395975091939597565b60605f805480602002602001604051908101604052809291908181526020015f905b82821015610964578382905f5260205f209060080201604051806101000160405290815f82015481526020016001820154815260200160028201548152602001600382015481526020016004820154815260200160058201548152602001600682015f9054906101000a900473ffffffffffffffffffffffffffffffffffffffff1673ffffffffffffffffffffffffffffffffffffffff1673ffffffffffffffffffffffffffffffffffffffff16815260200160078201548152505081526020019060010190610899565b50505050905090565b5f80fd5b5f819050919050565b61098381610971565b811461098d575f80fd5b50565b5f8135905061099e8161097a565b92915050565b5f602082840312156109b9576109b861096d565b5b5f6109c684828501610990565b91505092915050565b6109d881610971565b82525050565b5f73ffffffffffffffffffffffffffffffffffffffff82169050919050565b5f610a07826109de565b9050919050565b610a17816109fd565b82525050565b5f61010082019050610a315f83018b6109cf565b610a3e602083018a6109cf565b610a4b60408301896109cf565b610a5860608301886109cf565b610a6560808301876109cf565b610a7260a08301866109cf565b610a7f60c0830185610a0e565b610a8c60e08301846109cf565b9998505050505050505050565b610aa2816109fd565b8114610aac575f80fd5b50565b5f81359050610abd81610a99565b92915050565b5f60208284031215610ad857610ad761096d565b5b5f610ae584828501610aaf565b91505092915050565b5f81519050919050565b5f82825260208201905092915050565b5f819050602082019050919050565b610b2081610971565b82525050565b5f610b318383610b17565b60208301905092915050565b5f602082019050919050565b5f610b5382610aee565b610b5d8185610af8565b9350610b6883610b08565b805f5b83811015610b98578151610b7f8882610b26565b9750610b8a83610b3d565b925050600181019050610b6b565b5085935050505092915050565b5f6020820190508181035f830152610bbd8184610b49565b905092915050565b5f805f805f805f60e0888a031215610be057610bdf61096d565b5b5f610bed8a828b01610990565b9750506020610bfe8a828b01610990565b9650506040610c0f8a828b01610990565b9550506060610c208a828b01610990565b9450506080610c318a828b01610990565b93505060a0610c428a828b01610990565b92505060c0610c538a828b01610aaf565b91505092959891949750929550565b5f81519050919050565b5f82825260208201905092915050565b5f819050602082019050919050565b610c94816109fd565b82525050565b61010082015f820151610caf5f850182610b17565b506020820151610cc26020850182610b17565b506040820151610cd56040850182610b17565b506060820151610ce86060850182610b17565b506080820151610cfb6080850182610b17565b5060a0820151610d0e60a0850182610b17565b5060c0820151610d2160c0850182610c8b565b5060e0820151610d3460e0850182610b17565b50505050565b5f610d458383610c9a565b6101008301905092915050565b5f602082019050919050565b5f610d6882610c62565b610d728185610c6c565b9350610d7d83610c7c565b805f5b83811015610dad578151610d948882610d3a565b9750610d9f83610d52565b925050600181019050610d80565b5085935050505092915050565b5f6020820190508181035f830152610dd28184610d5e565b905092915050565b7f4e487b71000000000000000000000000000000000000000000000000000000005f52603260045260245ffd5b7f4e487b71000000000000000000000000000000000000000000000000000000005f52601160045260245ffd5b5f610e3e82610971565b91507fffffffffffffffffffffffffffffffffffffffffffffffffffffffffffffffff8203610e7057610e6f610e07565b5b600182019050919050565b5f610e8582610971565b9150610e9083610971565b9250828202610e9e81610971565b91508282048414831517610eb557610eb4610e07565b5b5092915050565b7f4e487b71000000000000000000000000000000000000000000000000000000005f52604160045260245ffd5b5f610ef382610971565b9150610efe83610971565b9250828203905081811115610f1657610f15610e07565b5b92915050565b5f610f2682610971565b9150610f3183610971565b9250828201905080821115610f4957610f48610e07565b5b92915050565b5f610f5982610971565b91505f8203610f6b57610f6a610e07565b5b600182039050919050565b5f60e082019050610f895f83018a6109cf565b610f9660208301896109cf565b610fa360408301886109cf565b610fb060608301876109cf565b610fbd60808301866109cf565b610fca60a08301856109cf565b610fd760c08301846109cf565b98975050505050505050565b5f82825260208201905092915050565b7f496e646578206f7574206f6620626f756e6473000000000000000000000000005f82015250565b5f611027601383610fe3565b915061103282610ff3565b602082019050919050565b5f6020820190508181035f8301526110548161101b565b905091905056fea2646970667358221220df4f6fcf45c102f7d733a423482855bb91926cfdf137e90bad4d23066749e5ef64736f6c634300081a0033",
			"opcodes": "PUSH1 0x80 PUSH1 0x40 MSTORE CALLVALUE DUP1 ISZERO PUSH1 0xE JUMPI PUSH0 DUP1 REVERT JUMPDEST POP PUSH2 0x1091 DUP1 PUSH2 0x1C PUSH0 CODECOPY PUSH0 RETURN INVALID PUSH1 0x80 PUSH1 0x40 MSTORE CALLVALUE DUP1 ISZERO PUSH2 0xF JUMPI PUSH0 DUP1 REVERT JUMPDEST POP PUSH1 0x4 CALLDATASIZE LT PUSH2 0x55 JUMPI PUSH0 CALLDATALOAD PUSH1 0xE0 SHR DUP1 PUSH4 0x325F4658 EQ PUSH2 0x59 JUMPI DUP1 PUSH4 0x54751A38 EQ PUSH2 0x90 JUMPI DUP1 PUSH4 0xB8BD5F25 EQ PUSH2 0xC0 JUMPI DUP1 PUSH4 0xF75D8ADA EQ PUSH2 0xDC JUMPI DUP1 PUSH4 0xFFAD0C8F EQ PUSH2 0x113 JUMPI JUMPDEST PUSH0 DUP1 REVERT JUMPDEST PUSH2 0x73 PUSH1 0x4 DUP1 CALLDATASIZE SUB DUP2 ADD SWAP1 PUSH2 0x6E SWAP2 SWAP1 PUSH2 0x9A4 JUMP JUMPDEST PUSH2 0x131 JUMP JUMPDEST PUSH1 0x40 MLOAD PUSH2 0x87 SWAP9 SWAP8 SWAP7 SWAP6 SWAP5 SWAP4 SWAP3 SWAP2 SWAP1 PUSH2 0xA1D JUMP JUMPDEST PUSH1 0x40 MLOAD DUP1 SWAP2 SUB SWAP1 RETURN JUMPDEST PUSH2 0xAA PUSH1 0x4 DUP1 CALLDATASIZE SUB DUP2 ADD SWAP1 PUSH2 0xA5 SWAP2 SWAP1 PUSH2 0xAC3 JUMP JUMPDEST PUSH2 0x1A2 JUMP JUMPDEST PUSH1 0x40 MLOAD PUSH2 0xB7 SWAP2 SWAP1 PUSH2 0xBA5 JUMP JUMPDEST PUSH1 0x40 MLOAD DUP1 SWAP2 SUB SWAP1 RETURN JUMPDEST PUSH2 0xDA PUSH1 0x4 DUP1 CALLDATASIZE SUB DUP2 ADD SWAP1 PUSH2 0xD5 SWAP2 SWAP1 PUSH2 0xBC5 JUMP JUMPDEST PUSH2 0x5B3 JUMP JUMPDEST STOP JUMPDEST PUSH2 0xF6 PUSH1 0x4 DUP1 CALLDATASIZE SUB DUP2 ADD SWAP1 PUSH2 0xF1 SWAP2 SWAP1 PUSH2 0x9A4 JUMP JUMPDEST PUSH2 0x71E JUMP JUMPDEST PUSH1 0x40 MLOAD PUSH2 0x10A SWAP9 SWAP8 SWAP7 SWAP6 SWAP5 SWAP4 SWAP3 SWAP2 SWAP1 PUSH2 0xA1D JUMP JUMPDEST PUSH1 0x40 MLOAD DUP1 SWAP2 SUB SWAP1 RETURN JUMPDEST PUSH2 0x11B PUSH2 0x877 JUMP JUMPDEST PUSH1 0x40 MLOAD PUSH2 0x128 SWAP2 SWAP1 PUSH2 0xDBA JUMP JUMPDEST PUSH1 0x40 MLOAD DUP1 SWAP2 SUB SWAP1 RETURN JUMPDEST PUSH0 DUP2 DUP2 SLOAD DUP2 LT PUSH2 0x13F JUMPI PUSH0 DUP1 REVERT JUMPDEST SWAP1 PUSH0 MSTORE PUSH1 0x20 PUSH0 KECCAK256 SWAP1 PUSH1 0x8 MUL ADD PUSH0 SWAP2 POP SWAP1 POP DUP1 PUSH0 ADD SLOAD SWAP1 DUP1 PUSH1 0x1 ADD SLOAD SWAP1 DUP1 PUSH1 0x2 ADD SLOAD SWAP1 DUP1 PUSH1 0x3 ADD SLOAD SWAP1 DUP1 PUSH1 0x4 ADD SLOAD SWAP1 DUP1 PUSH1 0x5 ADD SLOAD SWAP1 DUP1 PUSH1 0x6 ADD PUSH0 SWAP1 SLOAD SWAP1 PUSH2 0x100 EXP SWAP1 DIV PUSH20 0xFFFFFFFFFFFFFFFFFFFFFFFFFFFFFFFFFFFFFFFF AND SWAP1 DUP1 PUSH1 0x7 ADD SLOAD SWAP1 POP DUP9 JUMP JUMPDEST PUSH1 0x60 PUSH0 DUP1 JUMPDEST PUSH0 DUP1 SLOAD SWAP1 POP DUP2 LT ISZERO PUSH2 0x243 JUMPI DUP4 PUSH20 0xFFFFFFFFFFFFFFFFFFFFFFFFFFFFFFFFFFFFFFFF AND PUSH0 DUP3 DUP2 SLOAD DUP2 LT PUSH2 0x1DD JUMPI PUSH2 0x1DC PUSH2 0xDDA JUMP JUMPDEST JUMPDEST SWAP1 PUSH0 MSTORE PUSH1 0x20 PUSH0 KECCAK256 SWAP1 PUSH1 0x8 MUL ADD PUSH1 0x6 ADD PUSH0 SWAP1 SLOAD SWAP1 PUSH2 0x100 EXP SWAP1 DIV PUSH20 0xFFFFFFFFFFFFFFFFFFFFFFFFFFFFFFFFFFFFFFFF AND PUSH20 0xFFFFFFFFFFFFFFFFFFFFFFFFFFFFFFFFFFFFFFFF AND SUB PUSH2 0x236 JUMPI DUP2 DUP1 PUSH2 0x232 SWAP1 PUSH2 0xE34 JUMP JUMPDEST SWAP3 POP POP JUMPDEST DUP1 DUP1 PUSH1 0x1 ADD SWAP2 POP POP PUSH2 0x1A7 JUMP JUMPDEST POP PUSH0 PUSH1 0x6 DUP3 PUSH2 0x252 SWAP2 SWAP1 PUSH2 0xE7B JUMP JUMPDEST PUSH8 0xFFFFFFFFFFFFFFFF DUP2 GT ISZERO PUSH2 0x26B JUMPI PUSH2 0x26A PUSH2 0xEBC JUMP JUMPDEST JUMPDEST PUSH1 0x40 MLOAD SWAP1 DUP1 DUP3 MSTORE DUP1 PUSH1 0x20 MUL PUSH1 0x20 ADD DUP3 ADD PUSH1 0x40 MSTORE DUP1 ISZERO PUSH2 0x299 JUMPI DUP2 PUSH1 0x20 ADD PUSH1 0x20 DUP3 MUL DUP1 CALLDATASIZE DUP4 CALLDATACOPY DUP1 DUP3 ADD SWAP2 POP POP SWAP1 POP JUMPDEST POP SWAP1 POP PUSH0 DUP1 DUP1 DUP1 SLOAD SWAP1 POP SWAP1 POP JUMPDEST PUSH0 DUP2 GT ISZERO PUSH2 0x5A7 JUMPI DUP6 PUSH20 0xFFFFFFFFFFFFFFFFFFFFFFFFFFFFFFFFFFFFFFFF AND PUSH0 PUSH1 0x1 DUP4 PUSH2 0x2D3 SWAP2 SWAP1 PUSH2 0xEE9 JUMP JUMPDEST DUP2 SLOAD DUP2 LT PUSH2 0x2E4 JUMPI PUSH2 0x2E3 PUSH2 0xDDA JUMP JUMPDEST JUMPDEST SWAP1 PUSH0 MSTORE PUSH1 0x20 PUSH0 KECCAK256 SWAP1 PUSH1 0x8 MUL ADD PUSH1 0x6 ADD PUSH0 SWAP1 SLOAD SWAP1 PUSH2 0x100 EXP SWAP1 DIV PUSH20 0xFFFFFFFFFFFFFFFFFFFFFFFFFFFFFFFFFFFFFFFF AND PUSH20 0xFFFFFFFFFFFFFFFFFFFFFFFFFFFFFFFFFFFFFFFF AND SUB PUSH2 0x594 JUMPI PUSH0 PUSH1 0x1 DUP3 PUSH2 0x33C SWAP2 SWAP1 PUSH2 0xEE9 JUMP JUMPDEST DUP2 SLOAD DUP2 LT PUSH2 0x34D JUMPI PUSH2 0x34C PUSH2 0xDDA JUMP JUMPDEST JUMPDEST SWAP1 PUSH0 MSTORE PUSH1 0x20 PUSH0 KECCAK256 SWAP1 PUSH1 0x8 MUL ADD PUSH0 ADD SLOAD DUP4 PUSH1 0x6 DUP5 PUSH2 0x36A SWAP2 SWAP1 PUSH2 0xE7B JUMP JUMPDEST DUP2 MLOAD DUP2 LT PUSH2 0x37B JUMPI PUSH2 0x37A PUSH2 0xDDA JUMP JUMPDEST JUMPDEST PUSH1 0x20 MUL PUSH1 0x20 ADD ADD DUP2 DUP2 MSTORE POP POP PUSH0 PUSH1 0x1 DUP3 PUSH2 0x395 SWAP2 SWAP1 PUSH2 0xEE9 JUMP JUMPDEST DUP2 SLOAD DUP2 LT PUSH2 0x3A6 JUMPI PUSH2 0x3A5 PUSH2 0xDDA JUMP JUMPDEST JUMPDEST SWAP1 PUSH0 MSTORE PUSH1 0x20 PUSH0 KECCAK256 SWAP1 PUSH1 0x8 MUL ADD PUSH1 0x1 ADD SLOAD DUP4 PUSH1 0x1 PUSH1 0x6 DUP6 PUSH2 0x3C6 SWAP2 SWAP1 PUSH2 0xE7B JUMP JUMPDEST PUSH2 0x3D0 SWAP2 SWAP1 PUSH2 0xF1C JUMP JUMPDEST DUP2 MLOAD DUP2 LT PUSH2 0x3E1 JUMPI PUSH2 0x3E0 PUSH2 0xDDA JUMP JUMPDEST JUMPDEST PUSH1 0x20 MUL PUSH1 0x20 ADD ADD DUP2 DUP2 MSTORE POP POP PUSH0 PUSH1 0x1 DUP3 PUSH2 0x3FB SWAP2 SWAP1 PUSH2 0xEE9 JUMP JUMPDEST DUP2 SLOAD DUP2 LT PUSH2 0x40C JUMPI PUSH2 0x40B PUSH2 0xDDA JUMP JUMPDEST JUMPDEST SWAP1 PUSH0 MSTORE PUSH1 0x20 PUSH0 KECCAK256 SWAP1 PUSH1 0x8 MUL ADD PUSH1 0x2 ADD SLOAD DUP4 PUSH1 0x2 PUSH1 0x6 DUP6 PUSH2 0x42C SWAP2 SWAP1 PUSH2 0xE7B JUMP JUMPDEST PUSH2 0x436 SWAP2 SWAP1 PUSH2 0xF1C JUMP JUMPDEST DUP2 MLOAD DUP2 LT PUSH2 0x447 JUMPI PUSH2 0x446 PUSH2 0xDDA JUMP JUMPDEST JUMPDEST PUSH1 0x20 MUL PUSH1 0x20 ADD ADD DUP2 DUP2 MSTORE POP POP PUSH0 PUSH1 0x1 DUP3 PUSH2 0x461 SWAP2 SWAP1 PUSH2 0xEE9 JUMP JUMPDEST DUP2 SLOAD DUP2 LT PUSH2 0x472 JUMPI PUSH2 0x471 PUSH2 0xDDA JUMP JUMPDEST JUMPDEST SWAP1 PUSH0 MSTORE PUSH1 0x20 PUSH0 KECCAK256 SWAP1 PUSH1 0x8 MUL ADD PUSH1 0x3 ADD SLOAD DUP4 PUSH1 0x3 PUSH1 0x6 DUP6 PUSH2 0x492 SWAP2 SWAP1 PUSH2 0xE7B JUMP JUMPDEST PUSH2 0x49C SWAP2 SWAP1 PUSH2 0xF1C JUMP JUMPDEST DUP2 MLOAD DUP2 LT PUSH2 0x4AD JUMPI PUSH2 0x4AC PUSH2 0xDDA JUMP JUMPDEST JUMPDEST PUSH1 0x20 MUL PUSH1 0x20 ADD ADD DUP2 DUP2 MSTORE POP POP PUSH0 PUSH1 0x1 DUP3 PUSH2 0x4C7 SWAP2 SWAP1 PUSH2 0xEE9 JUMP JUMPDEST DUP2 SLOAD DUP2 LT PUSH2 0x4D8 JUMPI PUSH2 0x4D7 PUSH2 0xDDA JUMP JUMPDEST JUMPDEST SWAP1 PUSH0 MSTORE PUSH1 0x20 PUSH0 KECCAK256 SWAP1 PUSH1 0x8 MUL ADD PUSH1 0x4 ADD SLOAD DUP4 PUSH1 0x4 PUSH1 0x6 DUP6 PUSH2 0x4F8 SWAP2 SWAP1 PUSH2 0xE7B JUMP JUMPDEST PUSH2 0x502 SWAP2 SWAP1 PUSH2 0xF1C JUMP JUMPDEST DUP2 MLOAD DUP2 LT PUSH2 0x513 JUMPI PUSH2 0x512 PUSH2 0xDDA JUMP JUMPDEST JUMPDEST PUSH1 0x20 MUL PUSH1 0x20 ADD ADD DUP2 DUP2 MSTORE POP POP PUSH0 PUSH1 0x1 DUP3 PUSH2 0x52D SWAP2 SWAP1 PUSH2 0xEE9 JUMP JUMPDEST DUP2 SLOAD DUP2 LT PUSH2 0x53E JUMPI PUSH2 0x53D PUSH2 0xDDA JUMP JUMPDEST JUMPDEST SWAP1 PUSH0 MSTORE PUSH1 0x20 PUSH0 KECCAK256 SWAP1 PUSH1 0x8 MUL ADD PUSH1 0x5 ADD SLOAD DUP4 PUSH1 0x5 PUSH1 0x6 DUP6 PUSH2 0x55E SWAP2 SWAP1 PUSH2 0xE7B JUMP JUMPDEST PUSH2 0x568 SWAP2 SWAP1 PUSH2 0xF1C JUMP JUMPDEST DUP2 MLOAD DUP2 LT PUSH2 0x579 JUMPI PUSH2 0x578 PUSH2 0xDDA JUMP JUMPDEST JUMPDEST PUSH1 0x20 MUL PUSH1 0x20 ADD ADD DUP2 DUP2 MSTORE POP POP DUP2 DUP1 PUSH2 0x590 SWAP1 PUSH2 0xE34 JUMP JUMPDEST SWAP3 POP POP JUMPDEST DUP1 DUP1 PUSH2 0x59F SWAP1 PUSH2 0xF4F JUMP JUMPDEST SWAP2 POP POP PUSH2 0x2A6 JUMP JUMPDEST POP DUP2 SWAP4 POP POP POP POP SWAP2 SWAP1 POP JUMP JUMPDEST PUSH0 PUSH1 0x40 MLOAD DUP1 PUSH2 0x100 ADD PUSH1 0x40 MSTORE DUP1 DUP10 DUP2 MSTORE PUSH1 0x20 ADD DUP9 DUP2 MSTORE PUSH1 0x20 ADD DUP8 DUP2 MSTORE PUSH1 0x20 ADD DUP7 DUP2 MSTORE PUSH1 0x20 ADD DUP6 DUP2 MSTORE PUSH1 0x20 ADD DUP5 DUP2 MSTORE PUSH1 0x20 ADD DUP4 PUSH20 0xFFFFFFFFFFFFFFFFFFFFFFFFFFFFFFFFFFFFFFFF AND DUP2 MSTORE PUSH1 0x20 ADD TIMESTAMP DUP2 MSTORE POP SWAP1 POP PUSH0 DUP2 SWAP1 DUP1 PUSH1 0x1 DUP2 SLOAD ADD DUP1 DUP3 SSTORE DUP1 SWAP2 POP POP PUSH1 0x1 SWAP1 SUB SWAP1 PUSH0 MSTORE PUSH1 0x20 PUSH0 KECCAK256 SWAP1 PUSH1 0x8 MUL ADD PUSH0 SWAP1 SWAP2 SWAP1 SWAP2 SWAP1 SWAP2 POP PUSH0 DUP3 ADD MLOAD DUP2 PUSH0 ADD SSTORE PUSH1 0x20 DUP3 ADD MLOAD DUP2 PUSH1 0x1 ADD SSTORE PUSH1 0x40 DUP3 ADD MLOAD DUP2 PUSH1 0x2 ADD SSTORE PUSH1 0x60 DUP3 ADD MLOAD DUP2 PUSH1 0x3 ADD SSTORE PUSH1 0x80 DUP3 ADD MLOAD DUP2 PUSH1 0x4 ADD SSTORE PUSH1 0xA0 DUP3 ADD MLOAD DUP2 PUSH1 0x5 ADD SSTORE PUSH1 0xC0 DUP3 ADD MLOAD DUP2 PUSH1 0x6 ADD PUSH0 PUSH2 0x100 EXP DUP2 SLOAD DUP2 PUSH20 0xFFFFFFFFFFFFFFFFFFFFFFFFFFFFFFFFFFFFFFFF MUL NOT AND SWAP1 DUP4 PUSH20 0xFFFFFFFFFFFFFFFFFFFFFFFFFFFFFFFFFFFFFFFF AND MUL OR SWAP1 SSTORE POP PUSH1 0xE0 DUP3 ADD MLOAD DUP2 PUSH1 0x7 ADD SSTORE POP POP DUP2 PUSH20 0xFFFFFFFFFFFFFFFFFFFFFFFFFFFFFFFFFFFFFFFF AND PUSH32 0x520CA8400C530C05E265FE59DA93E2ABC1187ED3BF15C7DC82846F0EDC3CB75 DUP10 DUP10 DUP10 DUP10 DUP10 DUP10 TIMESTAMP PUSH1 0x40 MLOAD PUSH2 0x70C SWAP8 SWAP7 SWAP6 SWAP5 SWAP4 SWAP3 SWAP2 SWAP1 PUSH2 0xF76 JUMP JUMPDEST PUSH1 0x40 MLOAD DUP1 SWAP2 SUB SWAP1 LOG2 POP POP POP POP POP POP POP POP JUMP JUMPDEST PUSH0 DUP1 PUSH0 DUP1 PUSH0 DUP1 PUSH0 DUP1 PUSH0 DUP1 SLOAD SWAP1 POP DUP10 LT PUSH2 0x76C JUMPI PUSH1 0x40 MLOAD PUSH32 0x8C379A000000000000000000000000000000000000000000000000000000000 DUP2 MSTORE PUSH1 0x4 ADD PUSH2 0x763 SWAP1 PUSH2 0x103D JUMP JUMPDEST PUSH1 0x40 MLOAD DUP1 SWAP2 SUB SWAP1 REVERT JUMPDEST PUSH0 DUP1 DUP11 DUP2 SLOAD DUP2 LT PUSH2 0x780 JUMPI PUSH2 0x77F PUSH2 0xDDA JUMP JUMPDEST JUMPDEST SWAP1 PUSH0 MSTORE PUSH1 0x20 PUSH0 KECCAK256 SWAP1 PUSH1 0x8 MUL ADD PUSH1 0x40 MLOAD DUP1 PUSH2 0x100 ADD PUSH1 0x40 MSTORE SWAP1 DUP2 PUSH0 DUP3 ADD SLOAD DUP2 MSTORE PUSH1 0x20 ADD PUSH1 0x1 DUP3 ADD SLOAD DUP2 MSTORE PUSH1 0x20 ADD PUSH1 0x2 DUP3 ADD SLOAD DUP2 MSTORE PUSH1 0x20 ADD PUSH1 0x3 DUP3 ADD SLOAD DUP2 MSTORE PUSH1 0x20 ADD PUSH1 0x4 DUP3 ADD SLOAD DUP2 MSTORE PUSH1 0x20 ADD PUSH1 0x5 DUP3 ADD SLOAD DUP2 MSTORE PUSH1 0x20 ADD PUSH1 0x6 DUP3 ADD PUSH0 SWAP1 SLOAD SWAP1 PUSH2 0x100 EXP SWAP1 DIV PUSH20 0xFFFFFFFFFFFFFFFFFFFFFFFFFFFFFFFFFFFFFFFF AND PUSH20 0xFFFFFFFFFFFFFFFFFFFFFFFFFFFFFFFFFFFFFFFF AND PUSH20 0xFFFFFFFFFFFFFFFFFFFFFFFFFFFFFFFFFFFFFFFF AND DUP2 MSTORE PUSH1 0x20 ADD PUSH1 0x7 DUP3 ADD SLOAD DUP2 MSTORE POP POP SWAP1 POP DUP1 PUSH0 ADD MLOAD DUP2 PUSH1 0x20 ADD MLOAD DUP3 PUSH1 0x40 ADD MLOAD DUP4 PUSH1 0x60 ADD MLOAD DUP5 PUSH1 0x80 ADD MLOAD DUP6 PUSH1 0xA0 ADD MLOAD DUP7 PUSH1 0xC0 ADD MLOAD DUP8 PUSH1 0xE0 ADD MLOAD SWAP9 POP SWAP9 POP SWAP9 POP SWAP9 POP SWAP9 POP SWAP9 POP SWAP9 POP SWAP9 POP POP SWAP2 SWAP4 SWAP6 SWAP8 POP SWAP2 SWAP4 SWAP6 SWAP8 JUMP JUMPDEST PUSH1 0x60 PUSH0 DUP1 SLOAD DUP1 PUSH1 0x20 MUL PUSH1 0x20 ADD PUSH1 0x40 MLOAD SWAP1 DUP2 ADD PUSH1 0x40 MSTORE DUP1 SWAP3 SWAP2 SWAP1 DUP2 DUP2 MSTORE PUSH1 0x20 ADD PUSH0 SWAP1 JUMPDEST DUP3 DUP3 LT ISZERO PUSH2 0x964 JUMPI DUP4 DUP3 SWAP1 PUSH0 MSTORE PUSH1 0x20 PUSH0 KECCAK256 SWAP1 PUSH1 0x8 MUL ADD PUSH1 0x40 MLOAD DUP1 PUSH2 0x100 ADD PUSH1 0x40 MSTORE SWAP1 DUP2 PUSH0 DUP3 ADD SLOAD DUP2 MSTORE PUSH1 0x20 ADD PUSH1 0x1 DUP3 ADD SLOAD DUP2 MSTORE PUSH1 0x20 ADD PUSH1 0x2 DUP3 ADD SLOAD DUP2 MSTORE PUSH1 0x20 ADD PUSH1 0x3 DUP3 ADD SLOAD DUP2 MSTORE PUSH1 0x20 ADD PUSH1 0x4 DUP3 ADD SLOAD DUP2 MSTORE PUSH1 0x20 ADD PUSH1 0x5 DUP3 ADD SLOAD DUP2 MSTORE PUSH1 0x20 ADD PUSH1 0x6 DUP3 ADD PUSH0 SWAP1 SLOAD SWAP1 PUSH2 0x100 EXP SWAP1 DIV PUSH20 0xFFFFFFFFFFFFFFFFFFFFFFFFFFFFFFFFFFFFFFFF AND PUSH20 0xFFFFFFFFFFFFFFFFFFFFFFFFFFFFFFFFFFFFFFFF AND PUSH20 0xFFFFFFFFFFFFFFFFFFFFFFFFFFFFFFFFFFFFFFFF AND DUP2 MSTORE PUSH1 0x20 ADD PUSH1 0x7 DUP3 ADD SLOAD DUP2 MSTORE POP POP DUP2 MSTORE PUSH1 0x20 ADD SWAP1 PUSH1 0x1 ADD SWAP1 PUSH2 0x899 JUMP JUMPDEST POP POP POP POP SWAP1 POP SWAP1 JUMP JUMPDEST PUSH0 DUP1 REVERT JUMPDEST PUSH0 DUP2 SWAP1 POP SWAP2 SWAP1 POP JUMP JUMPDEST PUSH2 0x983 DUP2 PUSH2 0x971 JUMP JUMPDEST DUP2 EQ PUSH2 0x98D JUMPI PUSH0 DUP1 REVERT JUMPDEST POP JUMP JUMPDEST PUSH0 DUP2 CALLDATALOAD SWAP1 POP PUSH2 0x99E DUP2 PUSH2 0x97A JUMP JUMPDEST SWAP3 SWAP2 POP POP JUMP JUMPDEST PUSH0 PUSH1 0x20 DUP3 DUP5 SUB SLT ISZERO PUSH2 0x9B9 JUMPI PUSH2 0x9B8 PUSH2 0x96D JUMP JUMPDEST JUMPDEST PUSH0 PUSH2 0x9C6 DUP5 DUP3 DUP6 ADD PUSH2 0x990 JUMP JUMPDEST SWAP2 POP POP SWAP3 SWAP2 POP POP JUMP JUMPDEST PUSH2 0x9D8 DUP2 PUSH2 0x971 JUMP JUMPDEST DUP3 MSTORE POP POP JUMP JUMPDEST PUSH0 PUSH20 0xFFFFFFFFFFFFFFFFFFFFFFFFFFFFFFFFFFFFFFFF DUP3 AND SWAP1 POP SWAP2 SWAP1 POP JUMP JUMPDEST PUSH0 PUSH2 0xA07 DUP3 PUSH2 0x9DE JUMP JUMPDEST SWAP1 POP SWAP2 SWAP1 POP JUMP JUMPDEST PUSH2 0xA17 DUP2 PUSH2 0x9FD JUMP JUMPDEST DUP3 MSTORE POP POP JUMP JUMPDEST PUSH0 PUSH2 0x100 DUP3 ADD SWAP1 POP PUSH2 0xA31 PUSH0 DUP4 ADD DUP12 PUSH2 0x9CF JUMP JUMPDEST PUSH2 0xA3E PUSH1 0x20 DUP4 ADD DUP11 PUSH2 0x9CF JUMP JUMPDEST PUSH2 0xA4B PUSH1 0x40 DUP4 ADD DUP10 PUSH2 0x9CF JUMP JUMPDEST PUSH2 0xA58 PUSH1 0x60 DUP4 ADD DUP9 PUSH2 0x9CF JUMP JUMPDEST PUSH2 0xA65 PUSH1 0x80 DUP4 ADD DUP8 PUSH2 0x9CF JUMP JUMPDEST PUSH2 0xA72 PUSH1 0xA0 DUP4 ADD DUP7 PUSH2 0x9CF JUMP JUMPDEST PUSH2 0xA7F PUSH1 0xC0 DUP4 ADD DUP6 PUSH2 0xA0E JUMP JUMPDEST PUSH2 0xA8C PUSH1 0xE0 DUP4 ADD DUP5 PUSH2 0x9CF JUMP JUMPDEST SWAP10 SWAP9 POP POP POP POP POP POP POP POP POP JUMP JUMPDEST PUSH2 0xAA2 DUP2 PUSH2 0x9FD JUMP JUMPDEST DUP2 EQ PUSH2 0xAAC JUMPI PUSH0 DUP1 REVERT JUMPDEST POP JUMP JUMPDEST PUSH0 DUP2 CALLDATALOAD SWAP1 POP PUSH2 0xABD DUP2 PUSH2 0xA99 JUMP JUMPDEST SWAP3 SWAP2 POP POP JUMP JUMPDEST PUSH0 PUSH1 0x20 DUP3 DUP5 SUB SLT ISZERO PUSH2 0xAD8 JUMPI PUSH2 0xAD7 PUSH2 0x96D JUMP JUMPDEST JUMPDEST PUSH0 PUSH2 0xAE5 DUP5 DUP3 DUP6 ADD PUSH2 0xAAF JUMP JUMPDEST SWAP2 POP POP SWAP3 SWAP2 POP POP JUMP JUMPDEST PUSH0 DUP2 MLOAD SWAP1 POP SWAP2 SWAP1 POP JUMP JUMPDEST PUSH0 DUP3 DUP3 MSTORE PUSH1 0x20 DUP3 ADD SWAP1 POP SWAP3 SWAP2 POP POP JUMP JUMPDEST PUSH0 DUP2 SWAP1 POP PUSH1 0x20 DUP3 ADD SWAP1 POP SWAP2 SWAP1 POP JUMP JUMPDEST PUSH2 0xB20 DUP2 PUSH2 0x971 JUMP JUMPDEST DUP3 MSTORE POP POP JUMP JUMPDEST PUSH0 PUSH2 0xB31 DUP4 DUP4 PUSH2 0xB17 JUMP JUMPDEST PUSH1 0x20 DUP4 ADD SWAP1 POP SWAP3 SWAP2 POP POP JUMP JUMPDEST PUSH0 PUSH1 0x20 DUP3 ADD SWAP1 POP SWAP2 SWAP1 POP JUMP JUMPDEST PUSH0 PUSH2 0xB53 DUP3 PUSH2 0xAEE JUMP JUMPDEST PUSH2 0xB5D DUP2 DUP6 PUSH2 0xAF8 JUMP JUMPDEST SWAP4 POP PUSH2 0xB68 DUP4 PUSH2 0xB08 JUMP JUMPDEST DUP1 PUSH0 JUMPDEST DUP4 DUP2 LT ISZERO PUSH2 0xB98 JUMPI DUP2 MLOAD PUSH2 0xB7F DUP9 DUP3 PUSH2 0xB26 JUMP JUMPDEST SWAP8 POP PUSH2 0xB8A DUP4 PUSH2 0xB3D JUMP JUMPDEST SWAP3 POP POP PUSH1 0x1 DUP2 ADD SWAP1 POP PUSH2 0xB6B JUMP JUMPDEST POP DUP6 SWAP4 POP POP POP POP SWAP3 SWAP2 POP POP JUMP JUMPDEST PUSH0 PUSH1 0x20 DUP3 ADD SWAP1 POP DUP2 DUP2 SUB PUSH0 DUP4 ADD MSTORE PUSH2 0xBBD DUP2 DUP5 PUSH2 0xB49 JUMP JUMPDEST SWAP1 POP SWAP3 SWAP2 POP POP JUMP JUMPDEST PUSH0 DUP1 PUSH0 DUP1 PUSH0 DUP1 PUSH0 PUSH1 0xE0 DUP9 DUP11 SUB SLT ISZERO PUSH2 0xBE0 JUMPI PUSH2 0xBDF PUSH2 0x96D JUMP JUMPDEST JUMPDEST PUSH0 PUSH2 0xBED DUP11 DUP3 DUP12 ADD PUSH2 0x990 JUMP JUMPDEST SWAP8 POP POP PUSH1 0x20 PUSH2 0xBFE DUP11 DUP3 DUP12 ADD PUSH2 0x990 JUMP JUMPDEST SWAP7 POP POP PUSH1 0x40 PUSH2 0xC0F DUP11 DUP3 DUP12 ADD PUSH2 0x990 JUMP JUMPDEST SWAP6 POP POP PUSH1 0x60 PUSH2 0xC20 DUP11 DUP3 DUP12 ADD PUSH2 0x990 JUMP JUMPDEST SWAP5 POP POP PUSH1 0x80 PUSH2 0xC31 DUP11 DUP3 DUP12 ADD PUSH2 0x990 JUMP JUMPDEST SWAP4 POP POP PUSH1 0xA0 PUSH2 0xC42 DUP11 DUP3 DUP12 ADD PUSH2 0x990 JUMP JUMPDEST SWAP3 POP POP PUSH1 0xC0 PUSH2 0xC53 DUP11 DUP3 DUP12 ADD PUSH2 0xAAF JUMP JUMPDEST SWAP2 POP POP SWAP3 SWAP6 SWAP9 SWAP2 SWAP5 SWAP8 POP SWAP3 SWAP6 POP JUMP JUMPDEST PUSH0 DUP2 MLOAD SWAP1 POP SWAP2 SWAP1 POP JUMP JUMPDEST PUSH0 DUP3 DUP3 MSTORE PUSH1 0x20 DUP3 ADD SWAP1 POP SWAP3 SWAP2 POP POP JUMP JUMPDEST PUSH0 DUP2 SWAP1 POP PUSH1 0x20 DUP3 ADD SWAP1 POP SWAP2 SWAP1 POP JUMP JUMPDEST PUSH2 0xC94 DUP2 PUSH2 0x9FD JUMP JUMPDEST DUP3 MSTORE POP POP JUMP JUMPDEST PUSH2 0x100 DUP3 ADD PUSH0 DUP3 ADD MLOAD PUSH2 0xCAF PUSH0 DUP6 ADD DUP3 PUSH2 0xB17 JUMP JUMPDEST POP PUSH1 0x20 DUP3 ADD MLOAD PUSH2 0xCC2 PUSH1 0x20 DUP6 ADD DUP3 PUSH2 0xB17 JUMP JUMPDEST POP PUSH1 0x40 DUP3 ADD MLOAD PUSH2 0xCD5 PUSH1 0x40 DUP6 ADD DUP3 PUSH2 0xB17 JUMP JUMPDEST POP PUSH1 0x60 DUP3 ADD MLOAD PUSH2 0xCE8 PUSH1 0x60 DUP6 ADD DUP3 PUSH2 0xB17 JUMP JUMPDEST POP PUSH1 0x80 DUP3 ADD MLOAD PUSH2 0xCFB PUSH1 0x80 DUP6 ADD DUP3 PUSH2 0xB17 JUMP JUMPDEST POP PUSH1 0xA0 DUP3 ADD MLOAD PUSH2 0xD0E PUSH1 0xA0 DUP6 ADD DUP3 PUSH2 0xB17 JUMP JUMPDEST POP PUSH1 0xC0 DUP3 ADD MLOAD PUSH2 0xD21 PUSH1 0xC0 DUP6 ADD DUP3 PUSH2 0xC8B JUMP JUMPDEST POP PUSH1 0xE0 DUP3 ADD MLOAD PUSH2 0xD34 PUSH1 0xE0 DUP6 ADD DUP3 PUSH2 0xB17 JUMP JUMPDEST POP POP POP POP JUMP JUMPDEST PUSH0 PUSH2 0xD45 DUP4 DUP4 PUSH2 0xC9A JUMP JUMPDEST PUSH2 0x100 DUP4 ADD SWAP1 POP SWAP3 SWAP2 POP POP JUMP JUMPDEST PUSH0 PUSH1 0x20 DUP3 ADD SWAP1 POP SWAP2 SWAP1 POP JUMP JUMPDEST PUSH0 PUSH2 0xD68 DUP3 PUSH2 0xC62 JUMP JUMPDEST PUSH2 0xD72 DUP2 DUP6 PUSH2 0xC6C JUMP JUMPDEST SWAP4 POP PUSH2 0xD7D DUP4 PUSH2 0xC7C JUMP JUMPDEST DUP1 PUSH0 JUMPDEST DUP4 DUP2 LT ISZERO PUSH2 0xDAD JUMPI DUP2 MLOAD PUSH2 0xD94 DUP9 DUP3 PUSH2 0xD3A JUMP JUMPDEST SWAP8 POP PUSH2 0xD9F DUP4 PUSH2 0xD52 JUMP JUMPDEST SWAP3 POP POP PUSH1 0x1 DUP2 ADD SWAP1 POP PUSH2 0xD80 JUMP JUMPDEST POP DUP6 SWAP4 POP POP POP POP SWAP3 SWAP2 POP POP JUMP JUMPDEST PUSH0 PUSH1 0x20 DUP3 ADD SWAP1 POP DUP2 DUP2 SUB PUSH0 DUP4 ADD MSTORE PUSH2 0xDD2 DUP2 DUP5 PUSH2 0xD5E JUMP JUMPDEST SWAP1 POP SWAP3 SWAP2 POP POP JUMP JUMPDEST PUSH32 0x4E487B7100000000000000000000000000000000000000000000000000000000 PUSH0 MSTORE PUSH1 0x32 PUSH1 0x4 MSTORE PUSH1 0x24 PUSH0 REVERT JUMPDEST PUSH32 0x4E487B7100000000000000000000000000000000000000000000000000000000 PUSH0 MSTORE PUSH1 0x11 PUSH1 0x4 MSTORE PUSH1 0x24 PUSH0 REVERT JUMPDEST PUSH0 PUSH2 0xE3E DUP3 PUSH2 0x971 JUMP JUMPDEST SWAP2 POP PUSH32 0xFFFFFFFFFFFFFFFFFFFFFFFFFFFFFFFFFFFFFFFFFFFFFFFFFFFFFFFFFFFFFFFF DUP3 SUB PUSH2 0xE70 JUMPI PUSH2 0xE6F PUSH2 0xE07 JUMP JUMPDEST JUMPDEST PUSH1 0x1 DUP3 ADD SWAP1 POP SWAP2 SWAP1 POP JUMP JUMPDEST PUSH0 PUSH2 0xE85 DUP3 PUSH2 0x971 JUMP JUMPDEST SWAP2 POP PUSH2 0xE90 DUP4 PUSH2 0x971 JUMP JUMPDEST SWAP3 POP DUP3 DUP3 MUL PUSH2 0xE9E DUP2 PUSH2 0x971 JUMP JUMPDEST SWAP2 POP DUP3 DUP3 DIV DUP5 EQ DUP4 ISZERO OR PUSH2 0xEB5 JUMPI PUSH2 0xEB4 PUSH2 0xE07 JUMP JUMPDEST JUMPDEST POP SWAP3 SWAP2 POP POP JUMP JUMPDEST PUSH32 0x4E487B7100000000000000000000000000000000000000000000000000000000 PUSH0 MSTORE PUSH1 0x41 PUSH1 0x4 MSTORE PUSH1 0x24 PUSH0 REVERT JUMPDEST PUSH0 PUSH2 0xEF3 DUP3 PUSH2 0x971 JUMP JUMPDEST SWAP2 POP PUSH2 0xEFE DUP4 PUSH2 0x971 JUMP JUMPDEST SWAP3 POP DUP3 DUP3 SUB SWAP1 POP DUP2 DUP2 GT ISZERO PUSH2 0xF16 JUMPI PUSH2 0xF15 PUSH2 0xE07 JUMP JUMPDEST JUMPDEST SWAP3 SWAP2 POP POP JUMP JUMPDEST PUSH0 PUSH2 0xF26 DUP3 PUSH2 0x971 JUMP JUMPDEST SWAP2 POP PUSH2 0xF31 DUP4 PUSH2 0x971 JUMP JUMPDEST SWAP3 POP DUP3 DUP3 ADD SWAP1 POP DUP1 DUP3 GT ISZERO PUSH2 0xF49 JUMPI PUSH2 0xF48 PUSH2 0xE07 JUMP JUMPDEST JUMPDEST SWAP3 SWAP2 POP POP JUMP JUMPDEST PUSH0 PUSH2 0xF59 DUP3 PUSH2 0x971 JUMP JUMPDEST SWAP2 POP PUSH0 DUP3 SUB PUSH2 0xF6B JUMPI PUSH2 0xF6A PUSH2 0xE07 JUMP JUMPDEST JUMPDEST PUSH1 0x1 DUP3 SUB SWAP1 POP SWAP2 SWAP1 POP JUMP JUMPDEST PUSH0 PUSH1 0xE0 DUP3 ADD SWAP1 POP PUSH2 0xF89 PUSH0 DUP4 ADD DUP11 PUSH2 0x9CF JUMP JUMPDEST PUSH2 0xF96 PUSH1 0x20 DUP4 ADD DUP10 PUSH2 0x9CF JUMP JUMPDEST PUSH2 0xFA3 PUSH1 0x40 DUP4 ADD DUP9 PUSH2 0x9CF JUMP JUMPDEST PUSH2 0xFB0 PUSH1 0x60 DUP4 ADD DUP8 PUSH2 0x9CF JUMP JUMPDEST PUSH2 0xFBD PUSH1 0x80 DUP4 ADD DUP7 PUSH2 0x9CF JUMP JUMPDEST PUSH2 0xFCA PUSH1 0xA0 DUP4 ADD DUP6 PUSH2 0x9CF JUMP JUMPDEST PUSH2 0xFD7 PUSH1 0xC0 DUP4 ADD DUP5 PUSH2 0x9CF JUMP JUMPDEST SWAP9 SWAP8 POP POP POP POP POP POP POP POP JUMP JUMPDEST PUSH0 DUP3 DUP3 MSTORE PUSH1 0x20 DUP3 ADD SWAP1 POP SWAP3 SWAP2 POP POP JUMP JUMPDEST PUSH32 0x496E646578206F7574206F6620626F756E647300000000000000000000000000 PUSH0 DUP3 ADD MSTORE POP JUMP JUMPDEST PUSH0 PUSH2 0x1027 PUSH1 0x13 DUP4 PUSH2 0xFE3 JUMP JUMPDEST SWAP2 POP PUSH2 0x1032 DUP3 PUSH2 0xFF3 JUMP JUMPDEST PUSH1 0x20 DUP3 ADD SWAP1 POP SWAP2 SWAP1 POP JUMP JUMPDEST PUSH0 PUSH1 0x20 DUP3 ADD SWAP1 POP DUP2 DUP2 SUB PUSH0 DUP4 ADD MSTORE PUSH2 0x1054 DUP2 PUSH2 0x101B JUMP JUMPDEST SWAP1 POP SWAP2 SWAP1 POP JUMP INVALID LOG2 PUSH5 0x6970667358 0x22 SLT KECCAK256 0xDF 0x4F PUSH16 0xCF45C102F7D733A423482855BB91926C REVERT CALL CALLDATACOPY 0xE9 SIGNEXTEND 0xAD 0x4D 0x23 MOD PUSH8 0x49E5EF64736F6C63 NUMBER STOP ADDMOD BYTE STOP CALLER "
		},
		"gasEstimates": {
			"creation": {
				"codeDepositCost": "848200",
				"executionCost": "881",
				"totalCost": "849081"
			},
			"external": {
				"dataEntries(uint256)": "infinite",
				"getDataByWallet(address)": "infinite",
				"getDataEntries()": "infinite",
				"getDataEntry(uint256)": "infinite",
				"storeData(uint256,uint256,uint256,uint256,uint256,uint256,address)": "infinite"
			}
		},
		"methodIdentifiers": {
			"dataEntries(uint256)": "325f4658",
			"getDataByWallet(address)": "54751a38",
			"getDataEntries()": "ffad0c8f",
			"getDataEntry(uint256)": "f75d8ada",
			"storeData(uint256,uint256,uint256,uint256,uint256,uint256,address)": "b8bd5f25"
		}
	},
	"abi": [
		{
			"anonymous": false,
			"inputs": [
				{
					"indexed": false,
					"internalType": "uint256",
					"name": "CO2_emissions",
					"type": "uint256"
				},
				{
					"indexed": false,
					"internalType": "uint256",
					"name": "methane_emissions",
					"type": "uint256"
				},
				{
					"indexed": false,
					"internalType": "uint256",
					"name": "NOx_emissions",
					"type": "uint256"
				},
				{
					"indexed": false,
					"internalType": "uint256",
					"name": "PM_emissions",
					"type": "uint256"
				},
				{
					"indexed": false,
					"internalType": "uint256",
					"name": "humidity",
					"type": "uint256"
				},
				{
					"indexed": false,
					"internalType": "uint256",
					"name": "temperature",
					"type": "uint256"
				},
				{
					"indexed": true,
					"internalType": "address",
					"name": "walletAddress",
					"type": "address"
				},
				{
					"indexed": false,
					"internalType": "uint256",
					"name": "timestamp",
					"type": "uint256"
				}
			],
			"name": "DataStored",
			"type": "event"
		},
		{
			"inputs": [
				{
					"internalType": "uint256",
					"name": "",
					"type": "uint256"
				}
			],
			"name": "dataEntries",
			"outputs": [
				{
					"internalType": "uint256",
					"name": "CO2_emissions",
					"type": "uint256"
				},
				{
					"internalType": "uint256",
					"name": "methane_emissions",
					"type": "uint256"
				},
				{
					"internalType": "uint256",
					"name": "NOx_emissions",
					"type": "uint256"
				},
				{
					"internalType": "uint256",
					"name": "PM_emissions",
					"type": "uint256"
				},
				{
					"internalType": "uint256",
					"name": "humidity",
					"type": "uint256"
				},
				{
					"internalType": "uint256",
					"name": "temperature",
					"type": "uint256"
				},
				{
					"internalType": "address",
					"name": "walletAddress",
					"type": "address"
				},
				{
					"internalType": "uint256",
					"name": "timestamp",
					"type": "uint256"
				}
			],
			"stateMutability": "view",
			"type": "function"
		},
		{
			"inputs": [
				{
					"internalType": "address",
					"name": "_walletAddress",
					"type": "address"
				}
			],
			"name": "getDataByWallet",
			"outputs": [
				{
					"internalType": "uint256[]",
					"name": "",
					"type": "uint256[]"
				}
			],
			"stateMutability": "view",
			"type": "function"
		},
		{
			"inputs": [],
			"name": "getDataEntries",
			"outputs": [
				{
					"components": [
						{
							"internalType": "uint256",
							"name": "CO2_emissions",
							"type": "uint256"
						},
						{
							"internalType": "uint256",
							"name": "methane_emissions",
							"type": "uint256"
						},
						{
							"internalType": "uint256",
							"name": "NOx_emissions",
							"type": "uint256"
						},
						{
							"internalType": "uint256",
							"name": "PM_emissions",
							"type": "uint256"
						},
						{
							"internalType": "uint256",
							"name": "humidity",
							"type": "uint256"
						},
						{
							"internalType": "uint256",
							"name": "temperature",
							"type": "uint256"
						},
						{
							"internalType": "address",
							"name": "walletAddress",
							"type": "address"
						},
						{
							"internalType": "uint256",
							"name": "timestamp",
							"type": "uint256"
						}
					],
					"internalType": "struct DataStorage.DataEntry[]",
					"name": "",
					"type": "tuple[]"
				}
			],
			"stateMutability": "view",
			"type": "function"
		},
		{
			"inputs": [
				{
					"internalType": "uint256",
					"name": "index",
					"type": "uint256"
				}
			],
			"name": "getDataEntry",
			"outputs": [
				{
					"internalType": "uint256",
					"name": "",
					"type": "uint256"
				},
				{
					"internalType": "uint256",
					"name": "",
					"type": "uint256"
				},
				{
					"internalType": "uint256",
					"name": "",
					"type": "uint256"
				},
				{
					"internalType": "uint256",
					"name": "",
					"type": "uint256"
				},
				{
					"internalType": "uint256",
					"name": "",
					"type": "uint256"
				},
				{
					"internalType": "uint256",
					"name": "",
					"type": "uint256"
				},
				{
					"internalType": "address",
					"name": "",
					"type": "address"
				},
				{
					"internalType": "uint256",
					"name": "",
					"type": "uint256"
				}
			],
			"stateMutability": "view",
			"type": "function"
		},
		{
			"inputs": [
				{
					"internalType": "uint256",
					"name": "_CO2_emissions",
					"type": "uint256"
				},
				{
					"internalType": "uint256",
					"name": "_methane_emissions",
					"type": "uint256"
				},
				{
					"internalType": "uint256",
					"name": "_NOx_emissions",
					"type": "uint256"
				},
				{
					"internalType": "uint256",
					"name": "_PM_emissions",
					"type": "uint256"
				},
				{
					"internalType": "uint256",
					"name": "_humidity",
					"type": "uint256"
				},
				{
					"internalType": "uint256",
					"name": "_temperature",
					"type": "uint256"
				},
				{
					"internalType": "address",
					"name": "_walletAddress",
					"type": "address"
				}
			],
			"name": "storeData",
			"outputs": [],
			"stateMutability": "nonpayable",
			"type": "function"
		}
	]
}