{
	"data": {
		"bytecode": {
			"linkReferences": {},
			"object": "6080604052674563918244f4000060045534801561001b575f80fd5b5060405161102f38038061102f833981810160405281019061003d919061032f565b737bcbae2c9ebf878fdbb4adb750f58a8fdf74803b5f73ffffffffffffffffffffffffffffffffffffffff168173ffffffffffffffffffffffffffffffffffffffff16036100c2575f6040517f1e4fbdf70000000000000000000000000000000000000000000000000000000081526004016100b9919061038e565b60405180910390fd5b6100d18161019a60201b60201c565b508260015f6101000a81548173ffffffffffffffffffffffffffffffffffffffff021916908373ffffffffffffffffffffffffffffffffffffffff1602179055508160025f6101000a81548173ffffffffffffffffffffffffffffffffffffffff021916908373ffffffffffffffffffffffffffffffffffffffff1602179055508060035f6101000a81548173ffffffffffffffffffffffffffffffffffffffff021916908373ffffffffffffffffffffffffffffffffffffffff1602179055505050506103a7565b5f805f9054906101000a900473ffffffffffffffffffffffffffffffffffffffff169050815f806101000a81548173ffffffffffffffffffffffffffffffffffffffff021916908373ffffffffffffffffffffffffffffffffffffffff1602179055508173ffffffffffffffffffffffffffffffffffffffff168173ffffffffffffffffffffffffffffffffffffffff167f8be0079c531659141344cd1fd0a4f28419497f9722a3daafe3b4186f6b6457e060405160405180910390a35050565b5f80fd5b5f73ffffffffffffffffffffffffffffffffffffffff82169050919050565b5f6102888261025f565b9050919050565b5f6102998261027e565b9050919050565b6102a98161028f565b81146102b3575f80fd5b50565b5f815190506102c4816102a0565b92915050565b5f6102d48261027e565b9050919050565b6102e4816102ca565b81146102ee575f80fd5b50565b5f815190506102ff816102db565b92915050565b61030e8161027e565b8114610318575f80fd5b50565b5f8151905061032981610305565b92915050565b5f805f606084860312156103465761034561025b565b5b5f610353868287016102b6565b9350506020610364868287016102f1565b92505060406103758682870161031b565b9150509250925092565b6103888161027e565b82525050565b5f6020820190506103a15f83018461037f565b92915050565b610c7b806103b45f395ff3fe608060405234801561000f575f80fd5b506004361061009c575f3560e01c80638da5cb5b116100645780638da5cb5b14610120578063a293a9961461013e578063e80641661461015a578063f2fde38b14610176578063f7b2a7be146101925761009c565b806302b32af5146100a057806315c2ba14146100be5780631a59f0f0146100da578063715018a6146100f85780638870455f14610102575b5f80fd5b6100a86101b0565b6040516100b5919061073f565b60405180910390f35b6100d860048036038101906100d3919061078f565b6101d5565b005b6100e26101e7565b6040516100ef91906107da565b60405180910390f35b61010061020c565b005b61010a61021f565b6040516101179190610813565b60405180910390f35b610128610244565b60405161013591906107da565b60405180910390f35b61015860048036038101906101539190610856565b61026b565b005b610174600480360381019061016f9190610881565b6102b6565b005b610190600480360381019061018b9190610856565b6104ec565b005b61019a610570565b6040516101a79190610919565b60405180910390f35b60025f9054906101000a900473ffffffffffffffffffffffffffffffffffffffff1681565b6101dd610576565b8060048190555050565b60035f9054906101000a900473ffffffffffffffffffffffffffffffffffffffff1681565b610214610576565b61021d5f6105fd565b565b60015f9054906101000a900473ffffffffffffffffffffffffffffffffffffffff1681565b5f805f9054906101000a900473ffffffffffffffffffffffffffffffffffffffff16905090565b610273610576565b8060035f6101000a81548173ffffffffffffffffffffffffffffffffffffffff021916908373ffffffffffffffffffffffffffffffffffffffff16021790555050565b60015f9054906101000a900473ffffffffffffffffffffffffffffffffffffffff1673ffffffffffffffffffffffffffffffffffffffff1663b8bd5f25878787878787336040518863ffffffff1660e01b815260040161031c9796959493929190610932565b5f604051808303815f87803b158015610333575f80fd5b505af1158015610345573d5f803e3d5ffd5b5050505060025f9054906101000a900473ffffffffffffffffffffffffffffffffffffffff1673ffffffffffffffffffffffffffffffffffffffff166323b872dd61038e610244565b60035f9054906101000a900473ffffffffffffffffffffffffffffffffffffffff166004546040518463ffffffff1660e01b81526004016103d19392919061099f565b6020604051808303815f875af11580156103ed573d5f803e3d5ffd5b505050506040513d601f19601f820116820180604052508101906104119190610a09565b610450576040517f08c379a000000000000000000000000000000000000000000000000000000000815260040161044790610a8e565b60405180910390fd5b3373ffffffffffffffffffffffffffffffffffffffff167f21b08e11fa8bedc1d4b1ada03baa15acadad91e80606e85d8ed2f069a4b62631878787878787426004548f8f8f8f8f8f33426040516020016104b1989796959493929190610b11565b604051602081830303815290604052805190602001206040516104dc99989796959493929190610bba565b60405180910390a2505050505050565b6104f4610576565b5f73ffffffffffffffffffffffffffffffffffffffff168173ffffffffffffffffffffffffffffffffffffffff1603610564575f6040517f1e4fbdf700000000000000000000000000000000000000000000000000000000815260040161055b91906107da565b60405180910390fd5b61056d816105fd565b50565b60045481565b61057e6106be565b73ffffffffffffffffffffffffffffffffffffffff1661059c610244565b73ffffffffffffffffffffffffffffffffffffffff16146105fb576105bf6106be565b6040517f118cdaa70000000000000000000000000000000000000000000000000000000081526004016105f291906107da565b60405180910390fd5b565b5f805f9054906101000a900473ffffffffffffffffffffffffffffffffffffffff169050815f806101000a81548173ffffffffffffffffffffffffffffffffffffffff021916908373ffffffffffffffffffffffffffffffffffffffff1602179055508173ffffffffffffffffffffffffffffffffffffffff168173ffffffffffffffffffffffffffffffffffffffff167f8be0079c531659141344cd1fd0a4f28419497f9722a3daafe3b4186f6b6457e060405160405180910390a35050565b5f33905090565b5f73ffffffffffffffffffffffffffffffffffffffff82169050919050565b5f819050919050565b5f6107076107026106fd846106c5565b6106e4565b6106c5565b9050919050565b5f610718826106ed565b9050919050565b5f6107298261070e565b9050919050565b6107398161071f565b82525050565b5f6020820190506107525f830184610730565b92915050565b5f80fd5b5f819050919050565b61076e8161075c565b8114610778575f80fd5b50565b5f8135905061078981610765565b92915050565b5f602082840312156107a4576107a3610758565b5b5f6107b18482850161077b565b91505092915050565b5f6107c4826106c5565b9050919050565b6107d4816107ba565b82525050565b5f6020820190506107ed5f8301846107cb565b92915050565b5f6107fd8261070e565b9050919050565b61080d816107f3565b82525050565b5f6020820190506108265f830184610804565b92915050565b610835816107ba565b811461083f575f80fd5b50565b5f813590506108508161082c565b92915050565b5f6020828403121561086b5761086a610758565b5b5f61087884828501610842565b91505092915050565b5f805f805f8060c0878903121561089b5761089a610758565b5b5f6108a889828a0161077b565b96505060206108b989828a0161077b565b95505060406108ca89828a0161077b565b94505060606108db89828a0161077b565b93505060806108ec89828a0161077b565b92505060a06108fd89828a0161077b565b9150509295509295509295565b6109138161075c565b82525050565b5f60208201905061092c5f83018461090a565b92915050565b5f60e0820190506109455f83018a61090a565b610952602083018961090a565b61095f604083018861090a565b61096c606083018761090a565b610979608083018661090a565b61098660a083018561090a565b61099360c08301846107cb565b98975050505050505050565b5f6060820190506109b25f8301866107cb565b6109bf60208301856107cb565b6109cc604083018461090a565b949350505050565b5f8115159050919050565b6109e8816109d4565b81146109f2575f80fd5b50565b5f81519050610a03816109df565b92915050565b5f60208284031215610a1e57610a1d610758565b5b5f610a2b848285016109f5565b91505092915050565b5f82825260208201905092915050565b7f546f6b656e207472616e73666572206661696c656400000000000000000000005f82015250565b5f610a78601583610a34565b9150610a8382610a44565b602082019050919050565b5f6020820190508181035f830152610aa581610a6c565b9050919050565b5f819050919050565b610ac6610ac18261075c565b610aac565b82525050565b5f8160601b9050919050565b5f610ae282610acc565b9050919050565b5f610af382610ad8565b9050919050565b610b0b610b06826107ba565b610ae9565b82525050565b5f610b1c828b610ab5565b602082019150610b2c828a610ab5565b602082019150610b3c8289610ab5565b602082019150610b4c8288610ab5565b602082019150610b5c8287610ab5565b602082019150610b6c8286610ab5565b602082019150610b7c8285610afa565b601482019150610b8c8284610ab5565b6020820191508190509998505050505050505050565b5f819050919050565b610bb481610ba2565b82525050565b5f61012082019050610bce5f83018c61090a565b610bdb602083018b61090a565b610be8604083018a61090a565b610bf5606083018961090a565b610c02608083018861090a565b610c0f60a083018761090a565b610c1c60c083018661090a565b610c2960e083018561090a565b610c37610100830184610bab565b9a995050505050505050505056fea264697066735822122004944db4fbfbcdbf6a2b4b0220dc9354e733f62457c5e6b0ae60663abe6fee3364736f6c634300081a0033",
			"opcodes": "PUSH1 0x80 PUSH1 0x40 MSTORE PUSH8 0x4563918244F40000 PUSH1 0x4 SSTORE CALLVALUE DUP1 ISZERO PUSH2 0x1B JUMPI PUSH0 DUP1 REVERT JUMPDEST POP PUSH1 0x40 MLOAD PUSH2 0x102F CODESIZE SUB DUP1 PUSH2 0x102F DUP4 CODECOPY DUP2 DUP2 ADD PUSH1 0x40 MSTORE DUP2 ADD SWAP1 PUSH2 0x3D SWAP2 SWAP1 PUSH2 0x32F JUMP JUMPDEST PUSH20 0x7BCBAE2C9EBF878FDBB4ADB750F58A8FDF74803B PUSH0 PUSH20 0xFFFFFFFFFFFFFFFFFFFFFFFFFFFFFFFFFFFFFFFF AND DUP2 PUSH20 0xFFFFFFFFFFFFFFFFFFFFFFFFFFFFFFFFFFFFFFFF AND SUB PUSH2 0xC2 JUMPI PUSH0 PUSH1 0x40 MLOAD PUSH32 0x1E4FBDF700000000000000000000000000000000000000000000000000000000 DUP2 MSTORE PUSH1 0x4 ADD PUSH2 0xB9 SWAP2 SWAP1 PUSH2 0x38E JUMP JUMPDEST PUSH1 0x40 MLOAD DUP1 SWAP2 SUB SWAP1 REVERT JUMPDEST PUSH2 0xD1 DUP2 PUSH2 0x19A PUSH1 0x20 SHL PUSH1 0x20 SHR JUMP JUMPDEST POP DUP3 PUSH1 0x1 PUSH0 PUSH2 0x100 EXP DUP2 SLOAD DUP2 PUSH20 0xFFFFFFFFFFFFFFFFFFFFFFFFFFFFFFFFFFFFFFFF MUL NOT AND SWAP1 DUP4 PUSH20 0xFFFFFFFFFFFFFFFFFFFFFFFFFFFFFFFFFFFFFFFF AND MUL OR SWAP1 SSTORE POP DUP2 PUSH1 0x2 PUSH0 PUSH2 0x100 EXP DUP2 SLOAD DUP2 PUSH20 0xFFFFFFFFFFFFFFFFFFFFFFFFFFFFFFFFFFFFFFFF MUL NOT AND SWAP1 DUP4 PUSH20 0xFFFFFFFFFFFFFFFFFFFFFFFFFFFFFFFFFFFFFFFF AND MUL OR SWAP1 SSTORE POP DUP1 PUSH1 0x3 PUSH0 PUSH2 0x100 EXP DUP2 SLOAD DUP2 PUSH20 0xFFFFFFFFFFFFFFFFFFFFFFFFFFFFFFFFFFFFFFFF MUL NOT AND SWAP1 DUP4 PUSH20 0xFFFFFFFFFFFFFFFFFFFFFFFFFFFFFFFFFFFFFFFF AND MUL OR SWAP1 SSTORE POP POP POP POP PUSH2 0x3A7 JUMP JUMPDEST PUSH0 DUP1 PUSH0 SWAP1 SLOAD SWAP1 PUSH2 0x100 EXP SWAP1 DIV PUSH20 0xFFFFFFFFFFFFFFFFFFFFFFFFFFFFFFFFFFFFFFFF AND SWAP1 POP DUP2 PUSH0 DUP1 PUSH2 0x100 EXP DUP2 SLOAD DUP2 PUSH20 0xFFFFFFFFFFFFFFFFFFFFFFFFFFFFFFFFFFFFFFFF MUL NOT AND SWAP1 DUP4 PUSH20 0xFFFFFFFFFFFFFFFFFFFFFFFFFFFFFFFFFFFFFFFF AND MUL OR SWAP1 SSTORE POP DUP2 PUSH20 0xFFFFFFFFFFFFFFFFFFFFFFFFFFFFFFFFFFFFFFFF AND DUP2 PUSH20 0xFFFFFFFFFFFFFFFFFFFFFFFFFFFFFFFFFFFFFFFF AND PUSH32 0x8BE0079C531659141344CD1FD0A4F28419497F9722A3DAAFE3B4186F6B6457E0 PUSH1 0x40 MLOAD PUSH1 0x40 MLOAD DUP1 SWAP2 SUB SWAP1 LOG3 POP POP JUMP JUMPDEST PUSH0 DUP1 REVERT JUMPDEST PUSH0 PUSH20 0xFFFFFFFFFFFFFFFFFFFFFFFFFFFFFFFFFFFFFFFF DUP3 AND SWAP1 POP SWAP2 SWAP1 POP JUMP JUMPDEST PUSH0 PUSH2 0x288 DUP3 PUSH2 0x25F JUMP JUMPDEST SWAP1 POP SWAP2 SWAP1 POP JUMP JUMPDEST PUSH0 PUSH2 0x299 DUP3 PUSH2 0x27E JUMP JUMPDEST SWAP1 POP SWAP2 SWAP1 POP JUMP JUMPDEST PUSH2 0x2A9 DUP2 PUSH2 0x28F JUMP JUMPDEST DUP2 EQ PUSH2 0x2B3 JUMPI PUSH0 DUP1 REVERT JUMPDEST POP JUMP JUMPDEST PUSH0 DUP2 MLOAD SWAP1 POP PUSH2 0x2C4 DUP2 PUSH2 0x2A0 JUMP JUMPDEST SWAP3 SWAP2 POP POP JUMP JUMPDEST PUSH0 PUSH2 0x2D4 DUP3 PUSH2 0x27E JUMP JUMPDEST SWAP1 POP SWAP2 SWAP1 POP JUMP JUMPDEST PUSH2 0x2E4 DUP2 PUSH2 0x2CA JUMP JUMPDEST DUP2 EQ PUSH2 0x2EE JUMPI PUSH0 DUP1 REVERT JUMPDEST POP JUMP JUMPDEST PUSH0 DUP2 MLOAD SWAP1 POP PUSH2 0x2FF DUP2 PUSH2 0x2DB JUMP JUMPDEST SWAP3 SWAP2 POP POP JUMP JUMPDEST PUSH2 0x30E DUP2 PUSH2 0x27E JUMP JUMPDEST DUP2 EQ PUSH2 0x318 JUMPI PUSH0 DUP1 REVERT JUMPDEST POP JUMP JUMPDEST PUSH0 DUP2 MLOAD SWAP1 POP PUSH2 0x329 DUP2 PUSH2 0x305 JUMP JUMPDEST SWAP3 SWAP2 POP POP JUMP JUMPDEST PUSH0 DUP1 PUSH0 PUSH1 0x60 DUP5 DUP7 SUB SLT ISZERO PUSH2 0x346 JUMPI PUSH2 0x345 PUSH2 0x25B JUMP JUMPDEST JUMPDEST PUSH0 PUSH2 0x353 DUP7 DUP3 DUP8 ADD PUSH2 0x2B6 JUMP JUMPDEST SWAP4 POP POP PUSH1 0x20 PUSH2 0x364 DUP7 DUP3 DUP8 ADD PUSH2 0x2F1 JUMP JUMPDEST SWAP3 POP POP PUSH1 0x40 PUSH2 0x375 DUP7 DUP3 DUP8 ADD PUSH2 0x31B JUMP JUMPDEST SWAP2 POP POP SWAP3 POP SWAP3 POP SWAP3 JUMP JUMPDEST PUSH2 0x388 DUP2 PUSH2 0x27E JUMP JUMPDEST DUP3 MSTORE POP POP JUMP JUMPDEST PUSH0 PUSH1 0x20 DUP3 ADD SWAP1 POP PUSH2 0x3A1 PUSH0 DUP4 ADD DUP5 PUSH2 0x37F JUMP JUMPDEST SWAP3 SWAP2 POP POP JUMP JUMPDEST PUSH2 0xC7B DUP1 PUSH2 0x3B4 PUSH0 CODECOPY PUSH0 RETURN INVALID PUSH1 0x80 PUSH1 0x40 MSTORE CALLVALUE DUP1 ISZERO PUSH2 0xF JUMPI PUSH0 DUP1 REVERT JUMPDEST POP PUSH1 0x4 CALLDATASIZE LT PUSH2 0x9C JUMPI PUSH0 CALLDATALOAD PUSH1 0xE0 SHR DUP1 PUSH4 0x8DA5CB5B GT PUSH2 0x64 JUMPI DUP1 PUSH4 0x8DA5CB5B EQ PUSH2 0x120 JUMPI DUP1 PUSH4 0xA293A996 EQ PUSH2 0x13E JUMPI DUP1 PUSH4 0xE8064166 EQ PUSH2 0x15A JUMPI DUP1 PUSH4 0xF2FDE38B EQ PUSH2 0x176 JUMPI DUP1 PUSH4 0xF7B2A7BE EQ PUSH2 0x192 JUMPI PUSH2 0x9C JUMP JUMPDEST DUP1 PUSH4 0x2B32AF5 EQ PUSH2 0xA0 JUMPI DUP1 PUSH4 0x15C2BA14 EQ PUSH2 0xBE JUMPI DUP1 PUSH4 0x1A59F0F0 EQ PUSH2 0xDA JUMPI DUP1 PUSH4 0x715018A6 EQ PUSH2 0xF8 JUMPI DUP1 PUSH4 0x8870455F EQ PUSH2 0x102 JUMPI JUMPDEST PUSH0 DUP1 REVERT JUMPDEST PUSH2 0xA8 PUSH2 0x1B0 JUMP JUMPDEST PUSH1 0x40 MLOAD PUSH2 0xB5 SWAP2 SWAP1 PUSH2 0x73F JUMP JUMPDEST PUSH1 0x40 MLOAD DUP1 SWAP2 SUB SWAP1 RETURN JUMPDEST PUSH2 0xD8 PUSH1 0x4 DUP1 CALLDATASIZE SUB DUP2 ADD SWAP1 PUSH2 0xD3 SWAP2 SWAP1 PUSH2 0x78F JUMP JUMPDEST PUSH2 0x1D5 JUMP JUMPDEST STOP JUMPDEST PUSH2 0xE2 PUSH2 0x1E7 JUMP JUMPDEST PUSH1 0x40 MLOAD PUSH2 0xEF SWAP2 SWAP1 PUSH2 0x7DA JUMP JUMPDEST PUSH1 0x40 MLOAD DUP1 SWAP2 SUB SWAP1 RETURN JUMPDEST PUSH2 0x100 PUSH2 0x20C JUMP JUMPDEST STOP JUMPDEST PUSH2 0x10A PUSH2 0x21F JUMP JUMPDEST PUSH1 0x40 MLOAD PUSH2 0x117 SWAP2 SWAP1 PUSH2 0x813 JUMP JUMPDEST PUSH1 0x40 MLOAD DUP1 SWAP2 SUB SWAP1 RETURN JUMPDEST PUSH2 0x128 PUSH2 0x244 JUMP JUMPDEST PUSH1 0x40 MLOAD PUSH2 0x135 SWAP2 SWAP1 PUSH2 0x7DA JUMP JUMPDEST PUSH1 0x40 MLOAD DUP1 SWAP2 SUB SWAP1 RETURN JUMPDEST PUSH2 0x158 PUSH1 0x4 DUP1 CALLDATASIZE SUB DUP2 ADD SWAP1 PUSH2 0x153 SWAP2 SWAP1 PUSH2 0x856 JUMP JUMPDEST PUSH2 0x26B JUMP JUMPDEST STOP JUMPDEST PUSH2 0x174 PUSH1 0x4 DUP1 CALLDATASIZE SUB DUP2 ADD SWAP1 PUSH2 0x16F SWAP2 SWAP1 PUSH2 0x881 JUMP JUMPDEST PUSH2 0x2B6 JUMP JUMPDEST STOP JUMPDEST PUSH2 0x190 PUSH1 0x4 DUP1 CALLDATASIZE SUB DUP2 ADD SWAP1 PUSH2 0x18B SWAP2 SWAP1 PUSH2 0x856 JUMP JUMPDEST PUSH2 0x4EC JUMP JUMPDEST STOP JUMPDEST PUSH2 0x19A PUSH2 0x570 JUMP JUMPDEST PUSH1 0x40 MLOAD PUSH2 0x1A7 SWAP2 SWAP1 PUSH2 0x919 JUMP JUMPDEST PUSH1 0x40 MLOAD DUP1 SWAP2 SUB SWAP1 RETURN JUMPDEST PUSH1 0x2 PUSH0 SWAP1 SLOAD SWAP1 PUSH2 0x100 EXP SWAP1 DIV PUSH20 0xFFFFFFFFFFFFFFFFFFFFFFFFFFFFFFFFFFFFFFFF AND DUP2 JUMP JUMPDEST PUSH2 0x1DD PUSH2 0x576 JUMP JUMPDEST DUP1 PUSH1 0x4 DUP2 SWAP1 SSTORE POP POP JUMP JUMPDEST PUSH1 0x3 PUSH0 SWAP1 SLOAD SWAP1 PUSH2 0x100 EXP SWAP1 DIV PUSH20 0xFFFFFFFFFFFFFFFFFFFFFFFFFFFFFFFFFFFFFFFF AND DUP2 JUMP JUMPDEST PUSH2 0x214 PUSH2 0x576 JUMP JUMPDEST PUSH2 0x21D PUSH0 PUSH2 0x5FD JUMP JUMPDEST JUMP JUMPDEST PUSH1 0x1 PUSH0 SWAP1 SLOAD SWAP1 PUSH2 0x100 EXP SWAP1 DIV PUSH20 0xFFFFFFFFFFFFFFFFFFFFFFFFFFFFFFFFFFFFFFFF AND DUP2 JUMP JUMPDEST PUSH0 DUP1 PUSH0 SWAP1 SLOAD SWAP1 PUSH2 0x100 EXP SWAP1 DIV PUSH20 0xFFFFFFFFFFFFFFFFFFFFFFFFFFFFFFFFFFFFFFFF AND SWAP1 POP SWAP1 JUMP JUMPDEST PUSH2 0x273 PUSH2 0x576 JUMP JUMPDEST DUP1 PUSH1 0x3 PUSH0 PUSH2 0x100 EXP DUP2 SLOAD DUP2 PUSH20 0xFFFFFFFFFFFFFFFFFFFFFFFFFFFFFFFFFFFFFFFF MUL NOT AND SWAP1 DUP4 PUSH20 0xFFFFFFFFFFFFFFFFFFFFFFFFFFFFFFFFFFFFFFFF AND MUL OR SWAP1 SSTORE POP POP JUMP JUMPDEST PUSH1 0x1 PUSH0 SWAP1 SLOAD SWAP1 PUSH2 0x100 EXP SWAP1 DIV PUSH20 0xFFFFFFFFFFFFFFFFFFFFFFFFFFFFFFFFFFFFFFFF AND PUSH20 0xFFFFFFFFFFFFFFFFFFFFFFFFFFFFFFFFFFFFFFFF AND PUSH4 0xB8BD5F25 DUP8 DUP8 DUP8 DUP8 DUP8 DUP8 CALLER PUSH1 0x40 MLOAD DUP9 PUSH4 0xFFFFFFFF AND PUSH1 0xE0 SHL DUP2 MSTORE PUSH1 0x4 ADD PUSH2 0x31C SWAP8 SWAP7 SWAP6 SWAP5 SWAP4 SWAP3 SWAP2 SWAP1 PUSH2 0x932 JUMP JUMPDEST PUSH0 PUSH1 0x40 MLOAD DUP1 DUP4 SUB DUP2 PUSH0 DUP8 DUP1 EXTCODESIZE ISZERO DUP1 ISZERO PUSH2 0x333 JUMPI PUSH0 DUP1 REVERT JUMPDEST POP GAS CALL ISZERO DUP1 ISZERO PUSH2 0x345 JUMPI RETURNDATASIZE PUSH0 DUP1 RETURNDATACOPY RETURNDATASIZE PUSH0 REVERT JUMPDEST POP POP POP POP PUSH1 0x2 PUSH0 SWAP1 SLOAD SWAP1 PUSH2 0x100 EXP SWAP1 DIV PUSH20 0xFFFFFFFFFFFFFFFFFFFFFFFFFFFFFFFFFFFFFFFF AND PUSH20 0xFFFFFFFFFFFFFFFFFFFFFFFFFFFFFFFFFFFFFFFF AND PUSH4 0x23B872DD PUSH2 0x38E PUSH2 0x244 JUMP JUMPDEST PUSH1 0x3 PUSH0 SWAP1 SLOAD SWAP1 PUSH2 0x100 EXP SWAP1 DIV PUSH20 0xFFFFFFFFFFFFFFFFFFFFFFFFFFFFFFFFFFFFFFFF AND PUSH1 0x4 SLOAD PUSH1 0x40 MLOAD DUP5 PUSH4 0xFFFFFFFF AND PUSH1 0xE0 SHL DUP2 MSTORE PUSH1 0x4 ADD PUSH2 0x3D1 SWAP4 SWAP3 SWAP2 SWAP1 PUSH2 0x99F JUMP JUMPDEST PUSH1 0x20 PUSH1 0x40 MLOAD DUP1 DUP4 SUB DUP2 PUSH0 DUP8 GAS CALL ISZERO DUP1 ISZERO PUSH2 0x3ED JUMPI RETURNDATASIZE PUSH0 DUP1 RETURNDATACOPY RETURNDATASIZE PUSH0 REVERT JUMPDEST POP POP POP POP PUSH1 0x40 MLOAD RETURNDATASIZE PUSH1 0x1F NOT PUSH1 0x1F DUP3 ADD AND DUP3 ADD DUP1 PUSH1 0x40 MSTORE POP DUP2 ADD SWAP1 PUSH2 0x411 SWAP2 SWAP1 PUSH2 0xA09 JUMP JUMPDEST PUSH2 0x450 JUMPI PUSH1 0x40 MLOAD PUSH32 0x8C379A000000000000000000000000000000000000000000000000000000000 DUP2 MSTORE PUSH1 0x4 ADD PUSH2 0x447 SWAP1 PUSH2 0xA8E JUMP JUMPDEST PUSH1 0x40 MLOAD DUP1 SWAP2 SUB SWAP1 REVERT JUMPDEST CALLER PUSH20 0xFFFFFFFFFFFFFFFFFFFFFFFFFFFFFFFFFFFFFFFF AND PUSH32 0x21B08E11FA8BEDC1D4B1ADA03BAA15ACADAD91E80606E85D8ED2F069A4B62631 DUP8 DUP8 DUP8 DUP8 DUP8 DUP8 TIMESTAMP PUSH1 0x4 SLOAD DUP16 DUP16 DUP16 DUP16 DUP16 DUP16 CALLER TIMESTAMP PUSH1 0x40 MLOAD PUSH1 0x20 ADD PUSH2 0x4B1 SWAP9 SWAP8 SWAP7 SWAP6 SWAP5 SWAP4 SWAP3 SWAP2 SWAP1 PUSH2 0xB11 JUMP JUMPDEST PUSH1 0x40 MLOAD PUSH1 0x20 DUP2 DUP4 SUB SUB DUP2 MSTORE SWAP1 PUSH1 0x40 MSTORE DUP1 MLOAD SWAP1 PUSH1 0x20 ADD KECCAK256 PUSH1 0x40 MLOAD PUSH2 0x4DC SWAP10 SWAP9 SWAP8 SWAP7 SWAP6 SWAP5 SWAP4 SWAP3 SWAP2 SWAP1 PUSH2 0xBBA JUMP JUMPDEST PUSH1 0x40 MLOAD DUP1 SWAP2 SUB SWAP1 LOG2 POP POP POP POP POP POP JUMP JUMPDEST PUSH2 0x4F4 PUSH2 0x576 JUMP JUMPDEST PUSH0 PUSH20 0xFFFFFFFFFFFFFFFFFFFFFFFFFFFFFFFFFFFFFFFF AND DUP2 PUSH20 0xFFFFFFFFFFFFFFFFFFFFFFFFFFFFFFFFFFFFFFFF AND SUB PUSH2 0x564 JUMPI PUSH0 PUSH1 0x40 MLOAD PUSH32 0x1E4FBDF700000000000000000000000000000000000000000000000000000000 DUP2 MSTORE PUSH1 0x4 ADD PUSH2 0x55B SWAP2 SWAP1 PUSH2 0x7DA JUMP JUMPDEST PUSH1 0x40 MLOAD DUP1 SWAP2 SUB SWAP1 REVERT JUMPDEST PUSH2 0x56D DUP2 PUSH2 0x5FD JUMP JUMPDEST POP JUMP JUMPDEST PUSH1 0x4 SLOAD DUP2 JUMP JUMPDEST PUSH2 0x57E PUSH2 0x6BE JUMP JUMPDEST PUSH20 0xFFFFFFFFFFFFFFFFFFFFFFFFFFFFFFFFFFFFFFFF AND PUSH2 0x59C PUSH2 0x244 JUMP JUMPDEST PUSH20 0xFFFFFFFFFFFFFFFFFFFFFFFFFFFFFFFFFFFFFFFF AND EQ PUSH2 0x5FB JUMPI PUSH2 0x5BF PUSH2 0x6BE JUMP JUMPDEST PUSH1 0x40 MLOAD PUSH32 0x118CDAA700000000000000000000000000000000000000000000000000000000 DUP2 MSTORE PUSH1 0x4 ADD PUSH2 0x5F2 SWAP2 SWAP1 PUSH2 0x7DA JUMP JUMPDEST PUSH1 0x40 MLOAD DUP1 SWAP2 SUB SWAP1 REVERT JUMPDEST JUMP JUMPDEST PUSH0 DUP1 PUSH0 SWAP1 SLOAD SWAP1 PUSH2 0x100 EXP SWAP1 DIV PUSH20 0xFFFFFFFFFFFFFFFFFFFFFFFFFFFFFFFFFFFFFFFF AND SWAP1 POP DUP2 PUSH0 DUP1 PUSH2 0x100 EXP DUP2 SLOAD DUP2 PUSH20 0xFFFFFFFFFFFFFFFFFFFFFFFFFFFFFFFFFFFFFFFF MUL NOT AND SWAP1 DUP4 PUSH20 0xFFFFFFFFFFFFFFFFFFFFFFFFFFFFFFFFFFFFFFFF AND MUL OR SWAP1 SSTORE POP DUP2 PUSH20 0xFFFFFFFFFFFFFFFFFFFFFFFFFFFFFFFFFFFFFFFF AND DUP2 PUSH20 0xFFFFFFFFFFFFFFFFFFFFFFFFFFFFFFFFFFFFFFFF AND PUSH32 0x8BE0079C531659141344CD1FD0A4F28419497F9722A3DAAFE3B4186F6B6457E0 PUSH1 0x40 MLOAD PUSH1 0x40 MLOAD DUP1 SWAP2 SUB SWAP1 LOG3 POP POP JUMP JUMPDEST PUSH0 CALLER SWAP1 POP SWAP1 JUMP JUMPDEST PUSH0 PUSH20 0xFFFFFFFFFFFFFFFFFFFFFFFFFFFFFFFFFFFFFFFF DUP3 AND SWAP1 POP SWAP2 SWAP1 POP JUMP JUMPDEST PUSH0 DUP2 SWAP1 POP SWAP2 SWAP1 POP JUMP JUMPDEST PUSH0 PUSH2 0x707 PUSH2 0x702 PUSH2 0x6FD DUP5 PUSH2 0x6C5 JUMP JUMPDEST PUSH2 0x6E4 JUMP JUMPDEST PUSH2 0x6C5 JUMP JUMPDEST SWAP1 POP SWAP2 SWAP1 POP JUMP JUMPDEST PUSH0 PUSH2 0x718 DUP3 PUSH2 0x6ED JUMP JUMPDEST SWAP1 POP SWAP2 SWAP1 POP JUMP JUMPDEST PUSH0 PUSH2 0x729 DUP3 PUSH2 0x70E JUMP JUMPDEST SWAP1 POP SWAP2 SWAP1 POP JUMP JUMPDEST PUSH2 0x739 DUP2 PUSH2 0x71F JUMP JUMPDEST DUP3 MSTORE POP POP JUMP JUMPDEST PUSH0 PUSH1 0x20 DUP3 ADD SWAP1 POP PUSH2 0x752 PUSH0 DUP4 ADD DUP5 PUSH2 0x730 JUMP JUMPDEST SWAP3 SWAP2 POP POP JUMP JUMPDEST PUSH0 DUP1 REVERT JUMPDEST PUSH0 DUP2 SWAP1 POP SWAP2 SWAP1 POP JUMP JUMPDEST PUSH2 0x76E DUP2 PUSH2 0x75C JUMP JUMPDEST DUP2 EQ PUSH2 0x778 JUMPI PUSH0 DUP1 REVERT JUMPDEST POP JUMP JUMPDEST PUSH0 DUP2 CALLDATALOAD SWAP1 POP PUSH2 0x789 DUP2 PUSH2 0x765 JUMP JUMPDEST SWAP3 SWAP2 POP POP JUMP JUMPDEST PUSH0 PUSH1 0x20 DUP3 DUP5 SUB SLT ISZERO PUSH2 0x7A4 JUMPI PUSH2 0x7A3 PUSH2 0x758 JUMP JUMPDEST JUMPDEST PUSH0 PUSH2 0x7B1 DUP5 DUP3 DUP6 ADD PUSH2 0x77B JUMP JUMPDEST SWAP2 POP POP SWAP3 SWAP2 POP POP JUMP JUMPDEST PUSH0 PUSH2 0x7C4 DUP3 PUSH2 0x6C5 JUMP JUMPDEST SWAP1 POP SWAP2 SWAP1 POP JUMP JUMPDEST PUSH2 0x7D4 DUP2 PUSH2 0x7BA JUMP JUMPDEST DUP3 MSTORE POP POP JUMP JUMPDEST PUSH0 PUSH1 0x20 DUP3 ADD SWAP1 POP PUSH2 0x7ED PUSH0 DUP4 ADD DUP5 PUSH2 0x7CB JUMP JUMPDEST SWAP3 SWAP2 POP POP JUMP JUMPDEST PUSH0 PUSH2 0x7FD DUP3 PUSH2 0x70E JUMP JUMPDEST SWAP1 POP SWAP2 SWAP1 POP JUMP JUMPDEST PUSH2 0x80D DUP2 PUSH2 0x7F3 JUMP JUMPDEST DUP3 MSTORE POP POP JUMP JUMPDEST PUSH0 PUSH1 0x20 DUP3 ADD SWAP1 POP PUSH2 0x826 PUSH0 DUP4 ADD DUP5 PUSH2 0x804 JUMP JUMPDEST SWAP3 SWAP2 POP POP JUMP JUMPDEST PUSH2 0x835 DUP2 PUSH2 0x7BA JUMP JUMPDEST DUP2 EQ PUSH2 0x83F JUMPI PUSH0 DUP1 REVERT JUMPDEST POP JUMP JUMPDEST PUSH0 DUP2 CALLDATALOAD SWAP1 POP PUSH2 0x850 DUP2 PUSH2 0x82C JUMP JUMPDEST SWAP3 SWAP2 POP POP JUMP JUMPDEST PUSH0 PUSH1 0x20 DUP3 DUP5 SUB SLT ISZERO PUSH2 0x86B JUMPI PUSH2 0x86A PUSH2 0x758 JUMP JUMPDEST JUMPDEST PUSH0 PUSH2 0x878 DUP5 DUP3 DUP6 ADD PUSH2 0x842 JUMP JUMPDEST SWAP2 POP POP SWAP3 SWAP2 POP POP JUMP JUMPDEST PUSH0 DUP1 PUSH0 DUP1 PUSH0 DUP1 PUSH1 0xC0 DUP8 DUP10 SUB SLT ISZERO PUSH2 0x89B JUMPI PUSH2 0x89A PUSH2 0x758 JUMP JUMPDEST JUMPDEST PUSH0 PUSH2 0x8A8 DUP10 DUP3 DUP11 ADD PUSH2 0x77B JUMP JUMPDEST SWAP7 POP POP PUSH1 0x20 PUSH2 0x8B9 DUP10 DUP3 DUP11 ADD PUSH2 0x77B JUMP JUMPDEST SWAP6 POP POP PUSH1 0x40 PUSH2 0x8CA DUP10 DUP3 DUP11 ADD PUSH2 0x77B JUMP JUMPDEST SWAP5 POP POP PUSH1 0x60 PUSH2 0x8DB DUP10 DUP3 DUP11 ADD PUSH2 0x77B JUMP JUMPDEST SWAP4 POP POP PUSH1 0x80 PUSH2 0x8EC DUP10 DUP3 DUP11 ADD PUSH2 0x77B JUMP JUMPDEST SWAP3 POP POP PUSH1 0xA0 PUSH2 0x8FD DUP10 DUP3 DUP11 ADD PUSH2 0x77B JUMP JUMPDEST SWAP2 POP POP SWAP3 SWAP6 POP SWAP3 SWAP6 POP SWAP3 SWAP6 JUMP JUMPDEST PUSH2 0x913 DUP2 PUSH2 0x75C JUMP JUMPDEST DUP3 MSTORE POP POP JUMP JUMPDEST PUSH0 PUSH1 0x20 DUP3 ADD SWAP1 POP PUSH2 0x92C PUSH0 DUP4 ADD DUP5 PUSH2 0x90A JUMP JUMPDEST SWAP3 SWAP2 POP POP JUMP JUMPDEST PUSH0 PUSH1 0xE0 DUP3 ADD SWAP1 POP PUSH2 0x945 PUSH0 DUP4 ADD DUP11 PUSH2 0x90A JUMP JUMPDEST PUSH2 0x952 PUSH1 0x20 DUP4 ADD DUP10 PUSH2 0x90A JUMP JUMPDEST PUSH2 0x95F PUSH1 0x40 DUP4 ADD DUP9 PUSH2 0x90A JUMP JUMPDEST PUSH2 0x96C PUSH1 0x60 DUP4 ADD DUP8 PUSH2 0x90A JUMP JUMPDEST PUSH2 0x979 PUSH1 0x80 DUP4 ADD DUP7 PUSH2 0x90A JUMP JUMPDEST PUSH2 0x986 PUSH1 0xA0 DUP4 ADD DUP6 PUSH2 0x90A JUMP JUMPDEST PUSH2 0x993 PUSH1 0xC0 DUP4 ADD DUP5 PUSH2 0x7CB JUMP JUMPDEST SWAP9 SWAP8 POP POP POP POP POP POP POP POP JUMP JUMPDEST PUSH0 PUSH1 0x60 DUP3 ADD SWAP1 POP PUSH2 0x9B2 PUSH0 DUP4 ADD DUP7 PUSH2 0x7CB JUMP JUMPDEST PUSH2 0x9BF PUSH1 0x20 DUP4 ADD DUP6 PUSH2 0x7CB JUMP JUMPDEST PUSH2 0x9CC PUSH1 0x40 DUP4 ADD DUP5 PUSH2 0x90A JUMP JUMPDEST SWAP5 SWAP4 POP POP POP POP JUMP JUMPDEST PUSH0 DUP2 ISZERO ISZERO SWAP1 POP SWAP2 SWAP1 POP JUMP JUMPDEST PUSH2 0x9E8 DUP2 PUSH2 0x9D4 JUMP JUMPDEST DUP2 EQ PUSH2 0x9F2 JUMPI PUSH0 DUP1 REVERT JUMPDEST POP JUMP JUMPDEST PUSH0 DUP2 MLOAD SWAP1 POP PUSH2 0xA03 DUP2 PUSH2 0x9DF JUMP JUMPDEST SWAP3 SWAP2 POP POP JUMP JUMPDEST PUSH0 PUSH1 0x20 DUP3 DUP5 SUB SLT ISZERO PUSH2 0xA1E JUMPI PUSH2 0xA1D PUSH2 0x758 JUMP JUMPDEST JUMPDEST PUSH0 PUSH2 0xA2B DUP5 DUP3 DUP6 ADD PUSH2 0x9F5 JUMP JUMPDEST SWAP2 POP POP SWAP3 SWAP2 POP POP JUMP JUMPDEST PUSH0 DUP3 DUP3 MSTORE PUSH1 0x20 DUP3 ADD SWAP1 POP SWAP3 SWAP2 POP POP JUMP JUMPDEST PUSH32 0x546F6B656E207472616E73666572206661696C65640000000000000000000000 PUSH0 DUP3 ADD MSTORE POP JUMP JUMPDEST PUSH0 PUSH2 0xA78 PUSH1 0x15 DUP4 PUSH2 0xA34 JUMP JUMPDEST SWAP2 POP PUSH2 0xA83 DUP3 PUSH2 0xA44 JUMP JUMPDEST PUSH1 0x20 DUP3 ADD SWAP1 POP SWAP2 SWAP1 POP JUMP JUMPDEST PUSH0 PUSH1 0x20 DUP3 ADD SWAP1 POP DUP2 DUP2 SUB PUSH0 DUP4 ADD MSTORE PUSH2 0xAA5 DUP2 PUSH2 0xA6C JUMP JUMPDEST SWAP1 POP SWAP2 SWAP1 POP JUMP JUMPDEST PUSH0 DUP2 SWAP1 POP SWAP2 SWAP1 POP JUMP JUMPDEST PUSH2 0xAC6 PUSH2 0xAC1 DUP3 PUSH2 0x75C JUMP JUMPDEST PUSH2 0xAAC JUMP JUMPDEST DUP3 MSTORE POP POP JUMP JUMPDEST PUSH0 DUP2 PUSH1 0x60 SHL SWAP1 POP SWAP2 SWAP1 POP JUMP JUMPDEST PUSH0 PUSH2 0xAE2 DUP3 PUSH2 0xACC JUMP JUMPDEST SWAP1 POP SWAP2 SWAP1 POP JUMP JUMPDEST PUSH0 PUSH2 0xAF3 DUP3 PUSH2 0xAD8 JUMP JUMPDEST SWAP1 POP SWAP2 SWAP1 POP JUMP JUMPDEST PUSH2 0xB0B PUSH2 0xB06 DUP3 PUSH2 0x7BA JUMP JUMPDEST PUSH2 0xAE9 JUMP JUMPDEST DUP3 MSTORE POP POP JUMP JUMPDEST PUSH0 PUSH2 0xB1C DUP3 DUP12 PUSH2 0xAB5 JUMP JUMPDEST PUSH1 0x20 DUP3 ADD SWAP2 POP PUSH2 0xB2C DUP3 DUP11 PUSH2 0xAB5 JUMP JUMPDEST PUSH1 0x20 DUP3 ADD SWAP2 POP PUSH2 0xB3C DUP3 DUP10 PUSH2 0xAB5 JUMP JUMPDEST PUSH1 0x20 DUP3 ADD SWAP2 POP PUSH2 0xB4C DUP3 DUP9 PUSH2 0xAB5 JUMP JUMPDEST PUSH1 0x20 DUP3 ADD SWAP2 POP PUSH2 0xB5C DUP3 DUP8 PUSH2 0xAB5 JUMP JUMPDEST PUSH1 0x20 DUP3 ADD SWAP2 POP PUSH2 0xB6C DUP3 DUP7 PUSH2 0xAB5 JUMP JUMPDEST PUSH1 0x20 DUP3 ADD SWAP2 POP PUSH2 0xB7C DUP3 DUP6 PUSH2 0xAFA JUMP JUMPDEST PUSH1 0x14 DUP3 ADD SWAP2 POP PUSH2 0xB8C DUP3 DUP5 PUSH2 0xAB5 JUMP JUMPDEST PUSH1 0x20 DUP3 ADD SWAP2 POP DUP2 SWAP1 POP SWAP10 SWAP9 POP POP POP POP POP POP POP POP POP JUMP JUMPDEST PUSH0 DUP2 SWAP1 POP SWAP2 SWAP1 POP JUMP JUMPDEST PUSH2 0xBB4 DUP2 PUSH2 0xBA2 JUMP JUMPDEST DUP3 MSTORE POP POP JUMP JUMPDEST PUSH0 PUSH2 0x120 DUP3 ADD SWAP1 POP PUSH2 0xBCE PUSH0 DUP4 ADD DUP13 PUSH2 0x90A JUMP JUMPDEST PUSH2 0xBDB PUSH1 0x20 DUP4 ADD DUP12 PUSH2 0x90A JUMP JUMPDEST PUSH2 0xBE8 PUSH1 0x40 DUP4 ADD DUP11 PUSH2 0x90A JUMP JUMPDEST PUSH2 0xBF5 PUSH1 0x60 DUP4 ADD DUP10 PUSH2 0x90A JUMP JUMPDEST PUSH2 0xC02 PUSH1 0x80 DUP4 ADD DUP9 PUSH2 0x90A JUMP JUMPDEST PUSH2 0xC0F PUSH1 0xA0 DUP4 ADD DUP8 PUSH2 0x90A JUMP JUMPDEST PUSH2 0xC1C PUSH1 0xC0 DUP4 ADD DUP7 PUSH2 0x90A JUMP JUMPDEST PUSH2 0xC29 PUSH1 0xE0 DUP4 ADD DUP6 PUSH2 0x90A JUMP JUMPDEST PUSH2 0xC37 PUSH2 0x100 DUP4 ADD DUP5 PUSH2 0xBAB JUMP JUMPDEST SWAP11 SWAP10 POP POP POP POP POP POP POP POP POP POP JUMP INVALID LOG2 PUSH5 0x6970667358 0x22 SLT KECCAK256 DIV SWAP5 0x4D 0xB4 0xFB 0xFB 0xCD 0xBF PUSH11 0x2B4B0220DC9354E733F624 JUMPI 0xC5 0xE6 0xB0 0xAE PUSH1 0x66 GASPRICE 0xBE PUSH16 0xEE3364736F6C634300081A0033000000 "
		},
		"gasEstimates": {
			"creation": {
				"codeDepositCost": "639000",
				"executionCost": "infinite",
				"totalCost": "infinite"
			},
			"external": {
				"dataStorage()": "infinite",
				"greenToken()": "infinite",
				"owner()": "2515",
				"renounceOwnership()": "infinite",
				"rewardAmount()": "2513",
				"serverWallet()": "2553",
				"storeDataAndReward(uint256,uint256,uint256,uint256,uint256,uint256)": "infinite",
				"transferOwnership(address)": "infinite",
				"updateRewardAmount(uint256)": "infinite",
				"updateServerWallet(address)": "infinite"
			}
		},
		"methodIdentifiers": {
			"dataStorage()": "8870455f",
			"greenToken()": "02b32af5",
			"owner()": "8da5cb5b",
			"renounceOwnership()": "715018a6",
			"rewardAmount()": "f7b2a7be",
			"serverWallet()": "1a59f0f0",
			"storeDataAndReward(uint256,uint256,uint256,uint256,uint256,uint256)": "e8064166",
			"transferOwnership(address)": "f2fde38b",
			"updateRewardAmount(uint256)": "15c2ba14",
			"updateServerWallet(address)": "a293a996"
		}
	},
	"abi": [
		{
			"inputs": [
				{
					"internalType": "contract DataStorage",
					"name": "_dataStorage",
					"type": "address"
				},
				{
					"internalType": "contract GreenToken",
					"name": "_greenToken",
					"type": "address"
				},
				{
					"internalType": "address",
					"name": "_serverWallet",
					"type": "address"
				}
			],
			"stateMutability": "nonpayable",
			"type": "constructor"
		},
		{
			"inputs": [
				{
					"internalType": "address",
					"name": "owner",
					"type": "address"
				}
			],
			"name": "OwnableInvalidOwner",
			"type": "error"
		},
		{
			"inputs": [
				{
					"internalType": "address",
					"name": "account",
					"type": "address"
				}
			],
			"name": "OwnableUnauthorizedAccount",
			"type": "error"
		},
		{
			"anonymous": false,
			"inputs": [
				{
					"indexed": false,
					"internalType": "uint256",
					"name": "CO2_emissions",
					"type": "uint256"
				},
				{
					"indexed": false,
					"internalType": "uint256",
					"name": "methane_emissions",
					"type": "uint256"
				},
				{
					"indexed": false,
					"internalType": "uint256",
					"name": "NOx_emissions",
					"type": "uint256"
				},
				{
					"indexed": false,
					"internalType": "uint256",
					"name": "PM_emissions",
					"type": "uint256"
				},
				{
					"indexed": false,
					"internalType": "uint256",
					"name": "humidity",
					"type": "uint256"
				},
				{
					"indexed": false,
					"internalType": "uint256",
					"name": "temperature",
					"type": "uint256"
				},
				{
					"indexed": true,
					"internalType": "address",
					"name": "walletAddress",
					"type": "address"
				},
				{
					"indexed": false,
					"internalType": "uint256",
					"name": "timestamp",
					"type": "uint256"
				},
				{
					"indexed": false,
					"internalType": "uint256",
					"name": "rewardAmount",
					"type": "uint256"
				},
				{
					"indexed": false,
					"internalType": "bytes32",
					"name": "txHash",
					"type": "bytes32"
				}
			],
			"name": "DataStoredAndRewarded",
			"type": "event"
		},
		{
			"anonymous": false,
			"inputs": [
				{
					"indexed": true,
					"internalType": "address",
					"name": "previousOwner",
					"type": "address"
				},
				{
					"indexed": true,
					"internalType": "address",
					"name": "newOwner",
					"type": "address"
				}
			],
			"name": "OwnershipTransferred",
			"type": "event"
		},
		{
			"inputs": [],
			"name": "dataStorage",
			"outputs": [
				{
					"internalType": "contract DataStorage",
					"name": "",
					"type": "address"
				}
			],
			"stateMutability": "view",
			"type": "function"
		},
		{
			"inputs": [],
			"name": "greenToken",
			"outputs": [
				{
					"internalType": "contract GreenToken",
					"name": "",
					"type": "address"
				}
			],
			"stateMutability": "view",
			"type": "function"
		},
		{
			"inputs": [],
			"name": "owner",
			"outputs": [
				{
					"internalType": "address",
					"name": "",
					"type": "address"
				}
			],
			"stateMutability": "view",
			"type": "function"
		},
		{
			"inputs": [],
			"name": "renounceOwnership",
			"outputs": [],
			"stateMutability": "nonpayable",
			"type": "function"
		},
		{
			"inputs": [],
			"name": "rewardAmount",
			"outputs": [
				{
					"internalType": "uint256",
					"name": "",
					"type": "uint256"
				}
			],
			"stateMutability": "view",
			"type": "function"
		},
		{
			"inputs": [],
			"name": "serverWallet",
			"outputs": [
				{
					"internalType": "address",
					"name": "",
					"type": "address"
				}
			],
			"stateMutability": "view",
			"type": "function"
		},
		{
			"inputs": [
				{
					"internalType": "uint256",
					"name": "_CO2_emissions",
					"type": "uint256"
				},
				{
					"internalType": "uint256",
					"name": "_methane_emissions",
					"type": "uint256"
				},
				{
					"internalType": "uint256",
					"name": "_NOx_emissions",
					"type": "uint256"
				},
				{
					"internalType": "uint256",
					"name": "_PM_emissions",
					"type": "uint256"
				},
				{
					"internalType": "uint256",
					"name": "_humidity",
					"type": "uint256"
				},
				{
					"internalType": "uint256",
					"name": "_temperature",
					"type": "uint256"
				}
			],
			"name": "storeDataAndReward",
			"outputs": [],
			"stateMutability": "nonpayable",
			"type": "function"
		},
		{
			"inputs": [
				{
					"internalType": "address",
					"name": "newOwner",
					"type": "address"
				}
			],
			"name": "transferOwnership",
			"outputs": [],
			"stateMutability": "nonpayable",
			"type": "function"
		},
		{
			"inputs": [
				{
					"internalType": "uint256",
					"name": "_newRewardAmount",
					"type": "uint256"
				}
			],
			"name": "updateRewardAmount",
			"outputs": [],
			"stateMutability": "nonpayable",
			"type": "function"
		},
		{
			"inputs": [
				{
					"internalType": "address",
					"name": "_newServerWallet",
					"type": "address"
				}
			],
			"name": "updateServerWallet",
			"outputs": [],
			"stateMutability": "nonpayable",
			"type": "function"
		}
	]
}